{
  "contractName": "BFSocialToken",
  "abi": [
    {
      "inputs": [
        {
          "internalType": "string",
          "name": "_name",
          "type": "string"
        },
        {
          "internalType": "string",
          "name": "_symbol",
          "type": "string"
        }
      ],
      "stateMutability": "nonpayable",
      "type": "constructor"
    },
    {
      "anonymous": false,
      "inputs": [
        {
          "indexed": true,
          "internalType": "address",
          "name": "owner",
          "type": "address"
        },
        {
          "indexed": true,
          "internalType": "address",
          "name": "spender",
          "type": "address"
        },
        {
          "indexed": false,
          "internalType": "uint256",
          "name": "value",
          "type": "uint256"
        }
      ],
      "name": "Approval",
      "type": "event"
    },
    {
      "anonymous": false,
      "inputs": [
        {
          "indexed": true,
          "internalType": "address",
          "name": "previousOwner",
          "type": "address"
        },
        {
          "indexed": true,
          "internalType": "address",
          "name": "newOwner",
          "type": "address"
        }
      ],
      "name": "OwnershipTransferred",
      "type": "event"
    },
    {
      "anonymous": false,
      "inputs": [
        {
          "indexed": true,
          "internalType": "address",
          "name": "to",
          "type": "address"
        },
        {
          "indexed": false,
          "internalType": "uint256",
          "name": "amount",
          "type": "uint256"
        }
      ],
      "name": "SocialTokenMinted",
      "type": "event"
    },
    {
      "anonymous": false,
      "inputs": [
        {
          "indexed": true,
          "internalType": "address",
          "name": "from",
          "type": "address"
        },
        {
          "indexed": true,
          "internalType": "address",
          "name": "to",
          "type": "address"
        },
        {
          "indexed": false,
          "internalType": "uint256",
          "name": "value",
          "type": "uint256"
        }
      ],
      "name": "Transfer",
      "type": "event"
    },
    {
      "anonymous": false,
      "inputs": [
        {
          "indexed": true,
          "internalType": "address",
          "name": "from",
          "type": "address"
        },
        {
          "indexed": true,
          "internalType": "address",
          "name": "to",
          "type": "address"
        },
        {
          "indexed": false,
          "internalType": "uint256",
          "name": "amount",
          "type": "uint256"
        }
      ],
      "name": "TransferSocialToken",
      "type": "event"
    },
    {
      "anonymous": false,
      "inputs": [
        {
          "indexed": true,
          "internalType": "address",
          "name": "to",
          "type": "address"
        },
        {
          "indexed": false,
          "internalType": "uint256",
          "name": "amount",
          "type": "uint256"
        },
        {
          "indexed": false,
          "internalType": "string",
          "name": "uuid",
          "type": "string"
        }
      ],
      "name": "WithdrawSocialTokenFromSpending",
      "type": "event"
    },
    {
      "inputs": [
        {
          "internalType": "address",
          "name": "owner",
          "type": "address"
        },
        {
          "internalType": "address",
          "name": "spender",
          "type": "address"
        }
      ],
      "name": "allowance",
      "outputs": [
        {
          "internalType": "uint256",
          "name": "",
          "type": "uint256"
        }
      ],
      "stateMutability": "view",
      "type": "function",
      "constant": true
    },
    {
      "inputs": [
        {
          "internalType": "address",
          "name": "spender",
          "type": "address"
        },
        {
          "internalType": "uint256",
          "name": "amount",
          "type": "uint256"
        }
      ],
      "name": "approve",
      "outputs": [
        {
          "internalType": "bool",
          "name": "",
          "type": "bool"
        }
      ],
      "stateMutability": "nonpayable",
      "type": "function"
    },
    {
      "inputs": [
        {
          "internalType": "address",
          "name": "account",
          "type": "address"
        }
      ],
      "name": "balanceOf",
      "outputs": [
        {
          "internalType": "uint256",
          "name": "",
          "type": "uint256"
        }
      ],
      "stateMutability": "view",
      "type": "function",
      "constant": true
    },
    {
      "inputs": [],
      "name": "decimals",
      "outputs": [
        {
          "internalType": "uint8",
          "name": "",
          "type": "uint8"
        }
      ],
      "stateMutability": "view",
      "type": "function",
      "constant": true
    },
    {
      "inputs": [
        {
          "internalType": "address",
          "name": "spender",
          "type": "address"
        },
        {
          "internalType": "uint256",
          "name": "subtractedValue",
          "type": "uint256"
        }
      ],
      "name": "decreaseAllowance",
      "outputs": [
        {
          "internalType": "bool",
          "name": "",
          "type": "bool"
        }
      ],
      "stateMutability": "nonpayable",
      "type": "function"
    },
    {
      "inputs": [
        {
          "internalType": "address",
          "name": "spender",
          "type": "address"
        },
        {
          "internalType": "uint256",
          "name": "addedValue",
          "type": "uint256"
        }
      ],
      "name": "increaseAllowance",
      "outputs": [
        {
          "internalType": "bool",
          "name": "",
          "type": "bool"
        }
      ],
      "stateMutability": "nonpayable",
      "type": "function"
    },
    {
      "inputs": [],
      "name": "maxSupply",
      "outputs": [
        {
          "internalType": "uint256",
          "name": "",
          "type": "uint256"
        }
      ],
      "stateMutability": "view",
      "type": "function",
      "constant": true
    },
    {
      "inputs": [],
      "name": "name",
      "outputs": [
        {
          "internalType": "string",
          "name": "",
          "type": "string"
        }
      ],
      "stateMutability": "view",
      "type": "function",
      "constant": true
    },
    {
      "inputs": [],
      "name": "owner",
      "outputs": [
        {
          "internalType": "address",
          "name": "",
          "type": "address"
        }
      ],
      "stateMutability": "view",
      "type": "function",
      "constant": true
    },
    {
      "inputs": [],
      "name": "renounceOwnership",
      "outputs": [],
      "stateMutability": "nonpayable",
      "type": "function"
    },
    {
      "inputs": [],
      "name": "symbol",
      "outputs": [
        {
          "internalType": "string",
          "name": "",
          "type": "string"
        }
      ],
      "stateMutability": "view",
      "type": "function",
      "constant": true
    },
    {
      "inputs": [],
      "name": "totalSupply",
      "outputs": [
        {
          "internalType": "uint256",
          "name": "",
          "type": "uint256"
        }
      ],
      "stateMutability": "view",
      "type": "function",
      "constant": true
    },
    {
      "inputs": [
        {
          "internalType": "address",
          "name": "from",
          "type": "address"
        },
        {
          "internalType": "address",
          "name": "to",
          "type": "address"
        },
        {
          "internalType": "uint256",
          "name": "amount",
          "type": "uint256"
        }
      ],
      "name": "transferFrom",
      "outputs": [
        {
          "internalType": "bool",
          "name": "",
          "type": "bool"
        }
      ],
      "stateMutability": "nonpayable",
      "type": "function"
    },
    {
      "inputs": [
        {
          "internalType": "address",
          "name": "newOwner",
          "type": "address"
        }
      ],
      "name": "transferOwnership",
      "outputs": [],
      "stateMutability": "nonpayable",
      "type": "function"
    },
    {
      "inputs": [
        {
          "internalType": "uint256",
          "name": "amount",
          "type": "uint256"
        }
      ],
      "name": "mint",
      "outputs": [],
      "stateMutability": "nonpayable",
      "type": "function"
    },
    {
      "inputs": [
        {
          "internalType": "address",
          "name": "to",
          "type": "address"
        },
        {
          "internalType": "uint256",
          "name": "amount",
          "type": "uint256"
        }
      ],
      "name": "transfer",
      "outputs": [
        {
          "internalType": "bool",
          "name": "",
          "type": "bool"
        }
      ],
      "stateMutability": "nonpayable",
      "type": "function"
    },
    {
      "inputs": [
        {
          "internalType": "address",
          "name": "to",
          "type": "address"
        },
        {
          "internalType": "uint256",
          "name": "amount",
          "type": "uint256"
        },
        {
          "internalType": "string",
          "name": "uuid",
          "type": "string"
        }
      ],
      "name": "withdrawFromSpending",
      "outputs": [],
      "stateMutability": "nonpayable",
      "type": "function"
    }
  ],
  "bytecode": "0x60806040526a52b7d2dcc80cd2e40000006006553480156200002057600080fd5b506040516200265538038062002655833981810160405281019062000046919062000691565b818181600390805190602001906200006092919062000444565b5080600490805190602001906200007992919062000444565b5050506200009c62000090620000b760201b60201c565b620000bf60201b60201c565b620000af6006546200018560201b60201c565b505062000934565b600033905090565b6000600560009054906101000a900473ffffffffffffffffffffffffffffffffffffffff16905081600560006101000a81548173ffffffffffffffffffffffffffffffffffffffff021916908373ffffffffffffffffffffffffffffffffffffffff1602179055508173ffffffffffffffffffffffffffffffffffffffff168173ffffffffffffffffffffffffffffffffffffffff167f8be0079c531659141344cd1fd0a4f28419497f9722a3daafe3b4186f6b6457e060405160405180910390a35050565b62000195620000b760201b60201c565b73ffffffffffffffffffffffffffffffffffffffff16620001bb6200029760201b60201c565b73ffffffffffffffffffffffffffffffffffffffff161462000214576040517f08c379a00000000000000000000000000000000000000000000000000000000081526004016200020b9062000777565b60405180910390fd5b6200023562000228620000b760201b60201c565b82620002c160201b60201c565b62000245620000b760201b60201c565b73ffffffffffffffffffffffffffffffffffffffff167f4e60a1915eea3844d4efef2fde237f031124ed185c7504ddc7867ca4a0c0f992826040516200028c9190620007b4565b60405180910390a250565b6000600560009054906101000a900473ffffffffffffffffffffffffffffffffffffffff16905090565b600073ffffffffffffffffffffffffffffffffffffffff168273ffffffffffffffffffffffffffffffffffffffff16141562000334576040517f08c379a00000000000000000000000000000000000000000000000000000000081526004016200032b9062000821565b60405180910390fd5b62000348600083836200043a60201b60201c565b80600260008282546200035c919062000872565b92505081905550806000808473ffffffffffffffffffffffffffffffffffffffff1673ffffffffffffffffffffffffffffffffffffffff1681526020019081526020016000206000828254620003b3919062000872565b925050819055508173ffffffffffffffffffffffffffffffffffffffff16600073ffffffffffffffffffffffffffffffffffffffff167fddf252ad1be2c89b69c2b068fc378daa952ba7f163c4a11628f55a4df523b3ef836040516200041a9190620007b4565b60405180910390a362000436600083836200043f60201b60201c565b5050565b505050565b505050565b8280546200045290620008fe565b90600052602060002090601f016020900481019282620004765760008555620004c2565b82601f106200049157805160ff1916838001178555620004c2565b82800160010185558215620004c2579182015b82811115620004c1578251825591602001919060010190620004a4565b5b509050620004d19190620004d5565b5090565b5b80821115620004f0576000816000905550600101620004d6565b5090565b6000604051905090565b600080fd5b600080fd5b600080fd5b600080fd5b6000601f19601f8301169050919050565b7f4e487b7100000000000000000000000000000000000000000000000000000000600052604160045260246000fd5b6200055d8262000512565b810181811067ffffffffffffffff821117156200057f576200057e62000523565b5b80604052505050565b600062000594620004f4565b9050620005a2828262000552565b919050565b600067ffffffffffffffff821115620005c557620005c462000523565b5b620005d08262000512565b9050602081019050919050565b60005b83811015620005fd578082015181840152602081019050620005e0565b838111156200060d576000848401525b50505050565b60006200062a6200062484620005a7565b62000588565b9050828152602081018484840111156200064957620006486200050d565b5b62000656848285620005dd565b509392505050565b600082601f83011262000676576200067562000508565b5b81516200068884826020860162000613565b91505092915050565b60008060408385031215620006ab57620006aa620004fe565b5b600083015167ffffffffffffffff811115620006cc57620006cb62000503565b5b620006da858286016200065e565b925050602083015167ffffffffffffffff811115620006fe57620006fd62000503565b5b6200070c858286016200065e565b9150509250929050565b600082825260208201905092915050565b7f4f776e61626c653a2063616c6c6572206973206e6f7420746865206f776e6572600082015250565b60006200075f60208362000716565b91506200076c8262000727565b602082019050919050565b60006020820190508181036000830152620007928162000750565b9050919050565b6000819050919050565b620007ae8162000799565b82525050565b6000602082019050620007cb6000830184620007a3565b92915050565b7f45524332303a206d696e7420746f20746865207a65726f206164647265737300600082015250565b600062000809601f8362000716565b91506200081682620007d1565b602082019050919050565b600060208201905081810360008301526200083c81620007fa565b9050919050565b7f4e487b7100000000000000000000000000000000000000000000000000000000600052601160045260246000fd5b60006200087f8262000799565b91506200088c8362000799565b9250827fffffffffffffffffffffffffffffffffffffffffffffffffffffffffffffffff03821115620008c457620008c362000843565b5b828201905092915050565b7f4e487b7100000000000000000000000000000000000000000000000000000000600052602260045260246000fd5b600060028204905060018216806200091757607f821691505b602082108114156200092e576200092d620008cf565b5b50919050565b611d1180620009446000396000f3fe608060405234801561001057600080fd5b506004361061010b5760003560e01c8063715018a6116100a2578063a457c2d711610071578063a457c2d7146102a8578063a9059cbb146102d8578063d5abeb0114610308578063dd62ed3e14610326578063f2fde38b146103565761010b565b8063715018a6146102465780638da5cb5b1461025057806395d89b411461026e578063a0712d681461028c5761010b565b80632ab33c48116100de5780632ab33c48146101ac578063313ce567146101c857806339509351146101e657806370a08231146102165761010b565b806306fdde0314610110578063095ea7b31461012e57806318160ddd1461015e57806323b872dd1461017c575b600080fd5b610118610372565b6040516101259190611227565b60405180910390f35b610148600480360381019061014391906112f1565b610404565b604051610155919061134c565b60405180910390f35b610166610427565b6040516101739190611376565b60405180910390f35b61019660048036038101906101919190611391565b610431565b6040516101a3919061134c565b60405180910390f35b6101c660048036038101906101c19190611519565b610460565b005b6101d0610549565b6040516101dd91906115a4565b60405180910390f35b61020060048036038101906101fb91906112f1565b610552565b60405161020d919061134c565b60405180910390f35b610230600480360381019061022b91906115bf565b610589565b60405161023d9190611376565b60405180910390f35b61024e6105d1565b005b610258610659565b60405161026591906115fb565b60405180910390f35b610276610683565b6040516102839190611227565b60405180910390f35b6102a660048036038101906102a19190611616565b610715565b005b6102c260048036038101906102bd91906112f1565b6107fa565b6040516102cf919061134c565b60405180910390f35b6102f260048036038101906102ed91906112f1565b610871565b6040516102ff919061134c565b60405180910390f35b6103106108f9565b60405161031d9190611376565b60405180910390f35b610340600480360381019061033b9190611643565b6108ff565b60405161034d9190611376565b60405180910390f35b610370600480360381019061036b91906115bf565b610986565b005b606060038054610381906116b2565b80601f01602080910402602001604051908101604052809291908181526020018280546103ad906116b2565b80156103fa5780601f106103cf576101008083540402835291602001916103fa565b820191906000526020600020905b8154815290600101906020018083116103dd57829003601f168201915b5050505050905090565b60008061040f610a7e565b905061041c818585610a86565b600191505092915050565b6000600254905090565b60008061043c610a7e565b9050610449858285610c51565b610454858585610cdd565b60019150509392505050565b610468610a7e565b73ffffffffffffffffffffffffffffffffffffffff16610486610659565b73ffffffffffffffffffffffffffffffffffffffff16146104dc576040517f08c379a00000000000000000000000000000000000000000000000000000000081526004016104d390611730565b60405180910390fd5b60006104e6610a7e565b90506104f3818585610cdd565b8373ffffffffffffffffffffffffffffffffffffffff167f6f191fcb0eb2923637f4df83bd9807f7e015db81d194fc5f5044c3c51e51817b848460405161053b929190611750565b60405180910390a250505050565b60006012905090565b60008061055d610a7e565b905061057e81858561056f85896108ff565b61057991906117af565b610a86565b600191505092915050565b60008060008373ffffffffffffffffffffffffffffffffffffffff1673ffffffffffffffffffffffffffffffffffffffff168152602001908152602001600020549050919050565b6105d9610a7e565b73ffffffffffffffffffffffffffffffffffffffff166105f7610659565b73ffffffffffffffffffffffffffffffffffffffff161461064d576040517f08c379a000000000000000000000000000000000000000000000000000000000815260040161064490611730565b60405180910390fd5b6106576000610f5e565b565b6000600560009054906101000a900473ffffffffffffffffffffffffffffffffffffffff16905090565b606060048054610692906116b2565b80601f01602080910402602001604051908101604052809291908181526020018280546106be906116b2565b801561070b5780601f106106e05761010080835404028352916020019161070b565b820191906000526020600020905b8154815290600101906020018083116106ee57829003601f168201915b5050505050905090565b61071d610a7e565b73ffffffffffffffffffffffffffffffffffffffff1661073b610659565b73ffffffffffffffffffffffffffffffffffffffff1614610791576040517f08c379a000000000000000000000000000000000000000000000000000000000815260040161078890611730565b60405180910390fd5b6107a261079c610a7e565b82611024565b6107aa610a7e565b73ffffffffffffffffffffffffffffffffffffffff167f4e60a1915eea3844d4efef2fde237f031124ed185c7504ddc7867ca4a0c0f992826040516107ef9190611376565b60405180910390a250565b600080610805610a7e565b9050600061081382866108ff565b905083811015610858576040517f08c379a000000000000000000000000000000000000000000000000000000000815260040161084f90611877565b60405180910390fd5b6108658286868403610a86565b60019250505092915050565b60008061087c610a7e565b9050610889818585610cdd565b8373ffffffffffffffffffffffffffffffffffffffff163373ffffffffffffffffffffffffffffffffffffffff167f5ab8ddffd5a40463ad2fa181bae70afd16bdb867704bf1e739e09ec8d0f37461856040516108e69190611376565b60405180910390a3600191505092915050565b60065481565b6000600160008473ffffffffffffffffffffffffffffffffffffffff1673ffffffffffffffffffffffffffffffffffffffff16815260200190815260200160002060008373ffffffffffffffffffffffffffffffffffffffff1673ffffffffffffffffffffffffffffffffffffffff16815260200190815260200160002054905092915050565b61098e610a7e565b73ffffffffffffffffffffffffffffffffffffffff166109ac610659565b73ffffffffffffffffffffffffffffffffffffffff1614610a02576040517f08c379a00000000000000000000000000000000000000000000000000000000081526004016109f990611730565b60405180910390fd5b600073ffffffffffffffffffffffffffffffffffffffff168173ffffffffffffffffffffffffffffffffffffffff161415610a72576040517f08c379a0000000000000000000000000000000000000000000000000000000008152600401610a6990611909565b60405180910390fd5b610a7b81610f5e565b50565b600033905090565b600073ffffffffffffffffffffffffffffffffffffffff168373ffffffffffffffffffffffffffffffffffffffff161415610af6576040517f08c379a0000000000000000000000000000000000000000000000000000000008152600401610aed9061199b565b60405180910390fd5b600073ffffffffffffffffffffffffffffffffffffffff168273ffffffffffffffffffffffffffffffffffffffff161415610b66576040517f08c379a0000000000000000000000000000000000000000000000000000000008152600401610b5d90611a2d565b60405180910390fd5b80600160008573ffffffffffffffffffffffffffffffffffffffff1673ffffffffffffffffffffffffffffffffffffffff16815260200190815260200160002060008473ffffffffffffffffffffffffffffffffffffffff1673ffffffffffffffffffffffffffffffffffffffff168152602001908152602001600020819055508173ffffffffffffffffffffffffffffffffffffffff168373ffffffffffffffffffffffffffffffffffffffff167f8c5be1e5ebec7d5bd14f71427d1e84f3dd0314c0f7b2291e5b200ac8c7c3b92583604051610c449190611376565b60405180910390a3505050565b6000610c5d84846108ff565b90507fffffffffffffffffffffffffffffffffffffffffffffffffffffffffffffffff8114610cd75781811015610cc9576040517f08c379a0000000000000000000000000000000000000000000000000000000008152600401610cc090611a99565b60405180910390fd5b610cd68484848403610a86565b5b50505050565b600073ffffffffffffffffffffffffffffffffffffffff168373ffffffffffffffffffffffffffffffffffffffff161415610d4d576040517f08c379a0000000000000000000000000000000000000000000000000000000008152600401610d4490611b2b565b60405180910390fd5b600073ffffffffffffffffffffffffffffffffffffffff168273ffffffffffffffffffffffffffffffffffffffff161415610dbd576040517f08c379a0000000000000000000000000000000000000000000000000000000008152600401610db490611bbd565b60405180910390fd5b610dc8838383611184565b60008060008573ffffffffffffffffffffffffffffffffffffffff1673ffffffffffffffffffffffffffffffffffffffff16815260200190815260200160002054905081811015610e4e576040517f08c379a0000000000000000000000000000000000000000000000000000000008152600401610e4590611c4f565b60405180910390fd5b8181036000808673ffffffffffffffffffffffffffffffffffffffff1673ffffffffffffffffffffffffffffffffffffffff16815260200190815260200160002081905550816000808573ffffffffffffffffffffffffffffffffffffffff1673ffffffffffffffffffffffffffffffffffffffff1681526020019081526020016000206000828254610ee191906117af565b925050819055508273ffffffffffffffffffffffffffffffffffffffff168473ffffffffffffffffffffffffffffffffffffffff167fddf252ad1be2c89b69c2b068fc378daa952ba7f163c4a11628f55a4df523b3ef84604051610f459190611376565b60405180910390a3610f58848484611189565b50505050565b6000600560009054906101000a900473ffffffffffffffffffffffffffffffffffffffff16905081600560006101000a81548173ffffffffffffffffffffffffffffffffffffffff021916908373ffffffffffffffffffffffffffffffffffffffff1602179055508173ffffffffffffffffffffffffffffffffffffffff168173ffffffffffffffffffffffffffffffffffffffff167f8be0079c531659141344cd1fd0a4f28419497f9722a3daafe3b4186f6b6457e060405160405180910390a35050565b600073ffffffffffffffffffffffffffffffffffffffff168273ffffffffffffffffffffffffffffffffffffffff161415611094576040517f08c379a000000000000000000000000000000000000000000000000000000000815260040161108b90611cbb565b60405180910390fd5b6110a060008383611184565b80600260008282546110b291906117af565b92505081905550806000808473ffffffffffffffffffffffffffffffffffffffff1673ffffffffffffffffffffffffffffffffffffffff168152602001908152602001600020600082825461110791906117af565b925050819055508173ffffffffffffffffffffffffffffffffffffffff16600073ffffffffffffffffffffffffffffffffffffffff167fddf252ad1be2c89b69c2b068fc378daa952ba7f163c4a11628f55a4df523b3ef8360405161116c9190611376565b60405180910390a361118060008383611189565b5050565b505050565b505050565b600081519050919050565b600082825260208201905092915050565b60005b838110156111c85780820151818401526020810190506111ad565b838111156111d7576000848401525b50505050565b6000601f19601f8301169050919050565b60006111f98261118e565b6112038185611199565b93506112138185602086016111aa565b61121c816111dd565b840191505092915050565b6000602082019050818103600083015261124181846111ee565b905092915050565b6000604051905090565b600080fd5b600080fd5b600073ffffffffffffffffffffffffffffffffffffffff82169050919050565b60006112888261125d565b9050919050565b6112988161127d565b81146112a357600080fd5b50565b6000813590506112b58161128f565b92915050565b6000819050919050565b6112ce816112bb565b81146112d957600080fd5b50565b6000813590506112eb816112c5565b92915050565b6000806040838503121561130857611307611253565b5b6000611316858286016112a6565b9250506020611327858286016112dc565b9150509250929050565b60008115159050919050565b61134681611331565b82525050565b6000602082019050611361600083018461133d565b92915050565b611370816112bb565b82525050565b600060208201905061138b6000830184611367565b92915050565b6000806000606084860312156113aa576113a9611253565b5b60006113b8868287016112a6565b93505060206113c9868287016112a6565b92505060406113da868287016112dc565b9150509250925092565b600080fd5b600080fd5b7f4e487b7100000000000000000000000000000000000000000000000000000000600052604160045260246000fd5b611426826111dd565b810181811067ffffffffffffffff82111715611445576114446113ee565b5b80604052505050565b6000611458611249565b9050611464828261141d565b919050565b600067ffffffffffffffff821115611484576114836113ee565b5b61148d826111dd565b9050602081019050919050565b82818337600083830152505050565b60006114bc6114b784611469565b61144e565b9050828152602081018484840111156114d8576114d76113e9565b5b6114e384828561149a565b509392505050565b600082601f830112611500576114ff6113e4565b5b81356115108482602086016114a9565b91505092915050565b60008060006060848603121561153257611531611253565b5b6000611540868287016112a6565b9350506020611551868287016112dc565b925050604084013567ffffffffffffffff81111561157257611571611258565b5b61157e868287016114eb565b9150509250925092565b600060ff82169050919050565b61159e81611588565b82525050565b60006020820190506115b96000830184611595565b92915050565b6000602082840312156115d5576115d4611253565b5b60006115e3848285016112a6565b91505092915050565b6115f58161127d565b82525050565b600060208201905061161060008301846115ec565b92915050565b60006020828403121561162c5761162b611253565b5b600061163a848285016112dc565b91505092915050565b6000806040838503121561165a57611659611253565b5b6000611668858286016112a6565b9250506020611679858286016112a6565b9150509250929050565b7f4e487b7100000000000000000000000000000000000000000000000000000000600052602260045260246000fd5b600060028204905060018216806116ca57607f821691505b602082108114156116de576116dd611683565b5b50919050565b7f4f776e61626c653a2063616c6c6572206973206e6f7420746865206f776e6572600082015250565b600061171a602083611199565b9150611725826116e4565b602082019050919050565b600060208201905081810360008301526117498161170d565b9050919050565b60006040820190506117656000830185611367565b818103602083015261177781846111ee565b90509392505050565b7f4e487b7100000000000000000000000000000000000000000000000000000000600052601160045260246000fd5b60006117ba826112bb565b91506117c5836112bb565b9250827fffffffffffffffffffffffffffffffffffffffffffffffffffffffffffffffff038211156117fa576117f9611780565b5b828201905092915050565b7f45524332303a2064656372656173656420616c6c6f77616e63652062656c6f7760008201527f207a65726f000000000000000000000000000000000000000000000000000000602082015250565b6000611861602583611199565b915061186c82611805565b604082019050919050565b6000602082019050818103600083015261189081611854565b9050919050565b7f4f776e61626c653a206e6577206f776e657220697320746865207a65726f206160008201527f6464726573730000000000000000000000000000000000000000000000000000602082015250565b60006118f3602683611199565b91506118fe82611897565b604082019050919050565b60006020820190508181036000830152611922816118e6565b9050919050565b7f45524332303a20617070726f76652066726f6d20746865207a65726f2061646460008201527f7265737300000000000000000000000000000000000000000000000000000000602082015250565b6000611985602483611199565b915061199082611929565b604082019050919050565b600060208201905081810360008301526119b481611978565b9050919050565b7f45524332303a20617070726f766520746f20746865207a65726f20616464726560008201527f7373000000000000000000000000000000000000000000000000000000000000602082015250565b6000611a17602283611199565b9150611a22826119bb565b604082019050919050565b60006020820190508181036000830152611a4681611a0a565b9050919050565b7f45524332303a20696e73756666696369656e7420616c6c6f77616e6365000000600082015250565b6000611a83601d83611199565b9150611a8e82611a4d565b602082019050919050565b60006020820190508181036000830152611ab281611a76565b9050919050565b7f45524332303a207472616e736665722066726f6d20746865207a65726f20616460008201527f6472657373000000000000000000000000000000000000000000000000000000602082015250565b6000611b15602583611199565b9150611b2082611ab9565b604082019050919050565b60006020820190508181036000830152611b4481611b08565b9050919050565b7f45524332303a207472616e7366657220746f20746865207a65726f206164647260008201527f6573730000000000000000000000000000000000000000000000000000000000602082015250565b6000611ba7602383611199565b9150611bb282611b4b565b604082019050919050565b60006020820190508181036000830152611bd681611b9a565b9050919050565b7f45524332303a207472616e7366657220616d6f756e742065786365656473206260008201527f616c616e63650000000000000000000000000000000000000000000000000000602082015250565b6000611c39602683611199565b9150611c4482611bdd565b604082019050919050565b60006020820190508181036000830152611c6881611c2c565b9050919050565b7f45524332303a206d696e7420746f20746865207a65726f206164647265737300600082015250565b6000611ca5601f83611199565b9150611cb082611c6f565b602082019050919050565b60006020820190508181036000830152611cd481611c98565b905091905056fea2646970667358221220a682a8d1a31e0ec0b59d837b4c76ba2c81e964485c26277b6bf67311797764b564736f6c634300080a0033",
  "immutableReferences": {},
  "source": "// contracts/Box.sol\n// SPDX-License-Identifier: UNLICENSED\npragma solidity ^0.8.0;\n\nimport \"@openzeppelin/contracts/token/ERC20/ERC20.sol\";\nimport \"@openzeppelin/contracts/access/Ownable.sol\";\n\ncontract BFSocialToken is ERC20, Ownable {\n\n    uint256 public maxSupply = 10**8 * 10**18;\n\n    event SocialTokenMinted(address indexed to, uint256 amount);\n    event TransferSocialToken(address indexed from, address indexed to, uint256 amount);\n    event WithdrawSocialTokenFromSpending(address indexed to, uint256 amount, string uuid);\n\n    constructor(string memory _name, string memory _symbol) ERC20(_name, _symbol)\n    {\n        mint(maxSupply);\n    }\n\n    function mint(uint256 amount)\n        public\n        onlyOwner\n    {\n        _mint(_msgSender(), amount);\n\n        emit SocialTokenMinted(_msgSender(), amount);\n    }\n\n    function transfer(address to, uint256 amount)\n        public virtual override\n        returns (bool)\n    {\n        address owner = _msgSender();\n        _transfer(owner, to, amount);\n\n        emit TransferSocialToken(msg.sender, to, amount);\n        return true;\n    }\n\n    function withdrawFromSpending(address to, uint256 amount, string memory uuid)\n        public\n        onlyOwner\n    {\n        address owner = _msgSender();\n        _transfer(owner, to, amount);\n\n        emit WithdrawSocialTokenFromSpending(to, amount, uuid);\n    }\n}",
  "sourcePath": "/home/hungnd/workspace/BeFitter/contracts/BFSocialToken.sol",
  "compiler": {
    "name": "solc",
    "version": "0.8.10+commit.fc410830.Emscripten.clang"
  },
  "schemaVersion": "3.4.3",
  "updatedAt": "2022-06-05T14:15:04.524Z",
  "networkType": "ethereum",
  "devdoc": {
    "kind": "dev",
    "methods": {
      "allowance(address,address)": {
        "details": "See {IERC20-allowance}."
      },
      "approve(address,uint256)": {
        "details": "See {IERC20-approve}. NOTE: If `amount` is the maximum `uint256`, the allowance is not updated on `transferFrom`. This is semantically equivalent to an infinite approval. Requirements: - `spender` cannot be the zero address."
      },
      "balanceOf(address)": {
        "details": "See {IERC20-balanceOf}."
      },
      "decimals()": {
        "details": "Returns the number of decimals used to get its user representation. For example, if `decimals` equals `2`, a balance of `505` tokens should be displayed to a user as `5.05` (`505 / 10 ** 2`). Tokens usually opt for a value of 18, imitating the relationship between Ether and Wei. This is the value {ERC20} uses, unless this function is overridden; NOTE: This information is only used for _display_ purposes: it in no way affects any of the arithmetic of the contract, including {IERC20-balanceOf} and {IERC20-transfer}."
      },
      "decreaseAllowance(address,uint256)": {
        "details": "Atomically decreases the allowance granted to `spender` by the caller. This is an alternative to {approve} that can be used as a mitigation for problems described in {IERC20-approve}. Emits an {Approval} event indicating the updated allowance. Requirements: - `spender` cannot be the zero address. - `spender` must have allowance for the caller of at least `subtractedValue`."
      },
      "increaseAllowance(address,uint256)": {
        "details": "Atomically increases the allowance granted to `spender` by the caller. This is an alternative to {approve} that can be used as a mitigation for problems described in {IERC20-approve}. Emits an {Approval} event indicating the updated allowance. Requirements: - `spender` cannot be the zero address."
      },
      "name()": {
        "details": "Returns the name of the token."
      },
      "owner()": {
        "details": "Returns the address of the current owner."
      },
      "renounceOwnership()": {
        "details": "Leaves the contract without owner. It will not be possible to call `onlyOwner` functions anymore. Can only be called by the current owner. NOTE: Renouncing ownership will leave the contract without an owner, thereby removing any functionality that is only available to the owner."
      },
      "symbol()": {
        "details": "Returns the symbol of the token, usually a shorter version of the name."
      },
      "totalSupply()": {
        "details": "See {IERC20-totalSupply}."
      },
      "transfer(address,uint256)": {
        "details": "See {IERC20-transfer}. Requirements: - `to` cannot be the zero address. - the caller must have a balance of at least `amount`."
      },
      "transferFrom(address,address,uint256)": {
        "details": "See {IERC20-transferFrom}. Emits an {Approval} event indicating the updated allowance. This is not required by the EIP. See the note at the beginning of {ERC20}. NOTE: Does not update the allowance if the current allowance is the maximum `uint256`. Requirements: - `from` and `to` cannot be the zero address. - `from` must have a balance of at least `amount`. - the caller must have allowance for ``from``'s tokens of at least `amount`."
      },
      "transferOwnership(address)": {
        "details": "Transfers ownership of the contract to a new account (`newOwner`). Can only be called by the current owner."
      }
    },
    "version": 1
  },
  "userdoc": {
    "kind": "user",
    "methods": {},
    "version": 1
  }
}