{
  "_format": "hh-sol-artifact-1",
  "contractName": "BFHealthToken",
  "sourceName": "contracts/BFHealth.sol",
  "abi": [
    {
      "inputs": [
        {
          "internalType": "string",
          "name": "_name",
          "type": "string"
        },
        {
          "internalType": "string",
          "name": "_symbol",
          "type": "string"
        }
      ],
      "stateMutability": "nonpayable",
      "type": "constructor"
    },
    {
      "anonymous": false,
      "inputs": [
        {
          "indexed": true,
          "internalType": "address",
          "name": "owner",
          "type": "address"
        },
        {
          "indexed": true,
          "internalType": "address",
          "name": "spender",
          "type": "address"
        },
        {
          "indexed": false,
          "internalType": "uint256",
          "name": "value",
          "type": "uint256"
        }
      ],
      "name": "Approval",
      "type": "event"
    },
    {
      "anonymous": false,
      "inputs": [
        {
          "indexed": true,
          "internalType": "address",
          "name": "to",
          "type": "address"
        },
        {
          "indexed": false,
          "internalType": "uint256",
          "name": "amount",
          "type": "uint256"
        },
        {
          "indexed": false,
          "internalType": "string",
          "name": "message",
          "type": "string"
        }
      ],
      "name": "MintHealthToken",
      "type": "event"
    },
    {
      "anonymous": false,
      "inputs": [
        {
          "indexed": true,
          "internalType": "address",
          "name": "previousOwner",
          "type": "address"
        },
        {
          "indexed": true,
          "internalType": "address",
          "name": "newOwner",
          "type": "address"
        }
      ],
      "name": "OwnershipTransferred",
      "type": "event"
    },
    {
      "anonymous": false,
      "inputs": [
        {
          "indexed": true,
          "internalType": "address",
          "name": "from",
          "type": "address"
        },
        {
          "indexed": true,
          "internalType": "address",
          "name": "to",
          "type": "address"
        },
        {
          "indexed": false,
          "internalType": "uint256",
          "name": "value",
          "type": "uint256"
        }
      ],
      "name": "Transfer",
      "type": "event"
    },
    {
      "inputs": [
        {
          "internalType": "address",
          "name": "owner",
          "type": "address"
        },
        {
          "internalType": "address",
          "name": "spender",
          "type": "address"
        }
      ],
      "name": "allowance",
      "outputs": [
        {
          "internalType": "uint256",
          "name": "",
          "type": "uint256"
        }
      ],
      "stateMutability": "view",
      "type": "function"
    },
    {
      "inputs": [
        {
          "internalType": "address",
          "name": "spender",
          "type": "address"
        },
        {
          "internalType": "uint256",
          "name": "amount",
          "type": "uint256"
        }
      ],
      "name": "approve",
      "outputs": [
        {
          "internalType": "bool",
          "name": "",
          "type": "bool"
        }
      ],
      "stateMutability": "nonpayable",
      "type": "function"
    },
    {
      "inputs": [
        {
          "internalType": "address",
          "name": "account",
          "type": "address"
        }
      ],
      "name": "balanceOf",
      "outputs": [
        {
          "internalType": "uint256",
          "name": "",
          "type": "uint256"
        }
      ],
      "stateMutability": "view",
      "type": "function"
    },
    {
      "inputs": [],
      "name": "decimals",
      "outputs": [
        {
          "internalType": "uint8",
          "name": "",
          "type": "uint8"
        }
      ],
      "stateMutability": "view",
      "type": "function"
    },
    {
      "inputs": [
        {
          "internalType": "address",
          "name": "spender",
          "type": "address"
        },
        {
          "internalType": "uint256",
          "name": "subtractedValue",
          "type": "uint256"
        }
      ],
      "name": "decreaseAllowance",
      "outputs": [
        {
          "internalType": "bool",
          "name": "",
          "type": "bool"
        }
      ],
      "stateMutability": "nonpayable",
      "type": "function"
    },
    {
      "inputs": [
        {
          "internalType": "address",
          "name": "spender",
          "type": "address"
        },
        {
          "internalType": "uint256",
          "name": "addedValue",
          "type": "uint256"
        }
      ],
      "name": "increaseAllowance",
      "outputs": [
        {
          "internalType": "bool",
          "name": "",
          "type": "bool"
        }
      ],
      "stateMutability": "nonpayable",
      "type": "function"
    },
    {
      "inputs": [
        {
          "internalType": "address",
          "name": "operator",
          "type": "address"
        }
      ],
      "name": "isOperator",
      "outputs": [
        {
          "internalType": "bool",
          "name": "",
          "type": "bool"
        }
      ],
      "stateMutability": "view",
      "type": "function"
    },
    {
      "inputs": [
        {
          "internalType": "address",
          "name": "to",
          "type": "address"
        },
        {
          "internalType": "uint256",
          "name": "amount",
          "type": "uint256"
        },
        {
          "internalType": "string",
          "name": "message",
          "type": "string"
        }
      ],
      "name": "mint",
      "outputs": [],
      "stateMutability": "nonpayable",
      "type": "function"
    },
    {
      "inputs": [],
      "name": "name",
      "outputs": [
        {
          "internalType": "string",
          "name": "",
          "type": "string"
        }
      ],
      "stateMutability": "view",
      "type": "function"
    },
    {
      "inputs": [],
      "name": "owner",
      "outputs": [
        {
          "internalType": "address",
          "name": "",
          "type": "address"
        }
      ],
      "stateMutability": "view",
      "type": "function"
    },
    {
      "inputs": [
        {
          "internalType": "address",
          "name": "operator",
          "type": "address"
        }
      ],
      "name": "removeOperator",
      "outputs": [],
      "stateMutability": "nonpayable",
      "type": "function"
    },
    {
      "inputs": [],
      "name": "renounceOwnership",
      "outputs": [],
      "stateMutability": "nonpayable",
      "type": "function"
    },
    {
      "inputs": [
        {
          "internalType": "address",
          "name": "operator",
          "type": "address"
        }
      ],
      "name": "setOperator",
      "outputs": [],
      "stateMutability": "nonpayable",
      "type": "function"
    },
    {
      "inputs": [],
      "name": "symbol",
      "outputs": [
        {
          "internalType": "string",
          "name": "",
          "type": "string"
        }
      ],
      "stateMutability": "view",
      "type": "function"
    },
    {
      "inputs": [],
      "name": "totalSupply",
      "outputs": [
        {
          "internalType": "uint256",
          "name": "",
          "type": "uint256"
        }
      ],
      "stateMutability": "view",
      "type": "function"
    },
    {
      "inputs": [
        {
          "internalType": "address",
          "name": "to",
          "type": "address"
        },
        {
          "internalType": "uint256",
          "name": "amount",
          "type": "uint256"
        }
      ],
      "name": "transfer",
      "outputs": [
        {
          "internalType": "bool",
          "name": "",
          "type": "bool"
        }
      ],
      "stateMutability": "nonpayable",
      "type": "function"
    },
    {
      "inputs": [
        {
          "internalType": "address",
          "name": "from",
          "type": "address"
        },
        {
          "internalType": "address",
          "name": "to",
          "type": "address"
        },
        {
          "internalType": "uint256",
          "name": "amount",
          "type": "uint256"
        }
      ],
      "name": "transferFrom",
      "outputs": [
        {
          "internalType": "bool",
          "name": "",
          "type": "bool"
        }
      ],
      "stateMutability": "nonpayable",
      "type": "function"
    },
    {
      "inputs": [
        {
          "internalType": "address",
          "name": "newOwner",
          "type": "address"
        }
      ],
      "name": "transferOwnership",
      "outputs": [],
      "stateMutability": "nonpayable",
      "type": "function"
    }
  ],
  "bytecode": "0x60806040523480156200001157600080fd5b506040516200233338038062002333833981810160405281019062000037919062000335565b818181600390805190602001906200005192919062000213565b5080600490805190602001906200006a92919062000213565b5050506200008d620000816200014560201b60201c565b6200014d60201b60201c565b6001600660003373ffffffffffffffffffffffffffffffffffffffff1673ffffffffffffffffffffffffffffffffffffffff16815260200190815260200160002060006101000a81548160ff0219169083151502179055506001600660003373ffffffffffffffffffffffffffffffffffffffff1673ffffffffffffffffffffffffffffffffffffffff16815260200190815260200160002060006101000a81548160ff021916908315150217905550505062000518565b600033905090565b6000600560009054906101000a900473ffffffffffffffffffffffffffffffffffffffff16905081600560006101000a81548173ffffffffffffffffffffffffffffffffffffffff021916908373ffffffffffffffffffffffffffffffffffffffff1602179055508173ffffffffffffffffffffffffffffffffffffffff168173ffffffffffffffffffffffffffffffffffffffff167f8be0079c531659141344cd1fd0a4f28419497f9722a3daafe3b4186f6b6457e060405160405180910390a35050565b82805462000221906200043d565b90600052602060002090601f01602090048101928262000245576000855562000291565b82601f106200026057805160ff191683800117855562000291565b8280016001018555821562000291579182015b828111156200029057825182559160200191906001019062000273565b5b509050620002a09190620002a4565b5090565b5b80821115620002bf576000816000905550600101620002a5565b5090565b6000620002da620002d484620003d1565b620003a8565b905082815260208101848484011115620002f357600080fd5b6200030084828562000407565b509392505050565b600082601f8301126200031a57600080fd5b81516200032c848260208601620002c3565b91505092915050565b600080604083850312156200034957600080fd5b600083015167ffffffffffffffff8111156200036457600080fd5b620003728582860162000308565b925050602083015167ffffffffffffffff8111156200039057600080fd5b6200039e8582860162000308565b9150509250929050565b6000620003b4620003c7565b9050620003c2828262000473565b919050565b6000604051905090565b600067ffffffffffffffff821115620003ef57620003ee620004d8565b5b620003fa8262000507565b9050602081019050919050565b60005b83811015620004275780820151818401526020810190506200040a565b8381111562000437576000848401525b50505050565b600060028204905060018216806200045657607f821691505b602082108114156200046d576200046c620004a9565b5b50919050565b6200047e8262000507565b810181811067ffffffffffffffff82111715620004a0576200049f620004d8565b5b80604052505050565b7f4e487b7100000000000000000000000000000000000000000000000000000000600052602260045260246000fd5b7f4e487b7100000000000000000000000000000000000000000000000000000000600052604160045260246000fd5b6000601f19601f8301169050919050565b611e0b80620005286000396000f3fe608060405234801561001057600080fd5b50600436106101165760003560e01c80638da5cb5b116100a2578063ac8a584a11610071578063ac8a584a1461030b578063b3ab15fb14610327578063d3fc986414610343578063dd62ed3e1461035f578063f2fde38b1461038f57610116565b80638da5cb5b1461026f57806395d89b411461028d578063a457c2d7146102ab578063a9059cbb146102db57610116565b8063313ce567116100e9578063313ce567146101b757806339509351146101d55780636d70f7ae1461020557806370a0823114610235578063715018a61461026557610116565b806306fdde031461011b578063095ea7b31461013957806318160ddd1461016957806323b872dd14610187575b600080fd5b6101236103ab565b6040516101309190611692565b60405180910390f35b610153600480360381019061014e91906113c3565b61043d565b6040516101609190611677565b60405180910390f35b610171610460565b60405161017e9190611814565b60405180910390f35b6101a1600480360381019061019c9190611374565b61046a565b6040516101ae9190611677565b60405180910390f35b6101bf610499565b6040516101cc919061185f565b60405180910390f35b6101ef60048036038101906101ea91906113c3565b6104a2565b6040516101fc9190611677565b60405180910390f35b61021f600480360381019061021a919061130f565b6104d9565b60405161022c9190611677565b60405180910390f35b61024f600480360381019061024a919061130f565b61052f565b60405161025c9190611814565b60405180910390f35b61026d610577565b005b6102776105ff565b604051610284919061165c565b60405180910390f35b610295610629565b6040516102a29190611692565b60405180910390f35b6102c560048036038101906102c091906113c3565b6106bb565b6040516102d29190611677565b60405180910390f35b6102f560048036038101906102f091906113c3565b610732565b6040516103029190611677565b60405180910390f35b6103256004803603810190610320919061130f565b610755565b005b610341600480360381019061033c919061130f565b61082c565b005b61035d600480360381019061035891906113ff565b610903565b005b61037960048036038101906103749190611338565b6109ee565b6040516103869190611814565b60405180910390f35b6103a960048036038101906103a4919061130f565b610a75565b005b6060600380546103ba906119d9565b80601f01602080910402602001604051908101604052809291908181526020018280546103e6906119d9565b80156104335780601f1061040857610100808354040283529160200191610433565b820191906000526020600020905b81548152906001019060200180831161041657829003601f168201915b5050505050905090565b600080610448610b6d565b9050610455818585610b75565b600191505092915050565b6000600254905090565b600080610475610b6d565b9050610482858285610d40565b61048d858585610dcc565b60019150509392505050565b60006012905090565b6000806104ad610b6d565b90506104ce8185856104bf85896109ee565b6104c991906118ec565b610b75565b600191505092915050565b6000600660008373ffffffffffffffffffffffffffffffffffffffff1673ffffffffffffffffffffffffffffffffffffffff16815260200190815260200160002060009054906101000a900460ff169050919050565b60008060008373ffffffffffffffffffffffffffffffffffffffff1673ffffffffffffffffffffffffffffffffffffffff168152602001908152602001600020549050919050565b61057f610b6d565b73ffffffffffffffffffffffffffffffffffffffff1661059d6105ff565b73ffffffffffffffffffffffffffffffffffffffff16146105f3576040517f08c379a00000000000000000000000000000000000000000000000000000000081526004016105ea90611774565b60405180910390fd5b6105fd600061104d565b565b6000600560009054906101000a900473ffffffffffffffffffffffffffffffffffffffff16905090565b606060048054610638906119d9565b80601f0160208091040260200160405190810160405280929190818152602001828054610664906119d9565b80156106b15780601f10610686576101008083540402835291602001916106b1565b820191906000526020600020905b81548152906001019060200180831161069457829003601f168201915b5050505050905090565b6000806106c6610b6d565b905060006106d482866109ee565b905083811015610719576040517f08c379a0000000000000000000000000000000000000000000000000000000008152600401610710906117d4565b60405180910390fd5b6107268286868403610b75565b60019250505092915050565b60008061073d610b6d565b905061074a818585610dcc565b600191505092915050565b61075d610b6d565b73ffffffffffffffffffffffffffffffffffffffff1661077b6105ff565b73ffffffffffffffffffffffffffffffffffffffff16146107d1576040517f08c379a00000000000000000000000000000000000000000000000000000000081526004016107c890611774565b60405180910390fd5b6000600660008373ffffffffffffffffffffffffffffffffffffffff1673ffffffffffffffffffffffffffffffffffffffff16815260200190815260200160002060006101000a81548160ff02191690831515021790555050565b610834610b6d565b73ffffffffffffffffffffffffffffffffffffffff166108526105ff565b73ffffffffffffffffffffffffffffffffffffffff16146108a8576040517f08c379a000000000000000000000000000000000000000000000000000000000815260040161089f90611774565b60405180910390fd5b6001600660008373ffffffffffffffffffffffffffffffffffffffff1673ffffffffffffffffffffffffffffffffffffffff16815260200190815260200160002060006101000a81548160ff02191690831515021790555050565b600660003373ffffffffffffffffffffffffffffffffffffffff1673ffffffffffffffffffffffffffffffffffffffff16815260200190815260200160002060009054906101000a900460ff1661098f576040517f08c379a000000000000000000000000000000000000000000000000000000000815260040161098690611754565b60405180910390fd5b6109998383611113565b8273ffffffffffffffffffffffffffffffffffffffff167fe54bf3fdbfa5348ddfc85067bad0f697a8a5ef332cb5c29ea656b26a97900dd883836040516109e192919061182f565b60405180910390a2505050565b6000600160008473ffffffffffffffffffffffffffffffffffffffff1673ffffffffffffffffffffffffffffffffffffffff16815260200190815260200160002060008373ffffffffffffffffffffffffffffffffffffffff1673ffffffffffffffffffffffffffffffffffffffff16815260200190815260200160002054905092915050565b610a7d610b6d565b73ffffffffffffffffffffffffffffffffffffffff16610a9b6105ff565b73ffffffffffffffffffffffffffffffffffffffff1614610af1576040517f08c379a0000000000000000000000000000000000000000000000000000000008152600401610ae890611774565b60405180910390fd5b600073ffffffffffffffffffffffffffffffffffffffff168173ffffffffffffffffffffffffffffffffffffffff161415610b61576040517f08c379a0000000000000000000000000000000000000000000000000000000008152600401610b58906116d4565b60405180910390fd5b610b6a8161104d565b50565b600033905090565b600073ffffffffffffffffffffffffffffffffffffffff168373ffffffffffffffffffffffffffffffffffffffff161415610be5576040517f08c379a0000000000000000000000000000000000000000000000000000000008152600401610bdc906117b4565b60405180910390fd5b600073ffffffffffffffffffffffffffffffffffffffff168273ffffffffffffffffffffffffffffffffffffffff161415610c55576040517f08c379a0000000000000000000000000000000000000000000000000000000008152600401610c4c906116f4565b60405180910390fd5b80600160008573ffffffffffffffffffffffffffffffffffffffff1673ffffffffffffffffffffffffffffffffffffffff16815260200190815260200160002060008473ffffffffffffffffffffffffffffffffffffffff1673ffffffffffffffffffffffffffffffffffffffff168152602001908152602001600020819055508173ffffffffffffffffffffffffffffffffffffffff168373ffffffffffffffffffffffffffffffffffffffff167f8c5be1e5ebec7d5bd14f71427d1e84f3dd0314c0f7b2291e5b200ac8c7c3b92583604051610d339190611814565b60405180910390a3505050565b6000610d4c84846109ee565b90507fffffffffffffffffffffffffffffffffffffffffffffffffffffffffffffffff8114610dc65781811015610db8576040517f08c379a0000000000000000000000000000000000000000000000000000000008152600401610daf90611714565b60405180910390fd5b610dc58484848403610b75565b5b50505050565b600073ffffffffffffffffffffffffffffffffffffffff168373ffffffffffffffffffffffffffffffffffffffff161415610e3c576040517f08c379a0000000000000000000000000000000000000000000000000000000008152600401610e3390611794565b60405180910390fd5b600073ffffffffffffffffffffffffffffffffffffffff168273ffffffffffffffffffffffffffffffffffffffff161415610eac576040517f08c379a0000000000000000000000000000000000000000000000000000000008152600401610ea3906116b4565b60405180910390fd5b610eb7838383611273565b60008060008573ffffffffffffffffffffffffffffffffffffffff1673ffffffffffffffffffffffffffffffffffffffff16815260200190815260200160002054905081811015610f3d576040517f08c379a0000000000000000000000000000000000000000000000000000000008152600401610f3490611734565b60405180910390fd5b8181036000808673ffffffffffffffffffffffffffffffffffffffff1673ffffffffffffffffffffffffffffffffffffffff16815260200190815260200160002081905550816000808573ffffffffffffffffffffffffffffffffffffffff1673ffffffffffffffffffffffffffffffffffffffff1681526020019081526020016000206000828254610fd091906118ec565b925050819055508273ffffffffffffffffffffffffffffffffffffffff168473ffffffffffffffffffffffffffffffffffffffff167fddf252ad1be2c89b69c2b068fc378daa952ba7f163c4a11628f55a4df523b3ef846040516110349190611814565b60405180910390a3611047848484611278565b50505050565b6000600560009054906101000a900473ffffffffffffffffffffffffffffffffffffffff16905081600560006101000a81548173ffffffffffffffffffffffffffffffffffffffff021916908373ffffffffffffffffffffffffffffffffffffffff1602179055508173ffffffffffffffffffffffffffffffffffffffff168173ffffffffffffffffffffffffffffffffffffffff167f8be0079c531659141344cd1fd0a4f28419497f9722a3daafe3b4186f6b6457e060405160405180910390a35050565b600073ffffffffffffffffffffffffffffffffffffffff168273ffffffffffffffffffffffffffffffffffffffff161415611183576040517f08c379a000000000000000000000000000000000000000000000000000000000815260040161117a906117f4565b60405180910390fd5b61118f60008383611273565b80600260008282546111a191906118ec565b92505081905550806000808473ffffffffffffffffffffffffffffffffffffffff1673ffffffffffffffffffffffffffffffffffffffff16815260200190815260200160002060008282546111f691906118ec565b925050819055508173ffffffffffffffffffffffffffffffffffffffff16600073ffffffffffffffffffffffffffffffffffffffff167fddf252ad1be2c89b69c2b068fc378daa952ba7f163c4a11628f55a4df523b3ef8360405161125b9190611814565b60405180910390a361126f60008383611278565b5050565b505050565b505050565b600061129061128b8461189f565b61187a565b9050828152602081018484840111156112a857600080fd5b6112b3848285611997565b509392505050565b6000813590506112ca81611da7565b92915050565b600082601f8301126112e157600080fd5b81356112f184826020860161127d565b91505092915050565b60008135905061130981611dbe565b92915050565b60006020828403121561132157600080fd5b600061132f848285016112bb565b91505092915050565b6000806040838503121561134b57600080fd5b6000611359858286016112bb565b925050602061136a858286016112bb565b9150509250929050565b60008060006060848603121561138957600080fd5b6000611397868287016112bb565b93505060206113a8868287016112bb565b92505060406113b9868287016112fa565b9150509250925092565b600080604083850312156113d657600080fd5b60006113e4858286016112bb565b92505060206113f5858286016112fa565b9150509250929050565b60008060006060848603121561141457600080fd5b6000611422868287016112bb565b9350506020611433868287016112fa565b925050604084013567ffffffffffffffff81111561145057600080fd5b61145c868287016112d0565b9150509250925092565b61146f81611942565b82525050565b61147e81611954565b82525050565b600061148f826118d0565b61149981856118db565b93506114a98185602086016119a6565b6114b281611ac9565b840191505092915050565b60006114ca6023836118db565b91506114d582611ada565b604082019050919050565b60006114ed6026836118db565b91506114f882611b29565b604082019050919050565b60006115106022836118db565b915061151b82611b78565b604082019050919050565b6000611533601d836118db565b915061153e82611bc7565b602082019050919050565b60006115566026836118db565b915061156182611bf0565b604082019050919050565b6000611579601b836118db565b915061158482611c3f565b602082019050919050565b600061159c6020836118db565b91506115a782611c68565b602082019050919050565b60006115bf6025836118db565b91506115ca82611c91565b604082019050919050565b60006115e26024836118db565b91506115ed82611ce0565b604082019050919050565b60006116056025836118db565b915061161082611d2f565b604082019050919050565b6000611628601f836118db565b915061163382611d7e565b602082019050919050565b61164781611980565b82525050565b6116568161198a565b82525050565b60006020820190506116716000830184611466565b92915050565b600060208201905061168c6000830184611475565b92915050565b600060208201905081810360008301526116ac8184611484565b905092915050565b600060208201905081810360008301526116cd816114bd565b9050919050565b600060208201905081810360008301526116ed816114e0565b9050919050565b6000602082019050818103600083015261170d81611503565b9050919050565b6000602082019050818103600083015261172d81611526565b9050919050565b6000602082019050818103600083015261174d81611549565b9050919050565b6000602082019050818103600083015261176d8161156c565b9050919050565b6000602082019050818103600083015261178d8161158f565b9050919050565b600060208201905081810360008301526117ad816115b2565b9050919050565b600060208201905081810360008301526117cd816115d5565b9050919050565b600060208201905081810360008301526117ed816115f8565b9050919050565b6000602082019050818103600083015261180d8161161b565b9050919050565b6000602082019050611829600083018461163e565b92915050565b6000604082019050611844600083018561163e565b81810360208301526118568184611484565b90509392505050565b6000602082019050611874600083018461164d565b92915050565b6000611884611895565b90506118908282611a0b565b919050565b6000604051905090565b600067ffffffffffffffff8211156118ba576118b9611a9a565b5b6118c382611ac9565b9050602081019050919050565b600081519050919050565b600082825260208201905092915050565b60006118f782611980565b915061190283611980565b9250827fffffffffffffffffffffffffffffffffffffffffffffffffffffffffffffffff0382111561193757611936611a3c565b5b828201905092915050565b600061194d82611960565b9050919050565b60008115159050919050565b600073ffffffffffffffffffffffffffffffffffffffff82169050919050565b6000819050919050565b600060ff82169050919050565b82818337600083830152505050565b60005b838110156119c45780820151818401526020810190506119a9565b838111156119d3576000848401525b50505050565b600060028204905060018216806119f157607f821691505b60208210811415611a0557611a04611a6b565b5b50919050565b611a1482611ac9565b810181811067ffffffffffffffff82111715611a3357611a32611a9a565b5b80604052505050565b7f4e487b7100000000000000000000000000000000000000000000000000000000600052601160045260246000fd5b7f4e487b7100000000000000000000000000000000000000000000000000000000600052602260045260246000fd5b7f4e487b7100000000000000000000000000000000000000000000000000000000600052604160045260246000fd5b6000601f19601f8301169050919050565b7f45524332303a207472616e7366657220746f20746865207a65726f206164647260008201527f6573730000000000000000000000000000000000000000000000000000000000602082015250565b7f4f776e61626c653a206e6577206f776e657220697320746865207a65726f206160008201527f6464726573730000000000000000000000000000000000000000000000000000602082015250565b7f45524332303a20617070726f766520746f20746865207a65726f20616464726560008201527f7373000000000000000000000000000000000000000000000000000000000000602082015250565b7f45524332303a20696e73756666696369656e7420616c6c6f77616e6365000000600082015250565b7f45524332303a207472616e7366657220616d6f756e742065786365656473206260008201527f616c616e63650000000000000000000000000000000000000000000000000000602082015250565b7f63616c6c6572206973206e6f7420746865206f70657261746f72730000000000600082015250565b7f4f776e61626c653a2063616c6c6572206973206e6f7420746865206f776e6572600082015250565b7f45524332303a207472616e736665722066726f6d20746865207a65726f20616460008201527f6472657373000000000000000000000000000000000000000000000000000000602082015250565b7f45524332303a20617070726f76652066726f6d20746865207a65726f2061646460008201527f7265737300000000000000000000000000000000000000000000000000000000602082015250565b7f45524332303a2064656372656173656420616c6c6f77616e63652062656c6f7760008201527f207a65726f000000000000000000000000000000000000000000000000000000602082015250565b7f45524332303a206d696e7420746f20746865207a65726f206164647265737300600082015250565b611db081611942565b8114611dbb57600080fd5b50565b611dc781611980565b8114611dd257600080fd5b5056fea2646970667358221220766c6dbfca815a5b8a96597fa8f5c2bcab0c2e6e1cfc1188f7f0dfa2f5dbb51664736f6c63430008040033",
  "linkReferences": {},
  "deployedLinkReferences": {}
}