{
  "_format": "hh-sol-artifact-1",
  "contractName": "BeFitterShoes",
  "sourceName": "contracts/BFShoes.sol",
  "abi": [
    {
      "inputs": [],
      "stateMutability": "nonpayable",
      "type": "constructor"
    },
    {
      "anonymous": false,
      "inputs": [
        {
          "indexed": true,
          "internalType": "address",
          "name": "owner",
          "type": "address"
        },
        {
          "indexed": true,
          "internalType": "address",
          "name": "approved",
          "type": "address"
        },
        {
          "indexed": true,
          "internalType": "uint256",
          "name": "tokenId",
          "type": "uint256"
        }
      ],
      "name": "Approval",
      "type": "event"
    },
    {
      "anonymous": false,
      "inputs": [
        {
          "indexed": true,
          "internalType": "address",
          "name": "owner",
          "type": "address"
        },
        {
          "indexed": true,
          "internalType": "address",
          "name": "operator",
          "type": "address"
        },
        {
          "indexed": false,
          "internalType": "bool",
          "name": "approved",
          "type": "bool"
        }
      ],
      "name": "ApprovalForAll",
      "type": "event"
    },
    {
      "anonymous": false,
      "inputs": [
        {
          "indexed": true,
          "internalType": "address",
          "name": "to",
          "type": "address"
        },
        {
          "indexed": false,
          "internalType": "uint256",
          "name": "tokenId",
          "type": "uint256"
        }
      ],
      "name": "MintShoes",
      "type": "event"
    },
    {
      "anonymous": false,
      "inputs": [
        {
          "indexed": true,
          "internalType": "address",
          "name": "previousOwner",
          "type": "address"
        },
        {
          "indexed": true,
          "internalType": "address",
          "name": "newOwner",
          "type": "address"
        }
      ],
      "name": "OwnershipTransferred",
      "type": "event"
    },
    {
      "anonymous": false,
      "inputs": [
        {
          "indexed": true,
          "internalType": "address",
          "name": "to",
          "type": "address"
        },
        {
          "indexed": false,
          "internalType": "uint256",
          "name": "tokenId",
          "type": "uint256"
        }
      ],
      "name": "SpawnShoes",
      "type": "event"
    },
    {
      "anonymous": false,
      "inputs": [
        {
          "indexed": true,
          "internalType": "address",
          "name": "from",
          "type": "address"
        },
        {
          "indexed": true,
          "internalType": "address",
          "name": "to",
          "type": "address"
        },
        {
          "indexed": true,
          "internalType": "uint256",
          "name": "tokenId",
          "type": "uint256"
        }
      ],
      "name": "Transfer",
      "type": "event"
    },
    {
      "anonymous": false,
      "inputs": [
        {
          "indexed": true,
          "internalType": "address",
          "name": "from",
          "type": "address"
        },
        {
          "indexed": true,
          "internalType": "address",
          "name": "to",
          "type": "address"
        },
        {
          "indexed": false,
          "internalType": "uint256",
          "name": "tokenId",
          "type": "uint256"
        }
      ],
      "name": "TransferShoes",
      "type": "event"
    },
    {
      "inputs": [
        {
          "internalType": "address",
          "name": "to",
          "type": "address"
        },
        {
          "internalType": "uint256",
          "name": "tokenId",
          "type": "uint256"
        }
      ],
      "name": "approve",
      "outputs": [],
      "stateMutability": "nonpayable",
      "type": "function"
    },
    {
      "inputs": [
        {
          "internalType": "address",
          "name": "owner",
          "type": "address"
        }
      ],
      "name": "balanceOf",
      "outputs": [
        {
          "internalType": "uint256",
          "name": "",
          "type": "uint256"
        }
      ],
      "stateMutability": "view",
      "type": "function"
    },
    {
      "inputs": [
        {
          "internalType": "uint256",
          "name": "tokenId",
          "type": "uint256"
        }
      ],
      "name": "getApproved",
      "outputs": [
        {
          "internalType": "address",
          "name": "",
          "type": "address"
        }
      ],
      "stateMutability": "view",
      "type": "function"
    },
    {
      "inputs": [],
      "name": "getGenesisNum",
      "outputs": [
        {
          "internalType": "uint256",
          "name": "",
          "type": "uint256"
        }
      ],
      "stateMutability": "view",
      "type": "function"
    },
    {
      "inputs": [
        {
          "internalType": "address",
          "name": "owner",
          "type": "address"
        }
      ],
      "name": "getOwnedTokens",
      "outputs": [
        {
          "internalType": "bytes32[]",
          "name": "",
          "type": "bytes32[]"
        }
      ],
      "stateMutability": "view",
      "type": "function"
    },
    {
      "inputs": [],
      "name": "getTotalShoes",
      "outputs": [
        {
          "internalType": "uint256",
          "name": "",
          "type": "uint256"
        }
      ],
      "stateMutability": "view",
      "type": "function"
    },
    {
      "inputs": [
        {
          "internalType": "address",
          "name": "owner",
          "type": "address"
        },
        {
          "internalType": "address",
          "name": "operator",
          "type": "address"
        }
      ],
      "name": "isApprovedForAll",
      "outputs": [
        {
          "internalType": "bool",
          "name": "",
          "type": "bool"
        }
      ],
      "stateMutability": "view",
      "type": "function"
    },
    {
      "inputs": [
        {
          "internalType": "address",
          "name": "operator",
          "type": "address"
        }
      ],
      "name": "isOperator",
      "outputs": [
        {
          "internalType": "bool",
          "name": "",
          "type": "bool"
        }
      ],
      "stateMutability": "view",
      "type": "function"
    },
    {
      "inputs": [
        {
          "internalType": "address",
          "name": "to",
          "type": "address"
        }
      ],
      "name": "mintGenesis",
      "outputs": [],
      "stateMutability": "nonpayable",
      "type": "function"
    },
    {
      "inputs": [],
      "name": "name",
      "outputs": [
        {
          "internalType": "string",
          "name": "",
          "type": "string"
        }
      ],
      "stateMutability": "view",
      "type": "function"
    },
    {
      "inputs": [],
      "name": "owner",
      "outputs": [
        {
          "internalType": "address",
          "name": "",
          "type": "address"
        }
      ],
      "stateMutability": "view",
      "type": "function"
    },
    {
      "inputs": [
        {
          "internalType": "uint256",
          "name": "tokenId",
          "type": "uint256"
        }
      ],
      "name": "ownerOf",
      "outputs": [
        {
          "internalType": "address",
          "name": "",
          "type": "address"
        }
      ],
      "stateMutability": "view",
      "type": "function"
    },
    {
      "inputs": [
        {
          "internalType": "address",
          "name": "operator",
          "type": "address"
        }
      ],
      "name": "removeOperator",
      "outputs": [],
      "stateMutability": "nonpayable",
      "type": "function"
    },
    {
      "inputs": [],
      "name": "renounceOwnership",
      "outputs": [],
      "stateMutability": "nonpayable",
      "type": "function"
    },
    {
      "inputs": [
        {
          "internalType": "address",
          "name": "from",
          "type": "address"
        },
        {
          "internalType": "address",
          "name": "to",
          "type": "address"
        },
        {
          "internalType": "uint256",
          "name": "tokenId",
          "type": "uint256"
        }
      ],
      "name": "safeTransferFrom",
      "outputs": [],
      "stateMutability": "nonpayable",
      "type": "function"
    },
    {
      "inputs": [
        {
          "internalType": "address",
          "name": "from",
          "type": "address"
        },
        {
          "internalType": "address",
          "name": "to",
          "type": "address"
        },
        {
          "internalType": "uint256",
          "name": "tokenId",
          "type": "uint256"
        },
        {
          "internalType": "bytes",
          "name": "_data",
          "type": "bytes"
        }
      ],
      "name": "safeTransferFrom",
      "outputs": [],
      "stateMutability": "nonpayable",
      "type": "function"
    },
    {
      "inputs": [
        {
          "internalType": "address",
          "name": "operator",
          "type": "address"
        },
        {
          "internalType": "bool",
          "name": "approved",
          "type": "bool"
        }
      ],
      "name": "setApprovalForAll",
      "outputs": [],
      "stateMutability": "nonpayable",
      "type": "function"
    },
    {
      "inputs": [
        {
          "internalType": "string",
          "name": "baseURI",
          "type": "string"
        }
      ],
      "name": "setBaseTokenURI",
      "outputs": [],
      "stateMutability": "nonpayable",
      "type": "function"
    },
    {
      "inputs": [
        {
          "internalType": "uint256",
          "name": "genesisNum",
          "type": "uint256"
        }
      ],
      "name": "setGenesisNum",
      "outputs": [],
      "stateMutability": "nonpayable",
      "type": "function"
    },
    {
      "inputs": [
        {
          "internalType": "address",
          "name": "operator",
          "type": "address"
        }
      ],
      "name": "setOperator",
      "outputs": [],
      "stateMutability": "nonpayable",
      "type": "function"
    },
    {
      "inputs": [
        {
          "internalType": "address",
          "name": "to",
          "type": "address"
        }
      ],
      "name": "spawn",
      "outputs": [],
      "stateMutability": "nonpayable",
      "type": "function"
    },
    {
      "inputs": [
        {
          "internalType": "bytes4",
          "name": "interfaceId",
          "type": "bytes4"
        }
      ],
      "name": "supportsInterface",
      "outputs": [
        {
          "internalType": "bool",
          "name": "",
          "type": "bool"
        }
      ],
      "stateMutability": "view",
      "type": "function"
    },
    {
      "inputs": [],
      "name": "symbol",
      "outputs": [
        {
          "internalType": "string",
          "name": "",
          "type": "string"
        }
      ],
      "stateMutability": "view",
      "type": "function"
    },
    {
      "inputs": [
        {
          "internalType": "uint256",
          "name": "tokenId",
          "type": "uint256"
        }
      ],
      "name": "tokenURI",
      "outputs": [
        {
          "internalType": "string",
          "name": "",
          "type": "string"
        }
      ],
      "stateMutability": "view",
      "type": "function"
    },
    {
      "inputs": [
        {
          "internalType": "address",
          "name": "from",
          "type": "address"
        },
        {
          "internalType": "address",
          "name": "to",
          "type": "address"
        },
        {
          "internalType": "uint256",
          "name": "tokenId",
          "type": "uint256"
        }
      ],
      "name": "transferFrom",
      "outputs": [],
      "stateMutability": "nonpayable",
      "type": "function"
    },
    {
      "inputs": [
        {
          "internalType": "address",
          "name": "newOwner",
          "type": "address"
        }
      ],
      "name": "transferOwnership",
      "outputs": [],
      "stateMutability": "nonpayable",
      "type": "function"
    }
  ],
  "bytecode": "0x60806040523480156200001157600080fd5b506040518060400160405280600d81526020017f426546697474657253686f6573000000000000000000000000000000000000008152506040518060400160405280600481526020017f424654530000000000000000000000000000000000000000000000000000000081525081600090805190602001906200009692919062000256565b508060019080519060200190620000af92919062000256565b505050620000d2620000c66200018860201b60201c565b6200019060201b60201c565b6001600860003373ffffffffffffffffffffffffffffffffffffffff1673ffffffffffffffffffffffffffffffffffffffff16815260200190815260200160002060006101000a81548160ff0219169083151502179055506001600860003373ffffffffffffffffffffffffffffffffffffffff1673ffffffffffffffffffffffffffffffffffffffff16815260200190815260200160002060006101000a81548160ff0219169083151502179055506200036b565b600033905090565b6000600760009054906101000a900473ffffffffffffffffffffffffffffffffffffffff16905081600760006101000a81548173ffffffffffffffffffffffffffffffffffffffff021916908373ffffffffffffffffffffffffffffffffffffffff1602179055508173ffffffffffffffffffffffffffffffffffffffff168173ffffffffffffffffffffffffffffffffffffffff167f8be0079c531659141344cd1fd0a4f28419497f9722a3daafe3b4186f6b6457e060405160405180910390a35050565b828054620002649062000306565b90600052602060002090601f016020900481019282620002885760008555620002d4565b82601f10620002a357805160ff1916838001178555620002d4565b82800160010185558215620002d4579182015b82811115620002d3578251825591602001919060010190620002b6565b5b509050620002e39190620002e7565b5090565b5b8082111562000302576000816000905550600101620002e8565b5090565b600060028204905060018216806200031f57607f821691505b602082108114156200033657620003356200033c565b5b50919050565b7f4e487b7100000000000000000000000000000000000000000000000000000000600052602260045260246000fd5b613cc5806200037b6000396000f3fe608060405234801561001057600080fd5b506004361061018e5760003560e01c80638da5cb5b116100de578063b3ab15fb11610097578063c87b56dd11610071578063c87b56dd14610457578063d9d6165514610487578063e985e9c5146104b7578063f2fde38b146104e75761018e565b8063b3ab15fb14610403578063b88d4fde1461041f578063c63300a51461043b5761018e565b80638da5cb5b14610357578063940203921461037557806395d89b4114610391578063a22cb465146103af578063ac8a584a146103cb578063af4c62de146103e75761018e565b806330176e131161014b5780636352211e116101255780636352211e146102bd5780636d70f7ae146102ed57806370a082311461031d578063715018a61461034d5761018e565b806330176e131461026757806342842e0e146102835780635bc43cb11461029f5761018e565b806301ffc9a71461019357806306fdde03146101c3578063081812fc146101e1578063095ea7b3146102115780630eef64be1461022d57806323b872dd1461024b575b600080fd5b6101ad60048036038101906101a89190612a97565b610503565b6040516101ba9190613011565b60405180910390f35b6101cb6105e5565b6040516101d8919061302c565b60405180910390f35b6101fb60048036038101906101f69190612b2a565b610677565b6040516102089190612f88565b60405180910390f35b61022b60048036038101906102269190612a5b565b6106fc565b005b610235610814565b60405161024291906132ce565b60405180910390f35b61026560048036038101906102609190612955565b610838565b005b610281600480360381019061027c9190612ae9565b6108fd565b005b61029d60048036038101906102989190612955565b6109a3565b005b6102a76109c3565b6040516102b491906132ce565b60405180910390f35b6102d760048036038101906102d29190612b2a565b6109cd565b6040516102e49190612f88565b60405180910390f35b610307600480360381019061030291906128f0565b610a7f565b6040516103149190613011565b60405180910390f35b610337600480360381019061033291906128f0565b610ad5565b60405161034491906132ce565b60405180910390f35b610355610b8d565b005b61035f610c15565b60405161036c9190612f88565b60405180910390f35b61038f600480360381019061038a91906128f0565b610c3f565b005b610399610dd1565b6040516103a6919061302c565b60405180910390f35b6103c960048036038101906103c49190612a1f565b610e63565b005b6103e560048036038101906103e091906128f0565b610e79565b005b61040160048036038101906103fc9190612b2a565b610f50565b005b61041d600480360381019061041891906128f0565b611023565b005b610439600480360381019061043491906129a4565b6110fa565b005b610455600480360381019061045091906128f0565b61115c565b005b610471600480360381019061046c9190612b2a565b6112a8565b60405161047e919061302c565b60405180910390f35b6104a1600480360381019061049c91906128f0565b61134f565b6040516104ae9190612fef565b60405180910390f35b6104d160048036038101906104cc9190612919565b6113ec565b6040516104de9190613011565b60405180910390f35b61050160048036038101906104fc91906128f0565b611480565b005b60007f80ac58cd000000000000000000000000000000000000000000000000000000007bffffffffffffffffffffffffffffffffffffffffffffffffffffffff1916827bffffffffffffffffffffffffffffffffffffffffffffffffffffffff191614806105ce57507f5b5e139f000000000000000000000000000000000000000000000000000000007bffffffffffffffffffffffffffffffffffffffffffffffffffffffff1916827bffffffffffffffffffffffffffffffffffffffffffffffffffffffff1916145b806105de57506105dd82611578565b5b9050919050565b6060600080546105f490613567565b80601f016020809104026020016040519081016040528092919081815260200182805461062090613567565b801561066d5780601f106106425761010080835404028352916020019161066d565b820191906000526020600020905b81548152906001019060200180831161065057829003601f168201915b5050505050905090565b6000610682826115e2565b6106c1576040517f08c379a00000000000000000000000000000000000000000000000000000000081526004016106b89061322e565b60405180910390fd5b6004600083815260200190815260200160002060009054906101000a900473ffffffffffffffffffffffffffffffffffffffff169050919050565b6000610707826109cd565b90508073ffffffffffffffffffffffffffffffffffffffff168373ffffffffffffffffffffffffffffffffffffffff161415610778576040517f08c379a000000000000000000000000000000000000000000000000000000000815260040161076f9061328e565b60405180910390fd5b8073ffffffffffffffffffffffffffffffffffffffff1661079761164e565b73ffffffffffffffffffffffffffffffffffffffff1614806107c657506107c5816107c061164e565b6113ec565b5b610805576040517f08c379a00000000000000000000000000000000000000000000000000000000081526004016107fc9061316e565b60405180910390fd5b61080f8383611656565b505050565b6000600b54600a5460095461082991906133ec565b6108339190613473565b905090565b61084961084361164e565b8261170f565b610888576040517f08c379a000000000000000000000000000000000000000000000000000000000815260040161087f906132ae565b60405180910390fd5b6108938383836117ed565b8173ffffffffffffffffffffffffffffffffffffffff163373ffffffffffffffffffffffffffffffffffffffff167fb1cfd1e182aebe78fef440377e48bdb2308938b30e7fbd5cb8ef549188714b49836040516108f091906132ce565b60405180910390a3505050565b600860003373ffffffffffffffffffffffffffffffffffffffff1673ffffffffffffffffffffffffffffffffffffffff16815260200190815260200160002060009054906101000a900460ff16610989576040517f08c379a0000000000000000000000000000000000000000000000000000000008152600401610980906131ce565b60405180910390fd5b80600c908051906020019061099f929190612714565b5050565b6109be838383604051806020016040528060008152506110fa565b505050565b6000600b54905090565b6000806002600084815260200190815260200160002060009054906101000a900473ffffffffffffffffffffffffffffffffffffffff169050600073ffffffffffffffffffffffffffffffffffffffff168173ffffffffffffffffffffffffffffffffffffffff161415610a76576040517f08c379a0000000000000000000000000000000000000000000000000000000008152600401610a6d906131ae565b60405180910390fd5b80915050919050565b6000600860008373ffffffffffffffffffffffffffffffffffffffff1673ffffffffffffffffffffffffffffffffffffffff16815260200190815260200160002060009054906101000a900460ff169050919050565b60008073ffffffffffffffffffffffffffffffffffffffff168273ffffffffffffffffffffffffffffffffffffffff161415610b46576040517f08c379a0000000000000000000000000000000000000000000000000000000008152600401610b3d9061318e565b60405180910390fd5b600360008373ffffffffffffffffffffffffffffffffffffffff1673ffffffffffffffffffffffffffffffffffffffff168152602001908152602001600020549050919050565b610b9561164e565b73ffffffffffffffffffffffffffffffffffffffff16610bb3610c15565b73ffffffffffffffffffffffffffffffffffffffff1614610c09576040517f08c379a0000000000000000000000000000000000000000000000000000000008152600401610c009061324e565b60405180910390fd5b610c136000611a54565b565b6000600760009054906101000a900473ffffffffffffffffffffffffffffffffffffffff16905090565b600860003373ffffffffffffffffffffffffffffffffffffffff1673ffffffffffffffffffffffffffffffffffffffff16815260200190815260200160002060009054906101000a900460ff16610ccb576040517f08c379a0000000000000000000000000000000000000000000000000000000008152600401610cc2906131ce565b60405180910390fd5b6000600b5411610d10576040517f08c379a0000000000000000000000000000000000000000000000000000000008152600401610d07906130ce565b60405180910390fd5b600b5460095410610d56576040517f08c379a0000000000000000000000000000000000000000000000000000000008152600401610d4d9061312e565b60405180910390fd5b60006009549050610d678282611b1a565b60096000815480929190610d7a906135ca565b91905055508173ffffffffffffffffffffffffffffffffffffffff167fb694df1c88cb5a8bfd307a17df7d6bfac43bc78292e29c65450111bccb70ef9282604051610dc591906132ce565b60405180910390a25050565b606060018054610de090613567565b80601f0160208091040260200160405190810160405280929190818152602001828054610e0c90613567565b8015610e595780601f10610e2e57610100808354040283529160200191610e59565b820191906000526020600020905b815481529060010190602001808311610e3c57829003601f168201915b5050505050905090565b610e75610e6e61164e565b8383611b38565b5050565b610e8161164e565b73ffffffffffffffffffffffffffffffffffffffff16610e9f610c15565b73ffffffffffffffffffffffffffffffffffffffff1614610ef5576040517f08c379a0000000000000000000000000000000000000000000000000000000008152600401610eec9061324e565b60405180910390fd5b6000600860008373ffffffffffffffffffffffffffffffffffffffff1673ffffffffffffffffffffffffffffffffffffffff16815260200190815260200160002060006101000a81548160ff02191690831515021790555050565b610f5861164e565b73ffffffffffffffffffffffffffffffffffffffff16610f76610c15565b73ffffffffffffffffffffffffffffffffffffffff1614610fcc576040517f08c379a0000000000000000000000000000000000000000000000000000000008152600401610fc39061324e565b60405180910390fd5b600b54600a5414611012576040517f08c379a0000000000000000000000000000000000000000000000000000000008152600401611009906131ee565b60405180910390fd5b80600b8190555080600a8190555050565b61102b61164e565b73ffffffffffffffffffffffffffffffffffffffff16611049610c15565b73ffffffffffffffffffffffffffffffffffffffff161461109f576040517f08c379a00000000000000000000000000000000000000000000000000000000081526004016110969061324e565b60405180910390fd5b6001600860008373ffffffffffffffffffffffffffffffffffffffff1673ffffffffffffffffffffffffffffffffffffffff16815260200190815260200160002060006101000a81548160ff02191690831515021790555050565b61110b61110561164e565b8361170f565b61114a576040517f08c379a0000000000000000000000000000000000000000000000000000000008152600401611141906132ae565b60405180910390fd5b61115684848484611ca5565b50505050565b600860003373ffffffffffffffffffffffffffffffffffffffff1673ffffffffffffffffffffffffffffffffffffffff16815260200190815260200160002060009054906101000a900460ff166111e8576040517f08c379a00000000000000000000000000000000000000000000000000000000081526004016111df906131ce565b60405180910390fd5b6000600b541161122d576040517f08c379a0000000000000000000000000000000000000000000000000000000008152600401611224906130ce565b60405180910390fd5b6000600a54905061123e8282611b1a565b600a6000815480929190611251906135ca565b91905055508173ffffffffffffffffffffffffffffffffffffffff167fa31f914306c908f3be3354f123dff1ed921e83ad64082333e5ec322cda39a6ba8260405161129c91906132ce565b60405180910390a25050565b60606112b3826115e2565b6112f2576040517f08c379a00000000000000000000000000000000000000000000000000000000081526004016112e99061326e565b60405180910390fd5b60006112fc611d01565b9050600081511161131c5760405180602001604052806000815250611347565b8061132684611d93565b604051602001611337929190612f64565b6040516020818303038152906040525b915050919050565b6060600660008373ffffffffffffffffffffffffffffffffffffffff1673ffffffffffffffffffffffffffffffffffffffff1681526020019081526020016000206000016000018054806020026020016040519081016040528092919081815260200182805480156113e057602002820191906000526020600020905b8154815260200190600101908083116113cc575b50505050509050919050565b6000600560008473ffffffffffffffffffffffffffffffffffffffff1673ffffffffffffffffffffffffffffffffffffffff16815260200190815260200160002060008373ffffffffffffffffffffffffffffffffffffffff1673ffffffffffffffffffffffffffffffffffffffff16815260200190815260200160002060009054906101000a900460ff16905092915050565b61148861164e565b73ffffffffffffffffffffffffffffffffffffffff166114a6610c15565b73ffffffffffffffffffffffffffffffffffffffff16146114fc576040517f08c379a00000000000000000000000000000000000000000000000000000000081526004016114f39061324e565b60405180910390fd5b600073ffffffffffffffffffffffffffffffffffffffff168173ffffffffffffffffffffffffffffffffffffffff16141561156c576040517f08c379a00000000000000000000000000000000000000000000000000000000081526004016115639061306e565b60405180910390fd5b61157581611a54565b50565b60007f01ffc9a7000000000000000000000000000000000000000000000000000000007bffffffffffffffffffffffffffffffffffffffffffffffffffffffff1916827bffffffffffffffffffffffffffffffffffffffffffffffffffffffff1916149050919050565b60008073ffffffffffffffffffffffffffffffffffffffff166002600084815260200190815260200160002060009054906101000a900473ffffffffffffffffffffffffffffffffffffffff1673ffffffffffffffffffffffffffffffffffffffff1614159050919050565b600033905090565b816004600083815260200190815260200160002060006101000a81548173ffffffffffffffffffffffffffffffffffffffff021916908373ffffffffffffffffffffffffffffffffffffffff160217905550808273ffffffffffffffffffffffffffffffffffffffff166116c9836109cd565b73ffffffffffffffffffffffffffffffffffffffff167f8c5be1e5ebec7d5bd14f71427d1e84f3dd0314c0f7b2291e5b200ac8c7c3b92560405160405180910390a45050565b600061171a826115e2565b611759576040517f08c379a00000000000000000000000000000000000000000000000000000000081526004016117509061314e565b60405180910390fd5b6000611764836109cd565b90508073ffffffffffffffffffffffffffffffffffffffff168473ffffffffffffffffffffffffffffffffffffffff1614806117a657506117a581856113ec565b5b806117e457508373ffffffffffffffffffffffffffffffffffffffff166117cc84610677565b73ffffffffffffffffffffffffffffffffffffffff16145b91505092915050565b8273ffffffffffffffffffffffffffffffffffffffff1661180d826109cd565b73ffffffffffffffffffffffffffffffffffffffff1614611863576040517f08c379a000000000000000000000000000000000000000000000000000000000815260040161185a9061308e565b60405180910390fd5b600073ffffffffffffffffffffffffffffffffffffffff168273ffffffffffffffffffffffffffffffffffffffff1614156118d3576040517f08c379a00000000000000000000000000000000000000000000000000000000081526004016118ca906130ee565b60405180910390fd5b6118de838383611f40565b6118e9600082611656565b6001600360008573ffffffffffffffffffffffffffffffffffffffff1673ffffffffffffffffffffffffffffffffffffffff16815260200190815260200160002060008282546119399190613473565b925050819055506001600360008473ffffffffffffffffffffffffffffffffffffffff1673ffffffffffffffffffffffffffffffffffffffff168152602001908152602001600020600082825461199091906133ec565b92505081905550816002600083815260200190815260200160002060006101000a81548173ffffffffffffffffffffffffffffffffffffffff021916908373ffffffffffffffffffffffffffffffffffffffff160217905550808273ffffffffffffffffffffffffffffffffffffffff168473ffffffffffffffffffffffffffffffffffffffff167fddf252ad1be2c89b69c2b068fc378daa952ba7f163c4a11628f55a4df523b3ef60405160405180910390a4611a4f838383612022565b505050565b6000600760009054906101000a900473ffffffffffffffffffffffffffffffffffffffff16905081600760006101000a81548173ffffffffffffffffffffffffffffffffffffffff021916908373ffffffffffffffffffffffffffffffffffffffff1602179055508173ffffffffffffffffffffffffffffffffffffffff168173ffffffffffffffffffffffffffffffffffffffff167f8be0079c531659141344cd1fd0a4f28419497f9722a3daafe3b4186f6b6457e060405160405180910390a35050565b611b34828260405180602001604052806000815250612027565b5050565b8173ffffffffffffffffffffffffffffffffffffffff168373ffffffffffffffffffffffffffffffffffffffff161415611ba7576040517f08c379a0000000000000000000000000000000000000000000000000000000008152600401611b9e9061310e565b60405180910390fd5b80600560008573ffffffffffffffffffffffffffffffffffffffff1673ffffffffffffffffffffffffffffffffffffffff16815260200190815260200160002060008473ffffffffffffffffffffffffffffffffffffffff1673ffffffffffffffffffffffffffffffffffffffff16815260200190815260200160002060006101000a81548160ff0219169083151502179055508173ffffffffffffffffffffffffffffffffffffffff168373ffffffffffffffffffffffffffffffffffffffff167f17307eab39ab6107e8899845ad3d59bd9653f200f220920489ca2b5937696c3183604051611c989190613011565b60405180910390a3505050565b611cb08484846117ed565b611cbc84848484612082565b611cfb576040517f08c379a0000000000000000000000000000000000000000000000000000000008152600401611cf29061304e565b60405180910390fd5b50505050565b6060600c8054611d1090613567565b80601f0160208091040260200160405190810160405280929190818152602001828054611d3c90613567565b8015611d895780601f10611d5e57610100808354040283529160200191611d89565b820191906000526020600020905b815481529060010190602001808311611d6c57829003601f168201915b5050505050905090565b60606000821415611ddb576040518060400160405280600181526020017f30000000000000000000000000000000000000000000000000000000000000008152509050611f3b565b600082905060005b60008214611e0d578080611df6906135ca565b915050600a82611e069190613442565b9150611de3565b60008167ffffffffffffffff811115611e4f577f4e487b7100000000000000000000000000000000000000000000000000000000600052604160045260246000fd5b6040519080825280601f01601f191660200182016040528015611e815781602001600182028036833780820191505090505b5090505b60008514611f3457600182611e9a9190613473565b9150600a85611ea99190613613565b6030611eb591906133ec565b60f81b818381518110611ef1577f4e487b7100000000000000000000000000000000000000000000000000000000600052603260045260246000fd5b60200101907effffffffffffffffffffffffffffffffffffffffffffffffffffffffffffff1916908160001a905350600a85611f2d9190613442565b9450611e85565b8093505050505b919050565b611f4b838383612219565b600073ffffffffffffffffffffffffffffffffffffffff168373ffffffffffffffffffffffffffffffffffffffff161415611f8f57611f8a828261221e565b61201d565b600073ffffffffffffffffffffffffffffffffffffffff168273ffffffffffffffffffffffffffffffffffffffff161415611fd357611fce8382612274565b61201c565b8173ffffffffffffffffffffffffffffffffffffffff168373ffffffffffffffffffffffffffffffffffffffff161461201b57612010828261221e565b61201a8382612274565b5b5b5b505050565b505050565b61203183836122ca565b61203e6000848484612082565b61207d576040517f08c379a00000000000000000000000000000000000000000000000000000000081526004016120749061304e565b60405180910390fd5b505050565b60006120a38473ffffffffffffffffffffffffffffffffffffffff166124a4565b1561220c578373ffffffffffffffffffffffffffffffffffffffff1663150b7a026120cc61164e565b8786866040518563ffffffff1660e01b81526004016120ee9493929190612fa3565b602060405180830381600087803b15801561210857600080fd5b505af192505050801561213957506040513d601f19601f820116820180604052508101906121369190612ac0565b60015b6121bc573d8060008114612169576040519150601f19603f3d011682016040523d82523d6000602084013e61216e565b606091505b506000815114156121b4576040517f08c379a00000000000000000000000000000000000000000000000000000000081526004016121ab9061304e565b60405180910390fd5b805181602001fd5b63150b7a0260e01b7bffffffffffffffffffffffffffffffffffffffffffffffffffffffff1916817bffffffffffffffffffffffffffffffffffffffffffffffffffffffff191614915050612211565b600190505b949350505050565b505050565b61226f81600660008573ffffffffffffffffffffffffffffffffffffffff1673ffffffffffffffffffffffffffffffffffffffff1681526020019081526020016000206124c790919063ffffffff16565b505050565b6122c581600660008573ffffffffffffffffffffffffffffffffffffffff1673ffffffffffffffffffffffffffffffffffffffff1681526020019081526020016000206124e190919063ffffffff16565b505050565b600073ffffffffffffffffffffffffffffffffffffffff168273ffffffffffffffffffffffffffffffffffffffff16141561233a576040517f08c379a00000000000000000000000000000000000000000000000000000000081526004016123319061320e565b60405180910390fd5b612343816115e2565b15612383576040517f08c379a000000000000000000000000000000000000000000000000000000000815260040161237a906130ae565b60405180910390fd5b61238f60008383611f40565b6001600360008473ffffffffffffffffffffffffffffffffffffffff1673ffffffffffffffffffffffffffffffffffffffff16815260200190815260200160002060008282546123df91906133ec565b92505081905550816002600083815260200190815260200160002060006101000a81548173ffffffffffffffffffffffffffffffffffffffff021916908373ffffffffffffffffffffffffffffffffffffffff160217905550808273ffffffffffffffffffffffffffffffffffffffff16600073ffffffffffffffffffffffffffffffffffffffff167fddf252ad1be2c89b69c2b068fc378daa952ba7f163c4a11628f55a4df523b3ef60405160405180910390a46124a060008383612022565b5050565b6000808273ffffffffffffffffffffffffffffffffffffffff163b119050919050565b60006124d9836000018360001b6124fb565b905092915050565b60006124f3836000018360001b61256b565b905092915050565b600061250783836126f1565b612560578260000182908060018154018082558091505060019003906000526020600020016000909190919091505582600001805490508360010160008481526020019081526020016000208190555060019050612565565b600090505b92915050565b600080836001016000848152602001908152602001600020549050600081146126e557600060018261259d9190613473565b90506000600186600001805490506125b59190613473565b90508181146126705760008660000182815481106125fc577f4e487b7100000000000000000000000000000000000000000000000000000000600052603260045260246000fd5b9060005260206000200154905080876000018481548110612646577f4e487b7100000000000000000000000000000000000000000000000000000000600052603260045260246000fd5b90600052602060002001819055508387600101600083815260200190815260200160002081905550505b856000018054806126aa577f4e487b7100000000000000000000000000000000000000000000000000000000600052603160045260246000fd5b6001900381819060005260206000200160009055905585600101600086815260200190815260200160002060009055600193505050506126eb565b60009150505b92915050565b600080836001016000848152602001908152602001600020541415905092915050565b82805461272090613567565b90600052602060002090601f0160209004810192826127425760008555612789565b82601f1061275b57805160ff1916838001178555612789565b82800160010185558215612789579182015b8281111561278857825182559160200191906001019061276d565b5b509050612796919061279a565b5090565b5b808211156127b357600081600090555060010161279b565b5090565b60006127ca6127c58461330e565b6132e9565b9050828152602081018484840111156127e257600080fd5b6127ed848285613525565b509392505050565b60006128086128038461333f565b6132e9565b90508281526020810184848401111561282057600080fd5b61282b848285613525565b509392505050565b60008135905061284281613c33565b92915050565b60008135905061285781613c4a565b92915050565b60008135905061286c81613c61565b92915050565b60008151905061288181613c61565b92915050565b600082601f83011261289857600080fd5b81356128a88482602086016127b7565b91505092915050565b600082601f8301126128c257600080fd5b81356128d28482602086016127f5565b91505092915050565b6000813590506128ea81613c78565b92915050565b60006020828403121561290257600080fd5b600061291084828501612833565b91505092915050565b6000806040838503121561292c57600080fd5b600061293a85828601612833565b925050602061294b85828601612833565b9150509250929050565b60008060006060848603121561296a57600080fd5b600061297886828701612833565b935050602061298986828701612833565b925050604061299a868287016128db565b9150509250925092565b600080600080608085870312156129ba57600080fd5b60006129c887828801612833565b94505060206129d987828801612833565b93505060406129ea878288016128db565b925050606085013567ffffffffffffffff811115612a0757600080fd5b612a1387828801612887565b91505092959194509250565b60008060408385031215612a3257600080fd5b6000612a4085828601612833565b9250506020612a5185828601612848565b9150509250929050565b60008060408385031215612a6e57600080fd5b6000612a7c85828601612833565b9250506020612a8d858286016128db565b9150509250929050565b600060208284031215612aa957600080fd5b6000612ab78482850161285d565b91505092915050565b600060208284031215612ad257600080fd5b6000612ae084828501612872565b91505092915050565b600060208284031215612afb57600080fd5b600082013567ffffffffffffffff811115612b1557600080fd5b612b21848285016128b1565b91505092915050565b600060208284031215612b3c57600080fd5b6000612b4a848285016128db565b91505092915050565b6000612b5f8383612be7565b60208301905092915050565b612b74816134a7565b82525050565b6000612b8582613380565b612b8f81856133ae565b9350612b9a83613370565b8060005b83811015612bcb578151612bb28882612b53565b9750612bbd836133a1565b925050600181019050612b9e565b5085935050505092915050565b612be1816134b9565b82525050565b612bf0816134c5565b82525050565b6000612c018261338b565b612c0b81856133bf565b9350612c1b818560208601613534565b612c2481613700565b840191505092915050565b6000612c3a82613396565b612c4481856133d0565b9350612c54818560208601613534565b612c5d81613700565b840191505092915050565b6000612c7382613396565b612c7d81856133e1565b9350612c8d818560208601613534565b80840191505092915050565b6000612ca66032836133d0565b9150612cb182613711565b604082019050919050565b6000612cc96026836133d0565b9150612cd482613760565b604082019050919050565b6000612cec6025836133d0565b9150612cf7826137af565b604082019050919050565b6000612d0f601c836133d0565b9150612d1a826137fe565b602082019050919050565b6000612d326016836133d0565b9150612d3d82613827565b602082019050919050565b6000612d556024836133d0565b9150612d6082613850565b604082019050919050565b6000612d786019836133d0565b9150612d838261389f565b602082019050919050565b6000612d9b6020836133d0565b9150612da6826138c8565b602082019050919050565b6000612dbe602c836133d0565b9150612dc9826138f1565b604082019050919050565b6000612de16038836133d0565b9150612dec82613940565b604082019050919050565b6000612e04602a836133d0565b9150612e0f8261398f565b604082019050919050565b6000612e276029836133d0565b9150612e32826139de565b604082019050919050565b6000612e4a601b836133d0565b9150612e5582613a2d565b602082019050919050565b6000612e6d6036836133d0565b9150612e7882613a56565b604082019050919050565b6000612e906020836133d0565b9150612e9b82613aa5565b602082019050919050565b6000612eb3602c836133d0565b9150612ebe82613ace565b604082019050919050565b6000612ed66020836133d0565b9150612ee182613b1d565b602082019050919050565b6000612ef9602f836133d0565b9150612f0482613b46565b604082019050919050565b6000612f1c6021836133d0565b9150612f2782613b95565b604082019050919050565b6000612f3f6031836133d0565b9150612f4a82613be4565b604082019050919050565b612f5e8161351b565b82525050565b6000612f708285612c68565b9150612f7c8284612c68565b91508190509392505050565b6000602082019050612f9d6000830184612b6b565b92915050565b6000608082019050612fb86000830187612b6b565b612fc56020830186612b6b565b612fd26040830185612f55565b8181036060830152612fe48184612bf6565b905095945050505050565b600060208201905081810360008301526130098184612b7a565b905092915050565b60006020820190506130266000830184612bd8565b92915050565b600060208201905081810360008301526130468184612c2f565b905092915050565b6000602082019050818103600083015261306781612c99565b9050919050565b6000602082019050818103600083015261308781612cbc565b9050919050565b600060208201905081810360008301526130a781612cdf565b9050919050565b600060208201905081810360008301526130c781612d02565b9050919050565b600060208201905081810360008301526130e781612d25565b9050919050565b6000602082019050818103600083015261310781612d48565b9050919050565b6000602082019050818103600083015261312781612d6b565b9050919050565b6000602082019050818103600083015261314781612d8e565b9050919050565b6000602082019050818103600083015261316781612db1565b9050919050565b6000602082019050818103600083015261318781612dd4565b9050919050565b600060208201905081810360008301526131a781612df7565b9050919050565b600060208201905081810360008301526131c781612e1a565b9050919050565b600060208201905081810360008301526131e781612e3d565b9050919050565b6000602082019050818103600083015261320781612e60565b9050919050565b6000602082019050818103600083015261322781612e83565b9050919050565b6000602082019050818103600083015261324781612ea6565b9050919050565b6000602082019050818103600083015261326781612ec9565b9050919050565b6000602082019050818103600083015261328781612eec565b9050919050565b600060208201905081810360008301526132a781612f0f565b9050919050565b600060208201905081810360008301526132c781612f32565b9050919050565b60006020820190506132e36000830184612f55565b92915050565b60006132f3613304565b90506132ff8282613599565b919050565b6000604051905090565b600067ffffffffffffffff821115613329576133286136d1565b5b61333282613700565b9050602081019050919050565b600067ffffffffffffffff82111561335a576133596136d1565b5b61336382613700565b9050602081019050919050565b6000819050602082019050919050565b600081519050919050565b600081519050919050565b600081519050919050565b6000602082019050919050565b600082825260208201905092915050565b600082825260208201905092915050565b600082825260208201905092915050565b600081905092915050565b60006133f78261351b565b91506134028361351b565b9250827fffffffffffffffffffffffffffffffffffffffffffffffffffffffffffffffff0382111561343757613436613644565b5b828201905092915050565b600061344d8261351b565b91506134588361351b565b92508261346857613467613673565b5b828204905092915050565b600061347e8261351b565b91506134898361351b565b92508282101561349c5761349b613644565b5b828203905092915050565b60006134b2826134fb565b9050919050565b60008115159050919050565b6000819050919050565b60007fffffffff0000000000000000000000000000000000000000000000000000000082169050919050565b600073ffffffffffffffffffffffffffffffffffffffff82169050919050565b6000819050919050565b82818337600083830152505050565b60005b83811015613552578082015181840152602081019050613537565b83811115613561576000848401525b50505050565b6000600282049050600182168061357f57607f821691505b60208210811415613593576135926136a2565b5b50919050565b6135a282613700565b810181811067ffffffffffffffff821117156135c1576135c06136d1565b5b80604052505050565b60006135d58261351b565b91507fffffffffffffffffffffffffffffffffffffffffffffffffffffffffffffffff82141561360857613607613644565b5b600182019050919050565b600061361e8261351b565b91506136298361351b565b92508261363957613638613673565b5b828206905092915050565b7f4e487b7100000000000000000000000000000000000000000000000000000000600052601160045260246000fd5b7f4e487b7100000000000000000000000000000000000000000000000000000000600052601260045260246000fd5b7f4e487b7100000000000000000000000000000000000000000000000000000000600052602260045260246000fd5b7f4e487b7100000000000000000000000000000000000000000000000000000000600052604160045260246000fd5b6000601f19601f8301169050919050565b7f4552433732313a207472616e7366657220746f206e6f6e20455243373231526560008201527f63656976657220696d706c656d656e7465720000000000000000000000000000602082015250565b7f4f776e61626c653a206e6577206f776e657220697320746865207a65726f206160008201527f6464726573730000000000000000000000000000000000000000000000000000602082015250565b7f4552433732313a207472616e736665722066726f6d20696e636f72726563742060008201527f6f776e6572000000000000000000000000000000000000000000000000000000602082015250565b7f4552433732313a20746f6b656e20616c7265616479206d696e74656400000000600082015250565b7f67656e657369734e756d206d7573742062652073657400000000000000000000600082015250565b7f4552433732313a207472616e7366657220746f20746865207a65726f2061646460008201527f7265737300000000000000000000000000000000000000000000000000000000602082015250565b7f4552433732313a20617070726f766520746f2063616c6c657200000000000000600082015250565b7f457863656564732067656e657369732073686f6573206c696d69746174696f6e600082015250565b7f4552433732313a206f70657261746f7220717565727920666f72206e6f6e657860008201527f697374656e7420746f6b656e0000000000000000000000000000000000000000602082015250565b7f4552433732313a20617070726f76652063616c6c6572206973206e6f74206f7760008201527f6e6572206e6f7220617070726f76656420666f7220616c6c0000000000000000602082015250565b7f4552433732313a2062616c616e636520717565727920666f7220746865207a6560008201527f726f206164647265737300000000000000000000000000000000000000000000602082015250565b7f4552433732313a206f776e657220717565727920666f72206e6f6e657869737460008201527f656e7420746f6b656e0000000000000000000000000000000000000000000000602082015250565b7f63616c6c6572206973206e6f7420746865206f70657261746f72730000000000600082015250565b7f43616e6e6f74207365742067656e657369734e756d207768656e20737061776e60008201527f696e672d73686f657320697320617661696c61626c6500000000000000000000602082015250565b7f4552433732313a206d696e7420746f20746865207a65726f2061646472657373600082015250565b7f4552433732313a20617070726f76656420717565727920666f72206e6f6e657860008201527f697374656e7420746f6b656e0000000000000000000000000000000000000000602082015250565b7f4f776e61626c653a2063616c6c6572206973206e6f7420746865206f776e6572600082015250565b7f4552433732314d657461646174613a2055524920717565727920666f72206e6f60008201527f6e6578697374656e7420746f6b656e0000000000000000000000000000000000602082015250565b7f4552433732313a20617070726f76616c20746f2063757272656e74206f776e6560008201527f7200000000000000000000000000000000000000000000000000000000000000602082015250565b7f4552433732313a207472616e736665722063616c6c6572206973206e6f74206f60008201527f776e6572206e6f7220617070726f766564000000000000000000000000000000602082015250565b613c3c816134a7565b8114613c4757600080fd5b50565b613c53816134b9565b8114613c5e57600080fd5b50565b613c6a816134cf565b8114613c7557600080fd5b50565b613c818161351b565b8114613c8c57600080fd5b5056fea2646970667358221220e4c42ba4cc143f68890b32161f99110d58d59d1bb909f6967a6d9e376f9db04264736f6c63430008040033",
  "linkReferences": {},
  "deployedLinkReferences": {}
}