{
  "_format": "hh-sol-artifact-1",
  "contractName": "ExchangeHeeForFitterPass",
  "sourceName": "contracts/ExchangeHeeForFitterPass.sol",
  "abi": [
    {
      "inputs": [
        {
          "internalType": "address",
          "name": "ownerWallet",
          "type": "address"
        },
        {
          "internalType": "address",
          "name": "heeAddr",
          "type": "address"
        },
        {
          "internalType": "address",
          "name": "fitterPassAddr",
          "type": "address"
        }
      ],
      "stateMutability": "nonpayable",
      "type": "constructor"
    },
    {
      "anonymous": false,
      "inputs": [
        {
          "indexed": true,
          "internalType": "address",
          "name": "wallet",
          "type": "address"
        },
        {
          "indexed": false,
          "internalType": "uint256",
          "name": "tokenAmount",
          "type": "uint256"
        },
        {
          "indexed": false,
          "internalType": "uint256",
          "name": "numberOfPass",
          "type": "uint256"
        }
      ],
      "name": "BurnHeeGetPass",
      "type": "event"
    },
    {
      "anonymous": false,
      "inputs": [
        {
          "indexed": true,
          "internalType": "address",
          "name": "previousOwner",
          "type": "address"
        },
        {
          "indexed": true,
          "internalType": "address",
          "name": "newOwner",
          "type": "address"
        }
      ],
      "name": "OwnershipTransferred",
      "type": "event"
    },
    {
      "inputs": [],
      "name": "closePool",
      "outputs": [],
      "stateMutability": "nonpayable",
      "type": "function"
    },
    {
      "inputs": [
        {
          "internalType": "uint256",
          "name": "numberOfPass",
          "type": "uint256"
        }
      ],
      "name": "exchangeHeeForFitterPass",
      "outputs": [],
      "stateMutability": "nonpayable",
      "type": "function"
    },
    {
      "inputs": [
        {
          "internalType": "uint256",
          "name": "exchangeId",
          "type": "uint256"
        }
      ],
      "name": "getExchangeById",
      "outputs": [
        {
          "components": [
            {
              "internalType": "uint256",
              "name": "id",
              "type": "uint256"
            },
            {
              "internalType": "uint256",
              "name": "numberOfPass",
              "type": "uint256"
            },
            {
              "internalType": "uint256",
              "name": "tokenAmount",
              "type": "uint256"
            },
            {
              "internalType": "uint256",
              "name": "timestamp",
              "type": "uint256"
            }
          ],
          "internalType": "struct ExchangeHeeForFitterPass.ExchangeFP",
          "name": "",
          "type": "tuple"
        }
      ],
      "stateMutability": "view",
      "type": "function"
    },
    {
      "inputs": [
        {
          "internalType": "uint256",
          "name": "exchangeId",
          "type": "uint256"
        }
      ],
      "name": "getExchangeOwner",
      "outputs": [
        {
          "internalType": "address",
          "name": "",
          "type": "address"
        }
      ],
      "stateMutability": "view",
      "type": "function"
    },
    {
      "inputs": [],
      "name": "getOwnerWallet",
      "outputs": [
        {
          "internalType": "address",
          "name": "",
          "type": "address"
        }
      ],
      "stateMutability": "view",
      "type": "function"
    },
    {
      "inputs": [],
      "name": "getPrice",
      "outputs": [
        {
          "internalType": "uint256",
          "name": "",
          "type": "uint256"
        }
      ],
      "stateMutability": "view",
      "type": "function"
    },
    {
      "inputs": [],
      "name": "getTotalTokenIn",
      "outputs": [
        {
          "internalType": "uint256",
          "name": "",
          "type": "uint256"
        }
      ],
      "stateMutability": "view",
      "type": "function"
    },
    {
      "inputs": [],
      "name": "getTotalTokenOut",
      "outputs": [
        {
          "internalType": "uint256",
          "name": "",
          "type": "uint256"
        }
      ],
      "stateMutability": "view",
      "type": "function"
    },
    {
      "inputs": [
        {
          "internalType": "address",
          "name": "wallet",
          "type": "address"
        }
      ],
      "name": "getUserExchanges",
      "outputs": [
        {
          "components": [
            {
              "internalType": "uint256",
              "name": "id",
              "type": "uint256"
            },
            {
              "internalType": "uint256",
              "name": "numberOfPass",
              "type": "uint256"
            },
            {
              "internalType": "uint256",
              "name": "tokenAmount",
              "type": "uint256"
            },
            {
              "internalType": "uint256",
              "name": "timestamp",
              "type": "uint256"
            }
          ],
          "internalType": "struct ExchangeHeeForFitterPass.ExchangeFP[]",
          "name": "",
          "type": "tuple[]"
        }
      ],
      "stateMutability": "view",
      "type": "function"
    },
    {
      "inputs": [
        {
          "internalType": "address",
          "name": "userWallet",
          "type": "address"
        }
      ],
      "name": "getUserTokenIn",
      "outputs": [
        {
          "internalType": "uint256",
          "name": "",
          "type": "uint256"
        }
      ],
      "stateMutability": "view",
      "type": "function"
    },
    {
      "inputs": [
        {
          "internalType": "address",
          "name": "userWallet",
          "type": "address"
        }
      ],
      "name": "getUserTokenOut",
      "outputs": [
        {
          "internalType": "uint256",
          "name": "",
          "type": "uint256"
        }
      ],
      "stateMutability": "view",
      "type": "function"
    },
    {
      "inputs": [
        {
          "internalType": "address",
          "name": "operator",
          "type": "address"
        }
      ],
      "name": "isOperator",
      "outputs": [
        {
          "internalType": "bool",
          "name": "",
          "type": "bool"
        }
      ],
      "stateMutability": "view",
      "type": "function"
    },
    {
      "inputs": [],
      "name": "openPool",
      "outputs": [],
      "stateMutability": "nonpayable",
      "type": "function"
    },
    {
      "inputs": [],
      "name": "owner",
      "outputs": [
        {
          "internalType": "address",
          "name": "",
          "type": "address"
        }
      ],
      "stateMutability": "view",
      "type": "function"
    },
    {
      "inputs": [
        {
          "internalType": "address",
          "name": "operator",
          "type": "address"
        }
      ],
      "name": "removeOperator",
      "outputs": [],
      "stateMutability": "nonpayable",
      "type": "function"
    },
    {
      "inputs": [],
      "name": "renounceOwnership",
      "outputs": [],
      "stateMutability": "nonpayable",
      "type": "function"
    },
    {
      "inputs": [
        {
          "internalType": "address",
          "name": "operator",
          "type": "address"
        }
      ],
      "name": "setOperator",
      "outputs": [],
      "stateMutability": "nonpayable",
      "type": "function"
    },
    {
      "inputs": [
        {
          "internalType": "address",
          "name": "wallet",
          "type": "address"
        }
      ],
      "name": "setOwnerWallet",
      "outputs": [],
      "stateMutability": "nonpayable",
      "type": "function"
    },
    {
      "inputs": [
        {
          "internalType": "uint256",
          "name": "price",
          "type": "uint256"
        }
      ],
      "name": "setPrice",
      "outputs": [],
      "stateMutability": "nonpayable",
      "type": "function"
    },
    {
      "inputs": [
        {
          "internalType": "address",
          "name": "newOwner",
          "type": "address"
        }
      ],
      "name": "transferOwnership",
      "outputs": [],
      "stateMutability": "nonpayable",
      "type": "function"
    }
  ],
  "bytecode": "0x60806040523480156200001157600080fd5b5060405162001e4338038062001e438339818101604052810190620000379190620002df565b620000576200004b620001fc60201b60201c565b6200020460201b60201c565b60018060003373ffffffffffffffffffffffffffffffffffffffff1673ffffffffffffffffffffffffffffffffffffffff16815260200190815260200160002060006101000a81548160ff02191690831515021790555060018060003373ffffffffffffffffffffffffffffffffffffffff1673ffffffffffffffffffffffffffffffffffffffff16815260200190815260200160002060006101000a81548160ff02191690831515021790555082600260016101000a81548173ffffffffffffffffffffffffffffffffffffffff021916908373ffffffffffffffffffffffffffffffffffffffff160217905550685150ae84a8cdf000006007819055506001600260006101000a81548160ff02191690831515021790555080600860006101000a81548173ffffffffffffffffffffffffffffffffffffffff021916908373ffffffffffffffffffffffffffffffffffffffff16021790555081600960006101000a81548173ffffffffffffffffffffffffffffffffffffffff021916908373ffffffffffffffffffffffffffffffffffffffff16021790555050505062000383565b600033905090565b60008060009054906101000a900473ffffffffffffffffffffffffffffffffffffffff169050816000806101000a81548173ffffffffffffffffffffffffffffffffffffffff021916908373ffffffffffffffffffffffffffffffffffffffff1602179055508173ffffffffffffffffffffffffffffffffffffffff168173ffffffffffffffffffffffffffffffffffffffff167f8be0079c531659141344cd1fd0a4f28419497f9722a3daafe3b4186f6b6457e060405160405180910390a35050565b600081519050620002d98162000369565b92915050565b600080600060608486031215620002f557600080fd5b60006200030586828701620002c8565b93505060206200031886828701620002c8565b92505060406200032b86828701620002c8565b9150509250925092565b6000620003428262000349565b9050919050565b600073ffffffffffffffffffffffffffffffffffffffff82169050919050565b620003748162000335565b81146200038057600080fd5b50565b611ab080620003936000396000f3fe608060405234801561001057600080fd5b506004361061012c5760003560e01c8063b3ab15fb116100ad578063ccaacaff11610071578063ccaacaff1461030b578063dc52913114610327578063e93f420014610357578063eb5797a414610387578063f2fde38b146103915761012c565b8063b3ab15fb14610255578063b5ece82d14610271578063bb542ef01461028f578063bb9bf07e146102ab578063cc09139a146102db5761012c565b8063715018a6116100f4578063715018a6146101d75780638da5cb5b146101e157806391b7f5ed146101ff57806398d5fdca1461021b578063ac8a584a146102395761012c565b80630973fea21461013157806328bc6d321461014f5780633c4966b71461017f57806366805de51461019d5780636d70f7ae146101a7575b600080fd5b6101396103ad565b60405161014691906116ba565b60405180910390f35b61016960048036038101906101649190611270565b6103b7565b60405161017691906114f9565b60405180910390f35b61018761043a565b60405161019491906114f9565b60405180910390f35b6101a5610464565b005b6101c160048036038101906101bc919061121e565b61050d565b6040516101ce91906115a4565b60405180910390f35b6101df610563565b005b6101e9610577565b6040516101f691906114f9565b60405180910390f35b61021960048036038101906102149190611270565b6105a0565b005b6102236105f5565b60405161023091906116ba565b60405180910390f35b610253600480360381019061024e919061121e565b6105ff565b005b61026f600480360381019061026a919061121e565b610662565b005b6102796106c4565b60405161028691906116ba565b60405180910390f35b6102a960048036038101906102a4919061121e565b6106ce565b005b6102c560048036038101906102c0919061121e565b61071a565b6040516102d291906116ba565b60405180910390f35b6102f560048036038101906102f09190611270565b610763565b604051610302919061169f565b60405180910390f35b61032560048036038101906103209190611270565b610833565b005b610341600480360381019061033c919061121e565b610cc7565b60405161034e91906116ba565b60405180910390f35b610371600480360381019061036c919061121e565b610d10565b60405161037e9190611582565b60405180910390f35b61038f610f40565b005b6103ab60048036038101906103a6919061121e565b610fe9565b005b6000600554905090565b600081600b5481106103fe576040517f08c379a00000000000000000000000000000000000000000000000000000000081526004016103f5906115df565b60405180910390fd5b600d600084815260200190815260200160002060009054906101000a900473ffffffffffffffffffffffffffffffffffffffff16915050919050565b6000600260019054906101000a900473ffffffffffffffffffffffffffffffffffffffff16905090565b600160003373ffffffffffffffffffffffffffffffffffffffff1673ffffffffffffffffffffffffffffffffffffffff16815260200190815260200160002060009054906101000a900460ff166104f0576040517f08c379a00000000000000000000000000000000000000000000000000000000081526004016104e79061163f565b60405180910390fd5b6000600260006101000a81548160ff021916908315150217905550565b6000600160008373ffffffffffffffffffffffffffffffffffffffff1673ffffffffffffffffffffffffffffffffffffffff16815260200190815260200160002060009054906101000a900460ff169050919050565b61056b61106d565b61057560006110eb565b565b60008060009054906101000a900473ffffffffffffffffffffffffffffffffffffffff16905090565b6105a861106d565b600081116105eb576040517f08c379a00000000000000000000000000000000000000000000000000000000081526004016105e2906115bf565b60405180910390fd5b8060078190555050565b6000600754905090565b61060761106d565b6000600160008373ffffffffffffffffffffffffffffffffffffffff1673ffffffffffffffffffffffffffffffffffffffff16815260200190815260200160002060006101000a81548160ff02191690831515021790555050565b61066a61106d565b60018060008373ffffffffffffffffffffffffffffffffffffffff1673ffffffffffffffffffffffffffffffffffffffff16815260200190815260200160002060006101000a81548160ff02191690831515021790555050565b6000600654905090565b6106d661106d565b80600260016101000a81548173ffffffffffffffffffffffffffffffffffffffff021916908373ffffffffffffffffffffffffffffffffffffffff16021790555050565b6000600360008373ffffffffffffffffffffffffffffffffffffffff1673ffffffffffffffffffffffffffffffffffffffff168152602001908152602001600020549050919050565b61076b6111b7565b81600b5481106107b0576040517f08c379a00000000000000000000000000000000000000000000000000000000081526004016107a7906115df565b60405180910390fd5b600a83815481106107ea577f4e487b7100000000000000000000000000000000000000000000000000000000600052603260045260246000fd5b9060005260206000209060040201604051806080016040529081600082015481526020016001820154815260200160028201548152602001600382015481525050915050919050565b600260009054906101000a900460ff16610882576040517f08c379a00000000000000000000000000000000000000000000000000000000081526004016108799061167f565b60405180910390fd5b6000600754116108c7576040517f08c379a00000000000000000000000000000000000000000000000000000000081526004016108be9061161f565b60405180910390fd5b6000600754826108d7919061179e565b9050600960009054906101000a900473ffffffffffffffffffffffffffffffffffffffff1673ffffffffffffffffffffffffffffffffffffffff166323b872dd33600260019054906101000a900473ffffffffffffffffffffffffffffffffffffffff16846040518463ffffffff1660e01b815260040161095a93929190611514565b602060405180830381600087803b15801561097457600080fd5b505af1158015610988573d6000803e3d6000fd5b505050506040513d601f19601f820116820180604052508101906109ac9190611247565b50600860009054906101000a900473ffffffffffffffffffffffffffffffffffffffff1673ffffffffffffffffffffffffffffffffffffffff1663156e29f6336000856040518463ffffffff1660e01b8152600401610a0d9392919061154b565b600060405180830381600087803b158015610a2757600080fd5b505af1158015610a3b573d6000803e3d6000fd5b505050506000600b549050600060405180608001604052808381526020018581526020018481526020014281525090506001600b6000828254610a7e9190611748565b92505081905550600a819080600181540180825580915050600190039060005260206000209060040201600090919091909150600082015181600001556020820151816001015560408201518160020155606082015181600301555050600c60003373ffffffffffffffffffffffffffffffffffffffff1673ffffffffffffffffffffffffffffffffffffffff16815260200190815260200160002082908060018154018082558091505060019003906000526020600020016000909190919091505533600d600084815260200190815260200160002060006101000a81548173ffffffffffffffffffffffffffffffffffffffff021916908373ffffffffffffffffffffffffffffffffffffffff16021790555082600360003373ffffffffffffffffffffffffffffffffffffffff1673ffffffffffffffffffffffffffffffffffffffff1681526020019081526020016000206000828254610be29190611748565b9250508190555083600460003373ffffffffffffffffffffffffffffffffffffffff1673ffffffffffffffffffffffffffffffffffffffff1681526020019081526020016000206000828254610c389190611748565b925050819055508260056000828254610c519190611748565b925050819055508360066000828254610c6a9190611748565b925050819055503373ffffffffffffffffffffffffffffffffffffffff167f988358c9b87c2dc05930b8fd70209010f50577ba2c3103123c422bfc531f98348486604051610cb99291906116d5565b60405180910390a250505050565b6000600460008373ffffffffffffffffffffffffffffffffffffffff1673ffffffffffffffffffffffffffffffffffffffff168152602001908152602001600020549050919050565b60606000600c60008473ffffffffffffffffffffffffffffffffffffffff1673ffffffffffffffffffffffffffffffffffffffff16815260200190815260200160002080549050905060008167ffffffffffffffff811115610d9b577f4e487b7100000000000000000000000000000000000000000000000000000000600052604160045260246000fd5b604051908082528060200260200182016040528015610dd457816020015b610dc16111b7565b815260200190600190039081610db95790505b50905060005b82811015610f3557600a600c60008773ffffffffffffffffffffffffffffffffffffffff1673ffffffffffffffffffffffffffffffffffffffff1681526020019081526020016000208281548110610e5b577f4e487b7100000000000000000000000000000000000000000000000000000000600052603260045260246000fd5b906000526020600020015481548110610e9d577f4e487b7100000000000000000000000000000000000000000000000000000000600052603260045260246000fd5b9060005260206000209060040201604051806080016040529081600082015481526020016001820154815260200160028201548152602001600382015481525050828281518110610f17577f4e487b7100000000000000000000000000000000000000000000000000000000600052603260045260246000fd5b60200260200101819052508080610f2d90611852565b915050610dda565b508092505050919050565b600160003373ffffffffffffffffffffffffffffffffffffffff1673ffffffffffffffffffffffffffffffffffffffff16815260200190815260200160002060009054906101000a900460ff16610fcc576040517f08c379a0000000000000000000000000000000000000000000000000000000008152600401610fc39061163f565b60405180910390fd5b6001600260006101000a81548160ff021916908315150217905550565b610ff161106d565b600073ffffffffffffffffffffffffffffffffffffffff168173ffffffffffffffffffffffffffffffffffffffff161415611061576040517f08c379a0000000000000000000000000000000000000000000000000000000008152600401611058906115ff565b60405180910390fd5b61106a816110eb565b50565b6110756111af565b73ffffffffffffffffffffffffffffffffffffffff16611093610577565b73ffffffffffffffffffffffffffffffffffffffff16146110e9576040517f08c379a00000000000000000000000000000000000000000000000000000000081526004016110e09061165f565b60405180910390fd5b565b60008060009054906101000a900473ffffffffffffffffffffffffffffffffffffffff169050816000806101000a81548173ffffffffffffffffffffffffffffffffffffffff021916908373ffffffffffffffffffffffffffffffffffffffff1602179055508173ffffffffffffffffffffffffffffffffffffffff168173ffffffffffffffffffffffffffffffffffffffff167f8be0079c531659141344cd1fd0a4f28419497f9722a3daafe3b4186f6b6457e060405160405180910390a35050565b600033905090565b6040518060800160405280600081526020016000815260200160008152602001600081525090565b6000813590506111ee81611a35565b92915050565b60008151905061120381611a4c565b92915050565b60008135905061121881611a63565b92915050565b60006020828403121561123057600080fd5b600061123e848285016111df565b91505092915050565b60006020828403121561125957600080fd5b6000611267848285016111f4565b91505092915050565b60006020828403121561128257600080fd5b600061129084828501611209565b91505092915050565b60006112a58383611431565b60808301905092915050565b6112ba816117f8565b82525050565b60006112cb8261170e565b6112d58185611726565b93506112e0836116fe565b8060005b838110156113115781516112f88882611299565b975061130383611719565b9250506001810190506112e4565b5085935050505092915050565b6113278161180a565b82525050565b61133681611840565b82525050565b6000611349601683611737565b9150611354826118ca565b602082019050919050565b600061136c601283611737565b9150611377826118f3565b602082019050919050565b600061138f602683611737565b915061139a8261191c565b604082019050919050565b60006113b2603083611737565b91506113bd8261196b565b604082019050919050565b60006113d5601b83611737565b91506113e0826119ba565b602082019050919050565b60006113f8602083611737565b9150611403826119e3565b602082019050919050565b600061141b601083611737565b915061142682611a0c565b602082019050919050565b60808201600082015161144760008501826114db565b50602082015161145a60208501826114db565b50604082015161146d60408501826114db565b50606082015161148060608501826114db565b50505050565b60808201600082015161149c60008501826114db565b5060208201516114af60208501826114db565b5060408201516114c260408501826114db565b5060608201516114d560608501826114db565b50505050565b6114e481611836565b82525050565b6114f381611836565b82525050565b600060208201905061150e60008301846112b1565b92915050565b600060608201905061152960008301866112b1565b61153660208301856112b1565b61154360408301846114ea565b949350505050565b600060608201905061156060008301866112b1565b61156d602083018561132d565b61157a60408301846114ea565b949350505050565b6000602082019050818103600083015261159c81846112c0565b905092915050565b60006020820190506115b9600083018461131e565b92915050565b600060208201905081810360008301526115d88161133c565b9050919050565b600060208201905081810360008301526115f88161135f565b9050919050565b6000602082019050818103600083015261161881611382565b9050919050565b60006020820190508181036000830152611638816113a5565b9050919050565b60006020820190508181036000830152611658816113c8565b9050919050565b60006020820190508181036000830152611678816113eb565b9050919050565b600060208201905081810360008301526116988161140e565b9050919050565b60006080820190506116b46000830184611486565b92915050565b60006020820190506116cf60008301846114ea565b92915050565b60006040820190506116ea60008301856114ea565b6116f760208301846114ea565b9392505050565b6000819050602082019050919050565b600081519050919050565b6000602082019050919050565b600082825260208201905092915050565b600082825260208201905092915050565b600061175382611836565b915061175e83611836565b9250827fffffffffffffffffffffffffffffffffffffffffffffffffffffffffffffffff038211156117935761179261189b565b5b828201905092915050565b60006117a982611836565b91506117b483611836565b9250817fffffffffffffffffffffffffffffffffffffffffffffffffffffffffffffffff04831182151516156117ed576117ec61189b565b5b828202905092915050565b600061180382611816565b9050919050565b60008115159050919050565b600073ffffffffffffffffffffffffffffffffffffffff82169050919050565b6000819050919050565b600061184b82611836565b9050919050565b600061185d82611836565b91507fffffffffffffffffffffffffffffffffffffffffffffffffffffffffffffffff8214156118905761188f61189b565b5b600182019050919050565b7f4e487b7100000000000000000000000000000000000000000000000000000000600052601160045260246000fd5b7f5072696365206d757374206e6f74206265207a65726f00000000000000000000600082015250565b7f496e76616c69642065786368616e676549640000000000000000000000000000600082015250565b7f4f776e61626c653a206e6577206f776e657220697320746865207a65726f206160008201527f6464726573730000000000000000000000000000000000000000000000000000602082015250565b7f546865206d696e696d616c20616d6f756e74206f6620484545206d757374206260008201527f652067726561746572207468616e203000000000000000000000000000000000602082015250565b7f63616c6c6572206973206e6f7420746865206f70657261746f72730000000000600082015250565b7f4f776e61626c653a2063616c6c6572206973206e6f7420746865206f776e6572600082015250565b7f4e6f74206f70656e696e67206e6f772100000000000000000000000000000000600082015250565b611a3e816117f8565b8114611a4957600080fd5b50565b611a558161180a565b8114611a6057600080fd5b50565b611a6c81611836565b8114611a7757600080fd5b5056fea26469706673582212209aab879b147522e075d5a2cb02f53cd03b00dc74de5296552a51206b6ba0b08564736f6c63430008040033",
  "linkReferences": {},
  "deployedLinkReferences": {}
}