{
  "_format": "hh-sol-artifact-1",
  "contractName": "BeFitterPass",
  "sourceName": "contracts/BFPass.sol",
  "abi": [
    {
      "inputs": [],
      "stateMutability": "nonpayable",
      "type": "constructor"
    },
    {
      "anonymous": false,
      "inputs": [
        {
          "indexed": true,
          "internalType": "address",
          "name": "account",
          "type": "address"
        },
        {
          "indexed": true,
          "internalType": "address",
          "name": "operator",
          "type": "address"
        },
        {
          "indexed": false,
          "internalType": "bool",
          "name": "approved",
          "type": "bool"
        }
      ],
      "name": "ApprovalForAll",
      "type": "event"
    },
    {
      "anonymous": false,
      "inputs": [
        {
          "indexed": true,
          "internalType": "address",
          "name": "to",
          "type": "address"
        },
        {
          "indexed": false,
          "internalType": "uint256",
          "name": "tokenId",
          "type": "uint256"
        },
        {
          "indexed": false,
          "internalType": "uint256",
          "name": "amount",
          "type": "uint256"
        }
      ],
      "name": "MintFitterPass",
      "type": "event"
    },
    {
      "anonymous": false,
      "inputs": [
        {
          "indexed": true,
          "internalType": "address",
          "name": "previousOwner",
          "type": "address"
        },
        {
          "indexed": true,
          "internalType": "address",
          "name": "newOwner",
          "type": "address"
        }
      ],
      "name": "OwnershipTransferred",
      "type": "event"
    },
    {
      "anonymous": false,
      "inputs": [
        {
          "indexed": false,
          "internalType": "address",
          "name": "account",
          "type": "address"
        }
      ],
      "name": "Paused",
      "type": "event"
    },
    {
      "anonymous": false,
      "inputs": [
        {
          "indexed": true,
          "internalType": "address",
          "name": "operator",
          "type": "address"
        },
        {
          "indexed": true,
          "internalType": "address",
          "name": "from",
          "type": "address"
        },
        {
          "indexed": true,
          "internalType": "address",
          "name": "to",
          "type": "address"
        },
        {
          "indexed": false,
          "internalType": "uint256[]",
          "name": "ids",
          "type": "uint256[]"
        },
        {
          "indexed": false,
          "internalType": "uint256[]",
          "name": "values",
          "type": "uint256[]"
        }
      ],
      "name": "TransferBatch",
      "type": "event"
    },
    {
      "anonymous": false,
      "inputs": [
        {
          "indexed": true,
          "internalType": "address",
          "name": "operator",
          "type": "address"
        },
        {
          "indexed": true,
          "internalType": "address",
          "name": "from",
          "type": "address"
        },
        {
          "indexed": true,
          "internalType": "address",
          "name": "to",
          "type": "address"
        },
        {
          "indexed": false,
          "internalType": "uint256",
          "name": "id",
          "type": "uint256"
        },
        {
          "indexed": false,
          "internalType": "uint256",
          "name": "value",
          "type": "uint256"
        }
      ],
      "name": "TransferSingle",
      "type": "event"
    },
    {
      "anonymous": false,
      "inputs": [
        {
          "indexed": false,
          "internalType": "string",
          "name": "value",
          "type": "string"
        },
        {
          "indexed": true,
          "internalType": "uint256",
          "name": "id",
          "type": "uint256"
        }
      ],
      "name": "URI",
      "type": "event"
    },
    {
      "anonymous": false,
      "inputs": [
        {
          "indexed": false,
          "internalType": "address",
          "name": "account",
          "type": "address"
        }
      ],
      "name": "Unpaused",
      "type": "event"
    },
    {
      "inputs": [
        {
          "internalType": "address",
          "name": "account",
          "type": "address"
        },
        {
          "internalType": "uint256",
          "name": "id",
          "type": "uint256"
        }
      ],
      "name": "balanceOf",
      "outputs": [
        {
          "internalType": "uint256",
          "name": "",
          "type": "uint256"
        }
      ],
      "stateMutability": "view",
      "type": "function"
    },
    {
      "inputs": [
        {
          "internalType": "address[]",
          "name": "accounts",
          "type": "address[]"
        },
        {
          "internalType": "uint256[]",
          "name": "ids",
          "type": "uint256[]"
        }
      ],
      "name": "balanceOfBatch",
      "outputs": [
        {
          "internalType": "uint256[]",
          "name": "",
          "type": "uint256[]"
        }
      ],
      "stateMutability": "view",
      "type": "function"
    },
    {
      "inputs": [],
      "name": "createNewToken",
      "outputs": [],
      "stateMutability": "nonpayable",
      "type": "function"
    },
    {
      "inputs": [],
      "name": "getCurrentTokenID",
      "outputs": [
        {
          "internalType": "uint256",
          "name": "",
          "type": "uint256"
        }
      ],
      "stateMutability": "view",
      "type": "function"
    },
    {
      "inputs": [
        {
          "internalType": "address",
          "name": "account",
          "type": "address"
        },
        {
          "internalType": "address",
          "name": "operator",
          "type": "address"
        }
      ],
      "name": "isApprovedForAll",
      "outputs": [
        {
          "internalType": "bool",
          "name": "",
          "type": "bool"
        }
      ],
      "stateMutability": "view",
      "type": "function"
    },
    {
      "inputs": [
        {
          "internalType": "address",
          "name": "operator",
          "type": "address"
        }
      ],
      "name": "isOperator",
      "outputs": [
        {
          "internalType": "bool",
          "name": "",
          "type": "bool"
        }
      ],
      "stateMutability": "view",
      "type": "function"
    },
    {
      "inputs": [
        {
          "internalType": "address",
          "name": "to",
          "type": "address"
        },
        {
          "internalType": "uint256",
          "name": "tokenId",
          "type": "uint256"
        },
        {
          "internalType": "uint256",
          "name": "amount",
          "type": "uint256"
        }
      ],
      "name": "mint",
      "outputs": [],
      "stateMutability": "nonpayable",
      "type": "function"
    },
    {
      "inputs": [],
      "name": "owner",
      "outputs": [
        {
          "internalType": "address",
          "name": "",
          "type": "address"
        }
      ],
      "stateMutability": "view",
      "type": "function"
    },
    {
      "inputs": [],
      "name": "pause",
      "outputs": [],
      "stateMutability": "nonpayable",
      "type": "function"
    },
    {
      "inputs": [],
      "name": "paused",
      "outputs": [
        {
          "internalType": "bool",
          "name": "",
          "type": "bool"
        }
      ],
      "stateMutability": "view",
      "type": "function"
    },
    {
      "inputs": [
        {
          "internalType": "address",
          "name": "operator",
          "type": "address"
        }
      ],
      "name": "removeOperator",
      "outputs": [],
      "stateMutability": "nonpayable",
      "type": "function"
    },
    {
      "inputs": [],
      "name": "renounceOwnership",
      "outputs": [],
      "stateMutability": "nonpayable",
      "type": "function"
    },
    {
      "inputs": [
        {
          "internalType": "address",
          "name": "from",
          "type": "address"
        },
        {
          "internalType": "address",
          "name": "to",
          "type": "address"
        },
        {
          "internalType": "uint256[]",
          "name": "ids",
          "type": "uint256[]"
        },
        {
          "internalType": "uint256[]",
          "name": "amounts",
          "type": "uint256[]"
        },
        {
          "internalType": "bytes",
          "name": "data",
          "type": "bytes"
        }
      ],
      "name": "safeBatchTransferFrom",
      "outputs": [],
      "stateMutability": "nonpayable",
      "type": "function"
    },
    {
      "inputs": [
        {
          "internalType": "address",
          "name": "from",
          "type": "address"
        },
        {
          "internalType": "address",
          "name": "to",
          "type": "address"
        },
        {
          "internalType": "uint256",
          "name": "id",
          "type": "uint256"
        },
        {
          "internalType": "uint256",
          "name": "amount",
          "type": "uint256"
        },
        {
          "internalType": "bytes",
          "name": "data",
          "type": "bytes"
        }
      ],
      "name": "safeTransferFrom",
      "outputs": [],
      "stateMutability": "nonpayable",
      "type": "function"
    },
    {
      "inputs": [
        {
          "internalType": "address",
          "name": "operator",
          "type": "address"
        },
        {
          "internalType": "bool",
          "name": "approved",
          "type": "bool"
        }
      ],
      "name": "setApprovalForAll",
      "outputs": [],
      "stateMutability": "nonpayable",
      "type": "function"
    },
    {
      "inputs": [
        {
          "internalType": "address",
          "name": "operator",
          "type": "address"
        }
      ],
      "name": "setOperator",
      "outputs": [],
      "stateMutability": "nonpayable",
      "type": "function"
    },
    {
      "inputs": [
        {
          "internalType": "bytes4",
          "name": "interfaceId",
          "type": "bytes4"
        }
      ],
      "name": "supportsInterface",
      "outputs": [
        {
          "internalType": "bool",
          "name": "",
          "type": "bool"
        }
      ],
      "stateMutability": "view",
      "type": "function"
    },
    {
      "inputs": [
        {
          "internalType": "address",
          "name": "newOwner",
          "type": "address"
        }
      ],
      "name": "transferOwnership",
      "outputs": [],
      "stateMutability": "nonpayable",
      "type": "function"
    },
    {
      "inputs": [
        {
          "internalType": "uint256",
          "name": "",
          "type": "uint256"
        }
      ],
      "name": "uri",
      "outputs": [
        {
          "internalType": "string",
          "name": "",
          "type": "string"
        }
      ],
      "stateMutability": "view",
      "type": "function"
    }
  ],
  "bytecode": "0x60806040523480156200001157600080fd5b506040518060200160405280600081525062000033816200012560201b60201c565b506000600360006101000a81548160ff0219169083151502179055506200006f620000636200014160201b60201c565b6200014960201b60201c565b6001600460003373ffffffffffffffffffffffffffffffffffffffff1673ffffffffffffffffffffffffffffffffffffffff16815260200190815260200160002060006101000a81548160ff0219169083151502179055506001600460003373ffffffffffffffffffffffffffffffffffffffff1673ffffffffffffffffffffffffffffffffffffffff16815260200190815260200160002060006101000a81548160ff02191690831515021790555062000324565b80600290805190602001906200013d9291906200020f565b5050565b600033905090565b6000600360019054906101000a900473ffffffffffffffffffffffffffffffffffffffff16905081600360016101000a81548173ffffffffffffffffffffffffffffffffffffffff021916908373ffffffffffffffffffffffffffffffffffffffff1602179055508173ffffffffffffffffffffffffffffffffffffffff168173ffffffffffffffffffffffffffffffffffffffff167f8be0079c531659141344cd1fd0a4f28419497f9722a3daafe3b4186f6b6457e060405160405180910390a35050565b8280546200021d90620002bf565b90600052602060002090601f0160209004810192826200024157600085556200028d565b82601f106200025c57805160ff19168380011785556200028d565b828001600101855582156200028d579182015b828111156200028c5782518255916020019190600101906200026f565b5b5090506200029c9190620002a0565b5090565b5b80821115620002bb576000816000905550600101620002a1565b5090565b60006002820490506001821680620002d857607f821691505b60208210811415620002ef57620002ee620002f5565b5b50919050565b7f4e487b7100000000000000000000000000000000000000000000000000000000600052602260045260246000fd5b6131f380620003346000396000f3fe608060405234801561001057600080fd5b50600436106101205760003560e01c8063754fc38c116100ad578063b3ab15fb11610071578063b3ab15fb146102df578063c4a6d0d2146102fb578063e985e9c514610319578063f242432a14610349578063f2fde38b1461036557610120565b8063754fc38c146102755780638456cb591461027f5780638da5cb5b14610289578063a22cb465146102a7578063ac8a584a146102c357610120565b80632eb2c2d6116100f45780632eb2c2d6146101d15780634e1273f4146101ed5780635c975abb1461021d5780636d70f7ae1461023b578063715018a61461026b57610120565b8062fdd58e1461012557806301ffc9a7146101555780630e89341c14610185578063156e29f6146101b5575b600080fd5b61013f600480360381019061013a9190612150565b610381565b60405161014c9190612903565b60405180910390f35b61016f600480360381019061016a9190612247565b61044a565b60405161017c9190612706565b60405180910390f35b61019f600480360381019061019a9190612299565b61052c565b6040516101ac9190612721565b60405180910390f35b6101cf60048036038101906101ca919061218c565b6105c0565b005b6101eb60048036038101906101e69190611fc6565b6106bc565b005b610207600480360381019061020291906121db565b61075d565b60405161021491906126ad565b60405180910390f35b61022561090e565b6040516102329190612706565b60405180910390f35b61025560048036038101906102509190611f61565b610925565b6040516102629190612706565b60405180910390f35b61027361097b565b005b61027d61098f565b005b6102876109b3565b005b610291610a49565b60405161029e91906125d0565b60405180910390f35b6102c160048036038101906102bc9190612114565b610a73565b005b6102dd60048036038101906102d89190611f61565b610a89565b005b6102f960048036038101906102f49190611f61565b610aec565b005b610303610b4f565b6040516103109190612903565b60405180910390f35b610333600480360381019061032e9190611f8a565b610b59565b6040516103409190612706565b60405180910390f35b610363600480360381019061035e9190612085565b610bed565b005b61037f600480360381019061037a9190611f61565b610c8e565b005b60008073ffffffffffffffffffffffffffffffffffffffff168373ffffffffffffffffffffffffffffffffffffffff1614156103f2576040517f08c379a00000000000000000000000000000000000000000000000000000000081526004016103e9906127c3565b60405180910390fd5b60008083815260200190815260200160002060008473ffffffffffffffffffffffffffffffffffffffff1673ffffffffffffffffffffffffffffffffffffffff16815260200190815260200160002054905092915050565b60007fd9b67a26000000000000000000000000000000000000000000000000000000007bffffffffffffffffffffffffffffffffffffffffffffffffffffffff1916827bffffffffffffffffffffffffffffffffffffffffffffffffffffffff1916148061051557507f0e89341c000000000000000000000000000000000000000000000000000000007bffffffffffffffffffffffffffffffffffffffffffffffffffffffff1916827bffffffffffffffffffffffffffffffffffffffffffffffffffffffff1916145b80610525575061052482610d12565b5b9050919050565b60606002805461053b90612b72565b80601f016020809104026020016040519081016040528092919081815260200182805461056790612b72565b80156105b45780601f10610589576101008083540402835291602001916105b4565b820191906000526020600020905b81548152906001019060200180831161059757829003601f168201915b50505050509050919050565b600460003373ffffffffffffffffffffffffffffffffffffffff1673ffffffffffffffffffffffffffffffffffffffff16815260200190815260200160002060009054906101000a900460ff1661064c576040517f08c379a000000000000000000000000000000000000000000000000000000000815260040161064390612823565b60405180910390fd5b61066783838360405180602001604052806000815250610d7c565b8273ffffffffffffffffffffffffffffffffffffffff167f37bee8cea9048addf064234b1072a7679078834bf50da99026e3dc72a315d23383836040516106af92919061291e565b60405180910390a2505050565b6106c4610f2d565b73ffffffffffffffffffffffffffffffffffffffff168573ffffffffffffffffffffffffffffffffffffffff16148061070a575061070985610704610f2d565b610b59565b5b610749576040517f08c379a000000000000000000000000000000000000000000000000000000000815260040161074090612763565b60405180910390fd5b6107568585858585610f35565b5050505050565b606081518351146107a3576040517f08c379a000000000000000000000000000000000000000000000000000000000815260040161079a906128a3565b60405180910390fd5b6000835167ffffffffffffffff8111156107e6577f4e487b7100000000000000000000000000000000000000000000000000000000600052604160045260246000fd5b6040519080825280602002602001820160405280156108145781602001602082028036833780820191505090505b50905060005b8451811015610903576108ad85828151811061085f577f4e487b7100000000000000000000000000000000000000000000000000000000600052603260045260246000fd5b60200260200101518583815181106108a0577f4e487b7100000000000000000000000000000000000000000000000000000000600052603260045260246000fd5b6020026020010151610381565b8282815181106108e6577f4e487b7100000000000000000000000000000000000000000000000000000000600052603260045260246000fd5b602002602001018181525050806108fc90612bd5565b905061081a565b508091505092915050565b6000600360009054906101000a900460ff16905090565b6000600460008373ffffffffffffffffffffffffffffffffffffffff1673ffffffffffffffffffffffffffffffffffffffff16815260200190815260200160002060009054906101000a900460ff169050919050565b6109836112a3565b61098d6000611321565b565b6109976112a3565b6001600560008282546109aa9190612a66565b92505081905550565b600460003373ffffffffffffffffffffffffffffffffffffffff1673ffffffffffffffffffffffffffffffffffffffff16815260200190815260200160002060009054906101000a900460ff16610a3f576040517f08c379a0000000000000000000000000000000000000000000000000000000008152600401610a3690612823565b60405180910390fd5b610a476113e7565b565b6000600360019054906101000a900473ffffffffffffffffffffffffffffffffffffffff16905090565b610a85610a7e610f2d565b838361144a565b5050565b610a916112a3565b6000600460008373ffffffffffffffffffffffffffffffffffffffff1673ffffffffffffffffffffffffffffffffffffffff16815260200190815260200160002060006101000a81548160ff02191690831515021790555050565b610af46112a3565b6001600460008373ffffffffffffffffffffffffffffffffffffffff1673ffffffffffffffffffffffffffffffffffffffff16815260200190815260200160002060006101000a81548160ff02191690831515021790555050565b6000600554905090565b6000600160008473ffffffffffffffffffffffffffffffffffffffff1673ffffffffffffffffffffffffffffffffffffffff16815260200190815260200160002060008373ffffffffffffffffffffffffffffffffffffffff1673ffffffffffffffffffffffffffffffffffffffff16815260200190815260200160002060009054906101000a900460ff16905092915050565b610bf5610f2d565b73ffffffffffffffffffffffffffffffffffffffff168573ffffffffffffffffffffffffffffffffffffffff161480610c3b5750610c3a85610c35610f2d565b610b59565b5b610c7a576040517f08c379a0000000000000000000000000000000000000000000000000000000008152600401610c7190612763565b60405180910390fd5b610c8785858585856115b7565b5050505050565b610c966112a3565b600073ffffffffffffffffffffffffffffffffffffffff168173ffffffffffffffffffffffffffffffffffffffff161415610d06576040517f08c379a0000000000000000000000000000000000000000000000000000000008152600401610cfd906127a3565b60405180910390fd5b610d0f81611321565b50565b60007f01ffc9a7000000000000000000000000000000000000000000000000000000007bffffffffffffffffffffffffffffffffffffffffffffffffffffffff1916827bffffffffffffffffffffffffffffffffffffffffffffffffffffffff1916149050919050565b600073ffffffffffffffffffffffffffffffffffffffff168473ffffffffffffffffffffffffffffffffffffffff161415610dec576040517f08c379a0000000000000000000000000000000000000000000000000000000008152600401610de3906128e3565b60405180910390fd5b6000610df6610f2d565b90506000610e0385611853565b90506000610e1085611853565b9050610e2183600089858589611919565b8460008088815260200190815260200160002060008973ffffffffffffffffffffffffffffffffffffffff1673ffffffffffffffffffffffffffffffffffffffff1681526020019081526020016000206000828254610e809190612a66565b925050819055508673ffffffffffffffffffffffffffffffffffffffff16600073ffffffffffffffffffffffffffffffffffffffff168473ffffffffffffffffffffffffffffffffffffffff167fc3d58168c5ae7397731d063d5bbf3d657854427343f4c083240f7aacaa2d0f628989604051610efe92919061291e565b60405180910390a4610f1583600089858589611921565b610f2483600089898989611929565b50505050505050565b600033905090565b8151835114610f79576040517f08c379a0000000000000000000000000000000000000000000000000000000008152600401610f70906128c3565b60405180910390fd5b600073ffffffffffffffffffffffffffffffffffffffff168473ffffffffffffffffffffffffffffffffffffffff161415610fe9576040517f08c379a0000000000000000000000000000000000000000000000000000000008152600401610fe090612803565b60405180910390fd5b6000610ff3610f2d565b9050611003818787878787611919565b60005b845181101561120057600085828151811061104a577f4e487b7100000000000000000000000000000000000000000000000000000000600052603260045260246000fd5b60200260200101519050600085838151811061108f577f4e487b7100000000000000000000000000000000000000000000000000000000600052603260045260246000fd5b60200260200101519050600080600084815260200190815260200160002060008b73ffffffffffffffffffffffffffffffffffffffff1673ffffffffffffffffffffffffffffffffffffffff16815260200190815260200160002054905081811015611130576040517f08c379a000000000000000000000000000000000000000000000000000000000815260040161112790612843565b60405180910390fd5b81810360008085815260200190815260200160002060008c73ffffffffffffffffffffffffffffffffffffffff1673ffffffffffffffffffffffffffffffffffffffff168152602001908152602001600020819055508160008085815260200190815260200160002060008b73ffffffffffffffffffffffffffffffffffffffff1673ffffffffffffffffffffffffffffffffffffffff16815260200190815260200160002060008282546111e59190612a66565b92505081905550505050806111f990612bd5565b9050611006565b508473ffffffffffffffffffffffffffffffffffffffff168673ffffffffffffffffffffffffffffffffffffffff168273ffffffffffffffffffffffffffffffffffffffff167f4a39dc06d4c0dbc64b70af90fd698a233a518aa5d07e595d983b8c0526c8f7fb87876040516112779291906126cf565b60405180910390a461128d818787878787611921565b61129b818787878787611b10565b505050505050565b6112ab610f2d565b73ffffffffffffffffffffffffffffffffffffffff166112c9610a49565b73ffffffffffffffffffffffffffffffffffffffff161461131f576040517f08c379a000000000000000000000000000000000000000000000000000000000815260040161131690612863565b60405180910390fd5b565b6000600360019054906101000a900473ffffffffffffffffffffffffffffffffffffffff16905081600360016101000a81548173ffffffffffffffffffffffffffffffffffffffff021916908373ffffffffffffffffffffffffffffffffffffffff1602179055508173ffffffffffffffffffffffffffffffffffffffff168173ffffffffffffffffffffffffffffffffffffffff167f8be0079c531659141344cd1fd0a4f28419497f9722a3daafe3b4186f6b6457e060405160405180910390a35050565b6113ef611cf7565b6001600360006101000a81548160ff0219169083151502179055507f62e78cea01bee320cd4e420270b5ea74000d11b0c9f74754ebdbfc544b05a258611433610f2d565b60405161144091906125d0565b60405180910390a1565b8173ffffffffffffffffffffffffffffffffffffffff168373ffffffffffffffffffffffffffffffffffffffff1614156114b9576040517f08c379a00000000000000000000000000000000000000000000000000000000081526004016114b090612883565b60405180910390fd5b80600160008573ffffffffffffffffffffffffffffffffffffffff1673ffffffffffffffffffffffffffffffffffffffff16815260200190815260200160002060008473ffffffffffffffffffffffffffffffffffffffff1673ffffffffffffffffffffffffffffffffffffffff16815260200190815260200160002060006101000a81548160ff0219169083151502179055508173ffffffffffffffffffffffffffffffffffffffff168373ffffffffffffffffffffffffffffffffffffffff167f17307eab39ab6107e8899845ad3d59bd9653f200f220920489ca2b5937696c31836040516115aa9190612706565b60405180910390a3505050565b600073ffffffffffffffffffffffffffffffffffffffff168473ffffffffffffffffffffffffffffffffffffffff161415611627576040517f08c379a000000000000000000000000000000000000000000000000000000000815260040161161e90612803565b60405180910390fd5b6000611631610f2d565b9050600061163e85611853565b9050600061164b85611853565b905061165b838989858589611919565b600080600088815260200190815260200160002060008a73ffffffffffffffffffffffffffffffffffffffff1673ffffffffffffffffffffffffffffffffffffffff168152602001908152602001600020549050858110156116f2576040517f08c379a00000000000000000000000000000000000000000000000000000000081526004016116e990612843565b60405180910390fd5b85810360008089815260200190815260200160002060008b73ffffffffffffffffffffffffffffffffffffffff1673ffffffffffffffffffffffffffffffffffffffff168152602001908152602001600020819055508560008089815260200190815260200160002060008a73ffffffffffffffffffffffffffffffffffffffff1673ffffffffffffffffffffffffffffffffffffffff16815260200190815260200160002060008282546117a79190612a66565b925050819055508773ffffffffffffffffffffffffffffffffffffffff168973ffffffffffffffffffffffffffffffffffffffff168573ffffffffffffffffffffffffffffffffffffffff167fc3d58168c5ae7397731d063d5bbf3d657854427343f4c083240f7aacaa2d0f628a8a60405161182492919061291e565b60405180910390a461183a848a8a86868a611921565b611848848a8a8a8a8a611929565b505050505050505050565b60606000600167ffffffffffffffff811115611898577f4e487b7100000000000000000000000000000000000000000000000000000000600052604160045260246000fd5b6040519080825280602002602001820160405280156118c65781602001602082028036833780820191505090505b5090508281600081518110611904577f4e487b7100000000000000000000000000000000000000000000000000000000600052603260045260246000fd5b60200260200101818152505080915050919050565b505050505050565b505050505050565b6119488473ffffffffffffffffffffffffffffffffffffffff16611d41565b15611b08578373ffffffffffffffffffffffffffffffffffffffff1663f23a6e6187878686866040518663ffffffff1660e01b815260040161198e959493929190612653565b602060405180830381600087803b1580156119a857600080fd5b505af19250505080156119d957506040513d601f19601f820116820180604052508101906119d69190612270565b60015b611a7f576119e5612cab565b806308c379a01415611a4257506119fa6130cb565b80611a055750611a44565b806040517f08c379a0000000000000000000000000000000000000000000000000000000008152600401611a399190612721565b60405180910390fd5b505b6040517f08c379a0000000000000000000000000000000000000000000000000000000008152600401611a7690612743565b60405180910390fd5b63f23a6e6160e01b7bffffffffffffffffffffffffffffffffffffffffffffffffffffffff1916817bffffffffffffffffffffffffffffffffffffffffffffffffffffffff191614611b06576040517f08c379a0000000000000000000000000000000000000000000000000000000008152600401611afd90612783565b60405180910390fd5b505b505050505050565b611b2f8473ffffffffffffffffffffffffffffffffffffffff16611d41565b15611cef578373ffffffffffffffffffffffffffffffffffffffff1663bc197c8187878686866040518663ffffffff1660e01b8152600401611b759594939291906125eb565b602060405180830381600087803b158015611b8f57600080fd5b505af1925050508015611bc057506040513d601f19601f82011682018060405250810190611bbd9190612270565b60015b611c6657611bcc612cab565b806308c379a01415611c295750611be16130cb565b80611bec5750611c2b565b806040517f08c379a0000000000000000000000000000000000000000000000000000000008152600401611c209190612721565b60405180910390fd5b505b6040517f08c379a0000000000000000000000000000000000000000000000000000000008152600401611c5d90612743565b60405180910390fd5b63bc197c8160e01b7bffffffffffffffffffffffffffffffffffffffffffffffffffffffff1916817bffffffffffffffffffffffffffffffffffffffffffffffffffffffff191614611ced576040517f08c379a0000000000000000000000000000000000000000000000000000000008152600401611ce490612783565b60405180910390fd5b505b505050505050565b611cff61090e565b15611d3f576040517f08c379a0000000000000000000000000000000000000000000000000000000008152600401611d36906127e3565b60405180910390fd5b565b6000808273ffffffffffffffffffffffffffffffffffffffff163b119050919050565b6000611d77611d728461296c565b612947565b90508083825260208201905082856020860282011115611d9657600080fd5b60005b85811015611dc65781611dac8882611e7a565b845260208401935060208301925050600181019050611d99565b5050509392505050565b6000611de3611dde84612998565b612947565b90508083825260208201905082856020860282011115611e0257600080fd5b60005b85811015611e325781611e188882611f4c565b845260208401935060208301925050600181019050611e05565b5050509392505050565b6000611e4f611e4a846129c4565b612947565b905082815260208101848484011115611e6757600080fd5b611e72848285612b30565b509392505050565b600081359050611e8981613161565b92915050565b600082601f830112611ea057600080fd5b8135611eb0848260208601611d64565b91505092915050565b600082601f830112611eca57600080fd5b8135611eda848260208601611dd0565b91505092915050565b600081359050611ef281613178565b92915050565b600081359050611f078161318f565b92915050565b600081519050611f1c8161318f565b92915050565b600082601f830112611f3357600080fd5b8135611f43848260208601611e3c565b91505092915050565b600081359050611f5b816131a6565b92915050565b600060208284031215611f7357600080fd5b6000611f8184828501611e7a565b91505092915050565b60008060408385031215611f9d57600080fd5b6000611fab85828601611e7a565b9250506020611fbc85828601611e7a565b9150509250929050565b600080600080600060a08688031215611fde57600080fd5b6000611fec88828901611e7a565b9550506020611ffd88828901611e7a565b945050604086013567ffffffffffffffff81111561201a57600080fd5b61202688828901611eb9565b935050606086013567ffffffffffffffff81111561204357600080fd5b61204f88828901611eb9565b925050608086013567ffffffffffffffff81111561206c57600080fd5b61207888828901611f22565b9150509295509295909350565b600080600080600060a0868803121561209d57600080fd5b60006120ab88828901611e7a565b95505060206120bc88828901611e7a565b94505060406120cd88828901611f4c565b93505060606120de88828901611f4c565b925050608086013567ffffffffffffffff8111156120fb57600080fd5b61210788828901611f22565b9150509295509295909350565b6000806040838503121561212757600080fd5b600061213585828601611e7a565b925050602061214685828601611ee3565b9150509250929050565b6000806040838503121561216357600080fd5b600061217185828601611e7a565b925050602061218285828601611f4c565b9150509250929050565b6000806000606084860312156121a157600080fd5b60006121af86828701611e7a565b93505060206121c086828701611f4c565b92505060406121d186828701611f4c565b9150509250925092565b600080604083850312156121ee57600080fd5b600083013567ffffffffffffffff81111561220857600080fd5b61221485828601611e8f565b925050602083013567ffffffffffffffff81111561223157600080fd5b61223d85828601611eb9565b9150509250929050565b60006020828403121561225957600080fd5b600061226784828501611ef8565b91505092915050565b60006020828403121561228257600080fd5b600061229084828501611f0d565b91505092915050565b6000602082840312156122ab57600080fd5b60006122b984828501611f4c565b91505092915050565b60006122ce83836125b2565b60208301905092915050565b6122e381612abc565b82525050565b60006122f482612a05565b6122fe8185612a33565b9350612309836129f5565b8060005b8381101561233a57815161232188826122c2565b975061232c83612a26565b92505060018101905061230d565b5085935050505092915050565b61235081612ace565b82525050565b600061236182612a10565b61236b8185612a44565b935061237b818560208601612b3f565b61238481612ccd565b840191505092915050565b600061239a82612a1b565b6123a48185612a55565b93506123b4818560208601612b3f565b6123bd81612ccd565b840191505092915050565b60006123d5603483612a55565b91506123e082612ceb565b604082019050919050565b60006123f8602f83612a55565b915061240382612d3a565b604082019050919050565b600061241b602883612a55565b915061242682612d89565b604082019050919050565b600061243e602683612a55565b915061244982612dd8565b604082019050919050565b6000612461602a83612a55565b915061246c82612e27565b604082019050919050565b6000612484601083612a55565b915061248f82612e76565b602082019050919050565b60006124a7602583612a55565b91506124b282612e9f565b604082019050919050565b60006124ca601b83612a55565b91506124d582612eee565b602082019050919050565b60006124ed602a83612a55565b91506124f882612f17565b604082019050919050565b6000612510602083612a55565b915061251b82612f66565b602082019050919050565b6000612533602983612a55565b915061253e82612f8f565b604082019050919050565b6000612556602983612a55565b915061256182612fde565b604082019050919050565b6000612579602883612a55565b91506125848261302d565b604082019050919050565b600061259c602183612a55565b91506125a78261307c565b604082019050919050565b6125bb81612b26565b82525050565b6125ca81612b26565b82525050565b60006020820190506125e560008301846122da565b92915050565b600060a08201905061260060008301886122da565b61260d60208301876122da565b818103604083015261261f81866122e9565b9050818103606083015261263381856122e9565b905081810360808301526126478184612356565b90509695505050505050565b600060a08201905061266860008301886122da565b61267560208301876122da565b61268260408301866125c1565b61268f60608301856125c1565b81810360808301526126a18184612356565b90509695505050505050565b600060208201905081810360008301526126c781846122e9565b905092915050565b600060408201905081810360008301526126e981856122e9565b905081810360208301526126fd81846122e9565b90509392505050565b600060208201905061271b6000830184612347565b92915050565b6000602082019050818103600083015261273b818461238f565b905092915050565b6000602082019050818103600083015261275c816123c8565b9050919050565b6000602082019050818103600083015261277c816123eb565b9050919050565b6000602082019050818103600083015261279c8161240e565b9050919050565b600060208201905081810360008301526127bc81612431565b9050919050565b600060208201905081810360008301526127dc81612454565b9050919050565b600060208201905081810360008301526127fc81612477565b9050919050565b6000602082019050818103600083015261281c8161249a565b9050919050565b6000602082019050818103600083015261283c816124bd565b9050919050565b6000602082019050818103600083015261285c816124e0565b9050919050565b6000602082019050818103600083015261287c81612503565b9050919050565b6000602082019050818103600083015261289c81612526565b9050919050565b600060208201905081810360008301526128bc81612549565b9050919050565b600060208201905081810360008301526128dc8161256c565b9050919050565b600060208201905081810360008301526128fc8161258f565b9050919050565b600060208201905061291860008301846125c1565b92915050565b600060408201905061293360008301856125c1565b61294060208301846125c1565b9392505050565b6000612951612962565b905061295d8282612ba4565b919050565b6000604051905090565b600067ffffffffffffffff82111561298757612986612c7c565b5b602082029050602081019050919050565b600067ffffffffffffffff8211156129b3576129b2612c7c565b5b602082029050602081019050919050565b600067ffffffffffffffff8211156129df576129de612c7c565b5b6129e882612ccd565b9050602081019050919050565b6000819050602082019050919050565b600081519050919050565b600081519050919050565b600081519050919050565b6000602082019050919050565b600082825260208201905092915050565b600082825260208201905092915050565b600082825260208201905092915050565b6000612a7182612b26565b9150612a7c83612b26565b9250827fffffffffffffffffffffffffffffffffffffffffffffffffffffffffffffffff03821115612ab157612ab0612c1e565b5b828201905092915050565b6000612ac782612b06565b9050919050565b60008115159050919050565b60007fffffffff0000000000000000000000000000000000000000000000000000000082169050919050565b600073ffffffffffffffffffffffffffffffffffffffff82169050919050565b6000819050919050565b82818337600083830152505050565b60005b83811015612b5d578082015181840152602081019050612b42565b83811115612b6c576000848401525b50505050565b60006002820490506001821680612b8a57607f821691505b60208210811415612b9e57612b9d612c4d565b5b50919050565b612bad82612ccd565b810181811067ffffffffffffffff82111715612bcc57612bcb612c7c565b5b80604052505050565b6000612be082612b26565b91507fffffffffffffffffffffffffffffffffffffffffffffffffffffffffffffffff821415612c1357612c12612c1e565b5b600182019050919050565b7f4e487b7100000000000000000000000000000000000000000000000000000000600052601160045260246000fd5b7f4e487b7100000000000000000000000000000000000000000000000000000000600052602260045260246000fd5b7f4e487b7100000000000000000000000000000000000000000000000000000000600052604160045260246000fd5b600060033d1115612cca5760046000803e612cc7600051612cde565b90505b90565b6000601f19601f8301169050919050565b60008160e01c9050919050565b7f455243313135353a207472616e7366657220746f206e6f6e204552433131353560008201527f526563656976657220696d706c656d656e746572000000000000000000000000602082015250565b7f455243313135353a2063616c6c6572206973206e6f7420746f6b656e206f776e60008201527f6572206e6f7220617070726f7665640000000000000000000000000000000000602082015250565b7f455243313135353a204552433131353552656365697665722072656a6563746560008201527f6420746f6b656e73000000000000000000000000000000000000000000000000602082015250565b7f4f776e61626c653a206e6577206f776e657220697320746865207a65726f206160008201527f6464726573730000000000000000000000000000000000000000000000000000602082015250565b7f455243313135353a2061646472657373207a65726f206973206e6f742061207660008201527f616c6964206f776e657200000000000000000000000000000000000000000000602082015250565b7f5061757361626c653a2070617573656400000000000000000000000000000000600082015250565b7f455243313135353a207472616e7366657220746f20746865207a65726f20616460008201527f6472657373000000000000000000000000000000000000000000000000000000602082015250565b7f63616c6c6572206973206e6f7420746865206f70657261746f72730000000000600082015250565b7f455243313135353a20696e73756666696369656e742062616c616e636520666f60008201527f72207472616e7366657200000000000000000000000000000000000000000000602082015250565b7f4f776e61626c653a2063616c6c6572206973206e6f7420746865206f776e6572600082015250565b7f455243313135353a2073657474696e6720617070726f76616c2073746174757360008201527f20666f722073656c660000000000000000000000000000000000000000000000602082015250565b7f455243313135353a206163636f756e747320616e6420696473206c656e67746860008201527f206d69736d617463680000000000000000000000000000000000000000000000602082015250565b7f455243313135353a2069647320616e6420616d6f756e7473206c656e6774682060008201527f6d69736d61746368000000000000000000000000000000000000000000000000602082015250565b7f455243313135353a206d696e7420746f20746865207a65726f2061646472657360008201527f7300000000000000000000000000000000000000000000000000000000000000602082015250565b600060443d10156130db5761315e565b6130e3612962565b60043d036004823e80513d602482011167ffffffffffffffff8211171561310b57505061315e565b808201805167ffffffffffffffff811115613129575050505061315e565b80602083010160043d03850181111561314657505050505061315e565b61315582602001850186612ba4565b82955050505050505b90565b61316a81612abc565b811461317557600080fd5b50565b61318181612ace565b811461318c57600080fd5b50565b61319881612ada565b81146131a357600080fd5b50565b6131af81612b26565b81146131ba57600080fd5b5056fea2646970667358221220dc09b33f0a77bf8447fb4e5f6f4664946a7153cf98339b2e597cf4d5a43194ad64736f6c63430008040033",
  "linkReferences": {},
  "deployedLinkReferences": {}
}