{
  "_format": "hh-sol-artifact-1",
  "contractName": "BeFitterStaking",
  "sourceName": "contracts/BFStaking.sol",
  "abi": [
    {
      "inputs": [
        {
          "internalType": "address",
          "name": "tokenAddress",
          "type": "address"
        },
        {
          "internalType": "address",
          "name": "rewardItemContract",
          "type": "address"
        }
      ],
      "stateMutability": "nonpayable",
      "type": "constructor"
    },
    {
      "anonymous": false,
      "inputs": [
        {
          "indexed": true,
          "internalType": "address",
          "name": "previousOwner",
          "type": "address"
        },
        {
          "indexed": true,
          "internalType": "address",
          "name": "newOwner",
          "type": "address"
        }
      ],
      "name": "OwnershipTransferred",
      "type": "event"
    },
    {
      "inputs": [],
      "name": "claimReward",
      "outputs": [],
      "stateMutability": "nonpayable",
      "type": "function"
    },
    {
      "inputs": [],
      "name": "closeStaking",
      "outputs": [],
      "stateMutability": "nonpayable",
      "type": "function"
    },
    {
      "inputs": [],
      "name": "getAmountToEarnPassPerCycle",
      "outputs": [
        {
          "internalType": "uint256",
          "name": "",
          "type": "uint256"
        }
      ],
      "stateMutability": "view",
      "type": "function"
    },
    {
      "inputs": [
        {
          "internalType": "address",
          "name": "user",
          "type": "address"
        }
      ],
      "name": "getCurrentProfit",
      "outputs": [
        {
          "internalType": "uint256",
          "name": "",
          "type": "uint256"
        }
      ],
      "stateMutability": "view",
      "type": "function"
    },
    {
      "inputs": [
        {
          "internalType": "address",
          "name": "user",
          "type": "address"
        }
      ],
      "name": "getLastClaimTime",
      "outputs": [
        {
          "internalType": "uint256",
          "name": "",
          "type": "uint256"
        }
      ],
      "stateMutability": "view",
      "type": "function"
    },
    {
      "inputs": [],
      "name": "getMinimumAmount",
      "outputs": [
        {
          "internalType": "uint256",
          "name": "",
          "type": "uint256"
        }
      ],
      "stateMutability": "view",
      "type": "function"
    },
    {
      "inputs": [],
      "name": "getPenaltyRate",
      "outputs": [
        {
          "internalType": "uint256",
          "name": "",
          "type": "uint256"
        }
      ],
      "stateMutability": "view",
      "type": "function"
    },
    {
      "inputs": [
        {
          "internalType": "address",
          "name": "user",
          "type": "address"
        }
      ],
      "name": "getRemainingDelayTime",
      "outputs": [
        {
          "internalType": "uint256",
          "name": "",
          "type": "uint256"
        }
      ],
      "stateMutability": "view",
      "type": "function"
    },
    {
      "inputs": [
        {
          "internalType": "address",
          "name": "user",
          "type": "address"
        }
      ],
      "name": "getStakingAmount",
      "outputs": [
        {
          "internalType": "uint256",
          "name": "",
          "type": "uint256"
        }
      ],
      "stateMutability": "view",
      "type": "function"
    },
    {
      "inputs": [],
      "name": "getTokenAddress",
      "outputs": [
        {
          "internalType": "address",
          "name": "",
          "type": "address"
        }
      ],
      "stateMutability": "view",
      "type": "function"
    },
    {
      "inputs": [
        {
          "internalType": "address",
          "name": "user",
          "type": "address"
        }
      ],
      "name": "getUnstakeAmount",
      "outputs": [
        {
          "internalType": "uint256",
          "name": "",
          "type": "uint256"
        }
      ],
      "stateMutability": "view",
      "type": "function"
    },
    {
      "inputs": [],
      "name": "openStaking",
      "outputs": [],
      "stateMutability": "nonpayable",
      "type": "function"
    },
    {
      "inputs": [],
      "name": "owner",
      "outputs": [
        {
          "internalType": "address",
          "name": "",
          "type": "address"
        }
      ],
      "stateMutability": "view",
      "type": "function"
    },
    {
      "inputs": [],
      "name": "renounceOwnership",
      "outputs": [],
      "stateMutability": "nonpayable",
      "type": "function"
    },
    {
      "inputs": [
        {
          "internalType": "uint256",
          "name": "amount",
          "type": "uint256"
        }
      ],
      "name": "setAmountToEarnPassPerCycle",
      "outputs": [],
      "stateMutability": "nonpayable",
      "type": "function"
    },
    {
      "inputs": [
        {
          "internalType": "uint256",
          "name": "amount",
          "type": "uint256"
        }
      ],
      "name": "setMinimumAmount",
      "outputs": [],
      "stateMutability": "nonpayable",
      "type": "function"
    },
    {
      "inputs": [
        {
          "internalType": "uint256",
          "name": "rate",
          "type": "uint256"
        }
      ],
      "name": "setPenaltyRate",
      "outputs": [],
      "stateMutability": "nonpayable",
      "type": "function"
    },
    {
      "inputs": [
        {
          "internalType": "uint256",
          "name": "pTime",
          "type": "uint256"
        },
        {
          "internalType": "uint256",
          "name": "rate",
          "type": "uint256"
        }
      ],
      "name": "setPromotionTime",
      "outputs": [],
      "stateMutability": "nonpayable",
      "type": "function"
    },
    {
      "inputs": [
        {
          "internalType": "uint256",
          "name": "tokenId",
          "type": "uint256"
        }
      ],
      "name": "setRewardTokenId",
      "outputs": [],
      "stateMutability": "nonpayable",
      "type": "function"
    },
    {
      "inputs": [
        {
          "internalType": "address",
          "name": "tokenAddress",
          "type": "address"
        }
      ],
      "name": "setTokenAddress",
      "outputs": [],
      "stateMutability": "nonpayable",
      "type": "function"
    },
    {
      "inputs": [
        {
          "internalType": "uint256",
          "name": "delayTime",
          "type": "uint256"
        }
      ],
      "name": "setWithdrawalDelayTime",
      "outputs": [],
      "stateMutability": "nonpayable",
      "type": "function"
    },
    {
      "inputs": [
        {
          "internalType": "uint256",
          "name": "cTime",
          "type": "uint256"
        }
      ],
      "name": "setstakingBlockTime",
      "outputs": [],
      "stateMutability": "nonpayable",
      "type": "function"
    },
    {
      "inputs": [
        {
          "internalType": "uint256",
          "name": "amount",
          "type": "uint256"
        }
      ],
      "name": "stake",
      "outputs": [],
      "stateMutability": "nonpayable",
      "type": "function"
    },
    {
      "inputs": [
        {
          "internalType": "address",
          "name": "user",
          "type": "address"
        }
      ],
      "name": "toClaimableTime",
      "outputs": [
        {
          "internalType": "uint256",
          "name": "",
          "type": "uint256"
        }
      ],
      "stateMutability": "view",
      "type": "function"
    },
    {
      "inputs": [
        {
          "internalType": "address",
          "name": "newOwner",
          "type": "address"
        }
      ],
      "name": "transferOwnership",
      "outputs": [],
      "stateMutability": "nonpayable",
      "type": "function"
    },
    {
      "inputs": [
        {
          "internalType": "uint256",
          "name": "unstakeAmount",
          "type": "uint256"
        }
      ],
      "name": "unstake",
      "outputs": [],
      "stateMutability": "nonpayable",
      "type": "function"
    },
    {
      "inputs": [],
      "name": "withdrawStakingToken",
      "outputs": [],
      "stateMutability": "nonpayable",
      "type": "function"
    }
  ],
  "bytecode": "0x60806040523480156200001157600080fd5b506040516200247938038062002479833981810160405281019062000037919062000219565b620000576200004b620000f160201b60201c565b620000f960201b60201c565b81600160006101000a81548173ffffffffffffffffffffffffffffffffffffffff021916908373ffffffffffffffffffffffffffffffffffffffff16021790555080600260006101000a81548173ffffffffffffffffffffffffffffffffffffffff021916908373ffffffffffffffffffffffffffffffffffffffff160217905550620000e9620001bd60201b60201c565b5050620002a8565b600033905090565b60008060009054906101000a900473ffffffffffffffffffffffffffffffffffffffff169050816000806101000a81548173ffffffffffffffffffffffffffffffffffffffff021916908373ffffffffffffffffffffffffffffffffffffffff1602179055508173ffffffffffffffffffffffffffffffffffffffff168173ffffffffffffffffffffffffffffffffffffffff167f8be0079c531659141344cd1fd0a4f28419497f9722a3daafe3b4186f6b6457e060405160405180910390a35050565b683635c9adc5dea00000600381905550690878678326eac900000060048190555061012c60068190555061025860078190555060006009819055506010600881905550565b60008151905062000213816200028e565b92915050565b600080604083850312156200022d57600080fd5b60006200023d8582860162000202565b9250506020620002508582860162000202565b9150509250929050565b600062000267826200026e565b9050919050565b600073ffffffffffffffffffffffffffffffffffffffff82169050919050565b62000299816200025a565b8114620002a557600080fd5b50565b6121c180620002b86000396000f3fe608060405234801561001057600080fd5b50600436106101a85760003560e01c806374363daa116100f9578063b8d69ecf11610097578063ea92939711610071578063ea92939714610457578063eeb4a9c814610473578063f14cb8811461048f578063f2fde38b146104ad576101a8565b8063b8d69ecf146103ed578063c28be0af146103f7578063dcf4e26714610427576101a8565b8063a1bab447116100d3578063a1bab4471461037b578063a680e0bc14610397578063a694fc3a146103c7578063b88a802f146103e3576101a8565b806374363daa146103235780638da5cb5b1461035357806398cfe58714610371576101a8565b8063494eb5b81161016657806362066eb31161014057806362066eb3146102d557806362581733146102f35780636aa9f686146102fd578063715018a614610319576101a8565b8063494eb5b81461026b5780634c576a64146102875780635722ef97146102b7576101a8565b806255a6e6146101ad57806310fe9ae8146101c9578063160244ed146101e757806326a4e8d2146102035780632e17de781461021f5780633412a7641461023b575b600080fd5b6101c760048036038101906101c29190611983565b6104c9565b005b6101d1610547565b6040516101de9190611b3b565b60405180910390f35b61020160048036038101906101fc919061195a565b610571565b005b61021d60048036038101906102189190611908565b610583565b005b6102396004803603810190610234919061195a565b6105cf565b005b61025560048036038101906102509190611908565b610824565b6040516102629190611d2d565b60405180910390f35b6102856004803603810190610280919061195a565b610870565b005b6102a1600480360381019061029c9190611908565b610882565b6040516102ae9190611d2d565b60405180910390f35b6102bf61092c565b6040516102cc9190611d2d565b60405180910390f35b6102dd610936565b6040516102ea9190611d2d565b60405180910390f35b6102fb610940565b005b6103176004803603810190610312919061195a565b610951565b005b610321610963565b005b61033d60048036038101906103389190611908565b610977565b60405161034a9190611d2d565b60405180910390f35b61035b6109c3565b6040516103689190611b3b565b60405180910390f35b6103796109ec565b005b6103956004803603810190610390919061195a565b6109fd565b005b6103b160048036038101906103ac9190611908565b610a52565b6040516103be9190611d2d565b60405180910390f35b6103e160048036038101906103dc919061195a565b610a9e565b005b6103eb610ece565b005b6103f5611115565b005b610411600480360381019061040c9190611908565b611200565b60405161041e9190611d2d565b60405180910390f35b610441600480360381019061043c9190611908565b6112c4565b60405161044e9190611d2d565b60405180910390f35b610471600480360381019061046c919061195a565b611323565b005b61048d6004803603810190610488919061195a565b611335565b005b610497611347565b6040516104a49190611d2d565b60405180910390f35b6104c760048036038101906104c29190611908565b611351565b005b6104d16113d5565b6001811015610515576040517f08c379a000000000000000000000000000000000000000000000000000000000815260040161050c90611c6d565b60405180910390fd5b42600d6000018190555081600d600001546105309190611d59565b600d6001018190555080600d600201819055505050565b6000600160009054906101000a900473ffffffffffffffffffffffffffffffffffffffff16905090565b6105796113d5565b80600c8190555050565b61058b6113d5565b80600160006101000a81548173ffffffffffffffffffffffffffffffffffffffff021916908373ffffffffffffffffffffffffffffffffffffffff16021790555050565b601060003373ffffffffffffffffffffffffffffffffffffffff1673ffffffffffffffffffffffffffffffffffffffff16815260200190815260200160002060000154811115610654576040517f08c379a000000000000000000000000000000000000000000000000000000000815260040161064b90611c0d565b60405180910390fd5b600061065f33611453565b905080601060003373ffffffffffffffffffffffffffffffffffffffff1673ffffffffffffffffffffffffffffffffffffffff16815260200190815260200160002060030160008282546106b39190611d59565b9250508190555042601060003373ffffffffffffffffffffffffffffffffffffffff1673ffffffffffffffffffffffffffffffffffffffff1681526020019081526020016000206002018190555081601060003373ffffffffffffffffffffffffffffffffffffffff1673ffffffffffffffffffffffffffffffffffffffff16815260200190815260200160002060000160008282546107539190611e3a565b9250508190555081601060003373ffffffffffffffffffffffffffffffffffffffff1673ffffffffffffffffffffffffffffffffffffffff16815260200190815260200160002060040160008282546107ac9190611d59565b92505081905550600754426107c19190611d59565b601060003373ffffffffffffffffffffffffffffffffffffffff1673ffffffffffffffffffffffffffffffffffffffff1681526020019081526020016000206005018190555081600b60008282546108199190611e3a565b925050819055505050565b6000601060008373ffffffffffffffffffffffffffffffffffffffff1673ffffffffffffffffffffffffffffffffffffffff168152602001908152602001600020600401549050919050565b6108786113d5565b8060048190555050565b6000601060008373ffffffffffffffffffffffffffffffffffffffff1673ffffffffffffffffffffffffffffffffffffffff1681526020019081526020016000206005015442106108d65760009050610927565b42601060008473ffffffffffffffffffffffffffffffffffffffff1673ffffffffffffffffffffffffffffffffffffffff168152602001908152602001600020600501546109249190611e3a565b90505b919050565b6000600854905090565b6000600354905090565b6109486113d5565b42600981905550565b6109596113d5565b8060078190555050565b61096b6113d5565b6109756000611572565b565b6000601060008373ffffffffffffffffffffffffffffffffffffffff1673ffffffffffffffffffffffffffffffffffffffff168152602001908152602001600020600001549050919050565b60008060009054906101000a900473ffffffffffffffffffffffffffffffffffffffff16905090565b6109f46113d5565b42600a81905550565b610a056113d5565b60648110610a48576040517f08c379a0000000000000000000000000000000000000000000000000000000008152600401610a3f90611c4d565b60405180910390fd5b8060088190555050565b6000601060008373ffffffffffffffffffffffffffffffffffffffff1673ffffffffffffffffffffffffffffffffffffffff168152602001908152602001600020600201549050919050565b600060095414158015610ab357506009544210155b610af2576040517f08c379a0000000000000000000000000000000000000000000000000000000008152600401610ae990611c8d565b60405180910390fd5b6000600a541480610b055750600a544211155b610b44576040517f08c379a0000000000000000000000000000000000000000000000000000000008152600401610b3b90611c8d565b60405180910390fd5b60008111610b87576040517f08c379a0000000000000000000000000000000000000000000000000000000008152600401610b7e90611c2d565b60405180910390fd5b6000601060003373ffffffffffffffffffffffffffffffffffffffff1673ffffffffffffffffffffffffffffffffffffffff1681526020019081526020016000206000015490506003548183610bdd9190611d59565b1015610c1e576040517f08c379a0000000000000000000000000000000000000000000000000000000008152600401610c1590611d0d565b60405180910390fd5b6000601060003373ffffffffffffffffffffffffffffffffffffffff1673ffffffffffffffffffffffffffffffffffffffff168152602001908152602001600020600001541415610cf85742601060003373ffffffffffffffffffffffffffffffffffffffff1673ffffffffffffffffffffffffffffffffffffffff1681526020019081526020016000206001018190555042601060003373ffffffffffffffffffffffffffffffffffffffff1673ffffffffffffffffffffffffffffffffffffffff168152602001908152602001600020600201819055505b600160009054906101000a900473ffffffffffffffffffffffffffffffffffffffff1673ffffffffffffffffffffffffffffffffffffffff166323b872dd3330856040518463ffffffff1660e01b8152600401610d5793929190611b56565b602060405180830381600087803b158015610d7157600080fd5b505af1158015610d85573d6000803e3d6000fd5b505050506040513d601f19601f82011682018060405250810190610da99190611931565b506000610db533611453565b905082601060003373ffffffffffffffffffffffffffffffffffffffff1673ffffffffffffffffffffffffffffffffffffffff1681526020019081526020016000206000016000828254610e099190611d59565b9250508190555080601060003373ffffffffffffffffffffffffffffffffffffffff1673ffffffffffffffffffffffffffffffffffffffff1681526020019081526020016000206003016000828254610e629190611d59565b9250508190555042601060003373ffffffffffffffffffffffffffffffffffffffff1673ffffffffffffffffffffffffffffffffffffffff1681526020019081526020016000206002018190555082600b6000828254610ec29190611d59565b92505081905550505050565b600654601060003373ffffffffffffffffffffffffffffffffffffffff1673ffffffffffffffffffffffffffffffffffffffff16815260200190815260200160002060020154610f1e9190611d59565b4211610f5f576040517f08c379a0000000000000000000000000000000000000000000000000000000008152600401610f5690611ccd565b60405180910390fd5b6000610f6a33611453565b9050600081601060003373ffffffffffffffffffffffffffffffffffffffff1673ffffffffffffffffffffffffffffffffffffffff16815260200190815260200160002060030154610fbc9190611d59565b90506000811115611111576000601060003373ffffffffffffffffffffffffffffffffffffffff1673ffffffffffffffffffffffffffffffffffffffff16815260200190815260200160002060030181905550600260009054906101000a900473ffffffffffffffffffffffffffffffffffffffff1673ffffffffffffffffffffffffffffffffffffffff1663156e29f633600c54846040518463ffffffff1660e01b815260040161107093929190611bb6565b600060405180830381600087803b15801561108a57600080fd5b505af115801561109e573d6000803e3d6000fd5b505050506006546110ae33611636565b6110b89190611de0565b601060003373ffffffffffffffffffffffffffffffffffffffff1673ffffffffffffffffffffffffffffffffffffffff16815260200190815260200160002060020160008282546111099190611d59565b925050819055505b5050565b6000601060003373ffffffffffffffffffffffffffffffffffffffff1673ffffffffffffffffffffffffffffffffffffffff168152602001908152602001600020600401541161119a576040517f08c379a000000000000000000000000000000000000000000000000000000000815260040161119190611ced565b60405180910390fd5b6000601060003373ffffffffffffffffffffffffffffffffffffffff1673ffffffffffffffffffffffffffffffffffffffff168152602001908152602001600020600501544211156111ed5760006111f0565b60015b90506111fc33826116bb565b5050565b6000600654601060008473ffffffffffffffffffffffffffffffffffffffff1673ffffffffffffffffffffffffffffffffffffffff168152602001908152602001600020600201546112529190611d59565b421061126157600090506112bf565b42600654601060008573ffffffffffffffffffffffffffffffffffffffff1673ffffffffffffffffffffffffffffffffffffffff168152602001908152602001600020600201546112b29190611d59565b6112bc9190611e3a565b90505b919050565b6000601060008373ffffffffffffffffffffffffffffffffffffffff1673ffffffffffffffffffffffffffffffffffffffff1681526020019081526020016000206003015461131283611453565b61131c9190611d59565b9050919050565b61132b6113d5565b8060068190555050565b61133d6113d5565b8060038190555050565b6000600454905090565b6113596113d5565b600073ffffffffffffffffffffffffffffffffffffffff168173ffffffffffffffffffffffffffffffffffffffff1614156113c9576040517f08c379a00000000000000000000000000000000000000000000000000000000081526004016113c090611bed565b60405180910390fd5b6113d281611572565b50565b6113dd611834565b73ffffffffffffffffffffffffffffffffffffffff166113fb6109c3565b73ffffffffffffffffffffffffffffffffffffffff1614611451576040517f08c379a000000000000000000000000000000000000000000000000000000000815260040161144890611cad565b60405180910390fd5b565b60008061145f83611636565b90506000601060008573ffffffffffffffffffffffffffffffffffffffff1673ffffffffffffffffffffffffffffffffffffffff1681526020019081526020016000206002015490506000826006546114b89190611de0565b826114c39190611d59565b905060006006546114d4848461183c565b6114de9190611daf565b9050600081856114ee9190611e3a565b90506004548183600d600201546115059190611de0565b61150f9190611d59565b601060008a73ffffffffffffffffffffffffffffffffffffffff1673ffffffffffffffffffffffffffffffffffffffff1681526020019081526020016000206000015461155c9190611de0565b6115669190611daf565b95505050505050919050565b60008060009054906101000a900473ffffffffffffffffffffffffffffffffffffffff169050816000806101000a81548173ffffffffffffffffffffffffffffffffffffffff021916908373ffffffffffffffffffffffffffffffffffffffff1602179055508173ffffffffffffffffffffffffffffffffffffffff168173ffffffffffffffffffffffffffffffffffffffff167f8be0079c531659141344cd1fd0a4f28419497f9722a3daafe3b4186f6b6457e060405160405180910390a35050565b6000806000600a54146116545761164f600a5442611896565b611656565b425b9050600654601060008573ffffffffffffffffffffffffffffffffffffffff1673ffffffffffffffffffffffffffffffffffffffff16815260200190815260200160002060020154826116a99190611e3a565b6116b39190611daf565b915050919050565b600080601060008573ffffffffffffffffffffffffffffffffffffffff1673ffffffffffffffffffffffffffffffffffffffff1681526020019081526020016000206004015490508215611732576064600854606461171a9190611e3a565b826117259190611de0565b61172f9190611daf565b90505b6000601060008673ffffffffffffffffffffffffffffffffffffffff1673ffffffffffffffffffffffffffffffffffffffff16815260200190815260200160002060040181905550600160009054906101000a900473ffffffffffffffffffffffffffffffffffffffff1673ffffffffffffffffffffffffffffffffffffffff1663a9059cbb85836040518363ffffffff1660e01b81526004016117d7929190611b8d565b602060405180830381600087803b1580156117f157600080fd5b505af1158015611805573d6000803e3d6000fd5b505050506040513d601f19601f820116820180604052508101906118299190611931565b508091505092915050565b600033905090565b6000600d60010154831015806118575750600d600001548211155b156118655760009050611890565b61187483600d600001546118af565b61188383600d60010154611896565b61188d9190611e3a565b90505b92915050565b60008183106118a557816118a7565b825b905092915050565b6000818310156118bf57816118c1565b825b905092915050565b6000813590506118d881612146565b92915050565b6000815190506118ed8161215d565b92915050565b60008135905061190281612174565b92915050565b60006020828403121561191a57600080fd5b6000611928848285016118c9565b91505092915050565b60006020828403121561194357600080fd5b6000611951848285016118de565b91505092915050565b60006020828403121561196c57600080fd5b600061197a848285016118f3565b91505092915050565b6000806040838503121561199657600080fd5b60006119a4858286016118f3565b92505060206119b5858286016118f3565b9150509250929050565b6119c881611e6e565b82525050565b60006119db602683611d48565b91506119e682611f14565b604082019050919050565b60006119fe602483611d48565b9150611a0982611f63565b604082019050919050565b6000611a21601b83611d48565b9150611a2c82611fb2565b602082019050919050565b6000611a44601a83611d48565b9150611a4f82611fdb565b602082019050919050565b6000611a67602583611d48565b9150611a7282612004565b604082019050919050565b6000611a8a601083611d48565b9150611a9582612053565b602082019050919050565b6000611aad602083611d48565b9150611ab88261207c565b602082019050919050565b6000611ad0601083611d48565b9150611adb826120a5565b602082019050919050565b6000611af3601783611d48565b9150611afe826120ce565b602082019050919050565b6000611b16603283611d48565b9150611b21826120f7565b604082019050919050565b611b3581611eac565b82525050565b6000602082019050611b5060008301846119bf565b92915050565b6000606082019050611b6b60008301866119bf565b611b7860208301856119bf565b611b856040830184611b2c565b949350505050565b6000604082019050611ba260008301856119bf565b611baf6020830184611b2c565b9392505050565b6000606082019050611bcb60008301866119bf565b611bd86020830185611b2c565b611be56040830184611b2c565b949350505050565b60006020820190508181036000830152611c06816119ce565b9050919050565b60006020820190508181036000830152611c26816119f1565b9050919050565b60006020820190508181036000830152611c4681611a14565b9050919050565b60006020820190508181036000830152611c6681611a37565b9050919050565b60006020820190508181036000830152611c8681611a5a565b9050919050565b60006020820190508181036000830152611ca681611a7d565b9050919050565b60006020820190508181036000830152611cc681611aa0565b9050919050565b60006020820190508181036000830152611ce681611ac3565b9050919050565b60006020820190508181036000830152611d0681611ae6565b9050919050565b60006020820190508181036000830152611d2681611b09565b9050919050565b6000602082019050611d426000830184611b2c565b92915050565b600082825260208201905092915050565b6000611d6482611eac565b9150611d6f83611eac565b9250827fffffffffffffffffffffffffffffffffffffffffffffffffffffffffffffffff03821115611da457611da3611eb6565b5b828201905092915050565b6000611dba82611eac565b9150611dc583611eac565b925082611dd557611dd4611ee5565b5b828204905092915050565b6000611deb82611eac565b9150611df683611eac565b9250817fffffffffffffffffffffffffffffffffffffffffffffffffffffffffffffffff0483118215151615611e2f57611e2e611eb6565b5b828202905092915050565b6000611e4582611eac565b9150611e5083611eac565b925082821015611e6357611e62611eb6565b5b828203905092915050565b6000611e7982611e8c565b9050919050565b60008115159050919050565b600073ffffffffffffffffffffffffffffffffffffffff82169050919050565b6000819050919050565b7f4e487b7100000000000000000000000000000000000000000000000000000000600052601160045260246000fd5b7f4e487b7100000000000000000000000000000000000000000000000000000000600052601260045260246000fd5b7f4f776e61626c653a206e6577206f776e657220697320746865207a65726f206160008201527f6464726573730000000000000000000000000000000000000000000000000000602082015250565b7f756e7374616b6520616d6f756e742065786365656473207374616b656420616d60008201527f6f756e7400000000000000000000000000000000000000000000000000000000602082015250565b7f7374616b6520616d6f756e742063616e6e6f74206265207a65726f0000000000600082015250565b7f70656e616c7479526174652063616e6e6f742062652031303025000000000000600082015250565b7f70726f6d6f74696f6e2072617465206d7573742062652067726561746572207460008201527f68616e2031000000000000000000000000000000000000000000000000000000602082015250565b7f43616e6e6f74207374616b65206e6f7700000000000000000000000000000000600082015250565b7f4f776e61626c653a2063616c6c6572206973206e6f7420746865206f776e6572600082015250565b7f43616e6e6f7420636c61696d206e6f7700000000000000000000000000000000600082015250565b7f756e7374616b65206265666f7265207769746864726177000000000000000000600082015250565b7f7374616b6520616d6f756e74206c657373207468616e206d696e696d756d207360008201527f74616b696e6720726571756972656d656e740000000000000000000000000000602082015250565b61214f81611e6e565b811461215a57600080fd5b50565b61216681611e80565b811461217157600080fd5b50565b61217d81611eac565b811461218857600080fd5b5056fea26469706673582212200caebc1a6ff68878cfc1d8dbaa768099b16f8f19cda81ca035938ea11260a3a364736f6c63430008040033",
  "linkReferences": {},
  "deployedLinkReferences": {}
}