{
  "_format": "hh-sol-artifact-1",
  "contractName": "BeFitterPass",
  "sourceName": "contracts/BFPass.sol",
  "abi": [
    {
      "inputs": [],
      "stateMutability": "nonpayable",
      "type": "constructor"
    },
    {
      "anonymous": false,
      "inputs": [
        {
          "indexed": true,
          "internalType": "address",
          "name": "account",
          "type": "address"
        },
        {
          "indexed": true,
          "internalType": "address",
          "name": "operator",
          "type": "address"
        },
        {
          "indexed": false,
          "internalType": "bool",
          "name": "approved",
          "type": "bool"
        }
      ],
      "name": "ApprovalForAll",
      "type": "event"
    },
    {
      "anonymous": false,
      "inputs": [
        {
          "indexed": true,
          "internalType": "address",
          "name": "to",
          "type": "address"
        },
        {
          "indexed": false,
          "internalType": "uint256",
          "name": "tokenId",
          "type": "uint256"
        },
        {
          "indexed": false,
          "internalType": "uint256",
          "name": "amount",
          "type": "uint256"
        }
      ],
      "name": "MintFitterPass",
      "type": "event"
    },
    {
      "anonymous": false,
      "inputs": [
        {
          "indexed": true,
          "internalType": "address",
          "name": "previousOwner",
          "type": "address"
        },
        {
          "indexed": true,
          "internalType": "address",
          "name": "newOwner",
          "type": "address"
        }
      ],
      "name": "OwnershipTransferred",
      "type": "event"
    },
    {
      "anonymous": false,
      "inputs": [
        {
          "indexed": true,
          "internalType": "address",
          "name": "operator",
          "type": "address"
        },
        {
          "indexed": true,
          "internalType": "address",
          "name": "from",
          "type": "address"
        },
        {
          "indexed": true,
          "internalType": "address",
          "name": "to",
          "type": "address"
        },
        {
          "indexed": false,
          "internalType": "uint256[]",
          "name": "ids",
          "type": "uint256[]"
        },
        {
          "indexed": false,
          "internalType": "uint256[]",
          "name": "values",
          "type": "uint256[]"
        }
      ],
      "name": "TransferBatch",
      "type": "event"
    },
    {
      "anonymous": false,
      "inputs": [
        {
          "indexed": true,
          "internalType": "address",
          "name": "operator",
          "type": "address"
        },
        {
          "indexed": true,
          "internalType": "address",
          "name": "from",
          "type": "address"
        },
        {
          "indexed": true,
          "internalType": "address",
          "name": "to",
          "type": "address"
        },
        {
          "indexed": false,
          "internalType": "uint256",
          "name": "id",
          "type": "uint256"
        },
        {
          "indexed": false,
          "internalType": "uint256",
          "name": "value",
          "type": "uint256"
        }
      ],
      "name": "TransferSingle",
      "type": "event"
    },
    {
      "anonymous": false,
      "inputs": [
        {
          "indexed": false,
          "internalType": "string",
          "name": "value",
          "type": "string"
        },
        {
          "indexed": true,
          "internalType": "uint256",
          "name": "id",
          "type": "uint256"
        }
      ],
      "name": "URI",
      "type": "event"
    },
    {
      "inputs": [
        {
          "internalType": "address",
          "name": "wallet",
          "type": "address"
        }
      ],
      "name": "addWhiteList",
      "outputs": [],
      "stateMutability": "nonpayable",
      "type": "function"
    },
    {
      "inputs": [
        {
          "internalType": "address",
          "name": "account",
          "type": "address"
        },
        {
          "internalType": "uint256",
          "name": "id",
          "type": "uint256"
        }
      ],
      "name": "balanceOf",
      "outputs": [
        {
          "internalType": "uint256",
          "name": "",
          "type": "uint256"
        }
      ],
      "stateMutability": "view",
      "type": "function"
    },
    {
      "inputs": [
        {
          "internalType": "address[]",
          "name": "accounts",
          "type": "address[]"
        },
        {
          "internalType": "uint256[]",
          "name": "ids",
          "type": "uint256[]"
        }
      ],
      "name": "balanceOfBatch",
      "outputs": [
        {
          "internalType": "uint256[]",
          "name": "",
          "type": "uint256[]"
        }
      ],
      "stateMutability": "view",
      "type": "function"
    },
    {
      "inputs": [],
      "name": "createNewToken",
      "outputs": [],
      "stateMutability": "nonpayable",
      "type": "function"
    },
    {
      "inputs": [],
      "name": "getCurrentTokenID",
      "outputs": [
        {
          "internalType": "uint256",
          "name": "",
          "type": "uint256"
        }
      ],
      "stateMutability": "view",
      "type": "function"
    },
    {
      "inputs": [],
      "name": "getWhiteList",
      "outputs": [
        {
          "internalType": "bytes32[]",
          "name": "",
          "type": "bytes32[]"
        }
      ],
      "stateMutability": "view",
      "type": "function"
    },
    {
      "inputs": [
        {
          "internalType": "address",
          "name": "account",
          "type": "address"
        },
        {
          "internalType": "address",
          "name": "operator",
          "type": "address"
        }
      ],
      "name": "isApprovedForAll",
      "outputs": [
        {
          "internalType": "bool",
          "name": "",
          "type": "bool"
        }
      ],
      "stateMutability": "view",
      "type": "function"
    },
    {
      "inputs": [
        {
          "internalType": "address",
          "name": "operator",
          "type": "address"
        }
      ],
      "name": "isOperator",
      "outputs": [
        {
          "internalType": "bool",
          "name": "",
          "type": "bool"
        }
      ],
      "stateMutability": "view",
      "type": "function"
    },
    {
      "inputs": [
        {
          "internalType": "address",
          "name": "to",
          "type": "address"
        },
        {
          "internalType": "uint256",
          "name": "tokenId",
          "type": "uint256"
        },
        {
          "internalType": "uint256",
          "name": "amount",
          "type": "uint256"
        }
      ],
      "name": "mint",
      "outputs": [],
      "stateMutability": "nonpayable",
      "type": "function"
    },
    {
      "inputs": [],
      "name": "owner",
      "outputs": [
        {
          "internalType": "address",
          "name": "",
          "type": "address"
        }
      ],
      "stateMutability": "view",
      "type": "function"
    },
    {
      "inputs": [
        {
          "internalType": "address",
          "name": "operator",
          "type": "address"
        }
      ],
      "name": "removeOperator",
      "outputs": [],
      "stateMutability": "nonpayable",
      "type": "function"
    },
    {
      "inputs": [
        {
          "internalType": "address",
          "name": "wallet",
          "type": "address"
        }
      ],
      "name": "removeWhiteList",
      "outputs": [],
      "stateMutability": "nonpayable",
      "type": "function"
    },
    {
      "inputs": [],
      "name": "renounceOwnership",
      "outputs": [],
      "stateMutability": "nonpayable",
      "type": "function"
    },
    {
      "inputs": [
        {
          "internalType": "address",
          "name": "from",
          "type": "address"
        },
        {
          "internalType": "address",
          "name": "to",
          "type": "address"
        },
        {
          "internalType": "uint256[]",
          "name": "ids",
          "type": "uint256[]"
        },
        {
          "internalType": "uint256[]",
          "name": "amounts",
          "type": "uint256[]"
        },
        {
          "internalType": "bytes",
          "name": "data",
          "type": "bytes"
        }
      ],
      "name": "safeBatchTransferFrom",
      "outputs": [],
      "stateMutability": "nonpayable",
      "type": "function"
    },
    {
      "inputs": [
        {
          "internalType": "address",
          "name": "from",
          "type": "address"
        },
        {
          "internalType": "address",
          "name": "to",
          "type": "address"
        },
        {
          "internalType": "uint256",
          "name": "id",
          "type": "uint256"
        },
        {
          "internalType": "uint256",
          "name": "amount",
          "type": "uint256"
        },
        {
          "internalType": "bytes",
          "name": "data",
          "type": "bytes"
        }
      ],
      "name": "safeTransferFrom",
      "outputs": [],
      "stateMutability": "nonpayable",
      "type": "function"
    },
    {
      "inputs": [
        {
          "internalType": "address",
          "name": "operator",
          "type": "address"
        },
        {
          "internalType": "bool",
          "name": "approved",
          "type": "bool"
        }
      ],
      "name": "setApprovalForAll",
      "outputs": [],
      "stateMutability": "nonpayable",
      "type": "function"
    },
    {
      "inputs": [
        {
          "internalType": "uint256",
          "name": "tokenId",
          "type": "uint256"
        },
        {
          "internalType": "string",
          "name": "metadata",
          "type": "string"
        }
      ],
      "name": "setItemMetadata",
      "outputs": [],
      "stateMutability": "nonpayable",
      "type": "function"
    },
    {
      "inputs": [
        {
          "internalType": "address",
          "name": "operator",
          "type": "address"
        }
      ],
      "name": "setOperator",
      "outputs": [],
      "stateMutability": "nonpayable",
      "type": "function"
    },
    {
      "inputs": [
        {
          "internalType": "bytes4",
          "name": "interfaceId",
          "type": "bytes4"
        }
      ],
      "name": "supportsInterface",
      "outputs": [
        {
          "internalType": "bool",
          "name": "",
          "type": "bool"
        }
      ],
      "stateMutability": "view",
      "type": "function"
    },
    {
      "inputs": [
        {
          "internalType": "address",
          "name": "newOwner",
          "type": "address"
        }
      ],
      "name": "transferOwnership",
      "outputs": [],
      "stateMutability": "nonpayable",
      "type": "function"
    },
    {
      "inputs": [
        {
          "internalType": "uint256",
          "name": "tokenId",
          "type": "uint256"
        }
      ],
      "name": "uri",
      "outputs": [
        {
          "internalType": "string",
          "name": "",
          "type": "string"
        }
      ],
      "stateMutability": "view",
      "type": "function"
    }
  ],
  "bytecode": "0x60806040523480156200001157600080fd5b506040518060200160405280600081525062000033816200010a60201b60201c565b5062000054620000486200012660201b60201c565b6200012e60201b60201c565b6001600460003373ffffffffffffffffffffffffffffffffffffffff1673ffffffffffffffffffffffffffffffffffffffff16815260200190815260200160002060006101000a81548160ff0219169083151502179055506001600460003373ffffffffffffffffffffffffffffffffffffffff1673ffffffffffffffffffffffffffffffffffffffff16815260200190815260200160002060006101000a81548160ff02191690831515021790555062000309565b806002908051906020019062000122929190620001f4565b5050565b600033905090565b6000600360009054906101000a900473ffffffffffffffffffffffffffffffffffffffff16905081600360006101000a81548173ffffffffffffffffffffffffffffffffffffffff021916908373ffffffffffffffffffffffffffffffffffffffff1602179055508173ffffffffffffffffffffffffffffffffffffffff168173ffffffffffffffffffffffffffffffffffffffff167f8be0079c531659141344cd1fd0a4f28419497f9722a3daafe3b4186f6b6457e060405160405180910390a35050565b8280546200020290620002a4565b90600052602060002090601f01602090048101928262000226576000855562000272565b82601f106200024157805160ff191683800117855562000272565b8280016001018555821562000272579182015b828111156200027157825182559160200191906001019062000254565b5b50905062000281919062000285565b5090565b5b80821115620002a057600081600090555060010162000286565b5090565b60006002820490506001821680620002bd57607f821691505b60208210811415620002d457620002d3620002da565b5b50919050565b7f4e487b7100000000000000000000000000000000000000000000000000000000600052602260045260246000fd5b61391a80620003196000396000f3fe608060405234801561001057600080fd5b50600436106101365760003560e01c8063754fc38c116100b8578063c4a6d0d21161007c578063c4a6d0d214610323578063d0e8316614610341578063e7cd4a041461035d578063e985e9c514610379578063f242432a146103a9578063f2fde38b146103c557610136565b8063754fc38c146102a75780638da5cb5b146102b1578063a22cb465146102cf578063ac8a584a146102eb578063b3ab15fb1461030757610136565b80632042e5c2116100ff5780632042e5c2146102055780632eb2c2d6146102215780634e1273f41461023d5780636d70f7ae1461026d578063715018a61461029d57610136565b8062fdd58e1461013b57806301ffc9a71461016b57806309a9d76c1461019b5780630e89341c146101b9578063156e29f6146101e9575b600080fd5b61015560048036038101906101509190612668565b6103e1565b6040516101629190612f59565b60405180910390f35b6101856004803603810190610180919061275f565b6104aa565b6040516101929190612d3c565b60405180910390f35b6101a361058c565b6040516101b09190612cc1565b60405180910390f35b6101d360048036038101906101ce91906127b1565b6105ea565b6040516101e09190612d57565b60405180910390f35b61020360048036038101906101fe91906126a4565b6106d6565b005b61021f600480360381019061021a9190612479565b610819565b005b61023b600480360381019061023691906124de565b610839565b005b610257600480360381019061025291906126f3565b61092d565b6040516102649190612ce3565b60405180910390f35b61028760048036038101906102829190612479565b610ade565b6040516102949190612d3c565b60405180910390f35b6102a5610b34565b005b6102af610b48565b005b6102b9610b6c565b6040516102c69190612be4565b60405180910390f35b6102e960048036038101906102e4919061262c565b610b96565b005b61030560048036038101906103009190612479565b610bac565b005b610321600480360381019061031c9190612479565b610c0f565b005b61032b610c72565b6040516103389190612f59565b60405180910390f35b61035b600480360381019061035691906127da565b610c7c565b005b61037760048036038101906103729190612479565b610cf7565b005b610393600480360381019061038e91906124a2565b610d17565b6040516103a09190612d3c565b60405180910390f35b6103c360048036038101906103be919061259d565b610dab565b005b6103df60048036038101906103da9190612479565b610e9f565b005b60008073ffffffffffffffffffffffffffffffffffffffff168373ffffffffffffffffffffffffffffffffffffffff161415610452576040517f08c379a000000000000000000000000000000000000000000000000000000000815260040161044990612e19565b60405180910390fd5b60008083815260200190815260200160002060008473ffffffffffffffffffffffffffffffffffffffff1673ffffffffffffffffffffffffffffffffffffffff16815260200190815260200160002054905092915050565b60007fd9b67a26000000000000000000000000000000000000000000000000000000007bffffffffffffffffffffffffffffffffffffffffffffffffffffffff1916827bffffffffffffffffffffffffffffffffffffffffffffffffffffffff1916148061057557507f0e89341c000000000000000000000000000000000000000000000000000000007bffffffffffffffffffffffffffffffffffffffffffffffffffffffff1916827bffffffffffffffffffffffffffffffffffffffffffffffffffffffff1916145b80610585575061058482610f23565b5b9050919050565b606060066000016000018054806020026020016040519081016040528092919081815260200182805480156105e057602002820191906000526020600020905b8154815260200190600101908083116105cc575b5050505050905090565b606081600554811115610632576040517f08c379a000000000000000000000000000000000000000000000000000000000815260040161062990612e39565b60405180910390fd5b60086000848152602001908152602001600020805461065090613270565b80601f016020809104026020016040519081016040528092919081815260200182805461067c90613270565b80156106c95780601f1061069e576101008083540402835291602001916106c9565b820191906000526020600020905b8154815290600101906020018083116106ac57829003601f168201915b5050505050915050919050565b600460003373ffffffffffffffffffffffffffffffffffffffff1673ffffffffffffffffffffffffffffffffffffffff16815260200190815260200160002060009054906101000a900460ff16610762576040517f08c379a000000000000000000000000000000000000000000000000000000000815260040161075990612e79565b60405180910390fd5b816005548111156107a8576040517f08c379a000000000000000000000000000000000000000000000000000000000815260040161079f90612e39565b60405180910390fd5b6107c384848460405180602001604052806000815250610f8d565b8373ffffffffffffffffffffffffffffffffffffffff167f37bee8cea9048addf064234b1072a7679078834bf50da99026e3dc72a315d233848460405161080b929190612f74565b60405180910390a250505050565b61082161113e565b6108358160066111bc90919063ffffffff16565b5050565b6108416111ec565b73ffffffffffffffffffffffffffffffffffffffff168573ffffffffffffffffffffffffffffffffffffffff1614806108875750610886856108816111ec565b610d17565b5b6108c6576040517f08c379a00000000000000000000000000000000000000000000000000000000081526004016108bd90612d99565b60405180910390fd5b6108da8460066111f490919063ffffffff16565b610919576040517f08c379a000000000000000000000000000000000000000000000000000000000815260040161091090612dd9565b60405180910390fd5b6109268585858585611224565b5050505050565b60608151835114610973576040517f08c379a000000000000000000000000000000000000000000000000000000000815260040161096a90612ef9565b60405180910390fd5b6000835167ffffffffffffffff8111156109b6577f4e487b7100000000000000000000000000000000000000000000000000000000600052604160045260246000fd5b6040519080825280602002602001820160405280156109e45781602001602082028036833780820191505090505b50905060005b8451811015610ad357610a7d858281518110610a2f577f4e487b7100000000000000000000000000000000000000000000000000000000600052603260045260246000fd5b6020026020010151858381518110610a70577f4e487b7100000000000000000000000000000000000000000000000000000000600052603260045260246000fd5b60200260200101516103e1565b828281518110610ab6577f4e487b7100000000000000000000000000000000000000000000000000000000600052603260045260246000fd5b60200260200101818152505080610acc906132d3565b90506109ea565b508091505092915050565b6000600460008373ffffffffffffffffffffffffffffffffffffffff1673ffffffffffffffffffffffffffffffffffffffff16815260200190815260200160002060009054906101000a900460ff169050919050565b610b3c61113e565b610b466000611592565b565b610b5061113e565b600160056000828254610b639190613126565b92505081905550565b6000600360009054906101000a900473ffffffffffffffffffffffffffffffffffffffff16905090565b610ba8610ba16111ec565b8383611658565b5050565b610bb461113e565b6000600460008373ffffffffffffffffffffffffffffffffffffffff1673ffffffffffffffffffffffffffffffffffffffff16815260200190815260200160002060006101000a81548160ff02191690831515021790555050565b610c1761113e565b6001600460008373ffffffffffffffffffffffffffffffffffffffff1673ffffffffffffffffffffffffffffffffffffffff16815260200190815260200160002060006101000a81548160ff02191690831515021790555050565b6000600554905090565b610c8461113e565b81600554811115610cca576040517f08c379a0000000000000000000000000000000000000000000000000000000008152600401610cc190612e39565b60405180910390fd5b81600860008581526020019081526020016000209080519060200190610cf1929190612171565b50505050565b610cff61113e565b610d138160066117c590919063ffffffff16565b5050565b6000600160008473ffffffffffffffffffffffffffffffffffffffff1673ffffffffffffffffffffffffffffffffffffffff16815260200190815260200160002060008373ffffffffffffffffffffffffffffffffffffffff1673ffffffffffffffffffffffffffffffffffffffff16815260200190815260200160002060009054906101000a900460ff16905092915050565b610db36111ec565b73ffffffffffffffffffffffffffffffffffffffff168573ffffffffffffffffffffffffffffffffffffffff161480610df95750610df885610df36111ec565b610d17565b5b610e38576040517f08c379a0000000000000000000000000000000000000000000000000000000008152600401610e2f90612d99565b60405180910390fd5b610e4c8460066111f490919063ffffffff16565b610e8b576040517f08c379a0000000000000000000000000000000000000000000000000000000008152600401610e8290612dd9565b60405180910390fd5b610e9885858585856117f5565b5050505050565b610ea761113e565b600073ffffffffffffffffffffffffffffffffffffffff168173ffffffffffffffffffffffffffffffffffffffff161415610f17576040517f08c379a0000000000000000000000000000000000000000000000000000000008152600401610f0e90612df9565b60405180910390fd5b610f2081611592565b50565b60007f01ffc9a7000000000000000000000000000000000000000000000000000000007bffffffffffffffffffffffffffffffffffffffffffffffffffffffff1916827bffffffffffffffffffffffffffffffffffffffffffffffffffffffff1916149050919050565b600073ffffffffffffffffffffffffffffffffffffffff168473ffffffffffffffffffffffffffffffffffffffff161415610ffd576040517f08c379a0000000000000000000000000000000000000000000000000000000008152600401610ff490612f39565b60405180910390fd5b60006110076111ec565b9050600061101485611a91565b9050600061102185611a91565b905061103283600089858589611b57565b8460008088815260200190815260200160002060008973ffffffffffffffffffffffffffffffffffffffff1673ffffffffffffffffffffffffffffffffffffffff16815260200190815260200160002060008282546110919190613126565b925050819055508673ffffffffffffffffffffffffffffffffffffffff16600073ffffffffffffffffffffffffffffffffffffffff168473ffffffffffffffffffffffffffffffffffffffff167fc3d58168c5ae7397731d063d5bbf3d657854427343f4c083240f7aacaa2d0f62898960405161110f929190612f74565b60405180910390a461112683600089858589611b5f565b61113583600089898989611b67565b50505050505050565b6111466111ec565b73ffffffffffffffffffffffffffffffffffffffff16611164610b6c565b73ffffffffffffffffffffffffffffffffffffffff16146111ba576040517f08c379a00000000000000000000000000000000000000000000000000000000081526004016111b190612eb9565b60405180910390fd5b565b60006111e4836000018373ffffffffffffffffffffffffffffffffffffffff1660001b611d4e565b905092915050565b600033905090565b600061121c836000018373ffffffffffffffffffffffffffffffffffffffff1660001b611ed4565b905092915050565b8151835114611268576040517f08c379a000000000000000000000000000000000000000000000000000000000815260040161125f90612f19565b60405180910390fd5b600073ffffffffffffffffffffffffffffffffffffffff168473ffffffffffffffffffffffffffffffffffffffff1614156112d8576040517f08c379a00000000000000000000000000000000000000000000000000000000081526004016112cf90612e59565b60405180910390fd5b60006112e26111ec565b90506112f2818787878787611b57565b60005b84518110156114ef576000858281518110611339577f4e487b7100000000000000000000000000000000000000000000000000000000600052603260045260246000fd5b60200260200101519050600085838151811061137e577f4e487b7100000000000000000000000000000000000000000000000000000000600052603260045260246000fd5b60200260200101519050600080600084815260200190815260200160002060008b73ffffffffffffffffffffffffffffffffffffffff1673ffffffffffffffffffffffffffffffffffffffff1681526020019081526020016000205490508181101561141f576040517f08c379a000000000000000000000000000000000000000000000000000000000815260040161141690612e99565b60405180910390fd5b81810360008085815260200190815260200160002060008c73ffffffffffffffffffffffffffffffffffffffff1673ffffffffffffffffffffffffffffffffffffffff168152602001908152602001600020819055508160008085815260200190815260200160002060008b73ffffffffffffffffffffffffffffffffffffffff1673ffffffffffffffffffffffffffffffffffffffff16815260200190815260200160002060008282546114d49190613126565b92505081905550505050806114e8906132d3565b90506112f5565b508473ffffffffffffffffffffffffffffffffffffffff168673ffffffffffffffffffffffffffffffffffffffff168273ffffffffffffffffffffffffffffffffffffffff167f4a39dc06d4c0dbc64b70af90fd698a233a518aa5d07e595d983b8c0526c8f7fb8787604051611566929190612d05565b60405180910390a461157c818787878787611b5f565b61158a818787878787611ef7565b505050505050565b6000600360009054906101000a900473ffffffffffffffffffffffffffffffffffffffff16905081600360006101000a81548173ffffffffffffffffffffffffffffffffffffffff021916908373ffffffffffffffffffffffffffffffffffffffff1602179055508173ffffffffffffffffffffffffffffffffffffffff168173ffffffffffffffffffffffffffffffffffffffff167f8be0079c531659141344cd1fd0a4f28419497f9722a3daafe3b4186f6b6457e060405160405180910390a35050565b8173ffffffffffffffffffffffffffffffffffffffff168373ffffffffffffffffffffffffffffffffffffffff1614156116c7576040517f08c379a00000000000000000000000000000000000000000000000000000000081526004016116be90612ed9565b60405180910390fd5b80600160008573ffffffffffffffffffffffffffffffffffffffff1673ffffffffffffffffffffffffffffffffffffffff16815260200190815260200160002060008473ffffffffffffffffffffffffffffffffffffffff1673ffffffffffffffffffffffffffffffffffffffff16815260200190815260200160002060006101000a81548160ff0219169083151502179055508173ffffffffffffffffffffffffffffffffffffffff168373ffffffffffffffffffffffffffffffffffffffff167f17307eab39ab6107e8899845ad3d59bd9653f200f220920489ca2b5937696c31836040516117b89190612d3c565b60405180910390a3505050565b60006117ed836000018373ffffffffffffffffffffffffffffffffffffffff1660001b6120de565b905092915050565b600073ffffffffffffffffffffffffffffffffffffffff168473ffffffffffffffffffffffffffffffffffffffff161415611865576040517f08c379a000000000000000000000000000000000000000000000000000000000815260040161185c90612e59565b60405180910390fd5b600061186f6111ec565b9050600061187c85611a91565b9050600061188985611a91565b9050611899838989858589611b57565b600080600088815260200190815260200160002060008a73ffffffffffffffffffffffffffffffffffffffff1673ffffffffffffffffffffffffffffffffffffffff16815260200190815260200160002054905085811015611930576040517f08c379a000000000000000000000000000000000000000000000000000000000815260040161192790612e99565b60405180910390fd5b85810360008089815260200190815260200160002060008b73ffffffffffffffffffffffffffffffffffffffff1673ffffffffffffffffffffffffffffffffffffffff168152602001908152602001600020819055508560008089815260200190815260200160002060008a73ffffffffffffffffffffffffffffffffffffffff1673ffffffffffffffffffffffffffffffffffffffff16815260200190815260200160002060008282546119e59190613126565b925050819055508773ffffffffffffffffffffffffffffffffffffffff168973ffffffffffffffffffffffffffffffffffffffff168573ffffffffffffffffffffffffffffffffffffffff167fc3d58168c5ae7397731d063d5bbf3d657854427343f4c083240f7aacaa2d0f628a8a604051611a62929190612f74565b60405180910390a4611a78848a8a86868a611b5f565b611a86848a8a8a8a8a611b67565b505050505050505050565b60606000600167ffffffffffffffff811115611ad6577f4e487b7100000000000000000000000000000000000000000000000000000000600052604160045260246000fd5b604051908082528060200260200182016040528015611b045781602001602082028036833780820191505090505b5090508281600081518110611b42577f4e487b7100000000000000000000000000000000000000000000000000000000600052603260045260246000fd5b60200260200101818152505080915050919050565b505050505050565b505050505050565b611b868473ffffffffffffffffffffffffffffffffffffffff1661214e565b15611d46578373ffffffffffffffffffffffffffffffffffffffff1663f23a6e6187878686866040518663ffffffff1660e01b8152600401611bcc959493929190612c67565b602060405180830381600087803b158015611be657600080fd5b505af1925050508015611c1757506040513d601f19601f82011682018060405250810190611c149190612788565b60015b611cbd57611c236133a9565b806308c379a01415611c805750611c386137f2565b80611c435750611c82565b806040517f08c379a0000000000000000000000000000000000000000000000000000000008152600401611c779190612d57565b60405180910390fd5b505b6040517f08c379a0000000000000000000000000000000000000000000000000000000008152600401611cb490612d79565b60405180910390fd5b63f23a6e6160e01b7bffffffffffffffffffffffffffffffffffffffffffffffffffffffff1916817bffffffffffffffffffffffffffffffffffffffffffffffffffffffff191614611d44576040517f08c379a0000000000000000000000000000000000000000000000000000000008152600401611d3b90612db9565b60405180910390fd5b505b505050505050565b60008083600101600084815260200190815260200160002054905060008114611ec8576000600182611d80919061317c565b9050600060018660000180549050611d98919061317c565b9050818114611e53576000866000018281548110611ddf577f4e487b7100000000000000000000000000000000000000000000000000000000600052603260045260246000fd5b9060005260206000200154905080876000018481548110611e29577f4e487b7100000000000000000000000000000000000000000000000000000000600052603260045260246000fd5b90600052602060002001819055508387600101600083815260200190815260200160002081905550505b85600001805480611e8d577f4e487b7100000000000000000000000000000000000000000000000000000000600052603160045260246000fd5b600190038181906000526020600020016000905590558560010160008681526020019081526020016000206000905560019350505050611ece565b60009150505b92915050565b600080836001016000848152602001908152602001600020541415905092915050565b611f168473ffffffffffffffffffffffffffffffffffffffff1661214e565b156120d6578373ffffffffffffffffffffffffffffffffffffffff1663bc197c8187878686866040518663ffffffff1660e01b8152600401611f5c959493929190612bff565b602060405180830381600087803b158015611f7657600080fd5b505af1925050508015611fa757506040513d601f19601f82011682018060405250810190611fa49190612788565b60015b61204d57611fb36133a9565b806308c379a014156120105750611fc86137f2565b80611fd35750612012565b806040517f08c379a00000000000000000000000000000000000000000000000000000000081526004016120079190612d57565b60405180910390fd5b505b6040517f08c379a000000000000000000000000000000000000000000000000000000000815260040161204490612d79565b60405180910390fd5b63bc197c8160e01b7bffffffffffffffffffffffffffffffffffffffffffffffffffffffff1916817bffffffffffffffffffffffffffffffffffffffffffffffffffffffff1916146120d4576040517f08c379a00000000000000000000000000000000000000000000000000000000081526004016120cb90612db9565b60405180910390fd5b505b505050505050565b60006120ea8383611ed4565b612143578260000182908060018154018082558091505060019003906000526020600020016000909190919091505582600001805490508360010160008481526020019081526020016000208190555060019050612148565b600090505b92915050565b6000808273ffffffffffffffffffffffffffffffffffffffff163b119050919050565b82805461217d90613270565b90600052602060002090601f01602090048101928261219f57600085556121e6565b82601f106121b857805160ff19168380011785556121e6565b828001600101855582156121e6579182015b828111156121e55782518255916020019190600101906121ca565b5b5090506121f391906121f7565b5090565b5b808211156122105760008160009055506001016121f8565b5090565b600061222761222284612fc2565b612f9d565b9050808382526020820190508285602086028201111561224657600080fd5b60005b85811015612276578161225c8882612368565b845260208401935060208301925050600181019050612249565b5050509392505050565b600061229361228e84612fee565b612f9d565b905080838252602082019050828560208602820111156122b257600080fd5b60005b858110156122e257816122c88882612464565b8452602084019350602083019250506001810190506122b5565b5050509392505050565b60006122ff6122fa8461301a565b612f9d565b90508281526020810184848401111561231757600080fd5b61232284828561322e565b509392505050565b600061233d6123388461304b565b612f9d565b90508281526020810184848401111561235557600080fd5b61236084828561322e565b509392505050565b60008135905061237781613888565b92915050565b600082601f83011261238e57600080fd5b813561239e848260208601612214565b91505092915050565b600082601f8301126123b857600080fd5b81356123c8848260208601612280565b91505092915050565b6000813590506123e08161389f565b92915050565b6000813590506123f5816138b6565b92915050565b60008151905061240a816138b6565b92915050565b600082601f83011261242157600080fd5b81356124318482602086016122ec565b91505092915050565b600082601f83011261244b57600080fd5b813561245b84826020860161232a565b91505092915050565b600081359050612473816138cd565b92915050565b60006020828403121561248b57600080fd5b600061249984828501612368565b91505092915050565b600080604083850312156124b557600080fd5b60006124c385828601612368565b92505060206124d485828601612368565b9150509250929050565b600080600080600060a086880312156124f657600080fd5b600061250488828901612368565b955050602061251588828901612368565b945050604086013567ffffffffffffffff81111561253257600080fd5b61253e888289016123a7565b935050606086013567ffffffffffffffff81111561255b57600080fd5b612567888289016123a7565b925050608086013567ffffffffffffffff81111561258457600080fd5b61259088828901612410565b9150509295509295909350565b600080600080600060a086880312156125b557600080fd5b60006125c388828901612368565b95505060206125d488828901612368565b94505060406125e588828901612464565b93505060606125f688828901612464565b925050608086013567ffffffffffffffff81111561261357600080fd5b61261f88828901612410565b9150509295509295909350565b6000806040838503121561263f57600080fd5b600061264d85828601612368565b925050602061265e858286016123d1565b9150509250929050565b6000806040838503121561267b57600080fd5b600061268985828601612368565b925050602061269a85828601612464565b9150509250929050565b6000806000606084860312156126b957600080fd5b60006126c786828701612368565b93505060206126d886828701612464565b92505060406126e986828701612464565b9150509250925092565b6000806040838503121561270657600080fd5b600083013567ffffffffffffffff81111561272057600080fd5b61272c8582860161237d565b925050602083013567ffffffffffffffff81111561274957600080fd5b612755858286016123a7565b9150509250929050565b60006020828403121561277157600080fd5b600061277f848285016123e6565b91505092915050565b60006020828403121561279a57600080fd5b60006127a8848285016123fb565b91505092915050565b6000602082840312156127c357600080fd5b60006127d184828501612464565b91505092915050565b600080604083850312156127ed57600080fd5b60006127fb85828601612464565b925050602083013567ffffffffffffffff81111561281857600080fd5b6128248582860161243a565b9150509250929050565b600061283a8383612938565b60208301905092915050565b60006128528383612bc6565b60208301905092915050565b612867816131b0565b82525050565b60006128788261309c565b61288281856130e2565b935061288d8361307c565b8060005b838110156128be5781516128a5888261282e565b97506128b0836130c8565b925050600181019050612891565b5085935050505092915050565b60006128d6826130a7565b6128e081856130f3565b93506128eb8361308c565b8060005b8381101561291c5781516129038882612846565b975061290e836130d5565b9250506001810190506128ef565b5085935050505092915050565b612932816131c2565b82525050565b612941816131ce565b82525050565b6000612952826130b2565b61295c8185613104565b935061296c81856020860161323d565b612975816133cb565b840191505092915050565b600061298b826130bd565b6129958185613115565b93506129a581856020860161323d565b6129ae816133cb565b840191505092915050565b60006129c6603483613115565b91506129d1826133e9565b604082019050919050565b60006129e9602f83613115565b91506129f482613438565b604082019050919050565b6000612a0c602883613115565b9150612a1782613487565b604082019050919050565b6000612a2f601f83613115565b9150612a3a826134d6565b602082019050919050565b6000612a52602683613115565b9150612a5d826134ff565b604082019050919050565b6000612a75602a83613115565b9150612a808261354e565b604082019050919050565b6000612a98600f83613115565b9150612aa38261359d565b602082019050919050565b6000612abb602583613115565b9150612ac6826135c6565b604082019050919050565b6000612ade601b83613115565b9150612ae982613615565b602082019050919050565b6000612b01602a83613115565b9150612b0c8261363e565b604082019050919050565b6000612b24602083613115565b9150612b2f8261368d565b602082019050919050565b6000612b47602983613115565b9150612b52826136b6565b604082019050919050565b6000612b6a602983613115565b9150612b7582613705565b604082019050919050565b6000612b8d602883613115565b9150612b9882613754565b604082019050919050565b6000612bb0602183613115565b9150612bbb826137a3565b604082019050919050565b612bcf81613224565b82525050565b612bde81613224565b82525050565b6000602082019050612bf9600083018461285e565b92915050565b600060a082019050612c14600083018861285e565b612c21602083018761285e565b8181036040830152612c3381866128cb565b90508181036060830152612c4781856128cb565b90508181036080830152612c5b8184612947565b90509695505050505050565b600060a082019050612c7c600083018861285e565b612c89602083018761285e565b612c966040830186612bd5565b612ca36060830185612bd5565b8181036080830152612cb58184612947565b90509695505050505050565b60006020820190508181036000830152612cdb818461286d565b905092915050565b60006020820190508181036000830152612cfd81846128cb565b905092915050565b60006040820190508181036000830152612d1f81856128cb565b90508181036020830152612d3381846128cb565b90509392505050565b6000602082019050612d516000830184612929565b92915050565b60006020820190508181036000830152612d718184612980565b905092915050565b60006020820190508181036000830152612d92816129b9565b9050919050565b60006020820190508181036000830152612db2816129dc565b9050919050565b60006020820190508181036000830152612dd2816129ff565b9050919050565b60006020820190508181036000830152612df281612a22565b9050919050565b60006020820190508181036000830152612e1281612a45565b9050919050565b60006020820190508181036000830152612e3281612a68565b9050919050565b60006020820190508181036000830152612e5281612a8b565b9050919050565b60006020820190508181036000830152612e7281612aae565b9050919050565b60006020820190508181036000830152612e9281612ad1565b9050919050565b60006020820190508181036000830152612eb281612af4565b9050919050565b60006020820190508181036000830152612ed281612b17565b9050919050565b60006020820190508181036000830152612ef281612b3a565b9050919050565b60006020820190508181036000830152612f1281612b5d565b9050919050565b60006020820190508181036000830152612f3281612b80565b9050919050565b60006020820190508181036000830152612f5281612ba3565b9050919050565b6000602082019050612f6e6000830184612bd5565b92915050565b6000604082019050612f896000830185612bd5565b612f966020830184612bd5565b9392505050565b6000612fa7612fb8565b9050612fb382826132a2565b919050565b6000604051905090565b600067ffffffffffffffff821115612fdd57612fdc61337a565b5b602082029050602081019050919050565b600067ffffffffffffffff8211156130095761300861337a565b5b602082029050602081019050919050565b600067ffffffffffffffff8211156130355761303461337a565b5b61303e826133cb565b9050602081019050919050565b600067ffffffffffffffff8211156130665761306561337a565b5b61306f826133cb565b9050602081019050919050565b6000819050602082019050919050565b6000819050602082019050919050565b600081519050919050565b600081519050919050565b600081519050919050565b600081519050919050565b6000602082019050919050565b6000602082019050919050565b600082825260208201905092915050565b600082825260208201905092915050565b600082825260208201905092915050565b600082825260208201905092915050565b600061313182613224565b915061313c83613224565b9250827fffffffffffffffffffffffffffffffffffffffffffffffffffffffffffffffff038211156131715761317061331c565b5b828201905092915050565b600061318782613224565b915061319283613224565b9250828210156131a5576131a461331c565b5b828203905092915050565b60006131bb82613204565b9050919050565b60008115159050919050565b6000819050919050565b60007fffffffff0000000000000000000000000000000000000000000000000000000082169050919050565b600073ffffffffffffffffffffffffffffffffffffffff82169050919050565b6000819050919050565b82818337600083830152505050565b60005b8381101561325b578082015181840152602081019050613240565b8381111561326a576000848401525b50505050565b6000600282049050600182168061328857607f821691505b6020821081141561329c5761329b61334b565b5b50919050565b6132ab826133cb565b810181811067ffffffffffffffff821117156132ca576132c961337a565b5b80604052505050565b60006132de82613224565b91507fffffffffffffffffffffffffffffffffffffffffffffffffffffffffffffffff8214156133115761331061331c565b5b600182019050919050565b7f4e487b7100000000000000000000000000000000000000000000000000000000600052601160045260246000fd5b7f4e487b7100000000000000000000000000000000000000000000000000000000600052602260045260246000fd5b7f4e487b7100000000000000000000000000000000000000000000000000000000600052604160045260246000fd5b600060033d11156133c85760046000803e6133c56000516133dc565b90505b90565b6000601f19601f8301169050919050565b60008160e01c9050919050565b7f455243313135353a207472616e7366657220746f206e6f6e204552433131353560008201527f526563656976657220696d706c656d656e746572000000000000000000000000602082015250565b7f455243313135353a2063616c6c6572206973206e6f7420746f6b656e206f776e60008201527f6572206e6f7220617070726f7665640000000000000000000000000000000000602082015250565b7f455243313135353a204552433131353552656365697665722072656a6563746560008201527f6420746f6b656e73000000000000000000000000000000000000000000000000602082015250565b7f43616e6e6f74207472616e7366657220746f2074686973206164647265737300600082015250565b7f4f776e61626c653a206e6577206f776e657220697320746865207a65726f206160008201527f6464726573730000000000000000000000000000000000000000000000000000602082015250565b7f455243313135353a2061646472657373207a65726f206973206e6f742061207660008201527f616c6964206f776e657200000000000000000000000000000000000000000000602082015250565b7f496e76616c696420746f6b656e49640000000000000000000000000000000000600082015250565b7f455243313135353a207472616e7366657220746f20746865207a65726f20616460008201527f6472657373000000000000000000000000000000000000000000000000000000602082015250565b7f63616c6c6572206973206e6f7420746865206f70657261746f72730000000000600082015250565b7f455243313135353a20696e73756666696369656e742062616c616e636520666f60008201527f72207472616e7366657200000000000000000000000000000000000000000000602082015250565b7f4f776e61626c653a2063616c6c6572206973206e6f7420746865206f776e6572600082015250565b7f455243313135353a2073657474696e6720617070726f76616c2073746174757360008201527f20666f722073656c660000000000000000000000000000000000000000000000602082015250565b7f455243313135353a206163636f756e747320616e6420696473206c656e67746860008201527f206d69736d617463680000000000000000000000000000000000000000000000602082015250565b7f455243313135353a2069647320616e6420616d6f756e7473206c656e6774682060008201527f6d69736d61746368000000000000000000000000000000000000000000000000602082015250565b7f455243313135353a206d696e7420746f20746865207a65726f2061646472657360008201527f7300000000000000000000000000000000000000000000000000000000000000602082015250565b600060443d101561380257613885565b61380a612fb8565b60043d036004823e80513d602482011167ffffffffffffffff82111715613832575050613885565b808201805167ffffffffffffffff8111156138505750505050613885565b80602083010160043d03850181111561386d575050505050613885565b61387c826020018501866132a2565b82955050505050505b90565b613891816131b0565b811461389c57600080fd5b50565b6138a8816131c2565b81146138b357600080fd5b50565b6138bf816131d8565b81146138ca57600080fd5b50565b6138d681613224565b81146138e157600080fd5b5056fea264697066735822122076b52ef182a97604d761e77c437fa83d16f5c81c837de81dd2465e0f0fc50a5f64736f6c63430008040033",
  "linkReferences": {},
  "deployedLinkReferences": {}
}