{
  "_format": "hh-sol-artifact-1",
  "contractName": "BeFitterStaking",
  "sourceName": "contracts/BFStaking.sol",
  "abi": [
    {
      "inputs": [
        {
          "internalType": "address",
          "name": "tokenAddress",
          "type": "address"
        },
        {
          "internalType": "address",
          "name": "rewardItemContract",
          "type": "address"
        }
      ],
      "stateMutability": "nonpayable",
      "type": "constructor"
    },
    {
      "anonymous": false,
      "inputs": [
        {
          "indexed": true,
          "internalType": "address",
          "name": "user",
          "type": "address"
        },
        {
          "indexed": false,
          "internalType": "uint256",
          "name": "tokenId",
          "type": "uint256"
        },
        {
          "indexed": false,
          "internalType": "uint256",
          "name": "amount",
          "type": "uint256"
        }
      ],
      "name": "Claim",
      "type": "event"
    },
    {
      "anonymous": false,
      "inputs": [
        {
          "indexed": true,
          "internalType": "address",
          "name": "previousOwner",
          "type": "address"
        },
        {
          "indexed": true,
          "internalType": "address",
          "name": "newOwner",
          "type": "address"
        }
      ],
      "name": "OwnershipTransferred",
      "type": "event"
    },
    {
      "anonymous": false,
      "inputs": [
        {
          "indexed": true,
          "internalType": "address",
          "name": "user",
          "type": "address"
        },
        {
          "indexed": false,
          "internalType": "uint256",
          "name": "amount",
          "type": "uint256"
        }
      ],
      "name": "Stake",
      "type": "event"
    },
    {
      "anonymous": false,
      "inputs": [
        {
          "indexed": false,
          "internalType": "uint256",
          "name": "startTime",
          "type": "uint256"
        },
        {
          "indexed": false,
          "internalType": "uint256",
          "name": "duration",
          "type": "uint256"
        },
        {
          "indexed": false,
          "internalType": "uint256",
          "name": "rate",
          "type": "uint256"
        }
      ],
      "name": "StartStakingWithPromotion",
      "type": "event"
    },
    {
      "anonymous": false,
      "inputs": [
        {
          "indexed": true,
          "internalType": "address",
          "name": "user",
          "type": "address"
        },
        {
          "indexed": false,
          "internalType": "uint256",
          "name": "amount",
          "type": "uint256"
        }
      ],
      "name": "UnStake",
      "type": "event"
    },
    {
      "anonymous": false,
      "inputs": [
        {
          "indexed": true,
          "internalType": "address",
          "name": "user",
          "type": "address"
        },
        {
          "indexed": false,
          "internalType": "uint256",
          "name": "amount",
          "type": "uint256"
        },
        {
          "indexed": false,
          "internalType": "bool",
          "name": "penalty",
          "type": "bool"
        }
      ],
      "name": "WithdrawStake",
      "type": "event"
    },
    {
      "inputs": [],
      "name": "claimReward",
      "outputs": [],
      "stateMutability": "nonpayable",
      "type": "function"
    },
    {
      "inputs": [],
      "name": "closeStaking",
      "outputs": [],
      "stateMutability": "nonpayable",
      "type": "function"
    },
    {
      "inputs": [],
      "name": "getAmountToEarnPassPerCycle",
      "outputs": [
        {
          "internalType": "uint256",
          "name": "",
          "type": "uint256"
        }
      ],
      "stateMutability": "view",
      "type": "function"
    },
    {
      "inputs": [
        {
          "internalType": "address",
          "name": "user",
          "type": "address"
        }
      ],
      "name": "getClaimableTime",
      "outputs": [
        {
          "internalType": "uint256",
          "name": "",
          "type": "uint256"
        }
      ],
      "stateMutability": "view",
      "type": "function"
    },
    {
      "inputs": [
        {
          "internalType": "address",
          "name": "user",
          "type": "address"
        }
      ],
      "name": "getCurrentProfit",
      "outputs": [
        {
          "internalType": "uint256",
          "name": "",
          "type": "uint256"
        }
      ],
      "stateMutability": "view",
      "type": "function"
    },
    {
      "inputs": [
        {
          "internalType": "address",
          "name": "user",
          "type": "address"
        }
      ],
      "name": "getLastClaimTime",
      "outputs": [
        {
          "internalType": "uint256",
          "name": "",
          "type": "uint256"
        }
      ],
      "stateMutability": "view",
      "type": "function"
    },
    {
      "inputs": [],
      "name": "getMinimumAmount",
      "outputs": [
        {
          "internalType": "uint256",
          "name": "",
          "type": "uint256"
        }
      ],
      "stateMutability": "view",
      "type": "function"
    },
    {
      "inputs": [],
      "name": "getPenaltyRate",
      "outputs": [
        {
          "internalType": "uint256",
          "name": "",
          "type": "uint256"
        }
      ],
      "stateMutability": "view",
      "type": "function"
    },
    {
      "inputs": [
        {
          "internalType": "address",
          "name": "user",
          "type": "address"
        }
      ],
      "name": "getRemainingDelayTime",
      "outputs": [
        {
          "internalType": "uint256",
          "name": "",
          "type": "uint256"
        }
      ],
      "stateMutability": "view",
      "type": "function"
    },
    {
      "inputs": [
        {
          "internalType": "address",
          "name": "user",
          "type": "address"
        }
      ],
      "name": "getStakingAmount",
      "outputs": [
        {
          "internalType": "uint256",
          "name": "",
          "type": "uint256"
        }
      ],
      "stateMutability": "view",
      "type": "function"
    },
    {
      "inputs": [
        {
          "internalType": "address",
          "name": "wallet",
          "type": "address"
        }
      ],
      "name": "getStakingStatus",
      "outputs": [
        {
          "internalType": "uint256",
          "name": "",
          "type": "uint256"
        }
      ],
      "stateMutability": "view",
      "type": "function"
    },
    {
      "inputs": [],
      "name": "getTokenAddress",
      "outputs": [
        {
          "internalType": "address",
          "name": "",
          "type": "address"
        }
      ],
      "stateMutability": "view",
      "type": "function"
    },
    {
      "inputs": [],
      "name": "getTotalStakingToken",
      "outputs": [
        {
          "internalType": "uint256",
          "name": "",
          "type": "uint256"
        }
      ],
      "stateMutability": "view",
      "type": "function"
    },
    {
      "inputs": [
        {
          "internalType": "address",
          "name": "user",
          "type": "address"
        }
      ],
      "name": "getUnstakeAmount",
      "outputs": [
        {
          "internalType": "uint256",
          "name": "",
          "type": "uint256"
        }
      ],
      "stateMutability": "view",
      "type": "function"
    },
    {
      "inputs": [
        {
          "internalType": "address",
          "name": "",
          "type": "address"
        },
        {
          "internalType": "address",
          "name": "",
          "type": "address"
        },
        {
          "internalType": "uint256[]",
          "name": "",
          "type": "uint256[]"
        },
        {
          "internalType": "uint256[]",
          "name": "",
          "type": "uint256[]"
        },
        {
          "internalType": "bytes",
          "name": "",
          "type": "bytes"
        }
      ],
      "name": "onERC1155BatchReceived",
      "outputs": [
        {
          "internalType": "bytes4",
          "name": "",
          "type": "bytes4"
        }
      ],
      "stateMutability": "nonpayable",
      "type": "function"
    },
    {
      "inputs": [
        {
          "internalType": "address",
          "name": "",
          "type": "address"
        },
        {
          "internalType": "address",
          "name": "",
          "type": "address"
        },
        {
          "internalType": "uint256",
          "name": "",
          "type": "uint256"
        },
        {
          "internalType": "uint256",
          "name": "",
          "type": "uint256"
        },
        {
          "internalType": "bytes",
          "name": "",
          "type": "bytes"
        }
      ],
      "name": "onERC1155Received",
      "outputs": [
        {
          "internalType": "bytes4",
          "name": "",
          "type": "bytes4"
        }
      ],
      "stateMutability": "nonpayable",
      "type": "function"
    },
    {
      "inputs": [],
      "name": "openStaking",
      "outputs": [],
      "stateMutability": "nonpayable",
      "type": "function"
    },
    {
      "inputs": [],
      "name": "owner",
      "outputs": [
        {
          "internalType": "address",
          "name": "",
          "type": "address"
        }
      ],
      "stateMutability": "view",
      "type": "function"
    },
    {
      "inputs": [],
      "name": "renounceOwnership",
      "outputs": [],
      "stateMutability": "nonpayable",
      "type": "function"
    },
    {
      "inputs": [
        {
          "internalType": "uint256",
          "name": "amount",
          "type": "uint256"
        }
      ],
      "name": "setAmountToEarnPassPerCycle",
      "outputs": [],
      "stateMutability": "nonpayable",
      "type": "function"
    },
    {
      "inputs": [
        {
          "internalType": "uint256",
          "name": "amount",
          "type": "uint256"
        }
      ],
      "name": "setMinimumAmount",
      "outputs": [],
      "stateMutability": "nonpayable",
      "type": "function"
    },
    {
      "inputs": [
        {
          "internalType": "uint256",
          "name": "rate",
          "type": "uint256"
        }
      ],
      "name": "setPenaltyRate",
      "outputs": [],
      "stateMutability": "nonpayable",
      "type": "function"
    },
    {
      "inputs": [
        {
          "internalType": "uint256",
          "name": "pTime",
          "type": "uint256"
        },
        {
          "internalType": "uint256",
          "name": "rate",
          "type": "uint256"
        }
      ],
      "name": "setPromotionTime",
      "outputs": [],
      "stateMutability": "nonpayable",
      "type": "function"
    },
    {
      "inputs": [
        {
          "internalType": "address",
          "name": "itemAddress",
          "type": "address"
        }
      ],
      "name": "setRewardContract",
      "outputs": [],
      "stateMutability": "nonpayable",
      "type": "function"
    },
    {
      "inputs": [
        {
          "internalType": "uint256",
          "name": "tokenId",
          "type": "uint256"
        }
      ],
      "name": "setRewardTokenId",
      "outputs": [],
      "stateMutability": "nonpayable",
      "type": "function"
    },
    {
      "inputs": [
        {
          "internalType": "uint256",
          "name": "cTime",
          "type": "uint256"
        }
      ],
      "name": "setStakingBlockTime",
      "outputs": [],
      "stateMutability": "nonpayable",
      "type": "function"
    },
    {
      "inputs": [
        {
          "internalType": "address",
          "name": "tokenAddress",
          "type": "address"
        }
      ],
      "name": "setTokenAddress",
      "outputs": [],
      "stateMutability": "nonpayable",
      "type": "function"
    },
    {
      "inputs": [
        {
          "internalType": "uint256",
          "name": "delayTime",
          "type": "uint256"
        }
      ],
      "name": "setWithdrawalDelayTime",
      "outputs": [],
      "stateMutability": "nonpayable",
      "type": "function"
    },
    {
      "inputs": [
        {
          "internalType": "uint256",
          "name": "amount",
          "type": "uint256"
        }
      ],
      "name": "stake",
      "outputs": [],
      "stateMutability": "nonpayable",
      "type": "function"
    },
    {
      "inputs": [
        {
          "internalType": "address",
          "name": "wallet",
          "type": "address"
        }
      ],
      "name": "stakedBefore",
      "outputs": [
        {
          "internalType": "bool",
          "name": "",
          "type": "bool"
        }
      ],
      "stateMutability": "view",
      "type": "function"
    },
    {
      "inputs": [
        {
          "internalType": "uint256",
          "name": "duration",
          "type": "uint256"
        },
        {
          "internalType": "uint256",
          "name": "rate",
          "type": "uint256"
        }
      ],
      "name": "startStakingWithPromotion",
      "outputs": [],
      "stateMutability": "nonpayable",
      "type": "function"
    },
    {
      "inputs": [
        {
          "internalType": "bytes4",
          "name": "interfaceId",
          "type": "bytes4"
        }
      ],
      "name": "supportsInterface",
      "outputs": [
        {
          "internalType": "bool",
          "name": "",
          "type": "bool"
        }
      ],
      "stateMutability": "view",
      "type": "function"
    },
    {
      "inputs": [
        {
          "internalType": "address",
          "name": "newOwner",
          "type": "address"
        }
      ],
      "name": "transferOwnership",
      "outputs": [],
      "stateMutability": "nonpayable",
      "type": "function"
    },
    {
      "inputs": [
        {
          "internalType": "uint256",
          "name": "unstakeAmount",
          "type": "uint256"
        }
      ],
      "name": "unstake",
      "outputs": [],
      "stateMutability": "nonpayable",
      "type": "function"
    },
    {
      "inputs": [],
      "name": "withdrawStakingToken",
      "outputs": [],
      "stateMutability": "nonpayable",
      "type": "function"
    },
    {
      "inputs": [
        {
          "internalType": "address",
          "name": "to",
          "type": "address"
        },
        {
          "internalType": "uint256",
          "name": "amount",
          "type": "uint256"
        }
      ],
      "name": "withdrawToken",
      "outputs": [],
      "stateMutability": "nonpayable",
      "type": "function"
    }
  ],
  "bytecode": "0x60806040523480156200001157600080fd5b5060405162002f3c38038062002f3c83398181016040528101906200003791906200021b565b620000576200004b620000f160201b60201c565b620000f960201b60201c565b81600160006101000a81548173ffffffffffffffffffffffffffffffffffffffff021916908373ffffffffffffffffffffffffffffffffffffffff16021790555080600260006101000a81548173ffffffffffffffffffffffffffffffffffffffff021916908373ffffffffffffffffffffffffffffffffffffffff160217905550620000e9620001bd60201b60201c565b5050620002aa565b600033905090565b60008060009054906101000a900473ffffffffffffffffffffffffffffffffffffffff169050816000806101000a81548173ffffffffffffffffffffffffffffffffffffffff021916908373ffffffffffffffffffffffffffffffffffffffff1602179055508173ffffffffffffffffffffffffffffffffffffffff168173ffffffffffffffffffffffffffffffffffffffff167f8be0079c531659141344cd1fd0a4f28419497f9722a3daafe3b4186f6b6457e060405160405180910390a35050565b683635c9adc5dea00000600381905550690878678326eac90000006004819055506201518060068190555062093a8060078190555060006009819055506010600881905550565b600081519050620002158162000290565b92915050565b600080604083850312156200022f57600080fd5b60006200023f8582860162000204565b9250506020620002528582860162000204565b9150509250929050565b6000620002698262000270565b9050919050565b600073ffffffffffffffffffffffffffffffffffffffff82169050919050565b6200029b816200025c565b8114620002a757600080fd5b50565b612c8280620002ba6000396000f3fe608060405234801561001057600080fd5b506004361061021b5760003560e01c80638da5cb5b11610125578063bc197c81116100ad578063eeb4a9c81161007c578063eeb4a9c8146105fc578063efcd66e714610618578063f14cb88114610634578063f23a6e6114610652578063f2fde38b146106825761021b565b8063bc197c811461054e578063d615b6a01461057e578063dcf4e2671461059c578063de52a3c5146105cc5761021b565b8063a680e0bc116100f4578063a680e0bc146104be578063a694fc3a146104ee578063b4685c9b1461050a578063b88a802f1461053a578063b8d69ecf146105445761021b565b80638da5cb5b1461045e57806398cfe5871461047c5780639e281a9814610486578063a1bab447146104a25761021b565b80634c576a64116101a857806362066eb31161017757806362066eb3146103e057806362581733146103fe5780636aa9f68614610408578063715018a61461042457806374363daa1461042e5761021b565b80634c576a641461034657806351508f0a146103765780635722ef97146103925780635d49c133146103b05761021b565b8063211f0898116101ef578063211f0898146102a657806326a4e8d2146102c25780632e17de78146102de5780633412a764146102fa578063494eb5b81461032a5761021b565b806255a6e61461022057806301ffc9a71461023c57806310fe9ae81461026c578063160244ed1461028a575b600080fd5b61023a60048036038101906102359190612222565b61069e565b005b610256600480360381019061025191906121d0565b61071c565b60405161026391906124aa565b60405180910390f35b610274610796565b60405161028191906123f8565b60405180910390f35b6102a4600480360381019061029f91906121f9565b6107c0565b005b6102c060048036038101906102bb9190612222565b6107d2565b005b6102dc60048036038101906102d79190611ff4565b61084b565b005b6102f860048036038101906102f391906121f9565b610897565b005b610314600480360381019061030f9190611ff4565b610b3a565b6040516103219190612620565b60405180910390f35b610344600480360381019061033f91906121f9565b610b86565b005b610360600480360381019061035b9190611ff4565b610b98565b60405161036d9190612620565b60405180910390f35b610390600480360381019061038b9190611ff4565b610c42565b005b61039a610c8e565b6040516103a79190612620565b60405180910390f35b6103ca60048036038101906103c59190611ff4565b610c98565b6040516103d79190612620565b60405180910390f35b6103e8610d59565b6040516103f59190612620565b60405180910390f35b610406610d63565b005b610422600480360381019061041d91906121f9565b610d74565b005b61042c610d86565b005b61044860048036038101906104439190611ff4565b610d9a565b6040516104559190612620565b60405180910390f35b610466610de6565b60405161047391906123f8565b60405180910390f35b610484610e0f565b005b6104a0600480360381019061049b919061216b565b610e20565b005b6104bc60048036038101906104b791906121f9565b610edc565b005b6104d860048036038101906104d39190611ff4565b610f31565b6040516104e59190612620565b60405180910390f35b610508600480360381019061050391906121f9565b610f7d565b005b610524600480360381019061051f9190611ff4565b611379565b6040516105319190612620565b60405180910390f35b6105426113d2565b005b61054c61166b565b005b6105686004803603810190610563919061201d565b6117a9565b60405161057591906124c5565b60405180910390f35b6105866117be565b6040516105939190612620565b60405180910390f35b6105b660048036038101906105b19190611ff4565b6117c8565b6040516105c39190612620565b60405180910390f35b6105e660048036038101906105e19190611ff4565b611827565b6040516105f391906124aa565b60405180910390f35b610616600480360381019061061191906121f9565b61187d565b005b610632600480360381019061062d91906121f9565b61188f565b005b61063c6118a1565b6040516106499190612620565b60405180910390f35b61066c600480360381019061066791906120dc565b6118ab565b60405161067991906124c5565b60405180910390f35b61069c60048036038101906106979190611ff4565b6118c0565b005b6106a6611944565b60018110156106ea576040517f08c379a00000000000000000000000000000000000000000000000000000000081526004016106e190612560565b60405180910390fd5b42600d6000018190555081600d600001546107059190612757565b600d6001018190555080600d600201819055505050565b60007f4e2312e0000000000000000000000000000000000000000000000000000000007bffffffffffffffffffffffffffffffffffffffffffffffffffffffff1916827bffffffffffffffffffffffffffffffffffffffffffffffffffffffff1916148061078f575061078e826119c2565b5b9050919050565b6000600160009054906101000a900473ffffffffffffffffffffffffffffffffffffffff16905090565b6107c8611944565b80600c8190555050565b6107da611944565b4260098190555042600d6000018190555081426107f79190612757565b600d6001018190555080600d600201819055507ff652521332bbf2a62077b84dedc41600a387f1afd0376746ab9f0b7f3e2634ce600954838360405161083f9392919061268d565b60405180910390a15050565b610853611944565b80600160006101000a81548173ffffffffffffffffffffffffffffffffffffffff021916908373ffffffffffffffffffffffffffffffffffffffff16021790555050565b601060003373ffffffffffffffffffffffffffffffffffffffff1673ffffffffffffffffffffffffffffffffffffffff1681526020019081526020016000206000015481111561091c576040517f08c379a000000000000000000000000000000000000000000000000000000000815260040161091390612500565b60405180910390fd5b600061092733611a2c565b905080601060003373ffffffffffffffffffffffffffffffffffffffff1673ffffffffffffffffffffffffffffffffffffffff168152602001908152602001600020600201600082825461097b9190612757565b9250508190555042601060003373ffffffffffffffffffffffffffffffffffffffff1673ffffffffffffffffffffffffffffffffffffffff1681526020019081526020016000206001018190555081601060003373ffffffffffffffffffffffffffffffffffffffff1673ffffffffffffffffffffffffffffffffffffffff1681526020019081526020016000206000016000828254610a1b9190612838565b9250508190555081601060003373ffffffffffffffffffffffffffffffffffffffff1673ffffffffffffffffffffffffffffffffffffffff1681526020019081526020016000206003016000828254610a749190612757565b9250508190555060075442610a899190612757565b601060003373ffffffffffffffffffffffffffffffffffffffff1673ffffffffffffffffffffffffffffffffffffffff1681526020019081526020016000206004018190555081600b6000828254610ae19190612838565b925050819055503373ffffffffffffffffffffffffffffffffffffffff167fb24546d975e2628748efc9aced80665e0fad66272033e5c0ea25fd3afac9979583604051610b2e9190612620565b60405180910390a25050565b6000601060008373ffffffffffffffffffffffffffffffffffffffff1673ffffffffffffffffffffffffffffffffffffffff168152602001908152602001600020600301549050919050565b610b8e611944565b8060048190555050565b6000601060008373ffffffffffffffffffffffffffffffffffffffff1673ffffffffffffffffffffffffffffffffffffffff168152602001908152602001600020600401544210610bec5760009050610c3d565b42601060008473ffffffffffffffffffffffffffffffffffffffff1673ffffffffffffffffffffffffffffffffffffffff16815260200190815260200160002060040154610c3a9190612838565b90505b919050565b610c4a611944565b80600260006101000a81548173ffffffffffffffffffffffffffffffffffffffff021916908373ffffffffffffffffffffffffffffffffffffffff16021790555050565b6000600854905090565b6000801515601160008473ffffffffffffffffffffffffffffffffffffffff1673ffffffffffffffffffffffffffffffffffffffff16815260200190815260200160002060009054906101000a900460ff1615151415610cfb5760009050610d54565b6000601060008473ffffffffffffffffffffffffffffffffffffffff1673ffffffffffffffffffffffffffffffffffffffff168152602001908152602001600020600001541115610d4f5760019050610d54565b600290505b919050565b6000600354905090565b610d6b611944565b42600981905550565b610d7c611944565b8060078190555050565b610d8e611944565b610d986000611b4b565b565b6000601060008373ffffffffffffffffffffffffffffffffffffffff1673ffffffffffffffffffffffffffffffffffffffff168152602001908152602001600020600001549050919050565b60008060009054906101000a900473ffffffffffffffffffffffffffffffffffffffff16905090565b610e17611944565b42600a81905550565b610e28611944565b600160009054906101000a900473ffffffffffffffffffffffffffffffffffffffff1673ffffffffffffffffffffffffffffffffffffffff1663a9059cbb83836040518363ffffffff1660e01b8152600401610e8592919061244a565b602060405180830381600087803b158015610e9f57600080fd5b505af1158015610eb3573d6000803e3d6000fd5b505050506040513d601f19601f82011682018060405250810190610ed791906121a7565b505050565b610ee4611944565b60648110610f27576040517f08c379a0000000000000000000000000000000000000000000000000000000008152600401610f1e90612540565b60405180910390fd5b8060088190555050565b6000601060008373ffffffffffffffffffffffffffffffffffffffff1673ffffffffffffffffffffffffffffffffffffffff168152602001908152602001600020600101549050919050565b600060095414158015610f9257506009544210155b610fd1576040517f08c379a0000000000000000000000000000000000000000000000000000000008152600401610fc890612580565b60405180910390fd5b6000600a541480610fe45750600a544211155b611023576040517f08c379a000000000000000000000000000000000000000000000000000000000815260040161101a90612580565b60405180910390fd5b60008111611066576040517f08c379a000000000000000000000000000000000000000000000000000000000815260040161105d90612520565b60405180910390fd5b6000601060003373ffffffffffffffffffffffffffffffffffffffff1673ffffffffffffffffffffffffffffffffffffffff16815260200190815260200160002060000154905060035481836110bc9190612757565b10156110fd576040517f08c379a00000000000000000000000000000000000000000000000000000000081526004016110f490612600565b60405180910390fd5b600160009054906101000a900473ffffffffffffffffffffffffffffffffffffffff1673ffffffffffffffffffffffffffffffffffffffff166323b872dd3330856040518463ffffffff1660e01b815260040161115c93929190612413565b602060405180830381600087803b15801561117657600080fd5b505af115801561118a573d6000803e3d6000fd5b505050506040513d601f19601f820116820180604052508101906111ae91906121a7565b5060006111ba33611a2c565b905082601060003373ffffffffffffffffffffffffffffffffffffffff1673ffffffffffffffffffffffffffffffffffffffff168152602001908152602001600020600001600082825461120e9190612757565b9250508190555080601060003373ffffffffffffffffffffffffffffffffffffffff1673ffffffffffffffffffffffffffffffffffffffff16815260200190815260200160002060020160008282546112679190612757565b9250508190555042601060003373ffffffffffffffffffffffffffffffffffffffff1673ffffffffffffffffffffffffffffffffffffffff1681526020019081526020016000206001018190555082600b60008282546112c79190612757565b925050819055506001601160003373ffffffffffffffffffffffffffffffffffffffff1673ffffffffffffffffffffffffffffffffffffffff16815260200190815260200160002060006101000a81548160ff0219169083151502179055503373ffffffffffffffffffffffffffffffffffffffff167febedb8b3c678666e7f36970bc8f57abf6d8fa2e828c0da91ea5b75bf68ed101a8460405161136c9190612620565b60405180910390a2505050565b6000600654601060008473ffffffffffffffffffffffffffffffffffffffff1673ffffffffffffffffffffffffffffffffffffffff168152602001908152602001600020600101546113cb9190612757565b9050919050565b600654601060003373ffffffffffffffffffffffffffffffffffffffff1673ffffffffffffffffffffffffffffffffffffffff168152602001908152602001600020600101546114229190612757565b4211611463576040517f08c379a000000000000000000000000000000000000000000000000000000000815260040161145a906125c0565b60405180910390fd5b600061146e33611a2c565b9050600081601060003373ffffffffffffffffffffffffffffffffffffffff1673ffffffffffffffffffffffffffffffffffffffff168152602001908152602001600020600201546114c09190612757565b90506000811115611615576000601060003373ffffffffffffffffffffffffffffffffffffffff1673ffffffffffffffffffffffffffffffffffffffff16815260200190815260200160002060020181905550600260009054906101000a900473ffffffffffffffffffffffffffffffffffffffff1673ffffffffffffffffffffffffffffffffffffffff1663156e29f633600c54846040518463ffffffff1660e01b815260040161157493929190612473565b600060405180830381600087803b15801561158e57600080fd5b505af11580156115a2573d6000803e3d6000fd5b505050506006546115b233611c0f565b6115bc91906127de565b601060003373ffffffffffffffffffffffffffffffffffffffff1673ffffffffffffffffffffffffffffffffffffffff168152602001908152602001600020600101600082825461160d9190612757565b925050819055505b3373ffffffffffffffffffffffffffffffffffffffff167f34fcbac0073d7c3d388e51312faf357774904998eeb8fca628b9e6f65ee1cbf7600c548360405161165f929190612664565b60405180910390a25050565b6000601060003373ffffffffffffffffffffffffffffffffffffffff1673ffffffffffffffffffffffffffffffffffffffff16815260200190815260200160002060030154116116f0576040517f08c379a00000000000000000000000000000000000000000000000000000000081526004016116e7906125e0565b60405180910390fd5b6000601060003373ffffffffffffffffffffffffffffffffffffffff1673ffffffffffffffffffffffffffffffffffffffff168152602001908152602001600020600401544210611742576000611745565b60015b905060006117533383611c94565b90503373ffffffffffffffffffffffffffffffffffffffff167fb8d9ba25e48d59fdf3ff7de8ead33e6be7cb962255a3690a98984f98c2d07e15828460405161179d92919061263b565b60405180910390a25050565b600063bc197c8160e01b905095945050505050565b6000600b54905090565b6000601060008373ffffffffffffffffffffffffffffffffffffffff1673ffffffffffffffffffffffffffffffffffffffff1681526020019081526020016000206002015461181683611a2c565b6118209190612757565b9050919050565b6000601160008373ffffffffffffffffffffffffffffffffffffffff1673ffffffffffffffffffffffffffffffffffffffff16815260200190815260200160002060009054906101000a900460ff169050919050565b611885611944565b8060038190555050565b611897611944565b8060068190555050565b6000600454905090565b600063f23a6e6160e01b905095945050505050565b6118c8611944565b600073ffffffffffffffffffffffffffffffffffffffff168173ffffffffffffffffffffffffffffffffffffffff161415611938576040517f08c379a000000000000000000000000000000000000000000000000000000000815260040161192f906124e0565b60405180910390fd5b61194181611b4b565b50565b61194c611e0d565b73ffffffffffffffffffffffffffffffffffffffff1661196a610de6565b73ffffffffffffffffffffffffffffffffffffffff16146119c0576040517f08c379a00000000000000000000000000000000000000000000000000000000081526004016119b7906125a0565b60405180910390fd5b565b60007f01ffc9a7000000000000000000000000000000000000000000000000000000007bffffffffffffffffffffffffffffffffffffffffffffffffffffffff1916827bffffffffffffffffffffffffffffffffffffffffffffffffffffffff1916149050919050565b600080611a3883611c0f565b90506000601060008573ffffffffffffffffffffffffffffffffffffffff1673ffffffffffffffffffffffffffffffffffffffff168152602001908152602001600020600101549050600082600654611a9191906127de565b82611a9c9190612757565b90506000600654611aad8484611e15565b611ab791906127ad565b905060008185611ac79190612838565b90506004548183600d60020154611ade91906127de565b611ae89190612757565b601060008a73ffffffffffffffffffffffffffffffffffffffff1673ffffffffffffffffffffffffffffffffffffffff16815260200190815260200160002060000154611b3591906127de565b611b3f91906127ad565b95505050505050919050565b60008060009054906101000a900473ffffffffffffffffffffffffffffffffffffffff169050816000806101000a81548173ffffffffffffffffffffffffffffffffffffffff021916908373ffffffffffffffffffffffffffffffffffffffff1602179055508173ffffffffffffffffffffffffffffffffffffffff168173ffffffffffffffffffffffffffffffffffffffff167f8be0079c531659141344cd1fd0a4f28419497f9722a3daafe3b4186f6b6457e060405160405180910390a35050565b6000806000600a5414611c2d57611c28600a5442611e6f565b611c2f565b425b9050600654601060008573ffffffffffffffffffffffffffffffffffffffff1673ffffffffffffffffffffffffffffffffffffffff1681526020019081526020016000206001015482611c829190612838565b611c8c91906127ad565b915050919050565b600080601060008573ffffffffffffffffffffffffffffffffffffffff1673ffffffffffffffffffffffffffffffffffffffff1681526020019081526020016000206003015490508215611d0b5760646008546064611cf39190612838565b82611cfe91906127de565b611d0891906127ad565b90505b6000601060008673ffffffffffffffffffffffffffffffffffffffff1673ffffffffffffffffffffffffffffffffffffffff16815260200190815260200160002060030181905550600160009054906101000a900473ffffffffffffffffffffffffffffffffffffffff1673ffffffffffffffffffffffffffffffffffffffff1663a9059cbb85836040518363ffffffff1660e01b8152600401611db092919061244a565b602060405180830381600087803b158015611dca57600080fd5b505af1158015611dde573d6000803e3d6000fd5b505050506040513d601f19601f82011682018060405250810190611e0291906121a7565b508091505092915050565b600033905090565b6000600d6001015483101580611e305750600d600001548211155b15611e3e5760009050611e69565b611e4d83600d60000154611e88565b611e5c83600d60010154611e6f565b611e669190612838565b90505b92915050565b6000818310611e7e5781611e80565b825b905092915050565b600081831015611e985781611e9a565b825b905092915050565b6000611eb5611eb0846126e9565b6126c4565b90508083825260208201905082856020860282011115611ed457600080fd5b60005b85811015611f045781611eea8882611fdf565b845260208401935060208301925050600181019050611ed7565b5050509392505050565b6000611f21611f1c84612715565b6126c4565b905082815260208101848484011115611f3957600080fd5b611f448482856128e0565b509392505050565b600081359050611f5b81612bf0565b92915050565b600082601f830112611f7257600080fd5b8135611f82848260208601611ea2565b91505092915050565b600081519050611f9a81612c07565b92915050565b600081359050611faf81612c1e565b92915050565b600082601f830112611fc657600080fd5b8135611fd6848260208601611f0e565b91505092915050565b600081359050611fee81612c35565b92915050565b60006020828403121561200657600080fd5b600061201484828501611f4c565b91505092915050565b600080600080600060a0868803121561203557600080fd5b600061204388828901611f4c565b955050602061205488828901611f4c565b945050604086013567ffffffffffffffff81111561207157600080fd5b61207d88828901611f61565b935050606086013567ffffffffffffffff81111561209a57600080fd5b6120a688828901611f61565b925050608086013567ffffffffffffffff8111156120c357600080fd5b6120cf88828901611fb5565b9150509295509295909350565b600080600080600060a086880312156120f457600080fd5b600061210288828901611f4c565b955050602061211388828901611f4c565b945050604061212488828901611fdf565b935050606061213588828901611fdf565b925050608086013567ffffffffffffffff81111561215257600080fd5b61215e88828901611fb5565b9150509295509295909350565b6000806040838503121561217e57600080fd5b600061218c85828601611f4c565b925050602061219d85828601611fdf565b9150509250929050565b6000602082840312156121b957600080fd5b60006121c784828501611f8b565b91505092915050565b6000602082840312156121e257600080fd5b60006121f084828501611fa0565b91505092915050565b60006020828403121561220b57600080fd5b600061221984828501611fdf565b91505092915050565b6000806040838503121561223557600080fd5b600061224385828601611fdf565b925050602061225485828601611fdf565b9150509250929050565b6122678161286c565b82525050565b6122768161287e565b82525050565b6122858161288a565b82525050565b6000612298602683612746565b91506122a3826129be565b604082019050919050565b60006122bb602483612746565b91506122c682612a0d565b604082019050919050565b60006122de601b83612746565b91506122e982612a5c565b602082019050919050565b6000612301601a83612746565b915061230c82612a85565b602082019050919050565b6000612324602583612746565b915061232f82612aae565b604082019050919050565b6000612347601083612746565b915061235282612afd565b602082019050919050565b600061236a602083612746565b915061237582612b26565b602082019050919050565b600061238d601083612746565b915061239882612b4f565b602082019050919050565b60006123b0601783612746565b91506123bb82612b78565b602082019050919050565b60006123d3603283612746565b91506123de82612ba1565b604082019050919050565b6123f2816128d6565b82525050565b600060208201905061240d600083018461225e565b92915050565b6000606082019050612428600083018661225e565b612435602083018561225e565b61244260408301846123e9565b949350505050565b600060408201905061245f600083018561225e565b61246c60208301846123e9565b9392505050565b6000606082019050612488600083018661225e565b61249560208301856123e9565b6124a260408301846123e9565b949350505050565b60006020820190506124bf600083018461226d565b92915050565b60006020820190506124da600083018461227c565b92915050565b600060208201905081810360008301526124f98161228b565b9050919050565b60006020820190508181036000830152612519816122ae565b9050919050565b60006020820190508181036000830152612539816122d1565b9050919050565b60006020820190508181036000830152612559816122f4565b9050919050565b6000602082019050818103600083015261257981612317565b9050919050565b600060208201905081810360008301526125998161233a565b9050919050565b600060208201905081810360008301526125b98161235d565b9050919050565b600060208201905081810360008301526125d981612380565b9050919050565b600060208201905081810360008301526125f9816123a3565b9050919050565b60006020820190508181036000830152612619816123c6565b9050919050565b600060208201905061263560008301846123e9565b92915050565b600060408201905061265060008301856123e9565b61265d602083018461226d565b9392505050565b600060408201905061267960008301856123e9565b61268660208301846123e9565b9392505050565b60006060820190506126a260008301866123e9565b6126af60208301856123e9565b6126bc60408301846123e9565b949350505050565b60006126ce6126df565b90506126da82826128ef565b919050565b6000604051905090565b600067ffffffffffffffff8211156127045761270361297e565b5b602082029050602081019050919050565b600067ffffffffffffffff8211156127305761272f61297e565b5b612739826129ad565b9050602081019050919050565b600082825260208201905092915050565b6000612762826128d6565b915061276d836128d6565b9250827fffffffffffffffffffffffffffffffffffffffffffffffffffffffffffffffff038211156127a2576127a1612920565b5b828201905092915050565b60006127b8826128d6565b91506127c3836128d6565b9250826127d3576127d261294f565b5b828204905092915050565b60006127e9826128d6565b91506127f4836128d6565b9250817fffffffffffffffffffffffffffffffffffffffffffffffffffffffffffffffff048311821515161561282d5761282c612920565b5b828202905092915050565b6000612843826128d6565b915061284e836128d6565b92508282101561286157612860612920565b5b828203905092915050565b6000612877826128b6565b9050919050565b60008115159050919050565b60007fffffffff0000000000000000000000000000000000000000000000000000000082169050919050565b600073ffffffffffffffffffffffffffffffffffffffff82169050919050565b6000819050919050565b82818337600083830152505050565b6128f8826129ad565b810181811067ffffffffffffffff821117156129175761291661297e565b5b80604052505050565b7f4e487b7100000000000000000000000000000000000000000000000000000000600052601160045260246000fd5b7f4e487b7100000000000000000000000000000000000000000000000000000000600052601260045260246000fd5b7f4e487b7100000000000000000000000000000000000000000000000000000000600052604160045260246000fd5b6000601f19601f8301169050919050565b7f4f776e61626c653a206e6577206f776e657220697320746865207a65726f206160008201527f6464726573730000000000000000000000000000000000000000000000000000602082015250565b7f756e7374616b6520616d6f756e742065786365656473207374616b656420616d60008201527f6f756e7400000000000000000000000000000000000000000000000000000000602082015250565b7f7374616b6520616d6f756e742063616e6e6f74206265207a65726f0000000000600082015250565b7f70656e616c7479526174652063616e6e6f742062652031303025000000000000600082015250565b7f70726f6d6f74696f6e2072617465206d7573742062652067726561746572207460008201527f68616e2031000000000000000000000000000000000000000000000000000000602082015250565b7f43616e6e6f74207374616b65206e6f7700000000000000000000000000000000600082015250565b7f4f776e61626c653a2063616c6c6572206973206e6f7420746865206f776e6572600082015250565b7f43616e6e6f7420636c61696d206e6f7700000000000000000000000000000000600082015250565b7f756e7374616b65206265666f7265207769746864726177000000000000000000600082015250565b7f7374616b6520616d6f756e74206c657373207468616e206d696e696d756d207360008201527f74616b696e6720726571756972656d656e740000000000000000000000000000602082015250565b612bf98161286c565b8114612c0457600080fd5b50565b612c108161287e565b8114612c1b57600080fd5b50565b612c278161288a565b8114612c3257600080fd5b50565b612c3e816128d6565b8114612c4957600080fd5b5056fea2646970667358221220989577c25b0545dba4ac63a589030539ad51f7b7fd394db0daacaa3740de364164736f6c63430008040033",
  "linkReferences": {},
  "deployedLinkReferences": {}
}