{
  "_format": "hh-sol-artifact-1",
  "contractName": "BeFitterShop",
  "sourceName": "contracts/BeFitterShop.sol",
  "abi": [
    {
      "inputs": [
        {
          "internalType": "contract IERC721",
          "name": "boxAddress",
          "type": "address"
        }
      ],
      "stateMutability": "nonpayable",
      "type": "constructor"
    },
    {
      "anonymous": false,
      "inputs": [
        {
          "indexed": true,
          "internalType": "address",
          "name": "to",
          "type": "address"
        },
        {
          "indexed": false,
          "internalType": "uint256",
          "name": "amount",
          "type": "uint256"
        }
      ],
      "name": "BNBWithdrawn",
      "type": "event"
    },
    {
      "anonymous": false,
      "inputs": [
        {
          "indexed": false,
          "internalType": "address",
          "name": "purchaser",
          "type": "address"
        },
        {
          "indexed": false,
          "internalType": "uint256",
          "name": "boxId",
          "type": "uint256"
        },
        {
          "indexed": false,
          "internalType": "address",
          "name": "tokenAddress",
          "type": "address"
        },
        {
          "indexed": false,
          "internalType": "uint256",
          "name": "price",
          "type": "uint256"
        }
      ],
      "name": "BoxPurchased",
      "type": "event"
    },
    {
      "anonymous": false,
      "inputs": [
        {
          "indexed": true,
          "internalType": "address",
          "name": "previousOwner",
          "type": "address"
        },
        {
          "indexed": true,
          "internalType": "address",
          "name": "newOwner",
          "type": "address"
        }
      ],
      "name": "OwnershipTransferred",
      "type": "event"
    },
    {
      "anonymous": false,
      "inputs": [
        {
          "indexed": true,
          "internalType": "address",
          "name": "to",
          "type": "address"
        },
        {
          "indexed": true,
          "internalType": "address",
          "name": "tokenAddress",
          "type": "address"
        },
        {
          "indexed": false,
          "internalType": "uint256",
          "name": "amount",
          "type": "uint256"
        }
      ],
      "name": "TokenWithdrawn",
      "type": "event"
    },
    {
      "inputs": [],
      "name": "closeShop",
      "outputs": [],
      "stateMutability": "nonpayable",
      "type": "function"
    },
    {
      "inputs": [
        {
          "internalType": "string",
          "name": "boxType",
          "type": "string"
        }
      ],
      "name": "getAvailableBox",
      "outputs": [
        {
          "internalType": "uint256",
          "name": "",
          "type": "uint256"
        }
      ],
      "stateMutability": "view",
      "type": "function"
    },
    {
      "inputs": [
        {
          "internalType": "string",
          "name": "boxType",
          "type": "string"
        },
        {
          "internalType": "address",
          "name": "tokenAddress",
          "type": "address"
        }
      ],
      "name": "getBoxPrice",
      "outputs": [
        {
          "internalType": "uint256",
          "name": "",
          "type": "uint256"
        }
      ],
      "stateMutability": "view",
      "type": "function"
    },
    {
      "inputs": [
        {
          "internalType": "address",
          "name": "operator",
          "type": "address"
        }
      ],
      "name": "isOperator",
      "outputs": [
        {
          "internalType": "bool",
          "name": "",
          "type": "bool"
        }
      ],
      "stateMutability": "view",
      "type": "function"
    },
    {
      "inputs": [
        {
          "internalType": "string",
          "name": "boxType",
          "type": "string"
        },
        {
          "internalType": "uint256",
          "name": "startId",
          "type": "uint256"
        },
        {
          "internalType": "uint256",
          "name": "quantity",
          "type": "uint256"
        }
      ],
      "name": "listItemForSale",
      "outputs": [],
      "stateMutability": "nonpayable",
      "type": "function"
    },
    {
      "inputs": [
        {
          "internalType": "address",
          "name": "",
          "type": "address"
        },
        {
          "internalType": "address",
          "name": "",
          "type": "address"
        },
        {
          "internalType": "uint256",
          "name": "",
          "type": "uint256"
        },
        {
          "internalType": "bytes",
          "name": "",
          "type": "bytes"
        }
      ],
      "name": "onERC721Received",
      "outputs": [
        {
          "internalType": "bytes4",
          "name": "",
          "type": "bytes4"
        }
      ],
      "stateMutability": "nonpayable",
      "type": "function"
    },
    {
      "inputs": [],
      "name": "openShop",
      "outputs": [],
      "stateMutability": "nonpayable",
      "type": "function"
    },
    {
      "inputs": [],
      "name": "owner",
      "outputs": [
        {
          "internalType": "address",
          "name": "",
          "type": "address"
        }
      ],
      "stateMutability": "view",
      "type": "function"
    },
    {
      "inputs": [
        {
          "internalType": "string",
          "name": "boxType",
          "type": "string"
        }
      ],
      "name": "purchaseBoxByBNB",
      "outputs": [],
      "stateMutability": "payable",
      "type": "function"
    },
    {
      "inputs": [
        {
          "internalType": "string",
          "name": "boxType",
          "type": "string"
        },
        {
          "internalType": "address",
          "name": "tokenAddress",
          "type": "address"
        }
      ],
      "name": "purchaseBoxByToken",
      "outputs": [],
      "stateMutability": "nonpayable",
      "type": "function"
    },
    {
      "inputs": [
        {
          "internalType": "address",
          "name": "operator",
          "type": "address"
        }
      ],
      "name": "removeOperator",
      "outputs": [],
      "stateMutability": "nonpayable",
      "type": "function"
    },
    {
      "inputs": [],
      "name": "renounceOwnership",
      "outputs": [],
      "stateMutability": "nonpayable",
      "type": "function"
    },
    {
      "inputs": [
        {
          "internalType": "address",
          "name": "operator",
          "type": "address"
        }
      ],
      "name": "setOperator",
      "outputs": [],
      "stateMutability": "nonpayable",
      "type": "function"
    },
    {
      "inputs": [
        {
          "internalType": "string",
          "name": "boxType",
          "type": "string"
        },
        {
          "internalType": "address",
          "name": "tokenAddress",
          "type": "address"
        },
        {
          "internalType": "uint256",
          "name": "price",
          "type": "uint256"
        }
      ],
      "name": "setPrice",
      "outputs": [],
      "stateMutability": "nonpayable",
      "type": "function"
    },
    {
      "inputs": [
        {
          "internalType": "address",
          "name": "newOwner",
          "type": "address"
        }
      ],
      "name": "transferOwnership",
      "outputs": [],
      "stateMutability": "nonpayable",
      "type": "function"
    },
    {
      "inputs": [
        {
          "internalType": "address",
          "name": "to",
          "type": "address"
        }
      ],
      "name": "withdrawAllBNB",
      "outputs": [],
      "stateMutability": "nonpayable",
      "type": "function"
    },
    {
      "inputs": [
        {
          "internalType": "contract IERC20",
          "name": "tokenAddress",
          "type": "address"
        },
        {
          "internalType": "address",
          "name": "to",
          "type": "address"
        }
      ],
      "name": "withdrawAllToken",
      "outputs": [],
      "stateMutability": "nonpayable",
      "type": "function"
    },
    {
      "inputs": [
        {
          "internalType": "address",
          "name": "to",
          "type": "address"
        },
        {
          "internalType": "uint256",
          "name": "amount",
          "type": "uint256"
        }
      ],
      "name": "withdrawBNB",
      "outputs": [],
      "stateMutability": "nonpayable",
      "type": "function"
    },
    {
      "inputs": [
        {
          "internalType": "contract IERC20",
          "name": "tokenAddress",
          "type": "address"
        },
        {
          "internalType": "address",
          "name": "to",
          "type": "address"
        },
        {
          "internalType": "uint256",
          "name": "amount",
          "type": "uint256"
        }
      ],
      "name": "withdrawToken",
      "outputs": [],
      "stateMutability": "nonpayable",
      "type": "function"
    }
  ],
  "bytecode": "0x60806040523480156200001157600080fd5b5060405162002e5f38038062002e5f83398181016040528101906200003791906200024b565b620000576200004b6200016860201b60201c565b6200017060201b60201c565b60018060003373ffffffffffffffffffffffffffffffffffffffff1673ffffffffffffffffffffffffffffffffffffffff16815260200190815260200160002060006101000a81548160ff02191690831515021790555080600260006101000a81548173ffffffffffffffffffffffffffffffffffffffff021916908373ffffffffffffffffffffffffffffffffffffffff16021790555060018060003373ffffffffffffffffffffffffffffffffffffffff1673ffffffffffffffffffffffffffffffffffffffff16815260200190815260200160002060006101000a81548160ff0219169083151502179055506000600260146101000a81548160ff02191690831515021790555050620002d9565b600033905090565b60008060009054906101000a900473ffffffffffffffffffffffffffffffffffffffff169050816000806101000a81548173ffffffffffffffffffffffffffffffffffffffff021916908373ffffffffffffffffffffffffffffffffffffffff1602179055508173ffffffffffffffffffffffffffffffffffffffff168173ffffffffffffffffffffffffffffffffffffffff167f8be0079c531659141344cd1fd0a4f28419497f9722a3daafe3b4186f6b6457e060405160405180910390a35050565b6000815190506200024581620002bf565b92915050565b6000602082840312156200025e57600080fd5b60006200026e8482850162000234565b91505092915050565b600062000284826200029f565b9050919050565b6000620002988262000277565b9050919050565b600073ffffffffffffffffffffffffffffffffffffffff82169050919050565b620002ca816200028b565b8114620002d657600080fd5b50565b612b7680620002e96000396000f3fe6080604052600436106101145760003560e01c8063900d65be116100a0578063ac8a584a11610064578063ac8a584a14610352578063b3ab15fb1461037b578063b3be3e6f146103a4578063f2fde38b146103cd578063f69d8b6f146103f657610114565b8063900d65be146102b65780639751ae57146102df5780639b6dbc8a146102fb578063a6f5a22b14610312578063a97af1f21461032957610114565b80633aeebedb116100e75780633aeebedb146101e5578063499562651461020e5780636d70f7ae14610237578063715018a6146102745780638da5cb5b1461028b57610114565b806301e3366714610119578063150b7a021461014257806319bf59221461017f5780631eaa0458146101a8575b600080fd5b34801561012557600080fd5b50610140600480360381019061013b9190611fc4565b610433565b005b34801561014e57600080fd5b5061016960048036038101906101649190611ea8565b6105ad565b60405161017691906124b7565b60405180910390f35b34801561018b57600080fd5b506101a660048036038101906101a19190611e7f565b6105c1565b005b3480156101b457600080fd5b506101cf60048036038101906101ca9190612054565b610741565b6040516101dc9190612632565b60405180910390f35b3480156101f157600080fd5b5061020c60048036038101906102079190611f88565b61083f565b005b34801561021a57600080fd5b506102356004803603810190610230919061210f565b610a46565b005b34801561024357600080fd5b5061025e60048036038101906102599190611e7f565b610c4f565b60405161026b919061249c565b60405180910390f35b34801561028057600080fd5b50610289610ca5565b005b34801561029757600080fd5b506102a0610d2d565b6040516102ad91906123dc565b60405180910390f35b3480156102c257600080fd5b506102dd60048036038101906102d89190612054565b610d56565b005b6102f960048036038101906102f49190612013565b611116565b005b34801561030757600080fd5b5061031061150b565b005b34801561031e57600080fd5b506103276115b4565b005b34801561033557600080fd5b50610350600480360381019061034b9190611f23565b61165d565b005b34801561035e57600080fd5b5061037960048036038101906103749190611e7f565b611821565b005b34801561038757600080fd5b506103a2600480360381019061039d9190611e7f565b6118f8565b005b3480156103b057600080fd5b506103cb60048036038101906103c691906120a8565b6119ce565b005b3480156103d957600080fd5b506103f460048036038101906103ef9190611e7f565b611b5a565b005b34801561040257600080fd5b5061041d60048036038101906104189190612013565b611c52565b60405161042a9190612632565b60405180910390f35b61043b611c7a565b73ffffffffffffffffffffffffffffffffffffffff16610459610d2d565b73ffffffffffffffffffffffffffffffffffffffff16146104af576040517f08c379a00000000000000000000000000000000000000000000000000000000081526004016104a690612592565b60405180910390fd5b60008390508073ffffffffffffffffffffffffffffffffffffffff1663a9059cbb84846040518363ffffffff1660e01b81526004016104ef92919061242e565b602060405180830381600087803b15801561050957600080fd5b505af115801561051d573d6000803e3d6000fd5b505050506040513d601f19601f820116820180604052508101906105419190611f5f565b508373ffffffffffffffffffffffffffffffffffffffff168373ffffffffffffffffffffffffffffffffffffffff167f8210728e7c071f615b840ee026032693858fbcd5e5359e67e438c890f59e56208460405161059f9190612632565b60405180910390a350505050565b600063150b7a0260e01b9050949350505050565b6105c9611c7a565b73ffffffffffffffffffffffffffffffffffffffff166105e7610d2d565b73ffffffffffffffffffffffffffffffffffffffff161461063d576040517f08c379a000000000000000000000000000000000000000000000000000000000815260040161063490612592565b60405180910390fd5b600047905060008273ffffffffffffffffffffffffffffffffffffffff1682604051610668906123c7565b60006040518083038185875af1925050503d80600081146106a5576040519150601f19603f3d011682016040523d82523d6000602084013e6106aa565b606091505b50509050806106ee576040517f08c379a00000000000000000000000000000000000000000000000000000000081526004016106e5906124d2565b60405180910390fd5b8273ffffffffffffffffffffffffffffffffffffffff167f977cffdd1e736a78cafc6845d6dca2d64c79fb1f650a8bdec1a9b5046ea47d45836040516107349190612632565b60405180910390a2505050565b60008073ffffffffffffffffffffffffffffffffffffffff168273ffffffffffffffffffffffffffffffffffffffff1614156107da5760038360405161078791906123b0565b908152602001604051809103902060008073ffffffffffffffffffffffffffffffffffffffff1673ffffffffffffffffffffffffffffffffffffffff168152602001908152602001600020549050610839565b6003836040516107ea91906123b0565b908152602001604051809103902060008373ffffffffffffffffffffffffffffffffffffffff1673ffffffffffffffffffffffffffffffffffffffff1681526020019081526020016000205490505b92915050565b610847611c7a565b73ffffffffffffffffffffffffffffffffffffffff16610865610d2d565b73ffffffffffffffffffffffffffffffffffffffff16146108bb576040517f08c379a00000000000000000000000000000000000000000000000000000000081526004016108b290612592565b60405180910390fd5b600082905060008173ffffffffffffffffffffffffffffffffffffffff166370a08231306040518263ffffffff1660e01b81526004016108fb91906123dc565b60206040518083038186803b15801561091357600080fd5b505afa158015610927573d6000803e3d6000fd5b505050506040513d601f19601f8201168201806040525081019061094b9190612176565b90508173ffffffffffffffffffffffffffffffffffffffff1663a9059cbb84836040518363ffffffff1660e01b815260040161098892919061242e565b602060405180830381600087803b1580156109a257600080fd5b505af11580156109b6573d6000803e3d6000fd5b505050506040513d601f19601f820116820180604052508101906109da9190611f5f565b508373ffffffffffffffffffffffffffffffffffffffff168373ffffffffffffffffffffffffffffffffffffffff167f8210728e7c071f615b840ee026032693858fbcd5e5359e67e438c890f59e562083604051610a389190612632565b60405180910390a350505050565b610a4e611c7a565b73ffffffffffffffffffffffffffffffffffffffff16610a6c610d2d565b73ffffffffffffffffffffffffffffffffffffffff1614610ac2576040517f08c379a0000000000000000000000000000000000000000000000000000000008152600401610ab990612592565b60405180910390fd5b60008111610b05576040517f08c379a0000000000000000000000000000000000000000000000000000000008152600401610afc906125b2565b60405180910390fd5b80600484604051610b1691906123b0565b90815260200160405180910390208190555081600584604051610b3991906123b0565b9081526020016040518091039020600060038110610b80577f4e487b7100000000000000000000000000000000000000000000000000000000600052603260045260246000fd5b01819055508082610b919190612706565b600584604051610ba191906123b0565b9081526020016040518091039020600160038110610be8577f4e487b7100000000000000000000000000000000000000000000000000000000600052603260045260246000fd5b018190555081600584604051610bfe91906123b0565b9081526020016040518091039020600260038110610c45577f4e487b7100000000000000000000000000000000000000000000000000000000600052603260045260246000fd5b0181905550505050565b6000600160008373ffffffffffffffffffffffffffffffffffffffff1673ffffffffffffffffffffffffffffffffffffffff16815260200190815260200160002060009054906101000a900460ff169050919050565b610cad611c7a565b73ffffffffffffffffffffffffffffffffffffffff16610ccb610d2d565b73ffffffffffffffffffffffffffffffffffffffff1614610d21576040517f08c379a0000000000000000000000000000000000000000000000000000000008152600401610d1890612592565b60405180910390fd5b610d2b6000611c82565b565b60008060009054906101000a900473ffffffffffffffffffffffffffffffffffffffff16905090565b600260149054906101000a900460ff16610da5576040517f08c379a0000000000000000000000000000000000000000000000000000000008152600401610d9c90612532565b60405180910390fd5b6000600483604051610db791906123b0565b90815260200160405180910390205411610e06576040517f08c379a0000000000000000000000000000000000000000000000000000000008152600401610dfd90612552565b60405180910390fd5b6000600383604051610e1891906123b0565b908152602001604051809103902060008373ffffffffffffffffffffffffffffffffffffffff1673ffffffffffffffffffffffffffffffffffffffff16815260200190815260200160002054905060008111610ea9576040517f08c379a0000000000000000000000000000000000000000000000000000000008152600401610ea0906125f2565b60405180910390fd5b6000600584604051610ebb91906123b0565b9081526020016040518091039020600260038110610f02577f4e487b7100000000000000000000000000000000000000000000000000000000600052603260045260246000fd5b015490506001600485604051610f1891906123b0565b90815260200160405180910390206000828254610f35919061275c565b925050819055506001600585604051610f4e91906123b0565b9081526020016040518091039020600260038110610f95577f4e487b7100000000000000000000000000000000000000000000000000000000600052603260045260246000fd5b016000828254610fa59190612706565b9250508190555060008390508073ffffffffffffffffffffffffffffffffffffffff166323b872dd3330866040518463ffffffff1660e01b8152600401610fee939291906123f7565b602060405180830381600087803b15801561100857600080fd5b505af115801561101c573d6000803e3d6000fd5b505050506040513d601f19601f820116820180604052508101906110409190611f5f565b50600260009054906101000a900473ffffffffffffffffffffffffffffffffffffffff1673ffffffffffffffffffffffffffffffffffffffff166342842e0e3033856040518463ffffffff1660e01b81526004016110a0939291906123f7565b600060405180830381600087803b1580156110ba57600080fd5b505af11580156110ce573d6000803e3d6000fd5b505050507fd5a155ba6138463b4d85139b3b71b15b6a445fff7647678f5423bea0660b2dd7338386866040516111079493929190612457565b60405180910390a15050505050565b600260149054906101000a900460ff16611165576040517f08c379a000000000000000000000000000000000000000000000000000000000815260040161115c90612532565b60405180910390fd5b600060048260405161117791906123b0565b908152602001604051809103902054116111c6576040517f08c379a00000000000000000000000000000000000000000000000000000000081526004016111bd906125d2565b60405180910390fd5b60006003826040516111d891906123b0565b908152602001604051809103902060008073ffffffffffffffffffffffffffffffffffffffff1673ffffffffffffffffffffffffffffffffffffffff16815260200190815260200160002054905060008111611269576040517f08c379a0000000000000000000000000000000000000000000000000000000008152600401611260906125f2565b60405180910390fd5b8034101561127657600080fd5b600060058360405161128891906123b0565b90815260200160405180910390206002600381106112cf577f4e487b7100000000000000000000000000000000000000000000000000000000600052603260045260246000fd5b0154905060016004846040516112e591906123b0565b90815260200160405180910390206000828254611302919061275c565b92505081905550600160058460405161131b91906123b0565b9081526020016040518091039020600260038110611362577f4e487b7100000000000000000000000000000000000000000000000000000000600052603260045260246000fd5b0160008282546113729190612706565b9250508190555060008234611387919061275c565b9050600260009054906101000a900473ffffffffffffffffffffffffffffffffffffffff1673ffffffffffffffffffffffffffffffffffffffff166342842e0e3033856040518463ffffffff1660e01b81526004016113e8939291906123f7565b600060405180830381600087803b15801561140257600080fd5b505af1158015611416573d6000803e3d6000fd5b5050505060003373ffffffffffffffffffffffffffffffffffffffff1682604051611440906123c7565b60006040518083038185875af1925050503d806000811461147d576040519150601f19603f3d011682016040523d82523d6000602084013e611482565b606091505b50509050806114c6576040517f08c379a00000000000000000000000000000000000000000000000000000000081526004016114bd90612612565b60405180910390fd5b7fd5a155ba6138463b4d85139b3b71b15b6a445fff7647678f5423bea0660b2dd733846000876040516114fc9493929190612457565b60405180910390a15050505050565b600160003373ffffffffffffffffffffffffffffffffffffffff1673ffffffffffffffffffffffffffffffffffffffff16815260200190815260200160002060009054906101000a900460ff16611597576040517f08c379a000000000000000000000000000000000000000000000000000000000815260040161158e90612572565b60405180910390fd5b6001600260146101000a81548160ff021916908315150217905550565b600160003373ffffffffffffffffffffffffffffffffffffffff1673ffffffffffffffffffffffffffffffffffffffff16815260200190815260200160002060009054906101000a900460ff16611640576040517f08c379a000000000000000000000000000000000000000000000000000000000815260040161163790612572565b60405180910390fd5b6001600260146101000a81548160ff021916908315150217905550565b611665611c7a565b73ffffffffffffffffffffffffffffffffffffffff16611683610d2d565b73ffffffffffffffffffffffffffffffffffffffff16146116d9576040517f08c379a00000000000000000000000000000000000000000000000000000000081526004016116d090612592565b60405180910390fd5b600047905080821115611721576040517f08c379a0000000000000000000000000000000000000000000000000000000008152600401611718906124f2565b60405180910390fd5b60008373ffffffffffffffffffffffffffffffffffffffff1683604051611747906123c7565b60006040518083038185875af1925050503d8060008114611784576040519150601f19603f3d011682016040523d82523d6000602084013e611789565b606091505b50509050806117cd576040517f08c379a00000000000000000000000000000000000000000000000000000000081526004016117c4906124d2565b60405180910390fd5b8373ffffffffffffffffffffffffffffffffffffffff167f977cffdd1e736a78cafc6845d6dca2d64c79fb1f650a8bdec1a9b5046ea47d45846040516118139190612632565b60405180910390a250505050565b611829611c7a565b73ffffffffffffffffffffffffffffffffffffffff16611847610d2d565b73ffffffffffffffffffffffffffffffffffffffff161461189d576040517f08c379a000000000000000000000000000000000000000000000000000000000815260040161189490612592565b60405180910390fd5b6000600160008373ffffffffffffffffffffffffffffffffffffffff1673ffffffffffffffffffffffffffffffffffffffff16815260200190815260200160002060006101000a81548160ff02191690831515021790555050565b611900611c7a565b73ffffffffffffffffffffffffffffffffffffffff1661191e610d2d565b73ffffffffffffffffffffffffffffffffffffffff1614611974576040517f08c379a000000000000000000000000000000000000000000000000000000000815260040161196b90612592565b60405180910390fd5b60018060008373ffffffffffffffffffffffffffffffffffffffff1673ffffffffffffffffffffffffffffffffffffffff16815260200190815260200160002060006101000a81548160ff02191690831515021790555050565b600160003373ffffffffffffffffffffffffffffffffffffffff1673ffffffffffffffffffffffffffffffffffffffff16815260200190815260200160002060009054906101000a900460ff16611a5a576040517f08c379a0000000000000000000000000000000000000000000000000000000008152600401611a5190612572565b60405180910390fd5b600073ffffffffffffffffffffffffffffffffffffffff168273ffffffffffffffffffffffffffffffffffffffff161415611af45780600384604051611aa091906123b0565b908152602001604051809103902060008073ffffffffffffffffffffffffffffffffffffffff1673ffffffffffffffffffffffffffffffffffffffff16815260200190815260200160002081905550611b55565b80600384604051611b0591906123b0565b908152602001604051809103902060008473ffffffffffffffffffffffffffffffffffffffff1673ffffffffffffffffffffffffffffffffffffffff168152602001908152602001600020819055505b505050565b611b62611c7a565b73ffffffffffffffffffffffffffffffffffffffff16611b80610d2d565b73ffffffffffffffffffffffffffffffffffffffff1614611bd6576040517f08c379a0000000000000000000000000000000000000000000000000000000008152600401611bcd90612592565b60405180910390fd5b600073ffffffffffffffffffffffffffffffffffffffff168173ffffffffffffffffffffffffffffffffffffffff161415611c46576040517f08c379a0000000000000000000000000000000000000000000000000000000008152600401611c3d90612512565b60405180910390fd5b611c4f81611c82565b50565b6000600482604051611c6491906123b0565b9081526020016040518091039020549050919050565b600033905090565b60008060009054906101000a900473ffffffffffffffffffffffffffffffffffffffff169050816000806101000a81548173ffffffffffffffffffffffffffffffffffffffff021916908373ffffffffffffffffffffffffffffffffffffffff1602179055508173ffffffffffffffffffffffffffffffffffffffff168173ffffffffffffffffffffffffffffffffffffffff167f8be0079c531659141344cd1fd0a4f28419497f9722a3daafe3b4186f6b6457e060405160405180910390a35050565b6000611d59611d5484612672565b61264d565b905082815260208101848484011115611d7157600080fd5b611d7c848285612816565b509392505050565b6000611d97611d92846126a3565b61264d565b905082815260208101848484011115611daf57600080fd5b611dba848285612816565b509392505050565b600081359050611dd181612ae4565b92915050565b600081519050611de681612afb565b92915050565b600082601f830112611dfd57600080fd5b8135611e0d848260208601611d46565b91505092915050565b600081359050611e2581612b12565b92915050565b600082601f830112611e3c57600080fd5b8135611e4c848260208601611d84565b91505092915050565b600081359050611e6481612b29565b92915050565b600081519050611e7981612b29565b92915050565b600060208284031215611e9157600080fd5b6000611e9f84828501611dc2565b91505092915050565b60008060008060808587031215611ebe57600080fd5b6000611ecc87828801611dc2565b9450506020611edd87828801611dc2565b9350506040611eee87828801611e55565b925050606085013567ffffffffffffffff811115611f0b57600080fd5b611f1787828801611dec565b91505092959194509250565b60008060408385031215611f3657600080fd5b6000611f4485828601611dc2565b9250506020611f5585828601611e55565b9150509250929050565b600060208284031215611f7157600080fd5b6000611f7f84828501611dd7565b91505092915050565b60008060408385031215611f9b57600080fd5b6000611fa985828601611e16565b9250506020611fba85828601611dc2565b9150509250929050565b600080600060608486031215611fd957600080fd5b6000611fe786828701611e16565b9350506020611ff886828701611dc2565b925050604061200986828701611e55565b9150509250925092565b60006020828403121561202557600080fd5b600082013567ffffffffffffffff81111561203f57600080fd5b61204b84828501611e2b565b91505092915050565b6000806040838503121561206757600080fd5b600083013567ffffffffffffffff81111561208157600080fd5b61208d85828601611e2b565b925050602061209e85828601611dc2565b9150509250929050565b6000806000606084860312156120bd57600080fd5b600084013567ffffffffffffffff8111156120d757600080fd5b6120e386828701611e2b565b93505060206120f486828701611dc2565b925050604061210586828701611e55565b9150509250925092565b60008060006060848603121561212457600080fd5b600084013567ffffffffffffffff81111561213e57600080fd5b61214a86828701611e2b565b935050602061215b86828701611e55565b925050604061216c86828701611e55565b9150509250925092565b60006020828403121561218857600080fd5b600061219684828501611e6a565b91505092915050565b6121a881612790565b82525050565b6121b7816127a2565b82525050565b6121c6816127ae565b82525050565b60006121d7826126d4565b6121e181856126fb565b93506121f1818560208601612825565b80840191505092915050565b600061220a6016836126ea565b9150612215826128f8565b602082019050919050565b600061222d601f836126ea565b915061223882612921565b602082019050919050565b60006122506026836126ea565b915061225b8261294a565b604082019050919050565b60006122736014836126ea565b915061227e82612999565b602082019050919050565b60006122966018836126ea565b91506122a1826129c2565b602082019050919050565b60006122b9601b836126ea565b91506122c4826129eb565b602082019050919050565b60006122dc6020836126ea565b91506122e782612a14565b602082019050919050565b60006122ff6019836126ea565b915061230a82612a3d565b602082019050919050565b60006123226000836126df565b915061232d82612a66565b600082019050919050565b6000612345600d836126ea565b915061235082612a69565b602082019050919050565b60006123686016836126ea565b915061237382612a92565b602082019050919050565b600061238b600d836126ea565b915061239682612abb565b602082019050919050565b6123aa8161280c565b82525050565b60006123bc82846121cc565b915081905092915050565b60006123d282612315565b9150819050919050565b60006020820190506123f1600083018461219f565b92915050565b600060608201905061240c600083018661219f565b612419602083018561219f565b61242660408301846123a1565b949350505050565b6000604082019050612443600083018561219f565b61245060208301846123a1565b9392505050565b600060808201905061246c600083018761219f565b61247960208301866123a1565b612486604083018561219f565b61249360608301846123a1565b95945050505050565b60006020820190506124b160008301846121ae565b92915050565b60006020820190506124cc60008301846121bd565b92915050565b600060208201905081810360008301526124eb816121fd565b9050919050565b6000602082019050818103600083015261250b81612220565b9050919050565b6000602082019050818103600083015261252b81612243565b9050919050565b6000602082019050818103600083015261254b81612266565b9050919050565b6000602082019050818103600083015261256b81612289565b9050919050565b6000602082019050818103600083015261258b816122ac565b9050919050565b600060208201905081810360008301526125ab816122cf565b9050919050565b600060208201905081810360008301526125cb816122f2565b9050919050565b600060208201905081810360008301526125eb81612338565b9050919050565b6000602082019050818103600083015261260b8161235b565b9050919050565b6000602082019050818103600083015261262b8161237e565b9050919050565b600060208201905061264760008301846123a1565b92915050565b6000612657612668565b90506126638282612858565b919050565b6000604051905090565b600067ffffffffffffffff82111561268d5761268c6128b8565b5b612696826128e7565b9050602081019050919050565b600067ffffffffffffffff8211156126be576126bd6128b8565b5b6126c7826128e7565b9050602081019050919050565b600081519050919050565b600081905092915050565b600082825260208201905092915050565b600081905092915050565b60006127118261280c565b915061271c8361280c565b9250827fffffffffffffffffffffffffffffffffffffffffffffffffffffffffffffffff0382111561275157612750612889565b5b828201905092915050565b60006127678261280c565b91506127728361280c565b92508282101561278557612784612889565b5b828203905092915050565b600061279b826127ec565b9050919050565b60008115159050919050565b60007fffffffff0000000000000000000000000000000000000000000000000000000082169050919050565b60006127e582612790565b9050919050565b600073ffffffffffffffffffffffffffffffffffffffff82169050919050565b6000819050919050565b82818337600083830152505050565b60005b83811015612843578082015181840152602081019050612828565b83811115612852576000848401525b50505050565b612861826128e7565b810181811067ffffffffffffffff821117156128805761287f6128b8565b5b80604052505050565b7f4e487b7100000000000000000000000000000000000000000000000000000000600052601160045260246000fd5b7f4e487b7100000000000000000000000000000000000000000000000000000000600052604160045260246000fd5b6000601f19601f8301169050919050565b7f6661696c656420746f20776974686472617720424e4200000000000000000000600082015250565b7f776974686472617720616d6f756e7420657863656564732062616c616e636500600082015250565b7f4f776e61626c653a206e6577206f776e657220697320746865207a65726f206160008201527f6464726573730000000000000000000000000000000000000000000000000000602082015250565b7f53686f7020697320636c6f73696e67206e6f7721000000000000000000000000600082015250565b7f626f7854797065206973206e6f7420617661696c61626c650000000000000000600082015250565b7f63616c6c6572206973206e6f7420746865206f70657261746f72730000000000600082015250565b7f4f776e61626c653a2063616c6c6572206973206e6f7420746865206f776e6572600082015250565b7f7175616e74697479206d757374206265206e6f6e2d7a65726f00000000000000600082015250565b50565b7f6e6f7420617661696c61626c6500000000000000000000000000000000000000600082015250565b7f7072696365206d757374206265206e6f6e2d7a65726f00000000000000000000600082015250565b7f726566756e64206661696c656400000000000000000000000000000000000000600082015250565b612aed81612790565b8114612af857600080fd5b50565b612b04816127a2565b8114612b0f57600080fd5b50565b612b1b816127da565b8114612b2657600080fd5b50565b612b328161280c565b8114612b3d57600080fd5b5056fea2646970667358221220c5c4340693213eb9131daf4d110ef45714a3bda983fdd65a5644047510e6aa4664736f6c63430008040033",
  "linkReferences": {},
  "deployedLinkReferences": {}
}