{
  "_format": "hh-sol-artifact-1",
  "contractName": "BeFitterClaim",
  "sourceName": "contracts/BeFitterClaim.sol",
  "abi": [
    {
      "inputs": [
        {
          "internalType": "address",
          "name": "boxAddress",
          "type": "address"
        },
        {
          "internalType": "bytes32",
          "name": "merkleRoot",
          "type": "bytes32"
        },
        {
          "internalType": "uint256",
          "name": "totalToken",
          "type": "uint256"
        },
        {
          "internalType": "string",
          "name": "boxType",
          "type": "string"
        }
      ],
      "stateMutability": "nonpayable",
      "type": "constructor"
    },
    {
      "anonymous": false,
      "inputs": [
        {
          "indexed": true,
          "internalType": "address",
          "name": "to",
          "type": "address"
        }
      ],
      "name": "ItemClaimed",
      "type": "event"
    },
    {
      "anonymous": false,
      "inputs": [
        {
          "indexed": true,
          "internalType": "address",
          "name": "previousOwner",
          "type": "address"
        },
        {
          "indexed": true,
          "internalType": "address",
          "name": "newOwner",
          "type": "address"
        }
      ],
      "name": "OwnershipTransferred",
      "type": "event"
    },
    {
      "inputs": [],
      "name": "_merkleRoot",
      "outputs": [
        {
          "internalType": "bytes32",
          "name": "",
          "type": "bytes32"
        }
      ],
      "stateMutability": "view",
      "type": "function"
    },
    {
      "inputs": [
        {
          "internalType": "address",
          "name": "wallet",
          "type": "address"
        },
        {
          "internalType": "uint256",
          "name": "amount",
          "type": "uint256"
        },
        {
          "internalType": "bytes32[]",
          "name": "merkleProof",
          "type": "bytes32[]"
        }
      ],
      "name": "claim",
      "outputs": [],
      "stateMutability": "nonpayable",
      "type": "function"
    },
    {
      "inputs": [
        {
          "internalType": "address",
          "name": "wallet",
          "type": "address"
        }
      ],
      "name": "getNumberOfClaimedItem",
      "outputs": [
        {
          "internalType": "uint256",
          "name": "",
          "type": "uint256"
        }
      ],
      "stateMutability": "view",
      "type": "function"
    },
    {
      "inputs": [],
      "name": "owner",
      "outputs": [
        {
          "internalType": "address",
          "name": "",
          "type": "address"
        }
      ],
      "stateMutability": "view",
      "type": "function"
    },
    {
      "inputs": [],
      "name": "renounceOwnership",
      "outputs": [],
      "stateMutability": "nonpayable",
      "type": "function"
    },
    {
      "inputs": [
        {
          "internalType": "address",
          "name": "newOwner",
          "type": "address"
        }
      ],
      "name": "transferOwnership",
      "outputs": [],
      "stateMutability": "nonpayable",
      "type": "function"
    },
    {
      "inputs": [
        {
          "internalType": "bytes32",
          "name": "merkleRoot",
          "type": "bytes32"
        },
        {
          "internalType": "uint256",
          "name": "totalAmount",
          "type": "uint256"
        }
      ],
      "name": "updateRoot",
      "outputs": [],
      "stateMutability": "nonpayable",
      "type": "function"
    }
  ],
  "bytecode": "0x60806040523480156200001157600080fd5b506040516200163538038062001635833981810160405281019062000037919062000304565b620000576200004b620000d160201b60201c565b620000d960201b60201c565b83600160006101000a81548173ffffffffffffffffffffffffffffffffffffffff021916908373ffffffffffffffffffffffffffffffffffffffff16021790555082600281905550816003819055508060059080519060200190620000be9291906200019d565b506000600481905550505050506200058f565b600033905090565b60008060009054906101000a900473ffffffffffffffffffffffffffffffffffffffff169050816000806101000a81548173ffffffffffffffffffffffffffffffffffffffff021916908373ffffffffffffffffffffffffffffffffffffffff1602179055508173ffffffffffffffffffffffffffffffffffffffff168173ffffffffffffffffffffffffffffffffffffffff167f8be0079c531659141344cd1fd0a4f28419497f9722a3daafe3b4186f6b6457e060405160405180910390a35050565b828054620001ab9062000466565b90600052602060002090601f016020900481019282620001cf57600085556200021b565b82601f10620001ea57805160ff19168380011785556200021b565b828001600101855582156200021b579182015b828111156200021a578251825591602001919060010190620001fd565b5b5090506200022a91906200022e565b5090565b5b80821115620002495760008160009055506001016200022f565b5090565b6000620002646200025e84620003b2565b62000389565b9050828152602081018484840111156200027d57600080fd5b6200028a84828562000430565b509392505050565b600081519050620002a38162000541565b92915050565b600081519050620002ba816200055b565b92915050565b600082601f830112620002d257600080fd5b8151620002e48482602086016200024d565b91505092915050565b600081519050620002fe8162000575565b92915050565b600080600080608085870312156200031b57600080fd5b60006200032b8782880162000292565b94505060206200033e87828801620002a9565b93505060406200035187828801620002ed565b925050606085015167ffffffffffffffff8111156200036f57600080fd5b6200037d87828801620002c0565b91505092959194509250565b600062000395620003a8565b9050620003a382826200049c565b919050565b6000604051905090565b600067ffffffffffffffff821115620003d057620003cf62000501565b5b620003db8262000530565b9050602081019050919050565b6000620003f58262000406565b9050919050565b6000819050919050565b600073ffffffffffffffffffffffffffffffffffffffff82169050919050565b6000819050919050565b60005b838110156200045057808201518184015260208101905062000433565b8381111562000460576000848401525b50505050565b600060028204905060018216806200047f57607f821691505b60208210811415620004965762000495620004d2565b5b50919050565b620004a78262000530565b810181811067ffffffffffffffff82111715620004c957620004c862000501565b5b80604052505050565b7f4e487b7100000000000000000000000000000000000000000000000000000000600052602260045260246000fd5b7f4e487b7100000000000000000000000000000000000000000000000000000000600052604160045260246000fd5b6000601f19601f8301169050919050565b6200054c81620003e8565b81146200055857600080fd5b50565b6200056681620003fc565b81146200057257600080fd5b50565b620005808162000426565b81146200058c57600080fd5b50565b611096806200059f6000396000f3fe608060405234801561001057600080fd5b506004361061007d5760003560e01c8063715018a61161005b578063715018a6146100ec5780638da5cb5b146100f6578063c2e3e62b14610114578063f2fde38b146101305761007d565b80630a82cfe9146100825780632fc37ab2146100b25780633d13f874146100d0575b600080fd5b61009c600480360381019061009791906109aa565b61014c565b6040516100a99190610d37565b60405180910390f35b6100ba610195565b6040516100c79190610c7c565b60405180910390f35b6100ea60048036038101906100e591906109d3565b61019b565b005b6100f4610486565b005b6100fe61050e565b60405161010b9190610c31565b60405180910390f35b61012e60048036038101906101299190610a3f565b610537565b005b61014a600480360381019061014591906109aa565b6105c5565b005b6000600760008373ffffffffffffffffffffffffffffffffffffffff1673ffffffffffffffffffffffffffffffffffffffff168152602001908152602001600020549050919050565b60025481565b600083116101de576040517f08c379a00000000000000000000000000000000000000000000000000000000081526004016101d590610d17565b60405180910390fd5b6101ea848484846106bd565b610229576040517f08c379a000000000000000000000000000000000000000000000000000000000815260040161022090610cf7565b60405180910390fd5b6000600660008673ffffffffffffffffffffffffffffffffffffffff1673ffffffffffffffffffffffffffffffffffffffff16815260200190815260200160002054141561027c5761027b8484610744565b5b600660008573ffffffffffffffffffffffffffffffffffffffff1673ffffffffffffffffffffffffffffffffffffffff16815260200190815260200160002054600760008673ffffffffffffffffffffffffffffffffffffffff1673ffffffffffffffffffffffffffffffffffffffff168152602001908152602001600020541061033c576040517f08c379a000000000000000000000000000000000000000000000000000000000815260040161033390610cb7565b60405180910390fd5b600160009054906101000a900473ffffffffffffffffffffffffffffffffffffffff1673ffffffffffffffffffffffffffffffffffffffff1663d0def5218560056040518363ffffffff1660e01b815260040161039a929190610c4c565b600060405180830381600087803b1580156103b457600080fd5b505af11580156103c8573d6000803e3d6000fd5b505050506001600760008673ffffffffffffffffffffffffffffffffffffffff1673ffffffffffffffffffffffffffffffffffffffff168152602001908152602001600020600082825461041c9190610d78565b925050819055506001600460008282546104369190610d78565b925050819055508373ffffffffffffffffffffffffffffffffffffffff167f53d342539c13e3f422ef43273285a5796b4e6924562fc29d8828f2303f2557bc60405160405180910390a250505050565b61048e61078c565b73ffffffffffffffffffffffffffffffffffffffff166104ac61050e565b73ffffffffffffffffffffffffffffffffffffffff1614610502576040517f08c379a00000000000000000000000000000000000000000000000000000000081526004016104f990610cd7565b60405180910390fd5b61050c6000610794565b565b60008060009054906101000a900473ffffffffffffffffffffffffffffffffffffffff16905090565b61053f61078c565b73ffffffffffffffffffffffffffffffffffffffff1661055d61050e565b73ffffffffffffffffffffffffffffffffffffffff16146105b3576040517f08c379a00000000000000000000000000000000000000000000000000000000081526004016105aa90610cd7565b60405180910390fd5b81600281905550806003819055505050565b6105cd61078c565b73ffffffffffffffffffffffffffffffffffffffff166105eb61050e565b73ffffffffffffffffffffffffffffffffffffffff1614610641576040517f08c379a000000000000000000000000000000000000000000000000000000000815260040161063890610cd7565b60405180910390fd5b600073ffffffffffffffffffffffffffffffffffffffff168173ffffffffffffffffffffffffffffffffffffffff1614156106b1576040517f08c379a00000000000000000000000000000000000000000000000000000000081526004016106a890610c97565b60405180910390fd5b6106ba81610794565b50565b60008085856040516020016106d3929190610c05565b604051602081830303815290604052805190602001209050610739848480806020026020016040519081016040528093929190818152602001838360200280828437600081840152601f19601f8201169050808301925050505050505060025483610858565b915050949350505050565b80600660008473ffffffffffffffffffffffffffffffffffffffff1673ffffffffffffffffffffffffffffffffffffffff168152602001908152602001600020819055505050565b600033905090565b60008060009054906101000a900473ffffffffffffffffffffffffffffffffffffffff169050816000806101000a81548173ffffffffffffffffffffffffffffffffffffffff021916908373ffffffffffffffffffffffffffffffffffffffff1602179055508173ffffffffffffffffffffffffffffffffffffffff168173ffffffffffffffffffffffffffffffffffffffff167f8be0079c531659141344cd1fd0a4f28419497f9722a3daafe3b4186f6b6457e060405160405180910390a35050565b600082610865858461086f565b1490509392505050565b60008082905060005b84518110156108ff5760008582815181106108bc577f4e487b7100000000000000000000000000000000000000000000000000000000600052603260045260246000fd5b602002602001015190508083116108de576108d7838261090a565b92506108eb565b6108e8818461090a565b92505b5080806108f790610e46565b915050610878565b508091505092915050565b600082600052816020526040600020905092915050565b6000813590506109308161101b565b92915050565b60008083601f84011261094857600080fd5b8235905067ffffffffffffffff81111561096157600080fd5b60208301915083602082028301111561097957600080fd5b9250929050565b60008135905061098f81611032565b92915050565b6000813590506109a481611049565b92915050565b6000602082840312156109bc57600080fd5b60006109ca84828501610921565b91505092915050565b600080600080606085870312156109e957600080fd5b60006109f787828801610921565b9450506020610a0887828801610995565b935050604085013567ffffffffffffffff811115610a2557600080fd5b610a3187828801610936565b925092505092959194509250565b60008060408385031215610a5257600080fd5b6000610a6085828601610980565b9250506020610a7185828601610995565b9150509250929050565b610a8481610dce565b82525050565b610a9b610a9682610dce565b610e8f565b82525050565b610aaa81610de0565b82525050565b60008154610abd81610e14565b610ac78186610d67565b94506001821660008114610ae25760018114610af457610b27565b60ff1983168652602086019350610b27565b610afd85610d52565b60005b83811015610b1f57815481890152600182019150602081019050610b00565b808801955050505b50505092915050565b6000610b3d602683610d67565b9150610b4882610f28565b604082019050919050565b6000610b60601583610d67565b9150610b6b82610f77565b602082019050919050565b6000610b83602083610d67565b9150610b8e82610fa0565b602082019050919050565b6000610ba6601483610d67565b9150610bb182610fc9565b602082019050919050565b6000610bc9601583610d67565b9150610bd482610ff2565b602082019050919050565b610be881610e0a565b82525050565b610bff610bfa82610e0a565b610eb3565b82525050565b6000610c118285610a8a565b601482019150610c218284610bee565b6020820191508190509392505050565b6000602082019050610c466000830184610a7b565b92915050565b6000604082019050610c616000830185610a7b565b8181036020830152610c738184610ab0565b90509392505050565b6000602082019050610c916000830184610aa1565b92915050565b60006020820190508181036000830152610cb081610b30565b9050919050565b60006020820190508181036000830152610cd081610b53565b9050919050565b60006020820190508181036000830152610cf081610b76565b9050919050565b60006020820190508181036000830152610d1081610b99565b9050919050565b60006020820190508181036000830152610d3081610bbc565b9050919050565b6000602082019050610d4c6000830184610bdf565b92915050565b60008190508160005260206000209050919050565b600082825260208201905092915050565b6000610d8382610e0a565b9150610d8e83610e0a565b9250827fffffffffffffffffffffffffffffffffffffffffffffffffffffffffffffffff03821115610dc357610dc2610ebd565b5b828201905092915050565b6000610dd982610dea565b9050919050565b6000819050919050565b600073ffffffffffffffffffffffffffffffffffffffff82169050919050565b6000819050919050565b60006002820490506001821680610e2c57607f821691505b60208210811415610e4057610e3f610eec565b5b50919050565b6000610e5182610e0a565b91507fffffffffffffffffffffffffffffffffffffffffffffffffffffffffffffffff821415610e8457610e83610ebd565b5b600182019050919050565b6000610e9a82610ea1565b9050919050565b6000610eac82610f1b565b9050919050565b6000819050919050565b7f4e487b7100000000000000000000000000000000000000000000000000000000600052601160045260246000fd5b7f4e487b7100000000000000000000000000000000000000000000000000000000600052602260045260246000fd5b60008160601b9050919050565b7f4f776e61626c653a206e6577206f776e657220697320746865207a65726f206160008201527f6464726573730000000000000000000000000000000000000000000000000000602082015250565b7f6e6f7468696e67206c65667420746f20636c61696d0000000000000000000000600082015250565b7f4f776e61626c653a2063616c6c6572206973206e6f7420746865206f776e6572600082015250565b7f496e76616c6964206d65726b6c652070726f6f66000000000000000000000000600082015250565b7f616d6f756e742063616e6e6f74206265207a65726f0000000000000000000000600082015250565b61102481610dce565b811461102f57600080fd5b50565b61103b81610de0565b811461104657600080fd5b50565b61105281610e0a565b811461105d57600080fd5b5056fea264697066735822122036b5cfb1e4d53bdf6786099dc298b8f5e3a6c7cffd5f10975cd71cdc562311fd64736f6c63430008040033",
  "linkReferences": {},
  "deployedLinkReferences": {}
}