{
  "_format": "hh-sol-artifact-1",
  "contractName": "BeFitterClaim",
  "sourceName": "contracts/BeFitterClaim.sol",
  "abi": [
    {
      "inputs": [
        {
          "internalType": "address",
          "name": "boxAddress",
          "type": "address"
        },
        {
          "internalType": "bytes32",
          "name": "merkleRoot",
          "type": "bytes32"
        },
        {
          "internalType": "uint256",
          "name": "totalToken",
          "type": "uint256"
        },
        {
          "internalType": "string",
          "name": "boxType",
          "type": "string"
        }
      ],
      "stateMutability": "nonpayable",
      "type": "constructor"
    },
    {
      "anonymous": false,
      "inputs": [
        {
          "indexed": true,
          "internalType": "address",
          "name": "to",
          "type": "address"
        }
      ],
      "name": "ItemClaimed",
      "type": "event"
    },
    {
      "anonymous": false,
      "inputs": [
        {
          "indexed": true,
          "internalType": "address",
          "name": "previousOwner",
          "type": "address"
        },
        {
          "indexed": true,
          "internalType": "address",
          "name": "newOwner",
          "type": "address"
        }
      ],
      "name": "OwnershipTransferred",
      "type": "event"
    },
    {
      "inputs": [],
      "name": "_merkleRoot",
      "outputs": [
        {
          "internalType": "bytes32",
          "name": "",
          "type": "bytes32"
        }
      ],
      "stateMutability": "view",
      "type": "function"
    },
    {
      "inputs": [
        {
          "internalType": "address",
          "name": "wallet",
          "type": "address"
        },
        {
          "internalType": "uint256",
          "name": "amount",
          "type": "uint256"
        },
        {
          "internalType": "bytes32[]",
          "name": "merkleProof",
          "type": "bytes32[]"
        }
      ],
      "name": "claim",
      "outputs": [],
      "stateMutability": "nonpayable",
      "type": "function"
    },
    {
      "inputs": [
        {
          "internalType": "address",
          "name": "wallet",
          "type": "address"
        }
      ],
      "name": "getNumberOfClaimedItem",
      "outputs": [
        {
          "internalType": "uint256",
          "name": "",
          "type": "uint256"
        }
      ],
      "stateMutability": "view",
      "type": "function"
    },
    {
      "inputs": [],
      "name": "owner",
      "outputs": [
        {
          "internalType": "address",
          "name": "",
          "type": "address"
        }
      ],
      "stateMutability": "view",
      "type": "function"
    },
    {
      "inputs": [],
      "name": "renounceOwnership",
      "outputs": [],
      "stateMutability": "nonpayable",
      "type": "function"
    },
    {
      "inputs": [],
      "name": "startClaim",
      "outputs": [],
      "stateMutability": "nonpayable",
      "type": "function"
    },
    {
      "inputs": [],
      "name": "stopClaim",
      "outputs": [],
      "stateMutability": "nonpayable",
      "type": "function"
    },
    {
      "inputs": [
        {
          "internalType": "address",
          "name": "newOwner",
          "type": "address"
        }
      ],
      "name": "transferOwnership",
      "outputs": [],
      "stateMutability": "nonpayable",
      "type": "function"
    },
    {
      "inputs": [
        {
          "internalType": "bytes32",
          "name": "merkleRoot",
          "type": "bytes32"
        },
        {
          "internalType": "uint256",
          "name": "totalAmount",
          "type": "uint256"
        }
      ],
      "name": "updateRoot",
      "outputs": [],
      "stateMutability": "nonpayable",
      "type": "function"
    }
  ],
  "bytecode": "0x60806040523480156200001157600080fd5b506040516200182a3803806200182a83398181016040528101906200003791906200031f565b620000576200004b620000ec60201b60201c565b620000f460201b60201c565b83600160006101000a81548173ffffffffffffffffffffffffffffffffffffffff021916908373ffffffffffffffffffffffffffffffffffffffff16021790555082600281905550816003819055508060059080519060200190620000be929190620001b8565b5060006004819055506000600860006101000a81548160ff02191690831515021790555050505050620005aa565b600033905090565b60008060009054906101000a900473ffffffffffffffffffffffffffffffffffffffff169050816000806101000a81548173ffffffffffffffffffffffffffffffffffffffff021916908373ffffffffffffffffffffffffffffffffffffffff1602179055508173ffffffffffffffffffffffffffffffffffffffff168173ffffffffffffffffffffffffffffffffffffffff167f8be0079c531659141344cd1fd0a4f28419497f9722a3daafe3b4186f6b6457e060405160405180910390a35050565b828054620001c69062000481565b90600052602060002090601f016020900481019282620001ea576000855562000236565b82601f106200020557805160ff191683800117855562000236565b8280016001018555821562000236579182015b828111156200023557825182559160200191906001019062000218565b5b50905062000245919062000249565b5090565b5b80821115620002645760008160009055506001016200024a565b5090565b60006200027f6200027984620003cd565b620003a4565b9050828152602081018484840111156200029857600080fd5b620002a58482856200044b565b509392505050565b600081519050620002be816200055c565b92915050565b600081519050620002d58162000576565b92915050565b600082601f830112620002ed57600080fd5b8151620002ff84826020860162000268565b91505092915050565b600081519050620003198162000590565b92915050565b600080600080608085870312156200033657600080fd5b60006200034687828801620002ad565b94505060206200035987828801620002c4565b93505060406200036c8782880162000308565b925050606085015167ffffffffffffffff8111156200038a57600080fd5b6200039887828801620002db565b91505092959194509250565b6000620003b0620003c3565b9050620003be8282620004b7565b919050565b6000604051905090565b600067ffffffffffffffff821115620003eb57620003ea6200051c565b5b620003f6826200054b565b9050602081019050919050565b6000620004108262000421565b9050919050565b6000819050919050565b600073ffffffffffffffffffffffffffffffffffffffff82169050919050565b6000819050919050565b60005b838110156200046b5780820151818401526020810190506200044e565b838111156200047b576000848401525b50505050565b600060028204905060018216806200049a57607f821691505b60208210811415620004b157620004b0620004ed565b5b50919050565b620004c2826200054b565b810181811067ffffffffffffffff82111715620004e457620004e36200051c565b5b80604052505050565b7f4e487b7100000000000000000000000000000000000000000000000000000000600052602260045260246000fd5b7f4e487b7100000000000000000000000000000000000000000000000000000000600052604160045260246000fd5b6000601f19601f8301169050919050565b620005678162000403565b81146200057357600080fd5b50565b620005818162000417565b81146200058d57600080fd5b50565b6200059b8162000441565b8114620005a757600080fd5b50565b61127080620005ba6000396000f3fe608060405234801561001057600080fd5b50600436106100935760003560e01c80638da5cb5b116100665780638da5cb5b1461010c578063c2e3e62b1461012a578063ecbfc07714610146578063f2fde38b14610150578063ff6c9bc91461016c57610093565b80630a82cfe9146100985780632fc37ab2146100c85780633d13f874146100e6578063715018a614610102575b600080fd5b6100b260048036038101906100ad9190610ae4565b610176565b6040516100bf9190610eb4565b60405180910390f35b6100d06101bf565b6040516100dd9190610dd9565b60405180910390f35b61010060048036038101906100fb9190610b0d565b6101c5565b005b61010a610648565b005b61011461065c565b6040516101219190610d8e565b60405180910390f35b610144600480360381019061013f9190610b79565b610685565b005b61014e61069f565b005b61016a60048036038101906101659190610ae4565b6106c4565b005b610174610748565b005b6000600760008373ffffffffffffffffffffffffffffffffffffffff1673ffffffffffffffffffffffffffffffffffffffff168152602001908152602001600020549050919050565b60025481565b60011515600860009054906101000a900460ff1615151461021b576040517f08c379a000000000000000000000000000000000000000000000000000000000815260040161021290610df4565b60405180910390fd5b6000831161025e576040517f08c379a000000000000000000000000000000000000000000000000000000000815260040161025590610e94565b60405180910390fd5b61026a8484848461076d565b6102a9576040517f08c379a00000000000000000000000000000000000000000000000000000000081526004016102a090610e74565b60405180910390fd5b6000600660008673ffffffffffffffffffffffffffffffffffffffff1673ffffffffffffffffffffffffffffffffffffffff1681526020019081526020016000205414156102fc576102fb84846107f4565b5b600660008573ffffffffffffffffffffffffffffffffffffffff1673ffffffffffffffffffffffffffffffffffffffff16815260200190815260200160002054600760008673ffffffffffffffffffffffffffffffffffffffff1673ffffffffffffffffffffffffffffffffffffffff16815260200190815260200160002054106103bc576040517f08c379a00000000000000000000000000000000000000000000000000000000081526004016103b390610e34565b60405180910390fd5b600060059050600760008673ffffffffffffffffffffffffffffffffffffffff1673ffffffffffffffffffffffffffffffffffffffff16815260200190815260200160002054600660008773ffffffffffffffffffffffffffffffffffffffff1673ffffffffffffffffffffffffffffffffffffffff1681526020019081526020016000205461044c9190610f4b565b8111156104e057600760008673ffffffffffffffffffffffffffffffffffffffff1673ffffffffffffffffffffffffffffffffffffffff16815260200190815260200160002054600660008773ffffffffffffffffffffffffffffffffffffffff1673ffffffffffffffffffffffffffffffffffffffff168152602001908152602001600020546104dd9190610f4b565b90505b80600760008773ffffffffffffffffffffffffffffffffffffffff1673ffffffffffffffffffffffffffffffffffffffff168152602001908152602001600020600082825461052f9190610ef5565b9250508190555080600460008282546105489190610ef5565b9250508190555060005b818110156105fd57600160009054906101000a900473ffffffffffffffffffffffffffffffffffffffff1673ffffffffffffffffffffffffffffffffffffffff1663d0def5218760056040518363ffffffff1660e01b81526004016105b8929190610da9565b600060405180830381600087803b1580156105d257600080fd5b505af11580156105e6573d6000803e3d6000fd5b5050505080806105f590610ff7565b915050610552565b508473ffffffffffffffffffffffffffffffffffffffff167f53d342539c13e3f422ef43273285a5796b4e6924562fc29d8828f2303f2557bc60405160405180910390a25050505050565b61065061083c565b61065a60006108ba565b565b60008060009054906101000a900473ffffffffffffffffffffffffffffffffffffffff16905090565b61068d61083c565b81600281905550806003819055505050565b6106a761083c565b6001600860006101000a81548160ff021916908315150217905550565b6106cc61083c565b600073ffffffffffffffffffffffffffffffffffffffff168173ffffffffffffffffffffffffffffffffffffffff16141561073c576040517f08c379a000000000000000000000000000000000000000000000000000000000815260040161073390610e14565b60405180910390fd5b610745816108ba565b50565b61075061083c565b6000600860006101000a81548160ff021916908315150217905550565b6000808585604051602001610783929190610d62565b6040516020818303038152906040528051906020012090506107e9848480806020026020016040519081016040528093929190818152602001838360200280828437600081840152601f19601f820116905080830192505050505050506002548361097e565b915050949350505050565b80600660008473ffffffffffffffffffffffffffffffffffffffff1673ffffffffffffffffffffffffffffffffffffffff168152602001908152602001600020819055505050565b610844610995565b73ffffffffffffffffffffffffffffffffffffffff1661086261065c565b73ffffffffffffffffffffffffffffffffffffffff16146108b8576040517f08c379a00000000000000000000000000000000000000000000000000000000081526004016108af90610e54565b60405180910390fd5b565b60008060009054906101000a900473ffffffffffffffffffffffffffffffffffffffff169050816000806101000a81548173ffffffffffffffffffffffffffffffffffffffff021916908373ffffffffffffffffffffffffffffffffffffffff1602179055508173ffffffffffffffffffffffffffffffffffffffff168173ffffffffffffffffffffffffffffffffffffffff167f8be0079c531659141344cd1fd0a4f28419497f9722a3daafe3b4186f6b6457e060405160405180910390a35050565b60008261098b858461099d565b1490509392505050565b600033905090565b60008082905060005b8451811015610a0e576109f9828683815181106109ec577f4e487b7100000000000000000000000000000000000000000000000000000000600052603260045260246000fd5b6020026020010151610a19565b91508080610a0690610ff7565b9150506109a6565b508091505092915050565b6000818310610a3157610a2c8284610a44565b610a3c565b610a3b8383610a44565b5b905092915050565b600082600052816020526040600020905092915050565b600081359050610a6a816111f5565b92915050565b60008083601f840112610a8257600080fd5b8235905067ffffffffffffffff811115610a9b57600080fd5b602083019150836020820283011115610ab357600080fd5b9250929050565b600081359050610ac98161120c565b92915050565b600081359050610ade81611223565b92915050565b600060208284031215610af657600080fd5b6000610b0484828501610a5b565b91505092915050565b60008060008060608587031215610b2357600080fd5b6000610b3187828801610a5b565b9450506020610b4287828801610acf565b935050604085013567ffffffffffffffff811115610b5f57600080fd5b610b6b87828801610a70565b925092505092959194509250565b60008060408385031215610b8c57600080fd5b6000610b9a85828601610aba565b9250506020610bab85828601610acf565b9150509250929050565b610bbe81610f7f565b82525050565b610bd5610bd082610f7f565b611040565b82525050565b610be481610f91565b82525050565b60008154610bf781610fc5565b610c018186610ee4565b94506001821660008114610c1c5760018114610c2e57610c61565b60ff1983168652602086019350610c61565b610c3785610ecf565b60005b83811015610c5957815481890152600182019150602081019050610c3a565b808801955050505b50505092915050565b6000610c77601183610ee4565b9150610c82826110d9565b602082019050919050565b6000610c9a602683610ee4565b9150610ca582611102565b604082019050919050565b6000610cbd601583610ee4565b9150610cc882611151565b602082019050919050565b6000610ce0602083610ee4565b9150610ceb8261117a565b602082019050919050565b6000610d03601483610ee4565b9150610d0e826111a3565b602082019050919050565b6000610d26601583610ee4565b9150610d31826111cc565b602082019050919050565b610d4581610fbb565b82525050565b610d5c610d5782610fbb565b611064565b82525050565b6000610d6e8285610bc4565b601482019150610d7e8284610d4b565b6020820191508190509392505050565b6000602082019050610da36000830184610bb5565b92915050565b6000604082019050610dbe6000830185610bb5565b8181036020830152610dd08184610bea565b90509392505050565b6000602082019050610dee6000830184610bdb565b92915050565b60006020820190508181036000830152610e0d81610c6a565b9050919050565b60006020820190508181036000830152610e2d81610c8d565b9050919050565b60006020820190508181036000830152610e4d81610cb0565b9050919050565b60006020820190508181036000830152610e6d81610cd3565b9050919050565b60006020820190508181036000830152610e8d81610cf6565b9050919050565b60006020820190508181036000830152610ead81610d19565b9050919050565b6000602082019050610ec96000830184610d3c565b92915050565b60008190508160005260206000209050919050565b600082825260208201905092915050565b6000610f0082610fbb565b9150610f0b83610fbb565b9250827fffffffffffffffffffffffffffffffffffffffffffffffffffffffffffffffff03821115610f4057610f3f61106e565b5b828201905092915050565b6000610f5682610fbb565b9150610f6183610fbb565b925082821015610f7457610f7361106e565b5b828203905092915050565b6000610f8a82610f9b565b9050919050565b6000819050919050565b600073ffffffffffffffffffffffffffffffffffffffff82169050919050565b6000819050919050565b60006002820490506001821680610fdd57607f821691505b60208210811415610ff157610ff061109d565b5b50919050565b600061100282610fbb565b91507fffffffffffffffffffffffffffffffffffffffffffffffffffffffffffffffff8214156110355761103461106e565b5b600182019050919050565b600061104b82611052565b9050919050565b600061105d826110cc565b9050919050565b6000819050919050565b7f4e487b7100000000000000000000000000000000000000000000000000000000600052601160045260246000fd5b7f4e487b7100000000000000000000000000000000000000000000000000000000600052602260045260246000fd5b60008160601b9050919050565b7f43616e6e6f7420636c61696d206e6f7721000000000000000000000000000000600082015250565b7f4f776e61626c653a206e6577206f776e657220697320746865207a65726f206160008201527f6464726573730000000000000000000000000000000000000000000000000000602082015250565b7f6e6f7468696e67206c65667420746f20636c61696d0000000000000000000000600082015250565b7f4f776e61626c653a2063616c6c6572206973206e6f7420746865206f776e6572600082015250565b7f496e76616c6964206d65726b6c652070726f6f66000000000000000000000000600082015250565b7f616d6f756e742063616e6e6f74206265207a65726f0000000000000000000000600082015250565b6111fe81610f7f565b811461120957600080fd5b50565b61121581610f91565b811461122057600080fd5b50565b61122c81610fbb565b811461123757600080fd5b5056fea26469706673582212202d4b386e6962111f4b7bb4eca49a3e50ba4d39b2d6a3580833b3bc04914d454364736f6c63430008040033",
  "linkReferences": {},
  "deployedLinkReferences": {}
}