{
  "_format": "hh-sol-artifact-1",
  "contractName": "BeFitterWallet",
  "sourceName": "contracts/BFWallet.sol",
  "abi": [
    {
      "inputs": [],
      "stateMutability": "nonpayable",
      "type": "constructor"
    },
    {
      "anonymous": false,
      "inputs": [
        {
          "indexed": true,
          "internalType": "address",
          "name": "from",
          "type": "address"
        },
        {
          "indexed": false,
          "internalType": "uint256",
          "name": "amount",
          "type": "uint256"
        },
        {
          "indexed": false,
          "internalType": "string",
          "name": "message",
          "type": "string"
        }
      ],
      "name": "DepositBNB",
      "type": "event"
    },
    {
      "anonymous": false,
      "inputs": [
        {
          "indexed": true,
          "internalType": "address",
          "name": "from",
          "type": "address"
        },
        {
          "indexed": true,
          "internalType": "address",
          "name": "tokenAddress",
          "type": "address"
        },
        {
          "indexed": false,
          "internalType": "uint256",
          "name": "tokenId",
          "type": "uint256"
        },
        {
          "indexed": false,
          "internalType": "string",
          "name": "message",
          "type": "string"
        }
      ],
      "name": "DepositItem",
      "type": "event"
    },
    {
      "anonymous": false,
      "inputs": [
        {
          "indexed": true,
          "internalType": "address",
          "name": "from",
          "type": "address"
        },
        {
          "indexed": true,
          "internalType": "address",
          "name": "tokenAddress",
          "type": "address"
        },
        {
          "indexed": false,
          "internalType": "uint256",
          "name": "tokenId",
          "type": "uint256"
        },
        {
          "indexed": false,
          "internalType": "uint256",
          "name": "amount",
          "type": "uint256"
        },
        {
          "indexed": false,
          "internalType": "string",
          "name": "message",
          "type": "string"
        }
      ],
      "name": "DepositMTS",
      "type": "event"
    },
    {
      "anonymous": false,
      "inputs": [
        {
          "indexed": true,
          "internalType": "address",
          "name": "from",
          "type": "address"
        },
        {
          "indexed": true,
          "internalType": "address",
          "name": "tokenAddress",
          "type": "address"
        },
        {
          "indexed": false,
          "internalType": "uint256",
          "name": "amount",
          "type": "uint256"
        },
        {
          "indexed": false,
          "internalType": "string",
          "name": "message",
          "type": "string"
        }
      ],
      "name": "DepositToken",
      "type": "event"
    },
    {
      "anonymous": false,
      "inputs": [
        {
          "indexed": true,
          "internalType": "address",
          "name": "previousOwner",
          "type": "address"
        },
        {
          "indexed": true,
          "internalType": "address",
          "name": "newOwner",
          "type": "address"
        }
      ],
      "name": "OwnershipTransferred",
      "type": "event"
    },
    {
      "anonymous": false,
      "inputs": [
        {
          "indexed": true,
          "internalType": "address",
          "name": "from",
          "type": "address"
        },
        {
          "indexed": false,
          "internalType": "uint256",
          "name": "amount",
          "type": "uint256"
        }
      ],
      "name": "ReceiveBNB",
      "type": "event"
    },
    {
      "anonymous": false,
      "inputs": [
        {
          "indexed": true,
          "internalType": "address",
          "name": "from",
          "type": "address"
        },
        {
          "indexed": true,
          "internalType": "address",
          "name": "to",
          "type": "address"
        },
        {
          "indexed": false,
          "internalType": "uint256",
          "name": "amount",
          "type": "uint256"
        },
        {
          "indexed": false,
          "internalType": "string",
          "name": "message",
          "type": "string"
        }
      ],
      "name": "TransferBNB",
      "type": "event"
    },
    {
      "anonymous": false,
      "inputs": [
        {
          "indexed": true,
          "internalType": "address",
          "name": "from",
          "type": "address"
        },
        {
          "indexed": true,
          "internalType": "address",
          "name": "to",
          "type": "address"
        },
        {
          "indexed": true,
          "internalType": "address",
          "name": "tokenAddress",
          "type": "address"
        },
        {
          "indexed": false,
          "internalType": "uint256",
          "name": "tokenId",
          "type": "uint256"
        },
        {
          "indexed": false,
          "internalType": "string",
          "name": "message",
          "type": "string"
        }
      ],
      "name": "TransferItem",
      "type": "event"
    },
    {
      "anonymous": false,
      "inputs": [
        {
          "indexed": true,
          "internalType": "address",
          "name": "from",
          "type": "address"
        },
        {
          "indexed": true,
          "internalType": "address",
          "name": "to",
          "type": "address"
        },
        {
          "indexed": true,
          "internalType": "address",
          "name": "tokenAddress",
          "type": "address"
        },
        {
          "indexed": false,
          "internalType": "uint256",
          "name": "tokenId",
          "type": "uint256"
        },
        {
          "indexed": false,
          "internalType": "string",
          "name": "message",
          "type": "string"
        }
      ],
      "name": "TransferMTS",
      "type": "event"
    },
    {
      "anonymous": false,
      "inputs": [
        {
          "indexed": true,
          "internalType": "address",
          "name": "from",
          "type": "address"
        },
        {
          "indexed": true,
          "internalType": "address",
          "name": "to",
          "type": "address"
        },
        {
          "indexed": true,
          "internalType": "address",
          "name": "tokenAddress",
          "type": "address"
        },
        {
          "indexed": false,
          "internalType": "uint256",
          "name": "amount",
          "type": "uint256"
        },
        {
          "indexed": false,
          "internalType": "string",
          "name": "message",
          "type": "string"
        }
      ],
      "name": "TransferToken",
      "type": "event"
    },
    {
      "anonymous": false,
      "inputs": [
        {
          "indexed": true,
          "internalType": "address",
          "name": "to",
          "type": "address"
        },
        {
          "indexed": false,
          "internalType": "uint256",
          "name": "amount",
          "type": "uint256"
        },
        {
          "indexed": false,
          "internalType": "string",
          "name": "message",
          "type": "string"
        }
      ],
      "name": "WithdrawBNB",
      "type": "event"
    },
    {
      "anonymous": false,
      "inputs": [
        {
          "indexed": true,
          "internalType": "address",
          "name": "to",
          "type": "address"
        },
        {
          "indexed": true,
          "internalType": "address",
          "name": "tokenAddress",
          "type": "address"
        },
        {
          "indexed": false,
          "internalType": "uint256",
          "name": "tokenId",
          "type": "uint256"
        },
        {
          "indexed": false,
          "internalType": "string",
          "name": "message",
          "type": "string"
        }
      ],
      "name": "WithdrawItem",
      "type": "event"
    },
    {
      "anonymous": false,
      "inputs": [
        {
          "indexed": true,
          "internalType": "address",
          "name": "to",
          "type": "address"
        },
        {
          "indexed": true,
          "internalType": "address",
          "name": "tokenAddress",
          "type": "address"
        },
        {
          "indexed": false,
          "internalType": "uint256",
          "name": "tokenId",
          "type": "uint256"
        },
        {
          "indexed": false,
          "internalType": "uint256",
          "name": "amount",
          "type": "uint256"
        },
        {
          "indexed": false,
          "internalType": "string",
          "name": "messgage",
          "type": "string"
        }
      ],
      "name": "WithdrawMTS",
      "type": "event"
    },
    {
      "anonymous": false,
      "inputs": [
        {
          "indexed": true,
          "internalType": "address",
          "name": "to",
          "type": "address"
        },
        {
          "indexed": true,
          "internalType": "address",
          "name": "tokenAddress",
          "type": "address"
        },
        {
          "indexed": false,
          "internalType": "uint256",
          "name": "amount",
          "type": "uint256"
        },
        {
          "indexed": false,
          "internalType": "string",
          "name": "message",
          "type": "string"
        }
      ],
      "name": "WithdrawToken",
      "type": "event"
    },
    {
      "inputs": [
        {
          "internalType": "string",
          "name": "message",
          "type": "string"
        }
      ],
      "name": "depositBNB",
      "outputs": [],
      "stateMutability": "payable",
      "type": "function"
    },
    {
      "inputs": [
        {
          "internalType": "address",
          "name": "tokenAddress",
          "type": "address"
        },
        {
          "internalType": "uint256",
          "name": "tokenId",
          "type": "uint256"
        },
        {
          "internalType": "string",
          "name": "message",
          "type": "string"
        }
      ],
      "name": "depositItem",
      "outputs": [],
      "stateMutability": "nonpayable",
      "type": "function"
    },
    {
      "inputs": [
        {
          "internalType": "address",
          "name": "tokenAddress",
          "type": "address"
        },
        {
          "internalType": "uint256",
          "name": "tokenId",
          "type": "uint256"
        },
        {
          "internalType": "uint256",
          "name": "amount",
          "type": "uint256"
        },
        {
          "internalType": "string",
          "name": "message",
          "type": "string"
        }
      ],
      "name": "depositMTS",
      "outputs": [],
      "stateMutability": "nonpayable",
      "type": "function"
    },
    {
      "inputs": [
        {
          "internalType": "address",
          "name": "tokenAddress",
          "type": "address"
        },
        {
          "internalType": "uint256",
          "name": "amount",
          "type": "uint256"
        },
        {
          "internalType": "string",
          "name": "message",
          "type": "string"
        }
      ],
      "name": "depositToken",
      "outputs": [],
      "stateMutability": "nonpayable",
      "type": "function"
    },
    {
      "inputs": [
        {
          "internalType": "address",
          "name": "operator",
          "type": "address"
        }
      ],
      "name": "isOperator",
      "outputs": [
        {
          "internalType": "bool",
          "name": "",
          "type": "bool"
        }
      ],
      "stateMutability": "view",
      "type": "function"
    },
    {
      "inputs": [
        {
          "internalType": "address",
          "name": "",
          "type": "address"
        },
        {
          "internalType": "address",
          "name": "",
          "type": "address"
        },
        {
          "internalType": "uint256[]",
          "name": "",
          "type": "uint256[]"
        },
        {
          "internalType": "uint256[]",
          "name": "",
          "type": "uint256[]"
        },
        {
          "internalType": "bytes",
          "name": "",
          "type": "bytes"
        }
      ],
      "name": "onERC1155BatchReceived",
      "outputs": [
        {
          "internalType": "bytes4",
          "name": "",
          "type": "bytes4"
        }
      ],
      "stateMutability": "nonpayable",
      "type": "function"
    },
    {
      "inputs": [
        {
          "internalType": "address",
          "name": "",
          "type": "address"
        },
        {
          "internalType": "address",
          "name": "",
          "type": "address"
        },
        {
          "internalType": "uint256",
          "name": "",
          "type": "uint256"
        },
        {
          "internalType": "uint256",
          "name": "",
          "type": "uint256"
        },
        {
          "internalType": "bytes",
          "name": "",
          "type": "bytes"
        }
      ],
      "name": "onERC1155Received",
      "outputs": [
        {
          "internalType": "bytes4",
          "name": "",
          "type": "bytes4"
        }
      ],
      "stateMutability": "nonpayable",
      "type": "function"
    },
    {
      "inputs": [
        {
          "internalType": "address",
          "name": "",
          "type": "address"
        },
        {
          "internalType": "address",
          "name": "",
          "type": "address"
        },
        {
          "internalType": "uint256",
          "name": "",
          "type": "uint256"
        },
        {
          "internalType": "bytes",
          "name": "",
          "type": "bytes"
        }
      ],
      "name": "onERC721Received",
      "outputs": [
        {
          "internalType": "bytes4",
          "name": "",
          "type": "bytes4"
        }
      ],
      "stateMutability": "nonpayable",
      "type": "function"
    },
    {
      "inputs": [],
      "name": "owner",
      "outputs": [
        {
          "internalType": "address",
          "name": "",
          "type": "address"
        }
      ],
      "stateMutability": "view",
      "type": "function"
    },
    {
      "inputs": [],
      "name": "pause",
      "outputs": [],
      "stateMutability": "nonpayable",
      "type": "function"
    },
    {
      "inputs": [
        {
          "internalType": "address",
          "name": "operator",
          "type": "address"
        }
      ],
      "name": "removeOperator",
      "outputs": [],
      "stateMutability": "nonpayable",
      "type": "function"
    },
    {
      "inputs": [],
      "name": "renounceOwnership",
      "outputs": [],
      "stateMutability": "nonpayable",
      "type": "function"
    },
    {
      "inputs": [
        {
          "internalType": "uint256",
          "name": "amount",
          "type": "uint256"
        }
      ],
      "name": "setBNBWithdrawalLimit",
      "outputs": [],
      "stateMutability": "nonpayable",
      "type": "function"
    },
    {
      "inputs": [
        {
          "internalType": "uint256",
          "name": "amount",
          "type": "uint256"
        }
      ],
      "name": "setItemWithdrawalLimit",
      "outputs": [],
      "stateMutability": "nonpayable",
      "type": "function"
    },
    {
      "inputs": [
        {
          "internalType": "address",
          "name": "operator",
          "type": "address"
        }
      ],
      "name": "setOperator",
      "outputs": [],
      "stateMutability": "nonpayable",
      "type": "function"
    },
    {
      "inputs": [
        {
          "internalType": "uint256",
          "name": "amount",
          "type": "uint256"
        }
      ],
      "name": "setTokenWithdrawalLimit",
      "outputs": [],
      "stateMutability": "nonpayable",
      "type": "function"
    },
    {
      "inputs": [
        {
          "internalType": "bytes4",
          "name": "interfaceId",
          "type": "bytes4"
        }
      ],
      "name": "supportsInterface",
      "outputs": [
        {
          "internalType": "bool",
          "name": "",
          "type": "bool"
        }
      ],
      "stateMutability": "view",
      "type": "function"
    },
    {
      "inputs": [
        {
          "internalType": "address",
          "name": "to",
          "type": "address"
        },
        {
          "internalType": "string",
          "name": "message",
          "type": "string"
        }
      ],
      "name": "transferBNB",
      "outputs": [],
      "stateMutability": "payable",
      "type": "function"
    },
    {
      "inputs": [
        {
          "internalType": "address",
          "name": "from",
          "type": "address"
        },
        {
          "internalType": "address",
          "name": "to",
          "type": "address"
        },
        {
          "internalType": "address",
          "name": "tokenAddress",
          "type": "address"
        },
        {
          "internalType": "uint256",
          "name": "tokenId",
          "type": "uint256"
        },
        {
          "internalType": "string",
          "name": "message",
          "type": "string"
        }
      ],
      "name": "transferItem",
      "outputs": [],
      "stateMutability": "nonpayable",
      "type": "function"
    },
    {
      "inputs": [
        {
          "internalType": "address",
          "name": "from",
          "type": "address"
        },
        {
          "internalType": "address",
          "name": "to",
          "type": "address"
        },
        {
          "internalType": "address",
          "name": "tokenAddress",
          "type": "address"
        },
        {
          "internalType": "uint256",
          "name": "tokenId",
          "type": "uint256"
        },
        {
          "internalType": "uint256",
          "name": "amount",
          "type": "uint256"
        },
        {
          "internalType": "string",
          "name": "message",
          "type": "string"
        }
      ],
      "name": "transferMTS",
      "outputs": [],
      "stateMutability": "nonpayable",
      "type": "function"
    },
    {
      "inputs": [
        {
          "internalType": "address",
          "name": "newOwner",
          "type": "address"
        }
      ],
      "name": "transferOwnership",
      "outputs": [],
      "stateMutability": "nonpayable",
      "type": "function"
    },
    {
      "inputs": [
        {
          "internalType": "address",
          "name": "from",
          "type": "address"
        },
        {
          "internalType": "address",
          "name": "to",
          "type": "address"
        },
        {
          "internalType": "address",
          "name": "tokenAddress",
          "type": "address"
        },
        {
          "internalType": "uint256",
          "name": "amount",
          "type": "uint256"
        },
        {
          "internalType": "string",
          "name": "message",
          "type": "string"
        }
      ],
      "name": "transferToken",
      "outputs": [],
      "stateMutability": "nonpayable",
      "type": "function"
    },
    {
      "inputs": [],
      "name": "unpause",
      "outputs": [],
      "stateMutability": "nonpayable",
      "type": "function"
    },
    {
      "inputs": [
        {
          "internalType": "address",
          "name": "to",
          "type": "address"
        },
        {
          "internalType": "uint256",
          "name": "amount",
          "type": "uint256"
        },
        {
          "internalType": "string",
          "name": "message",
          "type": "string"
        }
      ],
      "name": "withdrawBNB",
      "outputs": [],
      "stateMutability": "nonpayable",
      "type": "function"
    },
    {
      "inputs": [
        {
          "internalType": "address",
          "name": "to",
          "type": "address"
        },
        {
          "internalType": "address",
          "name": "tokenAddress",
          "type": "address"
        },
        {
          "internalType": "uint256",
          "name": "tokenId",
          "type": "uint256"
        },
        {
          "internalType": "string",
          "name": "message",
          "type": "string"
        }
      ],
      "name": "withdrawItem",
      "outputs": [],
      "stateMutability": "nonpayable",
      "type": "function"
    },
    {
      "inputs": [
        {
          "internalType": "address",
          "name": "to",
          "type": "address"
        },
        {
          "internalType": "address",
          "name": "tokenAddress",
          "type": "address"
        },
        {
          "internalType": "uint256",
          "name": "tokenId",
          "type": "uint256"
        },
        {
          "internalType": "uint256",
          "name": "amount",
          "type": "uint256"
        },
        {
          "internalType": "string",
          "name": "message",
          "type": "string"
        }
      ],
      "name": "withdrawMTS",
      "outputs": [],
      "stateMutability": "nonpayable",
      "type": "function"
    },
    {
      "inputs": [
        {
          "internalType": "address",
          "name": "to",
          "type": "address"
        },
        {
          "internalType": "address",
          "name": "tokenAddress",
          "type": "address"
        },
        {
          "internalType": "uint256",
          "name": "amount",
          "type": "uint256"
        },
        {
          "internalType": "string",
          "name": "message",
          "type": "string"
        }
      ],
      "name": "withdrawToken",
      "outputs": [],
      "stateMutability": "nonpayable",
      "type": "function"
    },
    {
      "stateMutability": "payable",
      "type": "receive"
    }
  ],
  "bytecode": "0x60806040523480156200001157600080fd5b5062000032620000266200013460201b60201c565b6200013c60201b60201c565b60018060003373ffffffffffffffffffffffffffffffffffffffff1673ffffffffffffffffffffffffffffffffffffffff16815260200190815260200160002060006101000a81548160ff021916908315150217905550600160028190555060018060003373ffffffffffffffffffffffffffffffffffffffff1673ffffffffffffffffffffffffffffffffffffffff16815260200190815260200160002060006101000a81548160ff0219169083151502179055506b033b2e3c9fd0803ce8000000600381905550683635c9adc5dea0000060048190555060016005819055506000600660006101000a81548160ff02191690831515021790555062000200565b600033905090565b60008060009054906101000a900473ffffffffffffffffffffffffffffffffffffffff169050816000806101000a81548173ffffffffffffffffffffffffffffffffffffffff021916908373ffffffffffffffffffffffffffffffffffffffff1602179055508173ffffffffffffffffffffffffffffffffffffffff168173ffffffffffffffffffffffffffffffffffffffff167f8be0079c531659141344cd1fd0a4f28419497f9722a3daafe3b4186f6b6457e060405160405180910390a35050565b61347280620002106000396000f3fe6080604052600436106101a05760003560e01c806380c0de98116100ec578063b3ab15fb1161008a578063cd3eb51a11610064578063cd3eb51a146105ab578063d60982d5146105d4578063f23a6e61146105fd578063f2fde38b1461063a576101f5565b8063b3ab15fb1461051c578063bc197c8114610545578063c60d228e14610582576101f5565b80638da5cb5b116100c65780638da5cb5b14610476578063a10d0960146104a1578063aad8ed4c146104ca578063ac8a584a146104f3576101f5565b806380c0de981461040d5780638456cb591461043657806387005e0c1461044d576101f5565b80632a0d2b25116101595780634f79f7da116101335780634f79f7da14610374578063513446831461039d5780636d70f7ae146103b9578063715018a6146103f6576101f5565b80632a0d2b25146103185780633f4ba83a1461033457806346c8106b1461034b576101f5565b806301ffc9a7146101fa5780630596f24b14610237578063150b7a02146102605780631a04ffa71461029d578063200bedde146102c657806327f1be3b146102ef576101f5565b366101f5573373ffffffffffffffffffffffffffffffffffffffff167f344d9d9b1c237ca7e367c0536bc9744a50eb5d6976b76f09a09cb3e7e871df5d346040516101eb9190612e95565b60405180910390a2005b600080fd5b34801561020657600080fd5b50610221600480360381019061021c9190612905565b610663565b60405161022e9190612cdf565b60405180910390f35b34801561024357600080fd5b5061025e600480360381019061025991906123a3565b6106dd565b005b34801561026c57600080fd5b5061028760048036038101906102829190612592565b6108ef565b6040516102949190612cfa565b60405180910390f35b3480156102a957600080fd5b506102c460048036038101906102bf919061296f565b610903565b005b3480156102d257600080fd5b506102ed60048036038101906102e89190612717565b610915565b005b3480156102fb57600080fd5b5061031660048036038101906103119190612861565b610b32565b005b610332600480360381019061032d91906127a6565b610c6e565b005b34801561034057600080fd5b50610349610e79565b005b34801561035757600080fd5b50610372600480360381019061036d919061296f565b610e9e565b005b34801561038057600080fd5b5061039b6004803603810190610396919061260d565b610eb0565b005b6103b760048036038101906103b2919061292e565b61112c565b005b3480156103c557600080fd5b506103e060048036038101906103db919061237a565b6111d5565b6040516103ed9190612cdf565b60405180910390f35b34801561040257600080fd5b5061040b61122b565b005b34801561041957600080fd5b50610434600480360381019061042f91906127fa565b61123f565b005b34801561044257600080fd5b5061044b611505565b005b34801561045957600080fd5b50610474600480360381019061046f9190612432565b61152a565b005b34801561048257600080fd5b5061048b61173f565b6040516104989190612c0c565b60405180910390f35b3480156104ad57600080fd5b506104c860048036038101906104c391906127fa565b611768565b005b3480156104d657600080fd5b506104f160048036038101906104ec919061260d565b6118c0565b005b3480156104ff57600080fd5b5061051a6004803603810190610515919061237a565b611b1d565b005b34801561052857600080fd5b50610543600480360381019061053e919061237a565b611b80565b005b34801561055157600080fd5b5061056c600480360381019061056791906124d3565b611be2565b6040516105799190612cfa565b60405180910390f35b34801561058e57600080fd5b506105a960048036038101906105a491906123a3565b611bf7565b005b3480156105b757600080fd5b506105d260048036038101906105cd919061296f565b611e2a565b005b3480156105e057600080fd5b506105fb60048036038101906105f691906127fa565b611e3c565b005b34801561060957600080fd5b50610624600480360381019061061f9190612688565b611f73565b6040516106319190612cfa565b60405180910390f35b34801561064657600080fd5b50610661600480360381019061065c919061237a565b611f88565b005b60007f4e2312e0000000000000000000000000000000000000000000000000000000007bffffffffffffffffffffffffffffffffffffffffffffffffffffffff1916827bffffffffffffffffffffffffffffffffffffffffffffffffffffffff191614806106d657506106d58261200c565b5b9050919050565b60001515600660009054906101000a900460ff16151514610733576040517f08c379a000000000000000000000000000000000000000000000000000000000815260040161072a90612e75565b60405180910390fd5b600280541415610778576040517f08c379a000000000000000000000000000000000000000000000000000000000815260040161076f90612e35565b60405180910390fd5b6002808190555060008390508573ffffffffffffffffffffffffffffffffffffffff163373ffffffffffffffffffffffffffffffffffffffff16146107f2576040517f08c379a00000000000000000000000000000000000000000000000000000000081526004016107e990612dd5565b60405180910390fd5b8073ffffffffffffffffffffffffffffffffffffffff166323b872dd8787866040518463ffffffff1660e01b815260040161082f93929190612c27565b600060405180830381600087803b15801561084957600080fd5b505af115801561085d573d6000803e3d6000fd5b505050508373ffffffffffffffffffffffffffffffffffffffff168573ffffffffffffffffffffffffffffffffffffffff168773ffffffffffffffffffffffffffffffffffffffff167fa96fabde5593c6f04bd1793146304f7dd319a843c16cbf282fa0eea0884920f286866040516108d7929190612eb0565b60405180910390a45060016002819055505050505050565b600063150b7a0260e01b9050949350505050565b61090b612076565b8060058190555050565b600160003373ffffffffffffffffffffffffffffffffffffffff1673ffffffffffffffffffffffffffffffffffffffff16815260200190815260200160002060009054906101000a900460ff166109a1576040517f08c379a000000000000000000000000000000000000000000000000000000000815260040161099890612d75565b60405180910390fd5b6002805414156109e6576040517f08c379a00000000000000000000000000000000000000000000000000000000081526004016109dd90612e35565b60405180910390fd5b6002808190555060001515600660009054906101000a900460ff16151514610a43576040517f08c379a0000000000000000000000000000000000000000000000000000000008152600401610a3a90612e75565b60405180910390fd5b60008490508073ffffffffffffffffffffffffffffffffffffffff1663f242432a308887876040518563ffffffff1660e01b8152600401610a879493929190612c5e565b600060405180830381600087803b158015610aa157600080fd5b505af1158015610ab5573d6000803e3d6000fd5b505050508473ffffffffffffffffffffffffffffffffffffffff168673ffffffffffffffffffffffffffffffffffffffff167f787aa950d2c09a662396c514b3f8f8c03b9a5f1744a6b49380bba4dfb93e15c7868686604051610b1a93929190612ee0565b60405180910390a35060016002819055505050505050565b60001515600660009054906101000a900460ff16151514610b88576040517f08c379a0000000000000000000000000000000000000000000000000000000008152600401610b7f90612e75565b60405180910390fd5b60008490508073ffffffffffffffffffffffffffffffffffffffff1663f242432a333087876040518563ffffffff1660e01b8152600401610bcc9493929190612c5e565b600060405180830381600087803b158015610be657600080fd5b505af1158015610bfa573d6000803e3d6000fd5b505050508473ffffffffffffffffffffffffffffffffffffffff163373ffffffffffffffffffffffffffffffffffffffff167f5aaab97ac648b3f6f144816f4d7cb232a128866bd84d21291083cd10931bace9868686604051610c5f93929190612ee0565b60405180910390a35050505050565b600280541415610cb3576040517f08c379a0000000000000000000000000000000000000000000000000000000008152600401610caa90612e35565b60405180910390fd5b6002808190555060001515600660009054906101000a900460ff16151514610d10576040517f08c379a0000000000000000000000000000000000000000000000000000000008152600401610d0790612e75565b60405180910390fd5b600034905060008111610d58576040517f08c379a0000000000000000000000000000000000000000000000000000000008152600401610d4f90612db5565b60405180910390fd5b60008373ffffffffffffffffffffffffffffffffffffffff1682604051610d7e90612bf7565b60006040518083038185875af1925050503d8060008114610dbb576040519150601f19603f3d011682016040523d82523d6000602084013e610dc0565b606091505b5050905080610e04576040517f08c379a0000000000000000000000000000000000000000000000000000000008152600401610dfb90612d55565b60405180910390fd5b8373ffffffffffffffffffffffffffffffffffffffff163373ffffffffffffffffffffffffffffffffffffffff167f743881d727e97185d77e523446045043486f44983ba854a403fb80f8ebe78bd58486604051610e63929190612eb0565b60405180910390a3505060016002819055505050565b610e81612076565b6000600660006101000a81548160ff021916908315150217905550565b610ea6612076565b8060048190555050565b600160003373ffffffffffffffffffffffffffffffffffffffff1673ffffffffffffffffffffffffffffffffffffffff16815260200190815260200160002060009054906101000a900460ff16610f3c576040517f08c379a0000000000000000000000000000000000000000000000000000000008152600401610f3390612d75565b60405180910390fd5b600280541415610f81576040517f08c379a0000000000000000000000000000000000000000000000000000000008152600401610f7890612e35565b60405180910390fd5b6002808190555060001515600660009054906101000a900460ff16151514610fde576040517f08c379a0000000000000000000000000000000000000000000000000000000008152600401610fd590612e75565b60405180910390fd5b600354821115611023576040517f08c379a000000000000000000000000000000000000000000000000000000000815260040161101a90612e55565b60405180910390fd5b60008390508073ffffffffffffffffffffffffffffffffffffffff1663a9059cbb86856040518363ffffffff1660e01b8152600401611063929190612cb6565b602060405180830381600087803b15801561107d57600080fd5b505af1158015611091573d6000803e3d6000fd5b505050506040513d601f19601f820116820180604052508101906110b591906128dc565b508373ffffffffffffffffffffffffffffffffffffffff168573ffffffffffffffffffffffffffffffffffffffff167f9b1ce395f06d20cfda7c507fce70665c7d02538019987c27111bb0accc35bb8e8585604051611115929190612eb0565b60405180910390a350600160028190555050505050565b60001515600660009054906101000a900460ff16151514611182576040517f08c379a000000000000000000000000000000000000000000000000000000000815260040161117990612e75565b60405180910390fd5b3373ffffffffffffffffffffffffffffffffffffffff167fecff53702f9847aae90f6f0afc3f2b93f4b11ac5cc98022574258851bd4ecc7e34836040516111ca929190612eb0565b60405180910390a250565b6000600160008373ffffffffffffffffffffffffffffffffffffffff1673ffffffffffffffffffffffffffffffffffffffff16815260200190815260200160002060009054906101000a900460ff169050919050565b611233612076565b61123d60006120f4565b565b600160003373ffffffffffffffffffffffffffffffffffffffff1673ffffffffffffffffffffffffffffffffffffffff16815260200190815260200160002060009054906101000a900460ff166112cb576040517f08c379a00000000000000000000000000000000000000000000000000000000081526004016112c290612d75565b60405180910390fd5b600280541415611310576040517f08c379a000000000000000000000000000000000000000000000000000000000815260040161130790612e35565b60405180910390fd5b6002808190555060001515600660009054906101000a900460ff1615151461136d576040517f08c379a000000000000000000000000000000000000000000000000000000000815260040161136490612e75565b60405180910390fd5b6000479050808311156113b5576040517f08c379a00000000000000000000000000000000000000000000000000000000081526004016113ac90612d95565b60405180910390fd5b6004548311156113fa576040517f08c379a00000000000000000000000000000000000000000000000000000000081526004016113f190612e55565b60405180910390fd5b60008473ffffffffffffffffffffffffffffffffffffffff168460405161142090612bf7565b60006040518083038185875af1925050503d806000811461145d576040519150601f19603f3d011682016040523d82523d6000602084013e611462565b606091505b50509050806114a6576040517f08c379a000000000000000000000000000000000000000000000000000000000815260040161149d90612d15565b60405180910390fd5b8473ffffffffffffffffffffffffffffffffffffffff167f754e0e556e57d38e5dd29cf04e7ef740a5036b0560d64f176af570e4d4383a6785856040516114ee929190612eb0565b60405180910390a250506001600281905550505050565b61150d612076565b6001600660006101000a81548160ff021916908315150217905550565b60001515600660009054906101000a900460ff16151514611580576040517f08c379a000000000000000000000000000000000000000000000000000000000815260040161157790612e75565b60405180910390fd5b6002805414156115c5576040517f08c379a00000000000000000000000000000000000000000000000000000000081526004016115bc90612e35565b60405180910390fd5b6002808190555060008490508673ffffffffffffffffffffffffffffffffffffffff163373ffffffffffffffffffffffffffffffffffffffff161461163f576040517f08c379a000000000000000000000000000000000000000000000000000000000815260040161163690612dd5565b60405180910390fd5b8073ffffffffffffffffffffffffffffffffffffffff1663f242432a888887876040518563ffffffff1660e01b815260040161167e9493929190612c5e565b600060405180830381600087803b15801561169857600080fd5b505af11580156116ac573d6000803e3d6000fd5b505050508473ffffffffffffffffffffffffffffffffffffffff168673ffffffffffffffffffffffffffffffffffffffff168873ffffffffffffffffffffffffffffffffffffffff167fdace58678e04d825ee455163dc9a67a59612357c30389baab33961e9cb4d92798786604051611726929190612eb0565b60405180910390a4506001600281905550505050505050565b60008060009054906101000a900473ffffffffffffffffffffffffffffffffffffffff16905090565b60001515600660009054906101000a900460ff161515146117be576040517f08c379a00000000000000000000000000000000000000000000000000000000081526004016117b590612e75565b60405180910390fd5b60008390508073ffffffffffffffffffffffffffffffffffffffff166323b872dd3330866040518463ffffffff1660e01b815260040161180093929190612c27565b602060405180830381600087803b15801561181a57600080fd5b505af115801561182e573d6000803e3d6000fd5b505050506040513d601f19601f8201168201806040525081019061185291906128dc565b508373ffffffffffffffffffffffffffffffffffffffff163373ffffffffffffffffffffffffffffffffffffffff167f2fce8d8ffe80e8afa7c218aab265428efef64b466072cf24c404bce48f2e8b6a85856040516118b2929190612eb0565b60405180910390a350505050565b600160003373ffffffffffffffffffffffffffffffffffffffff1673ffffffffffffffffffffffffffffffffffffffff16815260200190815260200160002060009054906101000a900460ff1661194c576040517f08c379a000000000000000000000000000000000000000000000000000000000815260040161194390612d75565b60405180910390fd5b600280541415611991576040517f08c379a000000000000000000000000000000000000000000000000000000000815260040161198890612e35565b60405180910390fd5b6002808190555060001515600660009054906101000a900460ff161515146119ee576040517f08c379a00000000000000000000000000000000000000000000000000000000081526004016119e590612e75565b60405180910390fd5b600060055411611a33576040517f08c379a0000000000000000000000000000000000000000000000000000000008152600401611a2a90612e15565b60405180910390fd5b60008390508073ffffffffffffffffffffffffffffffffffffffff166323b872dd3087866040518463ffffffff1660e01b8152600401611a7593929190612c27565b600060405180830381600087803b158015611a8f57600080fd5b505af1158015611aa3573d6000803e3d6000fd5b505050508373ffffffffffffffffffffffffffffffffffffffff168573ffffffffffffffffffffffffffffffffffffffff167f6e2f27f4c1767312ef6de9de49976505f75294b205fda61b24784d7f094a908b8585604051611b06929190612eb0565b60405180910390a350600160028190555050505050565b611b25612076565b6000600160008373ffffffffffffffffffffffffffffffffffffffff1673ffffffffffffffffffffffffffffffffffffffff16815260200190815260200160002060006101000a81548160ff02191690831515021790555050565b611b88612076565b60018060008373ffffffffffffffffffffffffffffffffffffffff1673ffffffffffffffffffffffffffffffffffffffff16815260200190815260200160002060006101000a81548160ff02191690831515021790555050565b600063bc197c8160e01b905095945050505050565b60001515600660009054906101000a900460ff16151514611c4d576040517f08c379a0000000000000000000000000000000000000000000000000000000008152600401611c4490612e75565b60405180910390fd5b600280541415611c92576040517f08c379a0000000000000000000000000000000000000000000000000000000008152600401611c8990612e35565b60405180910390fd5b6002808190555060008390508573ffffffffffffffffffffffffffffffffffffffff163373ffffffffffffffffffffffffffffffffffffffff1614611d0c576040517f08c379a0000000000000000000000000000000000000000000000000000000008152600401611d0390612dd5565b60405180910390fd5b8073ffffffffffffffffffffffffffffffffffffffff166323b872dd8787866040518463ffffffff1660e01b8152600401611d4993929190612c27565b602060405180830381600087803b158015611d6357600080fd5b505af1158015611d77573d6000803e3d6000fd5b505050506040513d601f19601f82011682018060405250810190611d9b91906128dc565b508373ffffffffffffffffffffffffffffffffffffffff168573ffffffffffffffffffffffffffffffffffffffff168773ffffffffffffffffffffffffffffffffffffffff167fefbf9e71b8b9415ed6723cea57670470f2fa0e9cc6c4aebe4c25d90e4c6882778686604051611e12929190612eb0565b60405180910390a45060016002819055505050505050565b611e32612076565b8060038190555050565b60001515600660009054906101000a900460ff16151514611e92576040517f08c379a0000000000000000000000000000000000000000000000000000000008152600401611e8990612e75565b60405180910390fd5b60008390508073ffffffffffffffffffffffffffffffffffffffff166323b872dd3330866040518463ffffffff1660e01b8152600401611ed493929190612c27565b600060405180830381600087803b158015611eee57600080fd5b505af1158015611f02573d6000803e3d6000fd5b505050508373ffffffffffffffffffffffffffffffffffffffff163373ffffffffffffffffffffffffffffffffffffffff167f8af54dcc567c4ed2be27d3b9c87e334cbfab633b56222ffe6e9fb31fe725ea2b8585604051611f65929190612eb0565b60405180910390a350505050565b600063f23a6e6160e01b905095945050505050565b611f90612076565b600073ffffffffffffffffffffffffffffffffffffffff168173ffffffffffffffffffffffffffffffffffffffff161415612000576040517f08c379a0000000000000000000000000000000000000000000000000000000008152600401611ff790612d35565b60405180910390fd5b612009816120f4565b50565b60007f01ffc9a7000000000000000000000000000000000000000000000000000000007bffffffffffffffffffffffffffffffffffffffffffffffffffffffff1916827bffffffffffffffffffffffffffffffffffffffffffffffffffffffff1916149050919050565b61207e6121b8565b73ffffffffffffffffffffffffffffffffffffffff1661209c61173f565b73ffffffffffffffffffffffffffffffffffffffff16146120f2576040517f08c379a00000000000000000000000000000000000000000000000000000000081526004016120e990612df5565b60405180910390fd5b565b60008060009054906101000a900473ffffffffffffffffffffffffffffffffffffffff169050816000806101000a81548173ffffffffffffffffffffffffffffffffffffffff021916908373ffffffffffffffffffffffffffffffffffffffff1602179055508173ffffffffffffffffffffffffffffffffffffffff168173ffffffffffffffffffffffffffffffffffffffff167f8be0079c531659141344cd1fd0a4f28419497f9722a3daafe3b4186f6b6457e060405160405180910390a35050565b600033905090565b60006121d36121ce84612f43565b612f1e565b905080838252602082019050828560208602820111156121f257600080fd5b60005b8581101561222257816122088882612365565b8452602084019350602083019250506001810190506121f5565b5050509392505050565b600061223f61223a84612f6f565b612f1e565b90508281526020810184848401111561225757600080fd5b61226284828561307d565b509392505050565b600061227d61227884612fa0565b612f1e565b90508281526020810184848401111561229557600080fd5b6122a084828561307d565b509392505050565b6000813590506122b7816133e0565b92915050565b600082601f8301126122ce57600080fd5b81356122de8482602086016121c0565b91505092915050565b6000815190506122f6816133f7565b92915050565b60008135905061230b8161340e565b92915050565b600082601f83011261232257600080fd5b813561233284826020860161222c565b91505092915050565b600082601f83011261234c57600080fd5b813561235c84826020860161226a565b91505092915050565b60008135905061237481613425565b92915050565b60006020828403121561238c57600080fd5b600061239a848285016122a8565b91505092915050565b600080600080600060a086880312156123bb57600080fd5b60006123c9888289016122a8565b95505060206123da888289016122a8565b94505060406123eb888289016122a8565b93505060606123fc88828901612365565b925050608086013567ffffffffffffffff81111561241957600080fd5b6124258882890161233b565b9150509295509295909350565b60008060008060008060c0878903121561244b57600080fd5b600061245989828a016122a8565b965050602061246a89828a016122a8565b955050604061247b89828a016122a8565b945050606061248c89828a01612365565b935050608061249d89828a01612365565b92505060a087013567ffffffffffffffff8111156124ba57600080fd5b6124c689828a0161233b565b9150509295509295509295565b600080600080600060a086880312156124eb57600080fd5b60006124f9888289016122a8565b955050602061250a888289016122a8565b945050604086013567ffffffffffffffff81111561252757600080fd5b612533888289016122bd565b935050606086013567ffffffffffffffff81111561255057600080fd5b61255c888289016122bd565b925050608086013567ffffffffffffffff81111561257957600080fd5b61258588828901612311565b9150509295509295909350565b600080600080608085870312156125a857600080fd5b60006125b6878288016122a8565b94505060206125c7878288016122a8565b93505060406125d887828801612365565b925050606085013567ffffffffffffffff8111156125f557600080fd5b61260187828801612311565b91505092959194509250565b6000806000806080858703121561262357600080fd5b6000612631878288016122a8565b9450506020612642878288016122a8565b935050604061265387828801612365565b925050606085013567ffffffffffffffff81111561267057600080fd5b61267c8782880161233b565b91505092959194509250565b600080600080600060a086880312156126a057600080fd5b60006126ae888289016122a8565b95505060206126bf888289016122a8565b94505060406126d088828901612365565b93505060606126e188828901612365565b925050608086013567ffffffffffffffff8111156126fe57600080fd5b61270a88828901612311565b9150509295509295909350565b600080600080600060a0868803121561272f57600080fd5b600061273d888289016122a8565b955050602061274e888289016122a8565b945050604061275f88828901612365565b935050606061277088828901612365565b925050608086013567ffffffffffffffff81111561278d57600080fd5b6127998882890161233b565b9150509295509295909350565b600080604083850312156127b957600080fd5b60006127c7858286016122a8565b925050602083013567ffffffffffffffff8111156127e457600080fd5b6127f08582860161233b565b9150509250929050565b60008060006060848603121561280f57600080fd5b600061281d868287016122a8565b935050602061282e86828701612365565b925050604084013567ffffffffffffffff81111561284b57600080fd5b6128578682870161233b565b9150509250925092565b6000806000806080858703121561287757600080fd5b6000612885878288016122a8565b945050602061289687828801612365565b93505060406128a787828801612365565b925050606085013567ffffffffffffffff8111156128c457600080fd5b6128d08782880161233b565b91505092959194509250565b6000602082840312156128ee57600080fd5b60006128fc848285016122e7565b91505092915050565b60006020828403121561291757600080fd5b6000612925848285016122fc565b91505092915050565b60006020828403121561294057600080fd5b600082013567ffffffffffffffff81111561295a57600080fd5b6129668482850161233b565b91505092915050565b60006020828403121561298157600080fd5b600061298f84828501612365565b91505092915050565b6129a181613009565b82525050565b6129b08161301b565b82525050565b6129bf81613027565b82525050565b60006129d082612fd1565b6129da8185612ff8565b93506129ea81856020860161308c565b6129f38161311f565b840191505092915050565b6000612a0b601683612ff8565b9150612a1682613130565b602082019050919050565b6000612a2e602683612ff8565b9150612a3982613159565b604082019050919050565b6000612a51600483612fdc565b9150612a5c826131a8565b602082019050919050565b6000612a74601683612ff8565b9150612a7f826131d1565b602082019050919050565b6000612a97601b83612ff8565b9150612aa2826131fa565b602082019050919050565b6000612aba602683612ff8565b9150612ac582613223565b604082019050919050565b6000612add601b83612ff8565b9150612ae882613272565b602082019050919050565b6000612b00602683612ff8565b9150612b0b8261329b565b604082019050919050565b6000612b23602083612ff8565b9150612b2e826132ea565b602082019050919050565b6000612b46601883612ff8565b9150612b5182613313565b602082019050919050565b6000612b69600083612fed565b9150612b748261333c565b600082019050919050565b6000612b8c601f83612ff8565b9150612b978261333f565b602082019050919050565b6000612baf602883612ff8565b9150612bba82613368565b604082019050919050565b6000612bd2600683612ff8565b9150612bdd826133b7565b602082019050919050565b612bf181613073565b82525050565b6000612c0282612b5c565b9150819050919050565b6000602082019050612c216000830184612998565b92915050565b6000606082019050612c3c6000830186612998565b612c496020830185612998565b612c566040830184612be8565b949350505050565b600060a082019050612c736000830187612998565b612c806020830186612998565b612c8d6040830185612be8565b612c9a6060830184612be8565b8181036080830152612cab81612a44565b905095945050505050565b6000604082019050612ccb6000830185612998565b612cd86020830184612be8565b9392505050565b6000602082019050612cf460008301846129a7565b92915050565b6000602082019050612d0f60008301846129b6565b92915050565b60006020820190508181036000830152612d2e816129fe565b9050919050565b60006020820190508181036000830152612d4e81612a21565b9050919050565b60006020820190508181036000830152612d6e81612a67565b9050919050565b60006020820190508181036000830152612d8e81612a8a565b9050919050565b60006020820190508181036000830152612dae81612aad565b9050919050565b60006020820190508181036000830152612dce81612ad0565b9050919050565b60006020820190508181036000830152612dee81612af3565b9050919050565b60006020820190508181036000830152612e0e81612b16565b9050919050565b60006020820190508181036000830152612e2e81612b39565b9050919050565b60006020820190508181036000830152612e4e81612b7f565b9050919050565b60006020820190508181036000830152612e6e81612ba2565b9050919050565b60006020820190508181036000830152612e8e81612bc5565b9050919050565b6000602082019050612eaa6000830184612be8565b92915050565b6000604082019050612ec56000830185612be8565b8181036020830152612ed781846129c5565b90509392505050565b6000606082019050612ef56000830186612be8565b612f026020830185612be8565b8181036040830152612f1481846129c5565b9050949350505050565b6000612f28612f39565b9050612f3482826130bf565b919050565b6000604051905090565b600067ffffffffffffffff821115612f5e57612f5d6130f0565b5b602082029050602081019050919050565b600067ffffffffffffffff821115612f8a57612f896130f0565b5b612f938261311f565b9050602081019050919050565b600067ffffffffffffffff821115612fbb57612fba6130f0565b5b612fc48261311f565b9050602081019050919050565b600081519050919050565b600082825260208201905092915050565b600081905092915050565b600082825260208201905092915050565b600061301482613053565b9050919050565b60008115159050919050565b60007fffffffff0000000000000000000000000000000000000000000000000000000082169050919050565b600073ffffffffffffffffffffffffffffffffffffffff82169050919050565b6000819050919050565b82818337600083830152505050565b60005b838110156130aa57808201518184015260208101905061308f565b838111156130b9576000848401525b50505050565b6130c88261311f565b810181811067ffffffffffffffff821117156130e7576130e66130f0565b5b80604052505050565b7f4e487b7100000000000000000000000000000000000000000000000000000000600052604160045260246000fd5b6000601f19601f8301169050919050565b7f6661696c656420746f20776974686472617720424e4200000000000000000000600082015250565b7f4f776e61626c653a206e6577206f776e657220697320746865207a65726f206160008201527f6464726573730000000000000000000000000000000000000000000000000000602082015250565b7f3078303000000000000000000000000000000000000000000000000000000000600082015250565b7f6661696c656420746f207472616e7366657220424e4200000000000000000000600082015250565b7f63616c6c6572206973206e6f7420746865206f70657261746f72730000000000600082015250565b7f776974686472617720616d6f756e7420657863656564732077616c6c6574206260008201527f616c616e63650000000000000000000000000000000000000000000000000000602082015250565b7f424e4220616d6f756e74206d757374206e6f74206265207a65726f0000000000600082015250565b7f63616c6c6572206973206e6f7420746f6b656e206f776e6572206e6f7220617060008201527f70726f7665640000000000000000000000000000000000000000000000000000602082015250565b7f4f776e61626c653a2063616c6c6572206973206e6f7420746865206f776e6572600082015250565b7f43616e6e6f74207769746864726177206974656d206e6f770000000000000000600082015250565b50565b7f5265656e7472616e637947756172643a207265656e7472616e742063616c6c00600082015250565b7f776974686472617720616d6f756e74206578636565647320776974686472617760008201527f616c206c696d6974000000000000000000000000000000000000000000000000602082015250565b7f7061757365640000000000000000000000000000000000000000000000000000600082015250565b6133e981613009565b81146133f457600080fd5b50565b6134008161301b565b811461340b57600080fd5b50565b61341781613027565b811461342257600080fd5b50565b61342e81613073565b811461343957600080fd5b5056fea2646970667358221220ff5cb9360c9962d514391efe3a6578bd30126ba8cf3e91004aa75e8bf1ab2c0b64736f6c63430008040033",
  "linkReferences": {},
  "deployedLinkReferences": {}
}