{
  "_format": "hh-sol-artifact-1",
  "contractName": "BeFitterBox",
  "sourceName": "contracts/BFBox.sol",
  "abi": [
    {
      "inputs": [],
      "stateMutability": "nonpayable",
      "type": "constructor"
    },
    {
      "anonymous": false,
      "inputs": [
        {
          "indexed": true,
          "internalType": "address",
          "name": "owner",
          "type": "address"
        },
        {
          "indexed": true,
          "internalType": "address",
          "name": "approved",
          "type": "address"
        },
        {
          "indexed": true,
          "internalType": "uint256",
          "name": "tokenId",
          "type": "uint256"
        }
      ],
      "name": "Approval",
      "type": "event"
    },
    {
      "anonymous": false,
      "inputs": [
        {
          "indexed": true,
          "internalType": "address",
          "name": "owner",
          "type": "address"
        },
        {
          "indexed": true,
          "internalType": "address",
          "name": "operator",
          "type": "address"
        },
        {
          "indexed": false,
          "internalType": "bool",
          "name": "approved",
          "type": "bool"
        }
      ],
      "name": "ApprovalForAll",
      "type": "event"
    },
    {
      "anonymous": false,
      "inputs": [
        {
          "indexed": true,
          "internalType": "address",
          "name": "to",
          "type": "address"
        },
        {
          "indexed": false,
          "internalType": "uint256",
          "name": "tokenId",
          "type": "uint256"
        }
      ],
      "name": "BoxMinted",
      "type": "event"
    },
    {
      "anonymous": false,
      "inputs": [
        {
          "indexed": true,
          "internalType": "address",
          "name": "from",
          "type": "address"
        },
        {
          "indexed": true,
          "internalType": "address",
          "name": "to",
          "type": "address"
        },
        {
          "indexed": false,
          "internalType": "uint256",
          "name": "boxId",
          "type": "uint256"
        },
        {
          "indexed": false,
          "internalType": "string",
          "name": "message",
          "type": "string"
        }
      ],
      "name": "BoxTransferred",
      "type": "event"
    },
    {
      "anonymous": false,
      "inputs": [
        {
          "indexed": true,
          "internalType": "address",
          "name": "previousOwner",
          "type": "address"
        },
        {
          "indexed": true,
          "internalType": "address",
          "name": "newOwner",
          "type": "address"
        }
      ],
      "name": "OwnershipTransferred",
      "type": "event"
    },
    {
      "anonymous": false,
      "inputs": [
        {
          "indexed": true,
          "internalType": "address",
          "name": "from",
          "type": "address"
        },
        {
          "indexed": true,
          "internalType": "address",
          "name": "to",
          "type": "address"
        },
        {
          "indexed": true,
          "internalType": "uint256",
          "name": "tokenId",
          "type": "uint256"
        }
      ],
      "name": "Transfer",
      "type": "event"
    },
    {
      "inputs": [
        {
          "internalType": "address",
          "name": "to",
          "type": "address"
        },
        {
          "internalType": "uint256",
          "name": "tokenId",
          "type": "uint256"
        }
      ],
      "name": "approve",
      "outputs": [],
      "stateMutability": "nonpayable",
      "type": "function"
    },
    {
      "inputs": [
        {
          "internalType": "address",
          "name": "owner",
          "type": "address"
        }
      ],
      "name": "balanceOf",
      "outputs": [
        {
          "internalType": "uint256",
          "name": "",
          "type": "uint256"
        }
      ],
      "stateMutability": "view",
      "type": "function"
    },
    {
      "inputs": [
        {
          "internalType": "uint256",
          "name": "tokenId",
          "type": "uint256"
        }
      ],
      "name": "getApproved",
      "outputs": [
        {
          "internalType": "address",
          "name": "",
          "type": "address"
        }
      ],
      "stateMutability": "view",
      "type": "function"
    },
    {
      "inputs": [
        {
          "internalType": "uint256",
          "name": "boxId",
          "type": "uint256"
        }
      ],
      "name": "getBoxType",
      "outputs": [
        {
          "internalType": "string",
          "name": "",
          "type": "string"
        }
      ],
      "stateMutability": "view",
      "type": "function"
    },
    {
      "inputs": [
        {
          "internalType": "address",
          "name": "owner",
          "type": "address"
        }
      ],
      "name": "getOwnedTokens",
      "outputs": [
        {
          "internalType": "bytes32[]",
          "name": "",
          "type": "bytes32[]"
        }
      ],
      "stateMutability": "view",
      "type": "function"
    },
    {
      "inputs": [
        {
          "internalType": "address",
          "name": "owner",
          "type": "address"
        },
        {
          "internalType": "address",
          "name": "operator",
          "type": "address"
        }
      ],
      "name": "isApprovedForAll",
      "outputs": [
        {
          "internalType": "bool",
          "name": "",
          "type": "bool"
        }
      ],
      "stateMutability": "view",
      "type": "function"
    },
    {
      "inputs": [
        {
          "internalType": "address",
          "name": "operator",
          "type": "address"
        }
      ],
      "name": "isOperator",
      "outputs": [
        {
          "internalType": "bool",
          "name": "",
          "type": "bool"
        }
      ],
      "stateMutability": "view",
      "type": "function"
    },
    {
      "inputs": [
        {
          "internalType": "address",
          "name": "to",
          "type": "address"
        },
        {
          "internalType": "string",
          "name": "boxType",
          "type": "string"
        }
      ],
      "name": "mint",
      "outputs": [],
      "stateMutability": "nonpayable",
      "type": "function"
    },
    {
      "inputs": [],
      "name": "name",
      "outputs": [
        {
          "internalType": "string",
          "name": "",
          "type": "string"
        }
      ],
      "stateMutability": "view",
      "type": "function"
    },
    {
      "inputs": [],
      "name": "owner",
      "outputs": [
        {
          "internalType": "address",
          "name": "",
          "type": "address"
        }
      ],
      "stateMutability": "view",
      "type": "function"
    },
    {
      "inputs": [
        {
          "internalType": "uint256",
          "name": "tokenId",
          "type": "uint256"
        }
      ],
      "name": "ownerOf",
      "outputs": [
        {
          "internalType": "address",
          "name": "",
          "type": "address"
        }
      ],
      "stateMutability": "view",
      "type": "function"
    },
    {
      "inputs": [
        {
          "internalType": "address",
          "name": "operator",
          "type": "address"
        }
      ],
      "name": "removeOperator",
      "outputs": [],
      "stateMutability": "nonpayable",
      "type": "function"
    },
    {
      "inputs": [],
      "name": "renounceOwnership",
      "outputs": [],
      "stateMutability": "nonpayable",
      "type": "function"
    },
    {
      "inputs": [
        {
          "internalType": "address",
          "name": "from",
          "type": "address"
        },
        {
          "internalType": "address",
          "name": "to",
          "type": "address"
        },
        {
          "internalType": "uint256",
          "name": "tokenId",
          "type": "uint256"
        }
      ],
      "name": "safeTransferFrom",
      "outputs": [],
      "stateMutability": "nonpayable",
      "type": "function"
    },
    {
      "inputs": [
        {
          "internalType": "address",
          "name": "from",
          "type": "address"
        },
        {
          "internalType": "address",
          "name": "to",
          "type": "address"
        },
        {
          "internalType": "uint256",
          "name": "tokenId",
          "type": "uint256"
        },
        {
          "internalType": "bytes",
          "name": "data",
          "type": "bytes"
        }
      ],
      "name": "safeTransferFrom",
      "outputs": [],
      "stateMutability": "nonpayable",
      "type": "function"
    },
    {
      "inputs": [
        {
          "internalType": "address",
          "name": "operator",
          "type": "address"
        },
        {
          "internalType": "bool",
          "name": "approved",
          "type": "bool"
        }
      ],
      "name": "setApprovalForAll",
      "outputs": [],
      "stateMutability": "nonpayable",
      "type": "function"
    },
    {
      "inputs": [
        {
          "internalType": "string",
          "name": "baseURI",
          "type": "string"
        }
      ],
      "name": "setBaseTokenURI",
      "outputs": [],
      "stateMutability": "nonpayable",
      "type": "function"
    },
    {
      "inputs": [
        {
          "internalType": "address",
          "name": "operator",
          "type": "address"
        }
      ],
      "name": "setOperator",
      "outputs": [],
      "stateMutability": "nonpayable",
      "type": "function"
    },
    {
      "inputs": [
        {
          "internalType": "bytes4",
          "name": "interfaceId",
          "type": "bytes4"
        }
      ],
      "name": "supportsInterface",
      "outputs": [
        {
          "internalType": "bool",
          "name": "",
          "type": "bool"
        }
      ],
      "stateMutability": "view",
      "type": "function"
    },
    {
      "inputs": [],
      "name": "symbol",
      "outputs": [
        {
          "internalType": "string",
          "name": "",
          "type": "string"
        }
      ],
      "stateMutability": "view",
      "type": "function"
    },
    {
      "inputs": [
        {
          "internalType": "uint256",
          "name": "tokenId",
          "type": "uint256"
        }
      ],
      "name": "tokenURI",
      "outputs": [
        {
          "internalType": "string",
          "name": "",
          "type": "string"
        }
      ],
      "stateMutability": "view",
      "type": "function"
    },
    {
      "inputs": [
        {
          "internalType": "address",
          "name": "from",
          "type": "address"
        },
        {
          "internalType": "address",
          "name": "to",
          "type": "address"
        },
        {
          "internalType": "uint256",
          "name": "tokenId",
          "type": "uint256"
        }
      ],
      "name": "transferFrom",
      "outputs": [],
      "stateMutability": "nonpayable",
      "type": "function"
    },
    {
      "inputs": [
        {
          "internalType": "address",
          "name": "newOwner",
          "type": "address"
        }
      ],
      "name": "transferOwnership",
      "outputs": [],
      "stateMutability": "nonpayable",
      "type": "function"
    },
    {
      "inputs": [
        {
          "internalType": "address",
          "name": "to",
          "type": "address"
        },
        {
          "internalType": "uint256",
          "name": "boxId",
          "type": "uint256"
        },
        {
          "internalType": "string",
          "name": "message",
          "type": "string"
        }
      ],
      "name": "transferWithMessage",
      "outputs": [],
      "stateMutability": "nonpayable",
      "type": "function"
    }
  ],
  "bytecode": "0x60806040523480156200001157600080fd5b506040518060400160405280600b81526020017f4265466974746572426f780000000000000000000000000000000000000000008152506040518060400160405280600381526020017f424642000000000000000000000000000000000000000000000000000000000081525081600090805190602001906200009692919062000256565b508060019080519060200190620000af92919062000256565b505050620000d2620000c66200018860201b60201c565b6200019060201b60201c565b6001600860003373ffffffffffffffffffffffffffffffffffffffff1673ffffffffffffffffffffffffffffffffffffffff16815260200190815260200160002060006101000a81548160ff0219169083151502179055506001600860003373ffffffffffffffffffffffffffffffffffffffff1673ffffffffffffffffffffffffffffffffffffffff16815260200190815260200160002060006101000a81548160ff0219169083151502179055506200036b565b600033905090565b6000600760009054906101000a900473ffffffffffffffffffffffffffffffffffffffff16905081600760006101000a81548173ffffffffffffffffffffffffffffffffffffffff021916908373ffffffffffffffffffffffffffffffffffffffff1602179055508173ffffffffffffffffffffffffffffffffffffffff168173ffffffffffffffffffffffffffffffffffffffff167f8be0079c531659141344cd1fd0a4f28419497f9722a3daafe3b4186f6b6457e060405160405180910390a35050565b828054620002649062000306565b90600052602060002090601f016020900481019282620002885760008555620002d4565b82601f10620002a357805160ff1916838001178555620002d4565b82800160010185558215620002d4579182015b82811115620002d3578251825591602001919060010190620002b6565b5b509050620002e39190620002e7565b5090565b5b8082111562000302576000816000905550600101620002e8565b5090565b600060028204905060018216806200031f57607f821691505b602082108114156200033657620003356200033c565b5b50919050565b7f4e487b7100000000000000000000000000000000000000000000000000000000600052602260045260246000fd5b61371c806200037b6000396000f3fe608060405234801561001057600080fd5b50600436106101585760003560e01c80638da5cb5b116100c3578063b88d4fde1161007c578063b88d4fde146103c1578063c87b56dd146103dd578063d0def5211461040d578063d9d6165514610429578063e985e9c514610459578063f2fde38b1461048957610158565b80638da5cb5b1461030157806395d89b411461031f578063a22cb4651461033d578063ac8a584a14610359578063b3ab15fb14610375578063b546a3bc1461039157610158565b806330176e131161011557806330176e131461022f57806342842e0e1461024b5780636352211e146102675780636d70f7ae1461029757806370a08231146102c7578063715018a6146102f757610158565b806301ffc9a71461015d57806306fdde031461018d578063081812fc146101ab5780630818f44b146101db578063095ea7b3146101f757806323b872dd14610213575b600080fd5b61017760048036038101906101729190612798565b6104a5565b6040516101849190612c63565b60405180910390f35b610195610587565b6040516101a29190612c7e565b60405180910390f35b6101c560048036038101906101c0919061282b565b610619565b6040516101d29190612bda565b60405180910390f35b6101f560048036038101906101f09190612731565b61065f565b005b610211600480360381019061020c91906126f5565b6106d6565b005b61022d6004803603810190610228919061259b565b6107ee565b005b610249600480360381019061024491906127ea565b61084e565b005b6102656004803603810190610260919061259b565b6108f4565b005b610281600480360381019061027c919061282b565b610914565b60405161028e9190612bda565b60405180910390f35b6102b160048036038101906102ac9190612536565b6109c6565b6040516102be9190612c63565b60405180910390f35b6102e160048036038101906102dc9190612536565b610a1c565b6040516102ee9190612e80565b60405180910390f35b6102ff610ad4565b005b610309610ae8565b6040516103169190612bda565b60405180910390f35b610327610b12565b6040516103349190612c7e565b60405180910390f35b61035760048036038101906103529190612665565b610ba4565b005b610373600480360381019061036e9190612536565b610bba565b005b61038f600480360381019061038a9190612536565b610c1d565b005b6103ab60048036038101906103a6919061282b565b610c80565b6040516103b89190612c7e565b60405180910390f35b6103db60048036038101906103d691906125ea565b610d72565b005b6103f760048036038101906103f2919061282b565b610dd4565b6040516104049190612c7e565b60405180910390f35b610427600480360381019061042291906126a1565b610e3c565b005b610443600480360381019061043e9190612536565b610f65565b6040516104509190612c41565b60405180910390f35b610473600480360381019061046e919061255f565b611002565b6040516104809190612c63565b60405180910390f35b6104a3600480360381019061049e9190612536565b611096565b005b60007f80ac58cd000000000000000000000000000000000000000000000000000000007bffffffffffffffffffffffffffffffffffffffffffffffffffffffff1916827bffffffffffffffffffffffffffffffffffffffffffffffffffffffff1916148061057057507f5b5e139f000000000000000000000000000000000000000000000000000000007bffffffffffffffffffffffffffffffffffffffffffffffffffffffff1916827bffffffffffffffffffffffffffffffffffffffffffffffffffffffff1916145b80610580575061057f8261111a565b5b9050919050565b60606000805461059690613149565b80601f01602080910402602001604051908101604052809291908181526020018280546105c290613149565b801561060f5780601f106105e45761010080835404028352916020019161060f565b820191906000526020600020905b8154815290600101906020018083116105f257829003601f168201915b5050505050905090565b600061062482611184565b6004600083815260200190815260200160002060009054906101000a900473ffffffffffffffffffffffffffffffffffffffff169050919050565b61066a3384846107ee565b8273ffffffffffffffffffffffffffffffffffffffff163373ffffffffffffffffffffffffffffffffffffffff167fd206c6a1d7f98af2f2eb722153020fa7b4f2721b8cbc3f03e5dbbfb095d72f8a84846040516106c9929190612e9b565b60405180910390a3505050565b60006106e182610914565b90508073ffffffffffffffffffffffffffffffffffffffff168373ffffffffffffffffffffffffffffffffffffffff161415610752576040517f08c379a000000000000000000000000000000000000000000000000000000000815260040161074990612e20565b60405180910390fd5b8073ffffffffffffffffffffffffffffffffffffffff166107716111cf565b73ffffffffffffffffffffffffffffffffffffffff1614806107a0575061079f8161079a6111cf565b611002565b5b6107df576040517f08c379a00000000000000000000000000000000000000000000000000000000081526004016107d690612da0565b60405180910390fd5b6107e983836111d7565b505050565b6107ff6107f96111cf565b82611290565b61083e576040517f08c379a000000000000000000000000000000000000000000000000000000000815260040161083590612e60565b60405180910390fd5b610849838383611325565b505050565b600860003373ffffffffffffffffffffffffffffffffffffffff1673ffffffffffffffffffffffffffffffffffffffff16815260200190815260200160002060009054906101000a900460ff166108da576040517f08c379a00000000000000000000000000000000000000000000000000000000081526004016108d190612d80565b60405180910390fd5b80600a90805190602001906108f092919061235a565b5050565b61090f83838360405180602001604052806000815250610d72565b505050565b6000806002600084815260200190815260200160002060009054906101000a900473ffffffffffffffffffffffffffffffffffffffff169050600073ffffffffffffffffffffffffffffffffffffffff168173ffffffffffffffffffffffffffffffffffffffff1614156109bd576040517f08c379a00000000000000000000000000000000000000000000000000000000081526004016109b490612e00565b60405180910390fd5b80915050919050565b6000600860008373ffffffffffffffffffffffffffffffffffffffff1673ffffffffffffffffffffffffffffffffffffffff16815260200190815260200160002060009054906101000a900460ff169050919050565b60008073ffffffffffffffffffffffffffffffffffffffff168273ffffffffffffffffffffffffffffffffffffffff161415610a8d576040517f08c379a0000000000000000000000000000000000000000000000000000000008152600401610a8490612d60565b60405180910390fd5b600360008373ffffffffffffffffffffffffffffffffffffffff1673ffffffffffffffffffffffffffffffffffffffff168152602001908152602001600020549050919050565b610adc61158c565b610ae6600061160a565b565b6000600760009054906101000a900473ffffffffffffffffffffffffffffffffffffffff16905090565b606060018054610b2190613149565b80601f0160208091040260200160405190810160405280929190818152602001828054610b4d90613149565b8015610b9a5780601f10610b6f57610100808354040283529160200191610b9a565b820191906000526020600020905b815481529060010190602001808311610b7d57829003601f168201915b5050505050905090565b610bb6610baf6111cf565b83836116d0565b5050565b610bc261158c565b6000600860008373ffffffffffffffffffffffffffffffffffffffff1673ffffffffffffffffffffffffffffffffffffffff16815260200190815260200160002060006101000a81548160ff02191690831515021790555050565b610c2561158c565b6001600860008373ffffffffffffffffffffffffffffffffffffffff1673ffffffffffffffffffffffffffffffffffffffff16815260200190815260200160002060006101000a81548160ff02191690831515021790555050565b606081610c8d600961183d565b8110610cce576040517f08c379a0000000000000000000000000000000000000000000000000000000008152600401610cc590612e40565b60405180910390fd5b600b60008481526020019081526020016000208054610cec90613149565b80601f0160208091040260200160405190810160405280929190818152602001828054610d1890613149565b8015610d655780601f10610d3a57610100808354040283529160200191610d65565b820191906000526020600020905b815481529060010190602001808311610d4857829003601f168201915b5050505050915050919050565b610d83610d7d6111cf565b83611290565b610dc2576040517f08c379a0000000000000000000000000000000000000000000000000000000008152600401610db990612e60565b60405180910390fd5b610dce8484848461184b565b50505050565b6060610ddf82611184565b6000610de96118a7565b90506000815111610e095760405180602001604052806000815250610e34565b80610e1384611939565b604051602001610e24929190612bb6565b6040516020818303038152906040525b915050919050565b600860003373ffffffffffffffffffffffffffffffffffffffff1673ffffffffffffffffffffffffffffffffffffffff16815260200190815260200160002060009054906101000a900460ff16610ec8576040517f08c379a0000000000000000000000000000000000000000000000000000000008152600401610ebf90612d80565b60405180910390fd5b6000610ed4600961183d565b9050610ee08382611ae6565b81600b60008381526020019081526020016000209080519060200190610f0792919061235a565b50610f126009611b04565b8273ffffffffffffffffffffffffffffffffffffffff167fcb924e9f1cd50e7b79d9a97711e1b4d1e18c588d56dc6acaea1909562248f92782604051610f589190612e80565b60405180910390a2505050565b6060600660008373ffffffffffffffffffffffffffffffffffffffff1673ffffffffffffffffffffffffffffffffffffffff168152602001908152602001600020600001600001805480602002602001604051908101604052809291908181526020018280548015610ff657602002820191906000526020600020905b815481526020019060010190808311610fe2575b50505050509050919050565b6000600560008473ffffffffffffffffffffffffffffffffffffffff1673ffffffffffffffffffffffffffffffffffffffff16815260200190815260200160002060008373ffffffffffffffffffffffffffffffffffffffff1673ffffffffffffffffffffffffffffffffffffffff16815260200190815260200160002060009054906101000a900460ff16905092915050565b61109e61158c565b600073ffffffffffffffffffffffffffffffffffffffff168173ffffffffffffffffffffffffffffffffffffffff16141561110e576040517f08c379a000000000000000000000000000000000000000000000000000000000815260040161110590612cc0565b60405180910390fd5b6111178161160a565b50565b60007f01ffc9a7000000000000000000000000000000000000000000000000000000007bffffffffffffffffffffffffffffffffffffffffffffffffffffffff1916827bffffffffffffffffffffffffffffffffffffffffffffffffffffffff1916149050919050565b61118d81611b1a565b6111cc576040517f08c379a00000000000000000000000000000000000000000000000000000000081526004016111c390612e00565b60405180910390fd5b50565b600033905090565b816004600083815260200190815260200160002060006101000a81548173ffffffffffffffffffffffffffffffffffffffff021916908373ffffffffffffffffffffffffffffffffffffffff160217905550808273ffffffffffffffffffffffffffffffffffffffff1661124a83610914565b73ffffffffffffffffffffffffffffffffffffffff167f8c5be1e5ebec7d5bd14f71427d1e84f3dd0314c0f7b2291e5b200ac8c7c3b92560405160405180910390a45050565b60008061129c83610914565b90508073ffffffffffffffffffffffffffffffffffffffff168473ffffffffffffffffffffffffffffffffffffffff1614806112de57506112dd8185611002565b5b8061131c57508373ffffffffffffffffffffffffffffffffffffffff1661130484610619565b73ffffffffffffffffffffffffffffffffffffffff16145b91505092915050565b8273ffffffffffffffffffffffffffffffffffffffff1661134582610914565b73ffffffffffffffffffffffffffffffffffffffff161461139b576040517f08c379a000000000000000000000000000000000000000000000000000000000815260040161139290612ce0565b60405180910390fd5b600073ffffffffffffffffffffffffffffffffffffffff168273ffffffffffffffffffffffffffffffffffffffff16141561140b576040517f08c379a000000000000000000000000000000000000000000000000000000000815260040161140290612d20565b60405180910390fd5b611416838383611b86565b6114216000826111d7565b6001600360008573ffffffffffffffffffffffffffffffffffffffff1673ffffffffffffffffffffffffffffffffffffffff16815260200190815260200160002060008282546114719190613055565b925050819055506001600360008473ffffffffffffffffffffffffffffffffffffffff1673ffffffffffffffffffffffffffffffffffffffff16815260200190815260200160002060008282546114c89190612fce565b92505081905550816002600083815260200190815260200160002060006101000a81548173ffffffffffffffffffffffffffffffffffffffff021916908373ffffffffffffffffffffffffffffffffffffffff160217905550808273ffffffffffffffffffffffffffffffffffffffff168473ffffffffffffffffffffffffffffffffffffffff167fddf252ad1be2c89b69c2b068fc378daa952ba7f163c4a11628f55a4df523b3ef60405160405180910390a4611587838383611c68565b505050565b6115946111cf565b73ffffffffffffffffffffffffffffffffffffffff166115b2610ae8565b73ffffffffffffffffffffffffffffffffffffffff1614611608576040517f08c379a00000000000000000000000000000000000000000000000000000000081526004016115ff90612de0565b60405180910390fd5b565b6000600760009054906101000a900473ffffffffffffffffffffffffffffffffffffffff16905081600760006101000a81548173ffffffffffffffffffffffffffffffffffffffff021916908373ffffffffffffffffffffffffffffffffffffffff1602179055508173ffffffffffffffffffffffffffffffffffffffff168173ffffffffffffffffffffffffffffffffffffffff167f8be0079c531659141344cd1fd0a4f28419497f9722a3daafe3b4186f6b6457e060405160405180910390a35050565b8173ffffffffffffffffffffffffffffffffffffffff168373ffffffffffffffffffffffffffffffffffffffff16141561173f576040517f08c379a000000000000000000000000000000000000000000000000000000000815260040161173690612d40565b60405180910390fd5b80600560008573ffffffffffffffffffffffffffffffffffffffff1673ffffffffffffffffffffffffffffffffffffffff16815260200190815260200160002060008473ffffffffffffffffffffffffffffffffffffffff1673ffffffffffffffffffffffffffffffffffffffff16815260200190815260200160002060006101000a81548160ff0219169083151502179055508173ffffffffffffffffffffffffffffffffffffffff168373ffffffffffffffffffffffffffffffffffffffff167f17307eab39ab6107e8899845ad3d59bd9653f200f220920489ca2b5937696c31836040516118309190612c63565b60405180910390a3505050565b600081600001549050919050565b611856848484611325565b61186284848484611c6d565b6118a1576040517f08c379a000000000000000000000000000000000000000000000000000000000815260040161189890612ca0565b60405180910390fd5b50505050565b6060600a80546118b690613149565b80601f01602080910402602001604051908101604052809291908181526020018280546118e290613149565b801561192f5780601f106119045761010080835404028352916020019161192f565b820191906000526020600020905b81548152906001019060200180831161191257829003601f168201915b5050505050905090565b60606000821415611981576040518060400160405280600181526020017f30000000000000000000000000000000000000000000000000000000000000008152509050611ae1565b600082905060005b600082146119b357808061199c906131ac565b915050600a826119ac9190613024565b9150611989565b60008167ffffffffffffffff8111156119f5577f4e487b7100000000000000000000000000000000000000000000000000000000600052604160045260246000fd5b6040519080825280601f01601f191660200182016040528015611a275781602001600182028036833780820191505090505b5090505b60008514611ada57600182611a409190613055565b9150600a85611a4f91906131f5565b6030611a5b9190612fce565b60f81b818381518110611a97577f4e487b7100000000000000000000000000000000000000000000000000000000600052603260045260246000fd5b60200101907effffffffffffffffffffffffffffffffffffffffffffffffffffffffffffff1916908160001a905350600a85611ad39190613024565b9450611a2b565b8093505050505b919050565b611b00828260405180602001604052806000815250611e04565b5050565b6001816000016000828254019250508190555050565b60008073ffffffffffffffffffffffffffffffffffffffff166002600084815260200190815260200160002060009054906101000a900473ffffffffffffffffffffffffffffffffffffffff1673ffffffffffffffffffffffffffffffffffffffff1614159050919050565b611b91838383611e5f565b600073ffffffffffffffffffffffffffffffffffffffff168373ffffffffffffffffffffffffffffffffffffffff161415611bd557611bd08282611e64565b611c63565b600073ffffffffffffffffffffffffffffffffffffffff168273ffffffffffffffffffffffffffffffffffffffff161415611c1957611c148382611eba565b611c62565b8173ffffffffffffffffffffffffffffffffffffffff168373ffffffffffffffffffffffffffffffffffffffff1614611c6157611c568282611e64565b611c608382611eba565b5b5b5b505050565b505050565b6000611c8e8473ffffffffffffffffffffffffffffffffffffffff16611f10565b15611df7578373ffffffffffffffffffffffffffffffffffffffff1663150b7a02611cb76111cf565b8786866040518563ffffffff1660e01b8152600401611cd99493929190612bf5565b602060405180830381600087803b158015611cf357600080fd5b505af1925050508015611d2457506040513d601f19601f82011682018060405250810190611d2191906127c1565b60015b611da7573d8060008114611d54576040519150601f19603f3d011682016040523d82523d6000602084013e611d59565b606091505b50600081511415611d9f576040517f08c379a0000000000000000000000000000000000000000000000000000000008152600401611d9690612ca0565b60405180910390fd5b805181602001fd5b63150b7a0260e01b7bffffffffffffffffffffffffffffffffffffffffffffffffffffffff1916817bffffffffffffffffffffffffffffffffffffffffffffffffffffffff191614915050611dfc565b600190505b949350505050565b611e0e8383611f33565b611e1b6000848484611c6d565b611e5a576040517f08c379a0000000000000000000000000000000000000000000000000000000008152600401611e5190612ca0565b60405180910390fd5b505050565b505050565b611eb581600660008573ffffffffffffffffffffffffffffffffffffffff1673ffffffffffffffffffffffffffffffffffffffff16815260200190815260200160002061210d90919063ffffffff16565b505050565b611f0b81600660008573ffffffffffffffffffffffffffffffffffffffff1673ffffffffffffffffffffffffffffffffffffffff16815260200190815260200160002061212790919063ffffffff16565b505050565b6000808273ffffffffffffffffffffffffffffffffffffffff163b119050919050565b600073ffffffffffffffffffffffffffffffffffffffff168273ffffffffffffffffffffffffffffffffffffffff161415611fa3576040517f08c379a0000000000000000000000000000000000000000000000000000000008152600401611f9a90612dc0565b60405180910390fd5b611fac81611b1a565b15611fec576040517f08c379a0000000000000000000000000000000000000000000000000000000008152600401611fe390612d00565b60405180910390fd5b611ff860008383611b86565b6001600360008473ffffffffffffffffffffffffffffffffffffffff1673ffffffffffffffffffffffffffffffffffffffff16815260200190815260200160002060008282546120489190612fce565b92505081905550816002600083815260200190815260200160002060006101000a81548173ffffffffffffffffffffffffffffffffffffffff021916908373ffffffffffffffffffffffffffffffffffffffff160217905550808273ffffffffffffffffffffffffffffffffffffffff16600073ffffffffffffffffffffffffffffffffffffffff167fddf252ad1be2c89b69c2b068fc378daa952ba7f163c4a11628f55a4df523b3ef60405160405180910390a461210960008383611c68565b5050565b600061211f836000018360001b612141565b905092915050565b6000612139836000018360001b6121b1565b905092915050565b600061214d8383612337565b6121a65782600001829080600181540180825580915050600190039060005260206000200160009091909190915055826000018054905083600101600084815260200190815260200160002081905550600190506121ab565b600090505b92915050565b6000808360010160008481526020019081526020016000205490506000811461232b5760006001826121e39190613055565b90506000600186600001805490506121fb9190613055565b90508181146122b6576000866000018281548110612242577f4e487b7100000000000000000000000000000000000000000000000000000000600052603260045260246000fd5b906000526020600020015490508087600001848154811061228c577f4e487b7100000000000000000000000000000000000000000000000000000000600052603260045260246000fd5b90600052602060002001819055508387600101600083815260200190815260200160002081905550505b856000018054806122f0577f4e487b7100000000000000000000000000000000000000000000000000000000600052603160045260246000fd5b600190038181906000526020600020016000905590558560010160008681526020019081526020016000206000905560019350505050612331565b60009150505b92915050565b600080836001016000848152602001908152602001600020541415905092915050565b82805461236690613149565b90600052602060002090601f01602090048101928261238857600085556123cf565b82601f106123a157805160ff19168380011785556123cf565b828001600101855582156123cf579182015b828111156123ce5782518255916020019190600101906123b3565b5b5090506123dc91906123e0565b5090565b5b808211156123f95760008160009055506001016123e1565b5090565b600061241061240b84612ef0565b612ecb565b90508281526020810184848401111561242857600080fd5b612433848285613107565b509392505050565b600061244e61244984612f21565b612ecb565b90508281526020810184848401111561246657600080fd5b612471848285613107565b509392505050565b6000813590506124888161368a565b92915050565b60008135905061249d816136a1565b92915050565b6000813590506124b2816136b8565b92915050565b6000815190506124c7816136b8565b92915050565b600082601f8301126124de57600080fd5b81356124ee8482602086016123fd565b91505092915050565b600082601f83011261250857600080fd5b813561251884826020860161243b565b91505092915050565b600081359050612530816136cf565b92915050565b60006020828403121561254857600080fd5b600061255684828501612479565b91505092915050565b6000806040838503121561257257600080fd5b600061258085828601612479565b925050602061259185828601612479565b9150509250929050565b6000806000606084860312156125b057600080fd5b60006125be86828701612479565b93505060206125cf86828701612479565b92505060406125e086828701612521565b9150509250925092565b6000806000806080858703121561260057600080fd5b600061260e87828801612479565b945050602061261f87828801612479565b935050604061263087828801612521565b925050606085013567ffffffffffffffff81111561264d57600080fd5b612659878288016124cd565b91505092959194509250565b6000806040838503121561267857600080fd5b600061268685828601612479565b92505060206126978582860161248e565b9150509250929050565b600080604083850312156126b457600080fd5b60006126c285828601612479565b925050602083013567ffffffffffffffff8111156126df57600080fd5b6126eb858286016124f7565b9150509250929050565b6000806040838503121561270857600080fd5b600061271685828601612479565b925050602061272785828601612521565b9150509250929050565b60008060006060848603121561274657600080fd5b600061275486828701612479565b935050602061276586828701612521565b925050604084013567ffffffffffffffff81111561278257600080fd5b61278e868287016124f7565b9150509250925092565b6000602082840312156127aa57600080fd5b60006127b8848285016124a3565b91505092915050565b6000602082840312156127d357600080fd5b60006127e1848285016124b8565b91505092915050565b6000602082840312156127fc57600080fd5b600082013567ffffffffffffffff81111561281657600080fd5b612822848285016124f7565b91505092915050565b60006020828403121561283d57600080fd5b600061284b84828501612521565b91505092915050565b600061286083836128e8565b60208301905092915050565b61287581613089565b82525050565b600061288682612f62565b6128908185612f90565b935061289b83612f52565b8060005b838110156128cc5781516128b38882612854565b97506128be83612f83565b92505060018101905061289f565b5085935050505092915050565b6128e28161309b565b82525050565b6128f1816130a7565b82525050565b600061290282612f6d565b61290c8185612fa1565b935061291c818560208601613116565b612925816132e2565b840191505092915050565b600061293b82612f78565b6129458185612fb2565b9350612955818560208601613116565b61295e816132e2565b840191505092915050565b600061297482612f78565b61297e8185612fc3565b935061298e818560208601613116565b80840191505092915050565b60006129a7603283612fb2565b91506129b2826132f3565b604082019050919050565b60006129ca602683612fb2565b91506129d582613342565b604082019050919050565b60006129ed602583612fb2565b91506129f882613391565b604082019050919050565b6000612a10601c83612fb2565b9150612a1b826133e0565b602082019050919050565b6000612a33602483612fb2565b9150612a3e82613409565b604082019050919050565b6000612a56601983612fb2565b9150612a6182613458565b602082019050919050565b6000612a79602983612fb2565b9150612a8482613481565b604082019050919050565b6000612a9c601b83612fb2565b9150612aa7826134d0565b602082019050919050565b6000612abf603e83612fb2565b9150612aca826134f9565b604082019050919050565b6000612ae2602083612fb2565b9150612aed82613548565b602082019050919050565b6000612b05602083612fb2565b9150612b1082613571565b602082019050919050565b6000612b28601883612fb2565b9150612b338261359a565b602082019050919050565b6000612b4b602183612fb2565b9150612b56826135c3565b604082019050919050565b6000612b6e600d83612fb2565b9150612b7982613612565b602082019050919050565b6000612b91602e83612fb2565b9150612b9c8261363b565b604082019050919050565b612bb0816130fd565b82525050565b6000612bc28285612969565b9150612bce8284612969565b91508190509392505050565b6000602082019050612bef600083018461286c565b92915050565b6000608082019050612c0a600083018761286c565b612c17602083018661286c565b612c246040830185612ba7565b8181036060830152612c3681846128f7565b905095945050505050565b60006020820190508181036000830152612c5b818461287b565b905092915050565b6000602082019050612c7860008301846128d9565b92915050565b60006020820190508181036000830152612c988184612930565b905092915050565b60006020820190508181036000830152612cb98161299a565b9050919050565b60006020820190508181036000830152612cd9816129bd565b9050919050565b60006020820190508181036000830152612cf9816129e0565b9050919050565b60006020820190508181036000830152612d1981612a03565b9050919050565b60006020820190508181036000830152612d3981612a26565b9050919050565b60006020820190508181036000830152612d5981612a49565b9050919050565b60006020820190508181036000830152612d7981612a6c565b9050919050565b60006020820190508181036000830152612d9981612a8f565b9050919050565b60006020820190508181036000830152612db981612ab2565b9050919050565b60006020820190508181036000830152612dd981612ad5565b9050919050565b60006020820190508181036000830152612df981612af8565b9050919050565b60006020820190508181036000830152612e1981612b1b565b9050919050565b60006020820190508181036000830152612e3981612b3e565b9050919050565b60006020820190508181036000830152612e5981612b61565b9050919050565b60006020820190508181036000830152612e7981612b84565b9050919050565b6000602082019050612e956000830184612ba7565b92915050565b6000604082019050612eb06000830185612ba7565b8181036020830152612ec28184612930565b90509392505050565b6000612ed5612ee6565b9050612ee1828261317b565b919050565b6000604051905090565b600067ffffffffffffffff821115612f0b57612f0a6132b3565b5b612f14826132e2565b9050602081019050919050565b600067ffffffffffffffff821115612f3c57612f3b6132b3565b5b612f45826132e2565b9050602081019050919050565b6000819050602082019050919050565b600081519050919050565b600081519050919050565b600081519050919050565b6000602082019050919050565b600082825260208201905092915050565b600082825260208201905092915050565b600082825260208201905092915050565b600081905092915050565b6000612fd9826130fd565b9150612fe4836130fd565b9250827fffffffffffffffffffffffffffffffffffffffffffffffffffffffffffffffff0382111561301957613018613226565b5b828201905092915050565b600061302f826130fd565b915061303a836130fd565b92508261304a57613049613255565b5b828204905092915050565b6000613060826130fd565b915061306b836130fd565b92508282101561307e5761307d613226565b5b828203905092915050565b6000613094826130dd565b9050919050565b60008115159050919050565b6000819050919050565b60007fffffffff0000000000000000000000000000000000000000000000000000000082169050919050565b600073ffffffffffffffffffffffffffffffffffffffff82169050919050565b6000819050919050565b82818337600083830152505050565b60005b83811015613134578082015181840152602081019050613119565b83811115613143576000848401525b50505050565b6000600282049050600182168061316157607f821691505b6020821081141561317557613174613284565b5b50919050565b613184826132e2565b810181811067ffffffffffffffff821117156131a3576131a26132b3565b5b80604052505050565b60006131b7826130fd565b91507fffffffffffffffffffffffffffffffffffffffffffffffffffffffffffffffff8214156131ea576131e9613226565b5b600182019050919050565b6000613200826130fd565b915061320b836130fd565b92508261321b5761321a613255565b5b828206905092915050565b7f4e487b7100000000000000000000000000000000000000000000000000000000600052601160045260246000fd5b7f4e487b7100000000000000000000000000000000000000000000000000000000600052601260045260246000fd5b7f4e487b7100000000000000000000000000000000000000000000000000000000600052602260045260246000fd5b7f4e487b7100000000000000000000000000000000000000000000000000000000600052604160045260246000fd5b6000601f19601f8301169050919050565b7f4552433732313a207472616e7366657220746f206e6f6e20455243373231526560008201527f63656976657220696d706c656d656e7465720000000000000000000000000000602082015250565b7f4f776e61626c653a206e6577206f776e657220697320746865207a65726f206160008201527f6464726573730000000000000000000000000000000000000000000000000000602082015250565b7f4552433732313a207472616e736665722066726f6d20696e636f72726563742060008201527f6f776e6572000000000000000000000000000000000000000000000000000000602082015250565b7f4552433732313a20746f6b656e20616c7265616479206d696e74656400000000600082015250565b7f4552433732313a207472616e7366657220746f20746865207a65726f2061646460008201527f7265737300000000000000000000000000000000000000000000000000000000602082015250565b7f4552433732313a20617070726f766520746f2063616c6c657200000000000000600082015250565b7f4552433732313a2061646472657373207a65726f206973206e6f74206120766160008201527f6c6964206f776e65720000000000000000000000000000000000000000000000602082015250565b7f63616c6c6572206973206e6f7420746865206f70657261746f72730000000000600082015250565b7f4552433732313a20617070726f76652063616c6c6572206973206e6f7420746f60008201527f6b656e206f776e6572206e6f7220617070726f76656420666f7220616c6c0000602082015250565b7f4552433732313a206d696e7420746f20746865207a65726f2061646472657373600082015250565b7f4f776e61626c653a2063616c6c6572206973206e6f7420746865206f776e6572600082015250565b7f4552433732313a20696e76616c696420746f6b656e2049440000000000000000600082015250565b7f4552433732313a20617070726f76616c20746f2063757272656e74206f776e6560008201527f7200000000000000000000000000000000000000000000000000000000000000602082015250565b7f496e76616c696420626f78494400000000000000000000000000000000000000600082015250565b7f4552433732313a2063616c6c6572206973206e6f7420746f6b656e206f776e6560008201527f72206e6f7220617070726f766564000000000000000000000000000000000000602082015250565b61369381613089565b811461369e57600080fd5b50565b6136aa8161309b565b81146136b557600080fd5b50565b6136c1816130b1565b81146136cc57600080fd5b50565b6136d8816130fd565b81146136e357600080fd5b5056fea2646970667358221220c85d7ab571c7d380c988ec9144794fa4074e310fec244765aa31a008f68e139e64736f6c63430008040033",
  "linkReferences": {},
  "deployedLinkReferences": {}
}