{
  "_format": "hh-sol-artifact-1",
  "contractName": "BeFitterBox",
  "sourceName": "contracts/BeFitterBox.sol",
  "abi": [
    {
      "inputs": [],
      "stateMutability": "nonpayable",
      "type": "constructor"
    },
    {
      "anonymous": false,
      "inputs": [
        {
          "indexed": true,
          "internalType": "address",
          "name": "owner",
          "type": "address"
        },
        {
          "indexed": true,
          "internalType": "address",
          "name": "approved",
          "type": "address"
        },
        {
          "indexed": true,
          "internalType": "uint256",
          "name": "tokenId",
          "type": "uint256"
        }
      ],
      "name": "Approval",
      "type": "event"
    },
    {
      "anonymous": false,
      "inputs": [
        {
          "indexed": true,
          "internalType": "address",
          "name": "owner",
          "type": "address"
        },
        {
          "indexed": true,
          "internalType": "address",
          "name": "operator",
          "type": "address"
        },
        {
          "indexed": false,
          "internalType": "bool",
          "name": "approved",
          "type": "bool"
        }
      ],
      "name": "ApprovalForAll",
      "type": "event"
    },
    {
      "anonymous": false,
      "inputs": [
        {
          "indexed": true,
          "internalType": "address",
          "name": "to",
          "type": "address"
        },
        {
          "indexed": false,
          "internalType": "uint256",
          "name": "tokenId",
          "type": "uint256"
        }
      ],
      "name": "BoxMinted",
      "type": "event"
    },
    {
      "anonymous": false,
      "inputs": [
        {
          "indexed": true,
          "internalType": "address",
          "name": "from",
          "type": "address"
        },
        {
          "indexed": true,
          "internalType": "address",
          "name": "to",
          "type": "address"
        },
        {
          "indexed": false,
          "internalType": "uint256",
          "name": "boxId",
          "type": "uint256"
        }
      ],
      "name": "BoxTransferred",
      "type": "event"
    },
    {
      "anonymous": false,
      "inputs": [
        {
          "indexed": true,
          "internalType": "address",
          "name": "previousOwner",
          "type": "address"
        },
        {
          "indexed": true,
          "internalType": "address",
          "name": "newOwner",
          "type": "address"
        }
      ],
      "name": "OwnershipTransferred",
      "type": "event"
    },
    {
      "anonymous": false,
      "inputs": [
        {
          "indexed": true,
          "internalType": "address",
          "name": "from",
          "type": "address"
        },
        {
          "indexed": true,
          "internalType": "address",
          "name": "to",
          "type": "address"
        },
        {
          "indexed": true,
          "internalType": "uint256",
          "name": "tokenId",
          "type": "uint256"
        }
      ],
      "name": "Transfer",
      "type": "event"
    },
    {
      "inputs": [
        {
          "internalType": "address",
          "name": "to",
          "type": "address"
        },
        {
          "internalType": "uint256",
          "name": "tokenId",
          "type": "uint256"
        }
      ],
      "name": "approve",
      "outputs": [],
      "stateMutability": "nonpayable",
      "type": "function"
    },
    {
      "inputs": [
        {
          "internalType": "address",
          "name": "owner",
          "type": "address"
        }
      ],
      "name": "balanceOf",
      "outputs": [
        {
          "internalType": "uint256",
          "name": "",
          "type": "uint256"
        }
      ],
      "stateMutability": "view",
      "type": "function"
    },
    {
      "inputs": [
        {
          "internalType": "uint256",
          "name": "tokenId",
          "type": "uint256"
        }
      ],
      "name": "getApproved",
      "outputs": [
        {
          "internalType": "address",
          "name": "",
          "type": "address"
        }
      ],
      "stateMutability": "view",
      "type": "function"
    },
    {
      "inputs": [
        {
          "internalType": "uint256",
          "name": "boxId",
          "type": "uint256"
        }
      ],
      "name": "getBoxType",
      "outputs": [
        {
          "internalType": "string",
          "name": "",
          "type": "string"
        }
      ],
      "stateMutability": "view",
      "type": "function"
    },
    {
      "inputs": [
        {
          "internalType": "address",
          "name": "owner",
          "type": "address"
        }
      ],
      "name": "getOwnedTokens",
      "outputs": [
        {
          "internalType": "bytes32[]",
          "name": "",
          "type": "bytes32[]"
        }
      ],
      "stateMutability": "view",
      "type": "function"
    },
    {
      "inputs": [
        {
          "internalType": "address",
          "name": "owner",
          "type": "address"
        },
        {
          "internalType": "address",
          "name": "operator",
          "type": "address"
        }
      ],
      "name": "isApprovedForAll",
      "outputs": [
        {
          "internalType": "bool",
          "name": "",
          "type": "bool"
        }
      ],
      "stateMutability": "view",
      "type": "function"
    },
    {
      "inputs": [
        {
          "internalType": "address",
          "name": "operator",
          "type": "address"
        }
      ],
      "name": "isOperator",
      "outputs": [
        {
          "internalType": "bool",
          "name": "",
          "type": "bool"
        }
      ],
      "stateMutability": "view",
      "type": "function"
    },
    {
      "inputs": [
        {
          "internalType": "address",
          "name": "to",
          "type": "address"
        },
        {
          "internalType": "string",
          "name": "boxType",
          "type": "string"
        }
      ],
      "name": "mint",
      "outputs": [],
      "stateMutability": "nonpayable",
      "type": "function"
    },
    {
      "inputs": [],
      "name": "name",
      "outputs": [
        {
          "internalType": "string",
          "name": "",
          "type": "string"
        }
      ],
      "stateMutability": "view",
      "type": "function"
    },
    {
      "inputs": [],
      "name": "owner",
      "outputs": [
        {
          "internalType": "address",
          "name": "",
          "type": "address"
        }
      ],
      "stateMutability": "view",
      "type": "function"
    },
    {
      "inputs": [
        {
          "internalType": "uint256",
          "name": "tokenId",
          "type": "uint256"
        }
      ],
      "name": "ownerOf",
      "outputs": [
        {
          "internalType": "address",
          "name": "",
          "type": "address"
        }
      ],
      "stateMutability": "view",
      "type": "function"
    },
    {
      "inputs": [
        {
          "internalType": "address",
          "name": "operator",
          "type": "address"
        }
      ],
      "name": "removeOperator",
      "outputs": [],
      "stateMutability": "nonpayable",
      "type": "function"
    },
    {
      "inputs": [],
      "name": "renounceOwnership",
      "outputs": [],
      "stateMutability": "nonpayable",
      "type": "function"
    },
    {
      "inputs": [
        {
          "internalType": "address",
          "name": "from",
          "type": "address"
        },
        {
          "internalType": "address",
          "name": "to",
          "type": "address"
        },
        {
          "internalType": "uint256",
          "name": "tokenId",
          "type": "uint256"
        }
      ],
      "name": "safeTransferFrom",
      "outputs": [],
      "stateMutability": "nonpayable",
      "type": "function"
    },
    {
      "inputs": [
        {
          "internalType": "address",
          "name": "from",
          "type": "address"
        },
        {
          "internalType": "address",
          "name": "to",
          "type": "address"
        },
        {
          "internalType": "uint256",
          "name": "tokenId",
          "type": "uint256"
        },
        {
          "internalType": "bytes",
          "name": "_data",
          "type": "bytes"
        }
      ],
      "name": "safeTransferFrom",
      "outputs": [],
      "stateMutability": "nonpayable",
      "type": "function"
    },
    {
      "inputs": [
        {
          "internalType": "address",
          "name": "operator",
          "type": "address"
        },
        {
          "internalType": "bool",
          "name": "approved",
          "type": "bool"
        }
      ],
      "name": "setApprovalForAll",
      "outputs": [],
      "stateMutability": "nonpayable",
      "type": "function"
    },
    {
      "inputs": [
        {
          "internalType": "string",
          "name": "baseURI",
          "type": "string"
        }
      ],
      "name": "setBaseTokenURI",
      "outputs": [],
      "stateMutability": "nonpayable",
      "type": "function"
    },
    {
      "inputs": [
        {
          "internalType": "address",
          "name": "operator",
          "type": "address"
        }
      ],
      "name": "setOperator",
      "outputs": [],
      "stateMutability": "nonpayable",
      "type": "function"
    },
    {
      "inputs": [
        {
          "internalType": "bytes4",
          "name": "interfaceId",
          "type": "bytes4"
        }
      ],
      "name": "supportsInterface",
      "outputs": [
        {
          "internalType": "bool",
          "name": "",
          "type": "bool"
        }
      ],
      "stateMutability": "view",
      "type": "function"
    },
    {
      "inputs": [],
      "name": "symbol",
      "outputs": [
        {
          "internalType": "string",
          "name": "",
          "type": "string"
        }
      ],
      "stateMutability": "view",
      "type": "function"
    },
    {
      "inputs": [
        {
          "internalType": "uint256",
          "name": "tokenId",
          "type": "uint256"
        }
      ],
      "name": "tokenURI",
      "outputs": [
        {
          "internalType": "string",
          "name": "",
          "type": "string"
        }
      ],
      "stateMutability": "view",
      "type": "function"
    },
    {
      "inputs": [
        {
          "internalType": "address",
          "name": "from",
          "type": "address"
        },
        {
          "internalType": "address",
          "name": "to",
          "type": "address"
        },
        {
          "internalType": "uint256",
          "name": "tokenId",
          "type": "uint256"
        }
      ],
      "name": "transferFrom",
      "outputs": [],
      "stateMutability": "nonpayable",
      "type": "function"
    },
    {
      "inputs": [
        {
          "internalType": "address",
          "name": "newOwner",
          "type": "address"
        }
      ],
      "name": "transferOwnership",
      "outputs": [],
      "stateMutability": "nonpayable",
      "type": "function"
    }
  ],
  "bytecode": "0x60806040523480156200001157600080fd5b506040518060400160405280600b81526020017f4265466974746572426f780000000000000000000000000000000000000000008152506040518060400160405280600381526020017f424642000000000000000000000000000000000000000000000000000000000081525081600090805190602001906200009692919062000256565b508060019080519060200190620000af92919062000256565b505050620000d2620000c66200018860201b60201c565b6200019060201b60201c565b6001600860003373ffffffffffffffffffffffffffffffffffffffff1673ffffffffffffffffffffffffffffffffffffffff16815260200190815260200160002060006101000a81548160ff0219169083151502179055506001600860003373ffffffffffffffffffffffffffffffffffffffff1673ffffffffffffffffffffffffffffffffffffffff16815260200190815260200160002060006101000a81548160ff0219169083151502179055506200036b565b600033905090565b6000600760009054906101000a900473ffffffffffffffffffffffffffffffffffffffff16905081600760006101000a81548173ffffffffffffffffffffffffffffffffffffffff021916908373ffffffffffffffffffffffffffffffffffffffff1602179055508173ffffffffffffffffffffffffffffffffffffffff168173ffffffffffffffffffffffffffffffffffffffff167f8be0079c531659141344cd1fd0a4f28419497f9722a3daafe3b4186f6b6457e060405160405180910390a35050565b828054620002649062000306565b90600052602060002090601f016020900481019282620002885760008555620002d4565b82601f10620002a357805160ff1916838001178555620002d4565b82800160010185558215620002d4579182015b82811115620002d3578251825591602001919060010190620002b6565b5b509050620002e39190620002e7565b5090565b5b8082111562000302576000816000905550600101620002e8565b5090565b600060028204905060018216806200031f57607f821691505b602082108114156200033657620003356200033c565b5b50919050565b7f4e487b7100000000000000000000000000000000000000000000000000000000600052602260045260246000fd5b613ac5806200037b6000396000f3fe608060405234801561001057600080fd5b506004361061014d5760003560e01c80638da5cb5b116100c3578063b88d4fde1161007c578063b88d4fde1461039a578063c87b56dd146103b6578063d0def521146103e6578063d9d6165514610402578063e985e9c514610432578063f2fde38b146104625761014d565b80638da5cb5b146102da57806395d89b41146102f8578063a22cb46514610316578063ac8a584a14610332578063b3ab15fb1461034e578063b546a3bc1461036a5761014d565b806330176e131161011557806330176e131461020857806342842e0e146102245780636352211e146102405780636d70f7ae1461027057806370a08231146102a0578063715018a6146102d05761014d565b806301ffc9a71461015257806306fdde0314610182578063081812fc146101a0578063095ea7b3146101d057806323b872dd146101ec575b600080fd5b61016c60048036038101906101679190612965565b61047e565b6040516101799190612e99565b60405180910390f35b61018a610560565b6040516101979190612eb4565b60405180910390f35b6101ba60048036038101906101b591906129f8565b6105f2565b6040516101c79190612e10565b60405180910390f35b6101ea60048036038101906101e59190612929565b610677565b005b610206600480360381019061020191906127cf565b61078f565b005b610222600480360381019061021d91906129b7565b6107ef565b005b61023e600480360381019061023991906127cf565b610895565b005b61025a600480360381019061025591906129f8565b6108b5565b6040516102679190612e10565b60405180910390f35b61028a6004803603810190610285919061276a565b610967565b6040516102979190612e99565b60405180910390f35b6102ba60048036038101906102b5919061276a565b6109bd565b6040516102c79190613146565b60405180910390f35b6102d8610a75565b005b6102e2610afd565b6040516102ef9190612e10565b60405180910390f35b610300610b27565b60405161030d9190612eb4565b60405180910390f35b610330600480360381019061032b9190612899565b610bb9565b005b61034c6004803603810190610347919061276a565b610bcf565b005b6103686004803603810190610363919061276a565b610ca6565b005b610384600480360381019061037f91906129f8565b610d7d565b6040516103919190612eb4565b60405180910390f35b6103b460048036038101906103af919061281e565b610e6f565b005b6103d060048036038101906103cb91906129f8565b610ed1565b6040516103dd9190612eb4565b60405180910390f35b61040060048036038101906103fb91906128d5565b610f78565b005b61041c6004803603810190610417919061276a565b6110e0565b6040516104299190612e77565b60405180910390f35b61044c60048036038101906104479190612793565b61117d565b6040516104599190612e99565b60405180910390f35b61047c6004803603810190610477919061276a565b611211565b005b60007f80ac58cd000000000000000000000000000000000000000000000000000000007bffffffffffffffffffffffffffffffffffffffffffffffffffffffff1916827bffffffffffffffffffffffffffffffffffffffffffffffffffffffff1916148061054957507f5b5e139f000000000000000000000000000000000000000000000000000000007bffffffffffffffffffffffffffffffffffffffffffffffffffffffff1916827bffffffffffffffffffffffffffffffffffffffffffffffffffffffff1916145b80610559575061055882611309565b5b9050919050565b60606000805461056f906133df565b80601f016020809104026020016040519081016040528092919081815260200182805461059b906133df565b80156105e85780601f106105bd576101008083540402835291602001916105e8565b820191906000526020600020905b8154815290600101906020018083116105cb57829003601f168201915b5050505050905090565b60006105fd82611373565b61063c576040517f08c379a000000000000000000000000000000000000000000000000000000000815260040161063390613086565b60405180910390fd5b6004600083815260200190815260200160002060009054906101000a900473ffffffffffffffffffffffffffffffffffffffff169050919050565b6000610682826108b5565b90508073ffffffffffffffffffffffffffffffffffffffff168373ffffffffffffffffffffffffffffffffffffffff1614156106f3576040517f08c379a00000000000000000000000000000000000000000000000000000000081526004016106ea906130e6565b60405180910390fd5b8073ffffffffffffffffffffffffffffffffffffffff166107126113df565b73ffffffffffffffffffffffffffffffffffffffff16148061074157506107408161073b6113df565b61117d565b5b610780576040517f08c379a000000000000000000000000000000000000000000000000000000000815260040161077790612fe6565b60405180910390fd5b61078a83836113e7565b505050565b6107a061079a6113df565b826114a0565b6107df576040517f08c379a00000000000000000000000000000000000000000000000000000000081526004016107d690613106565b60405180910390fd5b6107ea83838361157e565b505050565b600860003373ffffffffffffffffffffffffffffffffffffffff1673ffffffffffffffffffffffffffffffffffffffff16815260200190815260200160002060009054906101000a900460ff1661087b576040517f08c379a000000000000000000000000000000000000000000000000000000000815260040161087290613046565b60405180910390fd5b80600a908051906020019061089192919061258e565b5050565b6108b083838360405180602001604052806000815250610e6f565b505050565b6000806002600084815260200190815260200160002060009054906101000a900473ffffffffffffffffffffffffffffffffffffffff169050600073ffffffffffffffffffffffffffffffffffffffff168173ffffffffffffffffffffffffffffffffffffffff16141561095e576040517f08c379a000000000000000000000000000000000000000000000000000000000815260040161095590613026565b60405180910390fd5b80915050919050565b6000600860008373ffffffffffffffffffffffffffffffffffffffff1673ffffffffffffffffffffffffffffffffffffffff16815260200190815260200160002060009054906101000a900460ff169050919050565b60008073ffffffffffffffffffffffffffffffffffffffff168273ffffffffffffffffffffffffffffffffffffffff161415610a2e576040517f08c379a0000000000000000000000000000000000000000000000000000000008152600401610a2590613006565b60405180910390fd5b600360008373ffffffffffffffffffffffffffffffffffffffff1673ffffffffffffffffffffffffffffffffffffffff168152602001908152602001600020549050919050565b610a7d6113df565b73ffffffffffffffffffffffffffffffffffffffff16610a9b610afd565b73ffffffffffffffffffffffffffffffffffffffff1614610af1576040517f08c379a0000000000000000000000000000000000000000000000000000000008152600401610ae8906130a6565b60405180910390fd5b610afb60006117e5565b565b6000600760009054906101000a900473ffffffffffffffffffffffffffffffffffffffff16905090565b606060018054610b36906133df565b80601f0160208091040260200160405190810160405280929190818152602001828054610b62906133df565b8015610baf5780601f10610b8457610100808354040283529160200191610baf565b820191906000526020600020905b815481529060010190602001808311610b9257829003601f168201915b5050505050905090565b610bcb610bc46113df565b83836118ab565b5050565b610bd76113df565b73ffffffffffffffffffffffffffffffffffffffff16610bf5610afd565b73ffffffffffffffffffffffffffffffffffffffff1614610c4b576040517f08c379a0000000000000000000000000000000000000000000000000000000008152600401610c42906130a6565b60405180910390fd5b6000600860008373ffffffffffffffffffffffffffffffffffffffff1673ffffffffffffffffffffffffffffffffffffffff16815260200190815260200160002060006101000a81548160ff02191690831515021790555050565b610cae6113df565b73ffffffffffffffffffffffffffffffffffffffff16610ccc610afd565b73ffffffffffffffffffffffffffffffffffffffff1614610d22576040517f08c379a0000000000000000000000000000000000000000000000000000000008152600401610d19906130a6565b60405180910390fd5b6001600860008373ffffffffffffffffffffffffffffffffffffffff1673ffffffffffffffffffffffffffffffffffffffff16815260200190815260200160002060006101000a81548160ff02191690831515021790555050565b606081610d8a6009611a18565b8110610dcb576040517f08c379a0000000000000000000000000000000000000000000000000000000008152600401610dc290613126565b60405180910390fd5b600b60008481526020019081526020016000208054610de9906133df565b80601f0160208091040260200160405190810160405280929190818152602001828054610e15906133df565b8015610e625780601f10610e3757610100808354040283529160200191610e62565b820191906000526020600020905b815481529060010190602001808311610e4557829003601f168201915b5050505050915050919050565b610e80610e7a6113df565b836114a0565b610ebf576040517f08c379a0000000000000000000000000000000000000000000000000000000008152600401610eb690613106565b60405180910390fd5b610ecb84848484611a26565b50505050565b6060610edc82611373565b610f1b576040517f08c379a0000000000000000000000000000000000000000000000000000000008152600401610f12906130c6565b60405180910390fd5b6000610f25611a82565b90506000815111610f455760405180602001604052806000815250610f70565b80610f4f84611b14565b604051602001610f60929190612dec565b6040516020818303038152906040525b915050919050565b600860003373ffffffffffffffffffffffffffffffffffffffff1673ffffffffffffffffffffffffffffffffffffffff16815260200190815260200160002060009054906101000a900460ff16611004576040517f08c379a0000000000000000000000000000000000000000000000000000000008152600401610ffb90613046565b60405180910390fd5b6110436040518060400160405280601d81526020017f6d73672e73656e64657220696e206d696e742066756e6374696f6e3a2000000081525033611cc1565b600061104f6009611a18565b905061105b8382611d5d565b81600b6000838152602001908152602001600020908051906020019061108292919061258e565b5061108d6009611d7b565b8273ffffffffffffffffffffffffffffffffffffffff167fcb924e9f1cd50e7b79d9a97711e1b4d1e18c588d56dc6acaea1909562248f927826040516110d39190613146565b60405180910390a2505050565b6060600660008373ffffffffffffffffffffffffffffffffffffffff1673ffffffffffffffffffffffffffffffffffffffff16815260200190815260200160002060000160000180548060200260200160405190810160405280929190818152602001828054801561117157602002820191906000526020600020905b81548152602001906001019080831161115d575b50505050509050919050565b6000600560008473ffffffffffffffffffffffffffffffffffffffff1673ffffffffffffffffffffffffffffffffffffffff16815260200190815260200160002060008373ffffffffffffffffffffffffffffffffffffffff1673ffffffffffffffffffffffffffffffffffffffff16815260200190815260200160002060009054906101000a900460ff16905092915050565b6112196113df565b73ffffffffffffffffffffffffffffffffffffffff16611237610afd565b73ffffffffffffffffffffffffffffffffffffffff161461128d576040517f08c379a0000000000000000000000000000000000000000000000000000000008152600401611284906130a6565b60405180910390fd5b600073ffffffffffffffffffffffffffffffffffffffff168173ffffffffffffffffffffffffffffffffffffffff1614156112fd576040517f08c379a00000000000000000000000000000000000000000000000000000000081526004016112f490612f26565b60405180910390fd5b611306816117e5565b50565b60007f01ffc9a7000000000000000000000000000000000000000000000000000000007bffffffffffffffffffffffffffffffffffffffffffffffffffffffff1916827bffffffffffffffffffffffffffffffffffffffffffffffffffffffff1916149050919050565b60008073ffffffffffffffffffffffffffffffffffffffff166002600084815260200190815260200160002060009054906101000a900473ffffffffffffffffffffffffffffffffffffffff1673ffffffffffffffffffffffffffffffffffffffff1614159050919050565b600033905090565b816004600083815260200190815260200160002060006101000a81548173ffffffffffffffffffffffffffffffffffffffff021916908373ffffffffffffffffffffffffffffffffffffffff160217905550808273ffffffffffffffffffffffffffffffffffffffff1661145a836108b5565b73ffffffffffffffffffffffffffffffffffffffff167f8c5be1e5ebec7d5bd14f71427d1e84f3dd0314c0f7b2291e5b200ac8c7c3b92560405160405180910390a45050565b60006114ab82611373565b6114ea576040517f08c379a00000000000000000000000000000000000000000000000000000000081526004016114e190612fc6565b60405180910390fd5b60006114f5836108b5565b90508073ffffffffffffffffffffffffffffffffffffffff168473ffffffffffffffffffffffffffffffffffffffff1614806115375750611536818561117d565b5b8061157557508373ffffffffffffffffffffffffffffffffffffffff1661155d846105f2565b73ffffffffffffffffffffffffffffffffffffffff16145b91505092915050565b8273ffffffffffffffffffffffffffffffffffffffff1661159e826108b5565b73ffffffffffffffffffffffffffffffffffffffff16146115f4576040517f08c379a00000000000000000000000000000000000000000000000000000000081526004016115eb90612f46565b60405180910390fd5b600073ffffffffffffffffffffffffffffffffffffffff168273ffffffffffffffffffffffffffffffffffffffff161415611664576040517f08c379a000000000000000000000000000000000000000000000000000000000815260040161165b90612f86565b60405180910390fd5b61166f838383611d91565b61167a6000826113e7565b6001600360008573ffffffffffffffffffffffffffffffffffffffff1673ffffffffffffffffffffffffffffffffffffffff16815260200190815260200160002060008282546116ca91906132eb565b925050819055506001600360008473ffffffffffffffffffffffffffffffffffffffff1673ffffffffffffffffffffffffffffffffffffffff16815260200190815260200160002060008282546117219190613264565b92505081905550816002600083815260200190815260200160002060006101000a81548173ffffffffffffffffffffffffffffffffffffffff021916908373ffffffffffffffffffffffffffffffffffffffff160217905550808273ffffffffffffffffffffffffffffffffffffffff168473ffffffffffffffffffffffffffffffffffffffff167fddf252ad1be2c89b69c2b068fc378daa952ba7f163c4a11628f55a4df523b3ef60405160405180910390a46117e0838383611e73565b505050565b6000600760009054906101000a900473ffffffffffffffffffffffffffffffffffffffff16905081600760006101000a81548173ffffffffffffffffffffffffffffffffffffffff021916908373ffffffffffffffffffffffffffffffffffffffff1602179055508173ffffffffffffffffffffffffffffffffffffffff168173ffffffffffffffffffffffffffffffffffffffff167f8be0079c531659141344cd1fd0a4f28419497f9722a3daafe3b4186f6b6457e060405160405180910390a35050565b8173ffffffffffffffffffffffffffffffffffffffff168373ffffffffffffffffffffffffffffffffffffffff16141561191a576040517f08c379a000000000000000000000000000000000000000000000000000000000815260040161191190612fa6565b60405180910390fd5b80600560008573ffffffffffffffffffffffffffffffffffffffff1673ffffffffffffffffffffffffffffffffffffffff16815260200190815260200160002060008473ffffffffffffffffffffffffffffffffffffffff1673ffffffffffffffffffffffffffffffffffffffff16815260200190815260200160002060006101000a81548160ff0219169083151502179055508173ffffffffffffffffffffffffffffffffffffffff168373ffffffffffffffffffffffffffffffffffffffff167f17307eab39ab6107e8899845ad3d59bd9653f200f220920489ca2b5937696c3183604051611a0b9190612e99565b60405180910390a3505050565b600081600001549050919050565b611a3184848461157e565b611a3d84848484611e78565b611a7c576040517f08c379a0000000000000000000000000000000000000000000000000000000008152600401611a7390612f06565b60405180910390fd5b50505050565b6060600a8054611a91906133df565b80601f0160208091040260200160405190810160405280929190818152602001828054611abd906133df565b8015611b0a5780601f10611adf57610100808354040283529160200191611b0a565b820191906000526020600020905b815481529060010190602001808311611aed57829003601f168201915b5050505050905090565b60606000821415611b5c576040518060400160405280600181526020017f30000000000000000000000000000000000000000000000000000000000000008152509050611cbc565b600082905060005b60008214611b8e578080611b7790613442565b915050600a82611b8791906132ba565b9150611b64565b60008167ffffffffffffffff811115611bd0577f4e487b7100000000000000000000000000000000000000000000000000000000600052604160045260246000fd5b6040519080825280601f01601f191660200182016040528015611c025781602001600182028036833780820191505090505b5090505b60008514611cb557600182611c1b91906132eb565b9150600a85611c2a919061348b565b6030611c369190613264565b60f81b818381518110611c72577f4e487b7100000000000000000000000000000000000000000000000000000000600052603260045260246000fd5b60200101907effffffffffffffffffffffffffffffffffffffffffffffffffffffffffffff1916908160001a905350600a85611cae91906132ba565b9450611c06565b8093505050505b919050565b611d598282604051602401611cd7929190612ed6565b6040516020818303038152906040527f319af333000000000000000000000000000000000000000000000000000000007bffffffffffffffffffffffffffffffffffffffffffffffffffffffff19166020820180517bffffffffffffffffffffffffffffffffffffffffffffffffffffffff838183161783525050505061200f565b5050565b611d77828260405180602001604052806000815250612038565b5050565b6001816000016000828254019250508190555050565b611d9c838383612093565b600073ffffffffffffffffffffffffffffffffffffffff168373ffffffffffffffffffffffffffffffffffffffff161415611de057611ddb8282612098565b611e6e565b600073ffffffffffffffffffffffffffffffffffffffff168273ffffffffffffffffffffffffffffffffffffffff161415611e2457611e1f83826120ee565b611e6d565b8173ffffffffffffffffffffffffffffffffffffffff168373ffffffffffffffffffffffffffffffffffffffff1614611e6c57611e618282612098565b611e6b83826120ee565b5b5b5b505050565b505050565b6000611e998473ffffffffffffffffffffffffffffffffffffffff16612144565b15612002578373ffffffffffffffffffffffffffffffffffffffff1663150b7a02611ec26113df565b8786866040518563ffffffff1660e01b8152600401611ee49493929190612e2b565b602060405180830381600087803b158015611efe57600080fd5b505af1925050508015611f2f57506040513d601f19601f82011682018060405250810190611f2c919061298e565b60015b611fb2573d8060008114611f5f576040519150601f19603f3d011682016040523d82523d6000602084013e611f64565b606091505b50600081511415611faa576040517f08c379a0000000000000000000000000000000000000000000000000000000008152600401611fa190612f06565b60405180910390fd5b805181602001fd5b63150b7a0260e01b7bffffffffffffffffffffffffffffffffffffffffffffffffffffffff1916817bffffffffffffffffffffffffffffffffffffffffffffffffffffffff191614915050612007565b600190505b949350505050565b60008151905060006a636f6e736f6c652e6c6f679050602083016000808483855afa5050505050565b6120428383612167565b61204f6000848484611e78565b61208e576040517f08c379a000000000000000000000000000000000000000000000000000000000815260040161208590612f06565b60405180910390fd5b505050565b505050565b6120e981600660008573ffffffffffffffffffffffffffffffffffffffff1673ffffffffffffffffffffffffffffffffffffffff16815260200190815260200160002061234190919063ffffffff16565b505050565b61213f81600660008573ffffffffffffffffffffffffffffffffffffffff1673ffffffffffffffffffffffffffffffffffffffff16815260200190815260200160002061235b90919063ffffffff16565b505050565b6000808273ffffffffffffffffffffffffffffffffffffffff163b119050919050565b600073ffffffffffffffffffffffffffffffffffffffff168273ffffffffffffffffffffffffffffffffffffffff1614156121d7576040517f08c379a00000000000000000000000000000000000000000000000000000000081526004016121ce90613066565b60405180910390fd5b6121e081611373565b15612220576040517f08c379a000000000000000000000000000000000000000000000000000000000815260040161221790612f66565b60405180910390fd5b61222c60008383611d91565b6001600360008473ffffffffffffffffffffffffffffffffffffffff1673ffffffffffffffffffffffffffffffffffffffff168152602001908152602001600020600082825461227c9190613264565b92505081905550816002600083815260200190815260200160002060006101000a81548173ffffffffffffffffffffffffffffffffffffffff021916908373ffffffffffffffffffffffffffffffffffffffff160217905550808273ffffffffffffffffffffffffffffffffffffffff16600073ffffffffffffffffffffffffffffffffffffffff167fddf252ad1be2c89b69c2b068fc378daa952ba7f163c4a11628f55a4df523b3ef60405160405180910390a461233d60008383611e73565b5050565b6000612353836000018360001b612375565b905092915050565b600061236d836000018360001b6123e5565b905092915050565b6000612381838361256b565b6123da5782600001829080600181540180825580915050600190039060005260206000200160009091909190915055826000018054905083600101600084815260200190815260200160002081905550600190506123df565b600090505b92915050565b6000808360010160008481526020019081526020016000205490506000811461255f57600060018261241791906132eb565b905060006001866000018054905061242f91906132eb565b90508181146124ea576000866000018281548110612476577f4e487b7100000000000000000000000000000000000000000000000000000000600052603260045260246000fd5b90600052602060002001549050808760000184815481106124c0577f4e487b7100000000000000000000000000000000000000000000000000000000600052603260045260246000fd5b90600052602060002001819055508387600101600083815260200190815260200160002081905550505b85600001805480612524577f4e487b7100000000000000000000000000000000000000000000000000000000600052603160045260246000fd5b600190038181906000526020600020016000905590558560010160008681526020019081526020016000206000905560019350505050612565565b60009150505b92915050565b600080836001016000848152602001908152602001600020541415905092915050565b82805461259a906133df565b90600052602060002090601f0160209004810192826125bc5760008555612603565b82601f106125d557805160ff1916838001178555612603565b82800160010185558215612603579182015b828111156126025782518255916020019190600101906125e7565b5b5090506126109190612614565b5090565b5b8082111561262d576000816000905550600101612615565b5090565b600061264461263f84613186565b613161565b90508281526020810184848401111561265c57600080fd5b61266784828561339d565b509392505050565b600061268261267d846131b7565b613161565b90508281526020810184848401111561269a57600080fd5b6126a584828561339d565b509392505050565b6000813590506126bc81613a33565b92915050565b6000813590506126d181613a4a565b92915050565b6000813590506126e681613a61565b92915050565b6000815190506126fb81613a61565b92915050565b600082601f83011261271257600080fd5b8135612722848260208601612631565b91505092915050565b600082601f83011261273c57600080fd5b813561274c84826020860161266f565b91505092915050565b60008135905061276481613a78565b92915050565b60006020828403121561277c57600080fd5b600061278a848285016126ad565b91505092915050565b600080604083850312156127a657600080fd5b60006127b4858286016126ad565b92505060206127c5858286016126ad565b9150509250929050565b6000806000606084860312156127e457600080fd5b60006127f2868287016126ad565b9350506020612803868287016126ad565b925050604061281486828701612755565b9150509250925092565b6000806000806080858703121561283457600080fd5b6000612842878288016126ad565b9450506020612853878288016126ad565b935050604061286487828801612755565b925050606085013567ffffffffffffffff81111561288157600080fd5b61288d87828801612701565b91505092959194509250565b600080604083850312156128ac57600080fd5b60006128ba858286016126ad565b92505060206128cb858286016126c2565b9150509250929050565b600080604083850312156128e857600080fd5b60006128f6858286016126ad565b925050602083013567ffffffffffffffff81111561291357600080fd5b61291f8582860161272b565b9150509250929050565b6000806040838503121561293c57600080fd5b600061294a858286016126ad565b925050602061295b85828601612755565b9150509250929050565b60006020828403121561297757600080fd5b6000612985848285016126d7565b91505092915050565b6000602082840312156129a057600080fd5b60006129ae848285016126ec565b91505092915050565b6000602082840312156129c957600080fd5b600082013567ffffffffffffffff8111156129e357600080fd5b6129ef8482850161272b565b91505092915050565b600060208284031215612a0a57600080fd5b6000612a1884828501612755565b91505092915050565b6000612a2d8383612ab5565b60208301905092915050565b612a428161331f565b82525050565b6000612a53826131f8565b612a5d8185613226565b9350612a68836131e8565b8060005b83811015612a99578151612a808882612a21565b9750612a8b83613219565b925050600181019050612a6c565b5085935050505092915050565b612aaf81613331565b82525050565b612abe8161333d565b82525050565b6000612acf82613203565b612ad98185613237565b9350612ae98185602086016133ac565b612af281613578565b840191505092915050565b6000612b088261320e565b612b128185613248565b9350612b228185602086016133ac565b612b2b81613578565b840191505092915050565b6000612b418261320e565b612b4b8185613259565b9350612b5b8185602086016133ac565b80840191505092915050565b6000612b74603283613248565b9150612b7f82613589565b604082019050919050565b6000612b97602683613248565b9150612ba2826135d8565b604082019050919050565b6000612bba602583613248565b9150612bc582613627565b604082019050919050565b6000612bdd601c83613248565b9150612be882613676565b602082019050919050565b6000612c00602483613248565b9150612c0b8261369f565b604082019050919050565b6000612c23601983613248565b9150612c2e826136ee565b602082019050919050565b6000612c46602c83613248565b9150612c5182613717565b604082019050919050565b6000612c69603883613248565b9150612c7482613766565b604082019050919050565b6000612c8c602a83613248565b9150612c97826137b5565b604082019050919050565b6000612caf602983613248565b9150612cba82613804565b604082019050919050565b6000612cd2601b83613248565b9150612cdd82613853565b602082019050919050565b6000612cf5602083613248565b9150612d008261387c565b602082019050919050565b6000612d18602c83613248565b9150612d23826138a5565b604082019050919050565b6000612d3b602083613248565b9150612d46826138f4565b602082019050919050565b6000612d5e602f83613248565b9150612d698261391d565b604082019050919050565b6000612d81602183613248565b9150612d8c8261396c565b604082019050919050565b6000612da4603183613248565b9150612daf826139bb565b604082019050919050565b6000612dc7600d83613248565b9150612dd282613a0a565b602082019050919050565b612de681613393565b82525050565b6000612df88285612b36565b9150612e048284612b36565b91508190509392505050565b6000602082019050612e256000830184612a39565b92915050565b6000608082019050612e406000830187612a39565b612e4d6020830186612a39565b612e5a6040830185612ddd565b8181036060830152612e6c8184612ac4565b905095945050505050565b60006020820190508181036000830152612e918184612a48565b905092915050565b6000602082019050612eae6000830184612aa6565b92915050565b60006020820190508181036000830152612ece8184612afd565b905092915050565b60006040820190508181036000830152612ef08185612afd565b9050612eff6020830184612a39565b9392505050565b60006020820190508181036000830152612f1f81612b67565b9050919050565b60006020820190508181036000830152612f3f81612b8a565b9050919050565b60006020820190508181036000830152612f5f81612bad565b9050919050565b60006020820190508181036000830152612f7f81612bd0565b9050919050565b60006020820190508181036000830152612f9f81612bf3565b9050919050565b60006020820190508181036000830152612fbf81612c16565b9050919050565b60006020820190508181036000830152612fdf81612c39565b9050919050565b60006020820190508181036000830152612fff81612c5c565b9050919050565b6000602082019050818103600083015261301f81612c7f565b9050919050565b6000602082019050818103600083015261303f81612ca2565b9050919050565b6000602082019050818103600083015261305f81612cc5565b9050919050565b6000602082019050818103600083015261307f81612ce8565b9050919050565b6000602082019050818103600083015261309f81612d0b565b9050919050565b600060208201905081810360008301526130bf81612d2e565b9050919050565b600060208201905081810360008301526130df81612d51565b9050919050565b600060208201905081810360008301526130ff81612d74565b9050919050565b6000602082019050818103600083015261311f81612d97565b9050919050565b6000602082019050818103600083015261313f81612dba565b9050919050565b600060208201905061315b6000830184612ddd565b92915050565b600061316b61317c565b90506131778282613411565b919050565b6000604051905090565b600067ffffffffffffffff8211156131a1576131a0613549565b5b6131aa82613578565b9050602081019050919050565b600067ffffffffffffffff8211156131d2576131d1613549565b5b6131db82613578565b9050602081019050919050565b6000819050602082019050919050565b600081519050919050565b600081519050919050565b600081519050919050565b6000602082019050919050565b600082825260208201905092915050565b600082825260208201905092915050565b600082825260208201905092915050565b600081905092915050565b600061326f82613393565b915061327a83613393565b9250827fffffffffffffffffffffffffffffffffffffffffffffffffffffffffffffffff038211156132af576132ae6134bc565b5b828201905092915050565b60006132c582613393565b91506132d083613393565b9250826132e0576132df6134eb565b5b828204905092915050565b60006132f682613393565b915061330183613393565b925082821015613314576133136134bc565b5b828203905092915050565b600061332a82613373565b9050919050565b60008115159050919050565b6000819050919050565b60007fffffffff0000000000000000000000000000000000000000000000000000000082169050919050565b600073ffffffffffffffffffffffffffffffffffffffff82169050919050565b6000819050919050565b82818337600083830152505050565b60005b838110156133ca5780820151818401526020810190506133af565b838111156133d9576000848401525b50505050565b600060028204905060018216806133f757607f821691505b6020821081141561340b5761340a61351a565b5b50919050565b61341a82613578565b810181811067ffffffffffffffff8211171561343957613438613549565b5b80604052505050565b600061344d82613393565b91507fffffffffffffffffffffffffffffffffffffffffffffffffffffffffffffffff8214156134805761347f6134bc565b5b600182019050919050565b600061349682613393565b91506134a183613393565b9250826134b1576134b06134eb565b5b828206905092915050565b7f4e487b7100000000000000000000000000000000000000000000000000000000600052601160045260246000fd5b7f4e487b7100000000000000000000000000000000000000000000000000000000600052601260045260246000fd5b7f4e487b7100000000000000000000000000000000000000000000000000000000600052602260045260246000fd5b7f4e487b7100000000000000000000000000000000000000000000000000000000600052604160045260246000fd5b6000601f19601f8301169050919050565b7f4552433732313a207472616e7366657220746f206e6f6e20455243373231526560008201527f63656976657220696d706c656d656e7465720000000000000000000000000000602082015250565b7f4f776e61626c653a206e6577206f776e657220697320746865207a65726f206160008201527f6464726573730000000000000000000000000000000000000000000000000000602082015250565b7f4552433732313a207472616e736665722066726f6d20696e636f72726563742060008201527f6f776e6572000000000000000000000000000000000000000000000000000000602082015250565b7f4552433732313a20746f6b656e20616c7265616479206d696e74656400000000600082015250565b7f4552433732313a207472616e7366657220746f20746865207a65726f2061646460008201527f7265737300000000000000000000000000000000000000000000000000000000602082015250565b7f4552433732313a20617070726f766520746f2063616c6c657200000000000000600082015250565b7f4552433732313a206f70657261746f7220717565727920666f72206e6f6e657860008201527f697374656e7420746f6b656e0000000000000000000000000000000000000000602082015250565b7f4552433732313a20617070726f76652063616c6c6572206973206e6f74206f7760008201527f6e6572206e6f7220617070726f76656420666f7220616c6c0000000000000000602082015250565b7f4552433732313a2062616c616e636520717565727920666f7220746865207a6560008201527f726f206164647265737300000000000000000000000000000000000000000000602082015250565b7f4552433732313a206f776e657220717565727920666f72206e6f6e657869737460008201527f656e7420746f6b656e0000000000000000000000000000000000000000000000602082015250565b7f63616c6c6572206973206e6f7420746865206f70657261746f72730000000000600082015250565b7f4552433732313a206d696e7420746f20746865207a65726f2061646472657373600082015250565b7f4552433732313a20617070726f76656420717565727920666f72206e6f6e657860008201527f697374656e7420746f6b656e0000000000000000000000000000000000000000602082015250565b7f4f776e61626c653a2063616c6c6572206973206e6f7420746865206f776e6572600082015250565b7f4552433732314d657461646174613a2055524920717565727920666f72206e6f60008201527f6e6578697374656e7420746f6b656e0000000000000000000000000000000000602082015250565b7f4552433732313a20617070726f76616c20746f2063757272656e74206f776e6560008201527f7200000000000000000000000000000000000000000000000000000000000000602082015250565b7f4552433732313a207472616e736665722063616c6c6572206973206e6f74206f60008201527f776e6572206e6f7220617070726f766564000000000000000000000000000000602082015250565b7f496e76616c696420626f78494400000000000000000000000000000000000000600082015250565b613a3c8161331f565b8114613a4757600080fd5b50565b613a5381613331565b8114613a5e57600080fd5b50565b613a6a81613347565b8114613a7557600080fd5b50565b613a8181613393565b8114613a8c57600080fd5b5056fea264697066735822122060f88bba11d19353daede814af5b1c8b5eaa4198cbcf230d46ab5359c838248064736f6c63430008040033",
  "linkReferences": {},
  "deployedLinkReferences": {}
}