{
  "_format": "hh-sol-artifact-1",
  "contractName": "BeFitterStaking",
  "sourceName": "contracts/BFStaking.sol",
  "abi": [
    {
      "inputs": [
        {
          "internalType": "address",
          "name": "tokenAddress",
          "type": "address"
        },
        {
          "internalType": "address",
          "name": "rewardItemContract",
          "type": "address"
        }
      ],
      "stateMutability": "nonpayable",
      "type": "constructor"
    },
    {
      "anonymous": false,
      "inputs": [
        {
          "indexed": true,
          "internalType": "address",
          "name": "previousOwner",
          "type": "address"
        },
        {
          "indexed": true,
          "internalType": "address",
          "name": "newOwner",
          "type": "address"
        }
      ],
      "name": "OwnershipTransferred",
      "type": "event"
    },
    {
      "inputs": [],
      "name": "claimReward",
      "outputs": [],
      "stateMutability": "nonpayable",
      "type": "function"
    },
    {
      "inputs": [],
      "name": "closeStaking",
      "outputs": [],
      "stateMutability": "nonpayable",
      "type": "function"
    },
    {
      "inputs": [],
      "name": "getAmountToEarnPassPerCycle",
      "outputs": [
        {
          "internalType": "uint256",
          "name": "",
          "type": "uint256"
        }
      ],
      "stateMutability": "view",
      "type": "function"
    },
    {
      "inputs": [
        {
          "internalType": "address",
          "name": "user",
          "type": "address"
        }
      ],
      "name": "getCurrentProfit",
      "outputs": [
        {
          "internalType": "uint256",
          "name": "",
          "type": "uint256"
        }
      ],
      "stateMutability": "view",
      "type": "function"
    },
    {
      "inputs": [
        {
          "internalType": "address",
          "name": "user",
          "type": "address"
        }
      ],
      "name": "getLastClaimTime",
      "outputs": [
        {
          "internalType": "uint256",
          "name": "",
          "type": "uint256"
        }
      ],
      "stateMutability": "view",
      "type": "function"
    },
    {
      "inputs": [],
      "name": "getMinimumAmount",
      "outputs": [
        {
          "internalType": "uint256",
          "name": "",
          "type": "uint256"
        }
      ],
      "stateMutability": "view",
      "type": "function"
    },
    {
      "inputs": [],
      "name": "getPenaltyRate",
      "outputs": [
        {
          "internalType": "uint256",
          "name": "",
          "type": "uint256"
        }
      ],
      "stateMutability": "view",
      "type": "function"
    },
    {
      "inputs": [
        {
          "internalType": "address",
          "name": "user",
          "type": "address"
        }
      ],
      "name": "getRemainingDelayTime",
      "outputs": [
        {
          "internalType": "uint256",
          "name": "",
          "type": "uint256"
        }
      ],
      "stateMutability": "view",
      "type": "function"
    },
    {
      "inputs": [
        {
          "internalType": "address",
          "name": "user",
          "type": "address"
        }
      ],
      "name": "getStakingAmount",
      "outputs": [
        {
          "internalType": "uint256",
          "name": "",
          "type": "uint256"
        }
      ],
      "stateMutability": "view",
      "type": "function"
    },
    {
      "inputs": [],
      "name": "getTokenAddress",
      "outputs": [
        {
          "internalType": "address",
          "name": "",
          "type": "address"
        }
      ],
      "stateMutability": "view",
      "type": "function"
    },
    {
      "inputs": [],
      "name": "getTotalStakingToken",
      "outputs": [
        {
          "internalType": "uint256",
          "name": "",
          "type": "uint256"
        }
      ],
      "stateMutability": "view",
      "type": "function"
    },
    {
      "inputs": [
        {
          "internalType": "address",
          "name": "user",
          "type": "address"
        }
      ],
      "name": "getUnstakeAmount",
      "outputs": [
        {
          "internalType": "uint256",
          "name": "",
          "type": "uint256"
        }
      ],
      "stateMutability": "view",
      "type": "function"
    },
    {
      "inputs": [],
      "name": "openStaking",
      "outputs": [],
      "stateMutability": "nonpayable",
      "type": "function"
    },
    {
      "inputs": [],
      "name": "owner",
      "outputs": [
        {
          "internalType": "address",
          "name": "",
          "type": "address"
        }
      ],
      "stateMutability": "view",
      "type": "function"
    },
    {
      "inputs": [],
      "name": "renounceOwnership",
      "outputs": [],
      "stateMutability": "nonpayable",
      "type": "function"
    },
    {
      "inputs": [
        {
          "internalType": "uint256",
          "name": "amount",
          "type": "uint256"
        }
      ],
      "name": "setAmountToEarnPassPerCycle",
      "outputs": [],
      "stateMutability": "nonpayable",
      "type": "function"
    },
    {
      "inputs": [
        {
          "internalType": "uint256",
          "name": "amount",
          "type": "uint256"
        }
      ],
      "name": "setMinimumAmount",
      "outputs": [],
      "stateMutability": "nonpayable",
      "type": "function"
    },
    {
      "inputs": [
        {
          "internalType": "uint256",
          "name": "rate",
          "type": "uint256"
        }
      ],
      "name": "setPenaltyRate",
      "outputs": [],
      "stateMutability": "nonpayable",
      "type": "function"
    },
    {
      "inputs": [
        {
          "internalType": "uint256",
          "name": "pTime",
          "type": "uint256"
        },
        {
          "internalType": "uint256",
          "name": "rate",
          "type": "uint256"
        }
      ],
      "name": "setPromotionTime",
      "outputs": [],
      "stateMutability": "nonpayable",
      "type": "function"
    },
    {
      "inputs": [
        {
          "internalType": "uint256",
          "name": "tokenId",
          "type": "uint256"
        }
      ],
      "name": "setRewardTokenId",
      "outputs": [],
      "stateMutability": "nonpayable",
      "type": "function"
    },
    {
      "inputs": [
        {
          "internalType": "address",
          "name": "tokenAddress",
          "type": "address"
        }
      ],
      "name": "setTokenAddress",
      "outputs": [],
      "stateMutability": "nonpayable",
      "type": "function"
    },
    {
      "inputs": [
        {
          "internalType": "uint256",
          "name": "delayTime",
          "type": "uint256"
        }
      ],
      "name": "setWithdrawalDelayTime",
      "outputs": [],
      "stateMutability": "nonpayable",
      "type": "function"
    },
    {
      "inputs": [
        {
          "internalType": "uint256",
          "name": "cTime",
          "type": "uint256"
        }
      ],
      "name": "setstakingBlockTime",
      "outputs": [],
      "stateMutability": "nonpayable",
      "type": "function"
    },
    {
      "inputs": [
        {
          "internalType": "uint256",
          "name": "amount",
          "type": "uint256"
        }
      ],
      "name": "stake",
      "outputs": [],
      "stateMutability": "nonpayable",
      "type": "function"
    },
    {
      "inputs": [
        {
          "internalType": "address",
          "name": "user",
          "type": "address"
        }
      ],
      "name": "toClaimableTime",
      "outputs": [
        {
          "internalType": "uint256",
          "name": "",
          "type": "uint256"
        }
      ],
      "stateMutability": "view",
      "type": "function"
    },
    {
      "inputs": [
        {
          "internalType": "address",
          "name": "newOwner",
          "type": "address"
        }
      ],
      "name": "transferOwnership",
      "outputs": [],
      "stateMutability": "nonpayable",
      "type": "function"
    },
    {
      "inputs": [
        {
          "internalType": "uint256",
          "name": "unstakeAmount",
          "type": "uint256"
        }
      ],
      "name": "unstake",
      "outputs": [],
      "stateMutability": "nonpayable",
      "type": "function"
    },
    {
      "inputs": [],
      "name": "withdrawStakingToken",
      "outputs": [],
      "stateMutability": "nonpayable",
      "type": "function"
    }
  ],
  "bytecode": "0x60806040523480156200001157600080fd5b506040516200247538038062002475833981810160405281019062000037919062000219565b620000576200004b620000f160201b60201c565b620000f960201b60201c565b81600160006101000a81548173ffffffffffffffffffffffffffffffffffffffff021916908373ffffffffffffffffffffffffffffffffffffffff16021790555080600260006101000a81548173ffffffffffffffffffffffffffffffffffffffff021916908373ffffffffffffffffffffffffffffffffffffffff160217905550620000e9620001bd60201b60201c565b5050620002a8565b600033905090565b60008060009054906101000a900473ffffffffffffffffffffffffffffffffffffffff169050816000806101000a81548173ffffffffffffffffffffffffffffffffffffffff021916908373ffffffffffffffffffffffffffffffffffffffff1602179055508173ffffffffffffffffffffffffffffffffffffffff168173ffffffffffffffffffffffffffffffffffffffff167f8be0079c531659141344cd1fd0a4f28419497f9722a3daafe3b4186f6b6457e060405160405180910390a35050565b683635c9adc5dea00000600381905550690878678326eac900000060048190555061012c60068190555061025860078190555060006009819055506010600881905550565b60008151905062000213816200028e565b92915050565b600080604083850312156200022d57600080fd5b60006200023d8582860162000202565b9250506020620002508582860162000202565b9150509250929050565b600062000267826200026e565b9050919050565b600073ffffffffffffffffffffffffffffffffffffffff82169050919050565b62000299816200025a565b8114620002a557600080fd5b50565b6121bd80620002b86000396000f3fe608060405234801561001057600080fd5b50600436106101c35760003560e01c80638da5cb5b116100f9578063c28be0af11610097578063ea92939711610071578063ea92939714610490578063eeb4a9c8146104ac578063f14cb881146104c8578063f2fde38b146104e6576101c3565b8063c28be0af14610412578063d615b6a014610442578063dcf4e26714610460576101c3565b8063a680e0bc116100d3578063a680e0bc146103b2578063a694fc3a146103e2578063b88a802f146103fe578063b8d69ecf14610408576101c3565b80638da5cb5b1461036e57806398cfe5871461038c578063a1bab44714610396576101c3565b80634c576a64116101665780636258173311610140578063625817331461030e5780636aa9f68614610318578063715018a61461033457806374363daa1461033e576101c3565b80634c576a64146102a25780635722ef97146102d257806362066eb3146102f0576101c3565b806326a4e8d2116101a257806326a4e8d21461021e5780632e17de781461023a5780633412a76414610256578063494eb5b814610286576101c3565b806255a6e6146101c857806310fe9ae8146101e4578063160244ed14610202575b600080fd5b6101e260048036038101906101dd919061197f565b610502565b005b6101ec610580565b6040516101f99190611b37565b60405180910390f35b61021c60048036038101906102179190611956565b6105aa565b005b61023860048036038101906102339190611904565b6105bc565b005b610254600480360381019061024f9190611956565b610608565b005b610270600480360381019061026b9190611904565b61085d565b60405161027d9190611d29565b60405180910390f35b6102a0600480360381019061029b9190611956565b6108a9565b005b6102bc60048036038101906102b79190611904565b6108bb565b6040516102c99190611d29565b60405180910390f35b6102da610965565b6040516102e79190611d29565b60405180910390f35b6102f861096f565b6040516103059190611d29565b60405180910390f35b610316610979565b005b610332600480360381019061032d9190611956565b61098a565b005b61033c61099c565b005b61035860048036038101906103539190611904565b6109b0565b6040516103659190611d29565b60405180910390f35b6103766109fc565b6040516103839190611b37565b60405180910390f35b610394610a25565b005b6103b060048036038101906103ab9190611956565b610a36565b005b6103cc60048036038101906103c79190611904565b610a8b565b6040516103d99190611d29565b60405180910390f35b6103fc60048036038101906103f79190611956565b610ad7565b005b610406610ec0565b005b610410611107565b005b61042c60048036038101906104279190611904565b6111f2565b6040516104399190611d29565b60405180910390f35b61044a6112b6565b6040516104579190611d29565b60405180910390f35b61047a60048036038101906104759190611904565b6112c0565b6040516104879190611d29565b60405180910390f35b6104aa60048036038101906104a59190611956565b61131f565b005b6104c660048036038101906104c19190611956565b611331565b005b6104d0611343565b6040516104dd9190611d29565b60405180910390f35b61050060048036038101906104fb9190611904565b61134d565b005b61050a6113d1565b600181101561054e576040517f08c379a000000000000000000000000000000000000000000000000000000000815260040161054590611c69565b60405180910390fd5b42600d6000018190555081600d600001546105699190611d55565b600d6001018190555080600d600201819055505050565b6000600160009054906101000a900473ffffffffffffffffffffffffffffffffffffffff16905090565b6105b26113d1565b80600c8190555050565b6105c46113d1565b80600160006101000a81548173ffffffffffffffffffffffffffffffffffffffff021916908373ffffffffffffffffffffffffffffffffffffffff16021790555050565b601060003373ffffffffffffffffffffffffffffffffffffffff1673ffffffffffffffffffffffffffffffffffffffff1681526020019081526020016000206000015481111561068d576040517f08c379a000000000000000000000000000000000000000000000000000000000815260040161068490611c09565b60405180910390fd5b60006106983361144f565b905080601060003373ffffffffffffffffffffffffffffffffffffffff1673ffffffffffffffffffffffffffffffffffffffff16815260200190815260200160002060030160008282546106ec9190611d55565b9250508190555042601060003373ffffffffffffffffffffffffffffffffffffffff1673ffffffffffffffffffffffffffffffffffffffff1681526020019081526020016000206002018190555081601060003373ffffffffffffffffffffffffffffffffffffffff1673ffffffffffffffffffffffffffffffffffffffff168152602001908152602001600020600001600082825461078c9190611e36565b9250508190555081601060003373ffffffffffffffffffffffffffffffffffffffff1673ffffffffffffffffffffffffffffffffffffffff16815260200190815260200160002060040160008282546107e59190611d55565b92505081905550600754426107fa9190611d55565b601060003373ffffffffffffffffffffffffffffffffffffffff1673ffffffffffffffffffffffffffffffffffffffff1681526020019081526020016000206005018190555081600b60008282546108529190611e36565b925050819055505050565b6000601060008373ffffffffffffffffffffffffffffffffffffffff1673ffffffffffffffffffffffffffffffffffffffff168152602001908152602001600020600401549050919050565b6108b16113d1565b8060048190555050565b6000601060008373ffffffffffffffffffffffffffffffffffffffff1673ffffffffffffffffffffffffffffffffffffffff16815260200190815260200160002060050154421061090f5760009050610960565b42601060008473ffffffffffffffffffffffffffffffffffffffff1673ffffffffffffffffffffffffffffffffffffffff1681526020019081526020016000206005015461095d9190611e36565b90505b919050565b6000600854905090565b6000600354905090565b6109816113d1565b42600981905550565b6109926113d1565b8060078190555050565b6109a46113d1565b6109ae600061156e565b565b6000601060008373ffffffffffffffffffffffffffffffffffffffff1673ffffffffffffffffffffffffffffffffffffffff168152602001908152602001600020600001549050919050565b60008060009054906101000a900473ffffffffffffffffffffffffffffffffffffffff16905090565b610a2d6113d1565b42600a81905550565b610a3e6113d1565b60648110610a81576040517f08c379a0000000000000000000000000000000000000000000000000000000008152600401610a7890611c49565b60405180910390fd5b8060088190555050565b6000601060008373ffffffffffffffffffffffffffffffffffffffff1673ffffffffffffffffffffffffffffffffffffffff168152602001908152602001600020600201549050919050565b600060095414158015610aec57506009544210155b610b2b576040517f08c379a0000000000000000000000000000000000000000000000000000000008152600401610b2290611c89565b60405180910390fd5b6000600a541480610b3e5750600a544211155b610b7d576040517f08c379a0000000000000000000000000000000000000000000000000000000008152600401610b7490611c89565b60405180910390fd5b60008111610bc0576040517f08c379a0000000000000000000000000000000000000000000000000000000008152600401610bb790611c29565b60405180910390fd5b6000601060003373ffffffffffffffffffffffffffffffffffffffff1673ffffffffffffffffffffffffffffffffffffffff1681526020019081526020016000206000015490506003548183610c169190611d55565b1015610c57576040517f08c379a0000000000000000000000000000000000000000000000000000000008152600401610c4e90611d09565b60405180910390fd5b6000601060003373ffffffffffffffffffffffffffffffffffffffff1673ffffffffffffffffffffffffffffffffffffffff168152602001908152602001600020600001541415610cea5742601060003373ffffffffffffffffffffffffffffffffffffffff1673ffffffffffffffffffffffffffffffffffffffff168152602001908152602001600020600101819055505b600160009054906101000a900473ffffffffffffffffffffffffffffffffffffffff1673ffffffffffffffffffffffffffffffffffffffff166323b872dd3330856040518463ffffffff1660e01b8152600401610d4993929190611b52565b602060405180830381600087803b158015610d6357600080fd5b505af1158015610d77573d6000803e3d6000fd5b505050506040513d601f19601f82011682018060405250810190610d9b919061192d565b506000610da73361144f565b905082601060003373ffffffffffffffffffffffffffffffffffffffff1673ffffffffffffffffffffffffffffffffffffffff1681526020019081526020016000206000016000828254610dfb9190611d55565b9250508190555080601060003373ffffffffffffffffffffffffffffffffffffffff1673ffffffffffffffffffffffffffffffffffffffff1681526020019081526020016000206003016000828254610e549190611d55565b9250508190555042601060003373ffffffffffffffffffffffffffffffffffffffff1673ffffffffffffffffffffffffffffffffffffffff1681526020019081526020016000206002018190555082600b6000828254610eb49190611d55565b92505081905550505050565b600654601060003373ffffffffffffffffffffffffffffffffffffffff1673ffffffffffffffffffffffffffffffffffffffff16815260200190815260200160002060020154610f109190611d55565b4211610f51576040517f08c379a0000000000000000000000000000000000000000000000000000000008152600401610f4890611cc9565b60405180910390fd5b6000610f5c3361144f565b9050600081601060003373ffffffffffffffffffffffffffffffffffffffff1673ffffffffffffffffffffffffffffffffffffffff16815260200190815260200160002060030154610fae9190611d55565b90506000811115611103576000601060003373ffffffffffffffffffffffffffffffffffffffff1673ffffffffffffffffffffffffffffffffffffffff16815260200190815260200160002060030181905550600260009054906101000a900473ffffffffffffffffffffffffffffffffffffffff1673ffffffffffffffffffffffffffffffffffffffff1663156e29f633600c54846040518463ffffffff1660e01b815260040161106293929190611bb2565b600060405180830381600087803b15801561107c57600080fd5b505af1158015611090573d6000803e3d6000fd5b505050506006546110a033611632565b6110aa9190611ddc565b601060003373ffffffffffffffffffffffffffffffffffffffff1673ffffffffffffffffffffffffffffffffffffffff16815260200190815260200160002060020160008282546110fb9190611d55565b925050819055505b5050565b6000601060003373ffffffffffffffffffffffffffffffffffffffff1673ffffffffffffffffffffffffffffffffffffffff168152602001908152602001600020600401541161118c576040517f08c379a000000000000000000000000000000000000000000000000000000000815260040161118390611ce9565b60405180910390fd5b6000601060003373ffffffffffffffffffffffffffffffffffffffff1673ffffffffffffffffffffffffffffffffffffffff168152602001908152602001600020600501544211156111df5760006111e2565b60015b90506111ee33826116b7565b5050565b6000600654601060008473ffffffffffffffffffffffffffffffffffffffff1673ffffffffffffffffffffffffffffffffffffffff168152602001908152602001600020600201546112449190611d55565b421061125357600090506112b1565b42600654601060008573ffffffffffffffffffffffffffffffffffffffff1673ffffffffffffffffffffffffffffffffffffffff168152602001908152602001600020600201546112a49190611d55565b6112ae9190611e36565b90505b919050565b6000600b54905090565b6000601060008373ffffffffffffffffffffffffffffffffffffffff1673ffffffffffffffffffffffffffffffffffffffff1681526020019081526020016000206003015461130e8361144f565b6113189190611d55565b9050919050565b6113276113d1565b8060068190555050565b6113396113d1565b8060038190555050565b6000600454905090565b6113556113d1565b600073ffffffffffffffffffffffffffffffffffffffff168173ffffffffffffffffffffffffffffffffffffffff1614156113c5576040517f08c379a00000000000000000000000000000000000000000000000000000000081526004016113bc90611be9565b60405180910390fd5b6113ce8161156e565b50565b6113d9611830565b73ffffffffffffffffffffffffffffffffffffffff166113f76109fc565b73ffffffffffffffffffffffffffffffffffffffff161461144d576040517f08c379a000000000000000000000000000000000000000000000000000000000815260040161144490611ca9565b60405180910390fd5b565b60008061145b83611632565b90506000601060008573ffffffffffffffffffffffffffffffffffffffff1673ffffffffffffffffffffffffffffffffffffffff1681526020019081526020016000206002015490506000826006546114b49190611ddc565b826114bf9190611d55565b905060006006546114d08484611838565b6114da9190611dab565b9050600081856114ea9190611e36565b90506004548183600d600201546115019190611ddc565b61150b9190611d55565b601060008a73ffffffffffffffffffffffffffffffffffffffff1673ffffffffffffffffffffffffffffffffffffffff168152602001908152602001600020600001546115589190611ddc565b6115629190611dab565b95505050505050919050565b60008060009054906101000a900473ffffffffffffffffffffffffffffffffffffffff169050816000806101000a81548173ffffffffffffffffffffffffffffffffffffffff021916908373ffffffffffffffffffffffffffffffffffffffff1602179055508173ffffffffffffffffffffffffffffffffffffffff168173ffffffffffffffffffffffffffffffffffffffff167f8be0079c531659141344cd1fd0a4f28419497f9722a3daafe3b4186f6b6457e060405160405180910390a35050565b6000806000600a54146116505761164b600a5442611892565b611652565b425b9050600654601060008573ffffffffffffffffffffffffffffffffffffffff1673ffffffffffffffffffffffffffffffffffffffff16815260200190815260200160002060020154826116a59190611e36565b6116af9190611dab565b915050919050565b600080601060008573ffffffffffffffffffffffffffffffffffffffff1673ffffffffffffffffffffffffffffffffffffffff168152602001908152602001600020600401549050821561172e57606460085460646117169190611e36565b826117219190611ddc565b61172b9190611dab565b90505b6000601060008673ffffffffffffffffffffffffffffffffffffffff1673ffffffffffffffffffffffffffffffffffffffff16815260200190815260200160002060040181905550600160009054906101000a900473ffffffffffffffffffffffffffffffffffffffff1673ffffffffffffffffffffffffffffffffffffffff1663a9059cbb85836040518363ffffffff1660e01b81526004016117d3929190611b89565b602060405180830381600087803b1580156117ed57600080fd5b505af1158015611801573d6000803e3d6000fd5b505050506040513d601f19601f82011682018060405250810190611825919061192d565b508091505092915050565b600033905090565b6000600d60010154831015806118535750600d600001548211155b15611861576000905061188c565b61187083600d600001546118ab565b61187f83600d60010154611892565b6118899190611e36565b90505b92915050565b60008183106118a157816118a3565b825b905092915050565b6000818310156118bb57816118bd565b825b905092915050565b6000813590506118d481612142565b92915050565b6000815190506118e981612159565b92915050565b6000813590506118fe81612170565b92915050565b60006020828403121561191657600080fd5b6000611924848285016118c5565b91505092915050565b60006020828403121561193f57600080fd5b600061194d848285016118da565b91505092915050565b60006020828403121561196857600080fd5b6000611976848285016118ef565b91505092915050565b6000806040838503121561199257600080fd5b60006119a0858286016118ef565b92505060206119b1858286016118ef565b9150509250929050565b6119c481611e6a565b82525050565b60006119d7602683611d44565b91506119e282611f10565b604082019050919050565b60006119fa602483611d44565b9150611a0582611f5f565b604082019050919050565b6000611a1d601b83611d44565b9150611a2882611fae565b602082019050919050565b6000611a40601a83611d44565b9150611a4b82611fd7565b602082019050919050565b6000611a63602583611d44565b9150611a6e82612000565b604082019050919050565b6000611a86601083611d44565b9150611a918261204f565b602082019050919050565b6000611aa9602083611d44565b9150611ab482612078565b602082019050919050565b6000611acc601083611d44565b9150611ad7826120a1565b602082019050919050565b6000611aef601783611d44565b9150611afa826120ca565b602082019050919050565b6000611b12603283611d44565b9150611b1d826120f3565b604082019050919050565b611b3181611ea8565b82525050565b6000602082019050611b4c60008301846119bb565b92915050565b6000606082019050611b6760008301866119bb565b611b7460208301856119bb565b611b816040830184611b28565b949350505050565b6000604082019050611b9e60008301856119bb565b611bab6020830184611b28565b9392505050565b6000606082019050611bc760008301866119bb565b611bd46020830185611b28565b611be16040830184611b28565b949350505050565b60006020820190508181036000830152611c02816119ca565b9050919050565b60006020820190508181036000830152611c22816119ed565b9050919050565b60006020820190508181036000830152611c4281611a10565b9050919050565b60006020820190508181036000830152611c6281611a33565b9050919050565b60006020820190508181036000830152611c8281611a56565b9050919050565b60006020820190508181036000830152611ca281611a79565b9050919050565b60006020820190508181036000830152611cc281611a9c565b9050919050565b60006020820190508181036000830152611ce281611abf565b9050919050565b60006020820190508181036000830152611d0281611ae2565b9050919050565b60006020820190508181036000830152611d2281611b05565b9050919050565b6000602082019050611d3e6000830184611b28565b92915050565b600082825260208201905092915050565b6000611d6082611ea8565b9150611d6b83611ea8565b9250827fffffffffffffffffffffffffffffffffffffffffffffffffffffffffffffffff03821115611da057611d9f611eb2565b5b828201905092915050565b6000611db682611ea8565b9150611dc183611ea8565b925082611dd157611dd0611ee1565b5b828204905092915050565b6000611de782611ea8565b9150611df283611ea8565b9250817fffffffffffffffffffffffffffffffffffffffffffffffffffffffffffffffff0483118215151615611e2b57611e2a611eb2565b5b828202905092915050565b6000611e4182611ea8565b9150611e4c83611ea8565b925082821015611e5f57611e5e611eb2565b5b828203905092915050565b6000611e7582611e88565b9050919050565b60008115159050919050565b600073ffffffffffffffffffffffffffffffffffffffff82169050919050565b6000819050919050565b7f4e487b7100000000000000000000000000000000000000000000000000000000600052601160045260246000fd5b7f4e487b7100000000000000000000000000000000000000000000000000000000600052601260045260246000fd5b7f4f776e61626c653a206e6577206f776e657220697320746865207a65726f206160008201527f6464726573730000000000000000000000000000000000000000000000000000602082015250565b7f756e7374616b6520616d6f756e742065786365656473207374616b656420616d60008201527f6f756e7400000000000000000000000000000000000000000000000000000000602082015250565b7f7374616b6520616d6f756e742063616e6e6f74206265207a65726f0000000000600082015250565b7f70656e616c7479526174652063616e6e6f742062652031303025000000000000600082015250565b7f70726f6d6f74696f6e2072617465206d7573742062652067726561746572207460008201527f68616e2031000000000000000000000000000000000000000000000000000000602082015250565b7f43616e6e6f74207374616b65206e6f7700000000000000000000000000000000600082015250565b7f4f776e61626c653a2063616c6c6572206973206e6f7420746865206f776e6572600082015250565b7f43616e6e6f7420636c61696d206e6f7700000000000000000000000000000000600082015250565b7f756e7374616b65206265666f7265207769746864726177000000000000000000600082015250565b7f7374616b6520616d6f756e74206c657373207468616e206d696e696d756d207360008201527f74616b696e6720726571756972656d656e740000000000000000000000000000602082015250565b61214b81611e6a565b811461215657600080fd5b50565b61216281611e7c565b811461216d57600080fd5b50565b61217981611ea8565b811461218457600080fd5b5056fea26469706673582212202af51f78faeaf67873190eb08ccf08b31e20f8c356ace9e7af33b132dbfa4adc64736f6c63430008040033",
  "linkReferences": {},
  "deployedLinkReferences": {}
}