{
  "_format": "hh-sol-artifact-1",
  "contractName": "VestingToken",
  "sourceName": "contracts/VestingToken.sol",
  "abi": [
    {
      "inputs": [
        {
          "internalType": "address",
          "name": "tokenAddress",
          "type": "address"
        },
        {
          "internalType": "bytes32",
          "name": "merkleRoot",
          "type": "bytes32"
        },
        {
          "internalType": "uint256",
          "name": "totalToken",
          "type": "uint256"
        }
      ],
      "stateMutability": "nonpayable",
      "type": "constructor"
    },
    {
      "anonymous": false,
      "inputs": [
        {
          "indexed": true,
          "internalType": "address",
          "name": "tokenAddress",
          "type": "address"
        },
        {
          "indexed": true,
          "internalType": "address",
          "name": "to",
          "type": "address"
        },
        {
          "indexed": false,
          "internalType": "uint256",
          "name": "amount",
          "type": "uint256"
        }
      ],
      "name": "ClaimToken",
      "type": "event"
    },
    {
      "anonymous": false,
      "inputs": [
        {
          "indexed": true,
          "internalType": "address",
          "name": "previousOwner",
          "type": "address"
        },
        {
          "indexed": true,
          "internalType": "address",
          "name": "newOwner",
          "type": "address"
        }
      ],
      "name": "OwnershipTransferred",
      "type": "event"
    },
    {
      "anonymous": false,
      "inputs": [
        {
          "indexed": true,
          "internalType": "address",
          "name": "wallet",
          "type": "address"
        },
        {
          "indexed": false,
          "internalType": "uint256",
          "name": "amount",
          "type": "uint256"
        }
      ],
      "name": "Register",
      "type": "event"
    },
    {
      "inputs": [],
      "name": "_merkleRoot",
      "outputs": [
        {
          "internalType": "bytes32",
          "name": "",
          "type": "bytes32"
        }
      ],
      "stateMutability": "view",
      "type": "function"
    },
    {
      "inputs": [
        {
          "internalType": "address",
          "name": "wallet",
          "type": "address"
        },
        {
          "internalType": "uint256",
          "name": "amount",
          "type": "uint256"
        },
        {
          "internalType": "bytes32[]",
          "name": "merkleProof",
          "type": "bytes32[]"
        }
      ],
      "name": "claim",
      "outputs": [
        {
          "internalType": "uint256",
          "name": "",
          "type": "uint256"
        }
      ],
      "stateMutability": "nonpayable",
      "type": "function"
    },
    {
      "inputs": [
        {
          "internalType": "address",
          "name": "to",
          "type": "address"
        },
        {
          "internalType": "uint256",
          "name": "amount",
          "type": "uint256"
        }
      ],
      "name": "emergencyWithdraw",
      "outputs": [],
      "stateMutability": "nonpayable",
      "type": "function"
    },
    {
      "inputs": [],
      "name": "getBlockTimeStamp",
      "outputs": [
        {
          "internalType": "uint256",
          "name": "",
          "type": "uint256"
        }
      ],
      "stateMutability": "view",
      "type": "function"
    },
    {
      "inputs": [
        {
          "internalType": "address",
          "name": "wallet",
          "type": "address"
        }
      ],
      "name": "getClaimableAmount",
      "outputs": [
        {
          "internalType": "uint256",
          "name": "",
          "type": "uint256"
        }
      ],
      "stateMutability": "view",
      "type": "function"
    },
    {
      "inputs": [
        {
          "internalType": "address",
          "name": "wallet",
          "type": "address"
        }
      ],
      "name": "getReleasedTokenAmount",
      "outputs": [
        {
          "internalType": "uint256",
          "name": "",
          "type": "uint256"
        }
      ],
      "stateMutability": "view",
      "type": "function"
    },
    {
      "inputs": [],
      "name": "getTotalClaim",
      "outputs": [
        {
          "internalType": "uint256",
          "name": "",
          "type": "uint256"
        }
      ],
      "stateMutability": "view",
      "type": "function"
    },
    {
      "inputs": [],
      "name": "isOpening",
      "outputs": [
        {
          "internalType": "bool",
          "name": "",
          "type": "bool"
        }
      ],
      "stateMutability": "view",
      "type": "function"
    },
    {
      "inputs": [
        {
          "internalType": "address",
          "name": "wallet",
          "type": "address"
        }
      ],
      "name": "lockedOf",
      "outputs": [
        {
          "internalType": "uint256",
          "name": "",
          "type": "uint256"
        }
      ],
      "stateMutability": "view",
      "type": "function"
    },
    {
      "inputs": [],
      "name": "owner",
      "outputs": [
        {
          "internalType": "address",
          "name": "",
          "type": "address"
        }
      ],
      "stateMutability": "view",
      "type": "function"
    },
    {
      "inputs": [],
      "name": "renounceOwnership",
      "outputs": [],
      "stateMutability": "nonpayable",
      "type": "function"
    },
    {
      "inputs": [],
      "name": "startClaim",
      "outputs": [],
      "stateMutability": "nonpayable",
      "type": "function"
    },
    {
      "inputs": [],
      "name": "startReleaseToken",
      "outputs": [],
      "stateMutability": "nonpayable",
      "type": "function"
    },
    {
      "inputs": [],
      "name": "stopClaim",
      "outputs": [],
      "stateMutability": "nonpayable",
      "type": "function"
    },
    {
      "inputs": [
        {
          "internalType": "address",
          "name": "newOwner",
          "type": "address"
        }
      ],
      "name": "transferOwnership",
      "outputs": [],
      "stateMutability": "nonpayable",
      "type": "function"
    },
    {
      "inputs": [
        {
          "internalType": "bytes32",
          "name": "merkleRoot",
          "type": "bytes32"
        },
        {
          "internalType": "uint256",
          "name": "totalAmount",
          "type": "uint256"
        }
      ],
      "name": "updateRoot",
      "outputs": [],
      "stateMutability": "nonpayable",
      "type": "function"
    }
  ],
  "bytecode": "0x60806040523480156200001157600080fd5b50604051620019cb380380620019cb8339818101604052810190620000379190620001f6565b620000576200004b620000bf60201b60201c565b620000c760201b60201c565b82600160006101000a81548173ffffffffffffffffffffffffffffffffffffffff021916908373ffffffffffffffffffffffffffffffffffffffff1602179055508160028190555080600381905550620000b66200018b60201b60201c565b505050620002e2565b600033905090565b60008060009054906101000a900473ffffffffffffffffffffffffffffffffffffffff169050816000806101000a81548173ffffffffffffffffffffffffffffffffffffffff021916908373ffffffffffffffffffffffffffffffffffffffff1602179055508173ffffffffffffffffffffffffffffffffffffffff168173ffffffffffffffffffffffffffffffffffffffff167f8be0079c531659141344cd1fd0a4f28419497f9722a3daafe3b4186f6b6457e060405160405180910390a35050565b600c6005819055506276a700600681905550600460078190555062278d00600881905550565b600081519050620001c28162000294565b92915050565b600081519050620001d981620002ae565b92915050565b600081519050620001f081620002c8565b92915050565b6000806000606084860312156200020c57600080fd5b60006200021c86828701620001b1565b93505060206200022f86828701620001c8565b92505060406200024286828701620001df565b9150509250925092565b600062000259826200026a565b9050919050565b6000819050919050565b600073ffffffffffffffffffffffffffffffffffffffff82169050919050565b6000819050919050565b6200029f816200024c565b8114620002ab57600080fd5b50565b620002b98162000260565b8114620002c557600080fd5b50565b620002d3816200028a565b8114620002df57600080fd5b50565b6116d980620002f26000396000f3fe608060405234801561001057600080fd5b50600436106101005760003560e01c806395ccea6711610097578063e12f3a6111610066578063e12f3a6114610277578063ecbfc077146102a7578063f2fde38b146102b1578063ff6c9bc9146102cd57610100565b806395ccea67146101f1578063a5f1e2821461020d578063c2e3e62b1461023d578063ca49a5431461025957610100565b80633d13f874116100d35780633d13f8741461017b578063715018a6146101ab578063766d5235146101b55780638da5cb5b146101d357610100565b8063039629b6146101055780630550427e1461010f57806312f0bbe81461013f5780632fc37ab21461015d575b600080fd5b61010d6102d7565b005b61012960048036038101906101249190610f4a565b610303565b60405161013691906112df565b60405180910390f35b61014761034c565b60405161015491906112df565b60405180910390f35b610165610356565b6040516101729190611224565b60405180910390f35b61019560048036038101906101909190610faf565b61035c565b6040516101a291906112df565b60405180910390f35b6101b36106ee565b005b6101bd610702565b6040516101ca9190611209565b60405180910390f35b6101db610719565b6040516101e891906111c5565b60405180910390f35b61020b60048036038101906102069190610f73565b610742565b005b61022760048036038101906102229190610f4a565b6107fe565b60405161023491906112df565b60405180910390f35b61025760048036038101906102529190611044565b610847565b005b610261610861565b60405161026e91906112df565b60405180910390f35b610291600480360381019061028c9190610f4a565b610869565b60405161029e91906112df565b60405180910390f35b6102af61087b565b005b6102cb60048036038101906102c69190610f4a565b6108a0565b005b6102d5610924565b005b6102df610949565b6001600b60006101000a81548160ff02191690831515021790555042600c81905550565b6000600a60008373ffffffffffffffffffffffffffffffffffffffff1673ffffffffffffffffffffffffffffffffffffffff168152602001908152602001600020549050919050565b6000600454905090565b60025481565b600060011515600b60009054906101000a900460ff161515146103b4576040517f08c379a00000000000000000000000000000000000000000000000000000000081526004016103ab9061123f565b60405180910390fd5b6103c0858585856109c7565b6103ff576040517f08c379a00000000000000000000000000000000000000000000000000000000081526004016103f6906112bf565b60405180910390fd5b6000600a60008773ffffffffffffffffffffffffffffffffffffffff1673ffffffffffffffffffffffffffffffffffffffff1681526020019081526020016000205414156104655761046485670de0b6b3a76400008661045f9190611392565b610a4e565b5b600960008673ffffffffffffffffffffffffffffffffffffffff1673ffffffffffffffffffffffffffffffffffffffff16815260200190815260200160002054600a60008773ffffffffffffffffffffffffffffffffffffffff1673ffffffffffffffffffffffffffffffffffffffff1681526020019081526020016000205410610525576040517f08c379a000000000000000000000000000000000000000000000000000000000815260040161051c9061127f565b60405180910390fd5b600061053086610ae3565b905060008111156106e25780600a60008873ffffffffffffffffffffffffffffffffffffffff1673ffffffffffffffffffffffffffffffffffffffff168152602001908152602001600020600082825461058a919061130b565b9250508190555080600460008282546105a3919061130b565b92505081905550600160009054906101000a900473ffffffffffffffffffffffffffffffffffffffff1673ffffffffffffffffffffffffffffffffffffffff1663a9059cbb87836040518363ffffffff1660e01b81526004016106079291906111e0565b602060405180830381600087803b15801561062157600080fd5b505af1158015610635573d6000803e3d6000fd5b505050506040513d601f19601f82011682018060405250810190610659919061101b565b508573ffffffffffffffffffffffffffffffffffffffff16600160009054906101000a900473ffffffffffffffffffffffffffffffffffffffff1673ffffffffffffffffffffffffffffffffffffffff167f7f94f93110499c9cb02fa9d1a5792b02f416866cce7d8752e9c5ec67cb8d8b29836040516106d991906112df565b60405180910390a35b80915050949350505050565b6106f6610949565b6107006000610c31565b565b6000600b60009054906101000a900460ff16905090565b60008060009054906101000a900473ffffffffffffffffffffffffffffffffffffffff16905090565b61074a610949565b600160009054906101000a900473ffffffffffffffffffffffffffffffffffffffff1673ffffffffffffffffffffffffffffffffffffffff1663a9059cbb83836040518363ffffffff1660e01b81526004016107a79291906111e0565b602060405180830381600087803b1580156107c157600080fd5b505af11580156107d5573d6000803e3d6000fd5b505050506040513d601f19601f820116820180604052508101906107f9919061101b565b505050565b6000600960008373ffffffffffffffffffffffffffffffffffffffff1673ffffffffffffffffffffffffffffffffffffffff168152602001908152602001600020549050919050565b61084f610949565b81600281905550806003819055505050565b600042905090565b600061087482610ae3565b9050919050565b610883610949565b6001600b60006101000a81548160ff021916908315150217905550565b6108a8610949565b600073ffffffffffffffffffffffffffffffffffffffff168173ffffffffffffffffffffffffffffffffffffffff161415610918576040517f08c379a000000000000000000000000000000000000000000000000000000000815260040161090f9061125f565b60405180910390fd5b61092181610c31565b50565b61092c610949565b6000600b60006101000a81548160ff021916908315150217905550565b610951610cf5565b73ffffffffffffffffffffffffffffffffffffffff1661096f610719565b73ffffffffffffffffffffffffffffffffffffffff16146109c5576040517f08c379a00000000000000000000000000000000000000000000000000000000081526004016109bc9061129f565b60405180910390fd5b565b60008085856040516020016109dd929190611199565b604051602081830303815290604052805190602001209050610a43848480806020026020016040519081016040528093929190818152602001838360200280828437600081840152601f19601f8201169050808301925050505050505060025483610cfd565b915050949350505050565b80600960008473ffffffffffffffffffffffffffffffffffffffff1673ffffffffffffffffffffffffffffffffffffffff168152602001908152602001600020819055508173ffffffffffffffffffffffffffffffffffffffff167e7dc6ab80cc84c043b7b8d4fcafc802187470087f7ea7fccd2e17aecd0256a182604051610ad791906112df565b60405180910390a25050565b600080610aee610d14565b905060006064600960008673ffffffffffffffffffffffffffffffffffffffff1673ffffffffffffffffffffffffffffffffffffffff1681526020019081526020016000205483610b3f9190611392565b610b499190611361565b9050610c28600a60008673ffffffffffffffffffffffffffffffffffffffff1673ffffffffffffffffffffffffffffffffffffffff1681526020019081526020016000205482610b9991906113ec565b600a60008773ffffffffffffffffffffffffffffffffffffffff1673ffffffffffffffffffffffffffffffffffffffff16815260200190815260200160002054600960008873ffffffffffffffffffffffffffffffffffffffff1673ffffffffffffffffffffffffffffffffffffffff16815260200190815260200160002054610c2391906113ec565b610dd5565b92505050919050565b60008060009054906101000a900473ffffffffffffffffffffffffffffffffffffffff169050816000806101000a81548173ffffffffffffffffffffffffffffffffffffffff021916908373ffffffffffffffffffffffffffffffffffffffff1602179055508173ffffffffffffffffffffffffffffffffffffffff168173ffffffffffffffffffffffffffffffffffffffff167f8be0079c531659141344cd1fd0a4f28419497f9722a3daafe3b4186f6b6457e060405160405180910390a35050565b600033905090565b600082610d0a8584610dee565b1490509392505050565b600080429050600c54811015610d2e576000915050610dd2565b600060055490506000600c5483610d4591906113ec565b9050600654811115610dc15760065481610d5f91906113ec565b9050600060085482610d719190611361565b9050600060085482610d839190611392565b83610d8e91906113ec565b1115610da457600181610da1919061130b565b90505b60075481610db29190611392565b83610dbd919061130b565b9250505b610dcc826064610dd5565b93505050505b90565b6000818310610de45781610de6565b825b905092915050565b60008082905060005b8451811015610e5f57610e4a82868381518110610e3d577f4e487b7100000000000000000000000000000000000000000000000000000000600052603260045260246000fd5b6020026020010151610e6a565b91508080610e5790611472565b915050610df7565b508091505092915050565b6000818310610e8257610e7d8284610e95565b610e8d565b610e8c8383610e95565b5b905092915050565b600082600052816020526040600020905092915050565b600081359050610ebb81611647565b92915050565b60008083601f840112610ed357600080fd5b8235905067ffffffffffffffff811115610eec57600080fd5b602083019150836020820283011115610f0457600080fd5b9250929050565b600081519050610f1a8161165e565b92915050565b600081359050610f2f81611675565b92915050565b600081359050610f448161168c565b92915050565b600060208284031215610f5c57600080fd5b6000610f6a84828501610eac565b91505092915050565b60008060408385031215610f8657600080fd5b6000610f9485828601610eac565b9250506020610fa585828601610f35565b9150509250929050565b60008060008060608587031215610fc557600080fd5b6000610fd387828801610eac565b9450506020610fe487828801610f35565b935050604085013567ffffffffffffffff81111561100157600080fd5b61100d87828801610ec1565b925092505092959194509250565b60006020828403121561102d57600080fd5b600061103b84828501610f0b565b91505092915050565b6000806040838503121561105757600080fd5b600061106585828601610f20565b925050602061107685828601610f35565b9150509250929050565b61108981611420565b82525050565b6110a061109b82611420565b6114bb565b82525050565b6110af81611432565b82525050565b6110be8161143e565b82525050565b60006110d16011836112fa565b91506110dc82611554565b602082019050919050565b60006110f46026836112fa565b91506110ff8261157d565b604082019050919050565b60006111176015836112fa565b9150611122826115cc565b602082019050919050565b600061113a6020836112fa565b9150611145826115f5565b602082019050919050565b600061115d6014836112fa565b91506111688261161e565b602082019050919050565b61117c81611468565b82525050565b61119361118e82611468565b6114df565b82525050565b60006111a5828561108f565b6014820191506111b58284611182565b6020820191508190509392505050565b60006020820190506111da6000830184611080565b92915050565b60006040820190506111f56000830185611080565b6112026020830184611173565b9392505050565b600060208201905061121e60008301846110a6565b92915050565b600060208201905061123960008301846110b5565b92915050565b60006020820190508181036000830152611258816110c4565b9050919050565b60006020820190508181036000830152611278816110e7565b9050919050565b600060208201905081810360008301526112988161110a565b9050919050565b600060208201905081810360008301526112b88161112d565b9050919050565b600060208201905081810360008301526112d881611150565b9050919050565b60006020820190506112f46000830184611173565b92915050565b600082825260208201905092915050565b600061131682611468565b915061132183611468565b9250827fffffffffffffffffffffffffffffffffffffffffffffffffffffffffffffffff03821115611356576113556114e9565b5b828201905092915050565b600061136c82611468565b915061137783611468565b92508261138757611386611518565b5b828204905092915050565b600061139d82611468565b91506113a883611468565b9250817fffffffffffffffffffffffffffffffffffffffffffffffffffffffffffffffff04831182151516156113e1576113e06114e9565b5b828202905092915050565b60006113f782611468565b915061140283611468565b925082821015611415576114146114e9565b5b828203905092915050565b600061142b82611448565b9050919050565b60008115159050919050565b6000819050919050565b600073ffffffffffffffffffffffffffffffffffffffff82169050919050565b6000819050919050565b600061147d82611468565b91507fffffffffffffffffffffffffffffffffffffffffffffffffffffffffffffffff8214156114b0576114af6114e9565b5b600182019050919050565b60006114c6826114cd565b9050919050565b60006114d882611547565b9050919050565b6000819050919050565b7f4e487b7100000000000000000000000000000000000000000000000000000000600052601160045260246000fd5b7f4e487b7100000000000000000000000000000000000000000000000000000000600052601260045260246000fd5b60008160601b9050919050565b7f43616e6e6f7420636c61696d206e6f7721000000000000000000000000000000600082015250565b7f4f776e61626c653a206e6577206f776e657220697320746865207a65726f206160008201527f6464726573730000000000000000000000000000000000000000000000000000602082015250565b7f6e6f7468696e67206c65667420746f20636c61696d0000000000000000000000600082015250565b7f4f776e61626c653a2063616c6c6572206973206e6f7420746865206f776e6572600082015250565b7f496e76616c6964206d65726b6c652070726f6f66000000000000000000000000600082015250565b61165081611420565b811461165b57600080fd5b50565b61166781611432565b811461167257600080fd5b50565b61167e8161143e565b811461168957600080fd5b50565b61169581611468565b81146116a057600080fd5b5056fea2646970667358221220979e1985124fef9767c169e9ab6ac60e92d0d764b262c2739412369fc6a5650964736f6c63430008040033",
  "linkReferences": {},
  "deployedLinkReferences": {}
}