{
  "_format": "hh-sol-artifact-1",
  "contractName": "VestingToken",
  "sourceName": "contracts/VestingToken.sol",
  "abi": [
    {
      "inputs": [
        {
          "internalType": "address",
          "name": "tokenAddress",
          "type": "address"
        },
        {
          "internalType": "bytes32",
          "name": "merkleRoot",
          "type": "bytes32"
        },
        {
          "internalType": "uint256",
          "name": "totalToken",
          "type": "uint256"
        }
      ],
      "stateMutability": "nonpayable",
      "type": "constructor"
    },
    {
      "anonymous": false,
      "inputs": [
        {
          "indexed": true,
          "internalType": "address",
          "name": "tokenAddress",
          "type": "address"
        },
        {
          "indexed": true,
          "internalType": "address",
          "name": "to",
          "type": "address"
        },
        {
          "indexed": false,
          "internalType": "uint256",
          "name": "amount",
          "type": "uint256"
        }
      ],
      "name": "ClaimToken",
      "type": "event"
    },
    {
      "anonymous": false,
      "inputs": [
        {
          "indexed": true,
          "internalType": "address",
          "name": "previousOwner",
          "type": "address"
        },
        {
          "indexed": true,
          "internalType": "address",
          "name": "newOwner",
          "type": "address"
        }
      ],
      "name": "OwnershipTransferred",
      "type": "event"
    },
    {
      "anonymous": false,
      "inputs": [
        {
          "indexed": true,
          "internalType": "address",
          "name": "wallet",
          "type": "address"
        },
        {
          "indexed": false,
          "internalType": "uint256",
          "name": "amount",
          "type": "uint256"
        }
      ],
      "name": "Register",
      "type": "event"
    },
    {
      "inputs": [],
      "name": "_merkleRoot",
      "outputs": [
        {
          "internalType": "bytes32",
          "name": "",
          "type": "bytes32"
        }
      ],
      "stateMutability": "view",
      "type": "function"
    },
    {
      "inputs": [
        {
          "internalType": "address",
          "name": "wallet",
          "type": "address"
        },
        {
          "internalType": "uint256",
          "name": "amount",
          "type": "uint256"
        },
        {
          "internalType": "bytes32[]",
          "name": "merkleProof",
          "type": "bytes32[]"
        }
      ],
      "name": "claim",
      "outputs": [],
      "stateMutability": "nonpayable",
      "type": "function"
    },
    {
      "inputs": [
        {
          "internalType": "address",
          "name": "to",
          "type": "address"
        },
        {
          "internalType": "uint256",
          "name": "amount",
          "type": "uint256"
        }
      ],
      "name": "emergencyWithdraw",
      "outputs": [],
      "stateMutability": "nonpayable",
      "type": "function"
    },
    {
      "inputs": [],
      "name": "getBlockTimeStamp",
      "outputs": [
        {
          "internalType": "uint256",
          "name": "",
          "type": "uint256"
        }
      ],
      "stateMutability": "view",
      "type": "function"
    },
    {
      "inputs": [
        {
          "internalType": "address",
          "name": "wallet",
          "type": "address"
        }
      ],
      "name": "getClaimableAmount",
      "outputs": [
        {
          "internalType": "uint256",
          "name": "",
          "type": "uint256"
        }
      ],
      "stateMutability": "view",
      "type": "function"
    },
    {
      "inputs": [
        {
          "internalType": "address",
          "name": "wallet",
          "type": "address"
        }
      ],
      "name": "getReleasedTokenAmount",
      "outputs": [
        {
          "internalType": "uint256",
          "name": "",
          "type": "uint256"
        }
      ],
      "stateMutability": "view",
      "type": "function"
    },
    {
      "inputs": [],
      "name": "getTotalClaim",
      "outputs": [
        {
          "internalType": "uint256",
          "name": "",
          "type": "uint256"
        }
      ],
      "stateMutability": "view",
      "type": "function"
    },
    {
      "inputs": [
        {
          "internalType": "address",
          "name": "wallet",
          "type": "address"
        }
      ],
      "name": "lockedOf",
      "outputs": [
        {
          "internalType": "uint256",
          "name": "",
          "type": "uint256"
        }
      ],
      "stateMutability": "view",
      "type": "function"
    },
    {
      "inputs": [],
      "name": "owner",
      "outputs": [
        {
          "internalType": "address",
          "name": "",
          "type": "address"
        }
      ],
      "stateMutability": "view",
      "type": "function"
    },
    {
      "inputs": [],
      "name": "renounceOwnership",
      "outputs": [],
      "stateMutability": "nonpayable",
      "type": "function"
    },
    {
      "inputs": [],
      "name": "startClaim",
      "outputs": [],
      "stateMutability": "nonpayable",
      "type": "function"
    },
    {
      "inputs": [],
      "name": "startReleaseToken",
      "outputs": [],
      "stateMutability": "nonpayable",
      "type": "function"
    },
    {
      "inputs": [],
      "name": "stopClaim",
      "outputs": [],
      "stateMutability": "nonpayable",
      "type": "function"
    },
    {
      "inputs": [
        {
          "internalType": "address",
          "name": "newOwner",
          "type": "address"
        }
      ],
      "name": "transferOwnership",
      "outputs": [],
      "stateMutability": "nonpayable",
      "type": "function"
    },
    {
      "inputs": [
        {
          "internalType": "bytes32",
          "name": "merkleRoot",
          "type": "bytes32"
        },
        {
          "internalType": "uint256",
          "name": "totalAmount",
          "type": "uint256"
        }
      ],
      "name": "updateRoot",
      "outputs": [],
      "stateMutability": "nonpayable",
      "type": "function"
    }
  ],
  "bytecode": "0x60806040523480156200001157600080fd5b5060405162001c3d38038062001c3d8339818101604052810190620000379190620001f4565b620000576200004b620000bf60201b60201c565b620000c760201b60201c565b82600160006101000a81548173ffffffffffffffffffffffffffffffffffffffff021916908373ffffffffffffffffffffffffffffffffffffffff1602179055508160028190555080600381905550620000b66200018b60201b60201c565b505050620002e0565b600033905090565b60008060009054906101000a900473ffffffffffffffffffffffffffffffffffffffff169050816000806101000a81548173ffffffffffffffffffffffffffffffffffffffff021916908373ffffffffffffffffffffffffffffffffffffffff1602179055508173ffffffffffffffffffffffffffffffffffffffff168173ffffffffffffffffffffffffffffffffffffffff167f8be0079c531659141344cd1fd0a4f28419497f9722a3daafe3b4186f6b6457e060405160405180910390a35050565b600c600581905550610258600681905550600460078190555061012c600881905550565b600081519050620001c08162000292565b92915050565b600081519050620001d781620002ac565b92915050565b600081519050620001ee81620002c6565b92915050565b6000806000606084860312156200020a57600080fd5b60006200021a86828701620001af565b93505060206200022d86828701620001c6565b92505060406200024086828701620001dd565b9150509250925092565b6000620002578262000268565b9050919050565b6000819050919050565b600073ffffffffffffffffffffffffffffffffffffffff82169050919050565b6000819050919050565b6200029d816200024a565b8114620002a957600080fd5b50565b620002b7816200025e565b8114620002c357600080fd5b50565b620002d18162000288565b8114620002dd57600080fd5b50565b61194d80620002f06000396000f3fe608060405234801561001057600080fd5b50600436106100f55760003560e01c806395ccea6711610097578063e12f3a6111610066578063e12f3a611461023a578063ecbfc0771461026a578063f2fde38b14610274578063ff6c9bc914610290576100f5565b806395ccea67146101b4578063a5f1e282146101d0578063c2e3e62b14610200578063ca49a5431461021c576100f5565b80632fc37ab2116100d35780632fc37ab2146101525780633d13f87414610170578063715018a61461018c5780638da5cb5b14610196576100f5565b8063039629b6146100fa5780630550427e1461010457806312f0bbe814610134575b600080fd5b61010261029a565b005b61011e60048036038101906101199190611130565b6102c6565b60405161012b9190611504565b60405180910390f35b61013c61030f565b6040516101499190611504565b60405180910390f35b61015a610319565b6040516101679190611419565b60405180910390f35b61018a60048036038101906101859190611195565b61031f565b005b6101946106e9565b005b61019e6106fd565b6040516101ab91906113d5565b60405180910390f35b6101ce60048036038101906101c99190611159565b610726565b005b6101ea60048036038101906101e59190611130565b6107e2565b6040516101f79190611504565b60405180910390f35b61021a6004803603810190610215919061122a565b61082b565b005b610224610845565b6040516102319190611504565b60405180910390f35b610254600480360381019061024f9190611130565b61084d565b6040516102619190611504565b60405180910390f35b61027261085f565b005b61028e60048036038101906102899190611130565b610884565b005b610298610908565b005b6102a261092d565b6001600b60006101000a81548160ff02191690831515021790555042600c81905550565b6000600a60008373ffffffffffffffffffffffffffffffffffffffff1673ffffffffffffffffffffffffffffffffffffffff168152602001908152602001600020549050919050565b6000600454905090565b60025481565b60011515600b60009054906101000a900460ff16151514610375576040517f08c379a000000000000000000000000000000000000000000000000000000000815260040161036c90611464565b60405180910390fd5b610381848484846109ab565b6103c0576040517f08c379a00000000000000000000000000000000000000000000000000000000081526004016103b7906114e4565b60405180910390fd5b6000600a60008673ffffffffffffffffffffffffffffffffffffffff1673ffffffffffffffffffffffffffffffffffffffff1681526020019081526020016000205414156104265761042584670de0b6b3a76400008561042091906115c2565b610a32565b5b600960008573ffffffffffffffffffffffffffffffffffffffff1673ffffffffffffffffffffffffffffffffffffffff16815260200190815260200160002054600a60008673ffffffffffffffffffffffffffffffffffffffff1673ffffffffffffffffffffffffffffffffffffffff16815260200190815260200160002054106104e6576040517f08c379a00000000000000000000000000000000000000000000000000000000081526004016104dd906114a4565b60405180910390fd5b60006104f185610ac7565b90506105326040518060400160405280600c81526020017f436c61696d416d6f756e743a000000000000000000000000000000000000000081525082610c93565b60008111156106e25780600a60008773ffffffffffffffffffffffffffffffffffffffff1673ffffffffffffffffffffffffffffffffffffffff168152602001908152602001600020600082825461058a919061153b565b9250508190555080600460008282546105a3919061153b565b92505081905550600160009054906101000a900473ffffffffffffffffffffffffffffffffffffffff1673ffffffffffffffffffffffffffffffffffffffff1663a9059cbb86836040518363ffffffff1660e01b81526004016106079291906113f0565b602060405180830381600087803b15801561062157600080fd5b505af1158015610635573d6000803e3d6000fd5b505050506040513d601f19601f820116820180604052508101906106599190611201565b508473ffffffffffffffffffffffffffffffffffffffff16600160009054906101000a900473ffffffffffffffffffffffffffffffffffffffff1673ffffffffffffffffffffffffffffffffffffffff167f7f94f93110499c9cb02fa9d1a5792b02f416866cce7d8752e9c5ec67cb8d8b29836040516106d99190611504565b60405180910390a35b5050505050565b6106f161092d565b6106fb6000610d2f565b565b60008060009054906101000a900473ffffffffffffffffffffffffffffffffffffffff16905090565b61072e61092d565b600160009054906101000a900473ffffffffffffffffffffffffffffffffffffffff1673ffffffffffffffffffffffffffffffffffffffff1663a9059cbb83836040518363ffffffff1660e01b815260040161078b9291906113f0565b602060405180830381600087803b1580156107a557600080fd5b505af11580156107b9573d6000803e3d6000fd5b505050506040513d601f19601f820116820180604052508101906107dd9190611201565b505050565b6000600960008373ffffffffffffffffffffffffffffffffffffffff1673ffffffffffffffffffffffffffffffffffffffff168152602001908152602001600020549050919050565b61083361092d565b81600281905550806003819055505050565b600042905090565b600061085882610ac7565b9050919050565b61086761092d565b6001600b60006101000a81548160ff021916908315150217905550565b61088c61092d565b600073ffffffffffffffffffffffffffffffffffffffff168173ffffffffffffffffffffffffffffffffffffffff1614156108fc576040517f08c379a00000000000000000000000000000000000000000000000000000000081526004016108f390611484565b60405180910390fd5b61090581610d2f565b50565b61091061092d565b6000600b60006101000a81548160ff021916908315150217905550565b610935610df3565b73ffffffffffffffffffffffffffffffffffffffff166109536106fd565b73ffffffffffffffffffffffffffffffffffffffff16146109a9576040517f08c379a00000000000000000000000000000000000000000000000000000000081526004016109a0906114c4565b60405180910390fd5b565b60008085856040516020016109c19291906113a9565b604051602081830303815290604052805190602001209050610a27848480806020026020016040519081016040528093929190818152602001838360200280828437600081840152601f19601f8201169050808301925050505050505060025483610dfb565b915050949350505050565b80600960008473ffffffffffffffffffffffffffffffffffffffff1673ffffffffffffffffffffffffffffffffffffffff168152602001908152602001600020819055508173ffffffffffffffffffffffffffffffffffffffff167e7dc6ab80cc84c043b7b8d4fcafc802187470087f7ea7fccd2e17aecd0256a182604051610abb9190611504565b60405180910390a25050565b600080610ad2610e12565b9050610b526040518060400160405280601081526020017f5f6c6f636b65645b77616c6c65745d3a00000000000000000000000000000000815250600960008673ffffffffffffffffffffffffffffffffffffffff1673ffffffffffffffffffffffffffffffffffffffff16815260200190815260200160002054610c93565b60006064600960008673ffffffffffffffffffffffffffffffffffffffff1673ffffffffffffffffffffffffffffffffffffffff1681526020019081526020016000205483610ba191906115c2565b610bab9190611591565b9050610c8a600a60008673ffffffffffffffffffffffffffffffffffffffff1673ffffffffffffffffffffffffffffffffffffffff1681526020019081526020016000205482610bfb919061161c565b600a60008773ffffffffffffffffffffffffffffffffffffffff1673ffffffffffffffffffffffffffffffffffffffff16815260200190815260200160002054600960008873ffffffffffffffffffffffffffffffffffffffff1673ffffffffffffffffffffffffffffffffffffffff16815260200190815260200160002054610c85919061161c565b610f92565b92505050919050565b610d2b8282604051602401610ca9929190611434565b6040516020818303038152906040527f9710a9d0000000000000000000000000000000000000000000000000000000007bffffffffffffffffffffffffffffffffffffffffffffffffffffffff19166020820180517bffffffffffffffffffffffffffffffffffffffffffffffffffffffff8381831617835250505050610fab565b5050565b60008060009054906101000a900473ffffffffffffffffffffffffffffffffffffffff169050816000806101000a81548173ffffffffffffffffffffffffffffffffffffffff021916908373ffffffffffffffffffffffffffffffffffffffff1602179055508173ffffffffffffffffffffffffffffffffffffffff168173ffffffffffffffffffffffffffffffffffffffff167f8be0079c531659141344cd1fd0a4f28419497f9722a3daafe3b4186f6b6457e060405160405180910390a35050565b600033905090565b600082610e088584610fd4565b1490509392505050565b600080429050610e596040518060400160405280601181526020017f737461727452656c6561736554696d653a000000000000000000000000000000815250600c54610c93565b610e986040518060400160405280600c81526020017f63757272656e7454696d653a000000000000000000000000000000000000000081525082610c93565b600c54811015610eac576000915050610f8f565b600060055490506000600c5483610ec3919061161c565b9050600654811115610f3f5760065481610edd919061161c565b9050600060085482610eef9190611591565b9050600060085482610f0191906115c2565b83610f0c919061161c565b1115610f2257600181610f1f919061153b565b90505b60075481610f3091906115c2565b83610f3b919061153b565b9250505b610f7e6040518060400160405280600881526020017f50657263656e743a00000000000000000000000000000000000000000000000081525083610c93565b610f89826064610f92565b93505050505b90565b6000818310610fa15781610fa3565b825b905092915050565b60008151905060006a636f6e736f6c652e6c6f679050602083016000808483855afa5050505050565b60008082905060005b84518110156110455761103082868381518110611023577f4e487b7100000000000000000000000000000000000000000000000000000000600052603260045260246000fd5b6020026020010151611050565b9150808061103d906116d5565b915050610fdd565b508091505092915050565b600081831061106857611063828461107b565b611073565b611072838361107b565b5b905092915050565b600082600052816020526040600020905092915050565b6000813590506110a1816118bb565b92915050565b60008083601f8401126110b957600080fd5b8235905067ffffffffffffffff8111156110d257600080fd5b6020830191508360208202830111156110ea57600080fd5b9250929050565b600081519050611100816118d2565b92915050565b600081359050611115816118e9565b92915050565b60008135905061112a81611900565b92915050565b60006020828403121561114257600080fd5b600061115084828501611092565b91505092915050565b6000806040838503121561116c57600080fd5b600061117a85828601611092565b925050602061118b8582860161111b565b9150509250929050565b600080600080606085870312156111ab57600080fd5b60006111b987828801611092565b94505060206111ca8782880161111b565b935050604085013567ffffffffffffffff8111156111e757600080fd5b6111f3878288016110a7565b925092505092959194509250565b60006020828403121561121357600080fd5b6000611221848285016110f1565b91505092915050565b6000806040838503121561123d57600080fd5b600061124b85828601611106565b925050602061125c8582860161111b565b9150509250929050565b61126f81611650565b82525050565b61128661128182611650565b61171e565b82525050565b6112958161166e565b82525050565b60006112a68261151f565b6112b0818561152a565b93506112c08185602086016116a2565b6112c9816117aa565b840191505092915050565b60006112e160118361152a565b91506112ec826117c8565b602082019050919050565b600061130460268361152a565b915061130f826117f1565b604082019050919050565b600061132760158361152a565b915061133282611840565b602082019050919050565b600061134a60208361152a565b915061135582611869565b602082019050919050565b600061136d60148361152a565b915061137882611892565b602082019050919050565b61138c81611698565b82525050565b6113a361139e82611698565b611742565b82525050565b60006113b58285611275565b6014820191506113c58284611392565b6020820191508190509392505050565b60006020820190506113ea6000830184611266565b92915050565b60006040820190506114056000830185611266565b6114126020830184611383565b9392505050565b600060208201905061142e600083018461128c565b92915050565b6000604082019050818103600083015261144e818561129b565b905061145d6020830184611383565b9392505050565b6000602082019050818103600083015261147d816112d4565b9050919050565b6000602082019050818103600083015261149d816112f7565b9050919050565b600060208201905081810360008301526114bd8161131a565b9050919050565b600060208201905081810360008301526114dd8161133d565b9050919050565b600060208201905081810360008301526114fd81611360565b9050919050565b60006020820190506115196000830184611383565b92915050565b600081519050919050565b600082825260208201905092915050565b600061154682611698565b915061155183611698565b9250827fffffffffffffffffffffffffffffffffffffffffffffffffffffffffffffffff038211156115865761158561174c565b5b828201905092915050565b600061159c82611698565b91506115a783611698565b9250826115b7576115b661177b565b5b828204905092915050565b60006115cd82611698565b91506115d883611698565b9250817fffffffffffffffffffffffffffffffffffffffffffffffffffffffffffffffff04831182151516156116115761161061174c565b5b828202905092915050565b600061162782611698565b915061163283611698565b9250828210156116455761164461174c565b5b828203905092915050565b600061165b82611678565b9050919050565b60008115159050919050565b6000819050919050565b600073ffffffffffffffffffffffffffffffffffffffff82169050919050565b6000819050919050565b60005b838110156116c05780820151818401526020810190506116a5565b838111156116cf576000848401525b50505050565b60006116e082611698565b91507fffffffffffffffffffffffffffffffffffffffffffffffffffffffffffffffff8214156117135761171261174c565b5b600182019050919050565b600061172982611730565b9050919050565b600061173b826117bb565b9050919050565b6000819050919050565b7f4e487b7100000000000000000000000000000000000000000000000000000000600052601160045260246000fd5b7f4e487b7100000000000000000000000000000000000000000000000000000000600052601260045260246000fd5b6000601f19601f8301169050919050565b60008160601b9050919050565b7f43616e6e6f7420636c61696d206e6f7721000000000000000000000000000000600082015250565b7f4f776e61626c653a206e6577206f776e657220697320746865207a65726f206160008201527f6464726573730000000000000000000000000000000000000000000000000000602082015250565b7f6e6f7468696e67206c65667420746f20636c61696d0000000000000000000000600082015250565b7f4f776e61626c653a2063616c6c6572206973206e6f7420746865206f776e6572600082015250565b7f496e76616c6964206d65726b6c652070726f6f66000000000000000000000000600082015250565b6118c481611650565b81146118cf57600080fd5b50565b6118db81611662565b81146118e657600080fd5b50565b6118f28161166e565b81146118fd57600080fd5b50565b61190981611698565b811461191457600080fd5b5056fea264697066735822122027034fc19979c4493e1a9057f12f6207fc23eb54545720fd70689f08893b41ac64736f6c63430008040033",
  "linkReferences": {},
  "deployedLinkReferences": {}
}