{
  "_format": "hh-sol-artifact-1",
  "contractName": "BeFitterBoxShop",
  "sourceName": "contracts/BFBoxShop.sol",
  "abi": [
    {
      "inputs": [
        {
          "internalType": "contract IERC721",
          "name": "boxAddress",
          "type": "address"
        },
        {
          "internalType": "address",
          "name": "shopWallet",
          "type": "address"
        }
      ],
      "stateMutability": "nonpayable",
      "type": "constructor"
    },
    {
      "anonymous": false,
      "inputs": [
        {
          "indexed": true,
          "internalType": "address",
          "name": "purchaser",
          "type": "address"
        },
        {
          "indexed": true,
          "internalType": "address",
          "name": "tokenAddress",
          "type": "address"
        },
        {
          "indexed": false,
          "internalType": "uint256",
          "name": "boxId",
          "type": "uint256"
        },
        {
          "indexed": false,
          "internalType": "uint256",
          "name": "price",
          "type": "uint256"
        }
      ],
      "name": "BoxPurchased",
      "type": "event"
    },
    {
      "anonymous": false,
      "inputs": [
        {
          "indexed": true,
          "internalType": "address",
          "name": "previousOwner",
          "type": "address"
        },
        {
          "indexed": true,
          "internalType": "address",
          "name": "newOwner",
          "type": "address"
        }
      ],
      "name": "OwnershipTransferred",
      "type": "event"
    },
    {
      "inputs": [],
      "name": "closeShop",
      "outputs": [],
      "stateMutability": "nonpayable",
      "type": "function"
    },
    {
      "inputs": [
        {
          "internalType": "string",
          "name": "boxType",
          "type": "string"
        }
      ],
      "name": "getAvailableBox",
      "outputs": [
        {
          "internalType": "uint256",
          "name": "",
          "type": "uint256"
        }
      ],
      "stateMutability": "view",
      "type": "function"
    },
    {
      "inputs": [
        {
          "internalType": "string",
          "name": "boxType",
          "type": "string"
        },
        {
          "internalType": "address",
          "name": "tokenAddress",
          "type": "address"
        }
      ],
      "name": "getBoxPrice",
      "outputs": [
        {
          "internalType": "uint256",
          "name": "",
          "type": "uint256"
        }
      ],
      "stateMutability": "view",
      "type": "function"
    },
    {
      "inputs": [
        {
          "internalType": "string",
          "name": "boxType",
          "type": "string"
        }
      ],
      "name": "getMaxPurchasableBoxes",
      "outputs": [
        {
          "internalType": "uint256",
          "name": "",
          "type": "uint256"
        }
      ],
      "stateMutability": "view",
      "type": "function"
    },
    {
      "inputs": [],
      "name": "getShopWallet",
      "outputs": [
        {
          "internalType": "address",
          "name": "",
          "type": "address"
        }
      ],
      "stateMutability": "view",
      "type": "function"
    },
    {
      "inputs": [
        {
          "internalType": "address",
          "name": "operator",
          "type": "address"
        }
      ],
      "name": "isOperator",
      "outputs": [
        {
          "internalType": "bool",
          "name": "",
          "type": "bool"
        }
      ],
      "stateMutability": "view",
      "type": "function"
    },
    {
      "inputs": [
        {
          "internalType": "string",
          "name": "boxType",
          "type": "string"
        },
        {
          "internalType": "uint256",
          "name": "startId",
          "type": "uint256"
        },
        {
          "internalType": "uint256",
          "name": "quantity",
          "type": "uint256"
        }
      ],
      "name": "listItemForSale",
      "outputs": [],
      "stateMutability": "nonpayable",
      "type": "function"
    },
    {
      "inputs": [
        {
          "internalType": "address",
          "name": "",
          "type": "address"
        },
        {
          "internalType": "address",
          "name": "",
          "type": "address"
        },
        {
          "internalType": "uint256",
          "name": "",
          "type": "uint256"
        },
        {
          "internalType": "bytes",
          "name": "",
          "type": "bytes"
        }
      ],
      "name": "onERC721Received",
      "outputs": [
        {
          "internalType": "bytes4",
          "name": "",
          "type": "bytes4"
        }
      ],
      "stateMutability": "nonpayable",
      "type": "function"
    },
    {
      "inputs": [],
      "name": "openShop",
      "outputs": [],
      "stateMutability": "nonpayable",
      "type": "function"
    },
    {
      "inputs": [],
      "name": "owner",
      "outputs": [
        {
          "internalType": "address",
          "name": "",
          "type": "address"
        }
      ],
      "stateMutability": "view",
      "type": "function"
    },
    {
      "inputs": [
        {
          "internalType": "string",
          "name": "boxType",
          "type": "string"
        },
        {
          "internalType": "address",
          "name": "tokenAddress",
          "type": "address"
        }
      ],
      "name": "purchaseBoxByToken",
      "outputs": [],
      "stateMutability": "nonpayable",
      "type": "function"
    },
    {
      "inputs": [
        {
          "internalType": "address",
          "name": "operator",
          "type": "address"
        }
      ],
      "name": "removeOperator",
      "outputs": [],
      "stateMutability": "nonpayable",
      "type": "function"
    },
    {
      "inputs": [],
      "name": "renounceOwnership",
      "outputs": [],
      "stateMutability": "nonpayable",
      "type": "function"
    },
    {
      "inputs": [
        {
          "internalType": "string",
          "name": "boxType",
          "type": "string"
        },
        {
          "internalType": "uint256",
          "name": "quantity",
          "type": "uint256"
        }
      ],
      "name": "setMaxPurchasableBoxes",
      "outputs": [],
      "stateMutability": "nonpayable",
      "type": "function"
    },
    {
      "inputs": [
        {
          "internalType": "address",
          "name": "operator",
          "type": "address"
        }
      ],
      "name": "setOperator",
      "outputs": [],
      "stateMutability": "nonpayable",
      "type": "function"
    },
    {
      "inputs": [
        {
          "internalType": "string",
          "name": "boxType",
          "type": "string"
        },
        {
          "internalType": "address",
          "name": "tokenAddress",
          "type": "address"
        },
        {
          "internalType": "uint256",
          "name": "price",
          "type": "uint256"
        }
      ],
      "name": "setPrice",
      "outputs": [],
      "stateMutability": "nonpayable",
      "type": "function"
    },
    {
      "inputs": [
        {
          "internalType": "address",
          "name": "wallet",
          "type": "address"
        }
      ],
      "name": "setShopWallet",
      "outputs": [],
      "stateMutability": "nonpayable",
      "type": "function"
    },
    {
      "inputs": [
        {
          "internalType": "address",
          "name": "newOwner",
          "type": "address"
        }
      ],
      "name": "transferOwnership",
      "outputs": [],
      "stateMutability": "nonpayable",
      "type": "function"
    }
  ],
  "bytecode": "0x60806040523480156200001157600080fd5b506040516200220a3803806200220a8339818101604052810190620000379190620002a4565b620000576200004b620001aa60201b60201c565b620001b260201b60201c565b60018060003373ffffffffffffffffffffffffffffffffffffffff1673ffffffffffffffffffffffffffffffffffffffff16815260200190815260200160002060006101000a81548160ff02191690831515021790555081600260006101000a81548173ffffffffffffffffffffffffffffffffffffffff021916908373ffffffffffffffffffffffffffffffffffffffff16021790555060018060003373ffffffffffffffffffffffffffffffffffffffff1673ffffffffffffffffffffffffffffffffffffffff16815260200190815260200160002060006101000a81548160ff0219169083151502179055506000600260146101000a81548160ff02191690831515021790555080600360006101000a81548173ffffffffffffffffffffffffffffffffffffffff021916908373ffffffffffffffffffffffffffffffffffffffff160217905550505062000361565b600033905090565b60008060009054906101000a900473ffffffffffffffffffffffffffffffffffffffff169050816000806101000a81548173ffffffffffffffffffffffffffffffffffffffff021916908373ffffffffffffffffffffffffffffffffffffffff1602179055508173ffffffffffffffffffffffffffffffffffffffff168173ffffffffffffffffffffffffffffffffffffffff167f8be0079c531659141344cd1fd0a4f28419497f9722a3daafe3b4186f6b6457e060405160405180910390a35050565b60008151905062000287816200032d565b92915050565b6000815190506200029e8162000347565b92915050565b60008060408385031215620002b857600080fd5b6000620002c8858286016200028d565b9250506020620002db8582860162000276565b9150509250929050565b6000620002f2826200030d565b9050919050565b60006200030682620002e5565b9050919050565b600073ffffffffffffffffffffffffffffffffffffffff82169050919050565b6200033881620002e5565b81146200034457600080fd5b50565b6200035281620002f9565b81146200035e57600080fd5b50565b611e9980620003716000396000f3fe608060405234801561001057600080fd5b50600436106101165760003560e01c80639b6dbc8a116100a2578063b3be3e6f11610071578063b3be3e6f146102a3578063c2e095c1146102bf578063d3c78e3e146102db578063f2fde38b146102f9578063f69d8b6f1461031557610116565b80639b6dbc8a14610257578063a6f5a22b14610261578063ac8a584a1461026b578063b3ab15fb1461028757610116565b806349956265116100e957806349956265146101c75780636d70f7ae146101e3578063715018a6146102135780638da5cb5b1461021d578063900d65be1461023b57610116565b80630ca952671461011b578063150b7a02146101375780631eaa0458146101675780634531dd3914610197575b600080fd5b61013560048036038101906101309190611436565b610345565b005b610151600480360381019061014c919061145f565b610391565b60405161015e91906118c3565b60405180910390f35b610181600480360381019061017c9190611544565b6103a5565b60405161018e91906119de565b60405180910390f35b6101b160048036038101906101ac9190611503565b6104a3565b6040516101be91906119de565b60405180910390f35b6101e160048036038101906101dc9190611653565b6104cb565b005b6101fd60048036038101906101f89190611436565b6106e4565b60405161020a91906118a8565b60405180910390f35b61021b61073a565b005b61022561074e565b6040516102329190611856565b60405180910390f35b61025560048036038101906102509190611544565b610777565b005b61025f610cb1565b005b610269610d5a565b005b61028560048036038101906102809190611436565b610e03565b005b6102a1600480360381019061029c9190611436565b610e66565b005b6102bd60048036038101906102b89190611598565b610ec8565b005b6102d960048036038101906102d491906115ff565b611054565b005b6102e3611107565b6040516102f09190611856565b60405180910390f35b610313600480360381019061030e9190611436565b611131565b005b61032f600480360381019061032a9190611503565b6111b5565b60405161033c91906119de565b60405180910390f35b61034d6111dd565b80600360006101000a81548173ffffffffffffffffffffffffffffffffffffffff021916908373ffffffffffffffffffffffffffffffffffffffff16021790555050565b600063150b7a0260e01b9050949350505050565b60008073ffffffffffffffffffffffffffffffffffffffff168273ffffffffffffffffffffffffffffffffffffffff16141561043e576004836040516103eb919061183f565b908152602001604051809103902060008073ffffffffffffffffffffffffffffffffffffffff1673ffffffffffffffffffffffffffffffffffffffff16815260200190815260200160002054905061049d565b60048360405161044e919061183f565b908152602001604051809103902060008373ffffffffffffffffffffffffffffffffffffffff1673ffffffffffffffffffffffffffffffffffffffff1681526020019081526020016000205490505b92915050565b60006007826040516104b5919061183f565b9081526020016040518091039020549050919050565b600160003373ffffffffffffffffffffffffffffffffffffffff1673ffffffffffffffffffffffffffffffffffffffff16815260200190815260200160002060009054906101000a900460ff16610557576040517f08c379a000000000000000000000000000000000000000000000000000000000815260040161054e9061193e565b60405180910390fd5b6000811161059a576040517f08c379a00000000000000000000000000000000000000000000000000000000081526004016105919061197e565b60405180910390fd5b806005846040516105ab919061183f565b908152602001604051809103902081905550816006846040516105ce919061183f565b9081526020016040518091039020600060038110610615577f4e487b7100000000000000000000000000000000000000000000000000000000600052603260045260246000fd5b018190555080826106269190611ad0565b600684604051610636919061183f565b908152602001604051809103902060016003811061067d577f4e487b7100000000000000000000000000000000000000000000000000000000600052603260045260246000fd5b018190555081600684604051610693919061183f565b90815260200160405180910390206002600381106106da577f4e487b7100000000000000000000000000000000000000000000000000000000600052603260045260246000fd5b0181905550505050565b6000600160008373ffffffffffffffffffffffffffffffffffffffff1673ffffffffffffffffffffffffffffffffffffffff16815260200190815260200160002060009054906101000a900460ff169050919050565b6107426111dd565b61074c600061125b565b565b60008060009054906101000a900473ffffffffffffffffffffffffffffffffffffffff16905090565b600260149054906101000a900460ff166107c6576040517f08c379a00000000000000000000000000000000000000000000000000000000081526004016107bd906118fe565b60405180910390fd5b60006005836040516107d8919061183f565b90815260200160405180910390205411610827576040517f08c379a000000000000000000000000000000000000000000000000000000000815260040161081e9061191e565b60405180910390fd5b6000600483604051610839919061183f565b908152602001604051809103902060008373ffffffffffffffffffffffffffffffffffffffff1673ffffffffffffffffffffffffffffffffffffffff168152602001908152602001600020549050600081116108ca576040517f08c379a00000000000000000000000000000000000000000000000000000000081526004016108c19061199e565b60405180910390fd5b6007836040516108da919061183f565b908152602001604051809103902054600860003373ffffffffffffffffffffffffffffffffffffffff1673ffffffffffffffffffffffffffffffffffffffff16815260200190815260200160002084604051610936919061183f565b90815260200160405180910390205410610985576040517f08c379a000000000000000000000000000000000000000000000000000000000815260040161097c906119be565b60405180910390fd5b6000600684604051610997919061183f565b90815260200160405180910390206002600381106109de577f4e487b7100000000000000000000000000000000000000000000000000000000600052603260045260246000fd5b0154905060016005856040516109f4919061183f565b90815260200160405180910390206000828254610a119190611b26565b925050819055506001600685604051610a2a919061183f565b9081526020016040518091039020600260038110610a71577f4e487b7100000000000000000000000000000000000000000000000000000000600052603260045260246000fd5b016000828254610a819190611ad0565b925050819055506001600860003373ffffffffffffffffffffffffffffffffffffffff1673ffffffffffffffffffffffffffffffffffffffff16815260200190815260200160002085604051610ad7919061183f565b90815260200160405180910390206000828254610af49190611ad0565b9250508190555060008390508073ffffffffffffffffffffffffffffffffffffffff166323b872dd33600360009054906101000a900473ffffffffffffffffffffffffffffffffffffffff16866040518463ffffffff1660e01b8152600401610b5f93929190611871565b602060405180830381600087803b158015610b7957600080fd5b505af1158015610b8d573d6000803e3d6000fd5b505050506040513d601f19601f82011682018060405250810190610bb191906114da565b50600260009054906101000a900473ffffffffffffffffffffffffffffffffffffffff1673ffffffffffffffffffffffffffffffffffffffff166342842e0e3033856040518463ffffffff1660e01b8152600401610c1193929190611871565b600060405180830381600087803b158015610c2b57600080fd5b505af1158015610c3f573d6000803e3d6000fd5b505050508373ffffffffffffffffffffffffffffffffffffffff163373ffffffffffffffffffffffffffffffffffffffff167f765e87835f3b12cf5363a474d6ad548a4c1efcb979a38fa1ce8ae73403c0e52a8486604051610ca29291906119f9565b60405180910390a35050505050565b600160003373ffffffffffffffffffffffffffffffffffffffff1673ffffffffffffffffffffffffffffffffffffffff16815260200190815260200160002060009054906101000a900460ff16610d3d576040517f08c379a0000000000000000000000000000000000000000000000000000000008152600401610d349061193e565b60405180910390fd5b6000600260146101000a81548160ff021916908315150217905550565b600160003373ffffffffffffffffffffffffffffffffffffffff1673ffffffffffffffffffffffffffffffffffffffff16815260200190815260200160002060009054906101000a900460ff16610de6576040517f08c379a0000000000000000000000000000000000000000000000000000000008152600401610ddd9061193e565b60405180910390fd5b6001600260146101000a81548160ff021916908315150217905550565b610e0b6111dd565b6000600160008373ffffffffffffffffffffffffffffffffffffffff1673ffffffffffffffffffffffffffffffffffffffff16815260200190815260200160002060006101000a81548160ff02191690831515021790555050565b610e6e6111dd565b60018060008373ffffffffffffffffffffffffffffffffffffffff1673ffffffffffffffffffffffffffffffffffffffff16815260200190815260200160002060006101000a81548160ff02191690831515021790555050565b600160003373ffffffffffffffffffffffffffffffffffffffff1673ffffffffffffffffffffffffffffffffffffffff16815260200190815260200160002060009054906101000a900460ff16610f54576040517f08c379a0000000000000000000000000000000000000000000000000000000008152600401610f4b9061193e565b60405180910390fd5b600073ffffffffffffffffffffffffffffffffffffffff168273ffffffffffffffffffffffffffffffffffffffff161415610fee5780600484604051610f9a919061183f565b908152602001604051809103902060008073ffffffffffffffffffffffffffffffffffffffff1673ffffffffffffffffffffffffffffffffffffffff1681526020019081526020016000208190555061104f565b80600484604051610fff919061183f565b908152602001604051809103902060008473ffffffffffffffffffffffffffffffffffffffff1673ffffffffffffffffffffffffffffffffffffffff168152602001908152602001600020819055505b505050565b600160003373ffffffffffffffffffffffffffffffffffffffff1673ffffffffffffffffffffffffffffffffffffffff16815260200190815260200160002060009054906101000a900460ff166110e0576040517f08c379a00000000000000000000000000000000000000000000000000000000081526004016110d79061193e565b60405180910390fd5b806007836040516110f1919061183f565b9081526020016040518091039020819055505050565b6000600360009054906101000a900473ffffffffffffffffffffffffffffffffffffffff16905090565b6111396111dd565b600073ffffffffffffffffffffffffffffffffffffffff168173ffffffffffffffffffffffffffffffffffffffff1614156111a9576040517f08c379a00000000000000000000000000000000000000000000000000000000081526004016111a0906118de565b60405180910390fd5b6111b28161125b565b50565b60006005826040516111c7919061183f565b9081526020016040518091039020549050919050565b6111e561131f565b73ffffffffffffffffffffffffffffffffffffffff1661120361074e565b73ffffffffffffffffffffffffffffffffffffffff1614611259576040517f08c379a00000000000000000000000000000000000000000000000000000000081526004016112509061195e565b60405180910390fd5b565b60008060009054906101000a900473ffffffffffffffffffffffffffffffffffffffff169050816000806101000a81548173ffffffffffffffffffffffffffffffffffffffff021916908373ffffffffffffffffffffffffffffffffffffffff1602179055508173ffffffffffffffffffffffffffffffffffffffff168173ffffffffffffffffffffffffffffffffffffffff167f8be0079c531659141344cd1fd0a4f28419497f9722a3daafe3b4186f6b6457e060405160405180910390a35050565b600033905090565b600061133a61133584611a47565b611a22565b90508281526020810184848401111561135257600080fd5b61135d848285611bce565b509392505050565b600061137861137384611a78565b611a22565b90508281526020810184848401111561139057600080fd5b61139b848285611bce565b509392505050565b6000813590506113b281611e1e565b92915050565b6000815190506113c781611e35565b92915050565b600082601f8301126113de57600080fd5b81356113ee848260208601611327565b91505092915050565b600082601f83011261140857600080fd5b8135611418848260208601611365565b91505092915050565b60008135905061143081611e4c565b92915050565b60006020828403121561144857600080fd5b6000611456848285016113a3565b91505092915050565b6000806000806080858703121561147557600080fd5b6000611483878288016113a3565b9450506020611494878288016113a3565b93505060406114a587828801611421565b925050606085013567ffffffffffffffff8111156114c257600080fd5b6114ce878288016113cd565b91505092959194509250565b6000602082840312156114ec57600080fd5b60006114fa848285016113b8565b91505092915050565b60006020828403121561151557600080fd5b600082013567ffffffffffffffff81111561152f57600080fd5b61153b848285016113f7565b91505092915050565b6000806040838503121561155757600080fd5b600083013567ffffffffffffffff81111561157157600080fd5b61157d858286016113f7565b925050602061158e858286016113a3565b9150509250929050565b6000806000606084860312156115ad57600080fd5b600084013567ffffffffffffffff8111156115c757600080fd5b6115d3868287016113f7565b93505060206115e4868287016113a3565b92505060406115f586828701611421565b9150509250925092565b6000806040838503121561161257600080fd5b600083013567ffffffffffffffff81111561162c57600080fd5b611638858286016113f7565b925050602061164985828601611421565b9150509250929050565b60008060006060848603121561166857600080fd5b600084013567ffffffffffffffff81111561168257600080fd5b61168e868287016113f7565b935050602061169f86828701611421565b92505060406116b086828701611421565b9150509250925092565b6116c381611b5a565b82525050565b6116d281611b6c565b82525050565b6116e181611b78565b82525050565b60006116f282611aa9565b6116fc8185611ac5565b935061170c818560208601611bdd565b80840191505092915050565b6000611725602683611ab4565b915061173082611cb0565b604082019050919050565b6000611748601483611ab4565b915061175382611cff565b602082019050919050565b600061176b601883611ab4565b915061177682611d28565b602082019050919050565b600061178e601b83611ab4565b915061179982611d51565b602082019050919050565b60006117b1602083611ab4565b91506117bc82611d7a565b602082019050919050565b60006117d4601983611ab4565b91506117df82611da3565b602082019050919050565b60006117f7601683611ab4565b915061180282611dcc565b602082019050919050565b600061181a600f83611ab4565b915061182582611df5565b602082019050919050565b61183981611bc4565b82525050565b600061184b82846116e7565b915081905092915050565b600060208201905061186b60008301846116ba565b92915050565b600060608201905061188660008301866116ba565b61189360208301856116ba565b6118a06040830184611830565b949350505050565b60006020820190506118bd60008301846116c9565b92915050565b60006020820190506118d860008301846116d8565b92915050565b600060208201905081810360008301526118f781611718565b9050919050565b600060208201905081810360008301526119178161173b565b9050919050565b600060208201905081810360008301526119378161175e565b9050919050565b6000602082019050818103600083015261195781611781565b9050919050565b60006020820190508181036000830152611977816117a4565b9050919050565b60006020820190508181036000830152611997816117c7565b9050919050565b600060208201905081810360008301526119b7816117ea565b9050919050565b600060208201905081810360008301526119d78161180d565b9050919050565b60006020820190506119f36000830184611830565b92915050565b6000604082019050611a0e6000830185611830565b611a1b6020830184611830565b9392505050565b6000611a2c611a3d565b9050611a388282611c10565b919050565b6000604051905090565b600067ffffffffffffffff821115611a6257611a61611c70565b5b611a6b82611c9f565b9050602081019050919050565b600067ffffffffffffffff821115611a9357611a92611c70565b5b611a9c82611c9f565b9050602081019050919050565b600081519050919050565b600082825260208201905092915050565b600081905092915050565b6000611adb82611bc4565b9150611ae683611bc4565b9250827fffffffffffffffffffffffffffffffffffffffffffffffffffffffffffffffff03821115611b1b57611b1a611c41565b5b828201905092915050565b6000611b3182611bc4565b9150611b3c83611bc4565b925082821015611b4f57611b4e611c41565b5b828203905092915050565b6000611b6582611ba4565b9050919050565b60008115159050919050565b60007fffffffff0000000000000000000000000000000000000000000000000000000082169050919050565b600073ffffffffffffffffffffffffffffffffffffffff82169050919050565b6000819050919050565b82818337600083830152505050565b60005b83811015611bfb578082015181840152602081019050611be0565b83811115611c0a576000848401525b50505050565b611c1982611c9f565b810181811067ffffffffffffffff82111715611c3857611c37611c70565b5b80604052505050565b7f4e487b7100000000000000000000000000000000000000000000000000000000600052601160045260246000fd5b7f4e487b7100000000000000000000000000000000000000000000000000000000600052604160045260246000fd5b6000601f19601f8301169050919050565b7f4f776e61626c653a206e6577206f776e657220697320746865207a65726f206160008201527f6464726573730000000000000000000000000000000000000000000000000000602082015250565b7f53686f7020697320636c6f73696e67206e6f7721000000000000000000000000600082015250565b7f626f7854797065206973206e6f7420617661696c61626c650000000000000000600082015250565b7f63616c6c6572206973206e6f7420746865206f70657261746f72730000000000600082015250565b7f4f776e61626c653a2063616c6c6572206973206e6f7420746865206f776e6572600082015250565b7f7175616e74697479206d757374206265206e6f6e2d7a65726f00000000000000600082015250565b7f7072696365206d757374206265206e6f6e2d7a65726f00000000000000000000600082015250565b7f43616e6e6f7420627579206d6f72650000000000000000000000000000000000600082015250565b611e2781611b5a565b8114611e3257600080fd5b50565b611e3e81611b6c565b8114611e4957600080fd5b50565b611e5581611bc4565b8114611e6057600080fd5b5056fea264697066735822122092cc7c9c35d8e36d1c2e45585917a179b197733203d0efa43962560f704a1a1464736f6c63430008040033",
  "linkReferences": {},
  "deployedLinkReferences": {}
}