{
  "_format": "hh-sol-artifact-1",
  "contractName": "BeFitterBox",
  "sourceName": "contracts/BeFitterBox.sol",
  "abi": [
    {
      "inputs": [],
      "stateMutability": "nonpayable",
      "type": "constructor"
    },
    {
      "anonymous": false,
      "inputs": [
        {
          "indexed": true,
          "internalType": "address",
          "name": "owner",
          "type": "address"
        },
        {
          "indexed": true,
          "internalType": "address",
          "name": "approved",
          "type": "address"
        },
        {
          "indexed": true,
          "internalType": "uint256",
          "name": "tokenId",
          "type": "uint256"
        }
      ],
      "name": "Approval",
      "type": "event"
    },
    {
      "anonymous": false,
      "inputs": [
        {
          "indexed": true,
          "internalType": "address",
          "name": "owner",
          "type": "address"
        },
        {
          "indexed": true,
          "internalType": "address",
          "name": "operator",
          "type": "address"
        },
        {
          "indexed": false,
          "internalType": "bool",
          "name": "approved",
          "type": "bool"
        }
      ],
      "name": "ApprovalForAll",
      "type": "event"
    },
    {
      "anonymous": false,
      "inputs": [
        {
          "indexed": true,
          "internalType": "address",
          "name": "to",
          "type": "address"
        },
        {
          "indexed": false,
          "internalType": "uint256",
          "name": "tokenId",
          "type": "uint256"
        }
      ],
      "name": "BoxMinted",
      "type": "event"
    },
    {
      "anonymous": false,
      "inputs": [
        {
          "indexed": true,
          "internalType": "address",
          "name": "from",
          "type": "address"
        },
        {
          "indexed": true,
          "internalType": "address",
          "name": "to",
          "type": "address"
        },
        {
          "indexed": false,
          "internalType": "uint256",
          "name": "boxId",
          "type": "uint256"
        }
      ],
      "name": "BoxTransferred",
      "type": "event"
    },
    {
      "anonymous": false,
      "inputs": [
        {
          "indexed": true,
          "internalType": "address",
          "name": "previousOwner",
          "type": "address"
        },
        {
          "indexed": true,
          "internalType": "address",
          "name": "newOwner",
          "type": "address"
        }
      ],
      "name": "OwnershipTransferred",
      "type": "event"
    },
    {
      "anonymous": false,
      "inputs": [
        {
          "indexed": true,
          "internalType": "address",
          "name": "from",
          "type": "address"
        },
        {
          "indexed": true,
          "internalType": "address",
          "name": "to",
          "type": "address"
        },
        {
          "indexed": true,
          "internalType": "uint256",
          "name": "tokenId",
          "type": "uint256"
        }
      ],
      "name": "Transfer",
      "type": "event"
    },
    {
      "inputs": [
        {
          "internalType": "address",
          "name": "to",
          "type": "address"
        },
        {
          "internalType": "uint256",
          "name": "tokenId",
          "type": "uint256"
        }
      ],
      "name": "approve",
      "outputs": [],
      "stateMutability": "nonpayable",
      "type": "function"
    },
    {
      "inputs": [
        {
          "internalType": "address",
          "name": "owner",
          "type": "address"
        }
      ],
      "name": "balanceOf",
      "outputs": [
        {
          "internalType": "uint256",
          "name": "",
          "type": "uint256"
        }
      ],
      "stateMutability": "view",
      "type": "function"
    },
    {
      "inputs": [
        {
          "internalType": "uint256",
          "name": "tokenId",
          "type": "uint256"
        }
      ],
      "name": "getApproved",
      "outputs": [
        {
          "internalType": "address",
          "name": "",
          "type": "address"
        }
      ],
      "stateMutability": "view",
      "type": "function"
    },
    {
      "inputs": [
        {
          "internalType": "uint256",
          "name": "boxId",
          "type": "uint256"
        }
      ],
      "name": "getBoxType",
      "outputs": [
        {
          "internalType": "string",
          "name": "",
          "type": "string"
        }
      ],
      "stateMutability": "view",
      "type": "function"
    },
    {
      "inputs": [
        {
          "internalType": "address",
          "name": "owner",
          "type": "address"
        }
      ],
      "name": "getOwnedTokens",
      "outputs": [
        {
          "internalType": "bytes32[]",
          "name": "",
          "type": "bytes32[]"
        }
      ],
      "stateMutability": "view",
      "type": "function"
    },
    {
      "inputs": [
        {
          "internalType": "address",
          "name": "owner",
          "type": "address"
        },
        {
          "internalType": "address",
          "name": "operator",
          "type": "address"
        }
      ],
      "name": "isApprovedForAll",
      "outputs": [
        {
          "internalType": "bool",
          "name": "",
          "type": "bool"
        }
      ],
      "stateMutability": "view",
      "type": "function"
    },
    {
      "inputs": [
        {
          "internalType": "address",
          "name": "to",
          "type": "address"
        },
        {
          "internalType": "string",
          "name": "boxType",
          "type": "string"
        }
      ],
      "name": "mint",
      "outputs": [],
      "stateMutability": "nonpayable",
      "type": "function"
    },
    {
      "inputs": [],
      "name": "name",
      "outputs": [
        {
          "internalType": "string",
          "name": "",
          "type": "string"
        }
      ],
      "stateMutability": "view",
      "type": "function"
    },
    {
      "inputs": [],
      "name": "owner",
      "outputs": [
        {
          "internalType": "address",
          "name": "",
          "type": "address"
        }
      ],
      "stateMutability": "view",
      "type": "function"
    },
    {
      "inputs": [
        {
          "internalType": "uint256",
          "name": "tokenId",
          "type": "uint256"
        }
      ],
      "name": "ownerOf",
      "outputs": [
        {
          "internalType": "address",
          "name": "",
          "type": "address"
        }
      ],
      "stateMutability": "view",
      "type": "function"
    },
    {
      "inputs": [],
      "name": "renounceOwnership",
      "outputs": [],
      "stateMutability": "nonpayable",
      "type": "function"
    },
    {
      "inputs": [
        {
          "internalType": "address",
          "name": "from",
          "type": "address"
        },
        {
          "internalType": "address",
          "name": "to",
          "type": "address"
        },
        {
          "internalType": "uint256",
          "name": "tokenId",
          "type": "uint256"
        }
      ],
      "name": "safeTransferFrom",
      "outputs": [],
      "stateMutability": "nonpayable",
      "type": "function"
    },
    {
      "inputs": [
        {
          "internalType": "address",
          "name": "from",
          "type": "address"
        },
        {
          "internalType": "address",
          "name": "to",
          "type": "address"
        },
        {
          "internalType": "uint256",
          "name": "tokenId",
          "type": "uint256"
        },
        {
          "internalType": "bytes",
          "name": "_data",
          "type": "bytes"
        }
      ],
      "name": "safeTransferFrom",
      "outputs": [],
      "stateMutability": "nonpayable",
      "type": "function"
    },
    {
      "inputs": [
        {
          "internalType": "address",
          "name": "operator",
          "type": "address"
        },
        {
          "internalType": "bool",
          "name": "approved",
          "type": "bool"
        }
      ],
      "name": "setApprovalForAll",
      "outputs": [],
      "stateMutability": "nonpayable",
      "type": "function"
    },
    {
      "inputs": [
        {
          "internalType": "string",
          "name": "baseURI",
          "type": "string"
        }
      ],
      "name": "setBaseTokenURI",
      "outputs": [],
      "stateMutability": "nonpayable",
      "type": "function"
    },
    {
      "inputs": [
        {
          "internalType": "address",
          "name": "operator",
          "type": "address"
        },
        {
          "internalType": "bool",
          "name": "approved",
          "type": "bool"
        }
      ],
      "name": "setOperator",
      "outputs": [],
      "stateMutability": "nonpayable",
      "type": "function"
    },
    {
      "inputs": [
        {
          "internalType": "bytes4",
          "name": "interfaceId",
          "type": "bytes4"
        }
      ],
      "name": "supportsInterface",
      "outputs": [
        {
          "internalType": "bool",
          "name": "",
          "type": "bool"
        }
      ],
      "stateMutability": "view",
      "type": "function"
    },
    {
      "inputs": [],
      "name": "symbol",
      "outputs": [
        {
          "internalType": "string",
          "name": "",
          "type": "string"
        }
      ],
      "stateMutability": "view",
      "type": "function"
    },
    {
      "inputs": [
        {
          "internalType": "uint256",
          "name": "tokenId",
          "type": "uint256"
        }
      ],
      "name": "tokenURI",
      "outputs": [
        {
          "internalType": "string",
          "name": "",
          "type": "string"
        }
      ],
      "stateMutability": "view",
      "type": "function"
    },
    {
      "inputs": [
        {
          "internalType": "address",
          "name": "from",
          "type": "address"
        },
        {
          "internalType": "address",
          "name": "to",
          "type": "address"
        },
        {
          "internalType": "uint256",
          "name": "tokenId",
          "type": "uint256"
        }
      ],
      "name": "transferFrom",
      "outputs": [],
      "stateMutability": "nonpayable",
      "type": "function"
    },
    {
      "inputs": [
        {
          "internalType": "address",
          "name": "newOwner",
          "type": "address"
        }
      ],
      "name": "transferOwnership",
      "outputs": [],
      "stateMutability": "nonpayable",
      "type": "function"
    }
  ],
  "bytecode": "0x60806040523480156200001157600080fd5b506040518060400160405280600b81526020017f4265466974746572426f780000000000000000000000000000000000000000008152506040518060400160405280600381526020017f4246420000000000000000000000000000000000000000000000000000000000815250816000908051906020019062000096929190620001a6565b508060019080519060200190620000af929190620001a6565b505050620000d2620000c6620000d860201b60201c565b620000e060201b60201c565b620002bb565b600033905090565b6000600760009054906101000a900473ffffffffffffffffffffffffffffffffffffffff16905081600760006101000a81548173ffffffffffffffffffffffffffffffffffffffff021916908373ffffffffffffffffffffffffffffffffffffffff1602179055508173ffffffffffffffffffffffffffffffffffffffff168173ffffffffffffffffffffffffffffffffffffffff167f8be0079c531659141344cd1fd0a4f28419497f9722a3daafe3b4186f6b6457e060405160405180910390a35050565b828054620001b49062000256565b90600052602060002090601f016020900481019282620001d8576000855562000224565b82601f10620001f357805160ff191683800117855562000224565b8280016001018555821562000224579182015b828111156200022357825182559160200191906001019062000206565b5b50905062000233919062000237565b5090565b5b808211156200025257600081600090555060010162000238565b5090565b600060028204905060018216806200026f57607f821691505b602082108114156200028657620002856200028c565b5b50919050565b7f4e487b7100000000000000000000000000000000000000000000000000000000600052602260045260246000fd5b61393680620002cb6000396000f3fe608060405234801561001057600080fd5b50600436106101375760003560e01c8063715018a6116100b8578063b88d4fde1161007c578063b88d4fde14610338578063c87b56dd14610354578063d0def52114610384578063d9d61655146103a0578063e985e9c5146103d0578063f2fde38b1461040057610137565b8063715018a6146102a65780638da5cb5b146102b057806395d89b41146102ce578063a22cb465146102ec578063b546a3bc1461030857610137565b806330176e13116100ff57806330176e13146101f257806342842e0e1461020e578063558a72971461022a5780636352211e1461024657806370a082311461027657610137565b806301ffc9a71461013c57806306fdde031461016c578063081812fc1461018a578063095ea7b3146101ba57806323b872dd146101d6575b600080fd5b610156600480360381019061015191906127d6565b61041c565b6040516101639190612d0a565b60405180910390f35b6101746104fe565b6040516101819190612d25565b60405180910390f35b6101a4600480360381019061019f9190612869565b610590565b6040516101b19190612c81565b60405180910390f35b6101d460048036038101906101cf919061279a565b610615565b005b6101f060048036038101906101eb9190612640565b61072d565b005b61020c60048036038101906102079190612828565b61078d565b005b61022860048036038101906102239190612640565b610833565b005b610244600480360381019061023f919061270a565b610853565b005b610260600480360381019061025b9190612869565b61092a565b60405161026d9190612c81565b60405180910390f35b610290600480360381019061028b91906125db565b6109dc565b60405161029d9190612fb7565b60405180910390f35b6102ae610a94565b005b6102b8610b1c565b6040516102c59190612c81565b60405180910390f35b6102d6610b46565b6040516102e39190612d25565b60405180910390f35b6103066004803603810190610301919061270a565b610bd8565b005b610322600480360381019061031d9190612869565b610bee565b60405161032f9190612d25565b60405180910390f35b610352600480360381019061034d919061268f565b610ce0565b005b61036e60048036038101906103699190612869565b610d42565b60405161037b9190612d25565b60405180910390f35b61039e60048036038101906103999190612746565b610de9565b005b6103ba60048036038101906103b591906125db565b610f51565b6040516103c79190612ce8565b60405180910390f35b6103ea60048036038101906103e59190612604565b610fee565b6040516103f79190612d0a565b60405180910390f35b61041a600480360381019061041591906125db565b611082565b005b60007f80ac58cd000000000000000000000000000000000000000000000000000000007bffffffffffffffffffffffffffffffffffffffffffffffffffffffff1916827bffffffffffffffffffffffffffffffffffffffffffffffffffffffff191614806104e757507f5b5e139f000000000000000000000000000000000000000000000000000000007bffffffffffffffffffffffffffffffffffffffffffffffffffffffff1916827bffffffffffffffffffffffffffffffffffffffffffffffffffffffff1916145b806104f757506104f68261117a565b5b9050919050565b60606000805461050d90613250565b80601f016020809104026020016040519081016040528092919081815260200182805461053990613250565b80156105865780601f1061055b57610100808354040283529160200191610586565b820191906000526020600020905b81548152906001019060200180831161056957829003601f168201915b5050505050905090565b600061059b826111e4565b6105da576040517f08c379a00000000000000000000000000000000000000000000000000000000081526004016105d190612ed7565b60405180910390fd5b6004600083815260200190815260200160002060009054906101000a900473ffffffffffffffffffffffffffffffffffffffff169050919050565b60006106208261092a565b90508073ffffffffffffffffffffffffffffffffffffffff168373ffffffffffffffffffffffffffffffffffffffff161415610691576040517f08c379a000000000000000000000000000000000000000000000000000000000815260040161068890612f37565b60405180910390fd5b8073ffffffffffffffffffffffffffffffffffffffff166106b0611250565b73ffffffffffffffffffffffffffffffffffffffff1614806106df57506106de816106d9611250565b610fee565b5b61071e576040517f08c379a000000000000000000000000000000000000000000000000000000000815260040161071590612e57565b60405180910390fd5b6107288383611258565b505050565b61073e610738611250565b82611311565b61077d576040517f08c379a000000000000000000000000000000000000000000000000000000000815260040161077490612f57565b60405180910390fd5b6107888383836113ef565b505050565b600b60003373ffffffffffffffffffffffffffffffffffffffff1673ffffffffffffffffffffffffffffffffffffffff16815260200190815260200160002060009054906101000a900460ff16610819576040517f08c379a000000000000000000000000000000000000000000000000000000000815260040161081090612f77565b60405180910390fd5b806009908051906020019061082f9291906123ff565b5050565b61084e83838360405180602001604052806000815250610ce0565b505050565b61085b611250565b73ffffffffffffffffffffffffffffffffffffffff16610879610b1c565b73ffffffffffffffffffffffffffffffffffffffff16146108cf576040517f08c379a00000000000000000000000000000000000000000000000000000000081526004016108c690612ef7565b60405180910390fd5b80600b60008473ffffffffffffffffffffffffffffffffffffffff1673ffffffffffffffffffffffffffffffffffffffff16815260200190815260200160002060006101000a81548160ff0219169083151502179055505050565b6000806002600084815260200190815260200160002060009054906101000a900473ffffffffffffffffffffffffffffffffffffffff169050600073ffffffffffffffffffffffffffffffffffffffff168173ffffffffffffffffffffffffffffffffffffffff1614156109d3576040517f08c379a00000000000000000000000000000000000000000000000000000000081526004016109ca90612e97565b60405180910390fd5b80915050919050565b60008073ffffffffffffffffffffffffffffffffffffffff168273ffffffffffffffffffffffffffffffffffffffff161415610a4d576040517f08c379a0000000000000000000000000000000000000000000000000000000008152600401610a4490612e77565b60405180910390fd5b600360008373ffffffffffffffffffffffffffffffffffffffff1673ffffffffffffffffffffffffffffffffffffffff168152602001908152602001600020549050919050565b610a9c611250565b73ffffffffffffffffffffffffffffffffffffffff16610aba610b1c565b73ffffffffffffffffffffffffffffffffffffffff1614610b10576040517f08c379a0000000000000000000000000000000000000000000000000000000008152600401610b0790612ef7565b60405180910390fd5b610b1a6000611656565b565b6000600760009054906101000a900473ffffffffffffffffffffffffffffffffffffffff16905090565b606060018054610b5590613250565b80601f0160208091040260200160405190810160405280929190818152602001828054610b8190613250565b8015610bce5780601f10610ba357610100808354040283529160200191610bce565b820191906000526020600020905b815481529060010190602001808311610bb157829003601f168201915b5050505050905090565b610bea610be3611250565b838361171c565b5050565b606081610bfb6008611889565b8110610c3c576040517f08c379a0000000000000000000000000000000000000000000000000000000008152600401610c3390612f97565b60405180910390fd5b600a60008481526020019081526020016000208054610c5a90613250565b80601f0160208091040260200160405190810160405280929190818152602001828054610c8690613250565b8015610cd35780601f10610ca857610100808354040283529160200191610cd3565b820191906000526020600020905b815481529060010190602001808311610cb657829003601f168201915b5050505050915050919050565b610cf1610ceb611250565b83611311565b610d30576040517f08c379a0000000000000000000000000000000000000000000000000000000008152600401610d2790612f57565b60405180910390fd5b610d3c84848484611897565b50505050565b6060610d4d826111e4565b610d8c576040517f08c379a0000000000000000000000000000000000000000000000000000000008152600401610d8390612f17565b60405180910390fd5b6000610d966118f3565b90506000815111610db65760405180602001604052806000815250610de1565b80610dc084611985565b604051602001610dd1929190612c5d565b6040516020818303038152906040525b915050919050565b600b60003373ffffffffffffffffffffffffffffffffffffffff1673ffffffffffffffffffffffffffffffffffffffff16815260200190815260200160002060009054906101000a900460ff16610e75576040517f08c379a0000000000000000000000000000000000000000000000000000000008152600401610e6c90612f77565b60405180910390fd5b610eb46040518060400160405280601d81526020017f6d73672e73656e64657220696e206d696e742066756e6374696f6e3a2000000081525033611b32565b6000610ec06008611889565b9050610ecc8382611bce565b81600a60008381526020019081526020016000209080519060200190610ef39291906123ff565b50610efe6008611bec565b8273ffffffffffffffffffffffffffffffffffffffff167fcb924e9f1cd50e7b79d9a97711e1b4d1e18c588d56dc6acaea1909562248f92782604051610f449190612fb7565b60405180910390a2505050565b6060600660008373ffffffffffffffffffffffffffffffffffffffff1673ffffffffffffffffffffffffffffffffffffffff168152602001908152602001600020600001600001805480602002602001604051908101604052809291908181526020018280548015610fe257602002820191906000526020600020905b815481526020019060010190808311610fce575b50505050509050919050565b6000600560008473ffffffffffffffffffffffffffffffffffffffff1673ffffffffffffffffffffffffffffffffffffffff16815260200190815260200160002060008373ffffffffffffffffffffffffffffffffffffffff1673ffffffffffffffffffffffffffffffffffffffff16815260200190815260200160002060009054906101000a900460ff16905092915050565b61108a611250565b73ffffffffffffffffffffffffffffffffffffffff166110a8610b1c565b73ffffffffffffffffffffffffffffffffffffffff16146110fe576040517f08c379a00000000000000000000000000000000000000000000000000000000081526004016110f590612ef7565b60405180910390fd5b600073ffffffffffffffffffffffffffffffffffffffff168173ffffffffffffffffffffffffffffffffffffffff16141561116e576040517f08c379a000000000000000000000000000000000000000000000000000000000815260040161116590612d97565b60405180910390fd5b61117781611656565b50565b60007f01ffc9a7000000000000000000000000000000000000000000000000000000007bffffffffffffffffffffffffffffffffffffffffffffffffffffffff1916827bffffffffffffffffffffffffffffffffffffffffffffffffffffffff1916149050919050565b60008073ffffffffffffffffffffffffffffffffffffffff166002600084815260200190815260200160002060009054906101000a900473ffffffffffffffffffffffffffffffffffffffff1673ffffffffffffffffffffffffffffffffffffffff1614159050919050565b600033905090565b816004600083815260200190815260200160002060006101000a81548173ffffffffffffffffffffffffffffffffffffffff021916908373ffffffffffffffffffffffffffffffffffffffff160217905550808273ffffffffffffffffffffffffffffffffffffffff166112cb8361092a565b73ffffffffffffffffffffffffffffffffffffffff167f8c5be1e5ebec7d5bd14f71427d1e84f3dd0314c0f7b2291e5b200ac8c7c3b92560405160405180910390a45050565b600061131c826111e4565b61135b576040517f08c379a000000000000000000000000000000000000000000000000000000000815260040161135290612e37565b60405180910390fd5b60006113668361092a565b90508073ffffffffffffffffffffffffffffffffffffffff168473ffffffffffffffffffffffffffffffffffffffff1614806113a857506113a78185610fee565b5b806113e657508373ffffffffffffffffffffffffffffffffffffffff166113ce84610590565b73ffffffffffffffffffffffffffffffffffffffff16145b91505092915050565b8273ffffffffffffffffffffffffffffffffffffffff1661140f8261092a565b73ffffffffffffffffffffffffffffffffffffffff1614611465576040517f08c379a000000000000000000000000000000000000000000000000000000000815260040161145c90612db7565b60405180910390fd5b600073ffffffffffffffffffffffffffffffffffffffff168273ffffffffffffffffffffffffffffffffffffffff1614156114d5576040517f08c379a00000000000000000000000000000000000000000000000000000000081526004016114cc90612df7565b60405180910390fd5b6114e0838383611c02565b6114eb600082611258565b6001600360008573ffffffffffffffffffffffffffffffffffffffff1673ffffffffffffffffffffffffffffffffffffffff168152602001908152602001600020600082825461153b919061315c565b925050819055506001600360008473ffffffffffffffffffffffffffffffffffffffff1673ffffffffffffffffffffffffffffffffffffffff168152602001908152602001600020600082825461159291906130d5565b92505081905550816002600083815260200190815260200160002060006101000a81548173ffffffffffffffffffffffffffffffffffffffff021916908373ffffffffffffffffffffffffffffffffffffffff160217905550808273ffffffffffffffffffffffffffffffffffffffff168473ffffffffffffffffffffffffffffffffffffffff167fddf252ad1be2c89b69c2b068fc378daa952ba7f163c4a11628f55a4df523b3ef60405160405180910390a4611651838383611ce4565b505050565b6000600760009054906101000a900473ffffffffffffffffffffffffffffffffffffffff16905081600760006101000a81548173ffffffffffffffffffffffffffffffffffffffff021916908373ffffffffffffffffffffffffffffffffffffffff1602179055508173ffffffffffffffffffffffffffffffffffffffff168173ffffffffffffffffffffffffffffffffffffffff167f8be0079c531659141344cd1fd0a4f28419497f9722a3daafe3b4186f6b6457e060405160405180910390a35050565b8173ffffffffffffffffffffffffffffffffffffffff168373ffffffffffffffffffffffffffffffffffffffff16141561178b576040517f08c379a000000000000000000000000000000000000000000000000000000000815260040161178290612e17565b60405180910390fd5b80600560008573ffffffffffffffffffffffffffffffffffffffff1673ffffffffffffffffffffffffffffffffffffffff16815260200190815260200160002060008473ffffffffffffffffffffffffffffffffffffffff1673ffffffffffffffffffffffffffffffffffffffff16815260200190815260200160002060006101000a81548160ff0219169083151502179055508173ffffffffffffffffffffffffffffffffffffffff168373ffffffffffffffffffffffffffffffffffffffff167f17307eab39ab6107e8899845ad3d59bd9653f200f220920489ca2b5937696c318360405161187c9190612d0a565b60405180910390a3505050565b600081600001549050919050565b6118a28484846113ef565b6118ae84848484611ce9565b6118ed576040517f08c379a00000000000000000000000000000000000000000000000000000000081526004016118e490612d77565b60405180910390fd5b50505050565b60606009805461190290613250565b80601f016020809104026020016040519081016040528092919081815260200182805461192e90613250565b801561197b5780601f106119505761010080835404028352916020019161197b565b820191906000526020600020905b81548152906001019060200180831161195e57829003601f168201915b5050505050905090565b606060008214156119cd576040518060400160405280600181526020017f30000000000000000000000000000000000000000000000000000000000000008152509050611b2d565b600082905060005b600082146119ff5780806119e8906132b3565b915050600a826119f8919061312b565b91506119d5565b60008167ffffffffffffffff811115611a41577f4e487b7100000000000000000000000000000000000000000000000000000000600052604160045260246000fd5b6040519080825280601f01601f191660200182016040528015611a735781602001600182028036833780820191505090505b5090505b60008514611b2657600182611a8c919061315c565b9150600a85611a9b91906132fc565b6030611aa791906130d5565b60f81b818381518110611ae3577f4e487b7100000000000000000000000000000000000000000000000000000000600052603260045260246000fd5b60200101907effffffffffffffffffffffffffffffffffffffffffffffffffffffffffffff1916908160001a905350600a85611b1f919061312b565b9450611a77565b8093505050505b919050565b611bca8282604051602401611b48929190612d47565b6040516020818303038152906040527f319af333000000000000000000000000000000000000000000000000000000007bffffffffffffffffffffffffffffffffffffffffffffffffffffffff19166020820180517bffffffffffffffffffffffffffffffffffffffffffffffffffffffff8381831617835250505050611e80565b5050565b611be8828260405180602001604052806000815250611ea9565b5050565b6001816000016000828254019250508190555050565b611c0d838383611f04565b600073ffffffffffffffffffffffffffffffffffffffff168373ffffffffffffffffffffffffffffffffffffffff161415611c5157611c4c8282611f09565b611cdf565b600073ffffffffffffffffffffffffffffffffffffffff168273ffffffffffffffffffffffffffffffffffffffff161415611c9557611c908382611f5f565b611cde565b8173ffffffffffffffffffffffffffffffffffffffff168373ffffffffffffffffffffffffffffffffffffffff1614611cdd57611cd28282611f09565b611cdc8382611f5f565b5b5b5b505050565b505050565b6000611d0a8473ffffffffffffffffffffffffffffffffffffffff16611fb5565b15611e73578373ffffffffffffffffffffffffffffffffffffffff1663150b7a02611d33611250565b8786866040518563ffffffff1660e01b8152600401611d559493929190612c9c565b602060405180830381600087803b158015611d6f57600080fd5b505af1925050508015611da057506040513d601f19601f82011682018060405250810190611d9d91906127ff565b60015b611e23573d8060008114611dd0576040519150601f19603f3d011682016040523d82523d6000602084013e611dd5565b606091505b50600081511415611e1b576040517f08c379a0000000000000000000000000000000000000000000000000000000008152600401611e1290612d77565b60405180910390fd5b805181602001fd5b63150b7a0260e01b7bffffffffffffffffffffffffffffffffffffffffffffffffffffffff1916817bffffffffffffffffffffffffffffffffffffffffffffffffffffffff191614915050611e78565b600190505b949350505050565b60008151905060006a636f6e736f6c652e6c6f679050602083016000808483855afa5050505050565b611eb38383611fd8565b611ec06000848484611ce9565b611eff576040517f08c379a0000000000000000000000000000000000000000000000000000000008152600401611ef690612d77565b60405180910390fd5b505050565b505050565b611f5a81600660008573ffffffffffffffffffffffffffffffffffffffff1673ffffffffffffffffffffffffffffffffffffffff1681526020019081526020016000206121b290919063ffffffff16565b505050565b611fb081600660008573ffffffffffffffffffffffffffffffffffffffff1673ffffffffffffffffffffffffffffffffffffffff1681526020019081526020016000206121cc90919063ffffffff16565b505050565b6000808273ffffffffffffffffffffffffffffffffffffffff163b119050919050565b600073ffffffffffffffffffffffffffffffffffffffff168273ffffffffffffffffffffffffffffffffffffffff161415612048576040517f08c379a000000000000000000000000000000000000000000000000000000000815260040161203f90612eb7565b60405180910390fd5b612051816111e4565b15612091576040517f08c379a000000000000000000000000000000000000000000000000000000000815260040161208890612dd7565b60405180910390fd5b61209d60008383611c02565b6001600360008473ffffffffffffffffffffffffffffffffffffffff1673ffffffffffffffffffffffffffffffffffffffff16815260200190815260200160002060008282546120ed91906130d5565b92505081905550816002600083815260200190815260200160002060006101000a81548173ffffffffffffffffffffffffffffffffffffffff021916908373ffffffffffffffffffffffffffffffffffffffff160217905550808273ffffffffffffffffffffffffffffffffffffffff16600073ffffffffffffffffffffffffffffffffffffffff167fddf252ad1be2c89b69c2b068fc378daa952ba7f163c4a11628f55a4df523b3ef60405160405180910390a46121ae60008383611ce4565b5050565b60006121c4836000018360001b6121e6565b905092915050565b60006121de836000018360001b612256565b905092915050565b60006121f283836123dc565b61224b578260000182908060018154018082558091505060019003906000526020600020016000909190919091505582600001805490508360010160008481526020019081526020016000208190555060019050612250565b600090505b92915050565b600080836001016000848152602001908152602001600020549050600081146123d0576000600182612288919061315c565b90506000600186600001805490506122a0919061315c565b905081811461235b5760008660000182815481106122e7577f4e487b7100000000000000000000000000000000000000000000000000000000600052603260045260246000fd5b9060005260206000200154905080876000018481548110612331577f4e487b7100000000000000000000000000000000000000000000000000000000600052603260045260246000fd5b90600052602060002001819055508387600101600083815260200190815260200160002081905550505b85600001805480612395577f4e487b7100000000000000000000000000000000000000000000000000000000600052603160045260246000fd5b6001900381819060005260206000200160009055905585600101600086815260200190815260200160002060009055600193505050506123d6565b60009150505b92915050565b600080836001016000848152602001908152602001600020541415905092915050565b82805461240b90613250565b90600052602060002090601f01602090048101928261242d5760008555612474565b82601f1061244657805160ff1916838001178555612474565b82800160010185558215612474579182015b82811115612473578251825591602001919060010190612458565b5b5090506124819190612485565b5090565b5b8082111561249e576000816000905550600101612486565b5090565b60006124b56124b084612ff7565b612fd2565b9050828152602081018484840111156124cd57600080fd5b6124d884828561320e565b509392505050565b60006124f36124ee84613028565b612fd2565b90508281526020810184848401111561250b57600080fd5b61251684828561320e565b509392505050565b60008135905061252d816138a4565b92915050565b600081359050612542816138bb565b92915050565b600081359050612557816138d2565b92915050565b60008151905061256c816138d2565b92915050565b600082601f83011261258357600080fd5b81356125938482602086016124a2565b91505092915050565b600082601f8301126125ad57600080fd5b81356125bd8482602086016124e0565b91505092915050565b6000813590506125d5816138e9565b92915050565b6000602082840312156125ed57600080fd5b60006125fb8482850161251e565b91505092915050565b6000806040838503121561261757600080fd5b60006126258582860161251e565b92505060206126368582860161251e565b9150509250929050565b60008060006060848603121561265557600080fd5b60006126638682870161251e565b93505060206126748682870161251e565b9250506040612685868287016125c6565b9150509250925092565b600080600080608085870312156126a557600080fd5b60006126b38782880161251e565b94505060206126c48782880161251e565b93505060406126d5878288016125c6565b925050606085013567ffffffffffffffff8111156126f257600080fd5b6126fe87828801612572565b91505092959194509250565b6000806040838503121561271d57600080fd5b600061272b8582860161251e565b925050602061273c85828601612533565b9150509250929050565b6000806040838503121561275957600080fd5b60006127678582860161251e565b925050602083013567ffffffffffffffff81111561278457600080fd5b6127908582860161259c565b9150509250929050565b600080604083850312156127ad57600080fd5b60006127bb8582860161251e565b92505060206127cc858286016125c6565b9150509250929050565b6000602082840312156127e857600080fd5b60006127f684828501612548565b91505092915050565b60006020828403121561281157600080fd5b600061281f8482850161255d565b91505092915050565b60006020828403121561283a57600080fd5b600082013567ffffffffffffffff81111561285457600080fd5b6128608482850161259c565b91505092915050565b60006020828403121561287b57600080fd5b6000612889848285016125c6565b91505092915050565b600061289e8383612926565b60208301905092915050565b6128b381613190565b82525050565b60006128c482613069565b6128ce8185613097565b93506128d983613059565b8060005b8381101561290a5781516128f18882612892565b97506128fc8361308a565b9250506001810190506128dd565b5085935050505092915050565b612920816131a2565b82525050565b61292f816131ae565b82525050565b600061294082613074565b61294a81856130a8565b935061295a81856020860161321d565b612963816133e9565b840191505092915050565b60006129798261307f565b61298381856130b9565b935061299381856020860161321d565b61299c816133e9565b840191505092915050565b60006129b28261307f565b6129bc81856130ca565b93506129cc81856020860161321d565b80840191505092915050565b60006129e56032836130b9565b91506129f0826133fa565b604082019050919050565b6000612a086026836130b9565b9150612a1382613449565b604082019050919050565b6000612a2b6025836130b9565b9150612a3682613498565b604082019050919050565b6000612a4e601c836130b9565b9150612a59826134e7565b602082019050919050565b6000612a716024836130b9565b9150612a7c82613510565b604082019050919050565b6000612a946019836130b9565b9150612a9f8261355f565b602082019050919050565b6000612ab7602c836130b9565b9150612ac282613588565b604082019050919050565b6000612ada6038836130b9565b9150612ae5826135d7565b604082019050919050565b6000612afd602a836130b9565b9150612b0882613626565b604082019050919050565b6000612b206029836130b9565b9150612b2b82613675565b604082019050919050565b6000612b436020836130b9565b9150612b4e826136c4565b602082019050919050565b6000612b66602c836130b9565b9150612b71826136ed565b604082019050919050565b6000612b896020836130b9565b9150612b948261373c565b602082019050919050565b6000612bac602f836130b9565b9150612bb782613765565b604082019050919050565b6000612bcf6021836130b9565b9150612bda826137b4565b604082019050919050565b6000612bf26031836130b9565b9150612bfd82613803565b604082019050919050565b6000612c15601b836130b9565b9150612c2082613852565b602082019050919050565b6000612c38600d836130b9565b9150612c438261387b565b602082019050919050565b612c5781613204565b82525050565b6000612c6982856129a7565b9150612c7582846129a7565b91508190509392505050565b6000602082019050612c9660008301846128aa565b92915050565b6000608082019050612cb160008301876128aa565b612cbe60208301866128aa565b612ccb6040830185612c4e565b8181036060830152612cdd8184612935565b905095945050505050565b60006020820190508181036000830152612d0281846128b9565b905092915050565b6000602082019050612d1f6000830184612917565b92915050565b60006020820190508181036000830152612d3f818461296e565b905092915050565b60006040820190508181036000830152612d61818561296e565b9050612d7060208301846128aa565b9392505050565b60006020820190508181036000830152612d90816129d8565b9050919050565b60006020820190508181036000830152612db0816129fb565b9050919050565b60006020820190508181036000830152612dd081612a1e565b9050919050565b60006020820190508181036000830152612df081612a41565b9050919050565b60006020820190508181036000830152612e1081612a64565b9050919050565b60006020820190508181036000830152612e3081612a87565b9050919050565b60006020820190508181036000830152612e5081612aaa565b9050919050565b60006020820190508181036000830152612e7081612acd565b9050919050565b60006020820190508181036000830152612e9081612af0565b9050919050565b60006020820190508181036000830152612eb081612b13565b9050919050565b60006020820190508181036000830152612ed081612b36565b9050919050565b60006020820190508181036000830152612ef081612b59565b9050919050565b60006020820190508181036000830152612f1081612b7c565b9050919050565b60006020820190508181036000830152612f3081612b9f565b9050919050565b60006020820190508181036000830152612f5081612bc2565b9050919050565b60006020820190508181036000830152612f7081612be5565b9050919050565b60006020820190508181036000830152612f9081612c08565b9050919050565b60006020820190508181036000830152612fb081612c2b565b9050919050565b6000602082019050612fcc6000830184612c4e565b92915050565b6000612fdc612fed565b9050612fe88282613282565b919050565b6000604051905090565b600067ffffffffffffffff821115613012576130116133ba565b5b61301b826133e9565b9050602081019050919050565b600067ffffffffffffffff821115613043576130426133ba565b5b61304c826133e9565b9050602081019050919050565b6000819050602082019050919050565b600081519050919050565b600081519050919050565b600081519050919050565b6000602082019050919050565b600082825260208201905092915050565b600082825260208201905092915050565b600082825260208201905092915050565b600081905092915050565b60006130e082613204565b91506130eb83613204565b9250827fffffffffffffffffffffffffffffffffffffffffffffffffffffffffffffffff038211156131205761311f61332d565b5b828201905092915050565b600061313682613204565b915061314183613204565b9250826131515761315061335c565b5b828204905092915050565b600061316782613204565b915061317283613204565b9250828210156131855761318461332d565b5b828203905092915050565b600061319b826131e4565b9050919050565b60008115159050919050565b6000819050919050565b60007fffffffff0000000000000000000000000000000000000000000000000000000082169050919050565b600073ffffffffffffffffffffffffffffffffffffffff82169050919050565b6000819050919050565b82818337600083830152505050565b60005b8381101561323b578082015181840152602081019050613220565b8381111561324a576000848401525b50505050565b6000600282049050600182168061326857607f821691505b6020821081141561327c5761327b61338b565b5b50919050565b61328b826133e9565b810181811067ffffffffffffffff821117156132aa576132a96133ba565b5b80604052505050565b60006132be82613204565b91507fffffffffffffffffffffffffffffffffffffffffffffffffffffffffffffffff8214156132f1576132f061332d565b5b600182019050919050565b600061330782613204565b915061331283613204565b9250826133225761332161335c565b5b828206905092915050565b7f4e487b7100000000000000000000000000000000000000000000000000000000600052601160045260246000fd5b7f4e487b7100000000000000000000000000000000000000000000000000000000600052601260045260246000fd5b7f4e487b7100000000000000000000000000000000000000000000000000000000600052602260045260246000fd5b7f4e487b7100000000000000000000000000000000000000000000000000000000600052604160045260246000fd5b6000601f19601f8301169050919050565b7f4552433732313a207472616e7366657220746f206e6f6e20455243373231526560008201527f63656976657220696d706c656d656e7465720000000000000000000000000000602082015250565b7f4f776e61626c653a206e6577206f776e657220697320746865207a65726f206160008201527f6464726573730000000000000000000000000000000000000000000000000000602082015250565b7f4552433732313a207472616e736665722066726f6d20696e636f72726563742060008201527f6f776e6572000000000000000000000000000000000000000000000000000000602082015250565b7f4552433732313a20746f6b656e20616c7265616479206d696e74656400000000600082015250565b7f4552433732313a207472616e7366657220746f20746865207a65726f2061646460008201527f7265737300000000000000000000000000000000000000000000000000000000602082015250565b7f4552433732313a20617070726f766520746f2063616c6c657200000000000000600082015250565b7f4552433732313a206f70657261746f7220717565727920666f72206e6f6e657860008201527f697374656e7420746f6b656e0000000000000000000000000000000000000000602082015250565b7f4552433732313a20617070726f76652063616c6c6572206973206e6f74206f7760008201527f6e6572206e6f7220617070726f76656420666f7220616c6c0000000000000000602082015250565b7f4552433732313a2062616c616e636520717565727920666f7220746865207a6560008201527f726f206164647265737300000000000000000000000000000000000000000000602082015250565b7f4552433732313a206f776e657220717565727920666f72206e6f6e657869737460008201527f656e7420746f6b656e0000000000000000000000000000000000000000000000602082015250565b7f4552433732313a206d696e7420746f20746865207a65726f2061646472657373600082015250565b7f4552433732313a20617070726f76656420717565727920666f72206e6f6e657860008201527f697374656e7420746f6b656e0000000000000000000000000000000000000000602082015250565b7f4f776e61626c653a2063616c6c6572206973206e6f7420746865206f776e6572600082015250565b7f4552433732314d657461646174613a2055524920717565727920666f72206e6f60008201527f6e6578697374656e7420746f6b656e0000000000000000000000000000000000602082015250565b7f4552433732313a20617070726f76616c20746f2063757272656e74206f776e6560008201527f7200000000000000000000000000000000000000000000000000000000000000602082015250565b7f4552433732313a207472616e736665722063616c6c6572206973206e6f74206f60008201527f776e6572206e6f7220617070726f766564000000000000000000000000000000602082015250565b7f43616c6c6572206973206e6f7420746865206f70657261746f72730000000000600082015250565b7f496e76616c696420626f78494400000000000000000000000000000000000000600082015250565b6138ad81613190565b81146138b857600080fd5b50565b6138c4816131a2565b81146138cf57600080fd5b50565b6138db816131b8565b81146138e657600080fd5b50565b6138f281613204565b81146138fd57600080fd5b5056fea26469706673582212204185559a5e349c5153b1cd7519c0d01c1d652f6a20d5c19f14fbc97d4e581d7864736f6c63430008040033",
  "linkReferences": {},
  "deployedLinkReferences": {}
}