{
  "_format": "hh-sol-artifact-1",
  "contractName": "BeFitterBox",
  "sourceName": "contracts/BFBox.sol",
  "abi": [
    {
      "inputs": [],
      "stateMutability": "nonpayable",
      "type": "constructor"
    },
    {
      "anonymous": false,
      "inputs": [
        {
          "indexed": true,
          "internalType": "address",
          "name": "owner",
          "type": "address"
        },
        {
          "indexed": true,
          "internalType": "address",
          "name": "approved",
          "type": "address"
        },
        {
          "indexed": true,
          "internalType": "uint256",
          "name": "tokenId",
          "type": "uint256"
        }
      ],
      "name": "Approval",
      "type": "event"
    },
    {
      "anonymous": false,
      "inputs": [
        {
          "indexed": true,
          "internalType": "address",
          "name": "owner",
          "type": "address"
        },
        {
          "indexed": true,
          "internalType": "address",
          "name": "operator",
          "type": "address"
        },
        {
          "indexed": false,
          "internalType": "bool",
          "name": "approved",
          "type": "bool"
        }
      ],
      "name": "ApprovalForAll",
      "type": "event"
    },
    {
      "anonymous": false,
      "inputs": [
        {
          "indexed": true,
          "internalType": "address",
          "name": "to",
          "type": "address"
        },
        {
          "indexed": false,
          "internalType": "uint256",
          "name": "boxId",
          "type": "uint256"
        }
      ],
      "name": "BoxMinted",
      "type": "event"
    },
    {
      "anonymous": false,
      "inputs": [
        {
          "indexed": true,
          "internalType": "address",
          "name": "from",
          "type": "address"
        },
        {
          "indexed": true,
          "internalType": "address",
          "name": "to",
          "type": "address"
        },
        {
          "indexed": false,
          "internalType": "uint256",
          "name": "boxId",
          "type": "uint256"
        },
        {
          "indexed": false,
          "internalType": "string",
          "name": "message",
          "type": "string"
        }
      ],
      "name": "BoxTransferred",
      "type": "event"
    },
    {
      "anonymous": false,
      "inputs": [
        {
          "indexed": true,
          "internalType": "address",
          "name": "previousOwner",
          "type": "address"
        },
        {
          "indexed": true,
          "internalType": "address",
          "name": "newOwner",
          "type": "address"
        }
      ],
      "name": "OwnershipTransferred",
      "type": "event"
    },
    {
      "anonymous": false,
      "inputs": [
        {
          "indexed": true,
          "internalType": "address",
          "name": "from",
          "type": "address"
        },
        {
          "indexed": true,
          "internalType": "address",
          "name": "to",
          "type": "address"
        },
        {
          "indexed": true,
          "internalType": "uint256",
          "name": "tokenId",
          "type": "uint256"
        }
      ],
      "name": "Transfer",
      "type": "event"
    },
    {
      "inputs": [
        {
          "internalType": "address",
          "name": "to",
          "type": "address"
        },
        {
          "internalType": "uint256",
          "name": "tokenId",
          "type": "uint256"
        }
      ],
      "name": "approve",
      "outputs": [],
      "stateMutability": "nonpayable",
      "type": "function"
    },
    {
      "inputs": [
        {
          "internalType": "address",
          "name": "owner",
          "type": "address"
        }
      ],
      "name": "balanceOf",
      "outputs": [
        {
          "internalType": "uint256",
          "name": "",
          "type": "uint256"
        }
      ],
      "stateMutability": "view",
      "type": "function"
    },
    {
      "inputs": [
        {
          "internalType": "uint256",
          "name": "tokenId",
          "type": "uint256"
        }
      ],
      "name": "getApproved",
      "outputs": [
        {
          "internalType": "address",
          "name": "",
          "type": "address"
        }
      ],
      "stateMutability": "view",
      "type": "function"
    },
    {
      "inputs": [
        {
          "internalType": "uint256",
          "name": "boxId",
          "type": "uint256"
        }
      ],
      "name": "getBoxType",
      "outputs": [
        {
          "internalType": "string",
          "name": "",
          "type": "string"
        }
      ],
      "stateMutability": "view",
      "type": "function"
    },
    {
      "inputs": [
        {
          "internalType": "address",
          "name": "owner",
          "type": "address"
        }
      ],
      "name": "getOwnedTokens",
      "outputs": [
        {
          "internalType": "bytes32[]",
          "name": "",
          "type": "bytes32[]"
        }
      ],
      "stateMutability": "view",
      "type": "function"
    },
    {
      "inputs": [
        {
          "internalType": "address",
          "name": "owner",
          "type": "address"
        },
        {
          "internalType": "address",
          "name": "operator",
          "type": "address"
        }
      ],
      "name": "isApprovedForAll",
      "outputs": [
        {
          "internalType": "bool",
          "name": "",
          "type": "bool"
        }
      ],
      "stateMutability": "view",
      "type": "function"
    },
    {
      "inputs": [
        {
          "internalType": "address",
          "name": "operator",
          "type": "address"
        }
      ],
      "name": "isOperator",
      "outputs": [
        {
          "internalType": "bool",
          "name": "",
          "type": "bool"
        }
      ],
      "stateMutability": "view",
      "type": "function"
    },
    {
      "inputs": [
        {
          "internalType": "address",
          "name": "to",
          "type": "address"
        },
        {
          "internalType": "string",
          "name": "boxType",
          "type": "string"
        }
      ],
      "name": "mint",
      "outputs": [],
      "stateMutability": "nonpayable",
      "type": "function"
    },
    {
      "inputs": [],
      "name": "name",
      "outputs": [
        {
          "internalType": "string",
          "name": "",
          "type": "string"
        }
      ],
      "stateMutability": "view",
      "type": "function"
    },
    {
      "inputs": [],
      "name": "owner",
      "outputs": [
        {
          "internalType": "address",
          "name": "",
          "type": "address"
        }
      ],
      "stateMutability": "view",
      "type": "function"
    },
    {
      "inputs": [
        {
          "internalType": "uint256",
          "name": "tokenId",
          "type": "uint256"
        }
      ],
      "name": "ownerOf",
      "outputs": [
        {
          "internalType": "address",
          "name": "",
          "type": "address"
        }
      ],
      "stateMutability": "view",
      "type": "function"
    },
    {
      "inputs": [
        {
          "internalType": "address",
          "name": "operator",
          "type": "address"
        }
      ],
      "name": "removeOperator",
      "outputs": [],
      "stateMutability": "nonpayable",
      "type": "function"
    },
    {
      "inputs": [],
      "name": "renounceOwnership",
      "outputs": [],
      "stateMutability": "nonpayable",
      "type": "function"
    },
    {
      "inputs": [
        {
          "internalType": "address",
          "name": "from",
          "type": "address"
        },
        {
          "internalType": "address",
          "name": "to",
          "type": "address"
        },
        {
          "internalType": "uint256",
          "name": "tokenId",
          "type": "uint256"
        }
      ],
      "name": "safeTransferFrom",
      "outputs": [],
      "stateMutability": "nonpayable",
      "type": "function"
    },
    {
      "inputs": [
        {
          "internalType": "address",
          "name": "from",
          "type": "address"
        },
        {
          "internalType": "address",
          "name": "to",
          "type": "address"
        },
        {
          "internalType": "uint256",
          "name": "tokenId",
          "type": "uint256"
        },
        {
          "internalType": "bytes",
          "name": "data",
          "type": "bytes"
        }
      ],
      "name": "safeTransferFrom",
      "outputs": [],
      "stateMutability": "nonpayable",
      "type": "function"
    },
    {
      "inputs": [
        {
          "internalType": "address",
          "name": "operator",
          "type": "address"
        },
        {
          "internalType": "bool",
          "name": "approved",
          "type": "bool"
        }
      ],
      "name": "setApprovalForAll",
      "outputs": [],
      "stateMutability": "nonpayable",
      "type": "function"
    },
    {
      "inputs": [
        {
          "internalType": "string",
          "name": "baseURI",
          "type": "string"
        }
      ],
      "name": "setBaseTokenURI",
      "outputs": [],
      "stateMutability": "nonpayable",
      "type": "function"
    },
    {
      "inputs": [
        {
          "internalType": "address",
          "name": "operator",
          "type": "address"
        }
      ],
      "name": "setOperator",
      "outputs": [],
      "stateMutability": "nonpayable",
      "type": "function"
    },
    {
      "inputs": [
        {
          "internalType": "bytes4",
          "name": "interfaceId",
          "type": "bytes4"
        }
      ],
      "name": "supportsInterface",
      "outputs": [
        {
          "internalType": "bool",
          "name": "",
          "type": "bool"
        }
      ],
      "stateMutability": "view",
      "type": "function"
    },
    {
      "inputs": [],
      "name": "symbol",
      "outputs": [
        {
          "internalType": "string",
          "name": "",
          "type": "string"
        }
      ],
      "stateMutability": "view",
      "type": "function"
    },
    {
      "inputs": [
        {
          "internalType": "uint256",
          "name": "tokenId",
          "type": "uint256"
        }
      ],
      "name": "tokenURI",
      "outputs": [
        {
          "internalType": "string",
          "name": "",
          "type": "string"
        }
      ],
      "stateMutability": "view",
      "type": "function"
    },
    {
      "inputs": [
        {
          "internalType": "address",
          "name": "from",
          "type": "address"
        },
        {
          "internalType": "address",
          "name": "to",
          "type": "address"
        },
        {
          "internalType": "uint256",
          "name": "boxId",
          "type": "uint256"
        }
      ],
      "name": "transferFrom",
      "outputs": [],
      "stateMutability": "nonpayable",
      "type": "function"
    },
    {
      "inputs": [
        {
          "internalType": "address",
          "name": "newOwner",
          "type": "address"
        }
      ],
      "name": "transferOwnership",
      "outputs": [],
      "stateMutability": "nonpayable",
      "type": "function"
    },
    {
      "inputs": [
        {
          "internalType": "address",
          "name": "to",
          "type": "address"
        },
        {
          "internalType": "uint256",
          "name": "boxId",
          "type": "uint256"
        },
        {
          "internalType": "string",
          "name": "message",
          "type": "string"
        }
      ],
      "name": "transferWithMessage",
      "outputs": [],
      "stateMutability": "nonpayable",
      "type": "function"
    }
  ],
  "bytecode": "0x60806040523480156200001157600080fd5b506040518060400160405280600b81526020017f4265466974746572426f780000000000000000000000000000000000000000008152506040518060400160405280600381526020017f424642000000000000000000000000000000000000000000000000000000000081525081600090805190602001906200009692919062000256565b508060019080519060200190620000af92919062000256565b505050620000d2620000c66200018860201b60201c565b6200019060201b60201c565b6001600860003373ffffffffffffffffffffffffffffffffffffffff1673ffffffffffffffffffffffffffffffffffffffff16815260200190815260200160002060006101000a81548160ff0219169083151502179055506001600860003373ffffffffffffffffffffffffffffffffffffffff1673ffffffffffffffffffffffffffffffffffffffff16815260200190815260200160002060006101000a81548160ff0219169083151502179055506200036b565b600033905090565b6000600760009054906101000a900473ffffffffffffffffffffffffffffffffffffffff16905081600760006101000a81548173ffffffffffffffffffffffffffffffffffffffff021916908373ffffffffffffffffffffffffffffffffffffffff1602179055508173ffffffffffffffffffffffffffffffffffffffff168173ffffffffffffffffffffffffffffffffffffffff167f8be0079c531659141344cd1fd0a4f28419497f9722a3daafe3b4186f6b6457e060405160405180910390a35050565b828054620002649062000306565b90600052602060002090601f016020900481019282620002885760008555620002d4565b82601f10620002a357805160ff1916838001178555620002d4565b82800160010185558215620002d4579182015b82811115620002d3578251825591602001919060010190620002b6565b5b509050620002e39190620002e7565b5090565b5b8082111562000302576000816000905550600101620002e8565b5090565b600060028204905060018216806200031f57607f821691505b602082108114156200033657620003356200033c565b5b50919050565b7f4e487b7100000000000000000000000000000000000000000000000000000000600052602260045260246000fd5b6138b7806200037b6000396000f3fe608060405234801561001057600080fd5b50600436106101585760003560e01c80638da5cb5b116100c3578063b88d4fde1161007c578063b88d4fde146103c1578063c87b56dd146103dd578063d0def5211461040d578063d9d6165514610429578063e985e9c514610459578063f2fde38b1461048957610158565b80638da5cb5b1461030157806395d89b411461031f578063a22cb4651461033d578063ac8a584a14610359578063b3ab15fb14610375578063b546a3bc1461039157610158565b806330176e131161011557806330176e131461022f57806342842e0e1461024b5780636352211e146102675780636d70f7ae1461029757806370a08231146102c7578063715018a6146102f757610158565b806301ffc9a71461015d57806306fdde031461018d578063081812fc146101ab5780630818f44b146101db578063095ea7b3146101f757806323b872dd14610213575b600080fd5b6101776004803603810190610172919061284d565b6104a5565b6040516101849190612d5e565b60405180910390f35b610195610587565b6040516101a29190612d79565b60405180910390f35b6101c560048036038101906101c091906128e0565b610619565b6040516101d29190612cd5565b60405180910390f35b6101f560048036038101906101f091906127e6565b61065f565b005b610211600480360381019061020c91906127aa565b610726565b005b61022d60048036038101906102289190612650565b61083e565b005b6102496004803603810190610244919061289f565b610903565b005b61026560048036038101906102609190612650565b6109a9565b005b610281600480360381019061027c91906128e0565b6109c9565b60405161028e9190612cd5565b60405180910390f35b6102b160048036038101906102ac91906125eb565b610a7b565b6040516102be9190612d5e565b60405180910390f35b6102e160048036038101906102dc91906125eb565b610ad1565b6040516102ee9190612f9b565b60405180910390f35b6102ff610b89565b005b610309610b9d565b6040516103169190612cd5565b60405180910390f35b610327610bc7565b6040516103349190612d79565b60405180910390f35b6103576004803603810190610352919061271a565b610c59565b005b610373600480360381019061036e91906125eb565b610c6f565b005b61038f600480360381019061038a91906125eb565b610cd2565b005b6103ab60048036038101906103a691906128e0565b610d35565b6040516103b89190612d79565b60405180910390f35b6103db60048036038101906103d6919061269f565b610e27565b005b6103f760048036038101906103f291906128e0565b610e89565b6040516104049190612d79565b60405180910390f35b61042760048036038101906104229190612756565b610ef1565b005b610443600480360381019061043e91906125eb565b61101a565b6040516104509190612d3c565b60405180910390f35b610473600480360381019061046e9190612614565b6110b7565b6040516104809190612d5e565b60405180910390f35b6104a3600480360381019061049e91906125eb565b61114b565b005b60007f80ac58cd000000000000000000000000000000000000000000000000000000007bffffffffffffffffffffffffffffffffffffffffffffffffffffffff1916827bffffffffffffffffffffffffffffffffffffffffffffffffffffffff1916148061057057507f5b5e139f000000000000000000000000000000000000000000000000000000007bffffffffffffffffffffffffffffffffffffffffffffffffffffffff1916827bffffffffffffffffffffffffffffffffffffffffffffffffffffffff1916145b80610580575061057f826111cf565b5b9050919050565b60606000805461059690613292565b80601f01602080910402602001604051908101604052809291908181526020018280546105c290613292565b801561060f5780601f106105e45761010080835404028352916020019161060f565b820191906000526020600020905b8154815290600101906020018083116105f257829003601f168201915b5050505050905090565b600061062482611239565b6004600083815260200190815260200160002060009054906101000a900473ffffffffffffffffffffffffffffffffffffffff169050919050565b61067061066a611284565b8361128c565b6106af576040517f08c379a00000000000000000000000000000000000000000000000000000000081526004016106a690612f3b565b60405180910390fd5b6106ba338484611321565b8273ffffffffffffffffffffffffffffffffffffffff163373ffffffffffffffffffffffffffffffffffffffff167fd206c6a1d7f98af2f2eb722153020fa7b4f2721b8cbc3f03e5dbbfb095d72f8a8484604051610719929190612fb6565b60405180910390a3505050565b6000610731826109c9565b90508073ffffffffffffffffffffffffffffffffffffffff168373ffffffffffffffffffffffffffffffffffffffff1614156107a2576040517f08c379a000000000000000000000000000000000000000000000000000000000815260040161079990612f1b565b60405180910390fd5b8073ffffffffffffffffffffffffffffffffffffffff166107c1611284565b73ffffffffffffffffffffffffffffffffffffffff1614806107f057506107ef816107ea611284565b6110b7565b5b61082f576040517f08c379a000000000000000000000000000000000000000000000000000000000815260040161082690612e9b565b60405180910390fd5b6108398383611588565b505050565b61084f610849611284565b8261128c565b61088e576040517f08c379a000000000000000000000000000000000000000000000000000000000815260040161088590612f3b565b60405180910390fd5b610899838383611321565b8173ffffffffffffffffffffffffffffffffffffffff163373ffffffffffffffffffffffffffffffffffffffff167fd206c6a1d7f98af2f2eb722153020fa7b4f2721b8cbc3f03e5dbbfb095d72f8a836040516108f69190612fe6565b60405180910390a3505050565b600860003373ffffffffffffffffffffffffffffffffffffffff1673ffffffffffffffffffffffffffffffffffffffff16815260200190815260200160002060009054906101000a900460ff1661098f576040517f08c379a000000000000000000000000000000000000000000000000000000000815260040161098690612e7b565b60405180910390fd5b80600a90805190602001906109a592919061240f565b5050565b6109c483838360405180602001604052806000815250610e27565b505050565b6000806002600084815260200190815260200160002060009054906101000a900473ffffffffffffffffffffffffffffffffffffffff169050600073ffffffffffffffffffffffffffffffffffffffff168173ffffffffffffffffffffffffffffffffffffffff161415610a72576040517f08c379a0000000000000000000000000000000000000000000000000000000008152600401610a6990612efb565b60405180910390fd5b80915050919050565b6000600860008373ffffffffffffffffffffffffffffffffffffffff1673ffffffffffffffffffffffffffffffffffffffff16815260200190815260200160002060009054906101000a900460ff169050919050565b60008073ffffffffffffffffffffffffffffffffffffffff168273ffffffffffffffffffffffffffffffffffffffff161415610b42576040517f08c379a0000000000000000000000000000000000000000000000000000000008152600401610b3990612e5b565b60405180910390fd5b600360008373ffffffffffffffffffffffffffffffffffffffff1673ffffffffffffffffffffffffffffffffffffffff168152602001908152602001600020549050919050565b610b91611641565b610b9b60006116bf565b565b6000600760009054906101000a900473ffffffffffffffffffffffffffffffffffffffff16905090565b606060018054610bd690613292565b80601f0160208091040260200160405190810160405280929190818152602001828054610c0290613292565b8015610c4f5780601f10610c2457610100808354040283529160200191610c4f565b820191906000526020600020905b815481529060010190602001808311610c3257829003601f168201915b5050505050905090565b610c6b610c64611284565b8383611785565b5050565b610c77611641565b6000600860008373ffffffffffffffffffffffffffffffffffffffff1673ffffffffffffffffffffffffffffffffffffffff16815260200190815260200160002060006101000a81548160ff02191690831515021790555050565b610cda611641565b6001600860008373ffffffffffffffffffffffffffffffffffffffff1673ffffffffffffffffffffffffffffffffffffffff16815260200190815260200160002060006101000a81548160ff02191690831515021790555050565b606081610d4260096118f2565b8110610d83576040517f08c379a0000000000000000000000000000000000000000000000000000000008152600401610d7a90612f5b565b60405180910390fd5b600b60008481526020019081526020016000208054610da190613292565b80601f0160208091040260200160405190810160405280929190818152602001828054610dcd90613292565b8015610e1a5780601f10610def57610100808354040283529160200191610e1a565b820191906000526020600020905b815481529060010190602001808311610dfd57829003601f168201915b5050505050915050919050565b610e38610e32611284565b8361128c565b610e77576040517f08c379a0000000000000000000000000000000000000000000000000000000008152600401610e6e90612f7b565b60405180910390fd5b610e8384848484611900565b50505050565b6060610e9482611239565b6000610e9e61195c565b90506000815111610ebe5760405180602001604052806000815250610ee9565b80610ec8846119ee565b604051602001610ed9929190612cb1565b6040516020818303038152906040525b915050919050565b600860003373ffffffffffffffffffffffffffffffffffffffff1673ffffffffffffffffffffffffffffffffffffffff16815260200190815260200160002060009054906101000a900460ff16610f7d576040517f08c379a0000000000000000000000000000000000000000000000000000000008152600401610f7490612e7b565b60405180910390fd5b6000610f8960096118f2565b9050610f958382611b9b565b81600b60008381526020019081526020016000209080519060200190610fbc92919061240f565b50610fc76009611bb9565b8273ffffffffffffffffffffffffffffffffffffffff167fcb924e9f1cd50e7b79d9a97711e1b4d1e18c588d56dc6acaea1909562248f9278260405161100d9190612f9b565b60405180910390a2505050565b6060600660008373ffffffffffffffffffffffffffffffffffffffff1673ffffffffffffffffffffffffffffffffffffffff1681526020019081526020016000206000016000018054806020026020016040519081016040528092919081815260200182805480156110ab57602002820191906000526020600020905b815481526020019060010190808311611097575b50505050509050919050565b6000600560008473ffffffffffffffffffffffffffffffffffffffff1673ffffffffffffffffffffffffffffffffffffffff16815260200190815260200160002060008373ffffffffffffffffffffffffffffffffffffffff1673ffffffffffffffffffffffffffffffffffffffff16815260200190815260200160002060009054906101000a900460ff16905092915050565b611153611641565b600073ffffffffffffffffffffffffffffffffffffffff168173ffffffffffffffffffffffffffffffffffffffff1614156111c3576040517f08c379a00000000000000000000000000000000000000000000000000000000081526004016111ba90612dbb565b60405180910390fd5b6111cc816116bf565b50565b60007f01ffc9a7000000000000000000000000000000000000000000000000000000007bffffffffffffffffffffffffffffffffffffffffffffffffffffffff1916827bffffffffffffffffffffffffffffffffffffffffffffffffffffffff1916149050919050565b61124281611bcf565b611281576040517f08c379a000000000000000000000000000000000000000000000000000000000815260040161127890612efb565b60405180910390fd5b50565b600033905090565b600080611298836109c9565b90508073ffffffffffffffffffffffffffffffffffffffff168473ffffffffffffffffffffffffffffffffffffffff1614806112da57506112d981856110b7565b5b8061131857508373ffffffffffffffffffffffffffffffffffffffff1661130084610619565b73ffffffffffffffffffffffffffffffffffffffff16145b91505092915050565b8273ffffffffffffffffffffffffffffffffffffffff16611341826109c9565b73ffffffffffffffffffffffffffffffffffffffff1614611397576040517f08c379a000000000000000000000000000000000000000000000000000000000815260040161138e90612ddb565b60405180910390fd5b600073ffffffffffffffffffffffffffffffffffffffff168273ffffffffffffffffffffffffffffffffffffffff161415611407576040517f08c379a00000000000000000000000000000000000000000000000000000000081526004016113fe90612e1b565b60405180910390fd5b611412838383611c3b565b61141d600082611588565b6001600360008573ffffffffffffffffffffffffffffffffffffffff1673ffffffffffffffffffffffffffffffffffffffff168152602001908152602001600020600082825461146d919061319e565b925050819055506001600360008473ffffffffffffffffffffffffffffffffffffffff1673ffffffffffffffffffffffffffffffffffffffff16815260200190815260200160002060008282546114c49190613117565b92505081905550816002600083815260200190815260200160002060006101000a81548173ffffffffffffffffffffffffffffffffffffffff021916908373ffffffffffffffffffffffffffffffffffffffff160217905550808273ffffffffffffffffffffffffffffffffffffffff168473ffffffffffffffffffffffffffffffffffffffff167fddf252ad1be2c89b69c2b068fc378daa952ba7f163c4a11628f55a4df523b3ef60405160405180910390a4611583838383611d1d565b505050565b816004600083815260200190815260200160002060006101000a81548173ffffffffffffffffffffffffffffffffffffffff021916908373ffffffffffffffffffffffffffffffffffffffff160217905550808273ffffffffffffffffffffffffffffffffffffffff166115fb836109c9565b73ffffffffffffffffffffffffffffffffffffffff167f8c5be1e5ebec7d5bd14f71427d1e84f3dd0314c0f7b2291e5b200ac8c7c3b92560405160405180910390a45050565b611649611284565b73ffffffffffffffffffffffffffffffffffffffff16611667610b9d565b73ffffffffffffffffffffffffffffffffffffffff16146116bd576040517f08c379a00000000000000000000000000000000000000000000000000000000081526004016116b490612edb565b60405180910390fd5b565b6000600760009054906101000a900473ffffffffffffffffffffffffffffffffffffffff16905081600760006101000a81548173ffffffffffffffffffffffffffffffffffffffff021916908373ffffffffffffffffffffffffffffffffffffffff1602179055508173ffffffffffffffffffffffffffffffffffffffff168173ffffffffffffffffffffffffffffffffffffffff167f8be0079c531659141344cd1fd0a4f28419497f9722a3daafe3b4186f6b6457e060405160405180910390a35050565b8173ffffffffffffffffffffffffffffffffffffffff168373ffffffffffffffffffffffffffffffffffffffff1614156117f4576040517f08c379a00000000000000000000000000000000000000000000000000000000081526004016117eb90612e3b565b60405180910390fd5b80600560008573ffffffffffffffffffffffffffffffffffffffff1673ffffffffffffffffffffffffffffffffffffffff16815260200190815260200160002060008473ffffffffffffffffffffffffffffffffffffffff1673ffffffffffffffffffffffffffffffffffffffff16815260200190815260200160002060006101000a81548160ff0219169083151502179055508173ffffffffffffffffffffffffffffffffffffffff168373ffffffffffffffffffffffffffffffffffffffff167f17307eab39ab6107e8899845ad3d59bd9653f200f220920489ca2b5937696c31836040516118e59190612d5e565b60405180910390a3505050565b600081600001549050919050565b61190b848484611321565b61191784848484611d22565b611956576040517f08c379a000000000000000000000000000000000000000000000000000000000815260040161194d90612d9b565b60405180910390fd5b50505050565b6060600a805461196b90613292565b80601f016020809104026020016040519081016040528092919081815260200182805461199790613292565b80156119e45780601f106119b9576101008083540402835291602001916119e4565b820191906000526020600020905b8154815290600101906020018083116119c757829003601f168201915b5050505050905090565b60606000821415611a36576040518060400160405280600181526020017f30000000000000000000000000000000000000000000000000000000000000008152509050611b96565b600082905060005b60008214611a68578080611a51906132f5565b915050600a82611a61919061316d565b9150611a3e565b60008167ffffffffffffffff811115611aaa577f4e487b7100000000000000000000000000000000000000000000000000000000600052604160045260246000fd5b6040519080825280601f01601f191660200182016040528015611adc5781602001600182028036833780820191505090505b5090505b60008514611b8f57600182611af5919061319e565b9150600a85611b04919061333e565b6030611b109190613117565b60f81b818381518110611b4c577f4e487b7100000000000000000000000000000000000000000000000000000000600052603260045260246000fd5b60200101907effffffffffffffffffffffffffffffffffffffffffffffffffffffffffffff1916908160001a905350600a85611b88919061316d565b9450611ae0565b8093505050505b919050565b611bb5828260405180602001604052806000815250611eb9565b5050565b6001816000016000828254019250508190555050565b60008073ffffffffffffffffffffffffffffffffffffffff166002600084815260200190815260200160002060009054906101000a900473ffffffffffffffffffffffffffffffffffffffff1673ffffffffffffffffffffffffffffffffffffffff1614159050919050565b611c46838383611f14565b600073ffffffffffffffffffffffffffffffffffffffff168373ffffffffffffffffffffffffffffffffffffffff161415611c8a57611c858282611f19565b611d18565b600073ffffffffffffffffffffffffffffffffffffffff168273ffffffffffffffffffffffffffffffffffffffff161415611cce57611cc98382611f6f565b611d17565b8173ffffffffffffffffffffffffffffffffffffffff168373ffffffffffffffffffffffffffffffffffffffff1614611d1657611d0b8282611f19565b611d158382611f6f565b5b5b5b505050565b505050565b6000611d438473ffffffffffffffffffffffffffffffffffffffff16611fc5565b15611eac578373ffffffffffffffffffffffffffffffffffffffff1663150b7a02611d6c611284565b8786866040518563ffffffff1660e01b8152600401611d8e9493929190612cf0565b602060405180830381600087803b158015611da857600080fd5b505af1925050508015611dd957506040513d601f19601f82011682018060405250810190611dd69190612876565b60015b611e5c573d8060008114611e09576040519150601f19603f3d011682016040523d82523d6000602084013e611e0e565b606091505b50600081511415611e54576040517f08c379a0000000000000000000000000000000000000000000000000000000008152600401611e4b90612d9b565b60405180910390fd5b805181602001fd5b63150b7a0260e01b7bffffffffffffffffffffffffffffffffffffffffffffffffffffffff1916817bffffffffffffffffffffffffffffffffffffffffffffffffffffffff191614915050611eb1565b600190505b949350505050565b611ec38383611fe8565b611ed06000848484611d22565b611f0f576040517f08c379a0000000000000000000000000000000000000000000000000000000008152600401611f0690612d9b565b60405180910390fd5b505050565b505050565b611f6a81600660008573ffffffffffffffffffffffffffffffffffffffff1673ffffffffffffffffffffffffffffffffffffffff1681526020019081526020016000206121c290919063ffffffff16565b505050565b611fc081600660008573ffffffffffffffffffffffffffffffffffffffff1673ffffffffffffffffffffffffffffffffffffffff1681526020019081526020016000206121dc90919063ffffffff16565b505050565b6000808273ffffffffffffffffffffffffffffffffffffffff163b119050919050565b600073ffffffffffffffffffffffffffffffffffffffff168273ffffffffffffffffffffffffffffffffffffffff161415612058576040517f08c379a000000000000000000000000000000000000000000000000000000000815260040161204f90612ebb565b60405180910390fd5b61206181611bcf565b156120a1576040517f08c379a000000000000000000000000000000000000000000000000000000000815260040161209890612dfb565b60405180910390fd5b6120ad60008383611c3b565b6001600360008473ffffffffffffffffffffffffffffffffffffffff1673ffffffffffffffffffffffffffffffffffffffff16815260200190815260200160002060008282546120fd9190613117565b92505081905550816002600083815260200190815260200160002060006101000a81548173ffffffffffffffffffffffffffffffffffffffff021916908373ffffffffffffffffffffffffffffffffffffffff160217905550808273ffffffffffffffffffffffffffffffffffffffff16600073ffffffffffffffffffffffffffffffffffffffff167fddf252ad1be2c89b69c2b068fc378daa952ba7f163c4a11628f55a4df523b3ef60405160405180910390a46121be60008383611d1d565b5050565b60006121d4836000018360001b6121f6565b905092915050565b60006121ee836000018360001b612266565b905092915050565b600061220283836123ec565b61225b578260000182908060018154018082558091505060019003906000526020600020016000909190919091505582600001805490508360010160008481526020019081526020016000208190555060019050612260565b600090505b92915050565b600080836001016000848152602001908152602001600020549050600081146123e0576000600182612298919061319e565b90506000600186600001805490506122b0919061319e565b905081811461236b5760008660000182815481106122f7577f4e487b7100000000000000000000000000000000000000000000000000000000600052603260045260246000fd5b9060005260206000200154905080876000018481548110612341577f4e487b7100000000000000000000000000000000000000000000000000000000600052603260045260246000fd5b90600052602060002001819055508387600101600083815260200190815260200160002081905550505b856000018054806123a5577f4e487b7100000000000000000000000000000000000000000000000000000000600052603160045260246000fd5b6001900381819060005260206000200160009055905585600101600086815260200190815260200160002060009055600193505050506123e6565b60009150505b92915050565b600080836001016000848152602001908152602001600020541415905092915050565b82805461241b90613292565b90600052602060002090601f01602090048101928261243d5760008555612484565b82601f1061245657805160ff1916838001178555612484565b82800160010185558215612484579182015b82811115612483578251825591602001919060010190612468565b5b5090506124919190612495565b5090565b5b808211156124ae576000816000905550600101612496565b5090565b60006124c56124c084613039565b613014565b9050828152602081018484840111156124dd57600080fd5b6124e8848285613250565b509392505050565b60006125036124fe8461306a565b613014565b90508281526020810184848401111561251b57600080fd5b612526848285613250565b509392505050565b60008135905061253d81613825565b92915050565b6000813590506125528161383c565b92915050565b60008135905061256781613853565b92915050565b60008151905061257c81613853565b92915050565b600082601f83011261259357600080fd5b81356125a38482602086016124b2565b91505092915050565b600082601f8301126125bd57600080fd5b81356125cd8482602086016124f0565b91505092915050565b6000813590506125e58161386a565b92915050565b6000602082840312156125fd57600080fd5b600061260b8482850161252e565b91505092915050565b6000806040838503121561262757600080fd5b60006126358582860161252e565b92505060206126468582860161252e565b9150509250929050565b60008060006060848603121561266557600080fd5b60006126738682870161252e565b93505060206126848682870161252e565b9250506040612695868287016125d6565b9150509250925092565b600080600080608085870312156126b557600080fd5b60006126c38782880161252e565b94505060206126d48782880161252e565b93505060406126e5878288016125d6565b925050606085013567ffffffffffffffff81111561270257600080fd5b61270e87828801612582565b91505092959194509250565b6000806040838503121561272d57600080fd5b600061273b8582860161252e565b925050602061274c85828601612543565b9150509250929050565b6000806040838503121561276957600080fd5b60006127778582860161252e565b925050602083013567ffffffffffffffff81111561279457600080fd5b6127a0858286016125ac565b9150509250929050565b600080604083850312156127bd57600080fd5b60006127cb8582860161252e565b92505060206127dc858286016125d6565b9150509250929050565b6000806000606084860312156127fb57600080fd5b60006128098682870161252e565b935050602061281a868287016125d6565b925050604084013567ffffffffffffffff81111561283757600080fd5b612843868287016125ac565b9150509250925092565b60006020828403121561285f57600080fd5b600061286d84828501612558565b91505092915050565b60006020828403121561288857600080fd5b60006128968482850161256d565b91505092915050565b6000602082840312156128b157600080fd5b600082013567ffffffffffffffff8111156128cb57600080fd5b6128d7848285016125ac565b91505092915050565b6000602082840312156128f257600080fd5b6000612900848285016125d6565b91505092915050565b6000612915838361299d565b60208301905092915050565b61292a816131d2565b82525050565b600061293b826130ab565b61294581856130d9565b93506129508361309b565b8060005b838110156129815781516129688882612909565b9750612973836130cc565b925050600181019050612954565b5085935050505092915050565b612997816131e4565b82525050565b6129a6816131f0565b82525050565b60006129b7826130b6565b6129c181856130ea565b93506129d181856020860161325f565b6129da8161342b565b840191505092915050565b60006129f0826130c1565b6129fa81856130fb565b9350612a0a81856020860161325f565b612a138161342b565b840191505092915050565b6000612a29826130c1565b612a33818561310c565b9350612a4381856020860161325f565b80840191505092915050565b6000612a5c6032836130fb565b9150612a678261343c565b604082019050919050565b6000612a7f6026836130fb565b9150612a8a8261348b565b604082019050919050565b6000612aa26025836130fb565b9150612aad826134da565b604082019050919050565b6000612ac5601c836130fb565b9150612ad082613529565b602082019050919050565b6000612ae86024836130fb565b9150612af382613552565b604082019050919050565b6000612b0b6019836130fb565b9150612b16826135a1565b602082019050919050565b6000612b2e6029836130fb565b9150612b39826135ca565b604082019050919050565b6000612b51601b836130fb565b9150612b5c82613619565b602082019050919050565b6000612b74603e836130fb565b9150612b7f82613642565b604082019050919050565b6000612b976020836130fb565b9150612ba282613691565b602082019050919050565b6000612bba6020836130fb565b9150612bc5826136ba565b602082019050919050565b6000612bdd6018836130fb565b9150612be8826136e3565b602082019050919050565b6000612c006021836130fb565b9150612c0b8261370c565b604082019050919050565b6000612c236000836130fb565b9150612c2e8261375b565b600082019050919050565b6000612c466031836130fb565b9150612c518261375e565b604082019050919050565b6000612c69600d836130fb565b9150612c74826137ad565b602082019050919050565b6000612c8c602e836130fb565b9150612c97826137d6565b604082019050919050565b612cab81613246565b82525050565b6000612cbd8285612a1e565b9150612cc98284612a1e565b91508190509392505050565b6000602082019050612cea6000830184612921565b92915050565b6000608082019050612d056000830187612921565b612d126020830186612921565b612d1f6040830185612ca2565b8181036060830152612d3181846129ac565b905095945050505050565b60006020820190508181036000830152612d568184612930565b905092915050565b6000602082019050612d73600083018461298e565b92915050565b60006020820190508181036000830152612d9381846129e5565b905092915050565b60006020820190508181036000830152612db481612a4f565b9050919050565b60006020820190508181036000830152612dd481612a72565b9050919050565b60006020820190508181036000830152612df481612a95565b9050919050565b60006020820190508181036000830152612e1481612ab8565b9050919050565b60006020820190508181036000830152612e3481612adb565b9050919050565b60006020820190508181036000830152612e5481612afe565b9050919050565b60006020820190508181036000830152612e7481612b21565b9050919050565b60006020820190508181036000830152612e9481612b44565b9050919050565b60006020820190508181036000830152612eb481612b67565b9050919050565b60006020820190508181036000830152612ed481612b8a565b9050919050565b60006020820190508181036000830152612ef481612bad565b9050919050565b60006020820190508181036000830152612f1481612bd0565b9050919050565b60006020820190508181036000830152612f3481612bf3565b9050919050565b60006020820190508181036000830152612f5481612c39565b9050919050565b60006020820190508181036000830152612f7481612c5c565b9050919050565b60006020820190508181036000830152612f9481612c7f565b9050919050565b6000602082019050612fb06000830184612ca2565b92915050565b6000604082019050612fcb6000830185612ca2565b8181036020830152612fdd81846129e5565b90509392505050565b6000604082019050612ffb6000830184612ca2565b818103602083015261300c81612c16565b905092915050565b600061301e61302f565b905061302a82826132c4565b919050565b6000604051905090565b600067ffffffffffffffff821115613054576130536133fc565b5b61305d8261342b565b9050602081019050919050565b600067ffffffffffffffff821115613085576130846133fc565b5b61308e8261342b565b9050602081019050919050565b6000819050602082019050919050565b600081519050919050565b600081519050919050565b600081519050919050565b6000602082019050919050565b600082825260208201905092915050565b600082825260208201905092915050565b600082825260208201905092915050565b600081905092915050565b600061312282613246565b915061312d83613246565b9250827fffffffffffffffffffffffffffffffffffffffffffffffffffffffffffffffff038211156131625761316161336f565b5b828201905092915050565b600061317882613246565b915061318383613246565b9250826131935761319261339e565b5b828204905092915050565b60006131a982613246565b91506131b483613246565b9250828210156131c7576131c661336f565b5b828203905092915050565b60006131dd82613226565b9050919050565b60008115159050919050565b6000819050919050565b60007fffffffff0000000000000000000000000000000000000000000000000000000082169050919050565b600073ffffffffffffffffffffffffffffffffffffffff82169050919050565b6000819050919050565b82818337600083830152505050565b60005b8381101561327d578082015181840152602081019050613262565b8381111561328c576000848401525b50505050565b600060028204905060018216806132aa57607f821691505b602082108114156132be576132bd6133cd565b5b50919050565b6132cd8261342b565b810181811067ffffffffffffffff821117156132ec576132eb6133fc565b5b80604052505050565b600061330082613246565b91507fffffffffffffffffffffffffffffffffffffffffffffffffffffffffffffffff8214156133335761333261336f565b5b600182019050919050565b600061334982613246565b915061335483613246565b9250826133645761336361339e565b5b828206905092915050565b7f4e487b7100000000000000000000000000000000000000000000000000000000600052601160045260246000fd5b7f4e487b7100000000000000000000000000000000000000000000000000000000600052601260045260246000fd5b7f4e487b7100000000000000000000000000000000000000000000000000000000600052602260045260246000fd5b7f4e487b7100000000000000000000000000000000000000000000000000000000600052604160045260246000fd5b6000601f19601f8301169050919050565b7f4552433732313a207472616e7366657220746f206e6f6e20455243373231526560008201527f63656976657220696d706c656d656e7465720000000000000000000000000000602082015250565b7f4f776e61626c653a206e6577206f776e657220697320746865207a65726f206160008201527f6464726573730000000000000000000000000000000000000000000000000000602082015250565b7f4552433732313a207472616e736665722066726f6d20696e636f72726563742060008201527f6f776e6572000000000000000000000000000000000000000000000000000000602082015250565b7f4552433732313a20746f6b656e20616c7265616479206d696e74656400000000600082015250565b7f4552433732313a207472616e7366657220746f20746865207a65726f2061646460008201527f7265737300000000000000000000000000000000000000000000000000000000602082015250565b7f4552433732313a20617070726f766520746f2063616c6c657200000000000000600082015250565b7f4552433732313a2061646472657373207a65726f206973206e6f74206120766160008201527f6c6964206f776e65720000000000000000000000000000000000000000000000602082015250565b7f63616c6c6572206973206e6f7420746865206f70657261746f72730000000000600082015250565b7f4552433732313a20617070726f76652063616c6c6572206973206e6f7420746f60008201527f6b656e206f776e6572206e6f7220617070726f76656420666f7220616c6c0000602082015250565b7f4552433732313a206d696e7420746f20746865207a65726f2061646472657373600082015250565b7f4f776e61626c653a2063616c6c6572206973206e6f7420746865206f776e6572600082015250565b7f4552433732313a20696e76616c696420746f6b656e2049440000000000000000600082015250565b7f4552433732313a20617070726f76616c20746f2063757272656e74206f776e6560008201527f7200000000000000000000000000000000000000000000000000000000000000602082015250565b50565b7f4552433732313a207472616e736665722063616c6c6572206973206e6f74206f60008201527f776e6572206e6f7220617070726f766564000000000000000000000000000000602082015250565b7f496e76616c696420626f78494400000000000000000000000000000000000000600082015250565b7f4552433732313a2063616c6c6572206973206e6f7420746f6b656e206f776e6560008201527f72206e6f7220617070726f766564000000000000000000000000000000000000602082015250565b61382e816131d2565b811461383957600080fd5b50565b613845816131e4565b811461385057600080fd5b50565b61385c816131fa565b811461386757600080fd5b50565b61387381613246565b811461387e57600080fd5b5056fea2646970667358221220ea584167a1c9356a85290be7821ce82f12931814e2f88ab11a4ffa487e54f0ed64736f6c63430008040033",
  "linkReferences": {},
  "deployedLinkReferences": {}
}