{
  "_format": "hh-sol-artifact-1",
  "contractName": "BeFitterBoxShop",
  "sourceName": "contracts/BFBoxShop.sol",
  "abi": [
    {
      "inputs": [
        {
          "internalType": "contract IERC721",
          "name": "boxAddress",
          "type": "address"
        }
      ],
      "stateMutability": "nonpayable",
      "type": "constructor"
    },
    {
      "anonymous": false,
      "inputs": [
        {
          "indexed": true,
          "internalType": "address",
          "name": "to",
          "type": "address"
        },
        {
          "indexed": false,
          "internalType": "uint256",
          "name": "amount",
          "type": "uint256"
        }
      ],
      "name": "BNBWithdrawn",
      "type": "event"
    },
    {
      "anonymous": false,
      "inputs": [
        {
          "indexed": true,
          "internalType": "address",
          "name": "purchaser",
          "type": "address"
        },
        {
          "indexed": true,
          "internalType": "address",
          "name": "tokenAddress",
          "type": "address"
        },
        {
          "indexed": false,
          "internalType": "uint256",
          "name": "boxId",
          "type": "uint256"
        },
        {
          "indexed": false,
          "internalType": "uint256",
          "name": "price",
          "type": "uint256"
        }
      ],
      "name": "BoxPurchased",
      "type": "event"
    },
    {
      "anonymous": false,
      "inputs": [
        {
          "indexed": true,
          "internalType": "address",
          "name": "previousOwner",
          "type": "address"
        },
        {
          "indexed": true,
          "internalType": "address",
          "name": "newOwner",
          "type": "address"
        }
      ],
      "name": "OwnershipTransferred",
      "type": "event"
    },
    {
      "anonymous": false,
      "inputs": [
        {
          "indexed": true,
          "internalType": "address",
          "name": "to",
          "type": "address"
        },
        {
          "indexed": true,
          "internalType": "address",
          "name": "tokenAddress",
          "type": "address"
        },
        {
          "indexed": false,
          "internalType": "uint256",
          "name": "amount",
          "type": "uint256"
        }
      ],
      "name": "TokenWithdrawn",
      "type": "event"
    },
    {
      "inputs": [],
      "name": "closeShop",
      "outputs": [],
      "stateMutability": "nonpayable",
      "type": "function"
    },
    {
      "inputs": [
        {
          "internalType": "string",
          "name": "boxType",
          "type": "string"
        }
      ],
      "name": "getAvailableBox",
      "outputs": [
        {
          "internalType": "uint256",
          "name": "",
          "type": "uint256"
        }
      ],
      "stateMutability": "view",
      "type": "function"
    },
    {
      "inputs": [
        {
          "internalType": "string",
          "name": "boxType",
          "type": "string"
        },
        {
          "internalType": "address",
          "name": "tokenAddress",
          "type": "address"
        }
      ],
      "name": "getBoxPrice",
      "outputs": [
        {
          "internalType": "uint256",
          "name": "",
          "type": "uint256"
        }
      ],
      "stateMutability": "view",
      "type": "function"
    },
    {
      "inputs": [
        {
          "internalType": "string",
          "name": "boxType",
          "type": "string"
        }
      ],
      "name": "getMaxPurchasableBoxes",
      "outputs": [
        {
          "internalType": "uint256",
          "name": "",
          "type": "uint256"
        }
      ],
      "stateMutability": "view",
      "type": "function"
    },
    {
      "inputs": [
        {
          "internalType": "address",
          "name": "operator",
          "type": "address"
        }
      ],
      "name": "isOperator",
      "outputs": [
        {
          "internalType": "bool",
          "name": "",
          "type": "bool"
        }
      ],
      "stateMutability": "view",
      "type": "function"
    },
    {
      "inputs": [
        {
          "internalType": "string",
          "name": "boxType",
          "type": "string"
        },
        {
          "internalType": "uint256",
          "name": "startId",
          "type": "uint256"
        },
        {
          "internalType": "uint256",
          "name": "quantity",
          "type": "uint256"
        }
      ],
      "name": "listItemForSale",
      "outputs": [],
      "stateMutability": "nonpayable",
      "type": "function"
    },
    {
      "inputs": [
        {
          "internalType": "address",
          "name": "",
          "type": "address"
        },
        {
          "internalType": "address",
          "name": "",
          "type": "address"
        },
        {
          "internalType": "uint256",
          "name": "",
          "type": "uint256"
        },
        {
          "internalType": "bytes",
          "name": "",
          "type": "bytes"
        }
      ],
      "name": "onERC721Received",
      "outputs": [
        {
          "internalType": "bytes4",
          "name": "",
          "type": "bytes4"
        }
      ],
      "stateMutability": "nonpayable",
      "type": "function"
    },
    {
      "inputs": [],
      "name": "openShop",
      "outputs": [],
      "stateMutability": "nonpayable",
      "type": "function"
    },
    {
      "inputs": [],
      "name": "owner",
      "outputs": [
        {
          "internalType": "address",
          "name": "",
          "type": "address"
        }
      ],
      "stateMutability": "view",
      "type": "function"
    },
    {
      "inputs": [
        {
          "internalType": "string",
          "name": "boxType",
          "type": "string"
        }
      ],
      "name": "purchaseBoxByBNB",
      "outputs": [],
      "stateMutability": "payable",
      "type": "function"
    },
    {
      "inputs": [
        {
          "internalType": "string",
          "name": "boxType",
          "type": "string"
        },
        {
          "internalType": "address",
          "name": "tokenAddress",
          "type": "address"
        }
      ],
      "name": "purchaseBoxByToken",
      "outputs": [],
      "stateMutability": "nonpayable",
      "type": "function"
    },
    {
      "inputs": [
        {
          "internalType": "address",
          "name": "operator",
          "type": "address"
        }
      ],
      "name": "removeOperator",
      "outputs": [],
      "stateMutability": "nonpayable",
      "type": "function"
    },
    {
      "inputs": [],
      "name": "renounceOwnership",
      "outputs": [],
      "stateMutability": "nonpayable",
      "type": "function"
    },
    {
      "inputs": [
        {
          "internalType": "string",
          "name": "boxType",
          "type": "string"
        },
        {
          "internalType": "uint256",
          "name": "quantity",
          "type": "uint256"
        }
      ],
      "name": "setMaxPurchasableBoxes",
      "outputs": [],
      "stateMutability": "nonpayable",
      "type": "function"
    },
    {
      "inputs": [
        {
          "internalType": "address",
          "name": "operator",
          "type": "address"
        }
      ],
      "name": "setOperator",
      "outputs": [],
      "stateMutability": "nonpayable",
      "type": "function"
    },
    {
      "inputs": [
        {
          "internalType": "string",
          "name": "boxType",
          "type": "string"
        },
        {
          "internalType": "address",
          "name": "tokenAddress",
          "type": "address"
        },
        {
          "internalType": "uint256",
          "name": "price",
          "type": "uint256"
        }
      ],
      "name": "setPrice",
      "outputs": [],
      "stateMutability": "nonpayable",
      "type": "function"
    },
    {
      "inputs": [
        {
          "internalType": "address",
          "name": "newOwner",
          "type": "address"
        }
      ],
      "name": "transferOwnership",
      "outputs": [],
      "stateMutability": "nonpayable",
      "type": "function"
    },
    {
      "inputs": [
        {
          "internalType": "address",
          "name": "to",
          "type": "address"
        }
      ],
      "name": "withdrawAllBNB",
      "outputs": [],
      "stateMutability": "nonpayable",
      "type": "function"
    },
    {
      "inputs": [
        {
          "internalType": "address",
          "name": "to",
          "type": "address"
        },
        {
          "internalType": "contract IERC20",
          "name": "tokenAddress",
          "type": "address"
        }
      ],
      "name": "withdrawAllToken",
      "outputs": [],
      "stateMutability": "nonpayable",
      "type": "function"
    },
    {
      "inputs": [
        {
          "internalType": "address",
          "name": "to",
          "type": "address"
        },
        {
          "internalType": "uint256",
          "name": "amount",
          "type": "uint256"
        }
      ],
      "name": "withdrawBNB",
      "outputs": [],
      "stateMutability": "nonpayable",
      "type": "function"
    },
    {
      "inputs": [
        {
          "internalType": "address",
          "name": "to",
          "type": "address"
        },
        {
          "internalType": "contract IERC20",
          "name": "tokenAddress",
          "type": "address"
        },
        {
          "internalType": "uint256",
          "name": "amount",
          "type": "uint256"
        }
      ],
      "name": "withdrawToken",
      "outputs": [],
      "stateMutability": "nonpayable",
      "type": "function"
    }
  ],
  "bytecode": "0x60806040523480156200001157600080fd5b506040516200331a3803806200331a83398181016040528101906200003791906200024b565b620000576200004b6200016860201b60201c565b6200017060201b60201c565b60018060003373ffffffffffffffffffffffffffffffffffffffff1673ffffffffffffffffffffffffffffffffffffffff16815260200190815260200160002060006101000a81548160ff02191690831515021790555080600260006101000a81548173ffffffffffffffffffffffffffffffffffffffff021916908373ffffffffffffffffffffffffffffffffffffffff16021790555060018060003373ffffffffffffffffffffffffffffffffffffffff1673ffffffffffffffffffffffffffffffffffffffff16815260200190815260200160002060006101000a81548160ff0219169083151502179055506000600260146101000a81548160ff02191690831515021790555050620002d9565b600033905090565b60008060009054906101000a900473ffffffffffffffffffffffffffffffffffffffff169050816000806101000a81548173ffffffffffffffffffffffffffffffffffffffff021916908373ffffffffffffffffffffffffffffffffffffffff1602179055508173ffffffffffffffffffffffffffffffffffffffff168173ffffffffffffffffffffffffffffffffffffffff167f8be0079c531659141344cd1fd0a4f28419497f9722a3daafe3b4186f6b6457e060405160405180910390a35050565b6000815190506200024581620002bf565b92915050565b6000602082840312156200025e57600080fd5b60006200026e8482850162000234565b91505092915050565b600062000284826200029f565b9050919050565b6000620002988262000277565b9050919050565b600073ffffffffffffffffffffffffffffffffffffffff82169050919050565b620002ca816200028b565b8114620002d657600080fd5b50565b61303180620002e96000396000f3fe60806040526004361061012a5760003560e01c8063900d65be116100ab578063ac8a584a1161006f578063ac8a584a146103a5578063b3ab15fb146103ce578063b3be3e6f146103f7578063c2e095c114610420578063f2fde38b14610449578063f69d8b6f146104725761012a565b8063900d65be146103095780639751ae57146103325780639b6dbc8a1461034e578063a6f5a22b14610365578063a97af1f21461037c5761012a565b80634531dd39116100f25780634531dd391461022457806349956265146102615780636d70f7ae1461028a578063715018a6146102c75780638da5cb5b146102de5761012a565b806301e336671461012f578063150b7a021461015857806319bf5922146101955780631eaa0458146101be5780633aeebedb146101fb575b600080fd5b34801561013b57600080fd5b5061015660048036038101906101519190612376565b6104af565b005b34801561016457600080fd5b5061017f600480360381019061017a91906122bf565b610629565b60405161018c9190612900565b60405180910390f35b3480156101a157600080fd5b506101bc60048036038101906101b79190612296565b61063d565b005b3480156101ca57600080fd5b506101e560048036038101906101e0919061246b565b6107bd565b6040516101f29190612a9b565b60405180910390f35b34801561020757600080fd5b50610222600480360381019061021d919061233a565b6108bb565b005b34801561023057600080fd5b5061024b6004803603810190610246919061242a565b610ac2565b6040516102589190612a9b565b60405180910390f35b34801561026d57600080fd5b506102886004803603810190610283919061257a565b610aea565b005b34801561029657600080fd5b506102b160048036038101906102ac9190612296565b610d03565b6040516102be91906128e5565b60405180910390f35b3480156102d357600080fd5b506102dc610d59565b005b3480156102ea57600080fd5b506102f3610de1565b604051610300919061286a565b60405180910390f35b34801561031557600080fd5b50610330600480360381019061032b919061246b565b610e0a565b005b61034c6004803603810190610347919061242a565b611322565b005b34801561035a57600080fd5b5061036361186f565b005b34801561037157600080fd5b5061037a611918565b005b34801561038857600080fd5b506103a3600480360381019061039e91906123c5565b6119c1565b005b3480156103b157600080fd5b506103cc60048036038101906103c79190612296565b611b85565b005b3480156103da57600080fd5b506103f560048036038101906103f09190612296565b611c5c565b005b34801561040357600080fd5b5061041e600480360381019061041991906124bf565b611d32565b005b34801561042c57600080fd5b5061044760048036038101906104429190612526565b611ebe565b005b34801561045557600080fd5b50610470600480360381019061046b9190612296565b611f71565b005b34801561047e57600080fd5b506104996004803603810190610494919061242a565b612069565b6040516104a69190612a9b565b60405180910390f35b6104b7612091565b73ffffffffffffffffffffffffffffffffffffffff166104d5610de1565b73ffffffffffffffffffffffffffffffffffffffff161461052b576040517f08c379a0000000000000000000000000000000000000000000000000000000008152600401610522906129db565b60405180910390fd5b60008290508073ffffffffffffffffffffffffffffffffffffffff1663a9059cbb85846040518363ffffffff1660e01b815260040161056b9291906128bc565b602060405180830381600087803b15801561058557600080fd5b505af1158015610599573d6000803e3d6000fd5b505050506040513d601f19601f820116820180604052508101906105bd9190612401565b508273ffffffffffffffffffffffffffffffffffffffff168473ffffffffffffffffffffffffffffffffffffffff167f8210728e7c071f615b840ee026032693858fbcd5e5359e67e438c890f59e56208460405161061b9190612a9b565b60405180910390a350505050565b600063150b7a0260e01b9050949350505050565b610645612091565b73ffffffffffffffffffffffffffffffffffffffff16610663610de1565b73ffffffffffffffffffffffffffffffffffffffff16146106b9576040517f08c379a00000000000000000000000000000000000000000000000000000000081526004016106b0906129db565b60405180910390fd5b600047905060008273ffffffffffffffffffffffffffffffffffffffff16826040516106e490612855565b60006040518083038185875af1925050503d8060008114610721576040519150601f19603f3d011682016040523d82523d6000602084013e610726565b606091505b505090508061076a576040517f08c379a00000000000000000000000000000000000000000000000000000000081526004016107619061291b565b60405180910390fd5b8273ffffffffffffffffffffffffffffffffffffffff167f977cffdd1e736a78cafc6845d6dca2d64c79fb1f650a8bdec1a9b5046ea47d45836040516107b09190612a9b565b60405180910390a2505050565b60008073ffffffffffffffffffffffffffffffffffffffff168273ffffffffffffffffffffffffffffffffffffffff16141561085657600383604051610803919061283e565b908152602001604051809103902060008073ffffffffffffffffffffffffffffffffffffffff1673ffffffffffffffffffffffffffffffffffffffff1681526020019081526020016000205490506108b5565b600383604051610866919061283e565b908152602001604051809103902060008373ffffffffffffffffffffffffffffffffffffffff1673ffffffffffffffffffffffffffffffffffffffff1681526020019081526020016000205490505b92915050565b6108c3612091565b73ffffffffffffffffffffffffffffffffffffffff166108e1610de1565b73ffffffffffffffffffffffffffffffffffffffff1614610937576040517f08c379a000000000000000000000000000000000000000000000000000000000815260040161092e906129db565b60405180910390fd5b600081905060008173ffffffffffffffffffffffffffffffffffffffff166370a08231306040518263ffffffff1660e01b8152600401610977919061286a565b60206040518083038186803b15801561098f57600080fd5b505afa1580156109a3573d6000803e3d6000fd5b505050506040513d601f19601f820116820180604052508101906109c791906125e1565b90508173ffffffffffffffffffffffffffffffffffffffff1663a9059cbb85836040518363ffffffff1660e01b8152600401610a049291906128bc565b602060405180830381600087803b158015610a1e57600080fd5b505af1158015610a32573d6000803e3d6000fd5b505050506040513d601f19601f82011682018060405250810190610a569190612401565b508273ffffffffffffffffffffffffffffffffffffffff168473ffffffffffffffffffffffffffffffffffffffff167f8210728e7c071f615b840ee026032693858fbcd5e5359e67e438c890f59e562083604051610ab49190612a9b565b60405180910390a350505050565b6000600682604051610ad4919061283e565b9081526020016040518091039020549050919050565b600160003373ffffffffffffffffffffffffffffffffffffffff1673ffffffffffffffffffffffffffffffffffffffff16815260200190815260200160002060009054906101000a900460ff16610b76576040517f08c379a0000000000000000000000000000000000000000000000000000000008152600401610b6d906129bb565b60405180910390fd5b60008111610bb9576040517f08c379a0000000000000000000000000000000000000000000000000000000008152600401610bb0906129fb565b60405180910390fd5b80600484604051610bca919061283e565b90815260200160405180910390208190555081600584604051610bed919061283e565b9081526020016040518091039020600060038110610c34577f4e487b7100000000000000000000000000000000000000000000000000000000600052603260045260246000fd5b01819055508082610c459190612b98565b600584604051610c55919061283e565b9081526020016040518091039020600160038110610c9c577f4e487b7100000000000000000000000000000000000000000000000000000000600052603260045260246000fd5b018190555081600584604051610cb2919061283e565b9081526020016040518091039020600260038110610cf9577f4e487b7100000000000000000000000000000000000000000000000000000000600052603260045260246000fd5b0181905550505050565b6000600160008373ffffffffffffffffffffffffffffffffffffffff1673ffffffffffffffffffffffffffffffffffffffff16815260200190815260200160002060009054906101000a900460ff169050919050565b610d61612091565b73ffffffffffffffffffffffffffffffffffffffff16610d7f610de1565b73ffffffffffffffffffffffffffffffffffffffff1614610dd5576040517f08c379a0000000000000000000000000000000000000000000000000000000008152600401610dcc906129db565b60405180910390fd5b610ddf6000612099565b565b60008060009054906101000a900473ffffffffffffffffffffffffffffffffffffffff16905090565b600260149054906101000a900460ff16610e59576040517f08c379a0000000000000000000000000000000000000000000000000000000008152600401610e509061297b565b60405180910390fd5b6000600483604051610e6b919061283e565b90815260200160405180910390205411610eba576040517f08c379a0000000000000000000000000000000000000000000000000000000008152600401610eb19061299b565b60405180910390fd5b6000600383604051610ecc919061283e565b908152602001604051809103902060008373ffffffffffffffffffffffffffffffffffffffff1673ffffffffffffffffffffffffffffffffffffffff16815260200190815260200160002054905060008111610f5d576040517f08c379a0000000000000000000000000000000000000000000000000000000008152600401610f5490612a3b565b60405180910390fd5b600683604051610f6d919061283e565b908152602001604051809103902054600760003373ffffffffffffffffffffffffffffffffffffffff1673ffffffffffffffffffffffffffffffffffffffff16815260200190815260200160002084604051610fc9919061283e565b90815260200160405180910390205410611018576040517f08c379a000000000000000000000000000000000000000000000000000000000815260040161100f90612a5b565b60405180910390fd5b600060058460405161102a919061283e565b9081526020016040518091039020600260038110611071577f4e487b7100000000000000000000000000000000000000000000000000000000600052603260045260246000fd5b015490506001600485604051611087919061283e565b908152602001604051809103902060008282546110a49190612bee565b9250508190555060016005856040516110bd919061283e565b9081526020016040518091039020600260038110611104577f4e487b7100000000000000000000000000000000000000000000000000000000600052603260045260246000fd5b0160008282546111149190612b98565b925050819055506001600760003373ffffffffffffffffffffffffffffffffffffffff1673ffffffffffffffffffffffffffffffffffffffff1681526020019081526020016000208560405161116a919061283e565b908152602001604051809103902060008282546111879190612b98565b9250508190555060008390508073ffffffffffffffffffffffffffffffffffffffff166323b872dd3330866040518463ffffffff1660e01b81526004016111d093929190612885565b602060405180830381600087803b1580156111ea57600080fd5b505af11580156111fe573d6000803e3d6000fd5b505050506040513d601f19601f820116820180604052508101906112229190612401565b50600260009054906101000a900473ffffffffffffffffffffffffffffffffffffffff1673ffffffffffffffffffffffffffffffffffffffff166342842e0e3033856040518463ffffffff1660e01b815260040161128293929190612885565b600060405180830381600087803b15801561129c57600080fd5b505af11580156112b0573d6000803e3d6000fd5b505050508373ffffffffffffffffffffffffffffffffffffffff163373ffffffffffffffffffffffffffffffffffffffff167f765e87835f3b12cf5363a474d6ad548a4c1efcb979a38fa1ce8ae73403c0e52a8486604051611313929190612ab6565b60405180910390a35050505050565b600260149054906101000a900460ff16611371576040517f08c379a00000000000000000000000000000000000000000000000000000000081526004016113689061297b565b60405180910390fd5b6000600482604051611383919061283e565b908152602001604051809103902054116113d2576040517f08c379a00000000000000000000000000000000000000000000000000000000081526004016113c990612a1b565b60405180910390fd5b60006003826040516113e4919061283e565b908152602001604051809103902060008073ffffffffffffffffffffffffffffffffffffffff1673ffffffffffffffffffffffffffffffffffffffff16815260200190815260200160002054905060008111611475576040517f08c379a000000000000000000000000000000000000000000000000000000000815260040161146c90612a3b565b60405180910390fd5b8034101561148257600080fd5b600682604051611492919061283e565b908152602001604051809103902054600760003373ffffffffffffffffffffffffffffffffffffffff1673ffffffffffffffffffffffffffffffffffffffff168152602001908152602001600020836040516114ee919061283e565b9081526020016040518091039020541061153d576040517f08c379a000000000000000000000000000000000000000000000000000000000815260040161153490612a5b565b60405180910390fd5b600060058360405161154f919061283e565b9081526020016040518091039020600260038110611596577f4e487b7100000000000000000000000000000000000000000000000000000000600052603260045260246000fd5b0154905060016004846040516115ac919061283e565b908152602001604051809103902060008282546115c99190612bee565b9250508190555060016005846040516115e2919061283e565b9081526020016040518091039020600260038110611629577f4e487b7100000000000000000000000000000000000000000000000000000000600052603260045260246000fd5b0160008282546116399190612b98565b925050819055506001600760003373ffffffffffffffffffffffffffffffffffffffff1673ffffffffffffffffffffffffffffffffffffffff1681526020019081526020016000208460405161168f919061283e565b908152602001604051809103902060008282546116ac9190612b98565b92505081905550600082346116c19190612bee565b9050600260009054906101000a900473ffffffffffffffffffffffffffffffffffffffff1673ffffffffffffffffffffffffffffffffffffffff166342842e0e3033856040518463ffffffff1660e01b815260040161172293929190612885565b600060405180830381600087803b15801561173c57600080fd5b505af1158015611750573d6000803e3d6000fd5b5050505060003373ffffffffffffffffffffffffffffffffffffffff168260405161177a90612855565b60006040518083038185875af1925050503d80600081146117b7576040519150601f19603f3d011682016040523d82523d6000602084013e6117bc565b606091505b5050905080611800576040517f08c379a00000000000000000000000000000000000000000000000000000000081526004016117f790612a7b565b60405180910390fd5b600073ffffffffffffffffffffffffffffffffffffffff163373ffffffffffffffffffffffffffffffffffffffff167f765e87835f3b12cf5363a474d6ad548a4c1efcb979a38fa1ce8ae73403c0e52a8587604051611860929190612ab6565b60405180910390a35050505050565b600160003373ffffffffffffffffffffffffffffffffffffffff1673ffffffffffffffffffffffffffffffffffffffff16815260200190815260200160002060009054906101000a900460ff166118fb576040517f08c379a00000000000000000000000000000000000000000000000000000000081526004016118f2906129bb565b60405180910390fd5b6000600260146101000a81548160ff021916908315150217905550565b600160003373ffffffffffffffffffffffffffffffffffffffff1673ffffffffffffffffffffffffffffffffffffffff16815260200190815260200160002060009054906101000a900460ff166119a4576040517f08c379a000000000000000000000000000000000000000000000000000000000815260040161199b906129bb565b60405180910390fd5b6001600260146101000a81548160ff021916908315150217905550565b6119c9612091565b73ffffffffffffffffffffffffffffffffffffffff166119e7610de1565b73ffffffffffffffffffffffffffffffffffffffff1614611a3d576040517f08c379a0000000000000000000000000000000000000000000000000000000008152600401611a34906129db565b60405180910390fd5b600047905080821115611a85576040517f08c379a0000000000000000000000000000000000000000000000000000000008152600401611a7c9061293b565b60405180910390fd5b60008373ffffffffffffffffffffffffffffffffffffffff1683604051611aab90612855565b60006040518083038185875af1925050503d8060008114611ae8576040519150601f19603f3d011682016040523d82523d6000602084013e611aed565b606091505b5050905080611b31576040517f08c379a0000000000000000000000000000000000000000000000000000000008152600401611b289061291b565b60405180910390fd5b8373ffffffffffffffffffffffffffffffffffffffff167f977cffdd1e736a78cafc6845d6dca2d64c79fb1f650a8bdec1a9b5046ea47d4584604051611b779190612a9b565b60405180910390a250505050565b611b8d612091565b73ffffffffffffffffffffffffffffffffffffffff16611bab610de1565b73ffffffffffffffffffffffffffffffffffffffff1614611c01576040517f08c379a0000000000000000000000000000000000000000000000000000000008152600401611bf8906129db565b60405180910390fd5b6000600160008373ffffffffffffffffffffffffffffffffffffffff1673ffffffffffffffffffffffffffffffffffffffff16815260200190815260200160002060006101000a81548160ff02191690831515021790555050565b611c64612091565b73ffffffffffffffffffffffffffffffffffffffff16611c82610de1565b73ffffffffffffffffffffffffffffffffffffffff1614611cd8576040517f08c379a0000000000000000000000000000000000000000000000000000000008152600401611ccf906129db565b60405180910390fd5b60018060008373ffffffffffffffffffffffffffffffffffffffff1673ffffffffffffffffffffffffffffffffffffffff16815260200190815260200160002060006101000a81548160ff02191690831515021790555050565b600160003373ffffffffffffffffffffffffffffffffffffffff1673ffffffffffffffffffffffffffffffffffffffff16815260200190815260200160002060009054906101000a900460ff16611dbe576040517f08c379a0000000000000000000000000000000000000000000000000000000008152600401611db5906129bb565b60405180910390fd5b600073ffffffffffffffffffffffffffffffffffffffff168273ffffffffffffffffffffffffffffffffffffffff161415611e585780600384604051611e04919061283e565b908152602001604051809103902060008073ffffffffffffffffffffffffffffffffffffffff1673ffffffffffffffffffffffffffffffffffffffff16815260200190815260200160002081905550611eb9565b80600384604051611e69919061283e565b908152602001604051809103902060008473ffffffffffffffffffffffffffffffffffffffff1673ffffffffffffffffffffffffffffffffffffffff168152602001908152602001600020819055505b505050565b600160003373ffffffffffffffffffffffffffffffffffffffff1673ffffffffffffffffffffffffffffffffffffffff16815260200190815260200160002060009054906101000a900460ff16611f4a576040517f08c379a0000000000000000000000000000000000000000000000000000000008152600401611f41906129bb565b60405180910390fd5b80600683604051611f5b919061283e565b9081526020016040518091039020819055505050565b611f79612091565b73ffffffffffffffffffffffffffffffffffffffff16611f97610de1565b73ffffffffffffffffffffffffffffffffffffffff1614611fed576040517f08c379a0000000000000000000000000000000000000000000000000000000008152600401611fe4906129db565b60405180910390fd5b600073ffffffffffffffffffffffffffffffffffffffff168173ffffffffffffffffffffffffffffffffffffffff16141561205d576040517f08c379a00000000000000000000000000000000000000000000000000000000081526004016120549061295b565b60405180910390fd5b61206681612099565b50565b600060048260405161207b919061283e565b9081526020016040518091039020549050919050565b600033905090565b60008060009054906101000a900473ffffffffffffffffffffffffffffffffffffffff169050816000806101000a81548173ffffffffffffffffffffffffffffffffffffffff021916908373ffffffffffffffffffffffffffffffffffffffff1602179055508173ffffffffffffffffffffffffffffffffffffffff168173ffffffffffffffffffffffffffffffffffffffff167f8be0079c531659141344cd1fd0a4f28419497f9722a3daafe3b4186f6b6457e060405160405180910390a35050565b600061217061216b84612b04565b612adf565b90508281526020810184848401111561218857600080fd5b612193848285612ca8565b509392505050565b60006121ae6121a984612b35565b612adf565b9050828152602081018484840111156121c657600080fd5b6121d1848285612ca8565b509392505050565b6000813590506121e881612f9f565b92915050565b6000815190506121fd81612fb6565b92915050565b600082601f83011261221457600080fd5b813561222484826020860161215d565b91505092915050565b60008135905061223c81612fcd565b92915050565b600082601f83011261225357600080fd5b813561226384826020860161219b565b91505092915050565b60008135905061227b81612fe4565b92915050565b60008151905061229081612fe4565b92915050565b6000602082840312156122a857600080fd5b60006122b6848285016121d9565b91505092915050565b600080600080608085870312156122d557600080fd5b60006122e3878288016121d9565b94505060206122f4878288016121d9565b93505060406123058782880161226c565b925050606085013567ffffffffffffffff81111561232257600080fd5b61232e87828801612203565b91505092959194509250565b6000806040838503121561234d57600080fd5b600061235b858286016121d9565b925050602061236c8582860161222d565b9150509250929050565b60008060006060848603121561238b57600080fd5b6000612399868287016121d9565b93505060206123aa8682870161222d565b92505060406123bb8682870161226c565b9150509250925092565b600080604083850312156123d857600080fd5b60006123e6858286016121d9565b92505060206123f78582860161226c565b9150509250929050565b60006020828403121561241357600080fd5b6000612421848285016121ee565b91505092915050565b60006020828403121561243c57600080fd5b600082013567ffffffffffffffff81111561245657600080fd5b61246284828501612242565b91505092915050565b6000806040838503121561247e57600080fd5b600083013567ffffffffffffffff81111561249857600080fd5b6124a485828601612242565b92505060206124b5858286016121d9565b9150509250929050565b6000806000606084860312156124d457600080fd5b600084013567ffffffffffffffff8111156124ee57600080fd5b6124fa86828701612242565b935050602061250b868287016121d9565b925050604061251c8682870161226c565b9150509250925092565b6000806040838503121561253957600080fd5b600083013567ffffffffffffffff81111561255357600080fd5b61255f85828601612242565b92505060206125708582860161226c565b9150509250929050565b60008060006060848603121561258f57600080fd5b600084013567ffffffffffffffff8111156125a957600080fd5b6125b586828701612242565b93505060206125c68682870161226c565b92505060406125d78682870161226c565b9150509250925092565b6000602082840312156125f357600080fd5b600061260184828501612281565b91505092915050565b61261381612c22565b82525050565b61262281612c34565b82525050565b61263181612c40565b82525050565b600061264282612b66565b61264c8185612b8d565b935061265c818560208601612cb7565b80840191505092915050565b6000612675601683612b7c565b915061268082612d8a565b602082019050919050565b6000612698601f83612b7c565b91506126a382612db3565b602082019050919050565b60006126bb602683612b7c565b91506126c682612ddc565b604082019050919050565b60006126de601483612b7c565b91506126e982612e2b565b602082019050919050565b6000612701601883612b7c565b915061270c82612e54565b602082019050919050565b6000612724601b83612b7c565b915061272f82612e7d565b602082019050919050565b6000612747602083612b7c565b915061275282612ea6565b602082019050919050565b600061276a601983612b7c565b915061277582612ecf565b602082019050919050565b600061278d600083612b71565b915061279882612ef8565b600082019050919050565b60006127b0600d83612b7c565b91506127bb82612efb565b602082019050919050565b60006127d3601683612b7c565b91506127de82612f24565b602082019050919050565b60006127f6600f83612b7c565b915061280182612f4d565b602082019050919050565b6000612819600d83612b7c565b915061282482612f76565b602082019050919050565b61283881612c9e565b82525050565b600061284a8284612637565b915081905092915050565b600061286082612780565b9150819050919050565b600060208201905061287f600083018461260a565b92915050565b600060608201905061289a600083018661260a565b6128a7602083018561260a565b6128b4604083018461282f565b949350505050565b60006040820190506128d1600083018561260a565b6128de602083018461282f565b9392505050565b60006020820190506128fa6000830184612619565b92915050565b60006020820190506129156000830184612628565b92915050565b6000602082019050818103600083015261293481612668565b9050919050565b600060208201905081810360008301526129548161268b565b9050919050565b60006020820190508181036000830152612974816126ae565b9050919050565b60006020820190508181036000830152612994816126d1565b9050919050565b600060208201905081810360008301526129b4816126f4565b9050919050565b600060208201905081810360008301526129d481612717565b9050919050565b600060208201905081810360008301526129f48161273a565b9050919050565b60006020820190508181036000830152612a148161275d565b9050919050565b60006020820190508181036000830152612a34816127a3565b9050919050565b60006020820190508181036000830152612a54816127c6565b9050919050565b60006020820190508181036000830152612a74816127e9565b9050919050565b60006020820190508181036000830152612a948161280c565b9050919050565b6000602082019050612ab0600083018461282f565b92915050565b6000604082019050612acb600083018561282f565b612ad8602083018461282f565b9392505050565b6000612ae9612afa565b9050612af58282612cea565b919050565b6000604051905090565b600067ffffffffffffffff821115612b1f57612b1e612d4a565b5b612b2882612d79565b9050602081019050919050565b600067ffffffffffffffff821115612b5057612b4f612d4a565b5b612b5982612d79565b9050602081019050919050565b600081519050919050565b600081905092915050565b600082825260208201905092915050565b600081905092915050565b6000612ba382612c9e565b9150612bae83612c9e565b9250827fffffffffffffffffffffffffffffffffffffffffffffffffffffffffffffffff03821115612be357612be2612d1b565b5b828201905092915050565b6000612bf982612c9e565b9150612c0483612c9e565b925082821015612c1757612c16612d1b565b5b828203905092915050565b6000612c2d82612c7e565b9050919050565b60008115159050919050565b60007fffffffff0000000000000000000000000000000000000000000000000000000082169050919050565b6000612c7782612c22565b9050919050565b600073ffffffffffffffffffffffffffffffffffffffff82169050919050565b6000819050919050565b82818337600083830152505050565b60005b83811015612cd5578082015181840152602081019050612cba565b83811115612ce4576000848401525b50505050565b612cf382612d79565b810181811067ffffffffffffffff82111715612d1257612d11612d4a565b5b80604052505050565b7f4e487b7100000000000000000000000000000000000000000000000000000000600052601160045260246000fd5b7f4e487b7100000000000000000000000000000000000000000000000000000000600052604160045260246000fd5b6000601f19601f8301169050919050565b7f6661696c656420746f20776974686472617720424e4200000000000000000000600082015250565b7f776974686472617720616d6f756e7420657863656564732062616c616e636500600082015250565b7f4f776e61626c653a206e6577206f776e657220697320746865207a65726f206160008201527f6464726573730000000000000000000000000000000000000000000000000000602082015250565b7f53686f7020697320636c6f73696e67206e6f7721000000000000000000000000600082015250565b7f626f7854797065206973206e6f7420617661696c61626c650000000000000000600082015250565b7f63616c6c6572206973206e6f7420746865206f70657261746f72730000000000600082015250565b7f4f776e61626c653a2063616c6c6572206973206e6f7420746865206f776e6572600082015250565b7f7175616e74697479206d757374206265206e6f6e2d7a65726f00000000000000600082015250565b50565b7f6e6f7420617661696c61626c6500000000000000000000000000000000000000600082015250565b7f7072696365206d757374206265206e6f6e2d7a65726f00000000000000000000600082015250565b7f43616e6e6f7420627579206d6f72650000000000000000000000000000000000600082015250565b7f726566756e64206661696c656400000000000000000000000000000000000000600082015250565b612fa881612c22565b8114612fb357600080fd5b50565b612fbf81612c34565b8114612fca57600080fd5b50565b612fd681612c6c565b8114612fe157600080fd5b50565b612fed81612c9e565b8114612ff857600080fd5b5056fea2646970667358221220dddf6e956e9e4f7b84114450eef65b428355e4e8328f6c07f47db438d025a6e664736f6c63430008040033",
  "linkReferences": {},
  "deployedLinkReferences": {}
}