{
  "_format": "hh-sol-artifact-1",
  "contractName": "BeFitterStaking",
  "sourceName": "contracts/BFStaking.sol",
  "abi": [
    {
      "inputs": [
        {
          "internalType": "address",
          "name": "tokenAddress",
          "type": "address"
        },
        {
          "internalType": "address",
          "name": "rewardItemContract",
          "type": "address"
        }
      ],
      "stateMutability": "nonpayable",
      "type": "constructor"
    },
    {
      "anonymous": false,
      "inputs": [
        {
          "indexed": true,
          "internalType": "address",
          "name": "user",
          "type": "address"
        },
        {
          "indexed": false,
          "internalType": "uint256",
          "name": "tokenId",
          "type": "uint256"
        },
        {
          "indexed": false,
          "internalType": "uint256",
          "name": "amount",
          "type": "uint256"
        }
      ],
      "name": "Claim",
      "type": "event"
    },
    {
      "anonymous": false,
      "inputs": [
        {
          "indexed": true,
          "internalType": "address",
          "name": "previousOwner",
          "type": "address"
        },
        {
          "indexed": true,
          "internalType": "address",
          "name": "newOwner",
          "type": "address"
        }
      ],
      "name": "OwnershipTransferred",
      "type": "event"
    },
    {
      "anonymous": false,
      "inputs": [
        {
          "indexed": true,
          "internalType": "address",
          "name": "user",
          "type": "address"
        },
        {
          "indexed": false,
          "internalType": "uint256",
          "name": "amount",
          "type": "uint256"
        }
      ],
      "name": "Stake",
      "type": "event"
    },
    {
      "anonymous": false,
      "inputs": [
        {
          "indexed": false,
          "internalType": "uint256",
          "name": "startTime",
          "type": "uint256"
        },
        {
          "indexed": false,
          "internalType": "uint256",
          "name": "duration",
          "type": "uint256"
        },
        {
          "indexed": false,
          "internalType": "uint256",
          "name": "rate",
          "type": "uint256"
        }
      ],
      "name": "StartStakingWithPromotion",
      "type": "event"
    },
    {
      "anonymous": false,
      "inputs": [
        {
          "indexed": true,
          "internalType": "address",
          "name": "user",
          "type": "address"
        },
        {
          "indexed": false,
          "internalType": "uint256",
          "name": "amount",
          "type": "uint256"
        }
      ],
      "name": "UnStake",
      "type": "event"
    },
    {
      "anonymous": false,
      "inputs": [
        {
          "indexed": true,
          "internalType": "address",
          "name": "user",
          "type": "address"
        },
        {
          "indexed": false,
          "internalType": "uint256",
          "name": "amount",
          "type": "uint256"
        },
        {
          "indexed": false,
          "internalType": "bool",
          "name": "penalty",
          "type": "bool"
        }
      ],
      "name": "WithdrawStake",
      "type": "event"
    },
    {
      "inputs": [],
      "name": "claimReward",
      "outputs": [],
      "stateMutability": "nonpayable",
      "type": "function"
    },
    {
      "inputs": [],
      "name": "closeStaking",
      "outputs": [],
      "stateMutability": "nonpayable",
      "type": "function"
    },
    {
      "inputs": [],
      "name": "getAmountToEarnPassPerCycle",
      "outputs": [
        {
          "internalType": "uint256",
          "name": "",
          "type": "uint256"
        }
      ],
      "stateMutability": "view",
      "type": "function"
    },
    {
      "inputs": [
        {
          "internalType": "address",
          "name": "user",
          "type": "address"
        }
      ],
      "name": "getClaimableTime",
      "outputs": [
        {
          "internalType": "uint256",
          "name": "",
          "type": "uint256"
        }
      ],
      "stateMutability": "view",
      "type": "function"
    },
    {
      "inputs": [
        {
          "internalType": "address",
          "name": "user",
          "type": "address"
        }
      ],
      "name": "getCurrentProfit",
      "outputs": [
        {
          "internalType": "uint256",
          "name": "",
          "type": "uint256"
        }
      ],
      "stateMutability": "view",
      "type": "function"
    },
    {
      "inputs": [
        {
          "internalType": "address",
          "name": "user",
          "type": "address"
        }
      ],
      "name": "getLastClaimTime",
      "outputs": [
        {
          "internalType": "uint256",
          "name": "",
          "type": "uint256"
        }
      ],
      "stateMutability": "view",
      "type": "function"
    },
    {
      "inputs": [],
      "name": "getMinimumAmount",
      "outputs": [
        {
          "internalType": "uint256",
          "name": "",
          "type": "uint256"
        }
      ],
      "stateMutability": "view",
      "type": "function"
    },
    {
      "inputs": [],
      "name": "getPenaltyRate",
      "outputs": [
        {
          "internalType": "uint256",
          "name": "",
          "type": "uint256"
        }
      ],
      "stateMutability": "view",
      "type": "function"
    },
    {
      "inputs": [
        {
          "internalType": "address",
          "name": "user",
          "type": "address"
        }
      ],
      "name": "getRemainingDelayTime",
      "outputs": [
        {
          "internalType": "uint256",
          "name": "",
          "type": "uint256"
        }
      ],
      "stateMutability": "view",
      "type": "function"
    },
    {
      "inputs": [
        {
          "internalType": "address",
          "name": "user",
          "type": "address"
        }
      ],
      "name": "getStakingAmount",
      "outputs": [
        {
          "internalType": "uint256",
          "name": "",
          "type": "uint256"
        }
      ],
      "stateMutability": "view",
      "type": "function"
    },
    {
      "inputs": [],
      "name": "getTokenAddress",
      "outputs": [
        {
          "internalType": "address",
          "name": "",
          "type": "address"
        }
      ],
      "stateMutability": "view",
      "type": "function"
    },
    {
      "inputs": [],
      "name": "getTotalStakingToken",
      "outputs": [
        {
          "internalType": "uint256",
          "name": "",
          "type": "uint256"
        }
      ],
      "stateMutability": "view",
      "type": "function"
    },
    {
      "inputs": [
        {
          "internalType": "address",
          "name": "user",
          "type": "address"
        }
      ],
      "name": "getUnstakeAmount",
      "outputs": [
        {
          "internalType": "uint256",
          "name": "",
          "type": "uint256"
        }
      ],
      "stateMutability": "view",
      "type": "function"
    },
    {
      "inputs": [
        {
          "internalType": "address",
          "name": "",
          "type": "address"
        },
        {
          "internalType": "address",
          "name": "",
          "type": "address"
        },
        {
          "internalType": "uint256[]",
          "name": "",
          "type": "uint256[]"
        },
        {
          "internalType": "uint256[]",
          "name": "",
          "type": "uint256[]"
        },
        {
          "internalType": "bytes",
          "name": "",
          "type": "bytes"
        }
      ],
      "name": "onERC1155BatchReceived",
      "outputs": [
        {
          "internalType": "bytes4",
          "name": "",
          "type": "bytes4"
        }
      ],
      "stateMutability": "nonpayable",
      "type": "function"
    },
    {
      "inputs": [
        {
          "internalType": "address",
          "name": "",
          "type": "address"
        },
        {
          "internalType": "address",
          "name": "",
          "type": "address"
        },
        {
          "internalType": "uint256",
          "name": "",
          "type": "uint256"
        },
        {
          "internalType": "uint256",
          "name": "",
          "type": "uint256"
        },
        {
          "internalType": "bytes",
          "name": "",
          "type": "bytes"
        }
      ],
      "name": "onERC1155Received",
      "outputs": [
        {
          "internalType": "bytes4",
          "name": "",
          "type": "bytes4"
        }
      ],
      "stateMutability": "nonpayable",
      "type": "function"
    },
    {
      "inputs": [],
      "name": "openStaking",
      "outputs": [],
      "stateMutability": "nonpayable",
      "type": "function"
    },
    {
      "inputs": [],
      "name": "owner",
      "outputs": [
        {
          "internalType": "address",
          "name": "",
          "type": "address"
        }
      ],
      "stateMutability": "view",
      "type": "function"
    },
    {
      "inputs": [],
      "name": "renounceOwnership",
      "outputs": [],
      "stateMutability": "nonpayable",
      "type": "function"
    },
    {
      "inputs": [
        {
          "internalType": "uint256",
          "name": "amount",
          "type": "uint256"
        }
      ],
      "name": "setAmountToEarnPassPerCycle",
      "outputs": [],
      "stateMutability": "nonpayable",
      "type": "function"
    },
    {
      "inputs": [
        {
          "internalType": "uint256",
          "name": "amount",
          "type": "uint256"
        }
      ],
      "name": "setMinimumAmount",
      "outputs": [],
      "stateMutability": "nonpayable",
      "type": "function"
    },
    {
      "inputs": [
        {
          "internalType": "uint256",
          "name": "rate",
          "type": "uint256"
        }
      ],
      "name": "setPenaltyRate",
      "outputs": [],
      "stateMutability": "nonpayable",
      "type": "function"
    },
    {
      "inputs": [
        {
          "internalType": "uint256",
          "name": "pTime",
          "type": "uint256"
        },
        {
          "internalType": "uint256",
          "name": "rate",
          "type": "uint256"
        }
      ],
      "name": "setPromotionTime",
      "outputs": [],
      "stateMutability": "nonpayable",
      "type": "function"
    },
    {
      "inputs": [
        {
          "internalType": "address",
          "name": "itemAddress",
          "type": "address"
        }
      ],
      "name": "setRewardContract",
      "outputs": [],
      "stateMutability": "nonpayable",
      "type": "function"
    },
    {
      "inputs": [
        {
          "internalType": "uint256",
          "name": "tokenId",
          "type": "uint256"
        }
      ],
      "name": "setRewardTokenId",
      "outputs": [],
      "stateMutability": "nonpayable",
      "type": "function"
    },
    {
      "inputs": [
        {
          "internalType": "uint256",
          "name": "cTime",
          "type": "uint256"
        }
      ],
      "name": "setStakingBlockTime",
      "outputs": [],
      "stateMutability": "nonpayable",
      "type": "function"
    },
    {
      "inputs": [
        {
          "internalType": "address",
          "name": "tokenAddress",
          "type": "address"
        }
      ],
      "name": "setTokenAddress",
      "outputs": [],
      "stateMutability": "nonpayable",
      "type": "function"
    },
    {
      "inputs": [
        {
          "internalType": "uint256",
          "name": "delayTime",
          "type": "uint256"
        }
      ],
      "name": "setWithdrawalDelayTime",
      "outputs": [],
      "stateMutability": "nonpayable",
      "type": "function"
    },
    {
      "inputs": [
        {
          "internalType": "uint256",
          "name": "amount",
          "type": "uint256"
        }
      ],
      "name": "stake",
      "outputs": [],
      "stateMutability": "nonpayable",
      "type": "function"
    },
    {
      "inputs": [
        {
          "internalType": "uint256",
          "name": "duration",
          "type": "uint256"
        },
        {
          "internalType": "uint256",
          "name": "rate",
          "type": "uint256"
        }
      ],
      "name": "startStakingWithPromotion",
      "outputs": [],
      "stateMutability": "nonpayable",
      "type": "function"
    },
    {
      "inputs": [
        {
          "internalType": "bytes4",
          "name": "interfaceId",
          "type": "bytes4"
        }
      ],
      "name": "supportsInterface",
      "outputs": [
        {
          "internalType": "bool",
          "name": "",
          "type": "bool"
        }
      ],
      "stateMutability": "view",
      "type": "function"
    },
    {
      "inputs": [
        {
          "internalType": "address",
          "name": "newOwner",
          "type": "address"
        }
      ],
      "name": "transferOwnership",
      "outputs": [],
      "stateMutability": "nonpayable",
      "type": "function"
    },
    {
      "inputs": [
        {
          "internalType": "uint256",
          "name": "unstakeAmount",
          "type": "uint256"
        }
      ],
      "name": "unstake",
      "outputs": [],
      "stateMutability": "nonpayable",
      "type": "function"
    },
    {
      "inputs": [],
      "name": "withdrawStakingToken",
      "outputs": [],
      "stateMutability": "nonpayable",
      "type": "function"
    }
  ],
  "bytecode": "0x60806040523480156200001157600080fd5b5060405162002c3538038062002c35833981810160405281019062000037919062000218565b620000576200004b620000f160201b60201c565b620000f960201b60201c565b81600160006101000a81548173ffffffffffffffffffffffffffffffffffffffff021916908373ffffffffffffffffffffffffffffffffffffffff16021790555080600260006101000a81548173ffffffffffffffffffffffffffffffffffffffff021916908373ffffffffffffffffffffffffffffffffffffffff160217905550620000e9620001bd60201b60201c565b5050620002a7565b600033905090565b60008060009054906101000a900473ffffffffffffffffffffffffffffffffffffffff169050816000806101000a81548173ffffffffffffffffffffffffffffffffffffffff021916908373ffffffffffffffffffffffffffffffffffffffff1602179055508173ffffffffffffffffffffffffffffffffffffffff168173ffffffffffffffffffffffffffffffffffffffff167f8be0079c531659141344cd1fd0a4f28419497f9722a3daafe3b4186f6b6457e060405160405180910390a35050565b683635c9adc5dea00000600381905550690878678326eac9000000600481905550607860068190555061012c60078190555060006009819055506010600881905550565b60008151905062000212816200028d565b92915050565b600080604083850312156200022c57600080fd5b60006200023c8582860162000201565b92505060206200024f8582860162000201565b9150509250929050565b600062000266826200026d565b9050919050565b600073ffffffffffffffffffffffffffffffffffffffff82169050919050565b620002988162000259565b8114620002a457600080fd5b50565b61297e80620002b76000396000f3fe608060405234801561001057600080fd5b50600436106101fa5760003560e01c806374363daa1161011a578063b8d69ecf116100ad578063eeb4a9c81161007c578063eeb4a9c81461055f578063efcd66e71461057b578063f14cb88114610597578063f23a6e61146105b5578063f2fde38b146105e5576101fa565b8063b8d69ecf146104d7578063bc197c81146104e1578063d615b6a014610511578063dcf4e2671461052f576101fa565b8063a680e0bc116100e9578063a680e0bc14610451578063a694fc3a14610481578063b4685c9b1461049d578063b88a802f146104cd576101fa565b806374363daa146103dd5780638da5cb5b1461040d57806398cfe5871461042b578063a1bab44714610435576101fa565b8063494eb5b81161019257806362066eb31161016157806362066eb31461038f57806362581733146103ad5780636aa9f686146103b7578063715018a6146103d3576101fa565b8063494eb5b8146103095780634c576a641461032557806351508f0a146103555780635722ef9714610371576101fa565b8063211f0898116101ce578063211f08981461028557806326a4e8d2146102a15780632e17de78146102bd5780633412a764146102d9576101fa565b806255a6e6146101ff57806301ffc9a71461021b57806310fe9ae81461024b578063160244ed14610269575b600080fd5b61021960048036038101906102149190611f1e565b610601565b005b61023560048036038101906102309190611ecc565b61067f565b60405161024291906121a6565b60405180910390f35b6102536106f9565b60405161026091906120f4565b60405180910390f35b610283600480360381019061027e9190611ef5565b610723565b005b61029f600480360381019061029a9190611f1e565b610735565b005b6102bb60048036038101906102b69190611d2c565b6107ae565b005b6102d760048036038101906102d29190611ef5565b6107fa565b005b6102f360048036038101906102ee9190611d2c565b610a9d565b604051610300919061231c565b60405180910390f35b610323600480360381019061031e9190611ef5565b610ae9565b005b61033f600480360381019061033a9190611d2c565b610afb565b60405161034c919061231c565b60405180910390f35b61036f600480360381019061036a9190611d2c565b610ba5565b005b610379610bf1565b604051610386919061231c565b60405180910390f35b610397610bfb565b6040516103a4919061231c565b60405180910390f35b6103b5610c05565b005b6103d160048036038101906103cc9190611ef5565b610c16565b005b6103db610c28565b005b6103f760048036038101906103f29190611d2c565b610c3c565b604051610404919061231c565b60405180910390f35b610415610c88565b60405161042291906120f4565b60405180910390f35b610433610cb1565b005b61044f600480360381019061044a9190611ef5565b610cc2565b005b61046b60048036038101906104669190611d2c565b610d17565b604051610478919061231c565b60405180910390f35b61049b60048036038101906104969190611ef5565b610d63565b005b6104b760048036038101906104b29190611d2c565b611107565b6040516104c4919061231c565b60405180910390f35b6104d5611160565b005b6104df6113f9565b005b6104fb60048036038101906104f69190611d55565b611537565b60405161050891906121c1565b60405180910390f35b61051961154c565b604051610526919061231c565b60405180910390f35b61054960048036038101906105449190611d2c565b611556565b604051610556919061231c565b60405180910390f35b61057960048036038101906105749190611ef5565b6115b5565b005b61059560048036038101906105909190611ef5565b6115c7565b005b61059f6115d9565b6040516105ac919061231c565b60405180910390f35b6105cf60048036038101906105ca9190611e14565b6115e3565b6040516105dc91906121c1565b60405180910390f35b6105ff60048036038101906105fa9190611d2c565b6115f8565b005b61060961167c565b600181101561064d576040517f08c379a00000000000000000000000000000000000000000000000000000000081526004016106449061225c565b60405180910390fd5b42600d6000018190555081600d600001546106689190612453565b600d6001018190555080600d600201819055505050565b60007f4e2312e0000000000000000000000000000000000000000000000000000000007bffffffffffffffffffffffffffffffffffffffffffffffffffffffff1916827bffffffffffffffffffffffffffffffffffffffffffffffffffffffff191614806106f257506106f1826116fa565b5b9050919050565b6000600160009054906101000a900473ffffffffffffffffffffffffffffffffffffffff16905090565b61072b61167c565b80600c8190555050565b61073d61167c565b4260098190555042600d60000181905550814261075a9190612453565b600d6001018190555080600d600201819055507ff652521332bbf2a62077b84dedc41600a387f1afd0376746ab9f0b7f3e2634ce60095483836040516107a293929190612389565b60405180910390a15050565b6107b661167c565b80600160006101000a81548173ffffffffffffffffffffffffffffffffffffffff021916908373ffffffffffffffffffffffffffffffffffffffff16021790555050565b601060003373ffffffffffffffffffffffffffffffffffffffff1673ffffffffffffffffffffffffffffffffffffffff1681526020019081526020016000206000015481111561087f576040517f08c379a0000000000000000000000000000000000000000000000000000000008152600401610876906121fc565b60405180910390fd5b600061088a33611764565b905080601060003373ffffffffffffffffffffffffffffffffffffffff1673ffffffffffffffffffffffffffffffffffffffff16815260200190815260200160002060020160008282546108de9190612453565b9250508190555042601060003373ffffffffffffffffffffffffffffffffffffffff1673ffffffffffffffffffffffffffffffffffffffff1681526020019081526020016000206001018190555081601060003373ffffffffffffffffffffffffffffffffffffffff1673ffffffffffffffffffffffffffffffffffffffff168152602001908152602001600020600001600082825461097e9190612534565b9250508190555081601060003373ffffffffffffffffffffffffffffffffffffffff1673ffffffffffffffffffffffffffffffffffffffff16815260200190815260200160002060030160008282546109d79190612453565b92505081905550600754426109ec9190612453565b601060003373ffffffffffffffffffffffffffffffffffffffff1673ffffffffffffffffffffffffffffffffffffffff1681526020019081526020016000206004018190555081600b6000828254610a449190612534565b925050819055503373ffffffffffffffffffffffffffffffffffffffff167fb24546d975e2628748efc9aced80665e0fad66272033e5c0ea25fd3afac9979583604051610a91919061231c565b60405180910390a25050565b6000601060008373ffffffffffffffffffffffffffffffffffffffff1673ffffffffffffffffffffffffffffffffffffffff168152602001908152602001600020600301549050919050565b610af161167c565b8060048190555050565b6000601060008373ffffffffffffffffffffffffffffffffffffffff1673ffffffffffffffffffffffffffffffffffffffff168152602001908152602001600020600401544210610b4f5760009050610ba0565b42601060008473ffffffffffffffffffffffffffffffffffffffff1673ffffffffffffffffffffffffffffffffffffffff16815260200190815260200160002060040154610b9d9190612534565b90505b919050565b610bad61167c565b80600260006101000a81548173ffffffffffffffffffffffffffffffffffffffff021916908373ffffffffffffffffffffffffffffffffffffffff16021790555050565b6000600854905090565b6000600354905090565b610c0d61167c565b42600981905550565b610c1e61167c565b8060078190555050565b610c3061167c565b610c3a6000611883565b565b6000601060008373ffffffffffffffffffffffffffffffffffffffff1673ffffffffffffffffffffffffffffffffffffffff168152602001908152602001600020600001549050919050565b60008060009054906101000a900473ffffffffffffffffffffffffffffffffffffffff16905090565b610cb961167c565b42600a81905550565b610cca61167c565b60648110610d0d576040517f08c379a0000000000000000000000000000000000000000000000000000000008152600401610d049061223c565b60405180910390fd5b8060088190555050565b6000601060008373ffffffffffffffffffffffffffffffffffffffff1673ffffffffffffffffffffffffffffffffffffffff168152602001908152602001600020600101549050919050565b600060095414158015610d7857506009544210155b610db7576040517f08c379a0000000000000000000000000000000000000000000000000000000008152600401610dae9061227c565b60405180910390fd5b6000600a541480610dca5750600a544211155b610e09576040517f08c379a0000000000000000000000000000000000000000000000000000000008152600401610e009061227c565b60405180910390fd5b60008111610e4c576040517f08c379a0000000000000000000000000000000000000000000000000000000008152600401610e439061221c565b60405180910390fd5b6000601060003373ffffffffffffffffffffffffffffffffffffffff1673ffffffffffffffffffffffffffffffffffffffff1681526020019081526020016000206000015490506003548183610ea29190612453565b1015610ee3576040517f08c379a0000000000000000000000000000000000000000000000000000000008152600401610eda906122fc565b60405180910390fd5b600160009054906101000a900473ffffffffffffffffffffffffffffffffffffffff1673ffffffffffffffffffffffffffffffffffffffff166323b872dd3330856040518463ffffffff1660e01b8152600401610f429392919061210f565b602060405180830381600087803b158015610f5c57600080fd5b505af1158015610f70573d6000803e3d6000fd5b505050506040513d601f19601f82011682018060405250810190610f949190611ea3565b506000610fa033611764565b905082601060003373ffffffffffffffffffffffffffffffffffffffff1673ffffffffffffffffffffffffffffffffffffffff1681526020019081526020016000206000016000828254610ff49190612453565b9250508190555080601060003373ffffffffffffffffffffffffffffffffffffffff1673ffffffffffffffffffffffffffffffffffffffff168152602001908152602001600020600201600082825461104d9190612453565b9250508190555042601060003373ffffffffffffffffffffffffffffffffffffffff1673ffffffffffffffffffffffffffffffffffffffff1681526020019081526020016000206001018190555082600b60008282546110ad9190612453565b925050819055503373ffffffffffffffffffffffffffffffffffffffff167febedb8b3c678666e7f36970bc8f57abf6d8fa2e828c0da91ea5b75bf68ed101a846040516110fa919061231c565b60405180910390a2505050565b6000600654601060008473ffffffffffffffffffffffffffffffffffffffff1673ffffffffffffffffffffffffffffffffffffffff168152602001908152602001600020600101546111599190612453565b9050919050565b600654601060003373ffffffffffffffffffffffffffffffffffffffff1673ffffffffffffffffffffffffffffffffffffffff168152602001908152602001600020600101546111b09190612453565b42116111f1576040517f08c379a00000000000000000000000000000000000000000000000000000000081526004016111e8906122bc565b60405180910390fd5b60006111fc33611764565b9050600081601060003373ffffffffffffffffffffffffffffffffffffffff1673ffffffffffffffffffffffffffffffffffffffff1681526020019081526020016000206002015461124e9190612453565b905060008111156113a3576000601060003373ffffffffffffffffffffffffffffffffffffffff1673ffffffffffffffffffffffffffffffffffffffff16815260200190815260200160002060020181905550600260009054906101000a900473ffffffffffffffffffffffffffffffffffffffff1673ffffffffffffffffffffffffffffffffffffffff1663156e29f633600c54846040518463ffffffff1660e01b81526004016113029392919061216f565b600060405180830381600087803b15801561131c57600080fd5b505af1158015611330573d6000803e3d6000fd5b5050505060065461134033611947565b61134a91906124da565b601060003373ffffffffffffffffffffffffffffffffffffffff1673ffffffffffffffffffffffffffffffffffffffff168152602001908152602001600020600101600082825461139b9190612453565b925050819055505b3373ffffffffffffffffffffffffffffffffffffffff167f34fcbac0073d7c3d388e51312faf357774904998eeb8fca628b9e6f65ee1cbf7600c54836040516113ed929190612360565b60405180910390a25050565b6000601060003373ffffffffffffffffffffffffffffffffffffffff1673ffffffffffffffffffffffffffffffffffffffff168152602001908152602001600020600301541161147e576040517f08c379a0000000000000000000000000000000000000000000000000000000008152600401611475906122dc565b60405180910390fd5b6000601060003373ffffffffffffffffffffffffffffffffffffffff1673ffffffffffffffffffffffffffffffffffffffff1681526020019081526020016000206004015442106114d05760006114d3565b60015b905060006114e133836119cc565b90503373ffffffffffffffffffffffffffffffffffffffff167fb8d9ba25e48d59fdf3ff7de8ead33e6be7cb962255a3690a98984f98c2d07e15828460405161152b929190612337565b60405180910390a25050565b600063bc197c8160e01b905095945050505050565b6000600b54905090565b6000601060008373ffffffffffffffffffffffffffffffffffffffff1673ffffffffffffffffffffffffffffffffffffffff168152602001908152602001600020600201546115a483611764565b6115ae9190612453565b9050919050565b6115bd61167c565b8060038190555050565b6115cf61167c565b8060068190555050565b6000600454905090565b600063f23a6e6160e01b905095945050505050565b61160061167c565b600073ffffffffffffffffffffffffffffffffffffffff168173ffffffffffffffffffffffffffffffffffffffff161415611670576040517f08c379a0000000000000000000000000000000000000000000000000000000008152600401611667906121dc565b60405180910390fd5b61167981611883565b50565b611684611b45565b73ffffffffffffffffffffffffffffffffffffffff166116a2610c88565b73ffffffffffffffffffffffffffffffffffffffff16146116f8576040517f08c379a00000000000000000000000000000000000000000000000000000000081526004016116ef9061229c565b60405180910390fd5b565b60007f01ffc9a7000000000000000000000000000000000000000000000000000000007bffffffffffffffffffffffffffffffffffffffffffffffffffffffff1916827bffffffffffffffffffffffffffffffffffffffffffffffffffffffff1916149050919050565b60008061177083611947565b90506000601060008573ffffffffffffffffffffffffffffffffffffffff1673ffffffffffffffffffffffffffffffffffffffff1681526020019081526020016000206001015490506000826006546117c991906124da565b826117d49190612453565b905060006006546117e58484611b4d565b6117ef91906124a9565b9050600081856117ff9190612534565b90506004548183600d6002015461181691906124da565b6118209190612453565b601060008a73ffffffffffffffffffffffffffffffffffffffff1673ffffffffffffffffffffffffffffffffffffffff1681526020019081526020016000206000015461186d91906124da565b61187791906124a9565b95505050505050919050565b60008060009054906101000a900473ffffffffffffffffffffffffffffffffffffffff169050816000806101000a81548173ffffffffffffffffffffffffffffffffffffffff021916908373ffffffffffffffffffffffffffffffffffffffff1602179055508173ffffffffffffffffffffffffffffffffffffffff168173ffffffffffffffffffffffffffffffffffffffff167f8be0079c531659141344cd1fd0a4f28419497f9722a3daafe3b4186f6b6457e060405160405180910390a35050565b6000806000600a541461196557611960600a5442611ba7565b611967565b425b9050600654601060008573ffffffffffffffffffffffffffffffffffffffff1673ffffffffffffffffffffffffffffffffffffffff16815260200190815260200160002060010154826119ba9190612534565b6119c491906124a9565b915050919050565b600080601060008573ffffffffffffffffffffffffffffffffffffffff1673ffffffffffffffffffffffffffffffffffffffff1681526020019081526020016000206003015490508215611a435760646008546064611a2b9190612534565b82611a3691906124da565b611a4091906124a9565b90505b6000601060008673ffffffffffffffffffffffffffffffffffffffff1673ffffffffffffffffffffffffffffffffffffffff16815260200190815260200160002060030181905550600160009054906101000a900473ffffffffffffffffffffffffffffffffffffffff1673ffffffffffffffffffffffffffffffffffffffff1663a9059cbb85836040518363ffffffff1660e01b8152600401611ae8929190612146565b602060405180830381600087803b158015611b0257600080fd5b505af1158015611b16573d6000803e3d6000fd5b505050506040513d601f19601f82011682018060405250810190611b3a9190611ea3565b508091505092915050565b600033905090565b6000600d6001015483101580611b685750600d600001548211155b15611b765760009050611ba1565b611b8583600d60000154611bc0565b611b9483600d60010154611ba7565b611b9e9190612534565b90505b92915050565b6000818310611bb65781611bb8565b825b905092915050565b600081831015611bd05781611bd2565b825b905092915050565b6000611bed611be8846123e5565b6123c0565b90508083825260208201905082856020860282011115611c0c57600080fd5b60005b85811015611c3c5781611c228882611d17565b845260208401935060208301925050600181019050611c0f565b5050509392505050565b6000611c59611c5484612411565b6123c0565b905082815260208101848484011115611c7157600080fd5b611c7c8482856125dc565b509392505050565b600081359050611c93816128ec565b92915050565b600082601f830112611caa57600080fd5b8135611cba848260208601611bda565b91505092915050565b600081519050611cd281612903565b92915050565b600081359050611ce78161291a565b92915050565b600082601f830112611cfe57600080fd5b8135611d0e848260208601611c46565b91505092915050565b600081359050611d2681612931565b92915050565b600060208284031215611d3e57600080fd5b6000611d4c84828501611c84565b91505092915050565b600080600080600060a08688031215611d6d57600080fd5b6000611d7b88828901611c84565b9550506020611d8c88828901611c84565b945050604086013567ffffffffffffffff811115611da957600080fd5b611db588828901611c99565b935050606086013567ffffffffffffffff811115611dd257600080fd5b611dde88828901611c99565b925050608086013567ffffffffffffffff811115611dfb57600080fd5b611e0788828901611ced565b9150509295509295909350565b600080600080600060a08688031215611e2c57600080fd5b6000611e3a88828901611c84565b9550506020611e4b88828901611c84565b9450506040611e5c88828901611d17565b9350506060611e6d88828901611d17565b925050608086013567ffffffffffffffff811115611e8a57600080fd5b611e9688828901611ced565b9150509295509295909350565b600060208284031215611eb557600080fd5b6000611ec384828501611cc3565b91505092915050565b600060208284031215611ede57600080fd5b6000611eec84828501611cd8565b91505092915050565b600060208284031215611f0757600080fd5b6000611f1584828501611d17565b91505092915050565b60008060408385031215611f3157600080fd5b6000611f3f85828601611d17565b9250506020611f5085828601611d17565b9150509250929050565b611f6381612568565b82525050565b611f728161257a565b82525050565b611f8181612586565b82525050565b6000611f94602683612442565b9150611f9f826126ba565b604082019050919050565b6000611fb7602483612442565b9150611fc282612709565b604082019050919050565b6000611fda601b83612442565b9150611fe582612758565b602082019050919050565b6000611ffd601a83612442565b915061200882612781565b602082019050919050565b6000612020602583612442565b915061202b826127aa565b604082019050919050565b6000612043601083612442565b915061204e826127f9565b602082019050919050565b6000612066602083612442565b915061207182612822565b602082019050919050565b6000612089601083612442565b91506120948261284b565b602082019050919050565b60006120ac601783612442565b91506120b782612874565b602082019050919050565b60006120cf603283612442565b91506120da8261289d565b604082019050919050565b6120ee816125d2565b82525050565b60006020820190506121096000830184611f5a565b92915050565b60006060820190506121246000830186611f5a565b6121316020830185611f5a565b61213e60408301846120e5565b949350505050565b600060408201905061215b6000830185611f5a565b61216860208301846120e5565b9392505050565b60006060820190506121846000830186611f5a565b61219160208301856120e5565b61219e60408301846120e5565b949350505050565b60006020820190506121bb6000830184611f69565b92915050565b60006020820190506121d66000830184611f78565b92915050565b600060208201905081810360008301526121f581611f87565b9050919050565b6000602082019050818103600083015261221581611faa565b9050919050565b6000602082019050818103600083015261223581611fcd565b9050919050565b6000602082019050818103600083015261225581611ff0565b9050919050565b6000602082019050818103600083015261227581612013565b9050919050565b6000602082019050818103600083015261229581612036565b9050919050565b600060208201905081810360008301526122b581612059565b9050919050565b600060208201905081810360008301526122d58161207c565b9050919050565b600060208201905081810360008301526122f58161209f565b9050919050565b60006020820190508181036000830152612315816120c2565b9050919050565b600060208201905061233160008301846120e5565b92915050565b600060408201905061234c60008301856120e5565b6123596020830184611f69565b9392505050565b600060408201905061237560008301856120e5565b61238260208301846120e5565b9392505050565b600060608201905061239e60008301866120e5565b6123ab60208301856120e5565b6123b860408301846120e5565b949350505050565b60006123ca6123db565b90506123d682826125eb565b919050565b6000604051905090565b600067ffffffffffffffff821115612400576123ff61267a565b5b602082029050602081019050919050565b600067ffffffffffffffff82111561242c5761242b61267a565b5b612435826126a9565b9050602081019050919050565b600082825260208201905092915050565b600061245e826125d2565b9150612469836125d2565b9250827fffffffffffffffffffffffffffffffffffffffffffffffffffffffffffffffff0382111561249e5761249d61261c565b5b828201905092915050565b60006124b4826125d2565b91506124bf836125d2565b9250826124cf576124ce61264b565b5b828204905092915050565b60006124e5826125d2565b91506124f0836125d2565b9250817fffffffffffffffffffffffffffffffffffffffffffffffffffffffffffffffff04831182151516156125295761252861261c565b5b828202905092915050565b600061253f826125d2565b915061254a836125d2565b92508282101561255d5761255c61261c565b5b828203905092915050565b6000612573826125b2565b9050919050565b60008115159050919050565b60007fffffffff0000000000000000000000000000000000000000000000000000000082169050919050565b600073ffffffffffffffffffffffffffffffffffffffff82169050919050565b6000819050919050565b82818337600083830152505050565b6125f4826126a9565b810181811067ffffffffffffffff821117156126135761261261267a565b5b80604052505050565b7f4e487b7100000000000000000000000000000000000000000000000000000000600052601160045260246000fd5b7f4e487b7100000000000000000000000000000000000000000000000000000000600052601260045260246000fd5b7f4e487b7100000000000000000000000000000000000000000000000000000000600052604160045260246000fd5b6000601f19601f8301169050919050565b7f4f776e61626c653a206e6577206f776e657220697320746865207a65726f206160008201527f6464726573730000000000000000000000000000000000000000000000000000602082015250565b7f756e7374616b6520616d6f756e742065786365656473207374616b656420616d60008201527f6f756e7400000000000000000000000000000000000000000000000000000000602082015250565b7f7374616b6520616d6f756e742063616e6e6f74206265207a65726f0000000000600082015250565b7f70656e616c7479526174652063616e6e6f742062652031303025000000000000600082015250565b7f70726f6d6f74696f6e2072617465206d7573742062652067726561746572207460008201527f68616e2031000000000000000000000000000000000000000000000000000000602082015250565b7f43616e6e6f74207374616b65206e6f7700000000000000000000000000000000600082015250565b7f4f776e61626c653a2063616c6c6572206973206e6f7420746865206f776e6572600082015250565b7f43616e6e6f7420636c61696d206e6f7700000000000000000000000000000000600082015250565b7f756e7374616b65206265666f7265207769746864726177000000000000000000600082015250565b7f7374616b6520616d6f756e74206c657373207468616e206d696e696d756d207360008201527f74616b696e6720726571756972656d656e740000000000000000000000000000602082015250565b6128f581612568565b811461290057600080fd5b50565b61290c8161257a565b811461291757600080fd5b50565b61292381612586565b811461292e57600080fd5b50565b61293a816125d2565b811461294557600080fd5b5056fea26469706673582212202c7ff03f73e4e5e91d1b729f0871d8e57a87d93d68c44d718cf6f19f0779177964736f6c63430008040033",
  "linkReferences": {},
  "deployedLinkReferences": {}
}