{
  "_format": "hh-sol-artifact-1",
  "contractName": "BeFitterPass",
  "sourceName": "contracts/BFPass.sol",
  "abi": [
    {
      "inputs": [],
      "stateMutability": "nonpayable",
      "type": "constructor"
    },
    {
      "anonymous": false,
      "inputs": [
        {
          "indexed": true,
          "internalType": "address",
          "name": "owner",
          "type": "address"
        },
        {
          "indexed": true,
          "internalType": "address",
          "name": "approved",
          "type": "address"
        },
        {
          "indexed": true,
          "internalType": "uint256",
          "name": "tokenId",
          "type": "uint256"
        }
      ],
      "name": "Approval",
      "type": "event"
    },
    {
      "anonymous": false,
      "inputs": [
        {
          "indexed": true,
          "internalType": "address",
          "name": "owner",
          "type": "address"
        },
        {
          "indexed": true,
          "internalType": "address",
          "name": "operator",
          "type": "address"
        },
        {
          "indexed": false,
          "internalType": "bool",
          "name": "approved",
          "type": "bool"
        }
      ],
      "name": "ApprovalForAll",
      "type": "event"
    },
    {
      "anonymous": false,
      "inputs": [
        {
          "indexed": true,
          "internalType": "address",
          "name": "to",
          "type": "address"
        },
        {
          "indexed": false,
          "internalType": "uint256",
          "name": "tokenId",
          "type": "uint256"
        }
      ],
      "name": "MintFitterPass",
      "type": "event"
    },
    {
      "anonymous": false,
      "inputs": [
        {
          "indexed": true,
          "internalType": "address",
          "name": "previousOwner",
          "type": "address"
        },
        {
          "indexed": true,
          "internalType": "address",
          "name": "newOwner",
          "type": "address"
        }
      ],
      "name": "OwnershipTransferred",
      "type": "event"
    },
    {
      "anonymous": false,
      "inputs": [
        {
          "indexed": false,
          "internalType": "address",
          "name": "account",
          "type": "address"
        }
      ],
      "name": "Paused",
      "type": "event"
    },
    {
      "anonymous": false,
      "inputs": [
        {
          "indexed": true,
          "internalType": "address",
          "name": "from",
          "type": "address"
        },
        {
          "indexed": true,
          "internalType": "address",
          "name": "to",
          "type": "address"
        },
        {
          "indexed": true,
          "internalType": "uint256",
          "name": "tokenId",
          "type": "uint256"
        }
      ],
      "name": "Transfer",
      "type": "event"
    },
    {
      "anonymous": false,
      "inputs": [
        {
          "indexed": false,
          "internalType": "address",
          "name": "account",
          "type": "address"
        }
      ],
      "name": "Unpaused",
      "type": "event"
    },
    {
      "inputs": [
        {
          "internalType": "address",
          "name": "to",
          "type": "address"
        },
        {
          "internalType": "uint256",
          "name": "tokenId",
          "type": "uint256"
        }
      ],
      "name": "approve",
      "outputs": [],
      "stateMutability": "nonpayable",
      "type": "function"
    },
    {
      "inputs": [
        {
          "internalType": "address",
          "name": "owner",
          "type": "address"
        }
      ],
      "name": "balanceOf",
      "outputs": [
        {
          "internalType": "uint256",
          "name": "",
          "type": "uint256"
        }
      ],
      "stateMutability": "view",
      "type": "function"
    },
    {
      "inputs": [
        {
          "internalType": "uint256",
          "name": "tokenId",
          "type": "uint256"
        }
      ],
      "name": "getApproved",
      "outputs": [
        {
          "internalType": "address",
          "name": "",
          "type": "address"
        }
      ],
      "stateMutability": "view",
      "type": "function"
    },
    {
      "inputs": [
        {
          "internalType": "address",
          "name": "owner",
          "type": "address"
        }
      ],
      "name": "getOwnedTokens",
      "outputs": [
        {
          "internalType": "bytes32[]",
          "name": "",
          "type": "bytes32[]"
        }
      ],
      "stateMutability": "view",
      "type": "function"
    },
    {
      "inputs": [
        {
          "internalType": "address",
          "name": "owner",
          "type": "address"
        },
        {
          "internalType": "address",
          "name": "operator",
          "type": "address"
        }
      ],
      "name": "isApprovedForAll",
      "outputs": [
        {
          "internalType": "bool",
          "name": "",
          "type": "bool"
        }
      ],
      "stateMutability": "view",
      "type": "function"
    },
    {
      "inputs": [
        {
          "internalType": "address",
          "name": "operator",
          "type": "address"
        }
      ],
      "name": "isOperator",
      "outputs": [
        {
          "internalType": "bool",
          "name": "",
          "type": "bool"
        }
      ],
      "stateMutability": "view",
      "type": "function"
    },
    {
      "inputs": [
        {
          "internalType": "address",
          "name": "to",
          "type": "address"
        }
      ],
      "name": "mint",
      "outputs": [],
      "stateMutability": "nonpayable",
      "type": "function"
    },
    {
      "inputs": [],
      "name": "name",
      "outputs": [
        {
          "internalType": "string",
          "name": "",
          "type": "string"
        }
      ],
      "stateMutability": "view",
      "type": "function"
    },
    {
      "inputs": [],
      "name": "owner",
      "outputs": [
        {
          "internalType": "address",
          "name": "",
          "type": "address"
        }
      ],
      "stateMutability": "view",
      "type": "function"
    },
    {
      "inputs": [
        {
          "internalType": "uint256",
          "name": "tokenId",
          "type": "uint256"
        }
      ],
      "name": "ownerOf",
      "outputs": [
        {
          "internalType": "address",
          "name": "",
          "type": "address"
        }
      ],
      "stateMutability": "view",
      "type": "function"
    },
    {
      "inputs": [],
      "name": "pause",
      "outputs": [],
      "stateMutability": "nonpayable",
      "type": "function"
    },
    {
      "inputs": [],
      "name": "paused",
      "outputs": [
        {
          "internalType": "bool",
          "name": "",
          "type": "bool"
        }
      ],
      "stateMutability": "view",
      "type": "function"
    },
    {
      "inputs": [
        {
          "internalType": "address",
          "name": "operator",
          "type": "address"
        }
      ],
      "name": "removeOperator",
      "outputs": [],
      "stateMutability": "nonpayable",
      "type": "function"
    },
    {
      "inputs": [],
      "name": "renounceOwnership",
      "outputs": [],
      "stateMutability": "nonpayable",
      "type": "function"
    },
    {
      "inputs": [
        {
          "internalType": "address",
          "name": "from",
          "type": "address"
        },
        {
          "internalType": "address",
          "name": "to",
          "type": "address"
        },
        {
          "internalType": "uint256",
          "name": "tokenId",
          "type": "uint256"
        }
      ],
      "name": "safeTransferFrom",
      "outputs": [],
      "stateMutability": "nonpayable",
      "type": "function"
    },
    {
      "inputs": [
        {
          "internalType": "address",
          "name": "from",
          "type": "address"
        },
        {
          "internalType": "address",
          "name": "to",
          "type": "address"
        },
        {
          "internalType": "uint256",
          "name": "tokenId",
          "type": "uint256"
        },
        {
          "internalType": "bytes",
          "name": "_data",
          "type": "bytes"
        }
      ],
      "name": "safeTransferFrom",
      "outputs": [],
      "stateMutability": "nonpayable",
      "type": "function"
    },
    {
      "inputs": [
        {
          "internalType": "address",
          "name": "operator",
          "type": "address"
        },
        {
          "internalType": "bool",
          "name": "approved",
          "type": "bool"
        }
      ],
      "name": "setApprovalForAll",
      "outputs": [],
      "stateMutability": "nonpayable",
      "type": "function"
    },
    {
      "inputs": [
        {
          "internalType": "address",
          "name": "operator",
          "type": "address"
        }
      ],
      "name": "setOperator",
      "outputs": [],
      "stateMutability": "nonpayable",
      "type": "function"
    },
    {
      "inputs": [
        {
          "internalType": "bytes4",
          "name": "interfaceId",
          "type": "bytes4"
        }
      ],
      "name": "supportsInterface",
      "outputs": [
        {
          "internalType": "bool",
          "name": "",
          "type": "bool"
        }
      ],
      "stateMutability": "view",
      "type": "function"
    },
    {
      "inputs": [],
      "name": "symbol",
      "outputs": [
        {
          "internalType": "string",
          "name": "",
          "type": "string"
        }
      ],
      "stateMutability": "view",
      "type": "function"
    },
    {
      "inputs": [
        {
          "internalType": "uint256",
          "name": "tokenId",
          "type": "uint256"
        }
      ],
      "name": "tokenURI",
      "outputs": [
        {
          "internalType": "string",
          "name": "",
          "type": "string"
        }
      ],
      "stateMutability": "view",
      "type": "function"
    },
    {
      "inputs": [
        {
          "internalType": "address",
          "name": "from",
          "type": "address"
        },
        {
          "internalType": "address",
          "name": "to",
          "type": "address"
        },
        {
          "internalType": "uint256",
          "name": "tokenId",
          "type": "uint256"
        }
      ],
      "name": "transferFrom",
      "outputs": [],
      "stateMutability": "nonpayable",
      "type": "function"
    },
    {
      "inputs": [
        {
          "internalType": "address",
          "name": "newOwner",
          "type": "address"
        }
      ],
      "name": "transferOwnership",
      "outputs": [],
      "stateMutability": "nonpayable",
      "type": "function"
    }
  ],
  "bytecode": "0x60806040523480156200001157600080fd5b506040518060400160405280600c81526020017f42654669747465725061737300000000000000000000000000000000000000008152506040518060400160405280600381526020017f424650000000000000000000000000000000000000000000000000000000000081525081600090805190602001906200009692919062000271565b508060019080519060200190620000af92919062000271565b5050506000600760006101000a81548160ff021916908315150217905550620000ed620000e1620001a360201b60201c565b620001ab60201b60201c565b6001600860003373ffffffffffffffffffffffffffffffffffffffff1673ffffffffffffffffffffffffffffffffffffffff16815260200190815260200160002060006101000a81548160ff0219169083151502179055506001600860003373ffffffffffffffffffffffffffffffffffffffff1673ffffffffffffffffffffffffffffffffffffffff16815260200190815260200160002060006101000a81548160ff02191690831515021790555062000386565b600033905090565b6000600760019054906101000a900473ffffffffffffffffffffffffffffffffffffffff16905081600760016101000a81548173ffffffffffffffffffffffffffffffffffffffff021916908373ffffffffffffffffffffffffffffffffffffffff1602179055508173ffffffffffffffffffffffffffffffffffffffff168173ffffffffffffffffffffffffffffffffffffffff167f8be0079c531659141344cd1fd0a4f28419497f9722a3daafe3b4186f6b6457e060405160405180910390a35050565b8280546200027f9062000321565b90600052602060002090601f016020900481019282620002a35760008555620002ef565b82601f10620002be57805160ff1916838001178555620002ef565b82800160010185558215620002ef579182015b82811115620002ee578251825591602001919060010190620002d1565b5b509050620002fe919062000302565b5090565b5b808211156200031d57600081600090555060010162000303565b5090565b600060028204905060018216806200033a57607f821691505b6020821081141562000351576200035062000357565b5b50919050565b7f4e487b7100000000000000000000000000000000000000000000000000000000600052602260045260246000fd5b61379a80620003966000396000f3fe608060405234801561001057600080fd5b506004361061014d5760003560e01c8063715018a6116100c3578063b3ab15fb1161007c578063b3ab15fb14610376578063b88d4fde14610392578063c87b56dd146103ae578063d9d61655146103de578063e985e9c51461040e578063f2fde38b1461043e5761014d565b8063715018a6146102ee5780638456cb59146102f85780638da5cb5b1461030257806395d89b4114610320578063a22cb4651461033e578063ac8a584a1461035a5761014d565b806342842e0e1161011557806342842e0e146102085780635c975abb146102245780636352211e146102425780636a627842146102725780636d70f7ae1461028e57806370a08231146102be5761014d565b806301ffc9a71461015257806306fdde0314610182578063081812fc146101a0578063095ea7b3146101d057806323b872dd146101ec575b600080fd5b61016c6004803603810190610167919061264a565b61045a565b6040516101799190612b60565b60405180910390f35b61018a61053c565b6040516101979190612b7b565b60405180910390f35b6101ba60048036038101906101b5919061269c565b6105ce565b6040516101c79190612ad7565b60405180910390f35b6101ea60048036038101906101e5919061260e565b610653565b005b61020660048036038101906102019190612508565b61076b565b005b610222600480360381019061021d9190612508565b6107cb565b005b61022c6107eb565b6040516102399190612b60565b60405180910390f35b61025c6004803603810190610257919061269c565b610802565b6040516102699190612ad7565b60405180910390f35b61028c600480360381019061028791906124a3565b6108b4565b005b6102a860048036038101906102a391906124a3565b6109b4565b6040516102b59190612b60565b60405180910390f35b6102d860048036038101906102d391906124a3565b610a0a565b6040516102e59190612dfd565b60405180910390f35b6102f6610ac2565b005b610300610b4a565b005b61030a610be0565b6040516103179190612ad7565b60405180910390f35b610328610c0a565b6040516103359190612b7b565b60405180910390f35b610358600480360381019061035391906125d2565b610c9c565b005b610374600480360381019061036f91906124a3565b610cb2565b005b610390600480360381019061038b91906124a3565b610d89565b005b6103ac60048036038101906103a79190612557565b610e60565b005b6103c860048036038101906103c3919061269c565b610ec2565b6040516103d59190612b7b565b60405180910390f35b6103f860048036038101906103f391906124a3565b610f69565b6040516104059190612b3e565b60405180910390f35b610428600480360381019061042391906124cc565b611006565b6040516104359190612b60565b60405180910390f35b610458600480360381019061045391906124a3565b61109a565b005b60007f80ac58cd000000000000000000000000000000000000000000000000000000007bffffffffffffffffffffffffffffffffffffffffffffffffffffffff1916827bffffffffffffffffffffffffffffffffffffffffffffffffffffffff1916148061052557507f5b5e139f000000000000000000000000000000000000000000000000000000007bffffffffffffffffffffffffffffffffffffffffffffffffffffffff1916827bffffffffffffffffffffffffffffffffffffffffffffffffffffffff1916145b80610535575061053482611192565b5b9050919050565b60606000805461054b90613065565b80601f016020809104026020016040519081016040528092919081815260200182805461057790613065565b80156105c45780601f10610599576101008083540402835291602001916105c4565b820191906000526020600020905b8154815290600101906020018083116105a757829003601f168201915b5050505050905090565b60006105d9826111fc565b610618576040517f08c379a000000000000000000000000000000000000000000000000000000000815260040161060f90612d5d565b60405180910390fd5b6004600083815260200190815260200160002060009054906101000a900473ffffffffffffffffffffffffffffffffffffffff169050919050565b600061065e82610802565b90508073ffffffffffffffffffffffffffffffffffffffff168373ffffffffffffffffffffffffffffffffffffffff1614156106cf576040517f08c379a00000000000000000000000000000000000000000000000000000000081526004016106c690612dbd565b60405180910390fd5b8073ffffffffffffffffffffffffffffffffffffffff166106ee611268565b73ffffffffffffffffffffffffffffffffffffffff16148061071d575061071c81610717611268565b611006565b5b61075c576040517f08c379a000000000000000000000000000000000000000000000000000000000815260040161075390612cbd565b60405180910390fd5b6107668383611270565b505050565b61077c610776611268565b82611329565b6107bb576040517f08c379a00000000000000000000000000000000000000000000000000000000081526004016107b290612ddd565b60405180910390fd5b6107c6838383611407565b505050565b6107e683838360405180602001604052806000815250610e60565b505050565b6000600760009054906101000a900460ff16905090565b6000806002600084815260200190815260200160002060009054906101000a900473ffffffffffffffffffffffffffffffffffffffff169050600073ffffffffffffffffffffffffffffffffffffffff168173ffffffffffffffffffffffffffffffffffffffff1614156108ab576040517f08c379a00000000000000000000000000000000000000000000000000000000081526004016108a290612cfd565b60405180910390fd5b80915050919050565b600860003373ffffffffffffffffffffffffffffffffffffffff1673ffffffffffffffffffffffffffffffffffffffff16815260200190815260200160002060009054906101000a900460ff16610940576040517f08c379a000000000000000000000000000000000000000000000000000000000815260040161093790612d1d565b60405180910390fd5b600061094c600961166e565b9050610958828261167c565b610962600961169a565b8173ffffffffffffffffffffffffffffffffffffffff167fc6afa70f399f4fa5266f81b9670cb5f35daf68f267b29f99e86e07d87eb334e5826040516109a89190612dfd565b60405180910390a25050565b6000600860008373ffffffffffffffffffffffffffffffffffffffff1673ffffffffffffffffffffffffffffffffffffffff16815260200190815260200160002060009054906101000a900460ff169050919050565b60008073ffffffffffffffffffffffffffffffffffffffff168273ffffffffffffffffffffffffffffffffffffffff161415610a7b576040517f08c379a0000000000000000000000000000000000000000000000000000000008152600401610a7290612cdd565b60405180910390fd5b600360008373ffffffffffffffffffffffffffffffffffffffff1673ffffffffffffffffffffffffffffffffffffffff168152602001908152602001600020549050919050565b610aca611268565b73ffffffffffffffffffffffffffffffffffffffff16610ae8610be0565b73ffffffffffffffffffffffffffffffffffffffff1614610b3e576040517f08c379a0000000000000000000000000000000000000000000000000000000008152600401610b3590612d7d565b60405180910390fd5b610b4860006116b0565b565b600860003373ffffffffffffffffffffffffffffffffffffffff1673ffffffffffffffffffffffffffffffffffffffff16815260200190815260200160002060009054906101000a900460ff16610bd6576040517f08c379a0000000000000000000000000000000000000000000000000000000008152600401610bcd90612d1d565b60405180910390fd5b610bde611776565b565b6000600760019054906101000a900473ffffffffffffffffffffffffffffffffffffffff16905090565b606060018054610c1990613065565b80601f0160208091040260200160405190810160405280929190818152602001828054610c4590613065565b8015610c925780601f10610c6757610100808354040283529160200191610c92565b820191906000526020600020905b815481529060010190602001808311610c7557829003601f168201915b5050505050905090565b610cae610ca7611268565b8383611819565b5050565b610cba611268565b73ffffffffffffffffffffffffffffffffffffffff16610cd8610be0565b73ffffffffffffffffffffffffffffffffffffffff1614610d2e576040517f08c379a0000000000000000000000000000000000000000000000000000000008152600401610d2590612d7d565b60405180910390fd5b6000600860008373ffffffffffffffffffffffffffffffffffffffff1673ffffffffffffffffffffffffffffffffffffffff16815260200190815260200160002060006101000a81548160ff02191690831515021790555050565b610d91611268565b73ffffffffffffffffffffffffffffffffffffffff16610daf610be0565b73ffffffffffffffffffffffffffffffffffffffff1614610e05576040517f08c379a0000000000000000000000000000000000000000000000000000000008152600401610dfc90612d7d565b60405180910390fd5b6001600860008373ffffffffffffffffffffffffffffffffffffffff1673ffffffffffffffffffffffffffffffffffffffff16815260200190815260200160002060006101000a81548160ff02191690831515021790555050565b610e71610e6b611268565b83611329565b610eb0576040517f08c379a0000000000000000000000000000000000000000000000000000000008152600401610ea790612ddd565b60405180910390fd5b610ebc84848484611986565b50505050565b6060610ecd826111fc565b610f0c576040517f08c379a0000000000000000000000000000000000000000000000000000000008152600401610f0390612d9d565b60405180910390fd5b6000610f166119e2565b90506000815111610f365760405180602001604052806000815250610f61565b80610f40846119f9565b604051602001610f51929190612ab3565b6040516020818303038152906040525b915050919050565b6060600660008373ffffffffffffffffffffffffffffffffffffffff1673ffffffffffffffffffffffffffffffffffffffff168152602001908152602001600020600001600001805480602002602001604051908101604052809291908181526020018280548015610ffa57602002820191906000526020600020905b815481526020019060010190808311610fe6575b50505050509050919050565b6000600560008473ffffffffffffffffffffffffffffffffffffffff1673ffffffffffffffffffffffffffffffffffffffff16815260200190815260200160002060008373ffffffffffffffffffffffffffffffffffffffff1673ffffffffffffffffffffffffffffffffffffffff16815260200190815260200160002060009054906101000a900460ff16905092915050565b6110a2611268565b73ffffffffffffffffffffffffffffffffffffffff166110c0610be0565b73ffffffffffffffffffffffffffffffffffffffff1614611116576040517f08c379a000000000000000000000000000000000000000000000000000000000815260040161110d90612d7d565b60405180910390fd5b600073ffffffffffffffffffffffffffffffffffffffff168173ffffffffffffffffffffffffffffffffffffffff161415611186576040517f08c379a000000000000000000000000000000000000000000000000000000000815260040161117d90612bdd565b60405180910390fd5b61118f816116b0565b50565b60007f01ffc9a7000000000000000000000000000000000000000000000000000000007bffffffffffffffffffffffffffffffffffffffffffffffffffffffff1916827bffffffffffffffffffffffffffffffffffffffffffffffffffffffff1916149050919050565b60008073ffffffffffffffffffffffffffffffffffffffff166002600084815260200190815260200160002060009054906101000a900473ffffffffffffffffffffffffffffffffffffffff1673ffffffffffffffffffffffffffffffffffffffff1614159050919050565b600033905090565b816004600083815260200190815260200160002060006101000a81548173ffffffffffffffffffffffffffffffffffffffff021916908373ffffffffffffffffffffffffffffffffffffffff160217905550808273ffffffffffffffffffffffffffffffffffffffff166112e383610802565b73ffffffffffffffffffffffffffffffffffffffff167f8c5be1e5ebec7d5bd14f71427d1e84f3dd0314c0f7b2291e5b200ac8c7c3b92560405160405180910390a45050565b6000611334826111fc565b611373576040517f08c379a000000000000000000000000000000000000000000000000000000000815260040161136a90612c7d565b60405180910390fd5b600061137e83610802565b90508073ffffffffffffffffffffffffffffffffffffffff168473ffffffffffffffffffffffffffffffffffffffff1614806113c057506113bf8185611006565b5b806113fe57508373ffffffffffffffffffffffffffffffffffffffff166113e6846105ce565b73ffffffffffffffffffffffffffffffffffffffff16145b91505092915050565b8273ffffffffffffffffffffffffffffffffffffffff1661142782610802565b73ffffffffffffffffffffffffffffffffffffffff161461147d576040517f08c379a000000000000000000000000000000000000000000000000000000000815260040161147490612bfd565b60405180910390fd5b600073ffffffffffffffffffffffffffffffffffffffff168273ffffffffffffffffffffffffffffffffffffffff1614156114ed576040517f08c379a00000000000000000000000000000000000000000000000000000000081526004016114e490612c3d565b60405180910390fd5b6114f8838383611ba6565b611503600082611270565b6001600360008573ffffffffffffffffffffffffffffffffffffffff1673ffffffffffffffffffffffffffffffffffffffff16815260200190815260200160002060008282546115539190612f71565b925050819055506001600360008473ffffffffffffffffffffffffffffffffffffffff1673ffffffffffffffffffffffffffffffffffffffff16815260200190815260200160002060008282546115aa9190612eea565b92505081905550816002600083815260200190815260200160002060006101000a81548173ffffffffffffffffffffffffffffffffffffffff021916908373ffffffffffffffffffffffffffffffffffffffff160217905550808273ffffffffffffffffffffffffffffffffffffffff168473ffffffffffffffffffffffffffffffffffffffff167fddf252ad1be2c89b69c2b068fc378daa952ba7f163c4a11628f55a4df523b3ef60405160405180910390a4611669838383611bfe565b505050565b600081600001549050919050565b611696828260405180602001604052806000815250611c03565b5050565b6001816000016000828254019250508190555050565b6000600760019054906101000a900473ffffffffffffffffffffffffffffffffffffffff16905081600760016101000a81548173ffffffffffffffffffffffffffffffffffffffff021916908373ffffffffffffffffffffffffffffffffffffffff1602179055508173ffffffffffffffffffffffffffffffffffffffff168173ffffffffffffffffffffffffffffffffffffffff167f8be0079c531659141344cd1fd0a4f28419497f9722a3daafe3b4186f6b6457e060405160405180910390a35050565b61177e6107eb565b156117be576040517f08c379a00000000000000000000000000000000000000000000000000000000081526004016117b590612c9d565b60405180910390fd5b6001600760006101000a81548160ff0219169083151502179055507f62e78cea01bee320cd4e420270b5ea74000d11b0c9f74754ebdbfc544b05a258611802611268565b60405161180f9190612ad7565b60405180910390a1565b8173ffffffffffffffffffffffffffffffffffffffff168373ffffffffffffffffffffffffffffffffffffffff161415611888576040517f08c379a000000000000000000000000000000000000000000000000000000000815260040161187f90612c5d565b60405180910390fd5b80600560008573ffffffffffffffffffffffffffffffffffffffff1673ffffffffffffffffffffffffffffffffffffffff16815260200190815260200160002060008473ffffffffffffffffffffffffffffffffffffffff1673ffffffffffffffffffffffffffffffffffffffff16815260200190815260200160002060006101000a81548160ff0219169083151502179055508173ffffffffffffffffffffffffffffffffffffffff168373ffffffffffffffffffffffffffffffffffffffff167f17307eab39ab6107e8899845ad3d59bd9653f200f220920489ca2b5937696c31836040516119799190612b60565b60405180910390a3505050565b611991848484611407565b61199d84848484611c5e565b6119dc576040517f08c379a00000000000000000000000000000000000000000000000000000000081526004016119d390612bbd565b60405180910390fd5b50505050565b606060405180602001604052806000815250905090565b60606000821415611a41576040518060400160405280600181526020017f30000000000000000000000000000000000000000000000000000000000000008152509050611ba1565b600082905060005b60008214611a73578080611a5c906130c8565b915050600a82611a6c9190612f40565b9150611a49565b60008167ffffffffffffffff811115611ab5577f4e487b7100000000000000000000000000000000000000000000000000000000600052604160045260246000fd5b6040519080825280601f01601f191660200182016040528015611ae75781602001600182028036833780820191505090505b5090505b60008514611b9a57600182611b009190612f71565b9150600a85611b0f9190613111565b6030611b1b9190612eea565b60f81b818381518110611b57577f4e487b7100000000000000000000000000000000000000000000000000000000600052603260045260246000fd5b60200101907effffffffffffffffffffffffffffffffffffffffffffffffffffffffffffff1916908160001a905350600a85611b939190612f40565b9450611aeb565b8093505050505b919050565b611bb1838383611df5565b611bb96107eb565b15611bf9576040517f08c379a0000000000000000000000000000000000000000000000000000000008152600401611bf090612b9d565b60405180910390fd5b505050565b505050565b611c0d8383611ed7565b611c1a6000848484611c5e565b611c59576040517f08c379a0000000000000000000000000000000000000000000000000000000008152600401611c5090612bbd565b60405180910390fd5b505050565b6000611c7f8473ffffffffffffffffffffffffffffffffffffffff166120b1565b15611de8578373ffffffffffffffffffffffffffffffffffffffff1663150b7a02611ca8611268565b8786866040518563ffffffff1660e01b8152600401611cca9493929190612af2565b602060405180830381600087803b158015611ce457600080fd5b505af1925050508015611d1557506040513d601f19601f82011682018060405250810190611d129190612673565b60015b611d98573d8060008114611d45576040519150601f19603f3d011682016040523d82523d6000602084013e611d4a565b606091505b50600081511415611d90576040517f08c379a0000000000000000000000000000000000000000000000000000000008152600401611d8790612bbd565b60405180910390fd5b805181602001fd5b63150b7a0260e01b7bffffffffffffffffffffffffffffffffffffffffffffffffffffffff1916817bffffffffffffffffffffffffffffffffffffffffffffffffffffffff191614915050611ded565b600190505b949350505050565b611e008383836120d4565b600073ffffffffffffffffffffffffffffffffffffffff168373ffffffffffffffffffffffffffffffffffffffff161415611e4457611e3f82826120d9565b611ed2565b600073ffffffffffffffffffffffffffffffffffffffff168273ffffffffffffffffffffffffffffffffffffffff161415611e8857611e83838261212f565b611ed1565b8173ffffffffffffffffffffffffffffffffffffffff168373ffffffffffffffffffffffffffffffffffffffff1614611ed057611ec582826120d9565b611ecf838261212f565b5b5b5b505050565b600073ffffffffffffffffffffffffffffffffffffffff168273ffffffffffffffffffffffffffffffffffffffff161415611f47576040517f08c379a0000000000000000000000000000000000000000000000000000000008152600401611f3e90612d3d565b60405180910390fd5b611f50816111fc565b15611f90576040517f08c379a0000000000000000000000000000000000000000000000000000000008152600401611f8790612c1d565b60405180910390fd5b611f9c60008383611ba6565b6001600360008473ffffffffffffffffffffffffffffffffffffffff1673ffffffffffffffffffffffffffffffffffffffff1681526020019081526020016000206000828254611fec9190612eea565b92505081905550816002600083815260200190815260200160002060006101000a81548173ffffffffffffffffffffffffffffffffffffffff021916908373ffffffffffffffffffffffffffffffffffffffff160217905550808273ffffffffffffffffffffffffffffffffffffffff16600073ffffffffffffffffffffffffffffffffffffffff167fddf252ad1be2c89b69c2b068fc378daa952ba7f163c4a11628f55a4df523b3ef60405160405180910390a46120ad60008383611bfe565b5050565b6000808273ffffffffffffffffffffffffffffffffffffffff163b119050919050565b505050565b61212a81600660008573ffffffffffffffffffffffffffffffffffffffff1673ffffffffffffffffffffffffffffffffffffffff16815260200190815260200160002061218590919063ffffffff16565b505050565b61218081600660008573ffffffffffffffffffffffffffffffffffffffff1673ffffffffffffffffffffffffffffffffffffffff16815260200190815260200160002061219f90919063ffffffff16565b505050565b6000612197836000018360001b6121b9565b905092915050565b60006121b1836000018360001b612229565b905092915050565b60006121c583836123af565b61221e578260000182908060018154018082558091505060019003906000526020600020016000909190919091505582600001805490508360010160008481526020019081526020016000208190555060019050612223565b600090505b92915050565b600080836001016000848152602001908152602001600020549050600081146123a357600060018261225b9190612f71565b90506000600186600001805490506122739190612f71565b905081811461232e5760008660000182815481106122ba577f4e487b7100000000000000000000000000000000000000000000000000000000600052603260045260246000fd5b9060005260206000200154905080876000018481548110612304577f4e487b7100000000000000000000000000000000000000000000000000000000600052603260045260246000fd5b90600052602060002001819055508387600101600083815260200190815260200160002081905550505b85600001805480612368577f4e487b7100000000000000000000000000000000000000000000000000000000600052603160045260246000fd5b6001900381819060005260206000200160009055905585600101600086815260200190815260200160002060009055600193505050506123a9565b60009150505b92915050565b600080836001016000848152602001908152602001600020541415905092915050565b60006123e56123e084612e3d565b612e18565b9050828152602081018484840111156123fd57600080fd5b612408848285613023565b509392505050565b60008135905061241f81613708565b92915050565b6000813590506124348161371f565b92915050565b60008135905061244981613736565b92915050565b60008151905061245e81613736565b92915050565b600082601f83011261247557600080fd5b81356124858482602086016123d2565b91505092915050565b60008135905061249d8161374d565b92915050565b6000602082840312156124b557600080fd5b60006124c384828501612410565b91505092915050565b600080604083850312156124df57600080fd5b60006124ed85828601612410565b92505060206124fe85828601612410565b9150509250929050565b60008060006060848603121561251d57600080fd5b600061252b86828701612410565b935050602061253c86828701612410565b925050604061254d8682870161248e565b9150509250925092565b6000806000806080858703121561256d57600080fd5b600061257b87828801612410565b945050602061258c87828801612410565b935050604061259d8782880161248e565b925050606085013567ffffffffffffffff8111156125ba57600080fd5b6125c687828801612464565b91505092959194509250565b600080604083850312156125e557600080fd5b60006125f385828601612410565b925050602061260485828601612425565b9150509250929050565b6000806040838503121561262157600080fd5b600061262f85828601612410565b92505060206126408582860161248e565b9150509250929050565b60006020828403121561265c57600080fd5b600061266a8482850161243a565b91505092915050565b60006020828403121561268557600080fd5b60006126938482850161244f565b91505092915050565b6000602082840312156126ae57600080fd5b60006126bc8482850161248e565b91505092915050565b60006126d18383612759565b60208301905092915050565b6126e681612fa5565b82525050565b60006126f782612e7e565b6127018185612eac565b935061270c83612e6e565b8060005b8381101561273d57815161272488826126c5565b975061272f83612e9f565b925050600181019050612710565b5085935050505092915050565b61275381612fb7565b82525050565b61276281612fc3565b82525050565b600061277382612e89565b61277d8185612ebd565b935061278d818560208601613032565b612796816131fe565b840191505092915050565b60006127ac82612e94565b6127b68185612ece565b93506127c6818560208601613032565b6127cf816131fe565b840191505092915050565b60006127e582612e94565b6127ef8185612edf565b93506127ff818560208601613032565b80840191505092915050565b6000612818602b83612ece565b91506128238261320f565b604082019050919050565b600061283b603283612ece565b91506128468261325e565b604082019050919050565b600061285e602683612ece565b9150612869826132ad565b604082019050919050565b6000612881602583612ece565b915061288c826132fc565b604082019050919050565b60006128a4601c83612ece565b91506128af8261334b565b602082019050919050565b60006128c7602483612ece565b91506128d282613374565b604082019050919050565b60006128ea601983612ece565b91506128f5826133c3565b602082019050919050565b600061290d602c83612ece565b9150612918826133ec565b604082019050919050565b6000612930601083612ece565b915061293b8261343b565b602082019050919050565b6000612953603883612ece565b915061295e82613464565b604082019050919050565b6000612976602a83612ece565b9150612981826134b3565b604082019050919050565b6000612999602983612ece565b91506129a482613502565b604082019050919050565b60006129bc601b83612ece565b91506129c782613551565b602082019050919050565b60006129df602083612ece565b91506129ea8261357a565b602082019050919050565b6000612a02602c83612ece565b9150612a0d826135a3565b604082019050919050565b6000612a25602083612ece565b9150612a30826135f2565b602082019050919050565b6000612a48602f83612ece565b9150612a538261361b565b604082019050919050565b6000612a6b602183612ece565b9150612a768261366a565b604082019050919050565b6000612a8e603183612ece565b9150612a99826136b9565b604082019050919050565b612aad81613019565b82525050565b6000612abf82856127da565b9150612acb82846127da565b91508190509392505050565b6000602082019050612aec60008301846126dd565b92915050565b6000608082019050612b0760008301876126dd565b612b1460208301866126dd565b612b216040830185612aa4565b8181036060830152612b338184612768565b905095945050505050565b60006020820190508181036000830152612b5881846126ec565b905092915050565b6000602082019050612b75600083018461274a565b92915050565b60006020820190508181036000830152612b9581846127a1565b905092915050565b60006020820190508181036000830152612bb68161280b565b9050919050565b60006020820190508181036000830152612bd68161282e565b9050919050565b60006020820190508181036000830152612bf681612851565b9050919050565b60006020820190508181036000830152612c1681612874565b9050919050565b60006020820190508181036000830152612c3681612897565b9050919050565b60006020820190508181036000830152612c56816128ba565b9050919050565b60006020820190508181036000830152612c76816128dd565b9050919050565b60006020820190508181036000830152612c9681612900565b9050919050565b60006020820190508181036000830152612cb681612923565b9050919050565b60006020820190508181036000830152612cd681612946565b9050919050565b60006020820190508181036000830152612cf681612969565b9050919050565b60006020820190508181036000830152612d168161298c565b9050919050565b60006020820190508181036000830152612d36816129af565b9050919050565b60006020820190508181036000830152612d56816129d2565b9050919050565b60006020820190508181036000830152612d76816129f5565b9050919050565b60006020820190508181036000830152612d9681612a18565b9050919050565b60006020820190508181036000830152612db681612a3b565b9050919050565b60006020820190508181036000830152612dd681612a5e565b9050919050565b60006020820190508181036000830152612df681612a81565b9050919050565b6000602082019050612e126000830184612aa4565b92915050565b6000612e22612e33565b9050612e2e8282613097565b919050565b6000604051905090565b600067ffffffffffffffff821115612e5857612e576131cf565b5b612e61826131fe565b9050602081019050919050565b6000819050602082019050919050565b600081519050919050565b600081519050919050565b600081519050919050565b6000602082019050919050565b600082825260208201905092915050565b600082825260208201905092915050565b600082825260208201905092915050565b600081905092915050565b6000612ef582613019565b9150612f0083613019565b9250827fffffffffffffffffffffffffffffffffffffffffffffffffffffffffffffffff03821115612f3557612f34613142565b5b828201905092915050565b6000612f4b82613019565b9150612f5683613019565b925082612f6657612f65613171565b5b828204905092915050565b6000612f7c82613019565b9150612f8783613019565b925082821015612f9a57612f99613142565b5b828203905092915050565b6000612fb082612ff9565b9050919050565b60008115159050919050565b6000819050919050565b60007fffffffff0000000000000000000000000000000000000000000000000000000082169050919050565b600073ffffffffffffffffffffffffffffffffffffffff82169050919050565b6000819050919050565b82818337600083830152505050565b60005b83811015613050578082015181840152602081019050613035565b8381111561305f576000848401525b50505050565b6000600282049050600182168061307d57607f821691505b60208210811415613091576130906131a0565b5b50919050565b6130a0826131fe565b810181811067ffffffffffffffff821117156130bf576130be6131cf565b5b80604052505050565b60006130d382613019565b91507fffffffffffffffffffffffffffffffffffffffffffffffffffffffffffffffff82141561310657613105613142565b5b600182019050919050565b600061311c82613019565b915061312783613019565b92508261313757613136613171565b5b828206905092915050565b7f4e487b7100000000000000000000000000000000000000000000000000000000600052601160045260246000fd5b7f4e487b7100000000000000000000000000000000000000000000000000000000600052601260045260246000fd5b7f4e487b7100000000000000000000000000000000000000000000000000000000600052602260045260246000fd5b7f4e487b7100000000000000000000000000000000000000000000000000000000600052604160045260246000fd5b6000601f19601f8301169050919050565b7f4552433732315061757361626c653a20746f6b656e207472616e73666572207760008201527f68696c6520706175736564000000000000000000000000000000000000000000602082015250565b7f4552433732313a207472616e7366657220746f206e6f6e20455243373231526560008201527f63656976657220696d706c656d656e7465720000000000000000000000000000602082015250565b7f4f776e61626c653a206e6577206f776e657220697320746865207a65726f206160008201527f6464726573730000000000000000000000000000000000000000000000000000602082015250565b7f4552433732313a207472616e736665722066726f6d20696e636f72726563742060008201527f6f776e6572000000000000000000000000000000000000000000000000000000602082015250565b7f4552433732313a20746f6b656e20616c7265616479206d696e74656400000000600082015250565b7f4552433732313a207472616e7366657220746f20746865207a65726f2061646460008201527f7265737300000000000000000000000000000000000000000000000000000000602082015250565b7f4552433732313a20617070726f766520746f2063616c6c657200000000000000600082015250565b7f4552433732313a206f70657261746f7220717565727920666f72206e6f6e657860008201527f697374656e7420746f6b656e0000000000000000000000000000000000000000602082015250565b7f5061757361626c653a2070617573656400000000000000000000000000000000600082015250565b7f4552433732313a20617070726f76652063616c6c6572206973206e6f74206f7760008201527f6e6572206e6f7220617070726f76656420666f7220616c6c0000000000000000602082015250565b7f4552433732313a2062616c616e636520717565727920666f7220746865207a6560008201527f726f206164647265737300000000000000000000000000000000000000000000602082015250565b7f4552433732313a206f776e657220717565727920666f72206e6f6e657869737460008201527f656e7420746f6b656e0000000000000000000000000000000000000000000000602082015250565b7f63616c6c6572206973206e6f7420746865206f70657261746f72730000000000600082015250565b7f4552433732313a206d696e7420746f20746865207a65726f2061646472657373600082015250565b7f4552433732313a20617070726f76656420717565727920666f72206e6f6e657860008201527f697374656e7420746f6b656e0000000000000000000000000000000000000000602082015250565b7f4f776e61626c653a2063616c6c6572206973206e6f7420746865206f776e6572600082015250565b7f4552433732314d657461646174613a2055524920717565727920666f72206e6f60008201527f6e6578697374656e7420746f6b656e0000000000000000000000000000000000602082015250565b7f4552433732313a20617070726f76616c20746f2063757272656e74206f776e6560008201527f7200000000000000000000000000000000000000000000000000000000000000602082015250565b7f4552433732313a207472616e736665722063616c6c6572206973206e6f74206f60008201527f776e6572206e6f7220617070726f766564000000000000000000000000000000602082015250565b61371181612fa5565b811461371c57600080fd5b50565b61372881612fb7565b811461373357600080fd5b50565b61373f81612fcd565b811461374a57600080fd5b50565b61375681613019565b811461376157600080fd5b5056fea2646970667358221220c7fafc92dd42a4afce7070f7b5b0b208527e5b5d6c792dc067aa376fbbc8acaf64736f6c63430008040033",
  "linkReferences": {},
  "deployedLinkReferences": {}
}