{
  "_format": "hh-sol-artifact-1",
  "contractName": "VestingToken",
  "sourceName": "contracts/VestingToken.sol",
  "abi": [
    {
      "inputs": [
        {
          "internalType": "address",
          "name": "tokenAddress",
          "type": "address"
        },
        {
          "internalType": "bytes32",
          "name": "merkleRoot",
          "type": "bytes32"
        },
        {
          "internalType": "uint256",
          "name": "totalToken",
          "type": "uint256"
        }
      ],
      "stateMutability": "nonpayable",
      "type": "constructor"
    },
    {
      "anonymous": false,
      "inputs": [
        {
          "indexed": true,
          "internalType": "address",
          "name": "tokenAddress",
          "type": "address"
        },
        {
          "indexed": true,
          "internalType": "address",
          "name": "to",
          "type": "address"
        },
        {
          "indexed": false,
          "internalType": "uint256",
          "name": "amount",
          "type": "uint256"
        }
      ],
      "name": "ClaimToken",
      "type": "event"
    },
    {
      "anonymous": false,
      "inputs": [
        {
          "indexed": true,
          "internalType": "address",
          "name": "previousOwner",
          "type": "address"
        },
        {
          "indexed": true,
          "internalType": "address",
          "name": "newOwner",
          "type": "address"
        }
      ],
      "name": "OwnershipTransferred",
      "type": "event"
    },
    {
      "anonymous": false,
      "inputs": [
        {
          "indexed": true,
          "internalType": "address",
          "name": "wallet",
          "type": "address"
        },
        {
          "indexed": false,
          "internalType": "uint256",
          "name": "amount",
          "type": "uint256"
        }
      ],
      "name": "Register",
      "type": "event"
    },
    {
      "inputs": [],
      "name": "_merkleRoot",
      "outputs": [
        {
          "internalType": "bytes32",
          "name": "",
          "type": "bytes32"
        }
      ],
      "stateMutability": "view",
      "type": "function"
    },
    {
      "inputs": [
        {
          "internalType": "address",
          "name": "wallet",
          "type": "address"
        },
        {
          "internalType": "uint256",
          "name": "amount",
          "type": "uint256"
        },
        {
          "internalType": "bytes32[]",
          "name": "merkleProof",
          "type": "bytes32[]"
        }
      ],
      "name": "claim",
      "outputs": [
        {
          "internalType": "uint256",
          "name": "",
          "type": "uint256"
        }
      ],
      "stateMutability": "nonpayable",
      "type": "function"
    },
    {
      "inputs": [
        {
          "internalType": "address",
          "name": "to",
          "type": "address"
        },
        {
          "internalType": "uint256",
          "name": "amount",
          "type": "uint256"
        }
      ],
      "name": "emergencyWithdraw",
      "outputs": [],
      "stateMutability": "nonpayable",
      "type": "function"
    },
    {
      "inputs": [],
      "name": "getBlockTimeStamp",
      "outputs": [
        {
          "internalType": "uint256",
          "name": "",
          "type": "uint256"
        }
      ],
      "stateMutability": "view",
      "type": "function"
    },
    {
      "inputs": [
        {
          "internalType": "address",
          "name": "wallet",
          "type": "address"
        }
      ],
      "name": "getClaimableAmount",
      "outputs": [
        {
          "internalType": "uint256",
          "name": "",
          "type": "uint256"
        }
      ],
      "stateMutability": "view",
      "type": "function"
    },
    {
      "inputs": [
        {
          "internalType": "address",
          "name": "wallet",
          "type": "address"
        }
      ],
      "name": "getReleasedTokenAmount",
      "outputs": [
        {
          "internalType": "uint256",
          "name": "",
          "type": "uint256"
        }
      ],
      "stateMutability": "view",
      "type": "function"
    },
    {
      "inputs": [],
      "name": "getTotalClaim",
      "outputs": [
        {
          "internalType": "uint256",
          "name": "",
          "type": "uint256"
        }
      ],
      "stateMutability": "view",
      "type": "function"
    },
    {
      "inputs": [
        {
          "internalType": "address",
          "name": "wallet",
          "type": "address"
        }
      ],
      "name": "lockedOf",
      "outputs": [
        {
          "internalType": "uint256",
          "name": "",
          "type": "uint256"
        }
      ],
      "stateMutability": "view",
      "type": "function"
    },
    {
      "inputs": [],
      "name": "owner",
      "outputs": [
        {
          "internalType": "address",
          "name": "",
          "type": "address"
        }
      ],
      "stateMutability": "view",
      "type": "function"
    },
    {
      "inputs": [],
      "name": "renounceOwnership",
      "outputs": [],
      "stateMutability": "nonpayable",
      "type": "function"
    },
    {
      "inputs": [],
      "name": "startClaim",
      "outputs": [],
      "stateMutability": "nonpayable",
      "type": "function"
    },
    {
      "inputs": [],
      "name": "startReleaseToken",
      "outputs": [],
      "stateMutability": "nonpayable",
      "type": "function"
    },
    {
      "inputs": [],
      "name": "stopClaim",
      "outputs": [],
      "stateMutability": "nonpayable",
      "type": "function"
    },
    {
      "inputs": [
        {
          "internalType": "address",
          "name": "newOwner",
          "type": "address"
        }
      ],
      "name": "transferOwnership",
      "outputs": [],
      "stateMutability": "nonpayable",
      "type": "function"
    },
    {
      "inputs": [
        {
          "internalType": "bytes32",
          "name": "merkleRoot",
          "type": "bytes32"
        },
        {
          "internalType": "uint256",
          "name": "totalAmount",
          "type": "uint256"
        }
      ],
      "name": "updateRoot",
      "outputs": [],
      "stateMutability": "nonpayable",
      "type": "function"
    }
  ],
  "bytecode": "0x60806040523480156200001157600080fd5b5060405162001c5838038062001c588339818101604052810190620000379190620001f4565b620000576200004b620000bf60201b60201c565b620000c760201b60201c565b82600160006101000a81548173ffffffffffffffffffffffffffffffffffffffff021916908373ffffffffffffffffffffffffffffffffffffffff1602179055508160028190555080600381905550620000b66200018b60201b60201c565b505050620002e0565b600033905090565b60008060009054906101000a900473ffffffffffffffffffffffffffffffffffffffff169050816000806101000a81548173ffffffffffffffffffffffffffffffffffffffff021916908373ffffffffffffffffffffffffffffffffffffffff1602179055508173ffffffffffffffffffffffffffffffffffffffff168173ffffffffffffffffffffffffffffffffffffffff167f8be0079c531659141344cd1fd0a4f28419497f9722a3daafe3b4186f6b6457e060405160405180910390a35050565b600c600581905550610258600681905550600460078190555061012c600881905550565b600081519050620001c08162000292565b92915050565b600081519050620001d781620002ac565b92915050565b600081519050620001ee81620002c6565b92915050565b6000806000606084860312156200020a57600080fd5b60006200021a86828701620001af565b93505060206200022d86828701620001c6565b92505060406200024086828701620001dd565b9150509250925092565b6000620002578262000268565b9050919050565b6000819050919050565b600073ffffffffffffffffffffffffffffffffffffffff82169050919050565b6000819050919050565b6200029d816200024a565b8114620002a957600080fd5b50565b620002b7816200025e565b8114620002c357600080fd5b50565b620002d18162000288565b8114620002dd57600080fd5b50565b61196880620002f06000396000f3fe608060405234801561001057600080fd5b50600436106100f55760003560e01c806395ccea6711610097578063e12f3a6111610066578063e12f3a611461024e578063ecbfc0771461027e578063f2fde38b14610288578063ff6c9bc9146102a4576100f5565b806395ccea67146101c8578063a5f1e282146101e4578063c2e3e62b14610214578063ca49a54314610230576100f5565b80632fc37ab2116100d35780632fc37ab2146101525780633d13f87414610170578063715018a6146101a05780638da5cb5b146101aa576100f5565b8063039629b6146100fa5780630550427e1461010457806312f0bbe814610134575b600080fd5b6101026102ae565b005b61011e6004803603810190610119919061114b565b6102da565b60405161012b919061151f565b60405180910390f35b61013c610323565b604051610149919061151f565b60405180910390f35b61015a61032d565b6040516101679190611434565b60405180910390f35b61018a600480360381019061018591906111b0565b610333565b604051610197919061151f565b60405180910390f35b6101a8610704565b005b6101b2610718565b6040516101bf91906113f0565b60405180910390f35b6101e260048036038101906101dd9190611174565b610741565b005b6101fe60048036038101906101f9919061114b565b6107fd565b60405161020b919061151f565b60405180910390f35b61022e60048036038101906102299190611245565b610846565b005b610238610860565b604051610245919061151f565b60405180910390f35b6102686004803603810190610263919061114b565b610868565b604051610275919061151f565b60405180910390f35b61028661087a565b005b6102a2600480360381019061029d919061114b565b61089f565b005b6102ac610923565b005b6102b6610948565b6001600b60006101000a81548160ff02191690831515021790555042600c81905550565b6000600a60008373ffffffffffffffffffffffffffffffffffffffff1673ffffffffffffffffffffffffffffffffffffffff168152602001908152602001600020549050919050565b6000600454905090565b60025481565b600060011515600b60009054906101000a900460ff1615151461038b576040517f08c379a00000000000000000000000000000000000000000000000000000000081526004016103829061147f565b60405180910390fd5b610397858585856109c6565b6103d6576040517f08c379a00000000000000000000000000000000000000000000000000000000081526004016103cd906114ff565b60405180910390fd5b6000600a60008773ffffffffffffffffffffffffffffffffffffffff1673ffffffffffffffffffffffffffffffffffffffff16815260200190815260200160002054141561043c5761043b85670de0b6b3a76400008661043691906115dd565b610a4d565b5b600960008673ffffffffffffffffffffffffffffffffffffffff1673ffffffffffffffffffffffffffffffffffffffff16815260200190815260200160002054600a60008773ffffffffffffffffffffffffffffffffffffffff1673ffffffffffffffffffffffffffffffffffffffff16815260200190815260200160002054106104fc576040517f08c379a00000000000000000000000000000000000000000000000000000000081526004016104f3906114bf565b60405180910390fd5b600061050786610ae2565b90506105486040518060400160405280600c81526020017f436c61696d416d6f756e743a000000000000000000000000000000000000000081525082610cae565b60008111156106f85780600a60008873ffffffffffffffffffffffffffffffffffffffff1673ffffffffffffffffffffffffffffffffffffffff16815260200190815260200160002060008282546105a09190611556565b9250508190555080600460008282546105b99190611556565b92505081905550600160009054906101000a900473ffffffffffffffffffffffffffffffffffffffff1673ffffffffffffffffffffffffffffffffffffffff1663a9059cbb87836040518363ffffffff1660e01b815260040161061d92919061140b565b602060405180830381600087803b15801561063757600080fd5b505af115801561064b573d6000803e3d6000fd5b505050506040513d601f19601f8201168201806040525081019061066f919061121c565b508573ffffffffffffffffffffffffffffffffffffffff16600160009054906101000a900473ffffffffffffffffffffffffffffffffffffffff1673ffffffffffffffffffffffffffffffffffffffff167f7f94f93110499c9cb02fa9d1a5792b02f416866cce7d8752e9c5ec67cb8d8b29836040516106ef919061151f565b60405180910390a35b80915050949350505050565b61070c610948565b6107166000610d4a565b565b60008060009054906101000a900473ffffffffffffffffffffffffffffffffffffffff16905090565b610749610948565b600160009054906101000a900473ffffffffffffffffffffffffffffffffffffffff1673ffffffffffffffffffffffffffffffffffffffff1663a9059cbb83836040518363ffffffff1660e01b81526004016107a692919061140b565b602060405180830381600087803b1580156107c057600080fd5b505af11580156107d4573d6000803e3d6000fd5b505050506040513d601f19601f820116820180604052508101906107f8919061121c565b505050565b6000600960008373ffffffffffffffffffffffffffffffffffffffff1673ffffffffffffffffffffffffffffffffffffffff168152602001908152602001600020549050919050565b61084e610948565b81600281905550806003819055505050565b600042905090565b600061087382610ae2565b9050919050565b610882610948565b6001600b60006101000a81548160ff021916908315150217905550565b6108a7610948565b600073ffffffffffffffffffffffffffffffffffffffff168173ffffffffffffffffffffffffffffffffffffffff161415610917576040517f08c379a000000000000000000000000000000000000000000000000000000000815260040161090e9061149f565b60405180910390fd5b61092081610d4a565b50565b61092b610948565b6000600b60006101000a81548160ff021916908315150217905550565b610950610e0e565b73ffffffffffffffffffffffffffffffffffffffff1661096e610718565b73ffffffffffffffffffffffffffffffffffffffff16146109c4576040517f08c379a00000000000000000000000000000000000000000000000000000000081526004016109bb906114df565b60405180910390fd5b565b60008085856040516020016109dc9291906113c4565b604051602081830303815290604052805190602001209050610a42848480806020026020016040519081016040528093929190818152602001838360200280828437600081840152601f19601f8201169050808301925050505050505060025483610e16565b915050949350505050565b80600960008473ffffffffffffffffffffffffffffffffffffffff1673ffffffffffffffffffffffffffffffffffffffff168152602001908152602001600020819055508173ffffffffffffffffffffffffffffffffffffffff167e7dc6ab80cc84c043b7b8d4fcafc802187470087f7ea7fccd2e17aecd0256a182604051610ad6919061151f565b60405180910390a25050565b600080610aed610e2d565b9050610b6d6040518060400160405280601081526020017f5f6c6f636b65645b77616c6c65745d3a00000000000000000000000000000000815250600960008673ffffffffffffffffffffffffffffffffffffffff1673ffffffffffffffffffffffffffffffffffffffff16815260200190815260200160002054610cae565b60006064600960008673ffffffffffffffffffffffffffffffffffffffff1673ffffffffffffffffffffffffffffffffffffffff1681526020019081526020016000205483610bbc91906115dd565b610bc691906115ac565b9050610ca5600a60008673ffffffffffffffffffffffffffffffffffffffff1673ffffffffffffffffffffffffffffffffffffffff1681526020019081526020016000205482610c169190611637565b600a60008773ffffffffffffffffffffffffffffffffffffffff1673ffffffffffffffffffffffffffffffffffffffff16815260200190815260200160002054600960008873ffffffffffffffffffffffffffffffffffffffff1673ffffffffffffffffffffffffffffffffffffffff16815260200190815260200160002054610ca09190611637565b610fad565b92505050919050565b610d468282604051602401610cc492919061144f565b6040516020818303038152906040527f9710a9d0000000000000000000000000000000000000000000000000000000007bffffffffffffffffffffffffffffffffffffffffffffffffffffffff19166020820180517bffffffffffffffffffffffffffffffffffffffffffffffffffffffff8381831617835250505050610fc6565b5050565b60008060009054906101000a900473ffffffffffffffffffffffffffffffffffffffff169050816000806101000a81548173ffffffffffffffffffffffffffffffffffffffff021916908373ffffffffffffffffffffffffffffffffffffffff1602179055508173ffffffffffffffffffffffffffffffffffffffff168173ffffffffffffffffffffffffffffffffffffffff167f8be0079c531659141344cd1fd0a4f28419497f9722a3daafe3b4186f6b6457e060405160405180910390a35050565b600033905090565b600082610e238584610fef565b1490509392505050565b600080429050610e746040518060400160405280601181526020017f737461727452656c6561736554696d653a000000000000000000000000000000815250600c54610cae565b610eb36040518060400160405280600c81526020017f63757272656e7454696d653a000000000000000000000000000000000000000081525082610cae565b600c54811015610ec7576000915050610faa565b600060055490506000600c5483610ede9190611637565b9050600654811115610f5a5760065481610ef89190611637565b9050600060085482610f0a91906115ac565b9050600060085482610f1c91906115dd565b83610f279190611637565b1115610f3d57600181610f3a9190611556565b90505b60075481610f4b91906115dd565b83610f569190611556565b9250505b610f996040518060400160405280600881526020017f50657263656e743a00000000000000000000000000000000000000000000000081525083610cae565b610fa4826064610fad565b93505050505b90565b6000818310610fbc5781610fbe565b825b905092915050565b60008151905060006a636f6e736f6c652e6c6f679050602083016000808483855afa5050505050565b60008082905060005b84518110156110605761104b8286838151811061103e577f4e487b7100000000000000000000000000000000000000000000000000000000600052603260045260246000fd5b602002602001015161106b565b91508080611058906116f0565b915050610ff8565b508091505092915050565b60008183106110835761107e8284611096565b61108e565b61108d8383611096565b5b905092915050565b600082600052816020526040600020905092915050565b6000813590506110bc816118d6565b92915050565b60008083601f8401126110d457600080fd5b8235905067ffffffffffffffff8111156110ed57600080fd5b60208301915083602082028301111561110557600080fd5b9250929050565b60008151905061111b816118ed565b92915050565b60008135905061113081611904565b92915050565b6000813590506111458161191b565b92915050565b60006020828403121561115d57600080fd5b600061116b848285016110ad565b91505092915050565b6000806040838503121561118757600080fd5b6000611195858286016110ad565b92505060206111a685828601611136565b9150509250929050565b600080600080606085870312156111c657600080fd5b60006111d4878288016110ad565b94505060206111e587828801611136565b935050604085013567ffffffffffffffff81111561120257600080fd5b61120e878288016110c2565b925092505092959194509250565b60006020828403121561122e57600080fd5b600061123c8482850161110c565b91505092915050565b6000806040838503121561125857600080fd5b600061126685828601611121565b925050602061127785828601611136565b9150509250929050565b61128a8161166b565b82525050565b6112a161129c8261166b565b611739565b82525050565b6112b081611689565b82525050565b60006112c18261153a565b6112cb8185611545565b93506112db8185602086016116bd565b6112e4816117c5565b840191505092915050565b60006112fc601183611545565b9150611307826117e3565b602082019050919050565b600061131f602683611545565b915061132a8261180c565b604082019050919050565b6000611342601583611545565b915061134d8261185b565b602082019050919050565b6000611365602083611545565b915061137082611884565b602082019050919050565b6000611388601483611545565b9150611393826118ad565b602082019050919050565b6113a7816116b3565b82525050565b6113be6113b9826116b3565b61175d565b82525050565b60006113d08285611290565b6014820191506113e082846113ad565b6020820191508190509392505050565b60006020820190506114056000830184611281565b92915050565b60006040820190506114206000830185611281565b61142d602083018461139e565b9392505050565b600060208201905061144960008301846112a7565b92915050565b6000604082019050818103600083015261146981856112b6565b9050611478602083018461139e565b9392505050565b60006020820190508181036000830152611498816112ef565b9050919050565b600060208201905081810360008301526114b881611312565b9050919050565b600060208201905081810360008301526114d881611335565b9050919050565b600060208201905081810360008301526114f881611358565b9050919050565b600060208201905081810360008301526115188161137b565b9050919050565b6000602082019050611534600083018461139e565b92915050565b600081519050919050565b600082825260208201905092915050565b6000611561826116b3565b915061156c836116b3565b9250827fffffffffffffffffffffffffffffffffffffffffffffffffffffffffffffffff038211156115a1576115a0611767565b5b828201905092915050565b60006115b7826116b3565b91506115c2836116b3565b9250826115d2576115d1611796565b5b828204905092915050565b60006115e8826116b3565b91506115f3836116b3565b9250817fffffffffffffffffffffffffffffffffffffffffffffffffffffffffffffffff048311821515161561162c5761162b611767565b5b828202905092915050565b6000611642826116b3565b915061164d836116b3565b9250828210156116605761165f611767565b5b828203905092915050565b600061167682611693565b9050919050565b60008115159050919050565b6000819050919050565b600073ffffffffffffffffffffffffffffffffffffffff82169050919050565b6000819050919050565b60005b838110156116db5780820151818401526020810190506116c0565b838111156116ea576000848401525b50505050565b60006116fb826116b3565b91507fffffffffffffffffffffffffffffffffffffffffffffffffffffffffffffffff82141561172e5761172d611767565b5b600182019050919050565b60006117448261174b565b9050919050565b6000611756826117d6565b9050919050565b6000819050919050565b7f4e487b7100000000000000000000000000000000000000000000000000000000600052601160045260246000fd5b7f4e487b7100000000000000000000000000000000000000000000000000000000600052601260045260246000fd5b6000601f19601f8301169050919050565b60008160601b9050919050565b7f43616e6e6f7420636c61696d206e6f7721000000000000000000000000000000600082015250565b7f4f776e61626c653a206e6577206f776e657220697320746865207a65726f206160008201527f6464726573730000000000000000000000000000000000000000000000000000602082015250565b7f6e6f7468696e67206c65667420746f20636c61696d0000000000000000000000600082015250565b7f4f776e61626c653a2063616c6c6572206973206e6f7420746865206f776e6572600082015250565b7f496e76616c6964206d65726b6c652070726f6f66000000000000000000000000600082015250565b6118df8161166b565b81146118ea57600080fd5b50565b6118f68161167d565b811461190157600080fd5b50565b61190d81611689565b811461191857600080fd5b50565b611924816116b3565b811461192f57600080fd5b5056fea2646970667358221220fbed8dfe822b5098c2c565504986a62b4e2769ae4451ab47b92643a4b97eed6864736f6c63430008040033",
  "linkReferences": {},
  "deployedLinkReferences": {}
}