{
  "_format": "hh-sol-artifact-1",
  "contractName": "BeFitterWallet",
  "sourceName": "contracts/BFWallet.sol",
  "abi": [
    {
      "inputs": [],
      "stateMutability": "nonpayable",
      "type": "constructor"
    },
    {
      "anonymous": false,
      "inputs": [
        {
          "indexed": true,
          "internalType": "address",
          "name": "from",
          "type": "address"
        },
        {
          "indexed": false,
          "internalType": "uint256",
          "name": "amount",
          "type": "uint256"
        },
        {
          "indexed": false,
          "internalType": "string",
          "name": "message",
          "type": "string"
        }
      ],
      "name": "DepositBNB",
      "type": "event"
    },
    {
      "anonymous": false,
      "inputs": [
        {
          "indexed": true,
          "internalType": "address",
          "name": "from",
          "type": "address"
        },
        {
          "indexed": true,
          "internalType": "address",
          "name": "tokenAddress",
          "type": "address"
        },
        {
          "indexed": false,
          "internalType": "uint256",
          "name": "tokenId",
          "type": "uint256"
        },
        {
          "indexed": false,
          "internalType": "string",
          "name": "message",
          "type": "string"
        }
      ],
      "name": "DepositItem",
      "type": "event"
    },
    {
      "anonymous": false,
      "inputs": [
        {
          "indexed": true,
          "internalType": "address",
          "name": "from",
          "type": "address"
        },
        {
          "indexed": true,
          "internalType": "address",
          "name": "tokenAddress",
          "type": "address"
        },
        {
          "indexed": false,
          "internalType": "uint256",
          "name": "tokenId",
          "type": "uint256"
        },
        {
          "indexed": false,
          "internalType": "uint256",
          "name": "amount",
          "type": "uint256"
        },
        {
          "indexed": false,
          "internalType": "string",
          "name": "message",
          "type": "string"
        }
      ],
      "name": "DepositMTS",
      "type": "event"
    },
    {
      "anonymous": false,
      "inputs": [
        {
          "indexed": true,
          "internalType": "address",
          "name": "from",
          "type": "address"
        },
        {
          "indexed": true,
          "internalType": "address",
          "name": "tokenAddress",
          "type": "address"
        },
        {
          "indexed": false,
          "internalType": "uint256",
          "name": "amount",
          "type": "uint256"
        },
        {
          "indexed": false,
          "internalType": "string",
          "name": "message",
          "type": "string"
        }
      ],
      "name": "DepositToken",
      "type": "event"
    },
    {
      "anonymous": false,
      "inputs": [
        {
          "indexed": true,
          "internalType": "address",
          "name": "previousOwner",
          "type": "address"
        },
        {
          "indexed": true,
          "internalType": "address",
          "name": "newOwner",
          "type": "address"
        }
      ],
      "name": "OwnershipTransferred",
      "type": "event"
    },
    {
      "anonymous": false,
      "inputs": [
        {
          "indexed": true,
          "internalType": "address",
          "name": "from",
          "type": "address"
        },
        {
          "indexed": false,
          "internalType": "uint256",
          "name": "amount",
          "type": "uint256"
        }
      ],
      "name": "ReceiveBNB",
      "type": "event"
    },
    {
      "anonymous": false,
      "inputs": [
        {
          "indexed": true,
          "internalType": "address",
          "name": "from",
          "type": "address"
        },
        {
          "indexed": true,
          "internalType": "address",
          "name": "to",
          "type": "address"
        },
        {
          "indexed": false,
          "internalType": "uint256",
          "name": "amount",
          "type": "uint256"
        },
        {
          "indexed": false,
          "internalType": "string",
          "name": "message",
          "type": "string"
        }
      ],
      "name": "TransferBNB",
      "type": "event"
    },
    {
      "anonymous": false,
      "inputs": [
        {
          "indexed": true,
          "internalType": "address",
          "name": "from",
          "type": "address"
        },
        {
          "indexed": true,
          "internalType": "address",
          "name": "to",
          "type": "address"
        },
        {
          "indexed": true,
          "internalType": "address",
          "name": "tokenAddress",
          "type": "address"
        },
        {
          "indexed": false,
          "internalType": "uint256",
          "name": "tokenId",
          "type": "uint256"
        },
        {
          "indexed": false,
          "internalType": "string",
          "name": "message",
          "type": "string"
        }
      ],
      "name": "TransferItem",
      "type": "event"
    },
    {
      "anonymous": false,
      "inputs": [
        {
          "indexed": true,
          "internalType": "address",
          "name": "from",
          "type": "address"
        },
        {
          "indexed": true,
          "internalType": "address",
          "name": "to",
          "type": "address"
        },
        {
          "indexed": true,
          "internalType": "address",
          "name": "tokenAddress",
          "type": "address"
        },
        {
          "indexed": false,
          "internalType": "uint256",
          "name": "tokenId",
          "type": "uint256"
        },
        {
          "indexed": false,
          "internalType": "string",
          "name": "message",
          "type": "string"
        }
      ],
      "name": "TransferMTS",
      "type": "event"
    },
    {
      "anonymous": false,
      "inputs": [
        {
          "indexed": true,
          "internalType": "address",
          "name": "from",
          "type": "address"
        },
        {
          "indexed": true,
          "internalType": "address",
          "name": "to",
          "type": "address"
        },
        {
          "indexed": true,
          "internalType": "address",
          "name": "tokenAddress",
          "type": "address"
        },
        {
          "indexed": false,
          "internalType": "uint256",
          "name": "amount",
          "type": "uint256"
        },
        {
          "indexed": false,
          "internalType": "string",
          "name": "message",
          "type": "string"
        }
      ],
      "name": "TransferToken",
      "type": "event"
    },
    {
      "anonymous": false,
      "inputs": [
        {
          "indexed": true,
          "internalType": "address",
          "name": "to",
          "type": "address"
        },
        {
          "indexed": false,
          "internalType": "uint256",
          "name": "amount",
          "type": "uint256"
        },
        {
          "indexed": false,
          "internalType": "string",
          "name": "message",
          "type": "string"
        }
      ],
      "name": "WithdrawBNB",
      "type": "event"
    },
    {
      "anonymous": false,
      "inputs": [
        {
          "indexed": true,
          "internalType": "address",
          "name": "to",
          "type": "address"
        },
        {
          "indexed": true,
          "internalType": "address",
          "name": "tokenAddress",
          "type": "address"
        },
        {
          "indexed": false,
          "internalType": "uint256",
          "name": "tokenId",
          "type": "uint256"
        },
        {
          "indexed": false,
          "internalType": "string",
          "name": "message",
          "type": "string"
        }
      ],
      "name": "WithdrawItem",
      "type": "event"
    },
    {
      "anonymous": false,
      "inputs": [
        {
          "indexed": true,
          "internalType": "address",
          "name": "to",
          "type": "address"
        },
        {
          "indexed": true,
          "internalType": "address",
          "name": "tokenAddress",
          "type": "address"
        },
        {
          "indexed": false,
          "internalType": "uint256",
          "name": "tokenId",
          "type": "uint256"
        },
        {
          "indexed": false,
          "internalType": "uint256",
          "name": "amount",
          "type": "uint256"
        },
        {
          "indexed": false,
          "internalType": "string",
          "name": "messgage",
          "type": "string"
        }
      ],
      "name": "WithdrawMTS",
      "type": "event"
    },
    {
      "anonymous": false,
      "inputs": [
        {
          "indexed": true,
          "internalType": "address",
          "name": "to",
          "type": "address"
        },
        {
          "indexed": true,
          "internalType": "address",
          "name": "tokenAddress",
          "type": "address"
        },
        {
          "indexed": false,
          "internalType": "uint256",
          "name": "amount",
          "type": "uint256"
        },
        {
          "indexed": false,
          "internalType": "string",
          "name": "message",
          "type": "string"
        }
      ],
      "name": "WithdrawToken",
      "type": "event"
    },
    {
      "inputs": [
        {
          "internalType": "string",
          "name": "message",
          "type": "string"
        }
      ],
      "name": "depositBNB",
      "outputs": [],
      "stateMutability": "payable",
      "type": "function"
    },
    {
      "inputs": [
        {
          "internalType": "address",
          "name": "tokenAddress",
          "type": "address"
        },
        {
          "internalType": "uint256",
          "name": "tokenId",
          "type": "uint256"
        },
        {
          "internalType": "string",
          "name": "message",
          "type": "string"
        }
      ],
      "name": "depositItem",
      "outputs": [],
      "stateMutability": "nonpayable",
      "type": "function"
    },
    {
      "inputs": [
        {
          "internalType": "address",
          "name": "tokenAddress",
          "type": "address"
        },
        {
          "internalType": "uint256",
          "name": "tokenId",
          "type": "uint256"
        },
        {
          "internalType": "uint256",
          "name": "amount",
          "type": "uint256"
        },
        {
          "internalType": "string",
          "name": "message",
          "type": "string"
        }
      ],
      "name": "depositMTS",
      "outputs": [],
      "stateMutability": "nonpayable",
      "type": "function"
    },
    {
      "inputs": [
        {
          "internalType": "address",
          "name": "tokenAddress",
          "type": "address"
        },
        {
          "internalType": "uint256",
          "name": "amount",
          "type": "uint256"
        },
        {
          "internalType": "string",
          "name": "message",
          "type": "string"
        }
      ],
      "name": "depositToken",
      "outputs": [],
      "stateMutability": "nonpayable",
      "type": "function"
    },
    {
      "inputs": [
        {
          "internalType": "address",
          "name": "operator",
          "type": "address"
        }
      ],
      "name": "isOperator",
      "outputs": [
        {
          "internalType": "bool",
          "name": "",
          "type": "bool"
        }
      ],
      "stateMutability": "view",
      "type": "function"
    },
    {
      "inputs": [
        {
          "internalType": "address",
          "name": "",
          "type": "address"
        },
        {
          "internalType": "address",
          "name": "",
          "type": "address"
        },
        {
          "internalType": "uint256[]",
          "name": "",
          "type": "uint256[]"
        },
        {
          "internalType": "uint256[]",
          "name": "",
          "type": "uint256[]"
        },
        {
          "internalType": "bytes",
          "name": "",
          "type": "bytes"
        }
      ],
      "name": "onERC1155BatchReceived",
      "outputs": [
        {
          "internalType": "bytes4",
          "name": "",
          "type": "bytes4"
        }
      ],
      "stateMutability": "nonpayable",
      "type": "function"
    },
    {
      "inputs": [
        {
          "internalType": "address",
          "name": "",
          "type": "address"
        },
        {
          "internalType": "address",
          "name": "",
          "type": "address"
        },
        {
          "internalType": "uint256",
          "name": "",
          "type": "uint256"
        },
        {
          "internalType": "uint256",
          "name": "",
          "type": "uint256"
        },
        {
          "internalType": "bytes",
          "name": "",
          "type": "bytes"
        }
      ],
      "name": "onERC1155Received",
      "outputs": [
        {
          "internalType": "bytes4",
          "name": "",
          "type": "bytes4"
        }
      ],
      "stateMutability": "nonpayable",
      "type": "function"
    },
    {
      "inputs": [
        {
          "internalType": "address",
          "name": "",
          "type": "address"
        },
        {
          "internalType": "address",
          "name": "",
          "type": "address"
        },
        {
          "internalType": "uint256",
          "name": "",
          "type": "uint256"
        },
        {
          "internalType": "bytes",
          "name": "",
          "type": "bytes"
        }
      ],
      "name": "onERC721Received",
      "outputs": [
        {
          "internalType": "bytes4",
          "name": "",
          "type": "bytes4"
        }
      ],
      "stateMutability": "nonpayable",
      "type": "function"
    },
    {
      "inputs": [],
      "name": "owner",
      "outputs": [
        {
          "internalType": "address",
          "name": "",
          "type": "address"
        }
      ],
      "stateMutability": "view",
      "type": "function"
    },
    {
      "inputs": [
        {
          "internalType": "address",
          "name": "operator",
          "type": "address"
        }
      ],
      "name": "removeOperator",
      "outputs": [],
      "stateMutability": "nonpayable",
      "type": "function"
    },
    {
      "inputs": [],
      "name": "renounceOwnership",
      "outputs": [],
      "stateMutability": "nonpayable",
      "type": "function"
    },
    {
      "inputs": [
        {
          "internalType": "uint256",
          "name": "amount",
          "type": "uint256"
        }
      ],
      "name": "setBNBWithdrawalLimit",
      "outputs": [],
      "stateMutability": "nonpayable",
      "type": "function"
    },
    {
      "inputs": [
        {
          "internalType": "uint256",
          "name": "amount",
          "type": "uint256"
        }
      ],
      "name": "setItemWithdrawalLimit",
      "outputs": [],
      "stateMutability": "nonpayable",
      "type": "function"
    },
    {
      "inputs": [
        {
          "internalType": "address",
          "name": "operator",
          "type": "address"
        }
      ],
      "name": "setOperator",
      "outputs": [],
      "stateMutability": "nonpayable",
      "type": "function"
    },
    {
      "inputs": [
        {
          "internalType": "uint256",
          "name": "amount",
          "type": "uint256"
        }
      ],
      "name": "setTokenWithdrawalLimit",
      "outputs": [],
      "stateMutability": "nonpayable",
      "type": "function"
    },
    {
      "inputs": [
        {
          "internalType": "bytes4",
          "name": "interfaceId",
          "type": "bytes4"
        }
      ],
      "name": "supportsInterface",
      "outputs": [
        {
          "internalType": "bool",
          "name": "",
          "type": "bool"
        }
      ],
      "stateMutability": "view",
      "type": "function"
    },
    {
      "inputs": [
        {
          "internalType": "address",
          "name": "to",
          "type": "address"
        },
        {
          "internalType": "string",
          "name": "message",
          "type": "string"
        }
      ],
      "name": "transferBNB",
      "outputs": [],
      "stateMutability": "payable",
      "type": "function"
    },
    {
      "inputs": [
        {
          "internalType": "address",
          "name": "from",
          "type": "address"
        },
        {
          "internalType": "address",
          "name": "to",
          "type": "address"
        },
        {
          "internalType": "address",
          "name": "tokenAddress",
          "type": "address"
        },
        {
          "internalType": "uint256",
          "name": "tokenId",
          "type": "uint256"
        },
        {
          "internalType": "string",
          "name": "message",
          "type": "string"
        }
      ],
      "name": "transferItem",
      "outputs": [],
      "stateMutability": "nonpayable",
      "type": "function"
    },
    {
      "inputs": [
        {
          "internalType": "address",
          "name": "from",
          "type": "address"
        },
        {
          "internalType": "address",
          "name": "to",
          "type": "address"
        },
        {
          "internalType": "address",
          "name": "tokenAddress",
          "type": "address"
        },
        {
          "internalType": "uint256",
          "name": "tokenId",
          "type": "uint256"
        },
        {
          "internalType": "uint256",
          "name": "amount",
          "type": "uint256"
        },
        {
          "internalType": "string",
          "name": "message",
          "type": "string"
        }
      ],
      "name": "transferMTS",
      "outputs": [],
      "stateMutability": "nonpayable",
      "type": "function"
    },
    {
      "inputs": [
        {
          "internalType": "address",
          "name": "newOwner",
          "type": "address"
        }
      ],
      "name": "transferOwnership",
      "outputs": [],
      "stateMutability": "nonpayable",
      "type": "function"
    },
    {
      "inputs": [
        {
          "internalType": "address",
          "name": "from",
          "type": "address"
        },
        {
          "internalType": "address",
          "name": "to",
          "type": "address"
        },
        {
          "internalType": "address",
          "name": "tokenAddress",
          "type": "address"
        },
        {
          "internalType": "uint256",
          "name": "amount",
          "type": "uint256"
        },
        {
          "internalType": "string",
          "name": "message",
          "type": "string"
        }
      ],
      "name": "transferToken",
      "outputs": [],
      "stateMutability": "nonpayable",
      "type": "function"
    },
    {
      "inputs": [
        {
          "internalType": "address",
          "name": "to",
          "type": "address"
        },
        {
          "internalType": "uint256",
          "name": "amount",
          "type": "uint256"
        },
        {
          "internalType": "string",
          "name": "message",
          "type": "string"
        }
      ],
      "name": "withdrawBNB",
      "outputs": [],
      "stateMutability": "nonpayable",
      "type": "function"
    },
    {
      "inputs": [
        {
          "internalType": "address",
          "name": "to",
          "type": "address"
        },
        {
          "internalType": "address",
          "name": "tokenAddress",
          "type": "address"
        },
        {
          "internalType": "uint256",
          "name": "tokenId",
          "type": "uint256"
        },
        {
          "internalType": "string",
          "name": "message",
          "type": "string"
        }
      ],
      "name": "withdrawItem",
      "outputs": [],
      "stateMutability": "nonpayable",
      "type": "function"
    },
    {
      "inputs": [
        {
          "internalType": "address",
          "name": "to",
          "type": "address"
        },
        {
          "internalType": "address",
          "name": "tokenAddress",
          "type": "address"
        },
        {
          "internalType": "uint256",
          "name": "tokenId",
          "type": "uint256"
        },
        {
          "internalType": "uint256",
          "name": "amount",
          "type": "uint256"
        },
        {
          "internalType": "string",
          "name": "message",
          "type": "string"
        }
      ],
      "name": "withdrawMTS",
      "outputs": [],
      "stateMutability": "nonpayable",
      "type": "function"
    },
    {
      "inputs": [
        {
          "internalType": "address",
          "name": "to",
          "type": "address"
        },
        {
          "internalType": "address",
          "name": "tokenAddress",
          "type": "address"
        },
        {
          "internalType": "uint256",
          "name": "amount",
          "type": "uint256"
        },
        {
          "internalType": "string",
          "name": "message",
          "type": "string"
        }
      ],
      "name": "withdrawToken",
      "outputs": [],
      "stateMutability": "nonpayable",
      "type": "function"
    },
    {
      "stateMutability": "payable",
      "type": "receive"
    }
  ],
  "bytecode": "0x60806040523480156200001157600080fd5b5062000032620000266200011160201b60201c565b6200011960201b60201c565b60018060003373ffffffffffffffffffffffffffffffffffffffff1673ffffffffffffffffffffffffffffffffffffffff16815260200190815260200160002060006101000a81548160ff02191690831515021790555060018060003373ffffffffffffffffffffffffffffffffffffffff1673ffffffffffffffffffffffffffffffffffffffff16815260200190815260200160002060006101000a81548160ff0219169083151502179055506b033b2e3c9fd0803ce8000000600281905550683635c9adc5dea000006003819055506001600481905550620001dd565b600033905090565b60008060009054906101000a900473ffffffffffffffffffffffffffffffffffffffff169050816000806101000a81548173ffffffffffffffffffffffffffffffffffffffff021916908373ffffffffffffffffffffffffffffffffffffffff1602179055508173ffffffffffffffffffffffffffffffffffffffff168173ffffffffffffffffffffffffffffffffffffffff167f8be0079c531659141344cd1fd0a4f28419497f9722a3daafe3b4186f6b6457e060405160405180910390a35050565b612af480620001ed6000396000f3fe60806040526004361061016a5760003560e01c806380c0de98116100d1578063b3ab15fb1161008a578063cd3eb51a11610064578063cd3eb51a14610547578063d60982d514610570578063f23a6e6114610599578063f2fde38b146105d6576101bf565b8063b3ab15fb146104b8578063bc197c81146104e1578063c60d228e1461051e576101bf565b806380c0de98146103c057806387005e0c146103e95780638da5cb5b14610412578063a10d09601461043d578063aad8ed4c14610466578063ac8a584a1461048f576101bf565b80632a0d2b25116101235780632a0d2b25146102e257806346c8106b146102fe5780634f79f7da1461032757806351344683146103505780636d70f7ae1461036c578063715018a6146103a9576101bf565b806301ffc9a7146101c45780630596f24b14610201578063150b7a021461022a5780631a04ffa714610267578063200bedde1461029057806327f1be3b146102b9576101bf565b366101bf573373ffffffffffffffffffffffffffffffffffffffff167f344d9d9b1c237ca7e367c0536bc9744a50eb5d6976b76f09a09cb3e7e871df5d346040516101b591906125b8565b60405180910390a2005b600080fd5b3480156101d057600080fd5b506101eb60048036038101906101e691906120f1565b6105ff565b6040516101f89190612462565b60405180910390f35b34801561020d57600080fd5b5061022860048036038101906102239190611b8f565b610679565b005b34801561023657600080fd5b50610251600480360381019061024c9190611d7e565b610773565b60405161025e919061247d565b60405180910390f35b34801561027357600080fd5b5061028e6004803603810190610289919061215b565b610787565b005b34801561029c57600080fd5b506102b760048036038101906102b29190611f03565b610799565b005b3480156102c557600080fd5b506102e060048036038101906102db919061204d565b61090c565b005b6102fc60048036038101906102f79190611f92565b6109f2565b005b34801561030a57600080fd5b506103256004803603810190610320919061215b565b610bdf565b005b34801561033357600080fd5b5061034e60048036038101906103499190611df9565b610bf1565b005b61036a6004803603810190610365919061211a565b610dc3565b005b34801561037857600080fd5b50610393600480360381019061038e9190611b66565b610e16565b6040516103a09190612462565b60405180910390f35b3480156103b557600080fd5b506103be610e6c565b005b3480156103cc57600080fd5b506103e760048036038101906103e29190611fe6565b610e80565b005b3480156103f557600080fd5b50610410600480360381019061040b9190611c1e565b61109c565b005b34801561041e57600080fd5b50610427611199565b604051610434919061238f565b60405180910390f35b34801561044957600080fd5b50610464600480360381019061045f9190611fe6565b6111c2565b005b34801561047257600080fd5b5061048d60048036038101906104889190611df9565b6112c4565b005b34801561049b57600080fd5b506104b660048036038101906104b19190611b66565b611477565b005b3480156104c457600080fd5b506104df60048036038101906104da9190611b66565b6114da565b005b3480156104ed57600080fd5b5061050860048036038101906105039190611cbf565b61153c565b604051610515919061247d565b60405180910390f35b34801561052a57600080fd5b5061054560048036038101906105409190611b8f565b611551565b005b34801561055357600080fd5b5061056e6004803603810190610569919061215b565b61166c565b005b34801561057c57600080fd5b5061059760048036038101906105929190611fe6565b61167e565b005b3480156105a557600080fd5b506105c060048036038101906105bb9190611e74565b61175f565b6040516105cd919061247d565b60405180910390f35b3480156105e257600080fd5b506105fd60048036038101906105f89190611b66565b611774565b005b60007f4e2312e0000000000000000000000000000000000000000000000000000000007bffffffffffffffffffffffffffffffffffffffffffffffffffffffff1916827bffffffffffffffffffffffffffffffffffffffffffffffffffffffff191614806106725750610671826117f8565b5b9050919050565b60008390508073ffffffffffffffffffffffffffffffffffffffff166323b872dd8787866040518463ffffffff1660e01b81526004016106bb939291906123aa565b600060405180830381600087803b1580156106d557600080fd5b505af11580156106e9573d6000803e3d6000fd5b505050508373ffffffffffffffffffffffffffffffffffffffff168573ffffffffffffffffffffffffffffffffffffffff168773ffffffffffffffffffffffffffffffffffffffff167fa96fabde5593c6f04bd1793146304f7dd319a843c16cbf282fa0eea0884920f286866040516107639291906125d3565b60405180910390a4505050505050565b600063150b7a0260e01b9050949350505050565b61078f611862565b8060048190555050565b600160003373ffffffffffffffffffffffffffffffffffffffff1673ffffffffffffffffffffffffffffffffffffffff16815260200190815260200160002060009054906101000a900460ff16610825576040517f08c379a000000000000000000000000000000000000000000000000000000000815260040161081c906124f8565b60405180910390fd5b60008490508073ffffffffffffffffffffffffffffffffffffffff1663f242432a308887876040518563ffffffff1660e01b815260040161086994939291906123e1565b600060405180830381600087803b15801561088357600080fd5b505af1158015610897573d6000803e3d6000fd5b505050508473ffffffffffffffffffffffffffffffffffffffff168673ffffffffffffffffffffffffffffffffffffffff167f787aa950d2c09a662396c514b3f8f8c03b9a5f1744a6b49380bba4dfb93e15c78686866040516108fc93929190612603565b60405180910390a3505050505050565b60008490508073ffffffffffffffffffffffffffffffffffffffff1663f242432a333087876040518563ffffffff1660e01b815260040161095094939291906123e1565b600060405180830381600087803b15801561096a57600080fd5b505af115801561097e573d6000803e3d6000fd5b505050508473ffffffffffffffffffffffffffffffffffffffff163373ffffffffffffffffffffffffffffffffffffffff167f5aaab97ac648b3f6f144816f4d7cb232a128866bd84d21291083cd10931bace98686866040516109e393929190612603565b60405180910390a35050505050565b600160003373ffffffffffffffffffffffffffffffffffffffff1673ffffffffffffffffffffffffffffffffffffffff16815260200190815260200160002060009054906101000a900460ff16610a7e576040517f08c379a0000000000000000000000000000000000000000000000000000000008152600401610a75906124f8565b60405180910390fd5b600034905060008111610ac6576040517f08c379a0000000000000000000000000000000000000000000000000000000008152600401610abd90612538565b60405180910390fd5b60008373ffffffffffffffffffffffffffffffffffffffff1682604051610aec9061237a565b60006040518083038185875af1925050503d8060008114610b29576040519150601f19603f3d011682016040523d82523d6000602084013e610b2e565b606091505b5050905080610b72576040517f08c379a0000000000000000000000000000000000000000000000000000000008152600401610b69906124d8565b60405180910390fd5b8373ffffffffffffffffffffffffffffffffffffffff163373ffffffffffffffffffffffffffffffffffffffff167f743881d727e97185d77e523446045043486f44983ba854a403fb80f8ebe78bd58486604051610bd19291906125d3565b60405180910390a350505050565b610be7611862565b8060038190555050565b600160003373ffffffffffffffffffffffffffffffffffffffff1673ffffffffffffffffffffffffffffffffffffffff16815260200190815260200160002060009054906101000a900460ff16610c7d576040517f08c379a0000000000000000000000000000000000000000000000000000000008152600401610c74906124f8565b60405180910390fd5b600254821115610cc2576040517f08c379a0000000000000000000000000000000000000000000000000000000008152600401610cb990612598565b60405180910390fd5b60008390508073ffffffffffffffffffffffffffffffffffffffff1663a9059cbb86856040518363ffffffff1660e01b8152600401610d02929190612439565b602060405180830381600087803b158015610d1c57600080fd5b505af1158015610d30573d6000803e3d6000fd5b505050506040513d601f19601f82011682018060405250810190610d5491906120c8565b508373ffffffffffffffffffffffffffffffffffffffff168573ffffffffffffffffffffffffffffffffffffffff167f9b1ce395f06d20cfda7c507fce70665c7d02538019987c27111bb0accc35bb8e8585604051610db49291906125d3565b60405180910390a35050505050565b3373ffffffffffffffffffffffffffffffffffffffff167fecff53702f9847aae90f6f0afc3f2b93f4b11ac5cc98022574258851bd4ecc7e3483604051610e0b9291906125d3565b60405180910390a250565b6000600160008373ffffffffffffffffffffffffffffffffffffffff1673ffffffffffffffffffffffffffffffffffffffff16815260200190815260200160002060009054906101000a900460ff169050919050565b610e74611862565b610e7e60006118e0565b565b600160003373ffffffffffffffffffffffffffffffffffffffff1673ffffffffffffffffffffffffffffffffffffffff16815260200190815260200160002060009054906101000a900460ff16610f0c576040517f08c379a0000000000000000000000000000000000000000000000000000000008152600401610f03906124f8565b60405180910390fd5b600047905080831115610f54576040517f08c379a0000000000000000000000000000000000000000000000000000000008152600401610f4b90612518565b60405180910390fd5b600354831115610f99576040517f08c379a0000000000000000000000000000000000000000000000000000000008152600401610f9090612598565b60405180910390fd5b60008473ffffffffffffffffffffffffffffffffffffffff1684604051610fbf9061237a565b60006040518083038185875af1925050503d8060008114610ffc576040519150601f19603f3d011682016040523d82523d6000602084013e611001565b606091505b5050905080611045576040517f08c379a000000000000000000000000000000000000000000000000000000000815260040161103c90612498565b60405180910390fd5b8473ffffffffffffffffffffffffffffffffffffffff167f754e0e556e57d38e5dd29cf04e7ef740a5036b0560d64f176af570e4d4383a67858560405161108d9291906125d3565b60405180910390a25050505050565b60008490508073ffffffffffffffffffffffffffffffffffffffff1663f242432a888887876040518563ffffffff1660e01b81526004016110e094939291906123e1565b600060405180830381600087803b1580156110fa57600080fd5b505af115801561110e573d6000803e3d6000fd5b505050508473ffffffffffffffffffffffffffffffffffffffff168673ffffffffffffffffffffffffffffffffffffffff168873ffffffffffffffffffffffffffffffffffffffff167fdace58678e04d825ee455163dc9a67a59612357c30389baab33961e9cb4d927987866040516111889291906125d3565b60405180910390a450505050505050565b60008060009054906101000a900473ffffffffffffffffffffffffffffffffffffffff16905090565b60008390508073ffffffffffffffffffffffffffffffffffffffff166323b872dd3330866040518463ffffffff1660e01b8152600401611204939291906123aa565b602060405180830381600087803b15801561121e57600080fd5b505af1158015611232573d6000803e3d6000fd5b505050506040513d601f19601f8201168201806040525081019061125691906120c8565b508373ffffffffffffffffffffffffffffffffffffffff163373ffffffffffffffffffffffffffffffffffffffff167f2fce8d8ffe80e8afa7c218aab265428efef64b466072cf24c404bce48f2e8b6a85856040516112b69291906125d3565b60405180910390a350505050565b600160003373ffffffffffffffffffffffffffffffffffffffff1673ffffffffffffffffffffffffffffffffffffffff16815260200190815260200160002060009054906101000a900460ff16611350576040517f08c379a0000000000000000000000000000000000000000000000000000000008152600401611347906124f8565b60405180910390fd5b600060045411611395576040517f08c379a000000000000000000000000000000000000000000000000000000000815260040161138c90612578565b60405180910390fd5b60008390508073ffffffffffffffffffffffffffffffffffffffff166323b872dd3087866040518463ffffffff1660e01b81526004016113d7939291906123aa565b600060405180830381600087803b1580156113f157600080fd5b505af1158015611405573d6000803e3d6000fd5b505050508373ffffffffffffffffffffffffffffffffffffffff168573ffffffffffffffffffffffffffffffffffffffff167f6e2f27f4c1767312ef6de9de49976505f75294b205fda61b24784d7f094a908b85856040516114689291906125d3565b60405180910390a35050505050565b61147f611862565b6000600160008373ffffffffffffffffffffffffffffffffffffffff1673ffffffffffffffffffffffffffffffffffffffff16815260200190815260200160002060006101000a81548160ff02191690831515021790555050565b6114e2611862565b60018060008373ffffffffffffffffffffffffffffffffffffffff1673ffffffffffffffffffffffffffffffffffffffff16815260200190815260200160002060006101000a81548160ff02191690831515021790555050565b600063bc197c8160e01b905095945050505050565b60008390508073ffffffffffffffffffffffffffffffffffffffff166323b872dd8787866040518463ffffffff1660e01b8152600401611593939291906123aa565b602060405180830381600087803b1580156115ad57600080fd5b505af11580156115c1573d6000803e3d6000fd5b505050506040513d601f19601f820116820180604052508101906115e591906120c8565b508373ffffffffffffffffffffffffffffffffffffffff168573ffffffffffffffffffffffffffffffffffffffff168773ffffffffffffffffffffffffffffffffffffffff167fefbf9e71b8b9415ed6723cea57670470f2fa0e9cc6c4aebe4c25d90e4c688277868660405161165c9291906125d3565b60405180910390a4505050505050565b611674611862565b8060028190555050565b60008390508073ffffffffffffffffffffffffffffffffffffffff166323b872dd3330866040518463ffffffff1660e01b81526004016116c0939291906123aa565b600060405180830381600087803b1580156116da57600080fd5b505af11580156116ee573d6000803e3d6000fd5b505050508373ffffffffffffffffffffffffffffffffffffffff163373ffffffffffffffffffffffffffffffffffffffff167f8af54dcc567c4ed2be27d3b9c87e334cbfab633b56222ffe6e9fb31fe725ea2b85856040516117519291906125d3565b60405180910390a350505050565b600063f23a6e6160e01b905095945050505050565b61177c611862565b600073ffffffffffffffffffffffffffffffffffffffff168173ffffffffffffffffffffffffffffffffffffffff1614156117ec576040517f08c379a00000000000000000000000000000000000000000000000000000000081526004016117e3906124b8565b60405180910390fd5b6117f5816118e0565b50565b60007f01ffc9a7000000000000000000000000000000000000000000000000000000007bffffffffffffffffffffffffffffffffffffffffffffffffffffffff1916827bffffffffffffffffffffffffffffffffffffffffffffffffffffffff1916149050919050565b61186a6119a4565b73ffffffffffffffffffffffffffffffffffffffff16611888611199565b73ffffffffffffffffffffffffffffffffffffffff16146118de576040517f08c379a00000000000000000000000000000000000000000000000000000000081526004016118d590612558565b60405180910390fd5b565b60008060009054906101000a900473ffffffffffffffffffffffffffffffffffffffff169050816000806101000a81548173ffffffffffffffffffffffffffffffffffffffff021916908373ffffffffffffffffffffffffffffffffffffffff1602179055508173ffffffffffffffffffffffffffffffffffffffff168173ffffffffffffffffffffffffffffffffffffffff167f8be0079c531659141344cd1fd0a4f28419497f9722a3daafe3b4186f6b6457e060405160405180910390a35050565b600033905090565b60006119bf6119ba84612666565b612641565b905080838252602082019050828560208602820111156119de57600080fd5b60005b85811015611a0e57816119f48882611b51565b8452602084019350602083019250506001810190506119e1565b5050509392505050565b6000611a2b611a2684612692565b612641565b905082815260208101848484011115611a4357600080fd5b611a4e8482856127a0565b509392505050565b6000611a69611a64846126c3565b612641565b905082815260208101848484011115611a8157600080fd5b611a8c8482856127a0565b509392505050565b600081359050611aa381612a62565b92915050565b600082601f830112611aba57600080fd5b8135611aca8482602086016119ac565b91505092915050565b600081519050611ae281612a79565b92915050565b600081359050611af781612a90565b92915050565b600082601f830112611b0e57600080fd5b8135611b1e848260208601611a18565b91505092915050565b600082601f830112611b3857600080fd5b8135611b48848260208601611a56565b91505092915050565b600081359050611b6081612aa7565b92915050565b600060208284031215611b7857600080fd5b6000611b8684828501611a94565b91505092915050565b600080600080600060a08688031215611ba757600080fd5b6000611bb588828901611a94565b9550506020611bc688828901611a94565b9450506040611bd788828901611a94565b9350506060611be888828901611b51565b925050608086013567ffffffffffffffff811115611c0557600080fd5b611c1188828901611b27565b9150509295509295909350565b60008060008060008060c08789031215611c3757600080fd5b6000611c4589828a01611a94565b9650506020611c5689828a01611a94565b9550506040611c6789828a01611a94565b9450506060611c7889828a01611b51565b9350506080611c8989828a01611b51565b92505060a087013567ffffffffffffffff811115611ca657600080fd5b611cb289828a01611b27565b9150509295509295509295565b600080600080600060a08688031215611cd757600080fd5b6000611ce588828901611a94565b9550506020611cf688828901611a94565b945050604086013567ffffffffffffffff811115611d1357600080fd5b611d1f88828901611aa9565b935050606086013567ffffffffffffffff811115611d3c57600080fd5b611d4888828901611aa9565b925050608086013567ffffffffffffffff811115611d6557600080fd5b611d7188828901611afd565b9150509295509295909350565b60008060008060808587031215611d9457600080fd5b6000611da287828801611a94565b9450506020611db387828801611a94565b9350506040611dc487828801611b51565b925050606085013567ffffffffffffffff811115611de157600080fd5b611ded87828801611afd565b91505092959194509250565b60008060008060808587031215611e0f57600080fd5b6000611e1d87828801611a94565b9450506020611e2e87828801611a94565b9350506040611e3f87828801611b51565b925050606085013567ffffffffffffffff811115611e5c57600080fd5b611e6887828801611b27565b91505092959194509250565b600080600080600060a08688031215611e8c57600080fd5b6000611e9a88828901611a94565b9550506020611eab88828901611a94565b9450506040611ebc88828901611b51565b9350506060611ecd88828901611b51565b925050608086013567ffffffffffffffff811115611eea57600080fd5b611ef688828901611afd565b9150509295509295909350565b600080600080600060a08688031215611f1b57600080fd5b6000611f2988828901611a94565b9550506020611f3a88828901611a94565b9450506040611f4b88828901611b51565b9350506060611f5c88828901611b51565b925050608086013567ffffffffffffffff811115611f7957600080fd5b611f8588828901611b27565b9150509295509295909350565b60008060408385031215611fa557600080fd5b6000611fb385828601611a94565b925050602083013567ffffffffffffffff811115611fd057600080fd5b611fdc85828601611b27565b9150509250929050565b600080600060608486031215611ffb57600080fd5b600061200986828701611a94565b935050602061201a86828701611b51565b925050604084013567ffffffffffffffff81111561203757600080fd5b61204386828701611b27565b9150509250925092565b6000806000806080858703121561206357600080fd5b600061207187828801611a94565b945050602061208287828801611b51565b935050604061209387828801611b51565b925050606085013567ffffffffffffffff8111156120b057600080fd5b6120bc87828801611b27565b91505092959194509250565b6000602082840312156120da57600080fd5b60006120e884828501611ad3565b91505092915050565b60006020828403121561210357600080fd5b600061211184828501611ae8565b91505092915050565b60006020828403121561212c57600080fd5b600082013567ffffffffffffffff81111561214657600080fd5b61215284828501611b27565b91505092915050565b60006020828403121561216d57600080fd5b600061217b84828501611b51565b91505092915050565b61218d8161272c565b82525050565b61219c8161273e565b82525050565b6121ab8161274a565b82525050565b60006121bc826126f4565b6121c6818561271b565b93506121d68185602086016127af565b6121df81612842565b840191505092915050565b60006121f760168361271b565b915061220282612853565b602082019050919050565b600061221a60268361271b565b91506122258261287c565b604082019050919050565b600061223d6004836126ff565b9150612248826128cb565b602082019050919050565b600061226060168361271b565b915061226b826128f4565b602082019050919050565b6000612283601b8361271b565b915061228e8261291d565b602082019050919050565b60006122a660268361271b565b91506122b182612946565b604082019050919050565b60006122c9601b8361271b565b91506122d482612995565b602082019050919050565b60006122ec60208361271b565b91506122f7826129be565b602082019050919050565b600061230f60188361271b565b915061231a826129e7565b602082019050919050565b6000612332600083612710565b915061233d82612a10565b600082019050919050565b600061235560288361271b565b915061236082612a13565b604082019050919050565b61237481612796565b82525050565b600061238582612325565b9150819050919050565b60006020820190506123a46000830184612184565b92915050565b60006060820190506123bf6000830186612184565b6123cc6020830185612184565b6123d9604083018461236b565b949350505050565b600060a0820190506123f66000830187612184565b6124036020830186612184565b612410604083018561236b565b61241d606083018461236b565b818103608083015261242e81612230565b905095945050505050565b600060408201905061244e6000830185612184565b61245b602083018461236b565b9392505050565b60006020820190506124776000830184612193565b92915050565b600060208201905061249260008301846121a2565b92915050565b600060208201905081810360008301526124b1816121ea565b9050919050565b600060208201905081810360008301526124d18161220d565b9050919050565b600060208201905081810360008301526124f181612253565b9050919050565b6000602082019050818103600083015261251181612276565b9050919050565b6000602082019050818103600083015261253181612299565b9050919050565b60006020820190508181036000830152612551816122bc565b9050919050565b60006020820190508181036000830152612571816122df565b9050919050565b6000602082019050818103600083015261259181612302565b9050919050565b600060208201905081810360008301526125b181612348565b9050919050565b60006020820190506125cd600083018461236b565b92915050565b60006040820190506125e8600083018561236b565b81810360208301526125fa81846121b1565b90509392505050565b6000606082019050612618600083018661236b565b612625602083018561236b565b818103604083015261263781846121b1565b9050949350505050565b600061264b61265c565b905061265782826127e2565b919050565b6000604051905090565b600067ffffffffffffffff82111561268157612680612813565b5b602082029050602081019050919050565b600067ffffffffffffffff8211156126ad576126ac612813565b5b6126b682612842565b9050602081019050919050565b600067ffffffffffffffff8211156126de576126dd612813565b5b6126e782612842565b9050602081019050919050565b600081519050919050565b600082825260208201905092915050565b600081905092915050565b600082825260208201905092915050565b600061273782612776565b9050919050565b60008115159050919050565b60007fffffffff0000000000000000000000000000000000000000000000000000000082169050919050565b600073ffffffffffffffffffffffffffffffffffffffff82169050919050565b6000819050919050565b82818337600083830152505050565b60005b838110156127cd5780820151818401526020810190506127b2565b838111156127dc576000848401525b50505050565b6127eb82612842565b810181811067ffffffffffffffff8211171561280a57612809612813565b5b80604052505050565b7f4e487b7100000000000000000000000000000000000000000000000000000000600052604160045260246000fd5b6000601f19601f8301169050919050565b7f6661696c656420746f20776974686472617720424e4200000000000000000000600082015250565b7f4f776e61626c653a206e6577206f776e657220697320746865207a65726f206160008201527f6464726573730000000000000000000000000000000000000000000000000000602082015250565b7f3078303000000000000000000000000000000000000000000000000000000000600082015250565b7f6661696c656420746f207472616e7366657220424e4200000000000000000000600082015250565b7f63616c6c6572206973206e6f7420746865206f70657261746f72730000000000600082015250565b7f776974686472617720616d6f756e7420657863656564732077616c6c6574206260008201527f616c616e63650000000000000000000000000000000000000000000000000000602082015250565b7f424e4220616d6f756e74206d757374206e6f74206265207a65726f0000000000600082015250565b7f4f776e61626c653a2063616c6c6572206973206e6f7420746865206f776e6572600082015250565b7f43616e6e6f74207769746864726177206974656d206e6f770000000000000000600082015250565b50565b7f776974686472617720616d6f756e74206578636565647320776974686472617760008201527f616c206c696d6974000000000000000000000000000000000000000000000000602082015250565b612a6b8161272c565b8114612a7657600080fd5b50565b612a828161273e565b8114612a8d57600080fd5b50565b612a998161274a565b8114612aa457600080fd5b50565b612ab081612796565b8114612abb57600080fd5b5056fea26469706673582212206cdb819a8df726f2707afb128538057ced891496e57aa5424acce098753c991264736f6c63430008040033",
  "linkReferences": {},
  "deployedLinkReferences": {}
}