{
  "_format": "hh-sol-artifact-1",
  "contractName": "BeFitterClaim",
  "sourceName": "contracts/BeFitterClaim.sol",
  "abi": [
    {
      "inputs": [
        {
          "internalType": "address",
          "name": "boxAddress",
          "type": "address"
        },
        {
          "internalType": "bytes32",
          "name": "merkleRoot",
          "type": "bytes32"
        },
        {
          "internalType": "uint256",
          "name": "totalToken",
          "type": "uint256"
        },
        {
          "internalType": "string",
          "name": "boxType",
          "type": "string"
        }
      ],
      "stateMutability": "nonpayable",
      "type": "constructor"
    },
    {
      "anonymous": false,
      "inputs": [
        {
          "indexed": true,
          "internalType": "address",
          "name": "to",
          "type": "address"
        }
      ],
      "name": "ItemClaimed",
      "type": "event"
    },
    {
      "anonymous": false,
      "inputs": [
        {
          "indexed": true,
          "internalType": "address",
          "name": "previousOwner",
          "type": "address"
        },
        {
          "indexed": true,
          "internalType": "address",
          "name": "newOwner",
          "type": "address"
        }
      ],
      "name": "OwnershipTransferred",
      "type": "event"
    },
    {
      "inputs": [],
      "name": "_merkleRoot",
      "outputs": [
        {
          "internalType": "bytes32",
          "name": "",
          "type": "bytes32"
        }
      ],
      "stateMutability": "view",
      "type": "function"
    },
    {
      "inputs": [
        {
          "internalType": "address",
          "name": "wallet",
          "type": "address"
        },
        {
          "internalType": "uint256",
          "name": "amount",
          "type": "uint256"
        },
        {
          "internalType": "bytes32[]",
          "name": "merkleProof",
          "type": "bytes32[]"
        }
      ],
      "name": "claim",
      "outputs": [],
      "stateMutability": "nonpayable",
      "type": "function"
    },
    {
      "inputs": [
        {
          "internalType": "address",
          "name": "wallet",
          "type": "address"
        }
      ],
      "name": "getNumberOfClaimedItem",
      "outputs": [
        {
          "internalType": "uint256",
          "name": "",
          "type": "uint256"
        }
      ],
      "stateMutability": "view",
      "type": "function"
    },
    {
      "inputs": [],
      "name": "owner",
      "outputs": [
        {
          "internalType": "address",
          "name": "",
          "type": "address"
        }
      ],
      "stateMutability": "view",
      "type": "function"
    },
    {
      "inputs": [],
      "name": "renounceOwnership",
      "outputs": [],
      "stateMutability": "nonpayable",
      "type": "function"
    },
    {
      "inputs": [
        {
          "internalType": "address",
          "name": "newOwner",
          "type": "address"
        }
      ],
      "name": "transferOwnership",
      "outputs": [],
      "stateMutability": "nonpayable",
      "type": "function"
    },
    {
      "inputs": [
        {
          "internalType": "bytes32",
          "name": "merkleRoot",
          "type": "bytes32"
        },
        {
          "internalType": "uint256",
          "name": "totalAmount",
          "type": "uint256"
        }
      ],
      "name": "updateRoot",
      "outputs": [],
      "stateMutability": "nonpayable",
      "type": "function"
    }
  ],
  "bytecode": "0x60806040523480156200001157600080fd5b50604051620016d9380380620016d9833981810160405281019062000037919062000304565b620000576200004b620000d160201b60201c565b620000d960201b60201c565b83600160006101000a81548173ffffffffffffffffffffffffffffffffffffffff021916908373ffffffffffffffffffffffffffffffffffffffff16021790555082600281905550816003819055508060059080519060200190620000be9291906200019d565b506000600481905550505050506200058f565b600033905090565b60008060009054906101000a900473ffffffffffffffffffffffffffffffffffffffff169050816000806101000a81548173ffffffffffffffffffffffffffffffffffffffff021916908373ffffffffffffffffffffffffffffffffffffffff1602179055508173ffffffffffffffffffffffffffffffffffffffff168173ffffffffffffffffffffffffffffffffffffffff167f8be0079c531659141344cd1fd0a4f28419497f9722a3daafe3b4186f6b6457e060405160405180910390a35050565b828054620001ab9062000466565b90600052602060002090601f016020900481019282620001cf57600085556200021b565b82601f10620001ea57805160ff19168380011785556200021b565b828001600101855582156200021b579182015b828111156200021a578251825591602001919060010190620001fd565b5b5090506200022a91906200022e565b5090565b5b80821115620002495760008160009055506001016200022f565b5090565b6000620002646200025e84620003b2565b62000389565b9050828152602081018484840111156200027d57600080fd5b6200028a84828562000430565b509392505050565b600081519050620002a38162000541565b92915050565b600081519050620002ba816200055b565b92915050565b600082601f830112620002d257600080fd5b8151620002e48482602086016200024d565b91505092915050565b600081519050620002fe8162000575565b92915050565b600080600080608085870312156200031b57600080fd5b60006200032b8782880162000292565b94505060206200033e87828801620002a9565b93505060406200035187828801620002ed565b925050606085015167ffffffffffffffff8111156200036f57600080fd5b6200037d87828801620002c0565b91505092959194509250565b600062000395620003a8565b9050620003a382826200049c565b919050565b6000604051905090565b600067ffffffffffffffff821115620003d057620003cf62000501565b5b620003db8262000530565b9050602081019050919050565b6000620003f58262000406565b9050919050565b6000819050919050565b600073ffffffffffffffffffffffffffffffffffffffff82169050919050565b6000819050919050565b60005b838110156200045057808201518184015260208101905062000433565b8381111562000460576000848401525b50505050565b600060028204905060018216806200047f57607f821691505b60208210811415620004965762000495620004d2565b5b50919050565b620004a78262000530565b810181811067ffffffffffffffff82111715620004c957620004c862000501565b5b80604052505050565b7f4e487b7100000000000000000000000000000000000000000000000000000000600052602260045260246000fd5b7f4e487b7100000000000000000000000000000000000000000000000000000000600052604160045260246000fd5b6000601f19601f8301169050919050565b6200054c81620003e8565b81146200055857600080fd5b50565b6200056681620003fc565b81146200057257600080fd5b50565b620005808162000426565b81146200058c57600080fd5b50565b61113a806200059f6000396000f3fe608060405234801561001057600080fd5b506004361061007d5760003560e01c8063715018a61161005b578063715018a6146100ec5780638da5cb5b146100f6578063c2e3e62b14610114578063f2fde38b146101305761007d565b80630a82cfe9146100825780632fc37ab2146100b25780633d13f874146100d0575b600080fd5b61009c60048036038101906100979190610a1a565b61014c565b6040516100a99190610da7565b60405180910390f35b6100ba610195565b6040516100c79190610cec565b60405180910390f35b6100ea60048036038101906100e59190610a43565b61019b565b005b6100f46105c8565b005b6100fe6105dc565b60405161010b9190610ca1565b60405180910390f35b61012e60048036038101906101299190610aaf565b610605565b005b61014a60048036038101906101459190610a1a565b61061f565b005b6000600760008373ffffffffffffffffffffffffffffffffffffffff1673ffffffffffffffffffffffffffffffffffffffff168152602001908152602001600020549050919050565b60025481565b600083116101de576040517f08c379a00000000000000000000000000000000000000000000000000000000081526004016101d590610d87565b60405180910390fd5b6101ea848484846106a3565b610229576040517f08c379a000000000000000000000000000000000000000000000000000000000815260040161022090610d67565b60405180910390fd5b6000600660008673ffffffffffffffffffffffffffffffffffffffff1673ffffffffffffffffffffffffffffffffffffffff16815260200190815260200160002054141561027c5761027b848461072a565b5b600660008573ffffffffffffffffffffffffffffffffffffffff1673ffffffffffffffffffffffffffffffffffffffff16815260200190815260200160002054600760008673ffffffffffffffffffffffffffffffffffffffff1673ffffffffffffffffffffffffffffffffffffffff168152602001908152602001600020541061033c576040517f08c379a000000000000000000000000000000000000000000000000000000000815260040161033390610d27565b60405180910390fd5b600060059050600760008673ffffffffffffffffffffffffffffffffffffffff1673ffffffffffffffffffffffffffffffffffffffff16815260200190815260200160002054600660008773ffffffffffffffffffffffffffffffffffffffff1673ffffffffffffffffffffffffffffffffffffffff168152602001908152602001600020546103cc9190610e3e565b81111561046057600760008673ffffffffffffffffffffffffffffffffffffffff1673ffffffffffffffffffffffffffffffffffffffff16815260200190815260200160002054600660008773ffffffffffffffffffffffffffffffffffffffff1673ffffffffffffffffffffffffffffffffffffffff1681526020019081526020016000205461045d9190610e3e565b90505b60005b8181101561050e57600160009054906101000a900473ffffffffffffffffffffffffffffffffffffffff1673ffffffffffffffffffffffffffffffffffffffff1663d0def5218760056040518363ffffffff1660e01b81526004016104c9929190610cbc565b600060405180830381600087803b1580156104e357600080fd5b505af11580156104f7573d6000803e3d6000fd5b50505050808061050690610eea565b915050610463565b5080600760008773ffffffffffffffffffffffffffffffffffffffff1673ffffffffffffffffffffffffffffffffffffffff168152602001908152602001600020600082825461055e9190610de8565b9250508190555080600460008282546105779190610de8565b925050819055508473ffffffffffffffffffffffffffffffffffffffff167f53d342539c13e3f422ef43273285a5796b4e6924562fc29d8828f2303f2557bc60405160405180910390a25050505050565b6105d0610772565b6105da60006107f0565b565b60008060009054906101000a900473ffffffffffffffffffffffffffffffffffffffff16905090565b61060d610772565b81600281905550806003819055505050565b610627610772565b600073ffffffffffffffffffffffffffffffffffffffff168173ffffffffffffffffffffffffffffffffffffffff161415610697576040517f08c379a000000000000000000000000000000000000000000000000000000000815260040161068e90610d07565b60405180910390fd5b6106a0816107f0565b50565b60008085856040516020016106b9929190610c75565b60405160208183030381529060405280519060200120905061071f848480806020026020016040519081016040528093929190818152602001838360200280828437600081840152601f19601f82011690508083019250505050505050600254836108b4565b915050949350505050565b80600660008473ffffffffffffffffffffffffffffffffffffffff1673ffffffffffffffffffffffffffffffffffffffff168152602001908152602001600020819055505050565b61077a6108cb565b73ffffffffffffffffffffffffffffffffffffffff166107986105dc565b73ffffffffffffffffffffffffffffffffffffffff16146107ee576040517f08c379a00000000000000000000000000000000000000000000000000000000081526004016107e590610d47565b60405180910390fd5b565b60008060009054906101000a900473ffffffffffffffffffffffffffffffffffffffff169050816000806101000a81548173ffffffffffffffffffffffffffffffffffffffff021916908373ffffffffffffffffffffffffffffffffffffffff1602179055508173ffffffffffffffffffffffffffffffffffffffff168173ffffffffffffffffffffffffffffffffffffffff167f8be0079c531659141344cd1fd0a4f28419497f9722a3daafe3b4186f6b6457e060405160405180910390a35050565b6000826108c185846108d3565b1490509392505050565b600033905090565b60008082905060005b84518110156109445761092f82868381518110610922577f4e487b7100000000000000000000000000000000000000000000000000000000600052603260045260246000fd5b602002602001015161094f565b9150808061093c90610eea565b9150506108dc565b508091505092915050565b600081831061096757610962828461097a565b610972565b610971838361097a565b5b905092915050565b600082600052816020526040600020905092915050565b6000813590506109a0816110bf565b92915050565b60008083601f8401126109b857600080fd5b8235905067ffffffffffffffff8111156109d157600080fd5b6020830191508360208202830111156109e957600080fd5b9250929050565b6000813590506109ff816110d6565b92915050565b600081359050610a14816110ed565b92915050565b600060208284031215610a2c57600080fd5b6000610a3a84828501610991565b91505092915050565b60008060008060608587031215610a5957600080fd5b6000610a6787828801610991565b9450506020610a7887828801610a05565b935050604085013567ffffffffffffffff811115610a9557600080fd5b610aa1878288016109a6565b925092505092959194509250565b60008060408385031215610ac257600080fd5b6000610ad0858286016109f0565b9250506020610ae185828601610a05565b9150509250929050565b610af481610e72565b82525050565b610b0b610b0682610e72565b610f33565b82525050565b610b1a81610e84565b82525050565b60008154610b2d81610eb8565b610b378186610dd7565b94506001821660008114610b525760018114610b6457610b97565b60ff1983168652602086019350610b97565b610b6d85610dc2565b60005b83811015610b8f57815481890152600182019150602081019050610b70565b808801955050505b50505092915050565b6000610bad602683610dd7565b9150610bb882610fcc565b604082019050919050565b6000610bd0601583610dd7565b9150610bdb8261101b565b602082019050919050565b6000610bf3602083610dd7565b9150610bfe82611044565b602082019050919050565b6000610c16601483610dd7565b9150610c218261106d565b602082019050919050565b6000610c39601583610dd7565b9150610c4482611096565b602082019050919050565b610c5881610eae565b82525050565b610c6f610c6a82610eae565b610f57565b82525050565b6000610c818285610afa565b601482019150610c918284610c5e565b6020820191508190509392505050565b6000602082019050610cb66000830184610aeb565b92915050565b6000604082019050610cd16000830185610aeb565b8181036020830152610ce38184610b20565b90509392505050565b6000602082019050610d016000830184610b11565b92915050565b60006020820190508181036000830152610d2081610ba0565b9050919050565b60006020820190508181036000830152610d4081610bc3565b9050919050565b60006020820190508181036000830152610d6081610be6565b9050919050565b60006020820190508181036000830152610d8081610c09565b9050919050565b60006020820190508181036000830152610da081610c2c565b9050919050565b6000602082019050610dbc6000830184610c4f565b92915050565b60008190508160005260206000209050919050565b600082825260208201905092915050565b6000610df382610eae565b9150610dfe83610eae565b9250827fffffffffffffffffffffffffffffffffffffffffffffffffffffffffffffffff03821115610e3357610e32610f61565b5b828201905092915050565b6000610e4982610eae565b9150610e5483610eae565b925082821015610e6757610e66610f61565b5b828203905092915050565b6000610e7d82610e8e565b9050919050565b6000819050919050565b600073ffffffffffffffffffffffffffffffffffffffff82169050919050565b6000819050919050565b60006002820490506001821680610ed057607f821691505b60208210811415610ee457610ee3610f90565b5b50919050565b6000610ef582610eae565b91507fffffffffffffffffffffffffffffffffffffffffffffffffffffffffffffffff821415610f2857610f27610f61565b5b600182019050919050565b6000610f3e82610f45565b9050919050565b6000610f5082610fbf565b9050919050565b6000819050919050565b7f4e487b7100000000000000000000000000000000000000000000000000000000600052601160045260246000fd5b7f4e487b7100000000000000000000000000000000000000000000000000000000600052602260045260246000fd5b60008160601b9050919050565b7f4f776e61626c653a206e6577206f776e657220697320746865207a65726f206160008201527f6464726573730000000000000000000000000000000000000000000000000000602082015250565b7f6e6f7468696e67206c65667420746f20636c61696d0000000000000000000000600082015250565b7f4f776e61626c653a2063616c6c6572206973206e6f7420746865206f776e6572600082015250565b7f496e76616c6964206d65726b6c652070726f6f66000000000000000000000000600082015250565b7f616d6f756e742063616e6e6f74206265207a65726f0000000000000000000000600082015250565b6110c881610e72565b81146110d357600080fd5b50565b6110df81610e84565b81146110ea57600080fd5b50565b6110f681610eae565b811461110157600080fd5b5056fea2646970667358221220faae1efb9c40d4bbc96ba2e1d37da79a273e8c443e09a5900b39eb9e42f3ec6864736f6c63430008040033",
  "linkReferences": {},
  "deployedLinkReferences": {}
}