{
  "_format": "hh-sol-artifact-1",
  "contractName": "BeFitterStake",
  "sourceName": "contracts/BFStake.sol",
  "abi": [
    {
      "inputs": [
        {
          "internalType": "address",
          "name": "tokenAddress",
          "type": "address"
        },
        {
          "internalType": "address",
          "name": "rewardItemContract",
          "type": "address"
        }
      ],
      "stateMutability": "nonpayable",
      "type": "constructor"
    },
    {
      "anonymous": false,
      "inputs": [
        {
          "indexed": true,
          "internalType": "address",
          "name": "previousOwner",
          "type": "address"
        },
        {
          "indexed": true,
          "internalType": "address",
          "name": "newOwner",
          "type": "address"
        }
      ],
      "name": "OwnershipTransferred",
      "type": "event"
    },
    {
      "inputs": [],
      "name": "claimReward",
      "outputs": [],
      "stateMutability": "nonpayable",
      "type": "function"
    },
    {
      "inputs": [],
      "name": "closeStaking",
      "outputs": [],
      "stateMutability": "nonpayable",
      "type": "function"
    },
    {
      "inputs": [],
      "name": "getAmountToEarnPassPerCycle",
      "outputs": [
        {
          "internalType": "uint256",
          "name": "",
          "type": "uint256"
        }
      ],
      "stateMutability": "view",
      "type": "function"
    },
    {
      "inputs": [
        {
          "internalType": "address",
          "name": "user",
          "type": "address"
        }
      ],
      "name": "getClaimableTime",
      "outputs": [
        {
          "internalType": "uint256",
          "name": "",
          "type": "uint256"
        }
      ],
      "stateMutability": "view",
      "type": "function"
    },
    {
      "inputs": [
        {
          "internalType": "address",
          "name": "user",
          "type": "address"
        }
      ],
      "name": "getCurrentProfit",
      "outputs": [
        {
          "internalType": "uint256",
          "name": "",
          "type": "uint256"
        }
      ],
      "stateMutability": "view",
      "type": "function"
    },
    {
      "inputs": [],
      "name": "getMinimumAmount",
      "outputs": [
        {
          "internalType": "uint256",
          "name": "",
          "type": "uint256"
        }
      ],
      "stateMutability": "view",
      "type": "function"
    },
    {
      "inputs": [],
      "name": "getPenaltyRate",
      "outputs": [
        {
          "internalType": "uint256",
          "name": "",
          "type": "uint256"
        }
      ],
      "stateMutability": "view",
      "type": "function"
    },
    {
      "inputs": [
        {
          "internalType": "address",
          "name": "user",
          "type": "address"
        }
      ],
      "name": "getRemainingDelayTime",
      "outputs": [
        {
          "internalType": "uint256",
          "name": "",
          "type": "uint256"
        }
      ],
      "stateMutability": "view",
      "type": "function"
    },
    {
      "inputs": [
        {
          "internalType": "address",
          "name": "user",
          "type": "address"
        }
      ],
      "name": "getStakingAmount",
      "outputs": [
        {
          "internalType": "uint256",
          "name": "",
          "type": "uint256"
        }
      ],
      "stateMutability": "view",
      "type": "function"
    },
    {
      "inputs": [],
      "name": "getTokenAddress",
      "outputs": [
        {
          "internalType": "address",
          "name": "",
          "type": "address"
        }
      ],
      "stateMutability": "view",
      "type": "function"
    },
    {
      "inputs": [
        {
          "internalType": "address",
          "name": "user",
          "type": "address"
        }
      ],
      "name": "getUnstakeAmount",
      "outputs": [
        {
          "internalType": "uint256",
          "name": "",
          "type": "uint256"
        }
      ],
      "stateMutability": "view",
      "type": "function"
    },
    {
      "inputs": [
        {
          "internalType": "address",
          "name": "operator",
          "type": "address"
        }
      ],
      "name": "isOperator",
      "outputs": [
        {
          "internalType": "bool",
          "name": "",
          "type": "bool"
        }
      ],
      "stateMutability": "view",
      "type": "function"
    },
    {
      "inputs": [],
      "name": "openStaking",
      "outputs": [],
      "stateMutability": "nonpayable",
      "type": "function"
    },
    {
      "inputs": [],
      "name": "owner",
      "outputs": [
        {
          "internalType": "address",
          "name": "",
          "type": "address"
        }
      ],
      "stateMutability": "view",
      "type": "function"
    },
    {
      "inputs": [
        {
          "internalType": "address",
          "name": "operator",
          "type": "address"
        }
      ],
      "name": "removeOperator",
      "outputs": [],
      "stateMutability": "nonpayable",
      "type": "function"
    },
    {
      "inputs": [],
      "name": "renounceOwnership",
      "outputs": [],
      "stateMutability": "nonpayable",
      "type": "function"
    },
    {
      "inputs": [
        {
          "internalType": "uint256",
          "name": "amount",
          "type": "uint256"
        }
      ],
      "name": "setAmountToEarnPassPerCycle",
      "outputs": [],
      "stateMutability": "nonpayable",
      "type": "function"
    },
    {
      "inputs": [
        {
          "internalType": "uint256",
          "name": "cTime",
          "type": "uint256"
        }
      ],
      "name": "setCycleTime",
      "outputs": [],
      "stateMutability": "nonpayable",
      "type": "function"
    },
    {
      "inputs": [
        {
          "internalType": "uint256",
          "name": "amount",
          "type": "uint256"
        }
      ],
      "name": "setMinimumAmount",
      "outputs": [],
      "stateMutability": "nonpayable",
      "type": "function"
    },
    {
      "inputs": [
        {
          "internalType": "address",
          "name": "operator",
          "type": "address"
        }
      ],
      "name": "setOperator",
      "outputs": [],
      "stateMutability": "nonpayable",
      "type": "function"
    },
    {
      "inputs": [
        {
          "internalType": "uint256",
          "name": "rate",
          "type": "uint256"
        }
      ],
      "name": "setPenaltyRate",
      "outputs": [],
      "stateMutability": "nonpayable",
      "type": "function"
    },
    {
      "inputs": [
        {
          "internalType": "uint256",
          "name": "pTime",
          "type": "uint256"
        },
        {
          "internalType": "uint256",
          "name": "rate",
          "type": "uint256"
        }
      ],
      "name": "setPromotionTime",
      "outputs": [],
      "stateMutability": "nonpayable",
      "type": "function"
    },
    {
      "inputs": [
        {
          "internalType": "address",
          "name": "tokenAddress",
          "type": "address"
        }
      ],
      "name": "setTokenAddress",
      "outputs": [],
      "stateMutability": "nonpayable",
      "type": "function"
    },
    {
      "inputs": [
        {
          "internalType": "uint256",
          "name": "delayTime",
          "type": "uint256"
        }
      ],
      "name": "setWithdrawalDelayTime",
      "outputs": [],
      "stateMutability": "nonpayable",
      "type": "function"
    },
    {
      "inputs": [
        {
          "internalType": "uint256",
          "name": "amount",
          "type": "uint256"
        }
      ],
      "name": "stake",
      "outputs": [],
      "stateMutability": "nonpayable",
      "type": "function"
    },
    {
      "inputs": [
        {
          "internalType": "address",
          "name": "user",
          "type": "address"
        }
      ],
      "name": "toClaimableTime",
      "outputs": [
        {
          "internalType": "uint256",
          "name": "",
          "type": "uint256"
        }
      ],
      "stateMutability": "view",
      "type": "function"
    },
    {
      "inputs": [
        {
          "internalType": "address",
          "name": "newOwner",
          "type": "address"
        }
      ],
      "name": "transferOwnership",
      "outputs": [],
      "stateMutability": "nonpayable",
      "type": "function"
    },
    {
      "inputs": [
        {
          "internalType": "uint256",
          "name": "unstakeAmount",
          "type": "uint256"
        }
      ],
      "name": "unstake",
      "outputs": [],
      "stateMutability": "nonpayable",
      "type": "function"
    },
    {
      "inputs": [],
      "name": "withdrawStakingToken",
      "outputs": [],
      "stateMutability": "nonpayable",
      "type": "function"
    }
  ],
  "bytecode": "0x60806040523480156200001157600080fd5b5060405162002ff338038062002ff3833981810160405281019062000037919062000270565b620000576200004b6200014860201b60201c565b6200015060201b60201c565b60018060003373ffffffffffffffffffffffffffffffffffffffff1673ffffffffffffffffffffffffffffffffffffffff16815260200190815260200160002060006101000a81548160ff02191690831515021790555081600260006101000a81548173ffffffffffffffffffffffffffffffffffffffff021916908373ffffffffffffffffffffffffffffffffffffffff16021790555080600360006101000a81548173ffffffffffffffffffffffffffffffffffffffff021916908373ffffffffffffffffffffffffffffffffffffffff160217905550620001406200021460201b60201c565b5050620002ff565b600033905090565b60008060009054906101000a900473ffffffffffffffffffffffffffffffffffffffff169050816000806101000a81548173ffffffffffffffffffffffffffffffffffffffff021916908373ffffffffffffffffffffffffffffffffffffffff1602179055508173ffffffffffffffffffffffffffffffffffffffff168173ffffffffffffffffffffffffffffffffffffffff167f8be0079c531659141344cd1fd0a4f28419497f9722a3daafe3b4186f6b6457e060405160405180910390a35050565b683635c9adc5dea0000060048190555069043c33c193756480000060058190555061012c60068190555061025860078190555060006009819055506010600881905550565b6000815190506200026a81620002e5565b92915050565b600080604083850312156200028457600080fd5b6000620002948582860162000259565b9250506020620002a78582860162000259565b9150509250929050565b6000620002be82620002c5565b9050919050565b600073ffffffffffffffffffffffffffffffffffffffff82169050919050565b620002f081620002b1565b8114620002fc57600080fd5b50565b612ce4806200030f6000396000f3fe608060405234801561001057600080fd5b50600436106101ce5760003560e01c806374363daa11610104578063b4685c9b116100a2578063dcf4e26711610071578063dcf4e267146104b5578063eeb4a9c8146104e5578063f14cb88114610501578063f2fde38b1461051f576101ce565b8063b4685c9b14610441578063b88a802f14610471578063b8d69ecf1461047b578063c28be0af14610485576101ce565b8063a1bab447116100de578063a1bab447146103d1578063a694fc3a146103ed578063ac8a584a14610409578063b3ab15fb14610425576101ce565b806374363daa146103795780638da5cb5b146103a957806398cfe587146103c7576101ce565b80634c576a6411610171578063625817331161014b57806362581733146103195780636aa9f686146103235780636d70f7ae1461033f578063715018a61461036f576101ce565b80634c576a64146102ad5780635722ef97146102dd57806362066eb3146102fb576101ce565b806326a4e8d2116101ad57806326a4e8d2146102295780632e17de78146102455780633412a76414610261578063494eb5b814610291576101ce565b806255a6e6146101d357806309130f25146101ef57806310fe9ae81461020b575b600080fd5b6101ed60048036038101906101e8919061238f565b61053b565b005b61020960048036038101906102049190612366565b61063d565b005b6102136106d3565b60405161022091906125b2565b60405180910390f35b610243600480360381019061023e9190612314565b6106fd565b005b61025f600480360381019061025a9190612366565b6107cd565b005b61027b60048036038101906102769190612314565b610a22565b60405161028891906127d8565b60405180910390f35b6102ab60048036038101906102a69190612366565b610a6e565b005b6102c760048036038101906102c29190612314565b610b04565b6040516102d491906127d8565b60405180910390f35b6102e5610bae565b6040516102f291906127d8565b60405180910390f35b610303610bb8565b60405161031091906127d8565b60405180910390f35b610321610bc2565b005b61033d60048036038101906103389190612366565b610c57565b005b61035960048036038101906103549190612314565b610ced565b604051610366919061262d565b60405180910390f35b610377610d43565b005b610393600480360381019061038e9190612314565b610dcb565b6040516103a091906127d8565b60405180910390f35b6103b1610e17565b6040516103be91906125b2565b60405180910390f35b6103cf610e40565b005b6103eb60048036038101906103e69190612366565b610ed5565b005b61040760048036038101906104029190612366565b610fae565b005b610423600480360381019061041e9190612314565b611425565b005b61043f600480360381019061043a9190612314565b6114fc565b005b61045b60048036038101906104569190612314565b6115d2565b60405161046891906127d8565b60405180910390f35b61047961162b565b005b610483611a83565b005b61049f600480360381019061049a9190612314565b611b6d565b6040516104ac91906127d8565b60405180910390f35b6104cf60048036038101906104ca9190612314565b611bd1565b6040516104dc91906127d8565b60405180910390f35b6104ff60048036038101906104fa9190612366565b611c3d565b005b610509611cd3565b60405161051691906127d8565b60405180910390f35b61053960048036038101906105349190612314565b611cdd565b005b600160003373ffffffffffffffffffffffffffffffffffffffff1673ffffffffffffffffffffffffffffffffffffffff16815260200190815260200160002060009054906101000a900460ff166105c7576040517f08c379a00000000000000000000000000000000000000000000000000000000081526004016105be90612718565b60405180910390fd5b600181101561060b576040517f08c379a0000000000000000000000000000000000000000000000000000000008152600401610602906126f8565b60405180910390fd5b42600c6000018190555081600c60000154610626919061280f565b600c6001018190555080600c600201819055505050565b600160003373ffffffffffffffffffffffffffffffffffffffff1673ffffffffffffffffffffffffffffffffffffffff16815260200190815260200160002060009054906101000a900460ff166106c9576040517f08c379a00000000000000000000000000000000000000000000000000000000081526004016106c090612718565b60405180910390fd5b8060068190555050565b6000600260009054906101000a900473ffffffffffffffffffffffffffffffffffffffff16905090565b600160003373ffffffffffffffffffffffffffffffffffffffff1673ffffffffffffffffffffffffffffffffffffffff16815260200190815260200160002060009054906101000a900460ff16610789576040517f08c379a000000000000000000000000000000000000000000000000000000000815260040161078090612718565b60405180910390fd5b80600260006101000a81548173ffffffffffffffffffffffffffffffffffffffff021916908373ffffffffffffffffffffffffffffffffffffffff16021790555050565b600f60003373ffffffffffffffffffffffffffffffffffffffff1673ffffffffffffffffffffffffffffffffffffffff16815260200190815260200160002060000154811115610852576040517f08c379a000000000000000000000000000000000000000000000000000000000815260040161084990612698565b60405180910390fd5b600061085d33611dd5565b905080600f60003373ffffffffffffffffffffffffffffffffffffffff1673ffffffffffffffffffffffffffffffffffffffff16815260200190815260200160002060040160008282546108b1919061280f565b9250508190555042600f60003373ffffffffffffffffffffffffffffffffffffffff1673ffffffffffffffffffffffffffffffffffffffff1681526020019081526020016000206002018190555081600f60003373ffffffffffffffffffffffffffffffffffffffff1673ffffffffffffffffffffffffffffffffffffffff168152602001908152602001600020600001600082825461095191906128f0565b9250508190555081600f60003373ffffffffffffffffffffffffffffffffffffffff1673ffffffffffffffffffffffffffffffffffffffff16815260200190815260200160002060050160008282546109aa919061280f565b92505081905550600754426109bf919061280f565b600f60003373ffffffffffffffffffffffffffffffffffffffff1673ffffffffffffffffffffffffffffffffffffffff1681526020019081526020016000206006018190555081600b6000828254610a1791906128f0565b925050819055505050565b6000600f60008373ffffffffffffffffffffffffffffffffffffffff1673ffffffffffffffffffffffffffffffffffffffff168152602001908152602001600020600501549050919050565b600160003373ffffffffffffffffffffffffffffffffffffffff1673ffffffffffffffffffffffffffffffffffffffff16815260200190815260200160002060009054906101000a900460ff16610afa576040517f08c379a0000000000000000000000000000000000000000000000000000000008152600401610af190612718565b60405180910390fd5b8060058190555050565b6000600f60008373ffffffffffffffffffffffffffffffffffffffff1673ffffffffffffffffffffffffffffffffffffffff168152602001908152602001600020600601544210610b585760009050610ba9565b42600f60008473ffffffffffffffffffffffffffffffffffffffff1673ffffffffffffffffffffffffffffffffffffffff16815260200190815260200160002060060154610ba691906128f0565b90505b919050565b6000600854905090565b6000600454905090565b600160003373ffffffffffffffffffffffffffffffffffffffff1673ffffffffffffffffffffffffffffffffffffffff16815260200190815260200160002060009054906101000a900460ff16610c4e576040517f08c379a0000000000000000000000000000000000000000000000000000000008152600401610c4590612718565b60405180910390fd5b42600981905550565b600160003373ffffffffffffffffffffffffffffffffffffffff1673ffffffffffffffffffffffffffffffffffffffff16815260200190815260200160002060009054906101000a900460ff16610ce3576040517f08c379a0000000000000000000000000000000000000000000000000000000008152600401610cda90612718565b60405180910390fd5b8060078190555050565b6000600160008373ffffffffffffffffffffffffffffffffffffffff1673ffffffffffffffffffffffffffffffffffffffff16815260200190815260200160002060009054906101000a900460ff169050919050565b610d4b611f3e565b73ffffffffffffffffffffffffffffffffffffffff16610d69610e17565b73ffffffffffffffffffffffffffffffffffffffff1614610dbf576040517f08c379a0000000000000000000000000000000000000000000000000000000008152600401610db690612758565b60405180910390fd5b610dc96000611f46565b565b6000600f60008373ffffffffffffffffffffffffffffffffffffffff1673ffffffffffffffffffffffffffffffffffffffff168152602001908152602001600020600001549050919050565b60008060009054906101000a900473ffffffffffffffffffffffffffffffffffffffff16905090565b600160003373ffffffffffffffffffffffffffffffffffffffff1673ffffffffffffffffffffffffffffffffffffffff16815260200190815260200160002060009054906101000a900460ff16610ecc576040517f08c379a0000000000000000000000000000000000000000000000000000000008152600401610ec390612718565b60405180910390fd5b42600a81905550565b600160003373ffffffffffffffffffffffffffffffffffffffff1673ffffffffffffffffffffffffffffffffffffffff16815260200190815260200160002060009054906101000a900460ff16610f61576040517f08c379a0000000000000000000000000000000000000000000000000000000008152600401610f5890612718565b60405180910390fd5b60648110610fa4576040517f08c379a0000000000000000000000000000000000000000000000000000000008152600401610f9b906126d8565b60405180910390fd5b8060088190555050565b600060095414158015610fc357506009544210155b611002576040517f08c379a0000000000000000000000000000000000000000000000000000000008152600401610ff990612738565b60405180910390fd5b6000600a5414806110155750600a544211155b611054576040517f08c379a000000000000000000000000000000000000000000000000000000000815260040161104b90612738565b60405180910390fd5b60008111611097576040517f08c379a000000000000000000000000000000000000000000000000000000000815260040161108e906126b8565b60405180910390fd5b6000600f60003373ffffffffffffffffffffffffffffffffffffffff1673ffffffffffffffffffffffffffffffffffffffff16815260200190815260200160002060000154905060045481836110ed919061280f565b101561112e576040517f08c379a0000000000000000000000000000000000000000000000000000000008152600401611125906127b8565b60405180910390fd5b6000600f60003373ffffffffffffffffffffffffffffffffffffffff1673ffffffffffffffffffffffffffffffffffffffff16815260200190815260200160002060000154141561124f5742600f60003373ffffffffffffffffffffffffffffffffffffffff1673ffffffffffffffffffffffffffffffffffffffff1681526020019081526020016000206001018190555042600f60003373ffffffffffffffffffffffffffffffffffffffff1673ffffffffffffffffffffffffffffffffffffffff1681526020019081526020016000206002018190555042600f60003373ffffffffffffffffffffffffffffffffffffffff1673ffffffffffffffffffffffffffffffffffffffff168152602001908152602001600020600301819055505b600061125a33611dd5565b9050600260009054906101000a900473ffffffffffffffffffffffffffffffffffffffff1673ffffffffffffffffffffffffffffffffffffffff166323b872dd3330866040518463ffffffff1660e01b81526004016112bb939291906125cd565b602060405180830381600087803b1580156112d557600080fd5b505af11580156112e9573d6000803e3d6000fd5b505050506040513d601f19601f8201168201806040525081019061130d919061233d565b5082600f60003373ffffffffffffffffffffffffffffffffffffffff1673ffffffffffffffffffffffffffffffffffffffff1681526020019081526020016000206000016000828254611360919061280f565b9250508190555080600f60003373ffffffffffffffffffffffffffffffffffffffff1673ffffffffffffffffffffffffffffffffffffffff16815260200190815260200160002060040160008282546113b9919061280f565b9250508190555042600f60003373ffffffffffffffffffffffffffffffffffffffff1673ffffffffffffffffffffffffffffffffffffffff1681526020019081526020016000206002018190555082600b6000828254611419919061280f565b92505081905550505050565b61142d611f3e565b73ffffffffffffffffffffffffffffffffffffffff1661144b610e17565b73ffffffffffffffffffffffffffffffffffffffff16146114a1576040517f08c379a000000000000000000000000000000000000000000000000000000000815260040161149890612758565b60405180910390fd5b6000600160008373ffffffffffffffffffffffffffffffffffffffff1673ffffffffffffffffffffffffffffffffffffffff16815260200190815260200160002060006101000a81548160ff02191690831515021790555050565b611504611f3e565b73ffffffffffffffffffffffffffffffffffffffff16611522610e17565b73ffffffffffffffffffffffffffffffffffffffff1614611578576040517f08c379a000000000000000000000000000000000000000000000000000000000815260040161156f90612758565b60405180910390fd5b60018060008373ffffffffffffffffffffffffffffffffffffffff1673ffffffffffffffffffffffffffffffffffffffff16815260200190815260200160002060006101000a81548160ff02191690831515021790555050565b6000600654600f60008473ffffffffffffffffffffffffffffffffffffffff1673ffffffffffffffffffffffffffffffffffffffff16815260200190815260200160002060030154611624919061280f565b9050919050565b600654600f60003373ffffffffffffffffffffffffffffffffffffffff1673ffffffffffffffffffffffffffffffffffffffff1681526020019081526020016000206003015461167b919061280f565b42116116bc576040517f08c379a00000000000000000000000000000000000000000000000000000000081526004016116b390612778565b60405180910390fd5b60006116c733611dd5565b90506117086040518060400160405280600781526020017f7265776172643a000000000000000000000000000000000000000000000000008152508261200a565b80600f60003373ffffffffffffffffffffffffffffffffffffffff1673ffffffffffffffffffffffffffffffffffffffff168152602001908152602001600020600401600082825461175a919061280f565b9250508190555042600f60003373ffffffffffffffffffffffffffffffffffffffff1673ffffffffffffffffffffffffffffffffffffffff168152602001908152602001600020600201819055506118296040518060400160405280601281526020017f616363756d756c6174656450726f6669743a0000000000000000000000000000815250600f60003373ffffffffffffffffffffffffffffffffffffffff1673ffffffffffffffffffffffffffffffffffffffff1681526020019081526020016000206004015461200a565b60006103e8600f60003373ffffffffffffffffffffffffffffffffffffffff1673ffffffffffffffffffffffffffffffffffffffff1681526020019081526020016000206004015461187b9190612865565b90506118bc6040518060400160405280600c81526020017f6e466974746572506173733a00000000000000000000000000000000000000008152508261200a565b6000811115611a7f57600360009054906101000a900473ffffffffffffffffffffffffffffffffffffffff1673ffffffffffffffffffffffffffffffffffffffff16636a627842336040518263ffffffff1660e01b815260040161192091906125b2565b600060405180830381600087803b15801561193a57600080fd5b505af115801561194e573d6000803e3d6000fd5b505050506103e8816119609190612896565b600f60003373ffffffffffffffffffffffffffffffffffffffff1673ffffffffffffffffffffffffffffffffffffffff16815260200190815260200160002060040160008282546119b191906128f0565b925050819055506000600654600f60003373ffffffffffffffffffffffffffffffffffffffff1673ffffffffffffffffffffffffffffffffffffffff1681526020019081526020016000206003015442611a0b91906128f0565b611a159190612865565b905080600654611a259190612896565b600f60003373ffffffffffffffffffffffffffffffffffffffff1673ffffffffffffffffffffffffffffffffffffffff1681526020019081526020016000206003016000828254611a76919061280f565b92505081905550505b5050565b6000600f60003373ffffffffffffffffffffffffffffffffffffffff1673ffffffffffffffffffffffffffffffffffffffff1681526020019081526020016000206005015411611b08576040517f08c379a0000000000000000000000000000000000000000000000000000000008152600401611aff90612798565b60405180910390fd5b6000600f60003373ffffffffffffffffffffffffffffffffffffffff1673ffffffffffffffffffffffffffffffffffffffff168152602001908152602001600020600601544210611b5a576000611b5d565b60015b9050611b6933826120a6565b5050565b600042600654600f60008573ffffffffffffffffffffffffffffffffffffffff1673ffffffffffffffffffffffffffffffffffffffff16815260200190815260200160002060030154611bc0919061280f565b611bca91906128f0565b9050919050565b60006103e8600f60008473ffffffffffffffffffffffffffffffffffffffff1673ffffffffffffffffffffffffffffffffffffffff16815260200190815260200160002060040154611c2284611dd5565b611c2c919061280f565b611c369190612865565b9050919050565b600160003373ffffffffffffffffffffffffffffffffffffffff1673ffffffffffffffffffffffffffffffffffffffff16815260200190815260200160002060009054906101000a900460ff16611cc9576040517f08c379a0000000000000000000000000000000000000000000000000000000008152600401611cc090612718565b60405180910390fd5b8060048190555050565b6000600554905090565b611ce5611f3e565b73ffffffffffffffffffffffffffffffffffffffff16611d03610e17565b73ffffffffffffffffffffffffffffffffffffffff1614611d59576040517f08c379a0000000000000000000000000000000000000000000000000000000008152600401611d5090612758565b60405180910390fd5b600073ffffffffffffffffffffffffffffffffffffffff168173ffffffffffffffffffffffffffffffffffffffff161415611dc9576040517f08c379a0000000000000000000000000000000000000000000000000000000008152600401611dc090612678565b60405180910390fd5b611dd281611f46565b50565b6000806000600a5414611df357611dee600a544261221f565b611df5565b425b90506000611e45600f60008673ffffffffffffffffffffffffffffffffffffffff1673ffffffffffffffffffffffffffffffffffffffff1681526020019081526020016000206002015483612238565b9050600081600f60008773ffffffffffffffffffffffffffffffffffffffff1673ffffffffffffffffffffffffffffffffffffffff1681526020019081526020016000206002015484611e9891906128f0565b611ea291906128f0565b9050600454600554611eb49190612896565b8183600c60020154611ec69190612896565b611ed0919061280f565b600f60008873ffffffffffffffffffffffffffffffffffffffff1673ffffffffffffffffffffffffffffffffffffffff168152602001908152602001600020600001546103e8611f209190612896565b611f2a9190612896565b611f349190612865565b9350505050919050565b600033905090565b60008060009054906101000a900473ffffffffffffffffffffffffffffffffffffffff169050816000806101000a81548173ffffffffffffffffffffffffffffffffffffffff021916908373ffffffffffffffffffffffffffffffffffffffff1602179055508173ffffffffffffffffffffffffffffffffffffffff168173ffffffffffffffffffffffffffffffffffffffff167f8be0079c531659141344cd1fd0a4f28419497f9722a3daafe3b4186f6b6457e060405160405180910390a35050565b6120a28282604051602401612020929190612648565b6040516020818303038152906040527f9710a9d0000000000000000000000000000000000000000000000000000000007bffffffffffffffffffffffffffffffffffffffffffffffffffffffff19166020820180517bffffffffffffffffffffffffffffffffffffffffffffffffffffffff8381831617835250505050612292565b5050565b600080600f60008573ffffffffffffffffffffffffffffffffffffffff1673ffffffffffffffffffffffffffffffffffffffff168152602001908152602001600020600501549050821561211d576064600854606461210591906128f0565b826121109190612896565b61211a9190612865565b90505b6000600f60008673ffffffffffffffffffffffffffffffffffffffff1673ffffffffffffffffffffffffffffffffffffffff16815260200190815260200160002060050181905550600260009054906101000a900473ffffffffffffffffffffffffffffffffffffffff1673ffffffffffffffffffffffffffffffffffffffff1663a9059cbb85836040518363ffffffff1660e01b81526004016121c2929190612604565b602060405180830381600087803b1580156121dc57600080fd5b505af11580156121f0573d6000803e3d6000fd5b505050506040513d601f19601f82011682018060405250810190612214919061233d565b508091505092915050565b600081831061222e5781612230565b825b905092915050565b6000600c60010154831015806122535750600c600001548211155b15612261576000905061228c565b61227083600c600001546122bb565b61227f83600c6001015461221f565b61228991906128f0565b90505b92915050565b60008151905060006a636f6e736f6c652e6c6f679050602083016000808483855afa5050505050565b6000818310156122cb57816122cd565b825b905092915050565b6000813590506122e481612c69565b92915050565b6000815190506122f981612c80565b92915050565b60008135905061230e81612c97565b92915050565b60006020828403121561232657600080fd5b6000612334848285016122d5565b91505092915050565b60006020828403121561234f57600080fd5b600061235d848285016122ea565b91505092915050565b60006020828403121561237857600080fd5b6000612386848285016122ff565b91505092915050565b600080604083850312156123a257600080fd5b60006123b0858286016122ff565b92505060206123c1858286016122ff565b9150509250929050565b6123d481612924565b82525050565b6123e381612936565b82525050565b60006123f4826127f3565b6123fe81856127fe565b935061240e81856020860161296c565b612417816129fd565b840191505092915050565b600061242f6026836127fe565b915061243a82612a0e565b604082019050919050565b60006124526024836127fe565b915061245d82612a5d565b604082019050919050565b6000612475601b836127fe565b915061248082612aac565b602082019050919050565b6000612498601a836127fe565b91506124a382612ad5565b602082019050919050565b60006124bb6025836127fe565b91506124c682612afe565b604082019050919050565b60006124de601b836127fe565b91506124e982612b4d565b602082019050919050565b60006125016010836127fe565b915061250c82612b76565b602082019050919050565b60006125246020836127fe565b915061252f82612b9f565b602082019050919050565b60006125476010836127fe565b915061255282612bc8565b602082019050919050565b600061256a6017836127fe565b915061257582612bf1565b602082019050919050565b600061258d6032836127fe565b915061259882612c1a565b604082019050919050565b6125ac81612962565b82525050565b60006020820190506125c760008301846123cb565b92915050565b60006060820190506125e260008301866123cb565b6125ef60208301856123cb565b6125fc60408301846125a3565b949350505050565b600060408201905061261960008301856123cb565b61262660208301846125a3565b9392505050565b600060208201905061264260008301846123da565b92915050565b6000604082019050818103600083015261266281856123e9565b905061267160208301846125a3565b9392505050565b6000602082019050818103600083015261269181612422565b9050919050565b600060208201905081810360008301526126b181612445565b9050919050565b600060208201905081810360008301526126d181612468565b9050919050565b600060208201905081810360008301526126f18161248b565b9050919050565b60006020820190508181036000830152612711816124ae565b9050919050565b60006020820190508181036000830152612731816124d1565b9050919050565b60006020820190508181036000830152612751816124f4565b9050919050565b6000602082019050818103600083015261277181612517565b9050919050565b600060208201905081810360008301526127918161253a565b9050919050565b600060208201905081810360008301526127b18161255d565b9050919050565b600060208201905081810360008301526127d181612580565b9050919050565b60006020820190506127ed60008301846125a3565b92915050565b600081519050919050565b600082825260208201905092915050565b600061281a82612962565b915061282583612962565b9250827fffffffffffffffffffffffffffffffffffffffffffffffffffffffffffffffff0382111561285a5761285961299f565b5b828201905092915050565b600061287082612962565b915061287b83612962565b92508261288b5761288a6129ce565b5b828204905092915050565b60006128a182612962565b91506128ac83612962565b9250817fffffffffffffffffffffffffffffffffffffffffffffffffffffffffffffffff04831182151516156128e5576128e461299f565b5b828202905092915050565b60006128fb82612962565b915061290683612962565b9250828210156129195761291861299f565b5b828203905092915050565b600061292f82612942565b9050919050565b60008115159050919050565b600073ffffffffffffffffffffffffffffffffffffffff82169050919050565b6000819050919050565b60005b8381101561298a57808201518184015260208101905061296f565b83811115612999576000848401525b50505050565b7f4e487b7100000000000000000000000000000000000000000000000000000000600052601160045260246000fd5b7f4e487b7100000000000000000000000000000000000000000000000000000000600052601260045260246000fd5b6000601f19601f8301169050919050565b7f4f776e61626c653a206e6577206f776e657220697320746865207a65726f206160008201527f6464726573730000000000000000000000000000000000000000000000000000602082015250565b7f756e7374616b6520616d6f756e742065786365656473207374616b656420616d60008201527f6f756e7400000000000000000000000000000000000000000000000000000000602082015250565b7f7374616b6520616d6f756e742063616e6e6f74206265207a65726f0000000000600082015250565b7f70656e616c7479526174652063616e6e6f742062652031303025000000000000600082015250565b7f70726f6d6f74696f6e2072617465206d7573742062652067726561746572207460008201527f68616e2031000000000000000000000000000000000000000000000000000000602082015250565b7f63616c6c6572206973206e6f7420746865206f70657261746f72730000000000600082015250565b7f43616e6e6f74207374616b65206e6f7700000000000000000000000000000000600082015250565b7f4f776e61626c653a2063616c6c6572206973206e6f7420746865206f776e6572600082015250565b7f43616e6e6f7420636c61696d206e6f7700000000000000000000000000000000600082015250565b7f756e7374616b65206265666f7265207769746864726177000000000000000000600082015250565b7f7374616b6520616d6f756e74206c657373207468616e206d696e696d756d207360008201527f74616b696e6720726571756972656d656e740000000000000000000000000000602082015250565b612c7281612924565b8114612c7d57600080fd5b50565b612c8981612936565b8114612c9457600080fd5b50565b612ca081612962565b8114612cab57600080fd5b5056fea26469706673582212208797bc5e6e5fe15dbe54a5621e379d8bc23c7a3862999471f5344a75c67bff8c64736f6c63430008040033",
  "linkReferences": {},
  "deployedLinkReferences": {}
}