{
  "_format": "hh-sol-artifact-1",
  "contractName": "BeFitterStake",
  "sourceName": "contracts/BFStake.sol",
  "abi": [
    {
      "inputs": [
        {
          "internalType": "address",
          "name": "tokenAddress",
          "type": "address"
        },
        {
          "internalType": "address",
          "name": "rewardItemContract",
          "type": "address"
        }
      ],
      "stateMutability": "nonpayable",
      "type": "constructor"
    },
    {
      "anonymous": false,
      "inputs": [
        {
          "indexed": true,
          "internalType": "address",
          "name": "previousOwner",
          "type": "address"
        },
        {
          "indexed": true,
          "internalType": "address",
          "name": "newOwner",
          "type": "address"
        }
      ],
      "name": "OwnershipTransferred",
      "type": "event"
    },
    {
      "inputs": [],
      "name": "claimReward",
      "outputs": [],
      "stateMutability": "nonpayable",
      "type": "function"
    },
    {
      "inputs": [],
      "name": "closeStaking",
      "outputs": [],
      "stateMutability": "nonpayable",
      "type": "function"
    },
    {
      "inputs": [],
      "name": "getAmountToEarnPassPerCycle",
      "outputs": [
        {
          "internalType": "uint256",
          "name": "",
          "type": "uint256"
        }
      ],
      "stateMutability": "view",
      "type": "function"
    },
    {
      "inputs": [
        {
          "internalType": "address",
          "name": "user",
          "type": "address"
        }
      ],
      "name": "getClaimableTime",
      "outputs": [
        {
          "internalType": "uint256",
          "name": "",
          "type": "uint256"
        }
      ],
      "stateMutability": "view",
      "type": "function"
    },
    {
      "inputs": [
        {
          "internalType": "address",
          "name": "user",
          "type": "address"
        }
      ],
      "name": "getCurrentProfit",
      "outputs": [
        {
          "internalType": "uint256",
          "name": "",
          "type": "uint256"
        }
      ],
      "stateMutability": "view",
      "type": "function"
    },
    {
      "inputs": [],
      "name": "getMinimumAmount",
      "outputs": [
        {
          "internalType": "uint256",
          "name": "",
          "type": "uint256"
        }
      ],
      "stateMutability": "view",
      "type": "function"
    },
    {
      "inputs": [],
      "name": "getPenaltyRate",
      "outputs": [
        {
          "internalType": "uint256",
          "name": "",
          "type": "uint256"
        }
      ],
      "stateMutability": "view",
      "type": "function"
    },
    {
      "inputs": [
        {
          "internalType": "address",
          "name": "user",
          "type": "address"
        }
      ],
      "name": "getRemainingDelayTime",
      "outputs": [
        {
          "internalType": "uint256",
          "name": "",
          "type": "uint256"
        }
      ],
      "stateMutability": "view",
      "type": "function"
    },
    {
      "inputs": [
        {
          "internalType": "address",
          "name": "user",
          "type": "address"
        }
      ],
      "name": "getStakingAmount",
      "outputs": [
        {
          "internalType": "uint256",
          "name": "",
          "type": "uint256"
        }
      ],
      "stateMutability": "view",
      "type": "function"
    },
    {
      "inputs": [],
      "name": "getTokenAddress",
      "outputs": [
        {
          "internalType": "address",
          "name": "",
          "type": "address"
        }
      ],
      "stateMutability": "view",
      "type": "function"
    },
    {
      "inputs": [
        {
          "internalType": "address",
          "name": "user",
          "type": "address"
        }
      ],
      "name": "getUnstakeAmount",
      "outputs": [
        {
          "internalType": "uint256",
          "name": "",
          "type": "uint256"
        }
      ],
      "stateMutability": "view",
      "type": "function"
    },
    {
      "inputs": [
        {
          "internalType": "address",
          "name": "operator",
          "type": "address"
        }
      ],
      "name": "isOperator",
      "outputs": [
        {
          "internalType": "bool",
          "name": "",
          "type": "bool"
        }
      ],
      "stateMutability": "view",
      "type": "function"
    },
    {
      "inputs": [],
      "name": "openStaking",
      "outputs": [],
      "stateMutability": "nonpayable",
      "type": "function"
    },
    {
      "inputs": [],
      "name": "owner",
      "outputs": [
        {
          "internalType": "address",
          "name": "",
          "type": "address"
        }
      ],
      "stateMutability": "view",
      "type": "function"
    },
    {
      "inputs": [
        {
          "internalType": "address",
          "name": "operator",
          "type": "address"
        }
      ],
      "name": "removeOperator",
      "outputs": [],
      "stateMutability": "nonpayable",
      "type": "function"
    },
    {
      "inputs": [],
      "name": "renounceOwnership",
      "outputs": [],
      "stateMutability": "nonpayable",
      "type": "function"
    },
    {
      "inputs": [
        {
          "internalType": "uint256",
          "name": "amount",
          "type": "uint256"
        }
      ],
      "name": "setAmountToEarnPassPerCycle",
      "outputs": [],
      "stateMutability": "nonpayable",
      "type": "function"
    },
    {
      "inputs": [
        {
          "internalType": "uint256",
          "name": "cTime",
          "type": "uint256"
        }
      ],
      "name": "setCycleTime",
      "outputs": [],
      "stateMutability": "nonpayable",
      "type": "function"
    },
    {
      "inputs": [
        {
          "internalType": "uint256",
          "name": "amount",
          "type": "uint256"
        }
      ],
      "name": "setMinimumAmount",
      "outputs": [],
      "stateMutability": "nonpayable",
      "type": "function"
    },
    {
      "inputs": [
        {
          "internalType": "address",
          "name": "operator",
          "type": "address"
        }
      ],
      "name": "setOperator",
      "outputs": [],
      "stateMutability": "nonpayable",
      "type": "function"
    },
    {
      "inputs": [
        {
          "internalType": "uint256",
          "name": "rate",
          "type": "uint256"
        }
      ],
      "name": "setPenaltyRate",
      "outputs": [],
      "stateMutability": "nonpayable",
      "type": "function"
    },
    {
      "inputs": [
        {
          "internalType": "uint256",
          "name": "pTime",
          "type": "uint256"
        },
        {
          "internalType": "uint256",
          "name": "rate",
          "type": "uint256"
        }
      ],
      "name": "setPromotionTime",
      "outputs": [],
      "stateMutability": "nonpayable",
      "type": "function"
    },
    {
      "inputs": [
        {
          "internalType": "address",
          "name": "tokenAddress",
          "type": "address"
        }
      ],
      "name": "setTokenAddress",
      "outputs": [],
      "stateMutability": "nonpayable",
      "type": "function"
    },
    {
      "inputs": [
        {
          "internalType": "uint256",
          "name": "delayTime",
          "type": "uint256"
        }
      ],
      "name": "setWithdrawalDelayTime",
      "outputs": [],
      "stateMutability": "nonpayable",
      "type": "function"
    },
    {
      "inputs": [
        {
          "internalType": "uint256",
          "name": "amount",
          "type": "uint256"
        }
      ],
      "name": "stake",
      "outputs": [],
      "stateMutability": "nonpayable",
      "type": "function"
    },
    {
      "inputs": [
        {
          "internalType": "address",
          "name": "user",
          "type": "address"
        }
      ],
      "name": "toClaimableTime",
      "outputs": [
        {
          "internalType": "uint256",
          "name": "",
          "type": "uint256"
        }
      ],
      "stateMutability": "view",
      "type": "function"
    },
    {
      "inputs": [
        {
          "internalType": "address",
          "name": "newOwner",
          "type": "address"
        }
      ],
      "name": "transferOwnership",
      "outputs": [],
      "stateMutability": "nonpayable",
      "type": "function"
    },
    {
      "inputs": [
        {
          "internalType": "uint256",
          "name": "unstakeAmount",
          "type": "uint256"
        }
      ],
      "name": "unstake",
      "outputs": [],
      "stateMutability": "nonpayable",
      "type": "function"
    },
    {
      "inputs": [],
      "name": "withdrawStakingToken",
      "outputs": [],
      "stateMutability": "nonpayable",
      "type": "function"
    }
  ],
  "bytecode": "0x60806040523480156200001157600080fd5b50604051620031ba380380620031ba833981810160405281019062000037919062000272565b620000576200004b6200014860201b60201c565b6200015060201b60201c565b60018060003373ffffffffffffffffffffffffffffffffffffffff1673ffffffffffffffffffffffffffffffffffffffff16815260200190815260200160002060006101000a81548160ff02191690831515021790555081600260006101000a81548173ffffffffffffffffffffffffffffffffffffffff021916908373ffffffffffffffffffffffffffffffffffffffff16021790555080600360006101000a81548173ffffffffffffffffffffffffffffffffffffffff021916908373ffffffffffffffffffffffffffffffffffffffff160217905550620001406200021460201b60201c565b505062000301565b600033905090565b60008060009054906101000a900473ffffffffffffffffffffffffffffffffffffffff169050816000806101000a81548173ffffffffffffffffffffffffffffffffffffffff021916908373ffffffffffffffffffffffffffffffffffffffff1602179055508173ffffffffffffffffffffffffffffffffffffffff168173ffffffffffffffffffffffffffffffffffffffff167f8be0079c531659141344cd1fd0a4f28419497f9722a3daafe3b4186f6b6457e060405160405180910390a35050565b683635c9adc5dea0000060048190555069043c33c1937564800000600581905550620151806006819055506212750060078190555060006009819055506010600881905550565b6000815190506200026c81620002e7565b92915050565b600080604083850312156200028657600080fd5b600062000296858286016200025b565b9250506020620002a9858286016200025b565b9150509250929050565b6000620002c082620002c7565b9050919050565b600073ffffffffffffffffffffffffffffffffffffffff82169050919050565b620002f281620002b3565b8114620002fe57600080fd5b50565b612ea980620003116000396000f3fe608060405234801561001057600080fd5b50600436106101ce5760003560e01c806374363daa11610104578063b4685c9b116100a2578063dcf4e26711610071578063dcf4e267146104b5578063eeb4a9c8146104e5578063f14cb88114610501578063f2fde38b1461051f576101ce565b8063b4685c9b14610441578063b88a802f14610471578063b8d69ecf1461047b578063c28be0af14610485576101ce565b8063a1bab447116100de578063a1bab447146103d1578063a694fc3a146103ed578063ac8a584a14610409578063b3ab15fb14610425576101ce565b806374363daa146103795780638da5cb5b146103a957806398cfe587146103c7576101ce565b80634c576a6411610171578063625817331161014b57806362581733146103195780636aa9f686146103235780636d70f7ae1461033f578063715018a61461036f576101ce565b80634c576a64146102ad5780635722ef97146102dd57806362066eb3146102fb576101ce565b806326a4e8d2116101ad57806326a4e8d2146102295780632e17de78146102455780633412a76414610261578063494eb5b814610291576101ce565b806255a6e6146101d357806309130f25146101ef57806310fe9ae81461020b575b600080fd5b6101ed60048036038101906101e89190612554565b61053b565b005b6102096004803603810190610204919061252b565b61064a565b005b6102136106e0565b6040516102209190612777565b60405180910390f35b610243600480360381019061023e91906124d9565b61070a565b005b61025f600480360381019061025a919061252b565b6107da565b005b61027b600480360381019061027691906124d9565b610a2f565b604051610288919061299d565b60405180910390f35b6102ab60048036038101906102a6919061252b565b610a7b565b005b6102c760048036038101906102c291906124d9565b610b11565b6040516102d4919061299d565b60405180910390f35b6102e5610bbb565b6040516102f2919061299d565b60405180910390f35b610303610bc5565b604051610310919061299d565b60405180910390f35b610321610bcf565b005b61033d6004803603810190610338919061252b565b610c64565b005b610359600480360381019061035491906124d9565b610cfa565b60405161036691906127f2565b60405180910390f35b610377610d50565b005b610393600480360381019061038e91906124d9565b610dd8565b6040516103a0919061299d565b60405180910390f35b6103b1610e24565b6040516103be9190612777565b60405180910390f35b6103cf610e4d565b005b6103eb60048036038101906103e6919061252b565b610ee2565b005b6104076004803603810190610402919061252b565b610fbb565b005b610423600480360381019061041e91906124d9565b611432565b005b61043f600480360381019061043a91906124d9565b611509565b005b61045b600480360381019061045691906124d9565b6115df565b604051610468919061299d565b60405180910390f35b610479611638565b005b610483611a90565b005b61049f600480360381019061049a91906124d9565b611b7a565b6040516104ac919061299d565b60405180910390f35b6104cf60048036038101906104ca91906124d9565b611bde565b6040516104dc919061299d565b60405180910390f35b6104ff60048036038101906104fa919061252b565b611c4a565b005b610509611ce0565b604051610516919061299d565b60405180910390f35b610539600480360381019061053491906124d9565b611cea565b005b600160003373ffffffffffffffffffffffffffffffffffffffff1673ffffffffffffffffffffffffffffffffffffffff16815260200190815260200160002060009054906101000a900460ff166105c7576040517f08c379a00000000000000000000000000000000000000000000000000000000081526004016105be906128dd565b60405180910390fd5b600181101561060b576040517f08c379a0000000000000000000000000000000000000000000000000000000008152600401610602906128bd565b60405180910390fd5b42600c6000018190555081610e106106239190612a5b565b600c6000015461063391906129d4565b600c6001018190555080600c600201819055505050565b600160003373ffffffffffffffffffffffffffffffffffffffff1673ffffffffffffffffffffffffffffffffffffffff16815260200190815260200160002060009054906101000a900460ff166106d6576040517f08c379a00000000000000000000000000000000000000000000000000000000081526004016106cd906128dd565b60405180910390fd5b8060068190555050565b6000600260009054906101000a900473ffffffffffffffffffffffffffffffffffffffff16905090565b600160003373ffffffffffffffffffffffffffffffffffffffff1673ffffffffffffffffffffffffffffffffffffffff16815260200190815260200160002060009054906101000a900460ff16610796576040517f08c379a000000000000000000000000000000000000000000000000000000000815260040161078d906128dd565b60405180910390fd5b80600260006101000a81548173ffffffffffffffffffffffffffffffffffffffff021916908373ffffffffffffffffffffffffffffffffffffffff16021790555050565b600f60003373ffffffffffffffffffffffffffffffffffffffff1673ffffffffffffffffffffffffffffffffffffffff1681526020019081526020016000206000015481111561085f576040517f08c379a00000000000000000000000000000000000000000000000000000000081526004016108569061285d565b60405180910390fd5b600061086a33611de2565b905080600f60003373ffffffffffffffffffffffffffffffffffffffff1673ffffffffffffffffffffffffffffffffffffffff16815260200190815260200160002060040160008282546108be91906129d4565b9250508190555042600f60003373ffffffffffffffffffffffffffffffffffffffff1673ffffffffffffffffffffffffffffffffffffffff1681526020019081526020016000206002018190555081600f60003373ffffffffffffffffffffffffffffffffffffffff1673ffffffffffffffffffffffffffffffffffffffff168152602001908152602001600020600001600082825461095e9190612ab5565b9250508190555081600f60003373ffffffffffffffffffffffffffffffffffffffff1673ffffffffffffffffffffffffffffffffffffffff16815260200190815260200160002060050160008282546109b791906129d4565b92505081905550600754426109cc91906129d4565b600f60003373ffffffffffffffffffffffffffffffffffffffff1673ffffffffffffffffffffffffffffffffffffffff1681526020019081526020016000206006018190555081600b6000828254610a249190612ab5565b925050819055505050565b6000600f60008373ffffffffffffffffffffffffffffffffffffffff1673ffffffffffffffffffffffffffffffffffffffff168152602001908152602001600020600501549050919050565b600160003373ffffffffffffffffffffffffffffffffffffffff1673ffffffffffffffffffffffffffffffffffffffff16815260200190815260200160002060009054906101000a900460ff16610b07576040517f08c379a0000000000000000000000000000000000000000000000000000000008152600401610afe906128dd565b60405180910390fd5b8060058190555050565b6000600f60008373ffffffffffffffffffffffffffffffffffffffff1673ffffffffffffffffffffffffffffffffffffffff168152602001908152602001600020600601544210610b655760009050610bb6565b42600f60008473ffffffffffffffffffffffffffffffffffffffff1673ffffffffffffffffffffffffffffffffffffffff16815260200190815260200160002060060154610bb39190612ab5565b90505b919050565b6000600854905090565b6000600454905090565b600160003373ffffffffffffffffffffffffffffffffffffffff1673ffffffffffffffffffffffffffffffffffffffff16815260200190815260200160002060009054906101000a900460ff16610c5b576040517f08c379a0000000000000000000000000000000000000000000000000000000008152600401610c52906128dd565b60405180910390fd5b42600981905550565b600160003373ffffffffffffffffffffffffffffffffffffffff1673ffffffffffffffffffffffffffffffffffffffff16815260200190815260200160002060009054906101000a900460ff16610cf0576040517f08c379a0000000000000000000000000000000000000000000000000000000008152600401610ce7906128dd565b60405180910390fd5b8060078190555050565b6000600160008373ffffffffffffffffffffffffffffffffffffffff1673ffffffffffffffffffffffffffffffffffffffff16815260200190815260200160002060009054906101000a900460ff169050919050565b610d58612103565b73ffffffffffffffffffffffffffffffffffffffff16610d76610e24565b73ffffffffffffffffffffffffffffffffffffffff1614610dcc576040517f08c379a0000000000000000000000000000000000000000000000000000000008152600401610dc39061291d565b60405180910390fd5b610dd6600061210b565b565b6000600f60008373ffffffffffffffffffffffffffffffffffffffff1673ffffffffffffffffffffffffffffffffffffffff168152602001908152602001600020600001549050919050565b60008060009054906101000a900473ffffffffffffffffffffffffffffffffffffffff16905090565b600160003373ffffffffffffffffffffffffffffffffffffffff1673ffffffffffffffffffffffffffffffffffffffff16815260200190815260200160002060009054906101000a900460ff16610ed9576040517f08c379a0000000000000000000000000000000000000000000000000000000008152600401610ed0906128dd565b60405180910390fd5b42600a81905550565b600160003373ffffffffffffffffffffffffffffffffffffffff1673ffffffffffffffffffffffffffffffffffffffff16815260200190815260200160002060009054906101000a900460ff16610f6e576040517f08c379a0000000000000000000000000000000000000000000000000000000008152600401610f65906128dd565b60405180910390fd5b60648110610fb1576040517f08c379a0000000000000000000000000000000000000000000000000000000008152600401610fa89061289d565b60405180910390fd5b8060088190555050565b600060095414158015610fd057506009544210155b61100f576040517f08c379a0000000000000000000000000000000000000000000000000000000008152600401611006906128fd565b60405180910390fd5b6000600a5414806110225750600a544211155b611061576040517f08c379a0000000000000000000000000000000000000000000000000000000008152600401611058906128fd565b60405180910390fd5b600081116110a4576040517f08c379a000000000000000000000000000000000000000000000000000000000815260040161109b9061287d565b60405180910390fd5b6000600f60003373ffffffffffffffffffffffffffffffffffffffff1673ffffffffffffffffffffffffffffffffffffffff16815260200190815260200160002060000154905060045481836110fa91906129d4565b101561113b576040517f08c379a00000000000000000000000000000000000000000000000000000000081526004016111329061297d565b60405180910390fd5b6000600f60003373ffffffffffffffffffffffffffffffffffffffff1673ffffffffffffffffffffffffffffffffffffffff16815260200190815260200160002060000154141561125c5742600f60003373ffffffffffffffffffffffffffffffffffffffff1673ffffffffffffffffffffffffffffffffffffffff1681526020019081526020016000206001018190555042600f60003373ffffffffffffffffffffffffffffffffffffffff1673ffffffffffffffffffffffffffffffffffffffff1681526020019081526020016000206002018190555042600f60003373ffffffffffffffffffffffffffffffffffffffff1673ffffffffffffffffffffffffffffffffffffffff168152602001908152602001600020600301819055505b600061126733611de2565b9050600260009054906101000a900473ffffffffffffffffffffffffffffffffffffffff1673ffffffffffffffffffffffffffffffffffffffff166323b872dd3330866040518463ffffffff1660e01b81526004016112c893929190612792565b602060405180830381600087803b1580156112e257600080fd5b505af11580156112f6573d6000803e3d6000fd5b505050506040513d601f19601f8201168201806040525081019061131a9190612502565b5082600f60003373ffffffffffffffffffffffffffffffffffffffff1673ffffffffffffffffffffffffffffffffffffffff168152602001908152602001600020600001600082825461136d91906129d4565b9250508190555080600f60003373ffffffffffffffffffffffffffffffffffffffff1673ffffffffffffffffffffffffffffffffffffffff16815260200190815260200160002060040160008282546113c691906129d4565b9250508190555042600f60003373ffffffffffffffffffffffffffffffffffffffff1673ffffffffffffffffffffffffffffffffffffffff1681526020019081526020016000206002018190555082600b600082825461142691906129d4565b92505081905550505050565b61143a612103565b73ffffffffffffffffffffffffffffffffffffffff16611458610e24565b73ffffffffffffffffffffffffffffffffffffffff16146114ae576040517f08c379a00000000000000000000000000000000000000000000000000000000081526004016114a59061291d565b60405180910390fd5b6000600160008373ffffffffffffffffffffffffffffffffffffffff1673ffffffffffffffffffffffffffffffffffffffff16815260200190815260200160002060006101000a81548160ff02191690831515021790555050565b611511612103565b73ffffffffffffffffffffffffffffffffffffffff1661152f610e24565b73ffffffffffffffffffffffffffffffffffffffff1614611585576040517f08c379a000000000000000000000000000000000000000000000000000000000815260040161157c9061291d565b60405180910390fd5b60018060008373ffffffffffffffffffffffffffffffffffffffff1673ffffffffffffffffffffffffffffffffffffffff16815260200190815260200160002060006101000a81548160ff02191690831515021790555050565b6000600654600f60008473ffffffffffffffffffffffffffffffffffffffff1673ffffffffffffffffffffffffffffffffffffffff1681526020019081526020016000206003015461163191906129d4565b9050919050565b600654600f60003373ffffffffffffffffffffffffffffffffffffffff1673ffffffffffffffffffffffffffffffffffffffff1681526020019081526020016000206003015461168891906129d4565b42116116c9576040517f08c379a00000000000000000000000000000000000000000000000000000000081526004016116c09061293d565b60405180910390fd5b60006116d433611de2565b90506117156040518060400160405280600781526020017f7265776172643a00000000000000000000000000000000000000000000000000815250826121cf565b80600f60003373ffffffffffffffffffffffffffffffffffffffff1673ffffffffffffffffffffffffffffffffffffffff168152602001908152602001600020600401600082825461176791906129d4565b9250508190555042600f60003373ffffffffffffffffffffffffffffffffffffffff1673ffffffffffffffffffffffffffffffffffffffff168152602001908152602001600020600201819055506118366040518060400160405280601281526020017f616363756d756c6174656450726f6669743a0000000000000000000000000000815250600f60003373ffffffffffffffffffffffffffffffffffffffff1673ffffffffffffffffffffffffffffffffffffffff168152602001908152602001600020600401546121cf565b60006103e8600f60003373ffffffffffffffffffffffffffffffffffffffff1673ffffffffffffffffffffffffffffffffffffffff168152602001908152602001600020600401546118889190612a2a565b90506118c96040518060400160405280600c81526020017f6e466974746572506173733a0000000000000000000000000000000000000000815250826121cf565b6000811115611a8c57600360009054906101000a900473ffffffffffffffffffffffffffffffffffffffff1673ffffffffffffffffffffffffffffffffffffffff16636a627842336040518263ffffffff1660e01b815260040161192d9190612777565b600060405180830381600087803b15801561194757600080fd5b505af115801561195b573d6000803e3d6000fd5b505050506103e88161196d9190612a5b565b600f60003373ffffffffffffffffffffffffffffffffffffffff1673ffffffffffffffffffffffffffffffffffffffff16815260200190815260200160002060040160008282546119be9190612ab5565b925050819055506000600654600f60003373ffffffffffffffffffffffffffffffffffffffff1673ffffffffffffffffffffffffffffffffffffffff1681526020019081526020016000206003015442611a189190612ab5565b611a229190612a2a565b905080600654611a329190612a5b565b600f60003373ffffffffffffffffffffffffffffffffffffffff1673ffffffffffffffffffffffffffffffffffffffff1681526020019081526020016000206003016000828254611a8391906129d4565b92505081905550505b5050565b6000600f60003373ffffffffffffffffffffffffffffffffffffffff1673ffffffffffffffffffffffffffffffffffffffff1681526020019081526020016000206005015411611b15576040517f08c379a0000000000000000000000000000000000000000000000000000000008152600401611b0c9061295d565b60405180910390fd5b6000600f60003373ffffffffffffffffffffffffffffffffffffffff1673ffffffffffffffffffffffffffffffffffffffff168152602001908152602001600020600601544210611b67576000611b6a565b60015b9050611b76338261226b565b5050565b600042600654600f60008573ffffffffffffffffffffffffffffffffffffffff1673ffffffffffffffffffffffffffffffffffffffff16815260200190815260200160002060030154611bcd91906129d4565b611bd79190612ab5565b9050919050565b60006103e8600f60008473ffffffffffffffffffffffffffffffffffffffff1673ffffffffffffffffffffffffffffffffffffffff16815260200190815260200160002060040154611c2f84611de2565b611c3991906129d4565b611c439190612a2a565b9050919050565b600160003373ffffffffffffffffffffffffffffffffffffffff1673ffffffffffffffffffffffffffffffffffffffff16815260200190815260200160002060009054906101000a900460ff16611cd6576040517f08c379a0000000000000000000000000000000000000000000000000000000008152600401611ccd906128dd565b60405180910390fd5b8060048190555050565b6000600554905090565b611cf2612103565b73ffffffffffffffffffffffffffffffffffffffff16611d10610e24565b73ffffffffffffffffffffffffffffffffffffffff1614611d66576040517f08c379a0000000000000000000000000000000000000000000000000000000008152600401611d5d9061291d565b60405180910390fd5b600073ffffffffffffffffffffffffffffffffffffffff168173ffffffffffffffffffffffffffffffffffffffff161415611dd6576040517f08c379a0000000000000000000000000000000000000000000000000000000008152600401611dcd9061283d565b60405180910390fd5b611ddf8161210b565b50565b6000806000600a5414611e0057611dfb600a54426123e4565b611e02565b425b90506000611e52600f60008673ffffffffffffffffffffffffffffffffffffffff1673ffffffffffffffffffffffffffffffffffffffff16815260200190815260200160002060020154836123fd565b9050611e936040518060400160405280600f81526020017f70726f6d6f74696f6e2074696d653a0000000000000000000000000000000000815250826121cf565b600081600f60008773ffffffffffffffffffffffffffffffffffffffff1673ffffffffffffffffffffffffffffffffffffffff1681526020019081526020016000206002015484611ee49190612ab5565b611eee9190612ab5565b9050611f2f6040518060400160405280600781526020017f6e7054696d653a00000000000000000000000000000000000000000000000000815250826121cf565b611fb06040518060400160405280600c81526020017f7374616b65416d6f756e743a0000000000000000000000000000000000000000815250600f60008873ffffffffffffffffffffffffffffffffffffffff1673ffffffffffffffffffffffffffffffffffffffff168152602001908152602001600020600001546121cf565b61206d6040518060400160405280601181526020017f63616c63756c617465645265776172643a000000000000000000000000000000815250600454600554611ff99190612a5b565b838560026120079190612a5b565b61201191906129d4565b600f60008a73ffffffffffffffffffffffffffffffffffffffff1673ffffffffffffffffffffffffffffffffffffffff1681526020019081526020016000206000015461205e9190612a5b565b6120689190612a2a565b6121cf565b60045460055461207d9190612a5b565b8183600261208b9190612a5b565b61209591906129d4565b600f60008873ffffffffffffffffffffffffffffffffffffffff1673ffffffffffffffffffffffffffffffffffffffff168152602001908152602001600020600001546103e86120e59190612a5b565b6120ef9190612a5b565b6120f99190612a2a565b9350505050919050565b600033905090565b60008060009054906101000a900473ffffffffffffffffffffffffffffffffffffffff169050816000806101000a81548173ffffffffffffffffffffffffffffffffffffffff021916908373ffffffffffffffffffffffffffffffffffffffff1602179055508173ffffffffffffffffffffffffffffffffffffffff168173ffffffffffffffffffffffffffffffffffffffff167f8be0079c531659141344cd1fd0a4f28419497f9722a3daafe3b4186f6b6457e060405160405180910390a35050565b61226782826040516024016121e592919061280d565b6040516020818303038152906040527f9710a9d0000000000000000000000000000000000000000000000000000000007bffffffffffffffffffffffffffffffffffffffffffffffffffffffff19166020820180517bffffffffffffffffffffffffffffffffffffffffffffffffffffffff8381831617835250505050612457565b5050565b600080600f60008573ffffffffffffffffffffffffffffffffffffffff1673ffffffffffffffffffffffffffffffffffffffff16815260200190815260200160002060050154905082156122e257606460085460646122ca9190612ab5565b826122d59190612a5b565b6122df9190612a2a565b90505b6000600f60008673ffffffffffffffffffffffffffffffffffffffff1673ffffffffffffffffffffffffffffffffffffffff16815260200190815260200160002060050181905550600260009054906101000a900473ffffffffffffffffffffffffffffffffffffffff1673ffffffffffffffffffffffffffffffffffffffff1663a9059cbb85836040518363ffffffff1660e01b81526004016123879291906127c9565b602060405180830381600087803b1580156123a157600080fd5b505af11580156123b5573d6000803e3d6000fd5b505050506040513d601f19601f820116820180604052508101906123d99190612502565b508091505092915050565b60008183106123f357816123f5565b825b905092915050565b6000600c60010154831015806124185750600c600001548211155b156124265760009050612451565b61243583600c60000154612480565b61244483600c600101546123e4565b61244e9190612ab5565b90505b92915050565b60008151905060006a636f6e736f6c652e6c6f679050602083016000808483855afa5050505050565b6000818310156124905781612492565b825b905092915050565b6000813590506124a981612e2e565b92915050565b6000815190506124be81612e45565b92915050565b6000813590506124d381612e5c565b92915050565b6000602082840312156124eb57600080fd5b60006124f98482850161249a565b91505092915050565b60006020828403121561251457600080fd5b6000612522848285016124af565b91505092915050565b60006020828403121561253d57600080fd5b600061254b848285016124c4565b91505092915050565b6000806040838503121561256757600080fd5b6000612575858286016124c4565b9250506020612586858286016124c4565b9150509250929050565b61259981612ae9565b82525050565b6125a881612afb565b82525050565b60006125b9826129b8565b6125c381856129c3565b93506125d3818560208601612b31565b6125dc81612bc2565b840191505092915050565b60006125f46026836129c3565b91506125ff82612bd3565b604082019050919050565b60006126176024836129c3565b915061262282612c22565b604082019050919050565b600061263a601b836129c3565b915061264582612c71565b602082019050919050565b600061265d601a836129c3565b915061266882612c9a565b602082019050919050565b60006126806025836129c3565b915061268b82612cc3565b604082019050919050565b60006126a3601b836129c3565b91506126ae82612d12565b602082019050919050565b60006126c66010836129c3565b91506126d182612d3b565b602082019050919050565b60006126e96020836129c3565b91506126f482612d64565b602082019050919050565b600061270c6010836129c3565b915061271782612d8d565b602082019050919050565b600061272f6017836129c3565b915061273a82612db6565b602082019050919050565b60006127526032836129c3565b915061275d82612ddf565b604082019050919050565b61277181612b27565b82525050565b600060208201905061278c6000830184612590565b92915050565b60006060820190506127a76000830186612590565b6127b46020830185612590565b6127c16040830184612768565b949350505050565b60006040820190506127de6000830185612590565b6127eb6020830184612768565b9392505050565b6000602082019050612807600083018461259f565b92915050565b6000604082019050818103600083015261282781856125ae565b90506128366020830184612768565b9392505050565b60006020820190508181036000830152612856816125e7565b9050919050565b600060208201905081810360008301526128768161260a565b9050919050565b600060208201905081810360008301526128968161262d565b9050919050565b600060208201905081810360008301526128b681612650565b9050919050565b600060208201905081810360008301526128d681612673565b9050919050565b600060208201905081810360008301526128f681612696565b9050919050565b60006020820190508181036000830152612916816126b9565b9050919050565b60006020820190508181036000830152612936816126dc565b9050919050565b60006020820190508181036000830152612956816126ff565b9050919050565b6000602082019050818103600083015261297681612722565b9050919050565b6000602082019050818103600083015261299681612745565b9050919050565b60006020820190506129b26000830184612768565b92915050565b600081519050919050565b600082825260208201905092915050565b60006129df82612b27565b91506129ea83612b27565b9250827fffffffffffffffffffffffffffffffffffffffffffffffffffffffffffffffff03821115612a1f57612a1e612b64565b5b828201905092915050565b6000612a3582612b27565b9150612a4083612b27565b925082612a5057612a4f612b93565b5b828204905092915050565b6000612a6682612b27565b9150612a7183612b27565b9250817fffffffffffffffffffffffffffffffffffffffffffffffffffffffffffffffff0483118215151615612aaa57612aa9612b64565b5b828202905092915050565b6000612ac082612b27565b9150612acb83612b27565b925082821015612ade57612add612b64565b5b828203905092915050565b6000612af482612b07565b9050919050565b60008115159050919050565b600073ffffffffffffffffffffffffffffffffffffffff82169050919050565b6000819050919050565b60005b83811015612b4f578082015181840152602081019050612b34565b83811115612b5e576000848401525b50505050565b7f4e487b7100000000000000000000000000000000000000000000000000000000600052601160045260246000fd5b7f4e487b7100000000000000000000000000000000000000000000000000000000600052601260045260246000fd5b6000601f19601f8301169050919050565b7f4f776e61626c653a206e6577206f776e657220697320746865207a65726f206160008201527f6464726573730000000000000000000000000000000000000000000000000000602082015250565b7f756e7374616b6520616d6f756e742065786365656473207374616b656420616d60008201527f6f756e7400000000000000000000000000000000000000000000000000000000602082015250565b7f7374616b6520616d6f756e742063616e6e6f74206265207a65726f0000000000600082015250565b7f70656e616c7479526174652063616e6e6f742062652031303025000000000000600082015250565b7f70726f6d6f74696f6e2072617465206d7573742062652067726561746572207460008201527f68616e2031000000000000000000000000000000000000000000000000000000602082015250565b7f63616c6c6572206973206e6f7420746865206f70657261746f72730000000000600082015250565b7f43616e6e6f74207374616b65206e6f7700000000000000000000000000000000600082015250565b7f4f776e61626c653a2063616c6c6572206973206e6f7420746865206f776e6572600082015250565b7f43616e6e6f7420636c61696d206e6f7700000000000000000000000000000000600082015250565b7f756e7374616b65206265666f7265207769746864726177000000000000000000600082015250565b7f7374616b6520616d6f756e74206c657373207468616e206d696e696d756d207360008201527f74616b696e6720726571756972656d656e740000000000000000000000000000602082015250565b612e3781612ae9565b8114612e4257600080fd5b50565b612e4e81612afb565b8114612e5957600080fd5b50565b612e6581612b27565b8114612e7057600080fd5b5056fea2646970667358221220c36fb8528fd227be78992f20c4b314a2d6534b71506d8920ae79975a5688094d64736f6c63430008040033",
  "linkReferences": {},
  "deployedLinkReferences": {}
}