{
  "contractName": "BFHealthToken",
  "abi": [
    {
      "inputs": [
        {
          "internalType": "string",
          "name": "_name",
          "type": "string"
        },
        {
          "internalType": "string",
          "name": "_symbol",
          "type": "string"
        }
      ],
      "stateMutability": "nonpayable",
      "type": "constructor"
    },
    {
      "anonymous": false,
      "inputs": [
        {
          "indexed": true,
          "internalType": "address",
          "name": "owner",
          "type": "address"
        },
        {
          "indexed": true,
          "internalType": "address",
          "name": "spender",
          "type": "address"
        },
        {
          "indexed": false,
          "internalType": "uint256",
          "name": "value",
          "type": "uint256"
        }
      ],
      "name": "Approval",
      "type": "event"
    },
    {
      "anonymous": false,
      "inputs": [
        {
          "indexed": true,
          "internalType": "address",
          "name": "to",
          "type": "address"
        },
        {
          "indexed": false,
          "internalType": "uint256",
          "name": "amount",
          "type": "uint256"
        }
      ],
      "name": "HealthTokenMinted",
      "type": "event"
    },
    {
      "anonymous": false,
      "inputs": [
        {
          "indexed": true,
          "internalType": "address",
          "name": "previousOwner",
          "type": "address"
        },
        {
          "indexed": true,
          "internalType": "address",
          "name": "newOwner",
          "type": "address"
        }
      ],
      "name": "OwnershipTransferred",
      "type": "event"
    },
    {
      "anonymous": false,
      "inputs": [
        {
          "indexed": true,
          "internalType": "address",
          "name": "from",
          "type": "address"
        },
        {
          "indexed": true,
          "internalType": "address",
          "name": "to",
          "type": "address"
        },
        {
          "indexed": false,
          "internalType": "uint256",
          "name": "value",
          "type": "uint256"
        }
      ],
      "name": "Transfer",
      "type": "event"
    },
    {
      "anonymous": false,
      "inputs": [
        {
          "indexed": true,
          "internalType": "address",
          "name": "from",
          "type": "address"
        },
        {
          "indexed": true,
          "internalType": "address",
          "name": "to",
          "type": "address"
        },
        {
          "indexed": false,
          "internalType": "uint256",
          "name": "amount",
          "type": "uint256"
        }
      ],
      "name": "TransferHealthToken",
      "type": "event"
    },
    {
      "anonymous": false,
      "inputs": [
        {
          "indexed": true,
          "internalType": "address",
          "name": "to",
          "type": "address"
        },
        {
          "indexed": false,
          "internalType": "uint256",
          "name": "amount",
          "type": "uint256"
        },
        {
          "indexed": false,
          "internalType": "string",
          "name": "uuid",
          "type": "string"
        }
      ],
      "name": "WithdrawHealthTokenFromSpending",
      "type": "event"
    },
    {
      "inputs": [
        {
          "internalType": "address",
          "name": "owner",
          "type": "address"
        },
        {
          "internalType": "address",
          "name": "spender",
          "type": "address"
        }
      ],
      "name": "allowance",
      "outputs": [
        {
          "internalType": "uint256",
          "name": "",
          "type": "uint256"
        }
      ],
      "stateMutability": "view",
      "type": "function",
      "constant": true
    },
    {
      "inputs": [
        {
          "internalType": "address",
          "name": "spender",
          "type": "address"
        },
        {
          "internalType": "uint256",
          "name": "amount",
          "type": "uint256"
        }
      ],
      "name": "approve",
      "outputs": [
        {
          "internalType": "bool",
          "name": "",
          "type": "bool"
        }
      ],
      "stateMutability": "nonpayable",
      "type": "function"
    },
    {
      "inputs": [
        {
          "internalType": "address",
          "name": "account",
          "type": "address"
        }
      ],
      "name": "balanceOf",
      "outputs": [
        {
          "internalType": "uint256",
          "name": "",
          "type": "uint256"
        }
      ],
      "stateMutability": "view",
      "type": "function",
      "constant": true
    },
    {
      "inputs": [],
      "name": "decimals",
      "outputs": [
        {
          "internalType": "uint8",
          "name": "",
          "type": "uint8"
        }
      ],
      "stateMutability": "view",
      "type": "function",
      "constant": true
    },
    {
      "inputs": [
        {
          "internalType": "address",
          "name": "spender",
          "type": "address"
        },
        {
          "internalType": "uint256",
          "name": "subtractedValue",
          "type": "uint256"
        }
      ],
      "name": "decreaseAllowance",
      "outputs": [
        {
          "internalType": "bool",
          "name": "",
          "type": "bool"
        }
      ],
      "stateMutability": "nonpayable",
      "type": "function"
    },
    {
      "inputs": [
        {
          "internalType": "address",
          "name": "spender",
          "type": "address"
        },
        {
          "internalType": "uint256",
          "name": "addedValue",
          "type": "uint256"
        }
      ],
      "name": "increaseAllowance",
      "outputs": [
        {
          "internalType": "bool",
          "name": "",
          "type": "bool"
        }
      ],
      "stateMutability": "nonpayable",
      "type": "function"
    },
    {
      "inputs": [],
      "name": "maxSupply",
      "outputs": [
        {
          "internalType": "uint256",
          "name": "",
          "type": "uint256"
        }
      ],
      "stateMutability": "view",
      "type": "function",
      "constant": true
    },
    {
      "inputs": [],
      "name": "name",
      "outputs": [
        {
          "internalType": "string",
          "name": "",
          "type": "string"
        }
      ],
      "stateMutability": "view",
      "type": "function",
      "constant": true
    },
    {
      "inputs": [],
      "name": "owner",
      "outputs": [
        {
          "internalType": "address",
          "name": "",
          "type": "address"
        }
      ],
      "stateMutability": "view",
      "type": "function",
      "constant": true
    },
    {
      "inputs": [],
      "name": "renounceOwnership",
      "outputs": [],
      "stateMutability": "nonpayable",
      "type": "function"
    },
    {
      "inputs": [],
      "name": "symbol",
      "outputs": [
        {
          "internalType": "string",
          "name": "",
          "type": "string"
        }
      ],
      "stateMutability": "view",
      "type": "function",
      "constant": true
    },
    {
      "inputs": [],
      "name": "totalSupply",
      "outputs": [
        {
          "internalType": "uint256",
          "name": "",
          "type": "uint256"
        }
      ],
      "stateMutability": "view",
      "type": "function",
      "constant": true
    },
    {
      "inputs": [
        {
          "internalType": "address",
          "name": "from",
          "type": "address"
        },
        {
          "internalType": "address",
          "name": "to",
          "type": "address"
        },
        {
          "internalType": "uint256",
          "name": "amount",
          "type": "uint256"
        }
      ],
      "name": "transferFrom",
      "outputs": [
        {
          "internalType": "bool",
          "name": "",
          "type": "bool"
        }
      ],
      "stateMutability": "nonpayable",
      "type": "function"
    },
    {
      "inputs": [
        {
          "internalType": "address",
          "name": "newOwner",
          "type": "address"
        }
      ],
      "name": "transferOwnership",
      "outputs": [],
      "stateMutability": "nonpayable",
      "type": "function"
    },
    {
      "inputs": [
        {
          "internalType": "address",
          "name": "operator",
          "type": "address"
        },
        {
          "internalType": "bool",
          "name": "approved",
          "type": "bool"
        }
      ],
      "name": "setOperator",
      "outputs": [],
      "stateMutability": "nonpayable",
      "type": "function"
    },
    {
      "inputs": [
        {
          "internalType": "uint256",
          "name": "amount",
          "type": "uint256"
        }
      ],
      "name": "mint",
      "outputs": [],
      "stateMutability": "nonpayable",
      "type": "function"
    },
    {
      "inputs": [
        {
          "internalType": "address",
          "name": "user",
          "type": "address"
        },
        {
          "internalType": "uint256",
          "name": "amount",
          "type": "uint256"
        }
      ],
      "name": "airdrop",
      "outputs": [],
      "stateMutability": "nonpayable",
      "type": "function"
    },
    {
      "inputs": [
        {
          "internalType": "address",
          "name": "to",
          "type": "address"
        },
        {
          "internalType": "uint256",
          "name": "amount",
          "type": "uint256"
        }
      ],
      "name": "transfer",
      "outputs": [
        {
          "internalType": "bool",
          "name": "",
          "type": "bool"
        }
      ],
      "stateMutability": "nonpayable",
      "type": "function"
    },
    {
      "inputs": [
        {
          "internalType": "address",
          "name": "to",
          "type": "address"
        },
        {
          "internalType": "uint256",
          "name": "amount",
          "type": "uint256"
        },
        {
          "internalType": "string",
          "name": "uuid",
          "type": "string"
        }
      ],
      "name": "withdrawFromSpending",
      "outputs": [],
      "stateMutability": "nonpayable",
      "type": "function"
    }
  ],
  "bytecode": "0x60806040526b033b2e3c9fd0803ce80000006006553480156200002157600080fd5b50604051620028ed380380620028ed833981810160405281019062000047919062000692565b818181600390805190602001906200006192919062000445565b5080600490805190602001906200007a92919062000445565b5050506200009d62000091620000b860201b60201c565b620000c060201b60201c565b620000b06006546200018660201b60201c565b505062000935565b600033905090565b6000600560009054906101000a900473ffffffffffffffffffffffffffffffffffffffff16905081600560006101000a81548173ffffffffffffffffffffffffffffffffffffffff021916908373ffffffffffffffffffffffffffffffffffffffff1602179055508173ffffffffffffffffffffffffffffffffffffffff168173ffffffffffffffffffffffffffffffffffffffff167f8be0079c531659141344cd1fd0a4f28419497f9722a3daafe3b4186f6b6457e060405160405180910390a35050565b62000196620000b860201b60201c565b73ffffffffffffffffffffffffffffffffffffffff16620001bc6200029860201b60201c565b73ffffffffffffffffffffffffffffffffffffffff161462000215576040517f08c379a00000000000000000000000000000000000000000000000000000000081526004016200020c9062000778565b60405180910390fd5b6200023662000229620000b860201b60201c565b82620002c260201b60201c565b62000246620000b860201b60201c565b73ffffffffffffffffffffffffffffffffffffffff167fecb34ad5daa3facde38de376529311c8f5911d9425ff3499e082d82827bc0d20826040516200028d9190620007b5565b60405180910390a250565b6000600560009054906101000a900473ffffffffffffffffffffffffffffffffffffffff16905090565b600073ffffffffffffffffffffffffffffffffffffffff168273ffffffffffffffffffffffffffffffffffffffff16141562000335576040517f08c379a00000000000000000000000000000000000000000000000000000000081526004016200032c9062000822565b60405180910390fd5b62000349600083836200043b60201b60201c565b80600260008282546200035d919062000873565b92505081905550806000808473ffffffffffffffffffffffffffffffffffffffff1673ffffffffffffffffffffffffffffffffffffffff1681526020019081526020016000206000828254620003b4919062000873565b925050819055508173ffffffffffffffffffffffffffffffffffffffff16600073ffffffffffffffffffffffffffffffffffffffff167fddf252ad1be2c89b69c2b068fc378daa952ba7f163c4a11628f55a4df523b3ef836040516200041b9190620007b5565b60405180910390a362000437600083836200044060201b60201c565b5050565b505050565b505050565b8280546200045390620008ff565b90600052602060002090601f016020900481019282620004775760008555620004c3565b82601f106200049257805160ff1916838001178555620004c3565b82800160010185558215620004c3579182015b82811115620004c2578251825591602001919060010190620004a5565b5b509050620004d29190620004d6565b5090565b5b80821115620004f1576000816000905550600101620004d7565b5090565b6000604051905090565b600080fd5b600080fd5b600080fd5b600080fd5b6000601f19601f8301169050919050565b7f4e487b7100000000000000000000000000000000000000000000000000000000600052604160045260246000fd5b6200055e8262000513565b810181811067ffffffffffffffff8211171562000580576200057f62000524565b5b80604052505050565b600062000595620004f5565b9050620005a3828262000553565b919050565b600067ffffffffffffffff821115620005c657620005c562000524565b5b620005d18262000513565b9050602081019050919050565b60005b83811015620005fe578082015181840152602081019050620005e1565b838111156200060e576000848401525b50505050565b60006200062b6200062584620005a8565b62000589565b9050828152602081018484840111156200064a57620006496200050e565b5b62000657848285620005de565b509392505050565b600082601f83011262000677576200067662000509565b5b81516200068984826020860162000614565b91505092915050565b60008060408385031215620006ac57620006ab620004ff565b5b600083015167ffffffffffffffff811115620006cd57620006cc62000504565b5b620006db858286016200065f565b925050602083015167ffffffffffffffff811115620006ff57620006fe62000504565b5b6200070d858286016200065f565b9150509250929050565b600082825260208201905092915050565b7f4f776e61626c653a2063616c6c6572206973206e6f7420746865206f776e6572600082015250565b60006200076060208362000717565b91506200076d8262000728565b602082019050919050565b60006020820190508181036000830152620007938162000751565b9050919050565b6000819050919050565b620007af816200079a565b82525050565b6000602082019050620007cc6000830184620007a4565b92915050565b7f45524332303a206d696e7420746f20746865207a65726f206164647265737300600082015250565b60006200080a601f8362000717565b91506200081782620007d2565b602082019050919050565b600060208201905081810360008301526200083d81620007fb565b9050919050565b7f4e487b7100000000000000000000000000000000000000000000000000000000600052601160045260246000fd5b600062000880826200079a565b91506200088d836200079a565b9250827fffffffffffffffffffffffffffffffffffffffffffffffffffffffffffffffff03821115620008c557620008c462000844565b5b828201905092915050565b7f4e487b7100000000000000000000000000000000000000000000000000000000600052602260045260246000fd5b600060028204905060018216806200091857607f821691505b602082108114156200092f576200092e620008d0565b5b50919050565b611fa880620009456000396000f3fe608060405234801561001057600080fd5b50600436106101215760003560e01c8063715018a6116100ad578063a457c2d711610071578063a457c2d7146102f6578063a9059cbb14610326578063d5abeb0114610356578063dd62ed3e14610374578063f2fde38b146103a457610121565b8063715018a6146102785780638ba4cc3c146102825780638da5cb5b1461029e57806395d89b41146102bc578063a0712d68146102da57610121565b80632ab33c48116100f45780632ab33c48146101c2578063313ce567146101de57806339509351146101fc578063558a72971461022c57806370a082311461024857610121565b806306fdde0314610126578063095ea7b31461014457806318160ddd1461017457806323b872dd14610192575b600080fd5b61012e6103c0565b60405161013b91906113e6565b60405180910390f35b61015e600480360381019061015991906114b0565b610452565b60405161016b919061150b565b60405180910390f35b61017c610475565b6040516101899190611535565b60405180910390f35b6101ac60048036038101906101a79190611550565b61047f565b6040516101b9919061150b565b60405180910390f35b6101dc60048036038101906101d791906116d8565b6104ae565b005b6101e6610597565b6040516101f39190611763565b60405180910390f35b610216600480360381019061021191906114b0565b6105a0565b604051610223919061150b565b60405180910390f35b610246600480360381019061024191906117aa565b6105d7565b005b610262600480360381019061025d91906117ea565b6106ae565b60405161026f9190611535565b60405180910390f35b6102806106f6565b005b61029c600480360381019061029791906114b0565b61077e565b005b6102a6610818565b6040516102b39190611826565b60405180910390f35b6102c4610842565b6040516102d191906113e6565b60405180910390f35b6102f460048036038101906102ef9190611841565b6108d4565b005b610310600480360381019061030b91906114b0565b6109b9565b60405161031d919061150b565b60405180910390f35b610340600480360381019061033b91906114b0565b610a30565b60405161034d919061150b565b60405180910390f35b61035e610ab8565b60405161036b9190611535565b60405180910390f35b61038e6004803603810190610389919061186e565b610abe565b60405161039b9190611535565b60405180910390f35b6103be60048036038101906103b991906117ea565b610b45565b005b6060600380546103cf906118dd565b80601f01602080910402602001604051908101604052809291908181526020018280546103fb906118dd565b80156104485780601f1061041d57610100808354040283529160200191610448565b820191906000526020600020905b81548152906001019060200180831161042b57829003601f168201915b5050505050905090565b60008061045d610c3d565b905061046a818585610c45565b600191505092915050565b6000600254905090565b60008061048a610c3d565b9050610497858285610e10565b6104a2858585610e9c565b60019150509392505050565b6104b6610c3d565b73ffffffffffffffffffffffffffffffffffffffff166104d4610818565b73ffffffffffffffffffffffffffffffffffffffff161461052a576040517f08c379a00000000000000000000000000000000000000000000000000000000081526004016105219061195b565b60405180910390fd5b6000610534610c3d565b9050610541818585610e9c565b8373ffffffffffffffffffffffffffffffffffffffff167fd0149b772b58380fb7ea8efe3e441dc0806294a5b9dd41be63d52f4ca4a13d57848460405161058992919061197b565b60405180910390a250505050565b60006012905090565b6000806105ab610c3d565b90506105cc8185856105bd8589610abe565b6105c791906119da565b610c45565b600191505092915050565b6105df610c3d565b73ffffffffffffffffffffffffffffffffffffffff166105fd610818565b73ffffffffffffffffffffffffffffffffffffffff1614610653576040517f08c379a000000000000000000000000000000000000000000000000000000000815260040161064a9061195b565b60405180910390fd5b80600760008473ffffffffffffffffffffffffffffffffffffffff1673ffffffffffffffffffffffffffffffffffffffff16815260200190815260200160002060006101000a81548160ff0219169083151502179055505050565b60008060008373ffffffffffffffffffffffffffffffffffffffff1673ffffffffffffffffffffffffffffffffffffffff168152602001908152602001600020549050919050565b6106fe610c3d565b73ffffffffffffffffffffffffffffffffffffffff1661071c610818565b73ffffffffffffffffffffffffffffffffffffffff1614610772576040517f08c379a00000000000000000000000000000000000000000000000000000000081526004016107699061195b565b60405180910390fd5b61077c600061111d565b565b600760003373ffffffffffffffffffffffffffffffffffffffff1673ffffffffffffffffffffffffffffffffffffffff16815260200190815260200160002060009054906101000a900460ff1661080a576040517f08c379a000000000000000000000000000000000000000000000000000000000815260040161080190611a7c565b60405180910390fd5b61081482826111e3565b5050565b6000600560009054906101000a900473ffffffffffffffffffffffffffffffffffffffff16905090565b606060048054610851906118dd565b80601f016020809104026020016040519081016040528092919081815260200182805461087d906118dd565b80156108ca5780601f1061089f576101008083540402835291602001916108ca565b820191906000526020600020905b8154815290600101906020018083116108ad57829003601f168201915b5050505050905090565b6108dc610c3d565b73ffffffffffffffffffffffffffffffffffffffff166108fa610818565b73ffffffffffffffffffffffffffffffffffffffff1614610950576040517f08c379a00000000000000000000000000000000000000000000000000000000081526004016109479061195b565b60405180910390fd5b61096161095b610c3d565b826111e3565b610969610c3d565b73ffffffffffffffffffffffffffffffffffffffff167fecb34ad5daa3facde38de376529311c8f5911d9425ff3499e082d82827bc0d20826040516109ae9190611535565b60405180910390a250565b6000806109c4610c3d565b905060006109d28286610abe565b905083811015610a17576040517f08c379a0000000000000000000000000000000000000000000000000000000008152600401610a0e90611b0e565b60405180910390fd5b610a248286868403610c45565b60019250505092915050565b600080610a3b610c3d565b9050610a48818585610e9c565b8373ffffffffffffffffffffffffffffffffffffffff163373ffffffffffffffffffffffffffffffffffffffff167f5335463c381fb415e42e363cb2b03679064c640794d377a4b25f370dbc0a12fe85604051610aa59190611535565b60405180910390a3600191505092915050565b60065481565b6000600160008473ffffffffffffffffffffffffffffffffffffffff1673ffffffffffffffffffffffffffffffffffffffff16815260200190815260200160002060008373ffffffffffffffffffffffffffffffffffffffff1673ffffffffffffffffffffffffffffffffffffffff16815260200190815260200160002054905092915050565b610b4d610c3d565b73ffffffffffffffffffffffffffffffffffffffff16610b6b610818565b73ffffffffffffffffffffffffffffffffffffffff1614610bc1576040517f08c379a0000000000000000000000000000000000000000000000000000000008152600401610bb89061195b565b60405180910390fd5b600073ffffffffffffffffffffffffffffffffffffffff168173ffffffffffffffffffffffffffffffffffffffff161415610c31576040517f08c379a0000000000000000000000000000000000000000000000000000000008152600401610c2890611ba0565b60405180910390fd5b610c3a8161111d565b50565b600033905090565b600073ffffffffffffffffffffffffffffffffffffffff168373ffffffffffffffffffffffffffffffffffffffff161415610cb5576040517f08c379a0000000000000000000000000000000000000000000000000000000008152600401610cac90611c32565b60405180910390fd5b600073ffffffffffffffffffffffffffffffffffffffff168273ffffffffffffffffffffffffffffffffffffffff161415610d25576040517f08c379a0000000000000000000000000000000000000000000000000000000008152600401610d1c90611cc4565b60405180910390fd5b80600160008573ffffffffffffffffffffffffffffffffffffffff1673ffffffffffffffffffffffffffffffffffffffff16815260200190815260200160002060008473ffffffffffffffffffffffffffffffffffffffff1673ffffffffffffffffffffffffffffffffffffffff168152602001908152602001600020819055508173ffffffffffffffffffffffffffffffffffffffff168373ffffffffffffffffffffffffffffffffffffffff167f8c5be1e5ebec7d5bd14f71427d1e84f3dd0314c0f7b2291e5b200ac8c7c3b92583604051610e039190611535565b60405180910390a3505050565b6000610e1c8484610abe565b90507fffffffffffffffffffffffffffffffffffffffffffffffffffffffffffffffff8114610e965781811015610e88576040517f08c379a0000000000000000000000000000000000000000000000000000000008152600401610e7f90611d30565b60405180910390fd5b610e958484848403610c45565b5b50505050565b600073ffffffffffffffffffffffffffffffffffffffff168373ffffffffffffffffffffffffffffffffffffffff161415610f0c576040517f08c379a0000000000000000000000000000000000000000000000000000000008152600401610f0390611dc2565b60405180910390fd5b600073ffffffffffffffffffffffffffffffffffffffff168273ffffffffffffffffffffffffffffffffffffffff161415610f7c576040517f08c379a0000000000000000000000000000000000000000000000000000000008152600401610f7390611e54565b60405180910390fd5b610f87838383611343565b60008060008573ffffffffffffffffffffffffffffffffffffffff1673ffffffffffffffffffffffffffffffffffffffff1681526020019081526020016000205490508181101561100d576040517f08c379a000000000000000000000000000000000000000000000000000000000815260040161100490611ee6565b60405180910390fd5b8181036000808673ffffffffffffffffffffffffffffffffffffffff1673ffffffffffffffffffffffffffffffffffffffff16815260200190815260200160002081905550816000808573ffffffffffffffffffffffffffffffffffffffff1673ffffffffffffffffffffffffffffffffffffffff16815260200190815260200160002060008282546110a091906119da565b925050819055508273ffffffffffffffffffffffffffffffffffffffff168473ffffffffffffffffffffffffffffffffffffffff167fddf252ad1be2c89b69c2b068fc378daa952ba7f163c4a11628f55a4df523b3ef846040516111049190611535565b60405180910390a3611117848484611348565b50505050565b6000600560009054906101000a900473ffffffffffffffffffffffffffffffffffffffff16905081600560006101000a81548173ffffffffffffffffffffffffffffffffffffffff021916908373ffffffffffffffffffffffffffffffffffffffff1602179055508173ffffffffffffffffffffffffffffffffffffffff168173ffffffffffffffffffffffffffffffffffffffff167f8be0079c531659141344cd1fd0a4f28419497f9722a3daafe3b4186f6b6457e060405160405180910390a35050565b600073ffffffffffffffffffffffffffffffffffffffff168273ffffffffffffffffffffffffffffffffffffffff161415611253576040517f08c379a000000000000000000000000000000000000000000000000000000000815260040161124a90611f52565b60405180910390fd5b61125f60008383611343565b806002600082825461127191906119da565b92505081905550806000808473ffffffffffffffffffffffffffffffffffffffff1673ffffffffffffffffffffffffffffffffffffffff16815260200190815260200160002060008282546112c691906119da565b925050819055508173ffffffffffffffffffffffffffffffffffffffff16600073ffffffffffffffffffffffffffffffffffffffff167fddf252ad1be2c89b69c2b068fc378daa952ba7f163c4a11628f55a4df523b3ef8360405161132b9190611535565b60405180910390a361133f60008383611348565b5050565b505050565b505050565b600081519050919050565b600082825260208201905092915050565b60005b8381101561138757808201518184015260208101905061136c565b83811115611396576000848401525b50505050565b6000601f19601f8301169050919050565b60006113b88261134d565b6113c28185611358565b93506113d2818560208601611369565b6113db8161139c565b840191505092915050565b6000602082019050818103600083015261140081846113ad565b905092915050565b6000604051905090565b600080fd5b600080fd5b600073ffffffffffffffffffffffffffffffffffffffff82169050919050565b60006114478261141c565b9050919050565b6114578161143c565b811461146257600080fd5b50565b6000813590506114748161144e565b92915050565b6000819050919050565b61148d8161147a565b811461149857600080fd5b50565b6000813590506114aa81611484565b92915050565b600080604083850312156114c7576114c6611412565b5b60006114d585828601611465565b92505060206114e68582860161149b565b9150509250929050565b60008115159050919050565b611505816114f0565b82525050565b600060208201905061152060008301846114fc565b92915050565b61152f8161147a565b82525050565b600060208201905061154a6000830184611526565b92915050565b60008060006060848603121561156957611568611412565b5b600061157786828701611465565b935050602061158886828701611465565b92505060406115998682870161149b565b9150509250925092565b600080fd5b600080fd5b7f4e487b7100000000000000000000000000000000000000000000000000000000600052604160045260246000fd5b6115e58261139c565b810181811067ffffffffffffffff82111715611604576116036115ad565b5b80604052505050565b6000611617611408565b905061162382826115dc565b919050565b600067ffffffffffffffff821115611643576116426115ad565b5b61164c8261139c565b9050602081019050919050565b82818337600083830152505050565b600061167b61167684611628565b61160d565b905082815260208101848484011115611697576116966115a8565b5b6116a2848285611659565b509392505050565b600082601f8301126116bf576116be6115a3565b5b81356116cf848260208601611668565b91505092915050565b6000806000606084860312156116f1576116f0611412565b5b60006116ff86828701611465565b93505060206117108682870161149b565b925050604084013567ffffffffffffffff81111561173157611730611417565b5b61173d868287016116aa565b9150509250925092565b600060ff82169050919050565b61175d81611747565b82525050565b60006020820190506117786000830184611754565b92915050565b611787816114f0565b811461179257600080fd5b50565b6000813590506117a48161177e565b92915050565b600080604083850312156117c1576117c0611412565b5b60006117cf85828601611465565b92505060206117e085828601611795565b9150509250929050565b600060208284031215611800576117ff611412565b5b600061180e84828501611465565b91505092915050565b6118208161143c565b82525050565b600060208201905061183b6000830184611817565b92915050565b60006020828403121561185757611856611412565b5b60006118658482850161149b565b91505092915050565b6000806040838503121561188557611884611412565b5b600061189385828601611465565b92505060206118a485828601611465565b9150509250929050565b7f4e487b7100000000000000000000000000000000000000000000000000000000600052602260045260246000fd5b600060028204905060018216806118f557607f821691505b60208210811415611909576119086118ae565b5b50919050565b7f4f776e61626c653a2063616c6c6572206973206e6f7420746865206f776e6572600082015250565b6000611945602083611358565b91506119508261190f565b602082019050919050565b6000602082019050818103600083015261197481611938565b9050919050565b60006040820190506119906000830185611526565b81810360208301526119a281846113ad565b90509392505050565b7f4e487b7100000000000000000000000000000000000000000000000000000000600052601160045260246000fd5b60006119e58261147a565b91506119f08361147a565b9250827fffffffffffffffffffffffffffffffffffffffffffffffffffffffffffffffff03821115611a2557611a246119ab565b5b828201905092915050565b7f43616c6c6572206973206e6f7420746865206f70657261746f72730000000000600082015250565b6000611a66601b83611358565b9150611a7182611a30565b602082019050919050565b60006020820190508181036000830152611a9581611a59565b9050919050565b7f45524332303a2064656372656173656420616c6c6f77616e63652062656c6f7760008201527f207a65726f000000000000000000000000000000000000000000000000000000602082015250565b6000611af8602583611358565b9150611b0382611a9c565b604082019050919050565b60006020820190508181036000830152611b2781611aeb565b9050919050565b7f4f776e61626c653a206e6577206f776e657220697320746865207a65726f206160008201527f6464726573730000000000000000000000000000000000000000000000000000602082015250565b6000611b8a602683611358565b9150611b9582611b2e565b604082019050919050565b60006020820190508181036000830152611bb981611b7d565b9050919050565b7f45524332303a20617070726f76652066726f6d20746865207a65726f2061646460008201527f7265737300000000000000000000000000000000000000000000000000000000602082015250565b6000611c1c602483611358565b9150611c2782611bc0565b604082019050919050565b60006020820190508181036000830152611c4b81611c0f565b9050919050565b7f45524332303a20617070726f766520746f20746865207a65726f20616464726560008201527f7373000000000000000000000000000000000000000000000000000000000000602082015250565b6000611cae602283611358565b9150611cb982611c52565b604082019050919050565b60006020820190508181036000830152611cdd81611ca1565b9050919050565b7f45524332303a20696e73756666696369656e7420616c6c6f77616e6365000000600082015250565b6000611d1a601d83611358565b9150611d2582611ce4565b602082019050919050565b60006020820190508181036000830152611d4981611d0d565b9050919050565b7f45524332303a207472616e736665722066726f6d20746865207a65726f20616460008201527f6472657373000000000000000000000000000000000000000000000000000000602082015250565b6000611dac602583611358565b9150611db782611d50565b604082019050919050565b60006020820190508181036000830152611ddb81611d9f565b9050919050565b7f45524332303a207472616e7366657220746f20746865207a65726f206164647260008201527f6573730000000000000000000000000000000000000000000000000000000000602082015250565b6000611e3e602383611358565b9150611e4982611de2565b604082019050919050565b60006020820190508181036000830152611e6d81611e31565b9050919050565b7f45524332303a207472616e7366657220616d6f756e742065786365656473206260008201527f616c616e63650000000000000000000000000000000000000000000000000000602082015250565b6000611ed0602683611358565b9150611edb82611e74565b604082019050919050565b60006020820190508181036000830152611eff81611ec3565b9050919050565b7f45524332303a206d696e7420746f20746865207a65726f206164647265737300600082015250565b6000611f3c601f83611358565b9150611f4782611f06565b602082019050919050565b60006020820190508181036000830152611f6b81611f2f565b905091905056fea2646970667358221220584cd93a709ddc33723fed5f938d9a4999fe08a571ddb7ded99c57d90d5b521d64736f6c634300080a0033",
  "immutableReferences": {},
  "source": "// contracts/Box.sol\n// SPDX-License-Identifier: UNLICENSED\npragma solidity ^0.8.0;\n\nimport \"@openzeppelin/contracts/token/ERC20/ERC20.sol\";\nimport \"@openzeppelin/contracts/access/Ownable.sol\";\n\ncontract BFHealthToken is ERC20, Ownable {\n\n    uint256 public maxSupply = 10**9 * 10**18;\n    mapping (address => bool) _operators;\n\n    event HealthTokenMinted(address indexed to, uint256 amount);\n    event TransferHealthToken(address indexed from, address indexed to, uint256 amount);\n    event WithdrawHealthTokenFromSpending(address indexed to, uint256 amount, string uuid);\n\n    constructor(string memory _name, string memory _symbol) ERC20(_name, _symbol)\n    {\n        mint(maxSupply);\n    }\n\n    modifier onlyOperators() {\n        require(_operators[msg.sender], \"Caller is not the operators\");\n        _;\n    }\n\n    function setOperator(address operator, bool approved)\n        public\n        onlyOwner\n    {\n        _operators[operator] = approved;\n    }\n\n    function mint(uint256 amount)\n        public\n        onlyOwner\n    {\n        _mint(_msgSender(), amount);\n\n        emit HealthTokenMinted(_msgSender(), amount);\n    }\n\n    function airdrop(address user, uint256 amount)\n        public\n        onlyOperators\n    {\n        _mint(user, amount);\n    }\n\n    function transfer(address to, uint256 amount)\n        public virtual override\n        returns (bool)\n    {\n        address owner = _msgSender();\n        _transfer(owner, to, amount);\n\n        emit TransferHealthToken(msg.sender, to, amount);\n        return true;\n    }\n\n    function withdrawFromSpending(address to, uint256 amount, string memory uuid)\n        public\n        onlyOwner\n    {\n        address owner = _msgSender();\n        _transfer(owner, to, amount);\n\n        emit WithdrawHealthTokenFromSpending(to, amount, uuid);\n    }\n}",
  "sourcePath": "/home/hungnd/workspace/BeFitter/contracts/BFHealthToken.sol",
  "compiler": {
    "name": "solc",
    "version": "0.8.10+commit.fc410830.Emscripten.clang"
  },
  "schemaVersion": "3.4.3",
  "updatedAt": "2022-06-05T14:15:04.515Z",
  "networkType": "ethereum",
  "devdoc": {
    "kind": "dev",
    "methods": {
      "allowance(address,address)": {
        "details": "See {IERC20-allowance}."
      },
      "approve(address,uint256)": {
        "details": "See {IERC20-approve}. NOTE: If `amount` is the maximum `uint256`, the allowance is not updated on `transferFrom`. This is semantically equivalent to an infinite approval. Requirements: - `spender` cannot be the zero address."
      },
      "balanceOf(address)": {
        "details": "See {IERC20-balanceOf}."
      },
      "decimals()": {
        "details": "Returns the number of decimals used to get its user representation. For example, if `decimals` equals `2`, a balance of `505` tokens should be displayed to a user as `5.05` (`505 / 10 ** 2`). Tokens usually opt for a value of 18, imitating the relationship between Ether and Wei. This is the value {ERC20} uses, unless this function is overridden; NOTE: This information is only used for _display_ purposes: it in no way affects any of the arithmetic of the contract, including {IERC20-balanceOf} and {IERC20-transfer}."
      },
      "decreaseAllowance(address,uint256)": {
        "details": "Atomically decreases the allowance granted to `spender` by the caller. This is an alternative to {approve} that can be used as a mitigation for problems described in {IERC20-approve}. Emits an {Approval} event indicating the updated allowance. Requirements: - `spender` cannot be the zero address. - `spender` must have allowance for the caller of at least `subtractedValue`."
      },
      "increaseAllowance(address,uint256)": {
        "details": "Atomically increases the allowance granted to `spender` by the caller. This is an alternative to {approve} that can be used as a mitigation for problems described in {IERC20-approve}. Emits an {Approval} event indicating the updated allowance. Requirements: - `spender` cannot be the zero address."
      },
      "name()": {
        "details": "Returns the name of the token."
      },
      "owner()": {
        "details": "Returns the address of the current owner."
      },
      "renounceOwnership()": {
        "details": "Leaves the contract without owner. It will not be possible to call `onlyOwner` functions anymore. Can only be called by the current owner. NOTE: Renouncing ownership will leave the contract without an owner, thereby removing any functionality that is only available to the owner."
      },
      "symbol()": {
        "details": "Returns the symbol of the token, usually a shorter version of the name."
      },
      "totalSupply()": {
        "details": "See {IERC20-totalSupply}."
      },
      "transfer(address,uint256)": {
        "details": "See {IERC20-transfer}. Requirements: - `to` cannot be the zero address. - the caller must have a balance of at least `amount`."
      },
      "transferFrom(address,address,uint256)": {
        "details": "See {IERC20-transferFrom}. Emits an {Approval} event indicating the updated allowance. This is not required by the EIP. See the note at the beginning of {ERC20}. NOTE: Does not update the allowance if the current allowance is the maximum `uint256`. Requirements: - `from` and `to` cannot be the zero address. - `from` must have a balance of at least `amount`. - the caller must have allowance for ``from``'s tokens of at least `amount`."
      },
      "transferOwnership(address)": {
        "details": "Transfers ownership of the contract to a new account (`newOwner`). Can only be called by the current owner."
      }
    },
    "version": 1
  },
  "userdoc": {
    "kind": "user",
    "methods": {},
    "version": 1
  }
}