{
  "_format": "hh-sol-artifact-1",
  "contractName": "BFHealthToken",
  "sourceName": "contracts/BFHealth.sol",
  "abi": [
    {
      "inputs": [],
      "stateMutability": "nonpayable",
      "type": "constructor"
    },
    {
      "anonymous": false,
      "inputs": [
        {
          "indexed": true,
          "internalType": "address",
          "name": "owner",
          "type": "address"
        },
        {
          "indexed": true,
          "internalType": "address",
          "name": "spender",
          "type": "address"
        },
        {
          "indexed": false,
          "internalType": "uint256",
          "name": "value",
          "type": "uint256"
        }
      ],
      "name": "Approval",
      "type": "event"
    },
    {
      "anonymous": false,
      "inputs": [
        {
          "indexed": true,
          "internalType": "address",
          "name": "to",
          "type": "address"
        },
        {
          "indexed": false,
          "internalType": "uint256",
          "name": "amount",
          "type": "uint256"
        },
        {
          "indexed": false,
          "internalType": "string",
          "name": "message",
          "type": "string"
        }
      ],
      "name": "MintHealthToken",
      "type": "event"
    },
    {
      "anonymous": false,
      "inputs": [
        {
          "indexed": true,
          "internalType": "address",
          "name": "previousOwner",
          "type": "address"
        },
        {
          "indexed": true,
          "internalType": "address",
          "name": "newOwner",
          "type": "address"
        }
      ],
      "name": "OwnershipTransferred",
      "type": "event"
    },
    {
      "anonymous": false,
      "inputs": [
        {
          "indexed": true,
          "internalType": "address",
          "name": "from",
          "type": "address"
        },
        {
          "indexed": true,
          "internalType": "address",
          "name": "to",
          "type": "address"
        },
        {
          "indexed": false,
          "internalType": "uint256",
          "name": "value",
          "type": "uint256"
        }
      ],
      "name": "Transfer",
      "type": "event"
    },
    {
      "inputs": [
        {
          "internalType": "address",
          "name": "owner",
          "type": "address"
        },
        {
          "internalType": "address",
          "name": "spender",
          "type": "address"
        }
      ],
      "name": "allowance",
      "outputs": [
        {
          "internalType": "uint256",
          "name": "",
          "type": "uint256"
        }
      ],
      "stateMutability": "view",
      "type": "function"
    },
    {
      "inputs": [
        {
          "internalType": "address",
          "name": "spender",
          "type": "address"
        },
        {
          "internalType": "uint256",
          "name": "amount",
          "type": "uint256"
        }
      ],
      "name": "approve",
      "outputs": [
        {
          "internalType": "bool",
          "name": "",
          "type": "bool"
        }
      ],
      "stateMutability": "nonpayable",
      "type": "function"
    },
    {
      "inputs": [
        {
          "internalType": "address",
          "name": "account",
          "type": "address"
        }
      ],
      "name": "balanceOf",
      "outputs": [
        {
          "internalType": "uint256",
          "name": "",
          "type": "uint256"
        }
      ],
      "stateMutability": "view",
      "type": "function"
    },
    {
      "inputs": [],
      "name": "decimals",
      "outputs": [
        {
          "internalType": "uint8",
          "name": "",
          "type": "uint8"
        }
      ],
      "stateMutability": "view",
      "type": "function"
    },
    {
      "inputs": [
        {
          "internalType": "address",
          "name": "spender",
          "type": "address"
        },
        {
          "internalType": "uint256",
          "name": "subtractedValue",
          "type": "uint256"
        }
      ],
      "name": "decreaseAllowance",
      "outputs": [
        {
          "internalType": "bool",
          "name": "",
          "type": "bool"
        }
      ],
      "stateMutability": "nonpayable",
      "type": "function"
    },
    {
      "inputs": [
        {
          "internalType": "address",
          "name": "spender",
          "type": "address"
        },
        {
          "internalType": "uint256",
          "name": "addedValue",
          "type": "uint256"
        }
      ],
      "name": "increaseAllowance",
      "outputs": [
        {
          "internalType": "bool",
          "name": "",
          "type": "bool"
        }
      ],
      "stateMutability": "nonpayable",
      "type": "function"
    },
    {
      "inputs": [
        {
          "internalType": "address",
          "name": "operator",
          "type": "address"
        }
      ],
      "name": "isOperator",
      "outputs": [
        {
          "internalType": "bool",
          "name": "",
          "type": "bool"
        }
      ],
      "stateMutability": "view",
      "type": "function"
    },
    {
      "inputs": [
        {
          "internalType": "address",
          "name": "to",
          "type": "address"
        },
        {
          "internalType": "uint256",
          "name": "amount",
          "type": "uint256"
        },
        {
          "internalType": "string",
          "name": "message",
          "type": "string"
        }
      ],
      "name": "mint",
      "outputs": [],
      "stateMutability": "nonpayable",
      "type": "function"
    },
    {
      "inputs": [],
      "name": "name",
      "outputs": [
        {
          "internalType": "string",
          "name": "",
          "type": "string"
        }
      ],
      "stateMutability": "view",
      "type": "function"
    },
    {
      "inputs": [],
      "name": "owner",
      "outputs": [
        {
          "internalType": "address",
          "name": "",
          "type": "address"
        }
      ],
      "stateMutability": "view",
      "type": "function"
    },
    {
      "inputs": [
        {
          "internalType": "address",
          "name": "operator",
          "type": "address"
        }
      ],
      "name": "removeOperator",
      "outputs": [],
      "stateMutability": "nonpayable",
      "type": "function"
    },
    {
      "inputs": [],
      "name": "renounceOwnership",
      "outputs": [],
      "stateMutability": "nonpayable",
      "type": "function"
    },
    {
      "inputs": [
        {
          "internalType": "address",
          "name": "operator",
          "type": "address"
        }
      ],
      "name": "setOperator",
      "outputs": [],
      "stateMutability": "nonpayable",
      "type": "function"
    },
    {
      "inputs": [],
      "name": "symbol",
      "outputs": [
        {
          "internalType": "string",
          "name": "",
          "type": "string"
        }
      ],
      "stateMutability": "view",
      "type": "function"
    },
    {
      "inputs": [],
      "name": "totalSupply",
      "outputs": [
        {
          "internalType": "uint256",
          "name": "",
          "type": "uint256"
        }
      ],
      "stateMutability": "view",
      "type": "function"
    },
    {
      "inputs": [
        {
          "internalType": "address",
          "name": "to",
          "type": "address"
        },
        {
          "internalType": "uint256",
          "name": "amount",
          "type": "uint256"
        }
      ],
      "name": "transfer",
      "outputs": [
        {
          "internalType": "bool",
          "name": "",
          "type": "bool"
        }
      ],
      "stateMutability": "nonpayable",
      "type": "function"
    },
    {
      "inputs": [
        {
          "internalType": "address",
          "name": "from",
          "type": "address"
        },
        {
          "internalType": "address",
          "name": "to",
          "type": "address"
        },
        {
          "internalType": "uint256",
          "name": "amount",
          "type": "uint256"
        }
      ],
      "name": "transferFrom",
      "outputs": [
        {
          "internalType": "bool",
          "name": "",
          "type": "bool"
        }
      ],
      "stateMutability": "nonpayable",
      "type": "function"
    },
    {
      "inputs": [
        {
          "internalType": "address",
          "name": "newOwner",
          "type": "address"
        }
      ],
      "name": "transferOwnership",
      "outputs": [],
      "stateMutability": "nonpayable",
      "type": "function"
    }
  ],
  "bytecode": "0x60806040523480156200001157600080fd5b506040518060400160405280600d81526020017f42464865616c7468546f6b656e000000000000000000000000000000000000008152506040518060400160405280600381526020017f4845450000000000000000000000000000000000000000000000000000000000815250816003908051906020019062000096929190620003f6565b508060049080519060200190620000af929190620003f6565b505050620000d2620000c6620001a560201b60201c565b620001ad60201b60201c565b6001600660003373ffffffffffffffffffffffffffffffffffffffff1673ffffffffffffffffffffffffffffffffffffffff16815260200190815260200160002060006101000a81548160ff0219169083151502179055506001600660003373ffffffffffffffffffffffffffffffffffffffff1673ffffffffffffffffffffffffffffffffffffffff16815260200190815260200160002060006101000a81548160ff0219169083151502179055506200019f336a084595161401484a0000006200027360201b60201c565b62000652565b600033905090565b6000600560009054906101000a900473ffffffffffffffffffffffffffffffffffffffff16905081600560006101000a81548173ffffffffffffffffffffffffffffffffffffffff021916908373ffffffffffffffffffffffffffffffffffffffff1602179055508173ffffffffffffffffffffffffffffffffffffffff168173ffffffffffffffffffffffffffffffffffffffff167f8be0079c531659141344cd1fd0a4f28419497f9722a3daafe3b4186f6b6457e060405160405180910390a35050565b600073ffffffffffffffffffffffffffffffffffffffff168273ffffffffffffffffffffffffffffffffffffffff161415620002e6576040517f08c379a0000000000000000000000000000000000000000000000000000000008152600401620002dd90620004de565b60405180910390fd5b620002fa60008383620003ec60201b60201c565b80600260008282546200030e91906200052e565b92505081905550806000808473ffffffffffffffffffffffffffffffffffffffff1673ffffffffffffffffffffffffffffffffffffffff16815260200190815260200160002060008282546200036591906200052e565b925050819055508173ffffffffffffffffffffffffffffffffffffffff16600073ffffffffffffffffffffffffffffffffffffffff167fddf252ad1be2c89b69c2b068fc378daa952ba7f163c4a11628f55a4df523b3ef83604051620003cc919062000500565b60405180910390a3620003e860008383620003f160201b60201c565b5050565b505050565b505050565b828054620004049062000595565b90600052602060002090601f01602090048101928262000428576000855562000474565b82601f106200044357805160ff191683800117855562000474565b8280016001018555821562000474579182015b828111156200047357825182559160200191906001019062000456565b5b50905062000483919062000487565b5090565b5b80821115620004a257600081600090555060010162000488565b5090565b6000620004b5601f836200051d565b9150620004c28262000629565b602082019050919050565b620004d8816200058b565b82525050565b60006020820190508181036000830152620004f981620004a6565b9050919050565b6000602082019050620005176000830184620004cd565b92915050565b600082825260208201905092915050565b60006200053b826200058b565b915062000548836200058b565b9250827fffffffffffffffffffffffffffffffffffffffffffffffffffffffffffffffff0382111562000580576200057f620005cb565b5b828201905092915050565b6000819050919050565b60006002820490506001821680620005ae57607f821691505b60208210811415620005c557620005c4620005fa565b5b50919050565b7f4e487b7100000000000000000000000000000000000000000000000000000000600052601160045260246000fd5b7f4e487b7100000000000000000000000000000000000000000000000000000000600052602260045260246000fd5b7f45524332303a206d696e7420746f20746865207a65726f206164647265737300600082015250565b611cb980620006626000396000f3fe608060405234801561001057600080fd5b50600436106101165760003560e01c80638da5cb5b116100a2578063ac8a584a11610071578063ac8a584a1461030b578063b3ab15fb14610327578063d3fc986414610343578063dd62ed3e1461035f578063f2fde38b1461038f57610116565b80638da5cb5b1461026f57806395d89b411461028d578063a457c2d7146102ab578063a9059cbb146102db57610116565b8063313ce567116100e9578063313ce567146101b757806339509351146101d55780636d70f7ae1461020557806370a0823114610235578063715018a61461026557610116565b806306fdde031461011b578063095ea7b31461013957806318160ddd1461016957806323b872dd14610187575b600080fd5b6101236103ab565b6040516101309190611540565b60405180910390f35b610153600480360381019061014e9190611271565b61043d565b6040516101609190611525565b60405180910390f35b610171610460565b60405161017e91906116c2565b60405180910390f35b6101a1600480360381019061019c9190611222565b61046a565b6040516101ae9190611525565b60405180910390f35b6101bf610499565b6040516101cc919061170d565b60405180910390f35b6101ef60048036038101906101ea9190611271565b6104a2565b6040516101fc9190611525565b60405180910390f35b61021f600480360381019061021a91906111bd565b6104d9565b60405161022c9190611525565b60405180910390f35b61024f600480360381019061024a91906111bd565b61052f565b60405161025c91906116c2565b60405180910390f35b61026d610577565b005b61027761058b565b604051610284919061150a565b60405180910390f35b6102956105b5565b6040516102a29190611540565b60405180910390f35b6102c560048036038101906102c09190611271565b610647565b6040516102d29190611525565b60405180910390f35b6102f560048036038101906102f09190611271565b6106be565b6040516103029190611525565b60405180910390f35b610325600480360381019061032091906111bd565b6106e1565b005b610341600480360381019061033c91906111bd565b610744565b005b61035d600480360381019061035891906112ad565b6107a7565b005b610379600480360381019061037491906111e6565b610892565b60405161038691906116c2565b60405180910390f35b6103a960048036038101906103a491906111bd565b610919565b005b6060600380546103ba90611887565b80601f01602080910402602001604051908101604052809291908181526020018280546103e690611887565b80156104335780601f1061040857610100808354040283529160200191610433565b820191906000526020600020905b81548152906001019060200180831161041657829003601f168201915b5050505050905090565b60008061044861099d565b90506104558185856109a5565b600191505092915050565b6000600254905090565b60008061047561099d565b9050610482858285610b70565b61048d858585610bfc565b60019150509392505050565b60006012905090565b6000806104ad61099d565b90506104ce8185856104bf8589610892565b6104c9919061179a565b6109a5565b600191505092915050565b6000600660008373ffffffffffffffffffffffffffffffffffffffff1673ffffffffffffffffffffffffffffffffffffffff16815260200190815260200160002060009054906101000a900460ff169050919050565b60008060008373ffffffffffffffffffffffffffffffffffffffff1673ffffffffffffffffffffffffffffffffffffffff168152602001908152602001600020549050919050565b61057f610e7d565b6105896000610efb565b565b6000600560009054906101000a900473ffffffffffffffffffffffffffffffffffffffff16905090565b6060600480546105c490611887565b80601f01602080910402602001604051908101604052809291908181526020018280546105f090611887565b801561063d5780601f106106125761010080835404028352916020019161063d565b820191906000526020600020905b81548152906001019060200180831161062057829003601f168201915b5050505050905090565b60008061065261099d565b905060006106608286610892565b9050838110156106a5576040517f08c379a000000000000000000000000000000000000000000000000000000000815260040161069c90611682565b60405180910390fd5b6106b282868684036109a5565b60019250505092915050565b6000806106c961099d565b90506106d6818585610bfc565b600191505092915050565b6106e9610e7d565b6000600660008373ffffffffffffffffffffffffffffffffffffffff1673ffffffffffffffffffffffffffffffffffffffff16815260200190815260200160002060006101000a81548160ff02191690831515021790555050565b61074c610e7d565b6001600660008373ffffffffffffffffffffffffffffffffffffffff1673ffffffffffffffffffffffffffffffffffffffff16815260200190815260200160002060006101000a81548160ff02191690831515021790555050565b600660003373ffffffffffffffffffffffffffffffffffffffff1673ffffffffffffffffffffffffffffffffffffffff16815260200190815260200160002060009054906101000a900460ff16610833576040517f08c379a000000000000000000000000000000000000000000000000000000000815260040161082a90611602565b60405180910390fd5b61083d8383610fc1565b8273ffffffffffffffffffffffffffffffffffffffff167fe54bf3fdbfa5348ddfc85067bad0f697a8a5ef332cb5c29ea656b26a97900dd883836040516108859291906116dd565b60405180910390a2505050565b6000600160008473ffffffffffffffffffffffffffffffffffffffff1673ffffffffffffffffffffffffffffffffffffffff16815260200190815260200160002060008373ffffffffffffffffffffffffffffffffffffffff1673ffffffffffffffffffffffffffffffffffffffff16815260200190815260200160002054905092915050565b610921610e7d565b600073ffffffffffffffffffffffffffffffffffffffff168173ffffffffffffffffffffffffffffffffffffffff161415610991576040517f08c379a000000000000000000000000000000000000000000000000000000000815260040161098890611582565b60405180910390fd5b61099a81610efb565b50565b600033905090565b600073ffffffffffffffffffffffffffffffffffffffff168373ffffffffffffffffffffffffffffffffffffffff161415610a15576040517f08c379a0000000000000000000000000000000000000000000000000000000008152600401610a0c90611662565b60405180910390fd5b600073ffffffffffffffffffffffffffffffffffffffff168273ffffffffffffffffffffffffffffffffffffffff161415610a85576040517f08c379a0000000000000000000000000000000000000000000000000000000008152600401610a7c906115a2565b60405180910390fd5b80600160008573ffffffffffffffffffffffffffffffffffffffff1673ffffffffffffffffffffffffffffffffffffffff16815260200190815260200160002060008473ffffffffffffffffffffffffffffffffffffffff1673ffffffffffffffffffffffffffffffffffffffff168152602001908152602001600020819055508173ffffffffffffffffffffffffffffffffffffffff168373ffffffffffffffffffffffffffffffffffffffff167f8c5be1e5ebec7d5bd14f71427d1e84f3dd0314c0f7b2291e5b200ac8c7c3b92583604051610b6391906116c2565b60405180910390a3505050565b6000610b7c8484610892565b90507fffffffffffffffffffffffffffffffffffffffffffffffffffffffffffffffff8114610bf65781811015610be8576040517f08c379a0000000000000000000000000000000000000000000000000000000008152600401610bdf906115c2565b60405180910390fd5b610bf584848484036109a5565b5b50505050565b600073ffffffffffffffffffffffffffffffffffffffff168373ffffffffffffffffffffffffffffffffffffffff161415610c6c576040517f08c379a0000000000000000000000000000000000000000000000000000000008152600401610c6390611642565b60405180910390fd5b600073ffffffffffffffffffffffffffffffffffffffff168273ffffffffffffffffffffffffffffffffffffffff161415610cdc576040517f08c379a0000000000000000000000000000000000000000000000000000000008152600401610cd390611562565b60405180910390fd5b610ce7838383611121565b60008060008573ffffffffffffffffffffffffffffffffffffffff1673ffffffffffffffffffffffffffffffffffffffff16815260200190815260200160002054905081811015610d6d576040517f08c379a0000000000000000000000000000000000000000000000000000000008152600401610d64906115e2565b60405180910390fd5b8181036000808673ffffffffffffffffffffffffffffffffffffffff1673ffffffffffffffffffffffffffffffffffffffff16815260200190815260200160002081905550816000808573ffffffffffffffffffffffffffffffffffffffff1673ffffffffffffffffffffffffffffffffffffffff1681526020019081526020016000206000828254610e00919061179a565b925050819055508273ffffffffffffffffffffffffffffffffffffffff168473ffffffffffffffffffffffffffffffffffffffff167fddf252ad1be2c89b69c2b068fc378daa952ba7f163c4a11628f55a4df523b3ef84604051610e6491906116c2565b60405180910390a3610e77848484611126565b50505050565b610e8561099d565b73ffffffffffffffffffffffffffffffffffffffff16610ea361058b565b73ffffffffffffffffffffffffffffffffffffffff1614610ef9576040517f08c379a0000000000000000000000000000000000000000000000000000000008152600401610ef090611622565b60405180910390fd5b565b6000600560009054906101000a900473ffffffffffffffffffffffffffffffffffffffff16905081600560006101000a81548173ffffffffffffffffffffffffffffffffffffffff021916908373ffffffffffffffffffffffffffffffffffffffff1602179055508173ffffffffffffffffffffffffffffffffffffffff168173ffffffffffffffffffffffffffffffffffffffff167f8be0079c531659141344cd1fd0a4f28419497f9722a3daafe3b4186f6b6457e060405160405180910390a35050565b600073ffffffffffffffffffffffffffffffffffffffff168273ffffffffffffffffffffffffffffffffffffffff161415611031576040517f08c379a0000000000000000000000000000000000000000000000000000000008152600401611028906116a2565b60405180910390fd5b61103d60008383611121565b806002600082825461104f919061179a565b92505081905550806000808473ffffffffffffffffffffffffffffffffffffffff1673ffffffffffffffffffffffffffffffffffffffff16815260200190815260200160002060008282546110a4919061179a565b925050819055508173ffffffffffffffffffffffffffffffffffffffff16600073ffffffffffffffffffffffffffffffffffffffff167fddf252ad1be2c89b69c2b068fc378daa952ba7f163c4a11628f55a4df523b3ef8360405161110991906116c2565b60405180910390a361111d60008383611126565b5050565b505050565b505050565b600061113e6111398461174d565b611728565b90508281526020810184848401111561115657600080fd5b611161848285611845565b509392505050565b60008135905061117881611c55565b92915050565b600082601f83011261118f57600080fd5b813561119f84826020860161112b565b91505092915050565b6000813590506111b781611c6c565b92915050565b6000602082840312156111cf57600080fd5b60006111dd84828501611169565b91505092915050565b600080604083850312156111f957600080fd5b600061120785828601611169565b925050602061121885828601611169565b9150509250929050565b60008060006060848603121561123757600080fd5b600061124586828701611169565b935050602061125686828701611169565b9250506040611267868287016111a8565b9150509250925092565b6000806040838503121561128457600080fd5b600061129285828601611169565b92505060206112a3858286016111a8565b9150509250929050565b6000806000606084860312156112c257600080fd5b60006112d086828701611169565b93505060206112e1868287016111a8565b925050604084013567ffffffffffffffff8111156112fe57600080fd5b61130a8682870161117e565b9150509250925092565b61131d816117f0565b82525050565b61132c81611802565b82525050565b600061133d8261177e565b6113478185611789565b9350611357818560208601611854565b61136081611977565b840191505092915050565b6000611378602383611789565b915061138382611988565b604082019050919050565b600061139b602683611789565b91506113a6826119d7565b604082019050919050565b60006113be602283611789565b91506113c982611a26565b604082019050919050565b60006113e1601d83611789565b91506113ec82611a75565b602082019050919050565b6000611404602683611789565b915061140f82611a9e565b604082019050919050565b6000611427601b83611789565b915061143282611aed565b602082019050919050565b600061144a602083611789565b915061145582611b16565b602082019050919050565b600061146d602583611789565b915061147882611b3f565b604082019050919050565b6000611490602483611789565b915061149b82611b8e565b604082019050919050565b60006114b3602583611789565b91506114be82611bdd565b604082019050919050565b60006114d6601f83611789565b91506114e182611c2c565b602082019050919050565b6114f58161182e565b82525050565b61150481611838565b82525050565b600060208201905061151f6000830184611314565b92915050565b600060208201905061153a6000830184611323565b92915050565b6000602082019050818103600083015261155a8184611332565b905092915050565b6000602082019050818103600083015261157b8161136b565b9050919050565b6000602082019050818103600083015261159b8161138e565b9050919050565b600060208201905081810360008301526115bb816113b1565b9050919050565b600060208201905081810360008301526115db816113d4565b9050919050565b600060208201905081810360008301526115fb816113f7565b9050919050565b6000602082019050818103600083015261161b8161141a565b9050919050565b6000602082019050818103600083015261163b8161143d565b9050919050565b6000602082019050818103600083015261165b81611460565b9050919050565b6000602082019050818103600083015261167b81611483565b9050919050565b6000602082019050818103600083015261169b816114a6565b9050919050565b600060208201905081810360008301526116bb816114c9565b9050919050565b60006020820190506116d760008301846114ec565b92915050565b60006040820190506116f260008301856114ec565b81810360208301526117048184611332565b90509392505050565b600060208201905061172260008301846114fb565b92915050565b6000611732611743565b905061173e82826118b9565b919050565b6000604051905090565b600067ffffffffffffffff82111561176857611767611948565b5b61177182611977565b9050602081019050919050565b600081519050919050565b600082825260208201905092915050565b60006117a58261182e565b91506117b08361182e565b9250827fffffffffffffffffffffffffffffffffffffffffffffffffffffffffffffffff038211156117e5576117e46118ea565b5b828201905092915050565b60006117fb8261180e565b9050919050565b60008115159050919050565b600073ffffffffffffffffffffffffffffffffffffffff82169050919050565b6000819050919050565b600060ff82169050919050565b82818337600083830152505050565b60005b83811015611872578082015181840152602081019050611857565b83811115611881576000848401525b50505050565b6000600282049050600182168061189f57607f821691505b602082108114156118b3576118b2611919565b5b50919050565b6118c282611977565b810181811067ffffffffffffffff821117156118e1576118e0611948565b5b80604052505050565b7f4e487b7100000000000000000000000000000000000000000000000000000000600052601160045260246000fd5b7f4e487b7100000000000000000000000000000000000000000000000000000000600052602260045260246000fd5b7f4e487b7100000000000000000000000000000000000000000000000000000000600052604160045260246000fd5b6000601f19601f8301169050919050565b7f45524332303a207472616e7366657220746f20746865207a65726f206164647260008201527f6573730000000000000000000000000000000000000000000000000000000000602082015250565b7f4f776e61626c653a206e6577206f776e657220697320746865207a65726f206160008201527f6464726573730000000000000000000000000000000000000000000000000000602082015250565b7f45524332303a20617070726f766520746f20746865207a65726f20616464726560008201527f7373000000000000000000000000000000000000000000000000000000000000602082015250565b7f45524332303a20696e73756666696369656e7420616c6c6f77616e6365000000600082015250565b7f45524332303a207472616e7366657220616d6f756e742065786365656473206260008201527f616c616e63650000000000000000000000000000000000000000000000000000602082015250565b7f63616c6c6572206973206e6f7420746865206f70657261746f72730000000000600082015250565b7f4f776e61626c653a2063616c6c6572206973206e6f7420746865206f776e6572600082015250565b7f45524332303a207472616e736665722066726f6d20746865207a65726f20616460008201527f6472657373000000000000000000000000000000000000000000000000000000602082015250565b7f45524332303a20617070726f76652066726f6d20746865207a65726f2061646460008201527f7265737300000000000000000000000000000000000000000000000000000000602082015250565b7f45524332303a2064656372656173656420616c6c6f77616e63652062656c6f7760008201527f207a65726f000000000000000000000000000000000000000000000000000000602082015250565b7f45524332303a206d696e7420746f20746865207a65726f206164647265737300600082015250565b611c5e816117f0565b8114611c6957600080fd5b50565b611c758161182e565b8114611c8057600080fd5b5056fea2646970667358221220d64fde42bf0750224f2c6ecd5d85af1597fafa5c94d02dc53025f00448dfeaa964736f6c63430008040033",
  "linkReferences": {},
  "deployedLinkReferences": {}
}