{
  "contractName": "BFItem",
  "abi": [
    {
      "inputs": [],
      "stateMutability": "nonpayable",
      "type": "constructor"
    },
    {
      "anonymous": false,
      "inputs": [
        {
          "indexed": true,
          "internalType": "address",
          "name": "owner",
          "type": "address"
        },
        {
          "indexed": true,
          "internalType": "address",
          "name": "approved",
          "type": "address"
        },
        {
          "indexed": true,
          "internalType": "uint256",
          "name": "tokenId",
          "type": "uint256"
        }
      ],
      "name": "Approval",
      "type": "event"
    },
    {
      "anonymous": false,
      "inputs": [
        {
          "indexed": true,
          "internalType": "address",
          "name": "owner",
          "type": "address"
        },
        {
          "indexed": true,
          "internalType": "address",
          "name": "operator",
          "type": "address"
        },
        {
          "indexed": false,
          "internalType": "bool",
          "name": "approved",
          "type": "bool"
        }
      ],
      "name": "ApprovalForAll",
      "type": "event"
    },
    {
      "anonymous": false,
      "inputs": [
        {
          "indexed": true,
          "internalType": "address",
          "name": "from",
          "type": "address"
        },
        {
          "indexed": false,
          "internalType": "uint256",
          "name": "tokenId",
          "type": "uint256"
        }
      ],
      "name": "ItemBurned",
      "type": "event"
    },
    {
      "anonymous": false,
      "inputs": [
        {
          "indexed": true,
          "internalType": "address",
          "name": "to",
          "type": "address"
        },
        {
          "indexed": false,
          "internalType": "uint256",
          "name": "tokenId",
          "type": "uint256"
        }
      ],
      "name": "ItemClaimed",
      "type": "event"
    },
    {
      "anonymous": false,
      "inputs": [
        {
          "indexed": true,
          "internalType": "address",
          "name": "to",
          "type": "address"
        },
        {
          "indexed": false,
          "internalType": "uint256",
          "name": "tokenId",
          "type": "uint256"
        }
      ],
      "name": "ItemMinted",
      "type": "event"
    },
    {
      "anonymous": false,
      "inputs": [
        {
          "indexed": true,
          "internalType": "address",
          "name": "from",
          "type": "address"
        },
        {
          "indexed": true,
          "internalType": "address",
          "name": "to",
          "type": "address"
        },
        {
          "indexed": false,
          "internalType": "uint256",
          "name": "tokenId",
          "type": "uint256"
        }
      ],
      "name": "ItemTransferred",
      "type": "event"
    },
    {
      "anonymous": false,
      "inputs": [
        {
          "indexed": true,
          "internalType": "address",
          "name": "previousOwner",
          "type": "address"
        },
        {
          "indexed": true,
          "internalType": "address",
          "name": "newOwner",
          "type": "address"
        }
      ],
      "name": "OwnershipTransferred",
      "type": "event"
    },
    {
      "anonymous": false,
      "inputs": [
        {
          "indexed": true,
          "internalType": "address",
          "name": "from",
          "type": "address"
        },
        {
          "indexed": true,
          "internalType": "address",
          "name": "to",
          "type": "address"
        },
        {
          "indexed": true,
          "internalType": "uint256",
          "name": "tokenId",
          "type": "uint256"
        }
      ],
      "name": "Transfer",
      "type": "event"
    },
    {
      "anonymous": false,
      "inputs": [
        {
          "indexed": true,
          "internalType": "address",
          "name": "to",
          "type": "address"
        },
        {
          "indexed": false,
          "internalType": "uint256",
          "name": "tokenId",
          "type": "uint256"
        },
        {
          "indexed": false,
          "internalType": "string",
          "name": "uuid",
          "type": "string"
        }
      ],
      "name": "WithdrawItemFromSpending",
      "type": "event"
    },
    {
      "inputs": [
        {
          "internalType": "address",
          "name": "to",
          "type": "address"
        },
        {
          "internalType": "uint256",
          "name": "tokenId",
          "type": "uint256"
        }
      ],
      "name": "approve",
      "outputs": [],
      "stateMutability": "nonpayable",
      "type": "function"
    },
    {
      "inputs": [
        {
          "internalType": "address",
          "name": "owner",
          "type": "address"
        }
      ],
      "name": "balanceOf",
      "outputs": [
        {
          "internalType": "uint256",
          "name": "",
          "type": "uint256"
        }
      ],
      "stateMutability": "view",
      "type": "function",
      "constant": true
    },
    {
      "inputs": [
        {
          "internalType": "uint256",
          "name": "tokenId",
          "type": "uint256"
        }
      ],
      "name": "getApproved",
      "outputs": [
        {
          "internalType": "address",
          "name": "",
          "type": "address"
        }
      ],
      "stateMutability": "view",
      "type": "function",
      "constant": true
    },
    {
      "inputs": [
        {
          "internalType": "address",
          "name": "owner",
          "type": "address"
        },
        {
          "internalType": "address",
          "name": "operator",
          "type": "address"
        }
      ],
      "name": "isApprovedForAll",
      "outputs": [
        {
          "internalType": "bool",
          "name": "",
          "type": "bool"
        }
      ],
      "stateMutability": "view",
      "type": "function",
      "constant": true
    },
    {
      "inputs": [],
      "name": "name",
      "outputs": [
        {
          "internalType": "string",
          "name": "",
          "type": "string"
        }
      ],
      "stateMutability": "view",
      "type": "function",
      "constant": true
    },
    {
      "inputs": [],
      "name": "owner",
      "outputs": [
        {
          "internalType": "address",
          "name": "",
          "type": "address"
        }
      ],
      "stateMutability": "view",
      "type": "function",
      "constant": true
    },
    {
      "inputs": [
        {
          "internalType": "uint256",
          "name": "tokenId",
          "type": "uint256"
        }
      ],
      "name": "ownerOf",
      "outputs": [
        {
          "internalType": "address",
          "name": "",
          "type": "address"
        }
      ],
      "stateMutability": "view",
      "type": "function",
      "constant": true
    },
    {
      "inputs": [],
      "name": "renounceOwnership",
      "outputs": [],
      "stateMutability": "nonpayable",
      "type": "function"
    },
    {
      "inputs": [
        {
          "internalType": "address",
          "name": "from",
          "type": "address"
        },
        {
          "internalType": "address",
          "name": "to",
          "type": "address"
        },
        {
          "internalType": "uint256",
          "name": "tokenId",
          "type": "uint256"
        }
      ],
      "name": "safeTransferFrom",
      "outputs": [],
      "stateMutability": "nonpayable",
      "type": "function"
    },
    {
      "inputs": [
        {
          "internalType": "address",
          "name": "from",
          "type": "address"
        },
        {
          "internalType": "address",
          "name": "to",
          "type": "address"
        },
        {
          "internalType": "uint256",
          "name": "tokenId",
          "type": "uint256"
        },
        {
          "internalType": "bytes",
          "name": "_data",
          "type": "bytes"
        }
      ],
      "name": "safeTransferFrom",
      "outputs": [],
      "stateMutability": "nonpayable",
      "type": "function"
    },
    {
      "inputs": [
        {
          "internalType": "address",
          "name": "operator",
          "type": "address"
        },
        {
          "internalType": "bool",
          "name": "approved",
          "type": "bool"
        }
      ],
      "name": "setApprovalForAll",
      "outputs": [],
      "stateMutability": "nonpayable",
      "type": "function"
    },
    {
      "inputs": [
        {
          "internalType": "bytes4",
          "name": "interfaceId",
          "type": "bytes4"
        }
      ],
      "name": "supportsInterface",
      "outputs": [
        {
          "internalType": "bool",
          "name": "",
          "type": "bool"
        }
      ],
      "stateMutability": "view",
      "type": "function",
      "constant": true
    },
    {
      "inputs": [],
      "name": "symbol",
      "outputs": [
        {
          "internalType": "string",
          "name": "",
          "type": "string"
        }
      ],
      "stateMutability": "view",
      "type": "function",
      "constant": true
    },
    {
      "inputs": [
        {
          "internalType": "uint256",
          "name": "tokenId",
          "type": "uint256"
        }
      ],
      "name": "tokenURI",
      "outputs": [
        {
          "internalType": "string",
          "name": "",
          "type": "string"
        }
      ],
      "stateMutability": "view",
      "type": "function",
      "constant": true
    },
    {
      "inputs": [
        {
          "internalType": "address",
          "name": "from",
          "type": "address"
        },
        {
          "internalType": "address",
          "name": "to",
          "type": "address"
        },
        {
          "internalType": "uint256",
          "name": "tokenId",
          "type": "uint256"
        }
      ],
      "name": "transferFrom",
      "outputs": [],
      "stateMutability": "nonpayable",
      "type": "function"
    },
    {
      "inputs": [
        {
          "internalType": "address",
          "name": "newOwner",
          "type": "address"
        }
      ],
      "name": "transferOwnership",
      "outputs": [],
      "stateMutability": "nonpayable",
      "type": "function"
    },
    {
      "inputs": [
        {
          "internalType": "address",
          "name": "operator",
          "type": "address"
        },
        {
          "internalType": "bool",
          "name": "approved",
          "type": "bool"
        }
      ],
      "name": "setOperator",
      "outputs": [],
      "stateMutability": "nonpayable",
      "type": "function"
    },
    {
      "inputs": [
        {
          "internalType": "address",
          "name": "operator",
          "type": "address"
        }
      ],
      "name": "isOperator",
      "outputs": [
        {
          "internalType": "bool",
          "name": "",
          "type": "bool"
        }
      ],
      "stateMutability": "view",
      "type": "function",
      "constant": true
    },
    {
      "inputs": [
        {
          "internalType": "string",
          "name": "baseURI",
          "type": "string"
        }
      ],
      "name": "setBaseTokenURI",
      "outputs": [],
      "stateMutability": "nonpayable",
      "type": "function"
    },
    {
      "inputs": [
        {
          "internalType": "uint256",
          "name": "maxItemNum",
          "type": "uint256"
        }
      ],
      "name": "setMaxClaimItem",
      "outputs": [],
      "stateMutability": "nonpayable",
      "type": "function"
    },
    {
      "inputs": [],
      "name": "getMaxClaimItem",
      "outputs": [
        {
          "internalType": "uint256",
          "name": "",
          "type": "uint256"
        }
      ],
      "stateMutability": "view",
      "type": "function",
      "constant": true
    },
    {
      "inputs": [
        {
          "internalType": "address",
          "name": "to",
          "type": "address"
        }
      ],
      "name": "mint",
      "outputs": [],
      "stateMutability": "nonpayable",
      "type": "function"
    },
    {
      "inputs": [
        {
          "internalType": "uint256",
          "name": "tokenId",
          "type": "uint256"
        }
      ],
      "name": "burn",
      "outputs": [],
      "stateMutability": "nonpayable",
      "type": "function"
    },
    {
      "inputs": [],
      "name": "claim",
      "outputs": [],
      "stateMutability": "nonpayable",
      "type": "function"
    },
    {
      "inputs": [
        {
          "internalType": "address",
          "name": "to",
          "type": "address"
        },
        {
          "internalType": "uint256",
          "name": "tokenId",
          "type": "uint256"
        }
      ],
      "name": "transfer",
      "outputs": [],
      "stateMutability": "nonpayable",
      "type": "function"
    },
    {
      "inputs": [
        {
          "internalType": "address",
          "name": "to",
          "type": "address"
        },
        {
          "internalType": "uint256",
          "name": "tokenId",
          "type": "uint256"
        },
        {
          "internalType": "string",
          "name": "uuid",
          "type": "string"
        }
      ],
      "name": "withdrawFromSpending",
      "outputs": [],
      "stateMutability": "nonpayable",
      "type": "function"
    },
    {
      "inputs": [
        {
          "internalType": "address",
          "name": "owner",
          "type": "address"
        }
      ],
      "name": "getOwnedItems",
      "outputs": [
        {
          "internalType": "bytes32[]",
          "name": "",
          "type": "bytes32[]"
        }
      ],
      "stateMutability": "view",
      "type": "function",
      "constant": true
    }
  ],
  "bytecode": "0x60806040523480156200001157600080fd5b506040518060400160405280600d81526020017f426546697474657253686f6573000000000000000000000000000000000000008152506040518060400160405280600481526020017f4246545300000000000000000000000000000000000000000000000000000000815250816000908051906020019062000096929190620001a6565b508060019080519060200190620000af929190620001a6565b505050620000d2620000c6620000d860201b60201c565b620000e060201b60201c565b620002bb565b600033905090565b6000600660009054906101000a900473ffffffffffffffffffffffffffffffffffffffff16905081600660006101000a81548173ffffffffffffffffffffffffffffffffffffffff021916908373ffffffffffffffffffffffffffffffffffffffff1602179055508173ffffffffffffffffffffffffffffffffffffffff168173ffffffffffffffffffffffffffffffffffffffff167f8be0079c531659141344cd1fd0a4f28419497f9722a3daafe3b4186f6b6457e060405160405180910390a35050565b828054620001b49062000285565b90600052602060002090601f016020900481019282620001d8576000855562000224565b82601f10620001f357805160ff191683800117855562000224565b8280016001018555821562000224579182015b828111156200022357825182559160200191906001019062000206565b5b50905062000233919062000237565b5090565b5b808211156200025257600081600090555060010162000238565b5090565b7f4e487b7100000000000000000000000000000000000000000000000000000000600052602260045260246000fd5b600060028204905060018216806200029e57607f821691505b60208210811415620002b557620002b462000256565b5b50919050565b61403380620002cb6000396000f3fe608060405234801561001057600080fd5b50600436106101a95760003560e01c80636a627842116100f9578063a9059cbb11610097578063e417dc3511610071578063e417dc351461048e578063e985e9c5146104be578063f2fde38b146104ee578063f7f38efc1461050a576101a9565b8063a9059cbb14610426578063b88d4fde14610442578063c87b56dd1461045e576101a9565b8063715018a6116100d3578063715018a6146103c45780638da5cb5b146103ce57806395d89b41146103ec578063a22cb4651461040a576101a9565b80636a627842146103485780636d70f7ae1461036457806370a0823114610394576101a9565b806330176e131161016657806342966c681161014057806342966c68146102d65780634e71d92d146102f2578063558a7297146102fc5780636352211e14610318576101a9565b806330176e131461028057806342832a911461029c57806342842e0e146102ba576101a9565b806301ffc9a7146101ae57806306fdde03146101de578063081812fc146101fc578063095ea7b31461022c57806323b872dd146102485780632ab33c4814610264575b600080fd5b6101c860048036038101906101c39190612ad2565b610526565b6040516101d59190612b1a565b60405180910390f35b6101e6610608565b6040516101f39190612bce565b60405180910390f35b61021660048036038101906102119190612c26565b61069a565b6040516102239190612c94565b60405180910390f35b61024660048036038101906102419190612cdb565b61071f565b005b610262600480360381019061025d9190612d1b565b610837565b005b61027e60048036038101906102799190612ea3565b610897565b005b61029a60048036038101906102959190612f12565b610aa7565b005b6102a4610b3d565b6040516102b19190612f6a565b60405180910390f35b6102d460048036038101906102cf9190612d1b565b610b47565b005b6102f060048036038101906102eb9190612c26565b610b67565b005b6102fa610ce5565b005b61031660048036038101906103119190612fb1565b610e84565b005b610332600480360381019061032d9190612c26565b610f5b565b60405161033f9190612c94565b60405180910390f35b610362600480360381019061035d9190612ff1565b61100d565b005b61037e60048036038101906103799190612ff1565b61115f565b60405161038b9190612b1a565b60405180910390f35b6103ae60048036038101906103a99190612ff1565b6111b5565b6040516103bb9190612f6a565b60405180910390f35b6103cc61126d565b005b6103d66112f5565b6040516103e39190612c94565b60405180910390f35b6103f461131f565b6040516104019190612bce565b60405180910390f35b610424600480360381019061041f9190612fb1565b6113b1565b005b610440600480360381019061043b9190612cdb565b6113c7565b005b61045c600480360381019061045791906130bf565b61156f565b005b61047860048036038101906104739190612c26565b6115d1565b6040516104859190612bce565b60405180910390f35b6104a860048036038101906104a39190612ff1565b611678565b6040516104b5919061320a565b60405180910390f35b6104d860048036038101906104d3919061322c565b611715565b6040516104e59190612b1a565b60405180910390f35b61050860048036038101906105039190612ff1565b6117a9565b005b610524600480360381019061051f9190612c26565b6118a1565b005b60007f80ac58cd000000000000000000000000000000000000000000000000000000007bffffffffffffffffffffffffffffffffffffffffffffffffffffffff1916827bffffffffffffffffffffffffffffffffffffffffffffffffffffffff191614806105f157507f5b5e139f000000000000000000000000000000000000000000000000000000007bffffffffffffffffffffffffffffffffffffffffffffffffffffffff1916827bffffffffffffffffffffffffffffffffffffffffffffffffffffffff1916145b80610601575061060082611927565b5b9050919050565b6060600080546106179061329b565b80601f01602080910402602001604051908101604052809291908181526020018280546106439061329b565b80156106905780601f1061066557610100808354040283529160200191610690565b820191906000526020600020905b81548152906001019060200180831161067357829003601f168201915b5050505050905090565b60006106a582611991565b6106e4576040517f08c379a00000000000000000000000000000000000000000000000000000000081526004016106db9061333f565b60405180910390fd5b6004600083815260200190815260200160002060009054906101000a900473ffffffffffffffffffffffffffffffffffffffff169050919050565b600061072a82610f5b565b90508073ffffffffffffffffffffffffffffffffffffffff168373ffffffffffffffffffffffffffffffffffffffff16141561079b576040517f08c379a0000000000000000000000000000000000000000000000000000000008152600401610792906133d1565b60405180910390fd5b8073ffffffffffffffffffffffffffffffffffffffff166107ba6119fd565b73ffffffffffffffffffffffffffffffffffffffff1614806107e957506107e8816107e36119fd565b611715565b5b610828576040517f08c379a000000000000000000000000000000000000000000000000000000000815260040161081f90613463565b60405180910390fd5b6108328383611a05565b505050565b6108486108426119fd565b82611abe565b610887576040517f08c379a000000000000000000000000000000000000000000000000000000000815260040161087e906134f5565b60405180910390fd5b610892838383611b9c565b505050565b61089f6119fd565b73ffffffffffffffffffffffffffffffffffffffff166108bd6112f5565b73ffffffffffffffffffffffffffffffffffffffff1614610913576040517f08c379a000000000000000000000000000000000000000000000000000000000815260040161090a90613561565b60405180910390fd5b61096482600860003373ffffffffffffffffffffffffffffffffffffffff1673ffffffffffffffffffffffffffffffffffffffff168152602001908152602001600020611e0390919063ffffffff16565b6109a3576040517f08c379a000000000000000000000000000000000000000000000000000000000815260040161099a906135f3565b60405180910390fd5b6109ae338484610837565b6109ff82600860003373ffffffffffffffffffffffffffffffffffffffff1673ffffffffffffffffffffffffffffffffffffffff168152602001908152602001600020611e1d90919063ffffffff16565b50610a5182600860008673ffffffffffffffffffffffffffffffffffffffff1673ffffffffffffffffffffffffffffffffffffffff168152602001908152602001600020611e3790919063ffffffff16565b508273ffffffffffffffffffffffffffffffffffffffff167f9623b2ae084fd4cb42523fbdd1b54e54c980d320a14bf94a0af792381a0f68988383604051610a9a929190613613565b60405180910390a2505050565b610aaf6119fd565b73ffffffffffffffffffffffffffffffffffffffff16610acd6112f5565b73ffffffffffffffffffffffffffffffffffffffff1614610b23576040517f08c379a0000000000000000000000000000000000000000000000000000000008152600401610b1a90613561565b60405180910390fd5b80600c9080519060200190610b399291906129c3565b5050565b6000600a54905090565b610b628383836040518060200160405280600081525061156f565b505050565b610b6f6119fd565b73ffffffffffffffffffffffffffffffffffffffff16610b8d6112f5565b73ffffffffffffffffffffffffffffffffffffffff1614610be3576040517f08c379a0000000000000000000000000000000000000000000000000000000008152600401610bda90613561565b60405180910390fd5b610bec81611991565b610c2b576040517f08c379a0000000000000000000000000000000000000000000000000000000008152600401610c229061368f565b60405180910390fd5b6000610c3682610f5b565b9050610c4182611e51565b610c9282600860008473ffffffffffffffffffffffffffffffffffffffff1673ffffffffffffffffffffffffffffffffffffffff168152602001908152602001600020611e1d90919063ffffffff16565b508073ffffffffffffffffffffffffffffffffffffffff167fb620f2f293b715db2b38d4575792cf6607a8258ddc95bf71638a519de46f8b6b83604051610cd99190612f6a565b60405180910390a25050565b600a54600b60003373ffffffffffffffffffffffffffffffffffffffff1673ffffffffffffffffffffffffffffffffffffffff1681526020019081526020016000205410610d68576040517f08c379a0000000000000000000000000000000000000000000000000000000008152600401610d5f906136fb565b60405180910390fd5b6001600b60003373ffffffffffffffffffffffffffffffffffffffff1673ffffffffffffffffffffffffffffffffffffffff1681526020019081526020016000206000828254610db8919061374a565b925050819055506000610dcb6007611f6e565b9050610dd73382611f7c565b610e2881600860003373ffffffffffffffffffffffffffffffffffffffff1673ffffffffffffffffffffffffffffffffffffffff168152602001908152602001600020611e3790919063ffffffff16565b50610e336007611f9a565b3373ffffffffffffffffffffffffffffffffffffffff167f6d19ff886809a18034b4a6eaa1a47897927295fbcb65b1951c8334d80e18413282604051610e799190612f6a565b60405180910390a250565b610e8c6119fd565b73ffffffffffffffffffffffffffffffffffffffff16610eaa6112f5565b73ffffffffffffffffffffffffffffffffffffffff1614610f00576040517f08c379a0000000000000000000000000000000000000000000000000000000008152600401610ef790613561565b60405180910390fd5b80600960008473ffffffffffffffffffffffffffffffffffffffff1673ffffffffffffffffffffffffffffffffffffffff16815260200190815260200160002060006101000a81548160ff0219169083151502179055505050565b6000806002600084815260200190815260200160002060009054906101000a900473ffffffffffffffffffffffffffffffffffffffff169050600073ffffffffffffffffffffffffffffffffffffffff168173ffffffffffffffffffffffffffffffffffffffff161415611004576040517f08c379a0000000000000000000000000000000000000000000000000000000008152600401610ffb90613812565b60405180910390fd5b80915050919050565b600960003373ffffffffffffffffffffffffffffffffffffffff1673ffffffffffffffffffffffffffffffffffffffff16815260200190815260200160002060009054906101000a900460ff16611099576040517f08c379a00000000000000000000000000000000000000000000000000000000081526004016110909061387e565b60405180910390fd5b60006110a56007611f6e565b90506110b18282611f7c565b61110281600860008573ffffffffffffffffffffffffffffffffffffffff1673ffffffffffffffffffffffffffffffffffffffff168152602001908152602001600020611e3790919063ffffffff16565b5061110d6007611f9a565b8173ffffffffffffffffffffffffffffffffffffffff167f170cd7fbac3527c51a8eadf77fb756ac94fe074ba361cc0a021c1bf9f1a7d7cf826040516111539190612f6a565b60405180910390a25050565b6000600960008373ffffffffffffffffffffffffffffffffffffffff1673ffffffffffffffffffffffffffffffffffffffff16815260200190815260200160002060009054906101000a900460ff169050919050565b60008073ffffffffffffffffffffffffffffffffffffffff168273ffffffffffffffffffffffffffffffffffffffff161415611226576040517f08c379a000000000000000000000000000000000000000000000000000000000815260040161121d90613910565b60405180910390fd5b600360008373ffffffffffffffffffffffffffffffffffffffff1673ffffffffffffffffffffffffffffffffffffffff168152602001908152602001600020549050919050565b6112756119fd565b73ffffffffffffffffffffffffffffffffffffffff166112936112f5565b73ffffffffffffffffffffffffffffffffffffffff16146112e9576040517f08c379a00000000000000000000000000000000000000000000000000000000081526004016112e090613561565b60405180910390fd5b6112f36000611fb0565b565b6000600660009054906101000a900473ffffffffffffffffffffffffffffffffffffffff16905090565b60606001805461132e9061329b565b80601f016020809104026020016040519081016040528092919081815260200182805461135a9061329b565b80156113a75780601f1061137c576101008083540402835291602001916113a7565b820191906000526020600020905b81548152906001019060200180831161138a57829003601f168201915b5050505050905090565b6113c36113bc6119fd565b8383612076565b5050565b61141881600860003373ffffffffffffffffffffffffffffffffffffffff1673ffffffffffffffffffffffffffffffffffffffff168152602001908152602001600020611e0390919063ffffffff16565b611457576040517f08c379a000000000000000000000000000000000000000000000000000000000815260040161144e906135f3565b60405180910390fd5b611462338383610837565b6114b381600860003373ffffffffffffffffffffffffffffffffffffffff1673ffffffffffffffffffffffffffffffffffffffff168152602001908152602001600020611e1d90919063ffffffff16565b5061150581600860008573ffffffffffffffffffffffffffffffffffffffff1673ffffffffffffffffffffffffffffffffffffffff168152602001908152602001600020611e3790919063ffffffff16565b508173ffffffffffffffffffffffffffffffffffffffff163373ffffffffffffffffffffffffffffffffffffffff167f59fd71f186972d8c7ae2506b28030f0dcf9fb2357a61d2004fa5fd53333b27df836040516115639190612f6a565b60405180910390a35050565b61158061157a6119fd565b83611abe565b6115bf576040517f08c379a00000000000000000000000000000000000000000000000000000000081526004016115b6906134f5565b60405180910390fd5b6115cb848484846121e3565b50505050565b60606115dc82611991565b61161b576040517f08c379a0000000000000000000000000000000000000000000000000000000008152600401611612906139a2565b60405180910390fd5b600061162561223f565b905060008151116116455760405180602001604052806000815250611670565b8061164f846122d1565b6040516020016116609291906139fe565b6040516020818303038152906040525b915050919050565b6060600860008373ffffffffffffffffffffffffffffffffffffffff1673ffffffffffffffffffffffffffffffffffffffff16815260200190815260200160002060000160000180548060200260200160405190810160405280929190818152602001828054801561170957602002820191906000526020600020905b8154815260200190600101908083116116f5575b50505050509050919050565b6000600560008473ffffffffffffffffffffffffffffffffffffffff1673ffffffffffffffffffffffffffffffffffffffff16815260200190815260200160002060008373ffffffffffffffffffffffffffffffffffffffff1673ffffffffffffffffffffffffffffffffffffffff16815260200190815260200160002060009054906101000a900460ff16905092915050565b6117b16119fd565b73ffffffffffffffffffffffffffffffffffffffff166117cf6112f5565b73ffffffffffffffffffffffffffffffffffffffff1614611825576040517f08c379a000000000000000000000000000000000000000000000000000000000815260040161181c90613561565b60405180910390fd5b600073ffffffffffffffffffffffffffffffffffffffff168173ffffffffffffffffffffffffffffffffffffffff161415611895576040517f08c379a000000000000000000000000000000000000000000000000000000000815260040161188c90613a94565b60405180910390fd5b61189e81611fb0565b50565b6118a96119fd565b73ffffffffffffffffffffffffffffffffffffffff166118c76112f5565b73ffffffffffffffffffffffffffffffffffffffff161461191d576040517f08c379a000000000000000000000000000000000000000000000000000000000815260040161191490613561565b60405180910390fd5b80600a8190555050565b60007f01ffc9a7000000000000000000000000000000000000000000000000000000007bffffffffffffffffffffffffffffffffffffffffffffffffffffffff1916827bffffffffffffffffffffffffffffffffffffffffffffffffffffffff1916149050919050565b60008073ffffffffffffffffffffffffffffffffffffffff166002600084815260200190815260200160002060009054906101000a900473ffffffffffffffffffffffffffffffffffffffff1673ffffffffffffffffffffffffffffffffffffffff1614159050919050565b600033905090565b816004600083815260200190815260200160002060006101000a81548173ffffffffffffffffffffffffffffffffffffffff021916908373ffffffffffffffffffffffffffffffffffffffff160217905550808273ffffffffffffffffffffffffffffffffffffffff16611a7883610f5b565b73ffffffffffffffffffffffffffffffffffffffff167f8c5be1e5ebec7d5bd14f71427d1e84f3dd0314c0f7b2291e5b200ac8c7c3b92560405160405180910390a45050565b6000611ac982611991565b611b08576040517f08c379a0000000000000000000000000000000000000000000000000000000008152600401611aff90613b26565b60405180910390fd5b6000611b1383610f5b565b90508073ffffffffffffffffffffffffffffffffffffffff168473ffffffffffffffffffffffffffffffffffffffff161480611b555750611b548185611715565b5b80611b9357508373ffffffffffffffffffffffffffffffffffffffff16611b7b8461069a565b73ffffffffffffffffffffffffffffffffffffffff16145b91505092915050565b8273ffffffffffffffffffffffffffffffffffffffff16611bbc82610f5b565b73ffffffffffffffffffffffffffffffffffffffff1614611c12576040517f08c379a0000000000000000000000000000000000000000000000000000000008152600401611c09906135f3565b60405180910390fd5b600073ffffffffffffffffffffffffffffffffffffffff168273ffffffffffffffffffffffffffffffffffffffff161415611c82576040517f08c379a0000000000000000000000000000000000000000000000000000000008152600401611c7990613bb8565b60405180910390fd5b611c8d838383612432565b611c98600082611a05565b6001600360008573ffffffffffffffffffffffffffffffffffffffff1673ffffffffffffffffffffffffffffffffffffffff1681526020019081526020016000206000828254611ce89190613bd8565b925050819055506001600360008473ffffffffffffffffffffffffffffffffffffffff1673ffffffffffffffffffffffffffffffffffffffff1681526020019081526020016000206000828254611d3f919061374a565b92505081905550816002600083815260200190815260200160002060006101000a81548173ffffffffffffffffffffffffffffffffffffffff021916908373ffffffffffffffffffffffffffffffffffffffff160217905550808273ffffffffffffffffffffffffffffffffffffffff168473ffffffffffffffffffffffffffffffffffffffff167fddf252ad1be2c89b69c2b068fc378daa952ba7f163c4a11628f55a4df523b3ef60405160405180910390a4611dfe838383612437565b505050565b6000611e15836000018360001b61243c565b905092915050565b6000611e2f836000018360001b61245f565b905092915050565b6000611e49836000018360001b612573565b905092915050565b6000611e5c82610f5b565b9050611e6a81600084612432565b611e75600083611a05565b6001600360008373ffffffffffffffffffffffffffffffffffffffff1673ffffffffffffffffffffffffffffffffffffffff1681526020019081526020016000206000828254611ec59190613bd8565b925050819055506002600083815260200190815260200160002060006101000a81549073ffffffffffffffffffffffffffffffffffffffff021916905581600073ffffffffffffffffffffffffffffffffffffffff168273ffffffffffffffffffffffffffffffffffffffff167fddf252ad1be2c89b69c2b068fc378daa952ba7f163c4a11628f55a4df523b3ef60405160405180910390a4611f6a81600084612437565b5050565b600081600001549050919050565b611f968282604051806020016040528060008152506125e3565b5050565b6001816000016000828254019250508190555050565b6000600660009054906101000a900473ffffffffffffffffffffffffffffffffffffffff16905081600660006101000a81548173ffffffffffffffffffffffffffffffffffffffff021916908373ffffffffffffffffffffffffffffffffffffffff1602179055508173ffffffffffffffffffffffffffffffffffffffff168173ffffffffffffffffffffffffffffffffffffffff167f8be0079c531659141344cd1fd0a4f28419497f9722a3daafe3b4186f6b6457e060405160405180910390a35050565b8173ffffffffffffffffffffffffffffffffffffffff168373ffffffffffffffffffffffffffffffffffffffff1614156120e5576040517f08c379a00000000000000000000000000000000000000000000000000000000081526004016120dc90613c58565b60405180910390fd5b80600560008573ffffffffffffffffffffffffffffffffffffffff1673ffffffffffffffffffffffffffffffffffffffff16815260200190815260200160002060008473ffffffffffffffffffffffffffffffffffffffff1673ffffffffffffffffffffffffffffffffffffffff16815260200190815260200160002060006101000a81548160ff0219169083151502179055508173ffffffffffffffffffffffffffffffffffffffff168373ffffffffffffffffffffffffffffffffffffffff167f17307eab39ab6107e8899845ad3d59bd9653f200f220920489ca2b5937696c31836040516121d69190612b1a565b60405180910390a3505050565b6121ee848484611b9c565b6121fa8484848461263e565b612239576040517f08c379a000000000000000000000000000000000000000000000000000000000815260040161223090613cea565b60405180910390fd5b50505050565b6060600c805461224e9061329b565b80601f016020809104026020016040519081016040528092919081815260200182805461227a9061329b565b80156122c75780601f1061229c576101008083540402835291602001916122c7565b820191906000526020600020905b8154815290600101906020018083116122aa57829003601f168201915b5050505050905090565b60606000821415612319576040518060400160405280600181526020017f3000000000000000000000000000000000000000000000000000000000000000815250905061242d565b600082905060005b6000821461234b57808061233490613d0a565b915050600a826123449190613d82565b9150612321565b60008167ffffffffffffffff81111561236757612366612d78565b5b6040519080825280601f01601f1916602001820160405280156123995781602001600182028036833780820191505090505b5090505b60008514612426576001826123b29190613bd8565b9150600a856123c19190613db3565b60306123cd919061374a565b60f81b8183815181106123e3576123e2613de4565b5b60200101907effffffffffffffffffffffffffffffffffffffffffffffffffffffffffffff1916908160001a905350600a8561241f9190613d82565b945061239d565b8093505050505b919050565b505050565b505050565b600080836001016000848152602001908152602001600020541415905092915050565b600080836001016000848152602001908152602001600020549050600081146125675760006001826124919190613bd8565b90506000600186600001805490506124a99190613bd8565b90508181146125185760008660000182815481106124ca576124c9613de4565b5b90600052602060002001549050808760000184815481106124ee576124ed613de4565b5b90600052602060002001819055508387600101600083815260200190815260200160002081905550505b8560000180548061252c5761252b613e13565b5b60019003818190600052602060002001600090559055856001016000868152602001908152602001600020600090556001935050505061256d565b60009150505b92915050565b600061257f838361243c565b6125d85782600001829080600181540180825580915050600190039060005260206000200160009091909190915055826000018054905083600101600084815260200190815260200160002081905550600190506125dd565b600090505b92915050565b6125ed83836127c6565b6125fa600084848461263e565b612639576040517f08c379a000000000000000000000000000000000000000000000000000000000815260040161263090613cea565b60405180910390fd5b505050565b600061265f8473ffffffffffffffffffffffffffffffffffffffff166129a0565b156127b9578373ffffffffffffffffffffffffffffffffffffffff1663150b7a026126886119fd565b8786866040518563ffffffff1660e01b81526004016126aa9493929190613e97565b6020604051808303816000875af19250505080156126e657506040513d601f19601f820116820180604052508101906126e39190613ef8565b60015b612769573d8060008114612716576040519150601f19603f3d011682016040523d82523d6000602084013e61271b565b606091505b50600081511415612761576040517f08c379a000000000000000000000000000000000000000000000000000000000815260040161275890613cea565b60405180910390fd5b805181602001fd5b63150b7a0260e01b7bffffffffffffffffffffffffffffffffffffffffffffffffffffffff1916817bffffffffffffffffffffffffffffffffffffffffffffffffffffffff1916149150506127be565b600190505b949350505050565b600073ffffffffffffffffffffffffffffffffffffffff168273ffffffffffffffffffffffffffffffffffffffff161415612836576040517f08c379a000000000000000000000000000000000000000000000000000000000815260040161282d90613f71565b60405180910390fd5b61283f81611991565b1561287f576040517f08c379a000000000000000000000000000000000000000000000000000000000815260040161287690613fdd565b60405180910390fd5b61288b60008383612432565b6001600360008473ffffffffffffffffffffffffffffffffffffffff1673ffffffffffffffffffffffffffffffffffffffff16815260200190815260200160002060008282546128db919061374a565b92505081905550816002600083815260200190815260200160002060006101000a81548173ffffffffffffffffffffffffffffffffffffffff021916908373ffffffffffffffffffffffffffffffffffffffff160217905550808273ffffffffffffffffffffffffffffffffffffffff16600073ffffffffffffffffffffffffffffffffffffffff167fddf252ad1be2c89b69c2b068fc378daa952ba7f163c4a11628f55a4df523b3ef60405160405180910390a461299c60008383612437565b5050565b6000808273ffffffffffffffffffffffffffffffffffffffff163b119050919050565b8280546129cf9061329b565b90600052602060002090601f0160209004810192826129f15760008555612a38565b82601f10612a0a57805160ff1916838001178555612a38565b82800160010185558215612a38579182015b82811115612a37578251825591602001919060010190612a1c565b5b509050612a459190612a49565b5090565b5b80821115612a62576000816000905550600101612a4a565b5090565b6000604051905090565b600080fd5b600080fd5b60007fffffffff0000000000000000000000000000000000000000000000000000000082169050919050565b612aaf81612a7a565b8114612aba57600080fd5b50565b600081359050612acc81612aa6565b92915050565b600060208284031215612ae857612ae7612a70565b5b6000612af684828501612abd565b91505092915050565b60008115159050919050565b612b1481612aff565b82525050565b6000602082019050612b2f6000830184612b0b565b92915050565b600081519050919050565b600082825260208201905092915050565b60005b83811015612b6f578082015181840152602081019050612b54565b83811115612b7e576000848401525b50505050565b6000601f19601f8301169050919050565b6000612ba082612b35565b612baa8185612b40565b9350612bba818560208601612b51565b612bc381612b84565b840191505092915050565b60006020820190508181036000830152612be88184612b95565b905092915050565b6000819050919050565b612c0381612bf0565b8114612c0e57600080fd5b50565b600081359050612c2081612bfa565b92915050565b600060208284031215612c3c57612c3b612a70565b5b6000612c4a84828501612c11565b91505092915050565b600073ffffffffffffffffffffffffffffffffffffffff82169050919050565b6000612c7e82612c53565b9050919050565b612c8e81612c73565b82525050565b6000602082019050612ca96000830184612c85565b92915050565b612cb881612c73565b8114612cc357600080fd5b50565b600081359050612cd581612caf565b92915050565b60008060408385031215612cf257612cf1612a70565b5b6000612d0085828601612cc6565b9250506020612d1185828601612c11565b9150509250929050565b600080600060608486031215612d3457612d33612a70565b5b6000612d4286828701612cc6565b9350506020612d5386828701612cc6565b9250506040612d6486828701612c11565b9150509250925092565b600080fd5b600080fd5b7f4e487b7100000000000000000000000000000000000000000000000000000000600052604160045260246000fd5b612db082612b84565b810181811067ffffffffffffffff82111715612dcf57612dce612d78565b5b80604052505050565b6000612de2612a66565b9050612dee8282612da7565b919050565b600067ffffffffffffffff821115612e0e57612e0d612d78565b5b612e1782612b84565b9050602081019050919050565b82818337600083830152505050565b6000612e46612e4184612df3565b612dd8565b905082815260208101848484011115612e6257612e61612d73565b5b612e6d848285612e24565b509392505050565b600082601f830112612e8a57612e89612d6e565b5b8135612e9a848260208601612e33565b91505092915050565b600080600060608486031215612ebc57612ebb612a70565b5b6000612eca86828701612cc6565b9350506020612edb86828701612c11565b925050604084013567ffffffffffffffff811115612efc57612efb612a75565b5b612f0886828701612e75565b9150509250925092565b600060208284031215612f2857612f27612a70565b5b600082013567ffffffffffffffff811115612f4657612f45612a75565b5b612f5284828501612e75565b91505092915050565b612f6481612bf0565b82525050565b6000602082019050612f7f6000830184612f5b565b92915050565b612f8e81612aff565b8114612f9957600080fd5b50565b600081359050612fab81612f85565b92915050565b60008060408385031215612fc857612fc7612a70565b5b6000612fd685828601612cc6565b9250506020612fe785828601612f9c565b9150509250929050565b60006020828403121561300757613006612a70565b5b600061301584828501612cc6565b91505092915050565b600067ffffffffffffffff82111561303957613038612d78565b5b61304282612b84565b9050602081019050919050565b600061306261305d8461301e565b612dd8565b90508281526020810184848401111561307e5761307d612d73565b5b613089848285612e24565b509392505050565b600082601f8301126130a6576130a5612d6e565b5b81356130b684826020860161304f565b91505092915050565b600080600080608085870312156130d9576130d8612a70565b5b60006130e787828801612cc6565b94505060206130f887828801612cc6565b935050604061310987828801612c11565b925050606085013567ffffffffffffffff81111561312a57613129612a75565b5b61313687828801613091565b91505092959194509250565b600081519050919050565b600082825260208201905092915050565b6000819050602082019050919050565b6000819050919050565b6131818161316e565b82525050565b60006131938383613178565b60208301905092915050565b6000602082019050919050565b60006131b782613142565b6131c1818561314d565b93506131cc8361315e565b8060005b838110156131fd5781516131e48882613187565b97506131ef8361319f565b9250506001810190506131d0565b5085935050505092915050565b6000602082019050818103600083015261322481846131ac565b905092915050565b6000806040838503121561324357613242612a70565b5b600061325185828601612cc6565b925050602061326285828601612cc6565b9150509250929050565b7f4e487b7100000000000000000000000000000000000000000000000000000000600052602260045260246000fd5b600060028204905060018216806132b357607f821691505b602082108114156132c7576132c661326c565b5b50919050565b7f4552433732313a20617070726f76656420717565727920666f72206e6f6e657860008201527f697374656e7420746f6b656e0000000000000000000000000000000000000000602082015250565b6000613329602c83612b40565b9150613334826132cd565b604082019050919050565b600060208201905081810360008301526133588161331c565b9050919050565b7f4552433732313a20617070726f76616c20746f2063757272656e74206f776e6560008201527f7200000000000000000000000000000000000000000000000000000000000000602082015250565b60006133bb602183612b40565b91506133c68261335f565b604082019050919050565b600060208201905081810360008301526133ea816133ae565b9050919050565b7f4552433732313a20617070726f76652063616c6c6572206973206e6f74206f7760008201527f6e6572206e6f7220617070726f76656420666f7220616c6c0000000000000000602082015250565b600061344d603883612b40565b9150613458826133f1565b604082019050919050565b6000602082019050818103600083015261347c81613440565b9050919050565b7f4552433732313a207472616e736665722063616c6c6572206973206e6f74206f60008201527f776e6572206e6f7220617070726f766564000000000000000000000000000000602082015250565b60006134df603183612b40565b91506134ea82613483565b604082019050919050565b6000602082019050818103600083015261350e816134d2565b9050919050565b7f4f776e61626c653a2063616c6c6572206973206e6f7420746865206f776e6572600082015250565b600061354b602083612b40565b915061355682613515565b602082019050919050565b6000602082019050818103600083015261357a8161353e565b9050919050565b7f4552433732313a207472616e736665722066726f6d20696e636f72726563742060008201527f6f776e6572000000000000000000000000000000000000000000000000000000602082015250565b60006135dd602583612b40565b91506135e882613581565b604082019050919050565b6000602082019050818103600083015261360c816135d0565b9050919050565b60006040820190506136286000830185612f5b565b818103602083015261363a8184612b95565b90509392505050565b7f746f6b656e20646f6573206e6f74206578697374000000000000000000000000600082015250565b6000613679601483612b40565b915061368482613643565b602082019050919050565b600060208201905081810360008301526136a88161366c565b9050919050565b7f43616e6e6f7420636c61696d20616e796d6f7265000000000000000000000000600082015250565b60006136e5601483612b40565b91506136f0826136af565b602082019050919050565b60006020820190508181036000830152613714816136d8565b9050919050565b7f4e487b7100000000000000000000000000000000000000000000000000000000600052601160045260246000fd5b600061375582612bf0565b915061376083612bf0565b9250827fffffffffffffffffffffffffffffffffffffffffffffffffffffffffffffffff038211156137955761379461371b565b5b828201905092915050565b7f4552433732313a206f776e657220717565727920666f72206e6f6e657869737460008201527f656e7420746f6b656e0000000000000000000000000000000000000000000000602082015250565b60006137fc602983612b40565b9150613807826137a0565b604082019050919050565b6000602082019050818103600083015261382b816137ef565b9050919050565b7f43616c6c6572206973206e6f7420746865206f70657261746f72730000000000600082015250565b6000613868601b83612b40565b915061387382613832565b602082019050919050565b600060208201905081810360008301526138978161385b565b9050919050565b7f4552433732313a2062616c616e636520717565727920666f7220746865207a6560008201527f726f206164647265737300000000000000000000000000000000000000000000602082015250565b60006138fa602a83612b40565b91506139058261389e565b604082019050919050565b60006020820190508181036000830152613929816138ed565b9050919050565b7f4552433732314d657461646174613a2055524920717565727920666f72206e6f60008201527f6e6578697374656e7420746f6b656e0000000000000000000000000000000000602082015250565b600061398c602f83612b40565b915061399782613930565b604082019050919050565b600060208201905081810360008301526139bb8161397f565b9050919050565b600081905092915050565b60006139d882612b35565b6139e281856139c2565b93506139f2818560208601612b51565b80840191505092915050565b6000613a0a82856139cd565b9150613a1682846139cd565b91508190509392505050565b7f4f776e61626c653a206e6577206f776e657220697320746865207a65726f206160008201527f6464726573730000000000000000000000000000000000000000000000000000602082015250565b6000613a7e602683612b40565b9150613a8982613a22565b604082019050919050565b60006020820190508181036000830152613aad81613a71565b9050919050565b7f4552433732313a206f70657261746f7220717565727920666f72206e6f6e657860008201527f697374656e7420746f6b656e0000000000000000000000000000000000000000602082015250565b6000613b10602c83612b40565b9150613b1b82613ab4565b604082019050919050565b60006020820190508181036000830152613b3f81613b03565b9050919050565b7f4552433732313a207472616e7366657220746f20746865207a65726f2061646460008201527f7265737300000000000000000000000000000000000000000000000000000000602082015250565b6000613ba2602483612b40565b9150613bad82613b46565b604082019050919050565b60006020820190508181036000830152613bd181613b95565b9050919050565b6000613be382612bf0565b9150613bee83612bf0565b925082821015613c0157613c0061371b565b5b828203905092915050565b7f4552433732313a20617070726f766520746f2063616c6c657200000000000000600082015250565b6000613c42601983612b40565b9150613c4d82613c0c565b602082019050919050565b60006020820190508181036000830152613c7181613c35565b9050919050565b7f4552433732313a207472616e7366657220746f206e6f6e20455243373231526560008201527f63656976657220696d706c656d656e7465720000000000000000000000000000602082015250565b6000613cd4603283612b40565b9150613cdf82613c78565b604082019050919050565b60006020820190508181036000830152613d0381613cc7565b9050919050565b6000613d1582612bf0565b91507fffffffffffffffffffffffffffffffffffffffffffffffffffffffffffffffff821415613d4857613d4761371b565b5b600182019050919050565b7f4e487b7100000000000000000000000000000000000000000000000000000000600052601260045260246000fd5b6000613d8d82612bf0565b9150613d9883612bf0565b925082613da857613da7613d53565b5b828204905092915050565b6000613dbe82612bf0565b9150613dc983612bf0565b925082613dd957613dd8613d53565b5b828206905092915050565b7f4e487b7100000000000000000000000000000000000000000000000000000000600052603260045260246000fd5b7f4e487b7100000000000000000000000000000000000000000000000000000000600052603160045260246000fd5b600081519050919050565b600082825260208201905092915050565b6000613e6982613e42565b613e738185613e4d565b9350613e83818560208601612b51565b613e8c81612b84565b840191505092915050565b6000608082019050613eac6000830187612c85565b613eb96020830186612c85565b613ec66040830185612f5b565b8181036060830152613ed88184613e5e565b905095945050505050565b600081519050613ef281612aa6565b92915050565b600060208284031215613f0e57613f0d612a70565b5b6000613f1c84828501613ee3565b91505092915050565b7f4552433732313a206d696e7420746f20746865207a65726f2061646472657373600082015250565b6000613f5b602083612b40565b9150613f6682613f25565b602082019050919050565b60006020820190508181036000830152613f8a81613f4e565b9050919050565b7f4552433732313a20746f6b656e20616c7265616479206d696e74656400000000600082015250565b6000613fc7601c83612b40565b9150613fd282613f91565b602082019050919050565b60006020820190508181036000830152613ff681613fba565b905091905056fea2646970667358221220bd1a2c0256bc8155802aeb8479a298afa1a3c24528b6866f4f7f56974e4ebbdf64736f6c634300080a0033",
  "immutableReferences": {},
  "source": "// SPDX-License-Identifier: UNLICENSED\npragma solidity ^0.8.0;\n\nimport \"@openzeppelin/contracts/utils/Counters.sol\";\nimport \"@openzeppelin/contracts/access/Ownable.sol\";\nimport \"@openzeppelin/contracts/token/ERC721/ERC721.sol\";\nimport \"@openzeppelin/contracts/utils/structs/EnumerableSet.sol\";\n\ncontract BFItem is ERC721, Ownable {\n\n    using EnumerableSet for EnumerableSet.UintSet;\n    using Counters for Counters.Counter;\n    Counters.Counter private _tokenIds;\n    \n    // mapping from owner to set of owned token IDs\n    mapping(address => EnumerableSet.UintSet) _ownedTokens;\n    mapping(address => bool) private _operators;\n\n    uint256 _maxClaimItemNum;\n    mapping(address => uint256) _claimedItemNum;\n\n    string private _baseuri;\n\n    event ItemMinted(address indexed to, uint256 tokenId);\n    event ItemBurned(address indexed from, uint256 tokenId);\n    event ItemTransferred(address indexed from, address indexed to, uint256 tokenId);\n    event WithdrawItemFromSpending(address indexed to, uint256 tokenId, string uuid);\n    event ItemClaimed(address indexed to, uint256 tokenId);\n\n    constructor() ERC721(\"BeFitterShoes\", \"BFTS\") {}\n\n    modifier isValidTokenId(uint256 tokenId) {\n        require(tokenId < _tokenIds.current(), \"Invalid tokenId\");\n        _;\n    }\n\n    modifier onlyOperators() {\n        require(_operators[msg.sender], \"Caller is not the operators\");\n        _;\n    }\n\n    function setOperator(address operator, bool approved)\n        public\n        onlyOwner\n    {\n        _operators[operator] = approved;\n    }\n\n    function isOperator(address operator)\n        public\n        view\n        returns (bool)\n    {\n        return _operators[operator];\n    }\n\n    function setBaseTokenURI(string memory baseURI)\n        public \n        onlyOwner\n    {\n        _baseuri = baseURI;\n    }\n\n    function _baseURI() internal view virtual override returns (string memory) {\n        return _baseuri;\n    }\n\n    function setMaxClaimItem(uint256 maxItemNum)\n        public\n        onlyOwner\n    {\n        _maxClaimItemNum = maxItemNum;\n    }\n\n    function getMaxClaimItem()\n        public\n        view\n        returns (uint256)\n    {\n        return _maxClaimItemNum;\n    }\n\n    function mint(address to)\n        public\n        onlyOperators()\n    {\n        uint256 tokenId = _tokenIds.current();\n        _safeMint(to, tokenId);\n        _ownedTokens[to].add(tokenId);\n        _tokenIds.increment();\n        \n        emit ItemMinted(to, tokenId);\n    }\n\n    function burn(uint256 tokenId)\n        public \n        onlyOwner\n    {\n        require(_exists(tokenId), \"token does not exist\");\n        address ownerAddress = ownerOf(tokenId);\n        _burn(tokenId);\n        _ownedTokens[ownerAddress].remove(tokenId);\n\n        emit ItemBurned(ownerAddress, tokenId);\n    }\n\n    function claim() public \n    {\n        require(_claimedItemNum[msg.sender] < _maxClaimItemNum, \"Cannot claim anymore\");\n        _claimedItemNum[msg.sender] += 1;\n\n        uint256 tokenId = _tokenIds.current();\n        _safeMint(msg.sender, tokenId);\n        _ownedTokens[msg.sender].add(tokenId);\n        _tokenIds.increment();\n\n        emit ItemClaimed(msg.sender, tokenId);\n    }\n\n    function transfer(address to, uint256 tokenId)\n        public\n    {\n        require(_ownedTokens[msg.sender].contains(tokenId), \"ERC721: transfer from incorrect owner\");\n\n        transferFrom(msg.sender, to, tokenId);\n\n        _ownedTokens[msg.sender].remove(tokenId);\n        _ownedTokens[to].add(tokenId);\n\n        emit ItemTransferred(msg.sender, to, tokenId);\n    }\n\n    function withdrawFromSpending(address to, uint256 tokenId, string memory uuid)\n        public\n        onlyOwner\n    {\n        require(_ownedTokens[msg.sender].contains(tokenId), \"ERC721: transfer from incorrect owner\");\n\n        transferFrom(msg.sender, to, tokenId);\n\n        _ownedTokens[msg.sender].remove(tokenId);\n        _ownedTokens[to].add(tokenId);\n\n        emit WithdrawItemFromSpending(to, tokenId, uuid);\n    }\n\n    function getOwnedItems(address owner)\n        public\n        view\n        returns (bytes32[] memory)\n    {\n        return _ownedTokens[owner]._inner._values;\n    }\n}",
  "sourcePath": "/home/hungnd/workspace/beta-befitter/contracts/BFItem.sol",
  "compiler": {
    "name": "solc",
    "version": "0.8.10+commit.fc410830.Emscripten.clang"
  },
  "schemaVersion": "3.4.7",
  "updatedAt": "2022-06-20T02:32:19.483Z",
  "networkType": "ethereum",
  "devdoc": {
    "kind": "dev",
    "methods": {
      "approve(address,uint256)": {
        "details": "See {IERC721-approve}."
      },
      "balanceOf(address)": {
        "details": "See {IERC721-balanceOf}."
      },
      "getApproved(uint256)": {
        "details": "See {IERC721-getApproved}."
      },
      "isApprovedForAll(address,address)": {
        "details": "See {IERC721-isApprovedForAll}."
      },
      "name()": {
        "details": "See {IERC721Metadata-name}."
      },
      "owner()": {
        "details": "Returns the address of the current owner."
      },
      "ownerOf(uint256)": {
        "details": "See {IERC721-ownerOf}."
      },
      "renounceOwnership()": {
        "details": "Leaves the contract without owner. It will not be possible to call `onlyOwner` functions anymore. Can only be called by the current owner. NOTE: Renouncing ownership will leave the contract without an owner, thereby removing any functionality that is only available to the owner."
      },
      "safeTransferFrom(address,address,uint256)": {
        "details": "See {IERC721-safeTransferFrom}."
      },
      "safeTransferFrom(address,address,uint256,bytes)": {
        "details": "See {IERC721-safeTransferFrom}."
      },
      "setApprovalForAll(address,bool)": {
        "details": "See {IERC721-setApprovalForAll}."
      },
      "supportsInterface(bytes4)": {
        "details": "See {IERC165-supportsInterface}."
      },
      "symbol()": {
        "details": "See {IERC721Metadata-symbol}."
      },
      "tokenURI(uint256)": {
        "details": "See {IERC721Metadata-tokenURI}."
      },
      "transferFrom(address,address,uint256)": {
        "details": "See {IERC721-transferFrom}."
      },
      "transferOwnership(address)": {
        "details": "Transfers ownership of the contract to a new account (`newOwner`). Can only be called by the current owner."
      }
    },
    "version": 1
  },
  "userdoc": {
    "kind": "user",
    "methods": {},
    "version": 1
  }
}