{
  "_format": "hh-sol-artifact-1",
  "contractName": "BeFitterShoes",
  "sourceName": "contracts/BFShoes.sol",
  "abi": [
    {
      "inputs": [],
      "stateMutability": "nonpayable",
      "type": "constructor"
    },
    {
      "anonymous": false,
      "inputs": [
        {
          "indexed": true,
          "internalType": "address",
          "name": "owner",
          "type": "address"
        },
        {
          "indexed": true,
          "internalType": "address",
          "name": "approved",
          "type": "address"
        },
        {
          "indexed": true,
          "internalType": "uint256",
          "name": "tokenId",
          "type": "uint256"
        }
      ],
      "name": "Approval",
      "type": "event"
    },
    {
      "anonymous": false,
      "inputs": [
        {
          "indexed": true,
          "internalType": "address",
          "name": "owner",
          "type": "address"
        },
        {
          "indexed": true,
          "internalType": "address",
          "name": "operator",
          "type": "address"
        },
        {
          "indexed": false,
          "internalType": "bool",
          "name": "approved",
          "type": "bool"
        }
      ],
      "name": "ApprovalForAll",
      "type": "event"
    },
    {
      "anonymous": false,
      "inputs": [
        {
          "indexed": true,
          "internalType": "address",
          "name": "to",
          "type": "address"
        },
        {
          "indexed": false,
          "internalType": "uint256",
          "name": "tokenId",
          "type": "uint256"
        }
      ],
      "name": "MintShoes",
      "type": "event"
    },
    {
      "anonymous": false,
      "inputs": [
        {
          "indexed": true,
          "internalType": "address",
          "name": "previousOwner",
          "type": "address"
        },
        {
          "indexed": true,
          "internalType": "address",
          "name": "newOwner",
          "type": "address"
        }
      ],
      "name": "OwnershipTransferred",
      "type": "event"
    },
    {
      "anonymous": false,
      "inputs": [
        {
          "indexed": true,
          "internalType": "address",
          "name": "to",
          "type": "address"
        },
        {
          "indexed": false,
          "internalType": "uint256",
          "name": "tokenId",
          "type": "uint256"
        }
      ],
      "name": "SpawnShoes",
      "type": "event"
    },
    {
      "anonymous": false,
      "inputs": [
        {
          "indexed": true,
          "internalType": "address",
          "name": "from",
          "type": "address"
        },
        {
          "indexed": true,
          "internalType": "address",
          "name": "to",
          "type": "address"
        },
        {
          "indexed": true,
          "internalType": "uint256",
          "name": "tokenId",
          "type": "uint256"
        }
      ],
      "name": "Transfer",
      "type": "event"
    },
    {
      "anonymous": false,
      "inputs": [
        {
          "indexed": true,
          "internalType": "address",
          "name": "from",
          "type": "address"
        },
        {
          "indexed": true,
          "internalType": "address",
          "name": "to",
          "type": "address"
        },
        {
          "indexed": false,
          "internalType": "uint256",
          "name": "tokenId",
          "type": "uint256"
        }
      ],
      "name": "TransferShoes",
      "type": "event"
    },
    {
      "inputs": [
        {
          "internalType": "address",
          "name": "to",
          "type": "address"
        },
        {
          "internalType": "uint256",
          "name": "tokenId",
          "type": "uint256"
        }
      ],
      "name": "approve",
      "outputs": [],
      "stateMutability": "nonpayable",
      "type": "function"
    },
    {
      "inputs": [
        {
          "internalType": "address",
          "name": "owner",
          "type": "address"
        }
      ],
      "name": "balanceOf",
      "outputs": [
        {
          "internalType": "uint256",
          "name": "",
          "type": "uint256"
        }
      ],
      "stateMutability": "view",
      "type": "function"
    },
    {
      "inputs": [
        {
          "internalType": "uint256",
          "name": "tokenId",
          "type": "uint256"
        }
      ],
      "name": "getApproved",
      "outputs": [
        {
          "internalType": "address",
          "name": "",
          "type": "address"
        }
      ],
      "stateMutability": "view",
      "type": "function"
    },
    {
      "inputs": [],
      "name": "getGenesisNum",
      "outputs": [
        {
          "internalType": "uint256",
          "name": "",
          "type": "uint256"
        }
      ],
      "stateMutability": "view",
      "type": "function"
    },
    {
      "inputs": [
        {
          "internalType": "address",
          "name": "owner",
          "type": "address"
        }
      ],
      "name": "getOwnedTokens",
      "outputs": [
        {
          "internalType": "bytes32[]",
          "name": "",
          "type": "bytes32[]"
        }
      ],
      "stateMutability": "view",
      "type": "function"
    },
    {
      "inputs": [],
      "name": "getTotalShoes",
      "outputs": [
        {
          "internalType": "uint256",
          "name": "",
          "type": "uint256"
        }
      ],
      "stateMutability": "view",
      "type": "function"
    },
    {
      "inputs": [
        {
          "internalType": "address",
          "name": "owner",
          "type": "address"
        },
        {
          "internalType": "address",
          "name": "operator",
          "type": "address"
        }
      ],
      "name": "isApprovedForAll",
      "outputs": [
        {
          "internalType": "bool",
          "name": "",
          "type": "bool"
        }
      ],
      "stateMutability": "view",
      "type": "function"
    },
    {
      "inputs": [
        {
          "internalType": "address",
          "name": "operator",
          "type": "address"
        }
      ],
      "name": "isOperator",
      "outputs": [
        {
          "internalType": "bool",
          "name": "",
          "type": "bool"
        }
      ],
      "stateMutability": "view",
      "type": "function"
    },
    {
      "inputs": [
        {
          "internalType": "address",
          "name": "to",
          "type": "address"
        }
      ],
      "name": "mintGenesis",
      "outputs": [],
      "stateMutability": "nonpayable",
      "type": "function"
    },
    {
      "inputs": [],
      "name": "name",
      "outputs": [
        {
          "internalType": "string",
          "name": "",
          "type": "string"
        }
      ],
      "stateMutability": "view",
      "type": "function"
    },
    {
      "inputs": [],
      "name": "owner",
      "outputs": [
        {
          "internalType": "address",
          "name": "",
          "type": "address"
        }
      ],
      "stateMutability": "view",
      "type": "function"
    },
    {
      "inputs": [
        {
          "internalType": "uint256",
          "name": "tokenId",
          "type": "uint256"
        }
      ],
      "name": "ownerOf",
      "outputs": [
        {
          "internalType": "address",
          "name": "",
          "type": "address"
        }
      ],
      "stateMutability": "view",
      "type": "function"
    },
    {
      "inputs": [
        {
          "internalType": "address",
          "name": "operator",
          "type": "address"
        }
      ],
      "name": "removeOperator",
      "outputs": [],
      "stateMutability": "nonpayable",
      "type": "function"
    },
    {
      "inputs": [],
      "name": "renounceOwnership",
      "outputs": [],
      "stateMutability": "nonpayable",
      "type": "function"
    },
    {
      "inputs": [
        {
          "internalType": "address",
          "name": "from",
          "type": "address"
        },
        {
          "internalType": "address",
          "name": "to",
          "type": "address"
        },
        {
          "internalType": "uint256",
          "name": "tokenId",
          "type": "uint256"
        }
      ],
      "name": "safeTransferFrom",
      "outputs": [],
      "stateMutability": "nonpayable",
      "type": "function"
    },
    {
      "inputs": [
        {
          "internalType": "address",
          "name": "from",
          "type": "address"
        },
        {
          "internalType": "address",
          "name": "to",
          "type": "address"
        },
        {
          "internalType": "uint256",
          "name": "tokenId",
          "type": "uint256"
        },
        {
          "internalType": "bytes",
          "name": "data",
          "type": "bytes"
        }
      ],
      "name": "safeTransferFrom",
      "outputs": [],
      "stateMutability": "nonpayable",
      "type": "function"
    },
    {
      "inputs": [
        {
          "internalType": "address",
          "name": "operator",
          "type": "address"
        },
        {
          "internalType": "bool",
          "name": "approved",
          "type": "bool"
        }
      ],
      "name": "setApprovalForAll",
      "outputs": [],
      "stateMutability": "nonpayable",
      "type": "function"
    },
    {
      "inputs": [
        {
          "internalType": "string",
          "name": "baseURI",
          "type": "string"
        }
      ],
      "name": "setBaseTokenURI",
      "outputs": [],
      "stateMutability": "nonpayable",
      "type": "function"
    },
    {
      "inputs": [
        {
          "internalType": "uint256",
          "name": "genesisNum",
          "type": "uint256"
        }
      ],
      "name": "setGenesisNum",
      "outputs": [],
      "stateMutability": "nonpayable",
      "type": "function"
    },
    {
      "inputs": [
        {
          "internalType": "address",
          "name": "operator",
          "type": "address"
        }
      ],
      "name": "setOperator",
      "outputs": [],
      "stateMutability": "nonpayable",
      "type": "function"
    },
    {
      "inputs": [
        {
          "internalType": "address",
          "name": "to",
          "type": "address"
        }
      ],
      "name": "spawn",
      "outputs": [],
      "stateMutability": "nonpayable",
      "type": "function"
    },
    {
      "inputs": [
        {
          "internalType": "bytes4",
          "name": "interfaceId",
          "type": "bytes4"
        }
      ],
      "name": "supportsInterface",
      "outputs": [
        {
          "internalType": "bool",
          "name": "",
          "type": "bool"
        }
      ],
      "stateMutability": "view",
      "type": "function"
    },
    {
      "inputs": [],
      "name": "symbol",
      "outputs": [
        {
          "internalType": "string",
          "name": "",
          "type": "string"
        }
      ],
      "stateMutability": "view",
      "type": "function"
    },
    {
      "inputs": [
        {
          "internalType": "uint256",
          "name": "tokenId",
          "type": "uint256"
        }
      ],
      "name": "tokenURI",
      "outputs": [
        {
          "internalType": "string",
          "name": "",
          "type": "string"
        }
      ],
      "stateMutability": "view",
      "type": "function"
    },
    {
      "inputs": [
        {
          "internalType": "address",
          "name": "from",
          "type": "address"
        },
        {
          "internalType": "address",
          "name": "to",
          "type": "address"
        },
        {
          "internalType": "uint256",
          "name": "tokenId",
          "type": "uint256"
        }
      ],
      "name": "transferFrom",
      "outputs": [],
      "stateMutability": "nonpayable",
      "type": "function"
    },
    {
      "inputs": [
        {
          "internalType": "address",
          "name": "newOwner",
          "type": "address"
        }
      ],
      "name": "transferOwnership",
      "outputs": [],
      "stateMutability": "nonpayable",
      "type": "function"
    }
  ],
  "bytecode": "0x60806040523480156200001157600080fd5b506040518060400160405280600d81526020017f426546697474657253686f6573000000000000000000000000000000000000008152506040518060400160405280600481526020017f424654530000000000000000000000000000000000000000000000000000000081525081600090805190602001906200009692919062000256565b508060019080519060200190620000af92919062000256565b505050620000d2620000c66200018860201b60201c565b6200019060201b60201c565b6001600860003373ffffffffffffffffffffffffffffffffffffffff1673ffffffffffffffffffffffffffffffffffffffff16815260200190815260200160002060006101000a81548160ff0219169083151502179055506001600860003373ffffffffffffffffffffffffffffffffffffffff1673ffffffffffffffffffffffffffffffffffffffff16815260200190815260200160002060006101000a81548160ff0219169083151502179055506200036b565b600033905090565b6000600760009054906101000a900473ffffffffffffffffffffffffffffffffffffffff16905081600760006101000a81548173ffffffffffffffffffffffffffffffffffffffff021916908373ffffffffffffffffffffffffffffffffffffffff1602179055508173ffffffffffffffffffffffffffffffffffffffff168173ffffffffffffffffffffffffffffffffffffffff167f8be0079c531659141344cd1fd0a4f28419497f9722a3daafe3b4186f6b6457e060405160405180910390a35050565b828054620002649062000306565b90600052602060002090601f016020900481019282620002885760008555620002d4565b82601f10620002a357805160ff1916838001178555620002d4565b82800160010185558215620002d4579182015b82811115620002d3578251825591602001919060010190620002b6565b5b509050620002e39190620002e7565b5090565b5b8082111562000302576000816000905550600101620002e8565b5090565b600060028204905060018216806200031f57607f821691505b602082108114156200033657620003356200033c565b5b50919050565b7f4e487b7100000000000000000000000000000000000000000000000000000000600052602260045260246000fd5b613939806200037b6000396000f3fe608060405234801561001057600080fd5b506004361061018e5760003560e01c80638da5cb5b116100de578063b3ab15fb11610097578063c87b56dd11610071578063c87b56dd14610457578063d9d6165514610487578063e985e9c5146104b7578063f2fde38b146104e75761018e565b8063b3ab15fb14610403578063b88d4fde1461041f578063c63300a51461043b5761018e565b80638da5cb5b14610357578063940203921461037557806395d89b4114610391578063a22cb465146103af578063ac8a584a146103cb578063af4c62de146103e75761018e565b806330176e131161014b5780636352211e116101255780636352211e146102bd5780636d70f7ae146102ed57806370a082311461031d578063715018a61461034d5761018e565b806330176e131461026757806342842e0e146102835780635bc43cb11461029f5761018e565b806301ffc9a71461019357806306fdde03146101c3578063081812fc146101e1578063095ea7b3146102115780630eef64be1461022d57806323b872dd1461024b575b600080fd5b6101ad60048036038101906101a89190612855565b610503565b6040516101ba9190612d89565b60405180910390f35b6101cb6105e5565b6040516101d89190612da4565b60405180910390f35b6101fb60048036038101906101f691906128e8565b610677565b6040516102089190612d00565b60405180910390f35b61022b60048036038101906102269190612819565b6106bd565b005b6102356107d5565b6040516102429190613006565b60405180910390f35b61026560048036038101906102609190612713565b6107f9565b005b610281600480360381019061027c91906128a7565b6108be565b005b61029d60048036038101906102989190612713565b610964565b005b6102a7610984565b6040516102b49190613006565b60405180910390f35b6102d760048036038101906102d291906128e8565b61098e565b6040516102e49190612d00565b60405180910390f35b610307600480360381019061030291906126ae565b610a40565b6040516103149190612d89565b60405180910390f35b610337600480360381019061033291906126ae565b610a96565b6040516103449190613006565b60405180910390f35b610355610b4e565b005b61035f610b62565b60405161036c9190612d00565b60405180910390f35b61038f600480360381019061038a91906126ae565b610b8c565b005b610399610d1e565b6040516103a69190612da4565b60405180910390f35b6103c960048036038101906103c491906127dd565b610db0565b005b6103e560048036038101906103e091906126ae565b610dc6565b005b61040160048036038101906103fc91906128e8565b610e29565b005b61041d600480360381019061041891906126ae565b610e88565b005b61043960048036038101906104349190612762565b610eeb565b005b610455600480360381019061045091906126ae565b610f4d565b005b610471600480360381019061046c91906128e8565b611099565b60405161047e9190612da4565b60405180910390f35b6104a1600480360381019061049c91906126ae565b611101565b6040516104ae9190612d67565b60405180910390f35b6104d160048036038101906104cc91906126d7565b61119e565b6040516104de9190612d89565b60405180910390f35b61050160048036038101906104fc91906126ae565b611232565b005b60007f80ac58cd000000000000000000000000000000000000000000000000000000007bffffffffffffffffffffffffffffffffffffffffffffffffffffffff1916827bffffffffffffffffffffffffffffffffffffffffffffffffffffffff191614806105ce57507f5b5e139f000000000000000000000000000000000000000000000000000000007bffffffffffffffffffffffffffffffffffffffffffffffffffffffff1916827bffffffffffffffffffffffffffffffffffffffffffffffffffffffff1916145b806105de57506105dd826112b6565b5b9050919050565b6060600080546105f49061329f565b80601f01602080910402602001604051908101604052809291908181526020018280546106209061329f565b801561066d5780601f106106425761010080835404028352916020019161066d565b820191906000526020600020905b81548152906001019060200180831161065057829003601f168201915b5050505050905090565b600061068282611320565b6004600083815260200190815260200160002060009054906101000a900473ffffffffffffffffffffffffffffffffffffffff169050919050565b60006106c88261098e565b90508073ffffffffffffffffffffffffffffffffffffffff168373ffffffffffffffffffffffffffffffffffffffff161415610739576040517f08c379a000000000000000000000000000000000000000000000000000000000815260040161073090612fa6565b60405180910390fd5b8073ffffffffffffffffffffffffffffffffffffffff1661075861136b565b73ffffffffffffffffffffffffffffffffffffffff16148061078757506107868161078161136b565b61119e565b5b6107c6576040517f08c379a00000000000000000000000000000000000000000000000000000000081526004016107bd90612f26565b60405180910390fd5b6107d08383611373565b505050565b6000600b54600a546009546107ea9190613124565b6107f491906131ab565b905090565b61080a61080461136b565b8261142c565b610849576040517f08c379a000000000000000000000000000000000000000000000000000000000815260040161084090612fc6565b60405180910390fd5b6108548383836114c1565b8173ffffffffffffffffffffffffffffffffffffffff163373ffffffffffffffffffffffffffffffffffffffff167fb1cfd1e182aebe78fef440377e48bdb2308938b30e7fbd5cb8ef549188714b49836040516108b19190613006565b60405180910390a3505050565b600860003373ffffffffffffffffffffffffffffffffffffffff1673ffffffffffffffffffffffffffffffffffffffff16815260200190815260200160002060009054906101000a900460ff1661094a576040517f08c379a000000000000000000000000000000000000000000000000000000000815260040161094190612ee6565b60405180910390fd5b80600c90805190602001906109609291906124d2565b5050565b61097f83838360405180602001604052806000815250610eeb565b505050565b6000600b54905090565b6000806002600084815260200190815260200160002060009054906101000a900473ffffffffffffffffffffffffffffffffffffffff169050600073ffffffffffffffffffffffffffffffffffffffff168173ffffffffffffffffffffffffffffffffffffffff161415610a37576040517f08c379a0000000000000000000000000000000000000000000000000000000008152600401610a2e90612f86565b60405180910390fd5b80915050919050565b6000600860008373ffffffffffffffffffffffffffffffffffffffff1673ffffffffffffffffffffffffffffffffffffffff16815260200190815260200160002060009054906101000a900460ff169050919050565b60008073ffffffffffffffffffffffffffffffffffffffff168273ffffffffffffffffffffffffffffffffffffffff161415610b07576040517f08c379a0000000000000000000000000000000000000000000000000000000008152600401610afe90612ec6565b60405180910390fd5b600360008373ffffffffffffffffffffffffffffffffffffffff1673ffffffffffffffffffffffffffffffffffffffff168152602001908152602001600020549050919050565b610b56611728565b610b6060006117a6565b565b6000600760009054906101000a900473ffffffffffffffffffffffffffffffffffffffff16905090565b600860003373ffffffffffffffffffffffffffffffffffffffff1673ffffffffffffffffffffffffffffffffffffffff16815260200190815260200160002060009054906101000a900460ff16610c18576040517f08c379a0000000000000000000000000000000000000000000000000000000008152600401610c0f90612ee6565b60405180910390fd5b6000600b5411610c5d576040517f08c379a0000000000000000000000000000000000000000000000000000000008152600401610c5490612e46565b60405180910390fd5b600b5460095410610ca3576040517f08c379a0000000000000000000000000000000000000000000000000000000008152600401610c9a90612ea6565b60405180910390fd5b60006009549050610cb4828261186c565b60096000815480929190610cc790613302565b91905055508173ffffffffffffffffffffffffffffffffffffffff167fb694df1c88cb5a8bfd307a17df7d6bfac43bc78292e29c65450111bccb70ef9282604051610d129190613006565b60405180910390a25050565b606060018054610d2d9061329f565b80601f0160208091040260200160405190810160405280929190818152602001828054610d599061329f565b8015610da65780601f10610d7b57610100808354040283529160200191610da6565b820191906000526020600020905b815481529060010190602001808311610d8957829003601f168201915b5050505050905090565b610dc2610dbb61136b565b838361188a565b5050565b610dce611728565b6000600860008373ffffffffffffffffffffffffffffffffffffffff1673ffffffffffffffffffffffffffffffffffffffff16815260200190815260200160002060006101000a81548160ff02191690831515021790555050565b610e31611728565b600b54600a5414610e77576040517f08c379a0000000000000000000000000000000000000000000000000000000008152600401610e6e90612f06565b60405180910390fd5b80600b8190555080600a8190555050565b610e90611728565b6001600860008373ffffffffffffffffffffffffffffffffffffffff1673ffffffffffffffffffffffffffffffffffffffff16815260200190815260200160002060006101000a81548160ff02191690831515021790555050565b610efc610ef661136b565b8361142c565b610f3b576040517f08c379a0000000000000000000000000000000000000000000000000000000008152600401610f3290612fe6565b60405180910390fd5b610f47848484846119f7565b50505050565b600860003373ffffffffffffffffffffffffffffffffffffffff1673ffffffffffffffffffffffffffffffffffffffff16815260200190815260200160002060009054906101000a900460ff16610fd9576040517f08c379a0000000000000000000000000000000000000000000000000000000008152600401610fd090612ee6565b60405180910390fd5b6000600b541161101e576040517f08c379a000000000000000000000000000000000000000000000000000000000815260040161101590612e46565b60405180910390fd5b6000600a54905061102f828261186c565b600a600081548092919061104290613302565b91905055508173ffffffffffffffffffffffffffffffffffffffff167fa31f914306c908f3be3354f123dff1ed921e83ad64082333e5ec322cda39a6ba8260405161108d9190613006565b60405180910390a25050565b60606110a482611320565b60006110ae611a53565b905060008151116110ce57604051806020016040528060008152506110f9565b806110d884611ae5565b6040516020016110e9929190612cdc565b6040516020818303038152906040525b915050919050565b6060600660008373ffffffffffffffffffffffffffffffffffffffff1673ffffffffffffffffffffffffffffffffffffffff16815260200190815260200160002060000160000180548060200260200160405190810160405280929190818152602001828054801561119257602002820191906000526020600020905b81548152602001906001019080831161117e575b50505050509050919050565b6000600560008473ffffffffffffffffffffffffffffffffffffffff1673ffffffffffffffffffffffffffffffffffffffff16815260200190815260200160002060008373ffffffffffffffffffffffffffffffffffffffff1673ffffffffffffffffffffffffffffffffffffffff16815260200190815260200160002060009054906101000a900460ff16905092915050565b61123a611728565b600073ffffffffffffffffffffffffffffffffffffffff168173ffffffffffffffffffffffffffffffffffffffff1614156112aa576040517f08c379a00000000000000000000000000000000000000000000000000000000081526004016112a190612de6565b60405180910390fd5b6112b3816117a6565b50565b60007f01ffc9a7000000000000000000000000000000000000000000000000000000007bffffffffffffffffffffffffffffffffffffffffffffffffffffffff1916827bffffffffffffffffffffffffffffffffffffffffffffffffffffffff1916149050919050565b61132981611c92565b611368576040517f08c379a000000000000000000000000000000000000000000000000000000000815260040161135f90612f86565b60405180910390fd5b50565b600033905090565b816004600083815260200190815260200160002060006101000a81548173ffffffffffffffffffffffffffffffffffffffff021916908373ffffffffffffffffffffffffffffffffffffffff160217905550808273ffffffffffffffffffffffffffffffffffffffff166113e68361098e565b73ffffffffffffffffffffffffffffffffffffffff167f8c5be1e5ebec7d5bd14f71427d1e84f3dd0314c0f7b2291e5b200ac8c7c3b92560405160405180910390a45050565b6000806114388361098e565b90508073ffffffffffffffffffffffffffffffffffffffff168473ffffffffffffffffffffffffffffffffffffffff16148061147a5750611479818561119e565b5b806114b857508373ffffffffffffffffffffffffffffffffffffffff166114a084610677565b73ffffffffffffffffffffffffffffffffffffffff16145b91505092915050565b8273ffffffffffffffffffffffffffffffffffffffff166114e18261098e565b73ffffffffffffffffffffffffffffffffffffffff1614611537576040517f08c379a000000000000000000000000000000000000000000000000000000000815260040161152e90612e06565b60405180910390fd5b600073ffffffffffffffffffffffffffffffffffffffff168273ffffffffffffffffffffffffffffffffffffffff1614156115a7576040517f08c379a000000000000000000000000000000000000000000000000000000000815260040161159e90612e66565b60405180910390fd5b6115b2838383611cfe565b6115bd600082611373565b6001600360008573ffffffffffffffffffffffffffffffffffffffff1673ffffffffffffffffffffffffffffffffffffffff168152602001908152602001600020600082825461160d91906131ab565b925050819055506001600360008473ffffffffffffffffffffffffffffffffffffffff1673ffffffffffffffffffffffffffffffffffffffff16815260200190815260200160002060008282546116649190613124565b92505081905550816002600083815260200190815260200160002060006101000a81548173ffffffffffffffffffffffffffffffffffffffff021916908373ffffffffffffffffffffffffffffffffffffffff160217905550808273ffffffffffffffffffffffffffffffffffffffff168473ffffffffffffffffffffffffffffffffffffffff167fddf252ad1be2c89b69c2b068fc378daa952ba7f163c4a11628f55a4df523b3ef60405160405180910390a4611723838383611de0565b505050565b61173061136b565b73ffffffffffffffffffffffffffffffffffffffff1661174e610b62565b73ffffffffffffffffffffffffffffffffffffffff16146117a4576040517f08c379a000000000000000000000000000000000000000000000000000000000815260040161179b90612f66565b60405180910390fd5b565b6000600760009054906101000a900473ffffffffffffffffffffffffffffffffffffffff16905081600760006101000a81548173ffffffffffffffffffffffffffffffffffffffff021916908373ffffffffffffffffffffffffffffffffffffffff1602179055508173ffffffffffffffffffffffffffffffffffffffff168173ffffffffffffffffffffffffffffffffffffffff167f8be0079c531659141344cd1fd0a4f28419497f9722a3daafe3b4186f6b6457e060405160405180910390a35050565b611886828260405180602001604052806000815250611de5565b5050565b8173ffffffffffffffffffffffffffffffffffffffff168373ffffffffffffffffffffffffffffffffffffffff1614156118f9576040517f08c379a00000000000000000000000000000000000000000000000000000000081526004016118f090612e86565b60405180910390fd5b80600560008573ffffffffffffffffffffffffffffffffffffffff1673ffffffffffffffffffffffffffffffffffffffff16815260200190815260200160002060008473ffffffffffffffffffffffffffffffffffffffff1673ffffffffffffffffffffffffffffffffffffffff16815260200190815260200160002060006101000a81548160ff0219169083151502179055508173ffffffffffffffffffffffffffffffffffffffff168373ffffffffffffffffffffffffffffffffffffffff167f17307eab39ab6107e8899845ad3d59bd9653f200f220920489ca2b5937696c31836040516119ea9190612d89565b60405180910390a3505050565b611a028484846114c1565b611a0e84848484611e40565b611a4d576040517f08c379a0000000000000000000000000000000000000000000000000000000008152600401611a4490612dc6565b60405180910390fd5b50505050565b6060600c8054611a629061329f565b80601f0160208091040260200160405190810160405280929190818152602001828054611a8e9061329f565b8015611adb5780601f10611ab057610100808354040283529160200191611adb565b820191906000526020600020905b815481529060010190602001808311611abe57829003601f168201915b5050505050905090565b60606000821415611b2d576040518060400160405280600181526020017f30000000000000000000000000000000000000000000000000000000000000008152509050611c8d565b600082905060005b60008214611b5f578080611b4890613302565b915050600a82611b58919061317a565b9150611b35565b60008167ffffffffffffffff811115611ba1577f4e487b7100000000000000000000000000000000000000000000000000000000600052604160045260246000fd5b6040519080825280601f01601f191660200182016040528015611bd35781602001600182028036833780820191505090505b5090505b60008514611c8657600182611bec91906131ab565b9150600a85611bfb919061334b565b6030611c079190613124565b60f81b818381518110611c43577f4e487b7100000000000000000000000000000000000000000000000000000000600052603260045260246000fd5b60200101907effffffffffffffffffffffffffffffffffffffffffffffffffffffffffffff1916908160001a905350600a85611c7f919061317a565b9450611bd7565b8093505050505b919050565b60008073ffffffffffffffffffffffffffffffffffffffff166002600084815260200190815260200160002060009054906101000a900473ffffffffffffffffffffffffffffffffffffffff1673ffffffffffffffffffffffffffffffffffffffff1614159050919050565b611d09838383611fd7565b600073ffffffffffffffffffffffffffffffffffffffff168373ffffffffffffffffffffffffffffffffffffffff161415611d4d57611d488282611fdc565b611ddb565b600073ffffffffffffffffffffffffffffffffffffffff168273ffffffffffffffffffffffffffffffffffffffff161415611d9157611d8c8382612032565b611dda565b8173ffffffffffffffffffffffffffffffffffffffff168373ffffffffffffffffffffffffffffffffffffffff1614611dd957611dce8282611fdc565b611dd88382612032565b5b5b5b505050565b505050565b611def8383612088565b611dfc6000848484611e40565b611e3b576040517f08c379a0000000000000000000000000000000000000000000000000000000008152600401611e3290612dc6565b60405180910390fd5b505050565b6000611e618473ffffffffffffffffffffffffffffffffffffffff16612262565b15611fca578373ffffffffffffffffffffffffffffffffffffffff1663150b7a02611e8a61136b565b8786866040518563ffffffff1660e01b8152600401611eac9493929190612d1b565b602060405180830381600087803b158015611ec657600080fd5b505af1925050508015611ef757506040513d601f19601f82011682018060405250810190611ef4919061287e565b60015b611f7a573d8060008114611f27576040519150601f19603f3d011682016040523d82523d6000602084013e611f2c565b606091505b50600081511415611f72576040517f08c379a0000000000000000000000000000000000000000000000000000000008152600401611f6990612dc6565b60405180910390fd5b805181602001fd5b63150b7a0260e01b7bffffffffffffffffffffffffffffffffffffffffffffffffffffffff1916817bffffffffffffffffffffffffffffffffffffffffffffffffffffffff191614915050611fcf565b600190505b949350505050565b505050565b61202d81600660008573ffffffffffffffffffffffffffffffffffffffff1673ffffffffffffffffffffffffffffffffffffffff16815260200190815260200160002061228590919063ffffffff16565b505050565b61208381600660008573ffffffffffffffffffffffffffffffffffffffff1673ffffffffffffffffffffffffffffffffffffffff16815260200190815260200160002061229f90919063ffffffff16565b505050565b600073ffffffffffffffffffffffffffffffffffffffff168273ffffffffffffffffffffffffffffffffffffffff1614156120f8576040517f08c379a00000000000000000000000000000000000000000000000000000000081526004016120ef90612f46565b60405180910390fd5b61210181611c92565b15612141576040517f08c379a000000000000000000000000000000000000000000000000000000000815260040161213890612e26565b60405180910390fd5b61214d60008383611cfe565b6001600360008473ffffffffffffffffffffffffffffffffffffffff1673ffffffffffffffffffffffffffffffffffffffff168152602001908152602001600020600082825461219d9190613124565b92505081905550816002600083815260200190815260200160002060006101000a81548173ffffffffffffffffffffffffffffffffffffffff021916908373ffffffffffffffffffffffffffffffffffffffff160217905550808273ffffffffffffffffffffffffffffffffffffffff16600073ffffffffffffffffffffffffffffffffffffffff167fddf252ad1be2c89b69c2b068fc378daa952ba7f163c4a11628f55a4df523b3ef60405160405180910390a461225e60008383611de0565b5050565b6000808273ffffffffffffffffffffffffffffffffffffffff163b119050919050565b6000612297836000018360001b6122b9565b905092915050565b60006122b1836000018360001b612329565b905092915050565b60006122c583836124af565b61231e578260000182908060018154018082558091505060019003906000526020600020016000909190919091505582600001805490508360010160008481526020019081526020016000208190555060019050612323565b600090505b92915050565b600080836001016000848152602001908152602001600020549050600081146124a357600060018261235b91906131ab565b905060006001866000018054905061237391906131ab565b905081811461242e5760008660000182815481106123ba577f4e487b7100000000000000000000000000000000000000000000000000000000600052603260045260246000fd5b9060005260206000200154905080876000018481548110612404577f4e487b7100000000000000000000000000000000000000000000000000000000600052603260045260246000fd5b90600052602060002001819055508387600101600083815260200190815260200160002081905550505b85600001805480612468577f4e487b7100000000000000000000000000000000000000000000000000000000600052603160045260246000fd5b6001900381819060005260206000200160009055905585600101600086815260200190815260200160002060009055600193505050506124a9565b60009150505b92915050565b600080836001016000848152602001908152602001600020541415905092915050565b8280546124de9061329f565b90600052602060002090601f0160209004810192826125005760008555612547565b82601f1061251957805160ff1916838001178555612547565b82800160010185558215612547579182015b8281111561254657825182559160200191906001019061252b565b5b5090506125549190612558565b5090565b5b80821115612571576000816000905550600101612559565b5090565b600061258861258384613046565b613021565b9050828152602081018484840111156125a057600080fd5b6125ab84828561325d565b509392505050565b60006125c66125c184613077565b613021565b9050828152602081018484840111156125de57600080fd5b6125e984828561325d565b509392505050565b600081359050612600816138a7565b92915050565b600081359050612615816138be565b92915050565b60008135905061262a816138d5565b92915050565b60008151905061263f816138d5565b92915050565b600082601f83011261265657600080fd5b8135612666848260208601612575565b91505092915050565b600082601f83011261268057600080fd5b81356126908482602086016125b3565b91505092915050565b6000813590506126a8816138ec565b92915050565b6000602082840312156126c057600080fd5b60006126ce848285016125f1565b91505092915050565b600080604083850312156126ea57600080fd5b60006126f8858286016125f1565b9250506020612709858286016125f1565b9150509250929050565b60008060006060848603121561272857600080fd5b6000612736868287016125f1565b9350506020612747868287016125f1565b925050604061275886828701612699565b9150509250925092565b6000806000806080858703121561277857600080fd5b6000612786878288016125f1565b9450506020612797878288016125f1565b93505060406127a887828801612699565b925050606085013567ffffffffffffffff8111156127c557600080fd5b6127d187828801612645565b91505092959194509250565b600080604083850312156127f057600080fd5b60006127fe858286016125f1565b925050602061280f85828601612606565b9150509250929050565b6000806040838503121561282c57600080fd5b600061283a858286016125f1565b925050602061284b85828601612699565b9150509250929050565b60006020828403121561286757600080fd5b60006128758482850161261b565b91505092915050565b60006020828403121561289057600080fd5b600061289e84828501612630565b91505092915050565b6000602082840312156128b957600080fd5b600082013567ffffffffffffffff8111156128d357600080fd5b6128df8482850161266f565b91505092915050565b6000602082840312156128fa57600080fd5b600061290884828501612699565b91505092915050565b600061291d83836129a5565b60208301905092915050565b612932816131df565b82525050565b6000612943826130b8565b61294d81856130e6565b9350612958836130a8565b8060005b838110156129895781516129708882612911565b975061297b836130d9565b92505060018101905061295c565b5085935050505092915050565b61299f816131f1565b82525050565b6129ae816131fd565b82525050565b60006129bf826130c3565b6129c981856130f7565b93506129d981856020860161326c565b6129e281613438565b840191505092915050565b60006129f8826130ce565b612a028185613108565b9350612a1281856020860161326c565b612a1b81613438565b840191505092915050565b6000612a31826130ce565b612a3b8185613119565b9350612a4b81856020860161326c565b80840191505092915050565b6000612a64603283613108565b9150612a6f82613449565b604082019050919050565b6000612a87602683613108565b9150612a9282613498565b604082019050919050565b6000612aaa602583613108565b9150612ab5826134e7565b604082019050919050565b6000612acd601c83613108565b9150612ad882613536565b602082019050919050565b6000612af0601683613108565b9150612afb8261355f565b602082019050919050565b6000612b13602483613108565b9150612b1e82613588565b604082019050919050565b6000612b36601983613108565b9150612b41826135d7565b602082019050919050565b6000612b59602083613108565b9150612b6482613600565b602082019050919050565b6000612b7c602983613108565b9150612b8782613629565b604082019050919050565b6000612b9f601b83613108565b9150612baa82613678565b602082019050919050565b6000612bc2603683613108565b9150612bcd826136a1565b604082019050919050565b6000612be5603e83613108565b9150612bf0826136f0565b604082019050919050565b6000612c08602083613108565b9150612c138261373f565b602082019050919050565b6000612c2b602083613108565b9150612c3682613768565b602082019050919050565b6000612c4e601883613108565b9150612c5982613791565b602082019050919050565b6000612c71602183613108565b9150612c7c826137ba565b604082019050919050565b6000612c94603183613108565b9150612c9f82613809565b604082019050919050565b6000612cb7602e83613108565b9150612cc282613858565b604082019050919050565b612cd681613253565b82525050565b6000612ce88285612a26565b9150612cf48284612a26565b91508190509392505050565b6000602082019050612d156000830184612929565b92915050565b6000608082019050612d306000830187612929565b612d3d6020830186612929565b612d4a6040830185612ccd565b8181036060830152612d5c81846129b4565b905095945050505050565b60006020820190508181036000830152612d818184612938565b905092915050565b6000602082019050612d9e6000830184612996565b92915050565b60006020820190508181036000830152612dbe81846129ed565b905092915050565b60006020820190508181036000830152612ddf81612a57565b9050919050565b60006020820190508181036000830152612dff81612a7a565b9050919050565b60006020820190508181036000830152612e1f81612a9d565b9050919050565b60006020820190508181036000830152612e3f81612ac0565b9050919050565b60006020820190508181036000830152612e5f81612ae3565b9050919050565b60006020820190508181036000830152612e7f81612b06565b9050919050565b60006020820190508181036000830152612e9f81612b29565b9050919050565b60006020820190508181036000830152612ebf81612b4c565b9050919050565b60006020820190508181036000830152612edf81612b6f565b9050919050565b60006020820190508181036000830152612eff81612b92565b9050919050565b60006020820190508181036000830152612f1f81612bb5565b9050919050565b60006020820190508181036000830152612f3f81612bd8565b9050919050565b60006020820190508181036000830152612f5f81612bfb565b9050919050565b60006020820190508181036000830152612f7f81612c1e565b9050919050565b60006020820190508181036000830152612f9f81612c41565b9050919050565b60006020820190508181036000830152612fbf81612c64565b9050919050565b60006020820190508181036000830152612fdf81612c87565b9050919050565b60006020820190508181036000830152612fff81612caa565b9050919050565b600060208201905061301b6000830184612ccd565b92915050565b600061302b61303c565b905061303782826132d1565b919050565b6000604051905090565b600067ffffffffffffffff82111561306157613060613409565b5b61306a82613438565b9050602081019050919050565b600067ffffffffffffffff82111561309257613091613409565b5b61309b82613438565b9050602081019050919050565b6000819050602082019050919050565b600081519050919050565b600081519050919050565b600081519050919050565b6000602082019050919050565b600082825260208201905092915050565b600082825260208201905092915050565b600082825260208201905092915050565b600081905092915050565b600061312f82613253565b915061313a83613253565b9250827fffffffffffffffffffffffffffffffffffffffffffffffffffffffffffffffff0382111561316f5761316e61337c565b5b828201905092915050565b600061318582613253565b915061319083613253565b9250826131a05761319f6133ab565b5b828204905092915050565b60006131b682613253565b91506131c183613253565b9250828210156131d4576131d361337c565b5b828203905092915050565b60006131ea82613233565b9050919050565b60008115159050919050565b6000819050919050565b60007fffffffff0000000000000000000000000000000000000000000000000000000082169050919050565b600073ffffffffffffffffffffffffffffffffffffffff82169050919050565b6000819050919050565b82818337600083830152505050565b60005b8381101561328a57808201518184015260208101905061326f565b83811115613299576000848401525b50505050565b600060028204905060018216806132b757607f821691505b602082108114156132cb576132ca6133da565b5b50919050565b6132da82613438565b810181811067ffffffffffffffff821117156132f9576132f8613409565b5b80604052505050565b600061330d82613253565b91507fffffffffffffffffffffffffffffffffffffffffffffffffffffffffffffffff8214156133405761333f61337c565b5b600182019050919050565b600061335682613253565b915061336183613253565b925082613371576133706133ab565b5b828206905092915050565b7f4e487b7100000000000000000000000000000000000000000000000000000000600052601160045260246000fd5b7f4e487b7100000000000000000000000000000000000000000000000000000000600052601260045260246000fd5b7f4e487b7100000000000000000000000000000000000000000000000000000000600052602260045260246000fd5b7f4e487b7100000000000000000000000000000000000000000000000000000000600052604160045260246000fd5b6000601f19601f8301169050919050565b7f4552433732313a207472616e7366657220746f206e6f6e20455243373231526560008201527f63656976657220696d706c656d656e7465720000000000000000000000000000602082015250565b7f4f776e61626c653a206e6577206f776e657220697320746865207a65726f206160008201527f6464726573730000000000000000000000000000000000000000000000000000602082015250565b7f4552433732313a207472616e736665722066726f6d20696e636f72726563742060008201527f6f776e6572000000000000000000000000000000000000000000000000000000602082015250565b7f4552433732313a20746f6b656e20616c7265616479206d696e74656400000000600082015250565b7f67656e657369734e756d206d7573742062652073657400000000000000000000600082015250565b7f4552433732313a207472616e7366657220746f20746865207a65726f2061646460008201527f7265737300000000000000000000000000000000000000000000000000000000602082015250565b7f4552433732313a20617070726f766520746f2063616c6c657200000000000000600082015250565b7f457863656564732067656e657369732073686f6573206c696d69746174696f6e600082015250565b7f4552433732313a2061646472657373207a65726f206973206e6f74206120766160008201527f6c6964206f776e65720000000000000000000000000000000000000000000000602082015250565b7f63616c6c6572206973206e6f7420746865206f70657261746f72730000000000600082015250565b7f43616e6e6f74207365742067656e657369734e756d207768656e20737061776e60008201527f696e672d73686f657320697320617661696c61626c6500000000000000000000602082015250565b7f4552433732313a20617070726f76652063616c6c6572206973206e6f7420746f60008201527f6b656e206f776e6572206e6f7220617070726f76656420666f7220616c6c0000602082015250565b7f4552433732313a206d696e7420746f20746865207a65726f2061646472657373600082015250565b7f4f776e61626c653a2063616c6c6572206973206e6f7420746865206f776e6572600082015250565b7f4552433732313a20696e76616c696420746f6b656e2049440000000000000000600082015250565b7f4552433732313a20617070726f76616c20746f2063757272656e74206f776e6560008201527f7200000000000000000000000000000000000000000000000000000000000000602082015250565b7f4552433732313a207472616e736665722063616c6c6572206973206e6f74206f60008201527f776e6572206e6f7220617070726f766564000000000000000000000000000000602082015250565b7f4552433732313a2063616c6c6572206973206e6f7420746f6b656e206f776e6560008201527f72206e6f7220617070726f766564000000000000000000000000000000000000602082015250565b6138b0816131df565b81146138bb57600080fd5b50565b6138c7816131f1565b81146138d257600080fd5b50565b6138de81613207565b81146138e957600080fd5b50565b6138f581613253565b811461390057600080fd5b5056fea264697066735822122064617bf1c20ee1b57f30c12d64b6f8ebb514dc6db47e0eb5ea80326fa51171d564736f6c63430008040033",
  "linkReferences": {},
  "deployedLinkReferences": {}
}