{
  "_format": "hh-sol-artifact-1",
  "contractName": "ExchangeHeeForFitterPass",
  "sourceName": "contracts/ExchangeHeeForFitterPass.sol",
  "abi": [
    {
      "inputs": [
        {
          "internalType": "address",
          "name": "heeAddr",
          "type": "address"
        },
        {
          "internalType": "address",
          "name": "fitterPassAddr",
          "type": "address"
        }
      ],
      "stateMutability": "nonpayable",
      "type": "constructor"
    },
    {
      "anonymous": false,
      "inputs": [
        {
          "indexed": true,
          "internalType": "address",
          "name": "wallet",
          "type": "address"
        },
        {
          "indexed": false,
          "internalType": "uint256",
          "name": "tokenAmount",
          "type": "uint256"
        },
        {
          "indexed": false,
          "internalType": "uint256",
          "name": "numberOfPass",
          "type": "uint256"
        }
      ],
      "name": "BurnHeeGetPass",
      "type": "event"
    },
    {
      "anonymous": false,
      "inputs": [
        {
          "indexed": true,
          "internalType": "address",
          "name": "previousOwner",
          "type": "address"
        },
        {
          "indexed": true,
          "internalType": "address",
          "name": "newOwner",
          "type": "address"
        }
      ],
      "name": "OwnershipTransferred",
      "type": "event"
    },
    {
      "inputs": [],
      "name": "closePool",
      "outputs": [],
      "stateMutability": "nonpayable",
      "type": "function"
    },
    {
      "inputs": [
        {
          "internalType": "uint256",
          "name": "numberOfPass",
          "type": "uint256"
        }
      ],
      "name": "exchangeHeeForFitterPass",
      "outputs": [],
      "stateMutability": "nonpayable",
      "type": "function"
    },
    {
      "inputs": [],
      "name": "getDestWallet",
      "outputs": [
        {
          "internalType": "address",
          "name": "",
          "type": "address"
        }
      ],
      "stateMutability": "view",
      "type": "function"
    },
    {
      "inputs": [
        {
          "internalType": "uint256",
          "name": "exchangeId",
          "type": "uint256"
        }
      ],
      "name": "getExchangeById",
      "outputs": [
        {
          "components": [
            {
              "internalType": "uint256",
              "name": "id",
              "type": "uint256"
            },
            {
              "internalType": "uint256",
              "name": "numberOfPass",
              "type": "uint256"
            },
            {
              "internalType": "uint256",
              "name": "tokenAmount",
              "type": "uint256"
            },
            {
              "internalType": "uint256",
              "name": "timestamp",
              "type": "uint256"
            }
          ],
          "internalType": "struct ExchangeHeeForFitterPass.ExchangeFP",
          "name": "",
          "type": "tuple"
        }
      ],
      "stateMutability": "view",
      "type": "function"
    },
    {
      "inputs": [
        {
          "internalType": "uint256",
          "name": "exchangeId",
          "type": "uint256"
        }
      ],
      "name": "getExchangeOwner",
      "outputs": [
        {
          "internalType": "address",
          "name": "",
          "type": "address"
        }
      ],
      "stateMutability": "view",
      "type": "function"
    },
    {
      "inputs": [],
      "name": "getPrice",
      "outputs": [
        {
          "internalType": "uint256",
          "name": "",
          "type": "uint256"
        }
      ],
      "stateMutability": "view",
      "type": "function"
    },
    {
      "inputs": [],
      "name": "getTotalTokenIn",
      "outputs": [
        {
          "internalType": "uint256",
          "name": "",
          "type": "uint256"
        }
      ],
      "stateMutability": "view",
      "type": "function"
    },
    {
      "inputs": [],
      "name": "getTotalTokenOut",
      "outputs": [
        {
          "internalType": "uint256",
          "name": "",
          "type": "uint256"
        }
      ],
      "stateMutability": "view",
      "type": "function"
    },
    {
      "inputs": [
        {
          "internalType": "address",
          "name": "wallet",
          "type": "address"
        }
      ],
      "name": "getUserExchanges",
      "outputs": [
        {
          "components": [
            {
              "internalType": "uint256",
              "name": "id",
              "type": "uint256"
            },
            {
              "internalType": "uint256",
              "name": "numberOfPass",
              "type": "uint256"
            },
            {
              "internalType": "uint256",
              "name": "tokenAmount",
              "type": "uint256"
            },
            {
              "internalType": "uint256",
              "name": "timestamp",
              "type": "uint256"
            }
          ],
          "internalType": "struct ExchangeHeeForFitterPass.ExchangeFP[]",
          "name": "",
          "type": "tuple[]"
        }
      ],
      "stateMutability": "view",
      "type": "function"
    },
    {
      "inputs": [
        {
          "internalType": "address",
          "name": "userWallet",
          "type": "address"
        }
      ],
      "name": "getUserTokenIn",
      "outputs": [
        {
          "internalType": "uint256",
          "name": "",
          "type": "uint256"
        }
      ],
      "stateMutability": "view",
      "type": "function"
    },
    {
      "inputs": [
        {
          "internalType": "address",
          "name": "userWallet",
          "type": "address"
        }
      ],
      "name": "getUserTokenOut",
      "outputs": [
        {
          "internalType": "uint256",
          "name": "",
          "type": "uint256"
        }
      ],
      "stateMutability": "view",
      "type": "function"
    },
    {
      "inputs": [
        {
          "internalType": "address",
          "name": "operator",
          "type": "address"
        }
      ],
      "name": "isOperator",
      "outputs": [
        {
          "internalType": "bool",
          "name": "",
          "type": "bool"
        }
      ],
      "stateMutability": "view",
      "type": "function"
    },
    {
      "inputs": [],
      "name": "openPool",
      "outputs": [],
      "stateMutability": "nonpayable",
      "type": "function"
    },
    {
      "inputs": [],
      "name": "owner",
      "outputs": [
        {
          "internalType": "address",
          "name": "",
          "type": "address"
        }
      ],
      "stateMutability": "view",
      "type": "function"
    },
    {
      "inputs": [
        {
          "internalType": "address",
          "name": "operator",
          "type": "address"
        }
      ],
      "name": "removeOperator",
      "outputs": [],
      "stateMutability": "nonpayable",
      "type": "function"
    },
    {
      "inputs": [],
      "name": "renounceOwnership",
      "outputs": [],
      "stateMutability": "nonpayable",
      "type": "function"
    },
    {
      "inputs": [
        {
          "internalType": "address",
          "name": "wallet",
          "type": "address"
        }
      ],
      "name": "setDestWallet",
      "outputs": [],
      "stateMutability": "nonpayable",
      "type": "function"
    },
    {
      "inputs": [
        {
          "internalType": "address",
          "name": "operator",
          "type": "address"
        }
      ],
      "name": "setOperator",
      "outputs": [],
      "stateMutability": "nonpayable",
      "type": "function"
    },
    {
      "inputs": [
        {
          "internalType": "uint256",
          "name": "price",
          "type": "uint256"
        }
      ],
      "name": "setPrice",
      "outputs": [],
      "stateMutability": "nonpayable",
      "type": "function"
    },
    {
      "inputs": [
        {
          "internalType": "address",
          "name": "newOwner",
          "type": "address"
        }
      ],
      "name": "transferOwnership",
      "outputs": [],
      "stateMutability": "nonpayable",
      "type": "function"
    }
  ],
  "bytecode": "0x60806040523480156200001157600080fd5b5060405162001f0438038062001f048339818101604052810190620000379190620002e0565b620000576200004b620001fd60201b60201c565b6200020560201b60201c565b60018060003373ffffffffffffffffffffffffffffffffffffffff1673ffffffffffffffffffffffffffffffffffffffff16815260200190815260200160002060006101000a81548160ff02191690831515021790555060018060003373ffffffffffffffffffffffffffffffffffffffff1673ffffffffffffffffffffffffffffffffffffffff16815260200190815260200160002060006101000a81548160ff02191690831515021790555061dead600260016101000a81548173ffffffffffffffffffffffffffffffffffffffff021916908373ffffffffffffffffffffffffffffffffffffffff160217905550685150ae84a8cdf000006007819055506001600260006101000a81548160ff02191690831515021790555080600860006101000a81548173ffffffffffffffffffffffffffffffffffffffff021916908373ffffffffffffffffffffffffffffffffffffffff16021790555081600960006101000a81548173ffffffffffffffffffffffffffffffffffffffff021916908373ffffffffffffffffffffffffffffffffffffffff16021790555050506200036f565b600033905090565b60008060009054906101000a900473ffffffffffffffffffffffffffffffffffffffff169050816000806101000a81548173ffffffffffffffffffffffffffffffffffffffff021916908373ffffffffffffffffffffffffffffffffffffffff1602179055508173ffffffffffffffffffffffffffffffffffffffff168173ffffffffffffffffffffffffffffffffffffffff167f8be0079c531659141344cd1fd0a4f28419497f9722a3daafe3b4186f6b6457e060405160405180910390a35050565b600081519050620002da8162000355565b92915050565b60008060408385031215620002f457600080fd5b60006200030485828601620002c9565b92505060206200031785828601620002c9565b9150509250929050565b60006200032e8262000335565b9050919050565b600073ffffffffffffffffffffffffffffffffffffffff82169050919050565b620003608162000321565b81146200036c57600080fd5b50565b611b85806200037f6000396000f3fe608060405234801561001057600080fd5b506004361061012c5760003560e01c8063b5ece82d116100ad578063e93f420011610071578063e93f42001461031d578063eb5797a41461034d578063f2fde38b14610357578063f576a29c14610373578063f764b9a0146103915761012c565b8063b5ece82d14610253578063bb9bf07e14610271578063cc09139a146102a1578063ccaacaff146102d1578063dc529131146102ed5761012c565b80638da5cb5b116100f45780638da5cb5b146101c357806391b7f5ed146101e157806398d5fdca146101fd578063ac8a584a1461021b578063b3ab15fb146102375761012c565b80630973fea21461013157806328bc6d321461014f57806366805de51461017f5780636d70f7ae14610189578063715018a6146101b9575b600080fd5b6101396103ad565b6040516101469190611740565b60405180910390f35b610169600480360381019061016491906112b3565b6103b7565b604051610176919061155f565b60405180910390f35b61018761043a565b005b6101a3600480360381019061019e9190611261565b6104e3565b6040516101b0919061160a565b60405180910390f35b6101c1610539565b005b6101cb61054d565b6040516101d8919061155f565b60405180910390f35b6101fb60048036038101906101f691906112b3565b610576565b005b6102056105cb565b6040516102129190611740565b60405180910390f35b61023560048036038101906102309190611261565b6105d5565b005b610251600480360381019061024c9190611261565b610638565b005b61025b61069a565b6040516102689190611740565b60405180910390f35b61028b60048036038101906102869190611261565b6106a4565b6040516102989190611740565b60405180910390f35b6102bb60048036038101906102b691906112b3565b6106ed565b6040516102c89190611725565b60405180910390f35b6102eb60048036038101906102e691906112b3565b6107bd565b005b61030760048036038101906103029190611261565b610c94565b6040516103149190611740565b60405180910390f35b61033760048036038101906103329190611261565b610cdd565b60405161034491906115e8565b60405180910390f35b610355610f0d565b005b610371600480360381019061036c9190611261565b610fb6565b005b61037b61103a565b604051610388919061155f565b60405180910390f35b6103ab60048036038101906103a69190611261565b611064565b005b6000600554905090565b600081600b5481106103fe576040517f08c379a00000000000000000000000000000000000000000000000000000000081526004016103f590611665565b60405180910390fd5b600d600084815260200190815260200160002060009054906101000a900473ffffffffffffffffffffffffffffffffffffffff16915050919050565b600160003373ffffffffffffffffffffffffffffffffffffffff1673ffffffffffffffffffffffffffffffffffffffff16815260200190815260200160002060009054906101000a900460ff166104c6576040517f08c379a00000000000000000000000000000000000000000000000000000000081526004016104bd906116a5565b60405180910390fd5b6000600260006101000a81548160ff021916908315150217905550565b6000600160008373ffffffffffffffffffffffffffffffffffffffff1673ffffffffffffffffffffffffffffffffffffffff16815260200190815260200160002060009054906101000a900460ff169050919050565b6105416110b0565b61054b600061112e565b565b60008060009054906101000a900473ffffffffffffffffffffffffffffffffffffffff16905090565b61057e6110b0565b600081116105c1576040517f08c379a00000000000000000000000000000000000000000000000000000000081526004016105b890611625565b60405180910390fd5b8060078190555050565b6000600754905090565b6105dd6110b0565b6000600160008373ffffffffffffffffffffffffffffffffffffffff1673ffffffffffffffffffffffffffffffffffffffff16815260200190815260200160002060006101000a81548160ff02191690831515021790555050565b6106406110b0565b60018060008373ffffffffffffffffffffffffffffffffffffffff1673ffffffffffffffffffffffffffffffffffffffff16815260200190815260200160002060006101000a81548160ff02191690831515021790555050565b6000600654905090565b6000600360008373ffffffffffffffffffffffffffffffffffffffff1673ffffffffffffffffffffffffffffffffffffffff168152602001908152602001600020549050919050565b6106f56111fa565b81600b54811061073a576040517f08c379a000000000000000000000000000000000000000000000000000000000815260040161073190611665565b60405180910390fd5b600a8381548110610774577f4e487b7100000000000000000000000000000000000000000000000000000000600052603260045260246000fd5b9060005260206000209060040201604051806080016040529081600082015481526020016001820154815260200160028201548152602001600382015481525050915050919050565b600260009054906101000a900460ff1661080c576040517f08c379a000000000000000000000000000000000000000000000000000000000815260040161080390611705565b60405180910390fd5b600060075411610851576040517f08c379a000000000000000000000000000000000000000000000000000000000815260040161084890611645565b60405180910390fd5b60008111610894576040517f08c379a000000000000000000000000000000000000000000000000000000000815260040161088b906116e5565b60405180910390fd5b6000600754826108a49190611824565b9050600960009054906101000a900473ffffffffffffffffffffffffffffffffffffffff1673ffffffffffffffffffffffffffffffffffffffff166323b872dd33600260019054906101000a900473ffffffffffffffffffffffffffffffffffffffff16846040518463ffffffff1660e01b81526004016109279392919061157a565b602060405180830381600087803b15801561094157600080fd5b505af1158015610955573d6000803e3d6000fd5b505050506040513d601f19601f82011682018060405250810190610979919061128a565b50600860009054906101000a900473ffffffffffffffffffffffffffffffffffffffff1673ffffffffffffffffffffffffffffffffffffffff1663156e29f6336000856040518463ffffffff1660e01b81526004016109da939291906115b1565b600060405180830381600087803b1580156109f457600080fd5b505af1158015610a08573d6000803e3d6000fd5b505050506000600b549050600060405180608001604052808381526020018581526020018481526020014281525090506001600b6000828254610a4b91906117ce565b92505081905550600a819080600181540180825580915050600190039060005260206000209060040201600090919091909150600082015181600001556020820151816001015560408201518160020155606082015181600301555050600c60003373ffffffffffffffffffffffffffffffffffffffff1673ffffffffffffffffffffffffffffffffffffffff16815260200190815260200160002082908060018154018082558091505060019003906000526020600020016000909190919091505533600d600084815260200190815260200160002060006101000a81548173ffffffffffffffffffffffffffffffffffffffff021916908373ffffffffffffffffffffffffffffffffffffffff16021790555082600360003373ffffffffffffffffffffffffffffffffffffffff1673ffffffffffffffffffffffffffffffffffffffff1681526020019081526020016000206000828254610baf91906117ce565b9250508190555083600460003373ffffffffffffffffffffffffffffffffffffffff1673ffffffffffffffffffffffffffffffffffffffff1681526020019081526020016000206000828254610c0591906117ce565b925050819055508260056000828254610c1e91906117ce565b925050819055508360066000828254610c3791906117ce565b925050819055503373ffffffffffffffffffffffffffffffffffffffff167f988358c9b87c2dc05930b8fd70209010f50577ba2c3103123c422bfc531f98348486604051610c8692919061175b565b60405180910390a250505050565b6000600460008373ffffffffffffffffffffffffffffffffffffffff1673ffffffffffffffffffffffffffffffffffffffff168152602001908152602001600020549050919050565b60606000600c60008473ffffffffffffffffffffffffffffffffffffffff1673ffffffffffffffffffffffffffffffffffffffff16815260200190815260200160002080549050905060008167ffffffffffffffff811115610d68577f4e487b7100000000000000000000000000000000000000000000000000000000600052604160045260246000fd5b604051908082528060200260200182016040528015610da157816020015b610d8e6111fa565b815260200190600190039081610d865790505b50905060005b82811015610f0257600a600c60008773ffffffffffffffffffffffffffffffffffffffff1673ffffffffffffffffffffffffffffffffffffffff1681526020019081526020016000208281548110610e28577f4e487b7100000000000000000000000000000000000000000000000000000000600052603260045260246000fd5b906000526020600020015481548110610e6a577f4e487b7100000000000000000000000000000000000000000000000000000000600052603260045260246000fd5b9060005260206000209060040201604051806080016040529081600082015481526020016001820154815260200160028201548152602001600382015481525050828281518110610ee4577f4e487b7100000000000000000000000000000000000000000000000000000000600052603260045260246000fd5b60200260200101819052508080610efa906118d8565b915050610da7565b508092505050919050565b600160003373ffffffffffffffffffffffffffffffffffffffff1673ffffffffffffffffffffffffffffffffffffffff16815260200190815260200160002060009054906101000a900460ff16610f99576040517f08c379a0000000000000000000000000000000000000000000000000000000008152600401610f90906116a5565b60405180910390fd5b6001600260006101000a81548160ff021916908315150217905550565b610fbe6110b0565b600073ffffffffffffffffffffffffffffffffffffffff168173ffffffffffffffffffffffffffffffffffffffff16141561102e576040517f08c379a000000000000000000000000000000000000000000000000000000000815260040161102590611685565b60405180910390fd5b6110378161112e565b50565b6000600260019054906101000a900473ffffffffffffffffffffffffffffffffffffffff16905090565b61106c6110b0565b80600260016101000a81548173ffffffffffffffffffffffffffffffffffffffff021916908373ffffffffffffffffffffffffffffffffffffffff16021790555050565b6110b86111f2565b73ffffffffffffffffffffffffffffffffffffffff166110d661054d565b73ffffffffffffffffffffffffffffffffffffffff161461112c576040517f08c379a0000000000000000000000000000000000000000000000000000000008152600401611123906116c5565b60405180910390fd5b565b60008060009054906101000a900473ffffffffffffffffffffffffffffffffffffffff169050816000806101000a81548173ffffffffffffffffffffffffffffffffffffffff021916908373ffffffffffffffffffffffffffffffffffffffff1602179055508173ffffffffffffffffffffffffffffffffffffffff168173ffffffffffffffffffffffffffffffffffffffff167f8be0079c531659141344cd1fd0a4f28419497f9722a3daafe3b4186f6b6457e060405160405180910390a35050565b600033905090565b6040518060800160405280600081526020016000815260200160008152602001600081525090565b60008135905061123181611b0a565b92915050565b60008151905061124681611b21565b92915050565b60008135905061125b81611b38565b92915050565b60006020828403121561127357600080fd5b600061128184828501611222565b91505092915050565b60006020828403121561129c57600080fd5b60006112aa84828501611237565b91505092915050565b6000602082840312156112c557600080fd5b60006112d38482850161124c565b91505092915050565b60006112e88383611497565b60808301905092915050565b6112fd8161187e565b82525050565b600061130e82611794565b61131881856117ac565b935061132383611784565b8060005b8381101561135457815161133b88826112dc565b97506113468361179f565b925050600181019050611327565b5085935050505092915050565b61136a81611890565b82525050565b611379816118c6565b82525050565b600061138c6016836117bd565b915061139782611950565b602082019050919050565b60006113af6033836117bd565b91506113ba82611979565b604082019050919050565b60006113d26012836117bd565b91506113dd826119c8565b602082019050919050565b60006113f56026836117bd565b9150611400826119f1565b604082019050919050565b6000611418601b836117bd565b915061142382611a40565b602082019050919050565b600061143b6020836117bd565b915061144682611a69565b602082019050919050565b600061145e602e836117bd565b915061146982611a92565b604082019050919050565b60006114816010836117bd565b915061148c82611ae1565b602082019050919050565b6080820160008201516114ad6000850182611541565b5060208201516114c06020850182611541565b5060408201516114d36040850182611541565b5060608201516114e66060850182611541565b50505050565b6080820160008201516115026000850182611541565b5060208201516115156020850182611541565b5060408201516115286040850182611541565b50606082015161153b6060850182611541565b50505050565b61154a816118bc565b82525050565b611559816118bc565b82525050565b600060208201905061157460008301846112f4565b92915050565b600060608201905061158f60008301866112f4565b61159c60208301856112f4565b6115a96040830184611550565b949350505050565b60006060820190506115c660008301866112f4565b6115d36020830185611370565b6115e06040830184611550565b949350505050565b600060208201905081810360008301526116028184611303565b905092915050565b600060208201905061161f6000830184611361565b92915050565b6000602082019050818103600083015261163e8161137f565b9050919050565b6000602082019050818103600083015261165e816113a2565b9050919050565b6000602082019050818103600083015261167e816113c5565b9050919050565b6000602082019050818103600083015261169e816113e8565b9050919050565b600060208201905081810360008301526116be8161140b565b9050919050565b600060208201905081810360008301526116de8161142e565b9050919050565b600060208201905081810360008301526116fe81611451565b9050919050565b6000602082019050818103600083015261171e81611474565b9050919050565b600060808201905061173a60008301846114ec565b92915050565b60006020820190506117556000830184611550565b92915050565b60006040820190506117706000830185611550565b61177d6020830184611550565b9392505050565b6000819050602082019050919050565b600081519050919050565b6000602082019050919050565b600082825260208201905092915050565b600082825260208201905092915050565b60006117d9826118bc565b91506117e4836118bc565b9250827fffffffffffffffffffffffffffffffffffffffffffffffffffffffffffffffff0382111561181957611818611921565b5b828201905092915050565b600061182f826118bc565b915061183a836118bc565b9250817fffffffffffffffffffffffffffffffffffffffffffffffffffffffffffffffff048311821515161561187357611872611921565b5b828202905092915050565b60006118898261189c565b9050919050565b60008115159050919050565b600073ffffffffffffffffffffffffffffffffffffffff82169050919050565b6000819050919050565b60006118d1826118bc565b9050919050565b60006118e3826118bc565b91507fffffffffffffffffffffffffffffffffffffffffffffffffffffffffffffffff82141561191657611915611921565b5b600182019050919050565b7f4e487b7100000000000000000000000000000000000000000000000000000000600052601160045260246000fd5b7f5072696365206d757374206e6f74206265207a65726f00000000000000000000600082015250565b7f546865206d696e696d616c20616d6f756e74206f6620484545206d757374206260008201527f652067726561746572207468616e207a65726f00000000000000000000000000602082015250565b7f496e76616c69642065786368616e676549640000000000000000000000000000600082015250565b7f4f776e61626c653a206e6577206f776e657220697320746865207a65726f206160008201527f6464726573730000000000000000000000000000000000000000000000000000602082015250565b7f63616c6c6572206973206e6f7420746865206f70657261746f72730000000000600082015250565b7f4f776e61626c653a2063616c6c6572206973206e6f7420746865206f776e6572600082015250565b7f4e756d626572206f662046697474657250617373206d7573742062652067726560008201527f61746572207468616e207a65726f000000000000000000000000000000000000602082015250565b7f4e6f74206f70656e696e67206e6f772100000000000000000000000000000000600082015250565b611b138161187e565b8114611b1e57600080fd5b50565b611b2a81611890565b8114611b3557600080fd5b50565b611b41816118bc565b8114611b4c57600080fd5b5056fea26469706673582212202d7a35482ace414050242477d9482397f5ecffae28809a38838f7d253db0143b64736f6c63430008040033",
  "linkReferences": {},
  "deployedLinkReferences": {}
}