{
  "_format": "hh-sol-artifact-1",
  "contractName": "FitterPassGiveAway",
  "sourceName": "contracts/FitterPassGiveAway.sol",
  "abi": [
    {
      "inputs": [
        {
          "internalType": "address",
          "name": "fitterPassAddr",
          "type": "address"
        },
        {
          "internalType": "bytes32",
          "name": "merkleRoot",
          "type": "bytes32"
        },
        {
          "internalType": "uint256",
          "name": "totalToken",
          "type": "uint256"
        }
      ],
      "stateMutability": "nonpayable",
      "type": "constructor"
    },
    {
      "anonymous": false,
      "inputs": [
        {
          "indexed": true,
          "internalType": "address",
          "name": "userWallet",
          "type": "address"
        },
        {
          "indexed": false,
          "internalType": "uint256",
          "name": "numberOfPass",
          "type": "uint256"
        }
      ],
      "name": "ClaimFitterPass",
      "type": "event"
    },
    {
      "anonymous": false,
      "inputs": [
        {
          "indexed": true,
          "internalType": "address",
          "name": "previousOwner",
          "type": "address"
        },
        {
          "indexed": true,
          "internalType": "address",
          "name": "newOwner",
          "type": "address"
        }
      ],
      "name": "OwnershipTransferred",
      "type": "event"
    },
    {
      "inputs": [],
      "name": "_merkleRoot",
      "outputs": [
        {
          "internalType": "bytes32",
          "name": "",
          "type": "bytes32"
        }
      ],
      "stateMutability": "view",
      "type": "function"
    },
    {
      "inputs": [
        {
          "internalType": "address",
          "name": "wallet",
          "type": "address"
        },
        {
          "internalType": "uint256",
          "name": "amount",
          "type": "uint256"
        },
        {
          "internalType": "bytes32[]",
          "name": "merkleProof",
          "type": "bytes32[]"
        }
      ],
      "name": "claim",
      "outputs": [],
      "stateMutability": "nonpayable",
      "type": "function"
    },
    {
      "inputs": [
        {
          "internalType": "address",
          "name": "wallet",
          "type": "address"
        }
      ],
      "name": "getNumberOfClaimedItem",
      "outputs": [
        {
          "internalType": "uint256",
          "name": "",
          "type": "uint256"
        }
      ],
      "stateMutability": "view",
      "type": "function"
    },
    {
      "inputs": [],
      "name": "owner",
      "outputs": [
        {
          "internalType": "address",
          "name": "",
          "type": "address"
        }
      ],
      "stateMutability": "view",
      "type": "function"
    },
    {
      "inputs": [],
      "name": "renounceOwnership",
      "outputs": [],
      "stateMutability": "nonpayable",
      "type": "function"
    },
    {
      "inputs": [],
      "name": "startClaim",
      "outputs": [],
      "stateMutability": "nonpayable",
      "type": "function"
    },
    {
      "inputs": [],
      "name": "stopClaim",
      "outputs": [],
      "stateMutability": "nonpayable",
      "type": "function"
    },
    {
      "inputs": [
        {
          "internalType": "address",
          "name": "newOwner",
          "type": "address"
        }
      ],
      "name": "transferOwnership",
      "outputs": [],
      "stateMutability": "nonpayable",
      "type": "function"
    },
    {
      "inputs": [
        {
          "internalType": "bytes32",
          "name": "merkleRoot",
          "type": "bytes32"
        },
        {
          "internalType": "uint256",
          "name": "totalAmount",
          "type": "uint256"
        }
      ],
      "name": "updateRoot",
      "outputs": [],
      "stateMutability": "nonpayable",
      "type": "function"
    }
  ],
  "bytecode": "0x60806040523480156200001157600080fd5b506040516200130b3803806200130b8339818101604052810190620000379190620001e3565b620000576200004b620000d260201b60201c565b620000da60201b60201c565b82600660006101000a81548173ffffffffffffffffffffffffffffffffffffffff021916908373ffffffffffffffffffffffffffffffffffffffff160217905550816001819055508060028190555060006003819055506000600660146101000a81548160ff021916908315150217905550505050620002cf565b600033905090565b60008060009054906101000a900473ffffffffffffffffffffffffffffffffffffffff169050816000806101000a81548173ffffffffffffffffffffffffffffffffffffffff021916908373ffffffffffffffffffffffffffffffffffffffff1602179055508173ffffffffffffffffffffffffffffffffffffffff168173ffffffffffffffffffffffffffffffffffffffff167f8be0079c531659141344cd1fd0a4f28419497f9722a3daafe3b4186f6b6457e060405160405180910390a35050565b600081519050620001af8162000281565b92915050565b600081519050620001c6816200029b565b92915050565b600081519050620001dd81620002b5565b92915050565b600080600060608486031215620001f957600080fd5b600062000209868287016200019e565b93505060206200021c86828701620001b5565b92505060406200022f86828701620001cc565b9150509250925092565b6000620002468262000257565b9050919050565b6000819050919050565b600073ffffffffffffffffffffffffffffffffffffffff82169050919050565b6000819050919050565b6200028c8162000239565b81146200029857600080fd5b50565b620002a6816200024d565b8114620002b257600080fd5b50565b620002c08162000277565b8114620002cc57600080fd5b50565b61102c80620002df6000396000f3fe608060405234801561001057600080fd5b50600436106100935760003560e01c80638da5cb5b116100665780638da5cb5b1461010c578063c2e3e62b1461012a578063ecbfc07714610146578063f2fde38b14610150578063ff6c9bc91461016c57610093565b80630a82cfe9146100985780632fc37ab2146100c85780633d13f874146100e6578063715018a614610102575b600080fd5b6100b260048036038101906100ad91906109a2565b610176565b6040516100bf9190610d08565b60405180910390f35b6100d06101bf565b6040516100dd9190610c2d565b60405180910390f35b61010060048036038101906100fb91906109cb565b6101c5565b005b61010a610506565b005b61011461051a565b6040516101219190610bdb565b60405180910390f35b610144600480360381019061013f9190610a37565b610543565b005b61014e61055d565b005b61016a600480360381019061016591906109a2565b610582565b005b610174610606565b005b6000600560008373ffffffffffffffffffffffffffffffffffffffff1673ffffffffffffffffffffffffffffffffffffffff168152602001908152602001600020549050919050565b60015481565b60011515600660149054906101000a900460ff1615151461021b576040517f08c379a000000000000000000000000000000000000000000000000000000000815260040161021290610c48565b60405180910390fd5b6000831161025e576040517f08c379a000000000000000000000000000000000000000000000000000000000815260040161025590610ce8565b60405180910390fd5b61026a8484848461062b565b6102a9576040517f08c379a00000000000000000000000000000000000000000000000000000000081526004016102a090610cc8565b60405180910390fd5b6000600460008673ffffffffffffffffffffffffffffffffffffffff1673ffffffffffffffffffffffffffffffffffffffff1681526020019081526020016000205414156102fc576102fb84846106b2565b5b6000600560008673ffffffffffffffffffffffffffffffffffffffff1673ffffffffffffffffffffffffffffffffffffffff168152602001908152602001600020541461037e576040517f08c379a000000000000000000000000000000000000000000000000000000000815260040161037590610c88565b60405180910390fd5b6000600460008673ffffffffffffffffffffffffffffffffffffffff1673ffffffffffffffffffffffffffffffffffffffff16815260200190815260200160002054905080600560008773ffffffffffffffffffffffffffffffffffffffff1673ffffffffffffffffffffffffffffffffffffffff1681526020019081526020016000208190555080600360008282546104189190610d34565b92505081905550600660009054906101000a900473ffffffffffffffffffffffffffffffffffffffff1673ffffffffffffffffffffffffffffffffffffffff1663156e29f6866000846040518463ffffffff1660e01b815260040161047f93929190610bf6565b600060405180830381600087803b15801561049957600080fd5b505af11580156104ad573d6000803e3d6000fd5b505050508473ffffffffffffffffffffffffffffffffffffffff167fb510f62f9fc79b9be7bf31479c7b0edf197ba9c600d3c14e7029e3e61b88fb28826040516104f79190610d08565b60405180910390a25050505050565b61050e6106fa565b6105186000610778565b565b60008060009054906101000a900473ffffffffffffffffffffffffffffffffffffffff16905090565b61054b6106fa565b81600181905550806002819055505050565b6105656106fa565b6001600660146101000a81548160ff021916908315150217905550565b61058a6106fa565b600073ffffffffffffffffffffffffffffffffffffffff168173ffffffffffffffffffffffffffffffffffffffff1614156105fa576040517f08c379a00000000000000000000000000000000000000000000000000000000081526004016105f190610c68565b60405180910390fd5b61060381610778565b50565b61060e6106fa565b6000600660146101000a81548160ff021916908315150217905550565b6000808585604051602001610641929190610baf565b6040516020818303038152906040528051906020012090506106a7848480806020026020016040519081016040528093929190818152602001838360200280828437600081840152601f19601f820116905080830192505050505050506001548361083c565b915050949350505050565b80600460008473ffffffffffffffffffffffffffffffffffffffff1673ffffffffffffffffffffffffffffffffffffffff168152602001908152602001600020819055505050565b610702610853565b73ffffffffffffffffffffffffffffffffffffffff1661072061051a565b73ffffffffffffffffffffffffffffffffffffffff1614610776576040517f08c379a000000000000000000000000000000000000000000000000000000000815260040161076d90610ca8565b60405180910390fd5b565b60008060009054906101000a900473ffffffffffffffffffffffffffffffffffffffff169050816000806101000a81548173ffffffffffffffffffffffffffffffffffffffff021916908373ffffffffffffffffffffffffffffffffffffffff1602179055508173ffffffffffffffffffffffffffffffffffffffff168173ffffffffffffffffffffffffffffffffffffffff167f8be0079c531659141344cd1fd0a4f28419497f9722a3daafe3b4186f6b6457e060405160405180910390a35050565b600082610849858461085b565b1490509392505050565b600033905090565b60008082905060005b84518110156108cc576108b7828683815181106108aa577f4e487b7100000000000000000000000000000000000000000000000000000000600052603260045260246000fd5b60200260200101516108d7565b915080806108c490610de2565b915050610864565b508091505092915050565b60008183106108ef576108ea8284610902565b6108fa565b6108f98383610902565b5b905092915050565b600082600052816020526040600020905092915050565b60008135905061092881610fb1565b92915050565b60008083601f84011261094057600080fd5b8235905067ffffffffffffffff81111561095957600080fd5b60208301915083602082028301111561097157600080fd5b9250929050565b60008135905061098781610fc8565b92915050565b60008135905061099c81610fdf565b92915050565b6000602082840312156109b457600080fd5b60006109c284828501610919565b91505092915050565b600080600080606085870312156109e157600080fd5b60006109ef87828801610919565b9450506020610a008782880161098d565b935050604085013567ffffffffffffffff811115610a1d57600080fd5b610a298782880161092e565b925092505092959194509250565b60008060408385031215610a4a57600080fd5b6000610a5885828601610978565b9250506020610a698582860161098d565b9150509250929050565b610a7c81610d8a565b82525050565b610a93610a8e82610d8a565b610e2b565b82525050565b610aa281610d9c565b82525050565b610ab181610dd0565b82525050565b6000610ac4601183610d23565b9150610acf82610e95565b602082019050919050565b6000610ae7602683610d23565b9150610af282610ebe565b604082019050919050565b6000610b0a601583610d23565b9150610b1582610f0d565b602082019050919050565b6000610b2d602083610d23565b9150610b3882610f36565b602082019050919050565b6000610b50601483610d23565b9150610b5b82610f5f565b602082019050919050565b6000610b73601583610d23565b9150610b7e82610f88565b602082019050919050565b610b9281610dc6565b82525050565b610ba9610ba482610dc6565b610e4f565b82525050565b6000610bbb8285610a82565b601482019150610bcb8284610b98565b6020820191508190509392505050565b6000602082019050610bf06000830184610a73565b92915050565b6000606082019050610c0b6000830186610a73565b610c186020830185610aa8565b610c256040830184610b89565b949350505050565b6000602082019050610c426000830184610a99565b92915050565b60006020820190508181036000830152610c6181610ab7565b9050919050565b60006020820190508181036000830152610c8181610ada565b9050919050565b60006020820190508181036000830152610ca181610afd565b9050919050565b60006020820190508181036000830152610cc181610b20565b9050919050565b60006020820190508181036000830152610ce181610b43565b9050919050565b60006020820190508181036000830152610d0181610b66565b9050919050565b6000602082019050610d1d6000830184610b89565b92915050565b600082825260208201905092915050565b6000610d3f82610dc6565b9150610d4a83610dc6565b9250827fffffffffffffffffffffffffffffffffffffffffffffffffffffffffffffffff03821115610d7f57610d7e610e59565b5b828201905092915050565b6000610d9582610da6565b9050919050565b6000819050919050565b600073ffffffffffffffffffffffffffffffffffffffff82169050919050565b6000819050919050565b6000610ddb82610dc6565b9050919050565b6000610ded82610dc6565b91507fffffffffffffffffffffffffffffffffffffffffffffffffffffffffffffffff821415610e2057610e1f610e59565b5b600182019050919050565b6000610e3682610e3d565b9050919050565b6000610e4882610e88565b9050919050565b6000819050919050565b7f4e487b7100000000000000000000000000000000000000000000000000000000600052601160045260246000fd5b60008160601b9050919050565b7f43616e6e6f7420636c61696d206e6f7721000000000000000000000000000000600082015250565b7f4f776e61626c653a206e6577206f776e657220697320746865207a65726f206160008201527f6464726573730000000000000000000000000000000000000000000000000000602082015250565b7f6e6f7468696e67206c65667420746f20636c61696d0000000000000000000000600082015250565b7f4f776e61626c653a2063616c6c6572206973206e6f7420746865206f776e6572600082015250565b7f496e76616c6964206d65726b6c652070726f6f66000000000000000000000000600082015250565b7f616d6f756e742063616e6e6f74206265207a65726f0000000000000000000000600082015250565b610fba81610d8a565b8114610fc557600080fd5b50565b610fd181610d9c565b8114610fdc57600080fd5b50565b610fe881610dc6565b8114610ff357600080fd5b5056fea2646970667358221220dd2ff3ce0b732804f6c0fe45e7247292e1509fb2ca985d9aed4e231458457c0064736f6c63430008040033",
  "linkReferences": {},
  "deployedLinkReferences": {}
}