{
  "_format": "hh-sol-artifact-1",
  "contractName": "FitterPassBurningEvent",
  "sourceName": "contracts/FitterPassBurningEvent.sol",
  "abi": [
    {
      "anonymous": false,
      "inputs": [
        {
          "indexed": true,
          "internalType": "address",
          "name": "wallet",
          "type": "address"
        },
        {
          "indexed": false,
          "internalType": "uint256",
          "name": "amount",
          "type": "uint256"
        }
      ],
      "name": "AddFitterPass",
      "type": "event"
    },
    {
      "anonymous": false,
      "inputs": [
        {
          "indexed": false,
          "internalType": "address",
          "name": "previousAdmin",
          "type": "address"
        },
        {
          "indexed": false,
          "internalType": "address",
          "name": "newAdmin",
          "type": "address"
        }
      ],
      "name": "AdminChanged",
      "type": "event"
    },
    {
      "anonymous": false,
      "inputs": [
        {
          "indexed": true,
          "internalType": "address",
          "name": "beacon",
          "type": "address"
        }
      ],
      "name": "BeaconUpgraded",
      "type": "event"
    },
    {
      "anonymous": false,
      "inputs": [
        {
          "indexed": false,
          "internalType": "uint8",
          "name": "version",
          "type": "uint8"
        }
      ],
      "name": "Initialized",
      "type": "event"
    },
    {
      "anonymous": false,
      "inputs": [
        {
          "indexed": true,
          "internalType": "address",
          "name": "previousOwner",
          "type": "address"
        },
        {
          "indexed": true,
          "internalType": "address",
          "name": "newOwner",
          "type": "address"
        }
      ],
      "name": "OwnershipTransferred",
      "type": "event"
    },
    {
      "anonymous": false,
      "inputs": [
        {
          "indexed": true,
          "internalType": "address",
          "name": "wallet",
          "type": "address"
        }
      ],
      "name": "Register",
      "type": "event"
    },
    {
      "anonymous": false,
      "inputs": [
        {
          "indexed": true,
          "internalType": "address",
          "name": "implementation",
          "type": "address"
        }
      ],
      "name": "Upgraded",
      "type": "event"
    },
    {
      "inputs": [
        {
          "internalType": "uint256",
          "name": "amount",
          "type": "uint256"
        }
      ],
      "name": "addFitterPass",
      "outputs": [],
      "stateMutability": "nonpayable",
      "type": "function"
    },
    {
      "inputs": [
        {
          "internalType": "uint256",
          "name": "extendTime",
          "type": "uint256"
        }
      ],
      "name": "extendEndTime",
      "outputs": [],
      "stateMutability": "nonpayable",
      "type": "function"
    },
    {
      "inputs": [],
      "name": "getEndTime",
      "outputs": [
        {
          "internalType": "uint256",
          "name": "",
          "type": "uint256"
        }
      ],
      "stateMutability": "view",
      "type": "function"
    },
    {
      "inputs": [],
      "name": "getImplementation",
      "outputs": [
        {
          "internalType": "address",
          "name": "",
          "type": "address"
        }
      ],
      "stateMutability": "view",
      "type": "function"
    },
    {
      "inputs": [
        {
          "internalType": "address",
          "name": "wallet",
          "type": "address"
        }
      ],
      "name": "getNumberOfFitterPass",
      "outputs": [
        {
          "internalType": "uint256",
          "name": "",
          "type": "uint256"
        }
      ],
      "stateMutability": "view",
      "type": "function"
    },
    {
      "inputs": [
        {
          "internalType": "address",
          "name": "rewardItemContract",
          "type": "address"
        }
      ],
      "name": "initialize",
      "outputs": [],
      "stateMutability": "nonpayable",
      "type": "function"
    },
    {
      "inputs": [
        {
          "internalType": "address",
          "name": "wallet",
          "type": "address"
        }
      ],
      "name": "isRegistered",
      "outputs": [
        {
          "internalType": "bool",
          "name": "",
          "type": "bool"
        }
      ],
      "stateMutability": "view",
      "type": "function"
    },
    {
      "inputs": [
        {
          "internalType": "address",
          "name": "",
          "type": "address"
        },
        {
          "internalType": "address",
          "name": "",
          "type": "address"
        },
        {
          "internalType": "uint256[]",
          "name": "",
          "type": "uint256[]"
        },
        {
          "internalType": "uint256[]",
          "name": "",
          "type": "uint256[]"
        },
        {
          "internalType": "bytes",
          "name": "",
          "type": "bytes"
        }
      ],
      "name": "onERC1155BatchReceived",
      "outputs": [
        {
          "internalType": "bytes4",
          "name": "",
          "type": "bytes4"
        }
      ],
      "stateMutability": "nonpayable",
      "type": "function"
    },
    {
      "inputs": [
        {
          "internalType": "address",
          "name": "",
          "type": "address"
        },
        {
          "internalType": "address",
          "name": "",
          "type": "address"
        },
        {
          "internalType": "uint256",
          "name": "",
          "type": "uint256"
        },
        {
          "internalType": "uint256",
          "name": "",
          "type": "uint256"
        },
        {
          "internalType": "bytes",
          "name": "",
          "type": "bytes"
        }
      ],
      "name": "onERC1155Received",
      "outputs": [
        {
          "internalType": "bytes4",
          "name": "",
          "type": "bytes4"
        }
      ],
      "stateMutability": "nonpayable",
      "type": "function"
    },
    {
      "inputs": [],
      "name": "owner",
      "outputs": [
        {
          "internalType": "address",
          "name": "",
          "type": "address"
        }
      ],
      "stateMutability": "view",
      "type": "function"
    },
    {
      "inputs": [],
      "name": "proxiableUUID",
      "outputs": [
        {
          "internalType": "bytes32",
          "name": "",
          "type": "bytes32"
        }
      ],
      "stateMutability": "view",
      "type": "function"
    },
    {
      "inputs": [],
      "name": "register",
      "outputs": [],
      "stateMutability": "nonpayable",
      "type": "function"
    },
    {
      "inputs": [],
      "name": "renounceOwnership",
      "outputs": [],
      "stateMutability": "nonpayable",
      "type": "function"
    },
    {
      "inputs": [
        {
          "internalType": "uint256",
          "name": "tokenId",
          "type": "uint256"
        }
      ],
      "name": "setCurrentRewardTokenId",
      "outputs": [],
      "stateMutability": "nonpayable",
      "type": "function"
    },
    {
      "inputs": [
        {
          "internalType": "uint256",
          "name": "fee",
          "type": "uint256"
        }
      ],
      "name": "setEntranceFee",
      "outputs": [],
      "stateMutability": "nonpayable",
      "type": "function"
    },
    {
      "inputs": [],
      "name": "startEvent",
      "outputs": [],
      "stateMutability": "nonpayable",
      "type": "function"
    },
    {
      "inputs": [],
      "name": "stopEvent",
      "outputs": [],
      "stateMutability": "nonpayable",
      "type": "function"
    },
    {
      "inputs": [
        {
          "internalType": "bytes4",
          "name": "interfaceId",
          "type": "bytes4"
        }
      ],
      "name": "supportsInterface",
      "outputs": [
        {
          "internalType": "bool",
          "name": "",
          "type": "bool"
        }
      ],
      "stateMutability": "view",
      "type": "function"
    },
    {
      "inputs": [
        {
          "internalType": "address",
          "name": "newOwner",
          "type": "address"
        }
      ],
      "name": "transferOwnership",
      "outputs": [],
      "stateMutability": "nonpayable",
      "type": "function"
    },
    {
      "inputs": [
        {
          "internalType": "address",
          "name": "newImplementation",
          "type": "address"
        }
      ],
      "name": "upgradeTo",
      "outputs": [],
      "stateMutability": "nonpayable",
      "type": "function"
    },
    {
      "inputs": [
        {
          "internalType": "address",
          "name": "newImplementation",
          "type": "address"
        },
        {
          "internalType": "bytes",
          "name": "data",
          "type": "bytes"
        }
      ],
      "name": "upgradeToAndCall",
      "outputs": [],
      "stateMutability": "payable",
      "type": "function"
    }
  ],
  "bytecode": "0x60a06040523073ffffffffffffffffffffffffffffffffffffffff1660809073ffffffffffffffffffffffffffffffffffffffff1660601b81525034801561004657600080fd5b5060805160601c6129e5610081600039600081816107c9015281816108580152818161099401528181610a230152610ad301526129e56000f3fe60806040526004361061012a5760003560e01c806388770cb0116100ab578063c3c5a5471161006f578063c3c5a54714610397578063c4d66de8146103d4578063e2fd38e9146103fd578063f23a6e6114610414578063f2fde38b14610451578063fe56f5a01461047a5761012a565b806388770cb0146102b25780638da5cb5b146102db578063aaf10f4214610306578063b5126f7b14610331578063bc197c811461035a5761012a565b80634df3319c116100f25780634df3319c146102145780634f1ef2861461023d57806352d1902d1461025957806360ba779114610284578063715018a61461029b5761012a565b806301ffc9a71461012f57806316fbe70c1461016c5780631aa3a008146101a95780633659cfe6146101c0578063439f5ac2146101e9575b600080fd5b34801561013b57600080fd5b5061015660048036038101906101519190611c2d565b6104a3565b6040516101639190611ffd565b60405180910390f35b34801561017857600080fd5b50610193600480360381019061018e9190611a39565b61051d565b6040516101a0919061226b565b60405180910390f35b3480156101b557600080fd5b506101be610566565b005b3480156101cc57600080fd5b506101e760048036038101906101e29190611a39565b6107c7565b005b3480156101f557600080fd5b506101fe610976565b60405161020b919061226b565b60405180910390f35b34801561022057600080fd5b5061023b60048036038101906102369190611c56565b610980565b005b61025760048036038101906102529190611bb0565b610992565b005b34801561026557600080fd5b5061026e610acf565b60405161027b9190612018565b60405180910390f35b34801561029057600080fd5b50610299610b88565b005b3480156102a757600080fd5b506102b0610bad565b005b3480156102be57600080fd5b506102d960048036038101906102d49190611c56565b610bc1565b005b3480156102e757600080fd5b506102f0610bde565b6040516102fd9190611f8a565b60405180910390f35b34801561031257600080fd5b5061031b610c08565b6040516103289190611f8a565b60405180910390f35b34801561033d57600080fd5b5061035860048036038101906103539190611c56565b610c17565b005b34801561036657600080fd5b50610381600480360381019061037c9190611a62565b610e80565b60405161038e9190612033565b60405180910390f35b3480156103a357600080fd5b506103be60048036038101906103b99190611a39565b610e95565b6040516103cb9190611ffd565b60405180910390f35b3480156103e057600080fd5b506103fb60048036038101906103f69190611a39565b610eeb565b005b34801561040957600080fd5b506104126110c1565b005b34801561042057600080fd5b5061043b60048036038101906104369190611b21565b6110e6565b6040516104489190612033565b60405180910390f35b34801561045d57600080fd5b5061047860048036038101906104739190611a39565b6110fb565b005b34801561048657600080fd5b506104a1600480360381019061049c9190611c56565b61117f565b005b60007f4e2312e0000000000000000000000000000000000000000000000000000000007bffffffffffffffffffffffffffffffffffffffffffffffffffffffff1916827bffffffffffffffffffffffffffffffffffffffffffffffffffffffff19161480610516575061051582611191565b5b9050919050565b600060cb60008373ffffffffffffffffffffffffffffffffffffffff1673ffffffffffffffffffffffffffffffffffffffff168152602001908152602001600020549050919050565b6001151560cc60009054906101000a900460ff161515146105bc576040517f08c379a00000000000000000000000000000000000000000000000000000000081526004016105b39061212b565b60405180910390fd5b60cd544210610600576040517f08c379a00000000000000000000000000000000000000000000000000000000081526004016105f79061210b565b60405180910390fd5b6000151560ca60003373ffffffffffffffffffffffffffffffffffffffff1673ffffffffffffffffffffffffffffffffffffffff16815260200190815260200160002060009054906101000a900460ff16151514610693576040517f08c379a000000000000000000000000000000000000000000000000000000000815260040161068a906120ab565b60405180910390fd5b60c960009054906101000a900473ffffffffffffffffffffffffffffffffffffffff1673ffffffffffffffffffffffffffffffffffffffff1663f242432a333060ce5460cf546040518563ffffffff1660e01b81526004016106f89493929190611fa5565b600060405180830381600087803b15801561071257600080fd5b505af1158015610726573d6000803e3d6000fd5b50505050600160ca60003373ffffffffffffffffffffffffffffffffffffffff1673ffffffffffffffffffffffffffffffffffffffff16815260200190815260200160002060006101000a81548160ff0219169083151502179055503373ffffffffffffffffffffffffffffffffffffffff167feeda149c76076b34d4b9d8896c2f7efc0d33d1c7b53ea3c5db490d64613f603a60405160405180910390a2565b7f000000000000000000000000000000000000000000000000000000000000000073ffffffffffffffffffffffffffffffffffffffff163073ffffffffffffffffffffffffffffffffffffffff161415610856576040517f08c379a000000000000000000000000000000000000000000000000000000000815260040161084d906120cb565b60405180910390fd5b7f000000000000000000000000000000000000000000000000000000000000000073ffffffffffffffffffffffffffffffffffffffff166108956111fb565b73ffffffffffffffffffffffffffffffffffffffff16146108eb576040517f08c379a00000000000000000000000000000000000000000000000000000000081526004016108e2906120eb565b60405180910390fd5b6108f481611252565b61097381600067ffffffffffffffff811115610939577f4e487b7100000000000000000000000000000000000000000000000000000000600052604160045260246000fd5b6040519080825280601f01601f19166020018201604052801561096b5781602001600182028036833780820191505090505b50600061125d565b50565b600060cd54905090565b6109886113da565b8060ce8190555050565b7f000000000000000000000000000000000000000000000000000000000000000073ffffffffffffffffffffffffffffffffffffffff163073ffffffffffffffffffffffffffffffffffffffff161415610a21576040517f08c379a0000000000000000000000000000000000000000000000000000000008152600401610a18906120cb565b60405180910390fd5b7f000000000000000000000000000000000000000000000000000000000000000073ffffffffffffffffffffffffffffffffffffffff16610a606111fb565b73ffffffffffffffffffffffffffffffffffffffff1614610ab6576040517f08c379a0000000000000000000000000000000000000000000000000000000008152600401610aad906120eb565b60405180910390fd5b610abf82611252565b610acb8282600161125d565b5050565b60007f000000000000000000000000000000000000000000000000000000000000000073ffffffffffffffffffffffffffffffffffffffff163073ffffffffffffffffffffffffffffffffffffffff1614610b5f576040517f08c379a0000000000000000000000000000000000000000000000000000000008152600401610b569061214b565b60405180910390fd5b7f360894a13ba1a3210667c828492db98dca3e2076cc3735a920a3ca505d382bbc60001b905090565b610b906113da565b600060cc60006101000a81548160ff021916908315150217905550565b610bb56113da565b610bbf6000611458565b565b610bc96113da565b8042610bd5919061234b565b60cd8190555050565b6000609760009054906101000a900473ffffffffffffffffffffffffffffffffffffffff16905090565b6000610c126111fb565b905090565b6001151560cc60009054906101000a900460ff16151514610c6d576040517f08c379a0000000000000000000000000000000000000000000000000000000008152600401610c649061212b565b60405180910390fd5b60cd544210610cb1576040517f08c379a0000000000000000000000000000000000000000000000000000000008152600401610ca89061210b565b60405180910390fd5b6001151560ca60003373ffffffffffffffffffffffffffffffffffffffff1673ffffffffffffffffffffffffffffffffffffffff16815260200190815260200160002060009054906101000a900460ff16151514610d44576040517f08c379a0000000000000000000000000000000000000000000000000000000008152600401610d3b906121ab565b60405180910390fd5b60c960009054906101000a900473ffffffffffffffffffffffffffffffffffffffff1673ffffffffffffffffffffffffffffffffffffffff1663f242432a333060ce54856040518563ffffffff1660e01b8152600401610da79493929190611fa5565b600060405180830381600087803b158015610dc157600080fd5b505af1158015610dd5573d6000803e3d6000fd5b505050508060cb60003373ffffffffffffffffffffffffffffffffffffffff1673ffffffffffffffffffffffffffffffffffffffff1681526020019081526020016000206000828254610e28919061234b565b925050819055503373ffffffffffffffffffffffffffffffffffffffff167fe5eaca42a2c36bbb142445e563aac1a8dd3d7fc70041af0b70bc28fd49e83a9b82604051610e75919061226b565b60405180910390a250565b600063bc197c8160e01b905095945050505050565b600060ca60008373ffffffffffffffffffffffffffffffffffffffff1673ffffffffffffffffffffffffffffffffffffffff16815260200190815260200160002060009054906101000a900460ff169050919050565b60008060019054906101000a900460ff16159050808015610f1c5750600160008054906101000a900460ff1660ff16105b80610f495750610f2b3061151e565b158015610f485750600160008054906101000a900460ff1660ff16145b5b610f88576040517f08c379a0000000000000000000000000000000000000000000000000000000008152600401610f7f9061218b565b60405180910390fd5b60016000806101000a81548160ff021916908360ff1602179055508015610fc5576001600060016101000a81548160ff0219169083151502179055505b610fcd611541565b610fd5611592565b8160c960006101000a81548173ffffffffffffffffffffffffffffffffffffffff021916908373ffffffffffffffffffffffffffffffffffffffff160217905550600060ce81905550600260cf81905550600060cc60006101000a81548160ff021916908315150217905550620119406212750042611054919061234b565b61105e919061234b565b60cd8190555080156110bd5760008060016101000a81548160ff0219169083151502179055507f7f26b83ff96e1f2b6a682f133852f6798a09c465da95921460cefb384740249860016040516110b4919061204e565b60405180910390a15b5050565b6110c96113da565b600160cc60006101000a81548160ff021916908315150217905550565b600063f23a6e6160e01b905095945050505050565b6111036113da565b600073ffffffffffffffffffffffffffffffffffffffff168173ffffffffffffffffffffffffffffffffffffffff161415611173576040517f08c379a000000000000000000000000000000000000000000000000000000000815260040161116a9061208b565b60405180910390fd5b61117c81611458565b50565b6111876113da565b8060cf8190555050565b60007f01ffc9a7000000000000000000000000000000000000000000000000000000007bffffffffffffffffffffffffffffffffffffffffffffffffffffffff1916827bffffffffffffffffffffffffffffffffffffffffffffffffffffffff1916149050919050565b60006112297f360894a13ba1a3210667c828492db98dca3e2076cc3735a920a3ca505d382bbc60001b6115eb565b60000160009054906101000a900473ffffffffffffffffffffffffffffffffffffffff16905090565b61125a6113da565b50565b6112897f4910fdfa16fed3260ed0e7147f7cc6da11a60208b5b9406d12a635614ffd914360001b6115f5565b60000160009054906101000a900460ff16156112ad576112a8836115ff565b6113d5565b8273ffffffffffffffffffffffffffffffffffffffff166352d1902d6040518163ffffffff1660e01b815260040160206040518083038186803b1580156112f357600080fd5b505afa92505050801561132457506040513d601f19601f820116820180604052508101906113219190611c04565b60015b611363576040517f08c379a000000000000000000000000000000000000000000000000000000000815260040161135a906121cb565b60405180910390fd5b7f360894a13ba1a3210667c828492db98dca3e2076cc3735a920a3ca505d382bbc60001b81146113c8576040517f08c379a00000000000000000000000000000000000000000000000000000000081526004016113bf9061216b565b60405180910390fd5b506113d48383836116b8565b5b505050565b6113e26116e4565b73ffffffffffffffffffffffffffffffffffffffff16611400610bde565b73ffffffffffffffffffffffffffffffffffffffff1614611456576040517f08c379a000000000000000000000000000000000000000000000000000000000815260040161144d9061220b565b60405180910390fd5b565b6000609760009054906101000a900473ffffffffffffffffffffffffffffffffffffffff16905081609760006101000a81548173ffffffffffffffffffffffffffffffffffffffff021916908373ffffffffffffffffffffffffffffffffffffffff1602179055508173ffffffffffffffffffffffffffffffffffffffff168173ffffffffffffffffffffffffffffffffffffffff167f8be0079c531659141344cd1fd0a4f28419497f9722a3daafe3b4186f6b6457e060405160405180910390a35050565b6000808273ffffffffffffffffffffffffffffffffffffffff163b119050919050565b600060019054906101000a900460ff16611590576040517f08c379a00000000000000000000000000000000000000000000000000000000081526004016115879061224b565b60405180910390fd5b565b600060019054906101000a900460ff166115e1576040517f08c379a00000000000000000000000000000000000000000000000000000000081526004016115d89061224b565b60405180910390fd5b6115e96116ec565b565b6000819050919050565b6000819050919050565b6116088161151e565b611647576040517f08c379a000000000000000000000000000000000000000000000000000000000815260040161163e906121eb565b60405180910390fd5b806116747f360894a13ba1a3210667c828492db98dca3e2076cc3735a920a3ca505d382bbc60001b6115eb565b60000160006101000a81548173ffffffffffffffffffffffffffffffffffffffff021916908373ffffffffffffffffffffffffffffffffffffffff16021790555050565b6116c18361174d565b6000825111806116ce5750805b156116df576116dd838361179c565b505b505050565b600033905090565b600060019054906101000a900460ff1661173b576040517f08c379a00000000000000000000000000000000000000000000000000000000081526004016117329061224b565b60405180910390fd5b61174b6117466116e4565b611458565b565b611756816115ff565b8073ffffffffffffffffffffffffffffffffffffffff167fbc7cd75a20ee27fd9adebab32041f755214dbc6bffa90cc0225b39da2e5c2d3b60405160405180910390a250565b60606117a78361151e565b6117e6576040517f08c379a00000000000000000000000000000000000000000000000000000000081526004016117dd9061222b565b60405180910390fd5b6000808473ffffffffffffffffffffffffffffffffffffffff168460405161180e9190611f73565b600060405180830381855af49150503d8060008114611849576040519150601f19603f3d011682016040523d82523d6000602084013e61184e565b606091505b5091509150611876828260405180606001604052806027815260200161298960279139611880565b9250505092915050565b60608315611890578290506118e0565b6000835111156118a35782518084602001fd5b816040517f08c379a00000000000000000000000000000000000000000000000000000000081526004016118d79190612069565b60405180910390fd5b9392505050565b60006118fa6118f5846122ab565b612286565b9050808382526020820190508285602086028201111561191957600080fd5b60005b85811015611949578161192f8882611a24565b84526020840193506020830192505060018101905061191c565b5050509392505050565b6000611966611961846122d7565b612286565b90508281526020810184848401111561197e57600080fd5b61198984828561243e565b509392505050565b6000813590506119a08161292c565b92915050565b600082601f8301126119b757600080fd5b81356119c78482602086016118e7565b91505092915050565b6000815190506119df81612943565b92915050565b6000813590506119f48161295a565b92915050565b600082601f830112611a0b57600080fd5b8135611a1b848260208601611953565b91505092915050565b600081359050611a3381612971565b92915050565b600060208284031215611a4b57600080fd5b6000611a5984828501611991565b91505092915050565b600080600080600060a08688031215611a7a57600080fd5b6000611a8888828901611991565b9550506020611a9988828901611991565b945050604086013567ffffffffffffffff811115611ab657600080fd5b611ac2888289016119a6565b935050606086013567ffffffffffffffff811115611adf57600080fd5b611aeb888289016119a6565b925050608086013567ffffffffffffffff811115611b0857600080fd5b611b14888289016119fa565b9150509295509295909350565b600080600080600060a08688031215611b3957600080fd5b6000611b4788828901611991565b9550506020611b5888828901611991565b9450506040611b6988828901611a24565b9350506060611b7a88828901611a24565b925050608086013567ffffffffffffffff811115611b9757600080fd5b611ba3888289016119fa565b9150509295509295909350565b60008060408385031215611bc357600080fd5b6000611bd185828601611991565b925050602083013567ffffffffffffffff811115611bee57600080fd5b611bfa858286016119fa565b9150509250929050565b600060208284031215611c1657600080fd5b6000611c24848285016119d0565b91505092915050565b600060208284031215611c3f57600080fd5b6000611c4d848285016119e5565b91505092915050565b600060208284031215611c6857600080fd5b6000611c7684828501611a24565b91505092915050565b611c88816123a1565b82525050565b611c97816123b3565b82525050565b611ca6816123bf565b82525050565b611cb5816123c9565b82525050565b6000611cc682612308565b611cd0818561232f565b9350611ce081856020860161244d565b80840191505092915050565b611cf58161242c565b82525050565b6000611d0682612313565b611d10818561233a565b9350611d2081856020860161244d565b611d298161250f565b840191505092915050565b6000611d4160268361233a565b9150611d4c82612520565b604082019050919050565b6000611d6460128361233a565b9150611d6f8261256f565b602082019050919050565b6000611d8760048361231e565b9150611d9282612598565b602082019050919050565b6000611daa602c8361233a565b9150611db5826125c1565b604082019050919050565b6000611dcd602c8361233a565b9150611dd882612610565b604082019050919050565b6000611df0600f8361233a565b9150611dfb8261265f565b602082019050919050565b6000611e13600f8361233a565b9150611e1e82612688565b602082019050919050565b6000611e3660388361233a565b9150611e41826126b1565b604082019050919050565b6000611e5960298361233a565b9150611e6482612700565b604082019050919050565b6000611e7c602e8361233a565b9150611e878261274f565b604082019050919050565b6000611e9f60158361233a565b9150611eaa8261279e565b602082019050919050565b6000611ec2602e8361233a565b9150611ecd826127c7565b604082019050919050565b6000611ee5602d8361233a565b9150611ef082612816565b604082019050919050565b6000611f0860208361233a565b9150611f1382612865565b602082019050919050565b6000611f2b60268361233a565b9150611f368261288e565b604082019050919050565b6000611f4e602b8361233a565b9150611f59826128dd565b604082019050919050565b611f6d81612415565b82525050565b6000611f7f8284611cbb565b915081905092915050565b6000602082019050611f9f6000830184611c7f565b92915050565b600060a082019050611fba6000830187611c7f565b611fc76020830186611c7f565b611fd46040830185611f64565b611fe16060830184611f64565b8181036080830152611ff281611d7a565b905095945050505050565b60006020820190506120126000830184611c8e565b92915050565b600060208201905061202d6000830184611c9d565b92915050565b60006020820190506120486000830184611cac565b92915050565b60006020820190506120636000830184611cec565b92915050565b600060208201905081810360008301526120838184611cfb565b905092915050565b600060208201905081810360008301526120a481611d34565b9050919050565b600060208201905081810360008301526120c481611d57565b9050919050565b600060208201905081810360008301526120e481611d9d565b9050919050565b6000602082019050818103600083015261210481611dc0565b9050919050565b6000602082019050818103600083015261212481611de3565b9050919050565b6000602082019050818103600083015261214481611e06565b9050919050565b6000602082019050818103600083015261216481611e29565b9050919050565b6000602082019050818103600083015261218481611e4c565b9050919050565b600060208201905081810360008301526121a481611e6f565b9050919050565b600060208201905081810360008301526121c481611e92565b9050919050565b600060208201905081810360008301526121e481611eb5565b9050919050565b6000602082019050818103600083015261220481611ed8565b9050919050565b6000602082019050818103600083015261222481611efb565b9050919050565b6000602082019050818103600083015261224481611f1e565b9050919050565b6000602082019050818103600083015261226481611f41565b9050919050565b60006020820190506122806000830184611f64565b92915050565b60006122906122a1565b905061229c8282612480565b919050565b6000604051905090565b600067ffffffffffffffff8211156122c6576122c56124e0565b5b602082029050602081019050919050565b600067ffffffffffffffff8211156122f2576122f16124e0565b5b6122fb8261250f565b9050602081019050919050565b600081519050919050565b600081519050919050565b600082825260208201905092915050565b600081905092915050565b600082825260208201905092915050565b600061235682612415565b915061236183612415565b9250827fffffffffffffffffffffffffffffffffffffffffffffffffffffffffffffffff03821115612396576123956124b1565b5b828201905092915050565b60006123ac826123f5565b9050919050565b60008115159050919050565b6000819050919050565b60007fffffffff0000000000000000000000000000000000000000000000000000000082169050919050565b600073ffffffffffffffffffffffffffffffffffffffff82169050919050565b6000819050919050565b600060ff82169050919050565b60006124378261241f565b9050919050565b82818337600083830152505050565b60005b8381101561246b578082015181840152602081019050612450565b8381111561247a576000848401525b50505050565b6124898261250f565b810181811067ffffffffffffffff821117156124a8576124a76124e0565b5b80604052505050565b7f4e487b7100000000000000000000000000000000000000000000000000000000600052601160045260246000fd5b7f4e487b7100000000000000000000000000000000000000000000000000000000600052604160045260246000fd5b6000601f19601f8301169050919050565b7f4f776e61626c653a206e6577206f776e657220697320746865207a65726f206160008201527f6464726573730000000000000000000000000000000000000000000000000000602082015250565b7f616c726561647920726567697374657265640000000000000000000000000000600082015250565b7f3078303000000000000000000000000000000000000000000000000000000000600082015250565b7f46756e6374696f6e206d7573742062652063616c6c6564207468726f7567682060008201527f64656c656761746563616c6c0000000000000000000000000000000000000000602082015250565b7f46756e6374696f6e206d7573742062652063616c6c6564207468726f7567682060008201527f6163746976652070726f78790000000000000000000000000000000000000000602082015250565b7f4576656e7420697320636c6f7365640000000000000000000000000000000000600082015250565b7f4e6f74206f70656e696e67206e6f770000000000000000000000000000000000600082015250565b7f555550535570677261646561626c653a206d757374206e6f742062652063616c60008201527f6c6564207468726f7567682064656c656761746563616c6c0000000000000000602082015250565b7f45524331393637557067726164653a20756e737570706f727465642070726f7860008201527f6961626c65555549440000000000000000000000000000000000000000000000602082015250565b7f496e697469616c697a61626c653a20636f6e747261637420697320616c72656160008201527f647920696e697469616c697a6564000000000000000000000000000000000000602082015250565b7f526567697374726174696f6e2072657175697265640000000000000000000000600082015250565b7f45524331393637557067726164653a206e657720696d706c656d656e7461746960008201527f6f6e206973206e6f742055555053000000000000000000000000000000000000602082015250565b7f455243313936373a206e657720696d706c656d656e746174696f6e206973206e60008201527f6f74206120636f6e747261637400000000000000000000000000000000000000602082015250565b7f4f776e61626c653a2063616c6c6572206973206e6f7420746865206f776e6572600082015250565b7f416464726573733a2064656c65676174652063616c6c20746f206e6f6e2d636f60008201527f6e74726163740000000000000000000000000000000000000000000000000000602082015250565b7f496e697469616c697a61626c653a20636f6e7472616374206973206e6f74206960008201527f6e697469616c697a696e67000000000000000000000000000000000000000000602082015250565b612935816123a1565b811461294057600080fd5b50565b61294c816123bf565b811461295757600080fd5b50565b612963816123c9565b811461296e57600080fd5b50565b61297a81612415565b811461298557600080fd5b5056fe416464726573733a206c6f772d6c6576656c2064656c65676174652063616c6c206661696c6564a2646970667358221220d41d907478958d76a7a47de22a6b4fcd9d3cb8e0bc90cee1d66fdd6c48e0446264736f6c63430008040033",
  "linkReferences": {},
  "deployedLinkReferences": {}
}