{
  "_format": "hh-sol-artifact-1",
  "contractName": "FitterPassLockedPool",
  "sourceName": "contracts/FitterPassLockedPool.sol",
  "abi": [
    {
      "anonymous": false,
      "inputs": [
        {
          "indexed": false,
          "internalType": "address",
          "name": "previousAdmin",
          "type": "address"
        },
        {
          "indexed": false,
          "internalType": "address",
          "name": "newAdmin",
          "type": "address"
        }
      ],
      "name": "AdminChanged",
      "type": "event"
    },
    {
      "anonymous": false,
      "inputs": [
        {
          "indexed": true,
          "internalType": "address",
          "name": "beacon",
          "type": "address"
        }
      ],
      "name": "BeaconUpgraded",
      "type": "event"
    },
    {
      "anonymous": false,
      "inputs": [
        {
          "indexed": false,
          "internalType": "uint8",
          "name": "version",
          "type": "uint8"
        }
      ],
      "name": "Initialized",
      "type": "event"
    },
    {
      "anonymous": false,
      "inputs": [
        {
          "indexed": true,
          "internalType": "address",
          "name": "previousOwner",
          "type": "address"
        },
        {
          "indexed": true,
          "internalType": "address",
          "name": "newOwner",
          "type": "address"
        }
      ],
      "name": "OwnershipTransferred",
      "type": "event"
    },
    {
      "anonymous": false,
      "inputs": [
        {
          "indexed": true,
          "internalType": "address",
          "name": "wallet",
          "type": "address"
        },
        {
          "indexed": false,
          "internalType": "uint256",
          "name": "stakeId",
          "type": "uint256"
        },
        {
          "indexed": false,
          "internalType": "uint256",
          "name": "numberOfBlocks",
          "type": "uint256"
        },
        {
          "indexed": false,
          "internalType": "uint256",
          "name": "amount",
          "type": "uint256"
        },
        {
          "indexed": false,
          "internalType": "uint256",
          "name": "lockedTime",
          "type": "uint256"
        }
      ],
      "name": "Stake",
      "type": "event"
    },
    {
      "anonymous": false,
      "inputs": [
        {
          "indexed": true,
          "internalType": "address",
          "name": "implementation",
          "type": "address"
        }
      ],
      "name": "Upgraded",
      "type": "event"
    },
    {
      "anonymous": false,
      "inputs": [
        {
          "indexed": true,
          "internalType": "address",
          "name": "wallet",
          "type": "address"
        },
        {
          "indexed": false,
          "internalType": "uint256",
          "name": "stakeId",
          "type": "uint256"
        },
        {
          "indexed": false,
          "internalType": "uint256",
          "name": "amount",
          "type": "uint256"
        }
      ],
      "name": "Withdraw",
      "type": "event"
    },
    {
      "inputs": [],
      "name": "closePool",
      "outputs": [],
      "stateMutability": "nonpayable",
      "type": "function"
    },
    {
      "inputs": [
        {
          "internalType": "uint256",
          "name": "aot",
          "type": "uint256"
        }
      ],
      "name": "extendEndTimeFromNow",
      "outputs": [],
      "stateMutability": "nonpayable",
      "type": "function"
    },
    {
      "inputs": [
        {
          "internalType": "address",
          "name": "wallet",
          "type": "address"
        }
      ],
      "name": "getAllUserStaking",
      "outputs": [
        {
          "components": [
            {
              "internalType": "uint256",
              "name": "sId",
              "type": "uint256"
            },
            {
              "internalType": "uint256",
              "name": "numberOfBlocks",
              "type": "uint256"
            },
            {
              "internalType": "uint256",
              "name": "tokenAmount",
              "type": "uint256"
            },
            {
              "internalType": "uint256",
              "name": "fpNum",
              "type": "uint256"
            },
            {
              "internalType": "uint256",
              "name": "stakingTime",
              "type": "uint256"
            },
            {
              "internalType": "uint256",
              "name": "lockedTime",
              "type": "uint256"
            },
            {
              "internalType": "uint256",
              "name": "withdrawn",
              "type": "uint256"
            }
          ],
          "internalType": "struct FitterPassLockedPool.StakeInfo[]",
          "name": "",
          "type": "tuple[]"
        }
      ],
      "stateMutability": "view",
      "type": "function"
    },
    {
      "inputs": [],
      "name": "getImplementation",
      "outputs": [
        {
          "internalType": "address",
          "name": "",
          "type": "address"
        }
      ],
      "stateMutability": "view",
      "type": "function"
    },
    {
      "inputs": [
        {
          "internalType": "uint256",
          "name": "_blockNum",
          "type": "uint256"
        },
        {
          "internalType": "uint256",
          "name": "_lockedTime",
          "type": "uint256"
        }
      ],
      "name": "getMinimalStakingTime",
      "outputs": [
        {
          "internalType": "uint256",
          "name": "",
          "type": "uint256"
        }
      ],
      "stateMutability": "view",
      "type": "function"
    },
    {
      "inputs": [
        {
          "internalType": "uint256",
          "name": "stakeId",
          "type": "uint256"
        }
      ],
      "name": "getStakeById",
      "outputs": [
        {
          "components": [
            {
              "internalType": "uint256",
              "name": "sId",
              "type": "uint256"
            },
            {
              "internalType": "uint256",
              "name": "numberOfBlocks",
              "type": "uint256"
            },
            {
              "internalType": "uint256",
              "name": "tokenAmount",
              "type": "uint256"
            },
            {
              "internalType": "uint256",
              "name": "fpNum",
              "type": "uint256"
            },
            {
              "internalType": "uint256",
              "name": "stakingTime",
              "type": "uint256"
            },
            {
              "internalType": "uint256",
              "name": "lockedTime",
              "type": "uint256"
            },
            {
              "internalType": "uint256",
              "name": "withdrawn",
              "type": "uint256"
            }
          ],
          "internalType": "struct FitterPassLockedPool.StakeInfo",
          "name": "",
          "type": "tuple"
        }
      ],
      "stateMutability": "view",
      "type": "function"
    },
    {
      "inputs": [
        {
          "internalType": "uint256",
          "name": "stakeId",
          "type": "uint256"
        }
      ],
      "name": "getStakingOwner",
      "outputs": [
        {
          "internalType": "address",
          "name": "",
          "type": "address"
        }
      ],
      "stateMutability": "view",
      "type": "function"
    },
    {
      "inputs": [
        {
          "internalType": "uint256",
          "name": "stakeId",
          "type": "uint256"
        }
      ],
      "name": "getWithdrawableTime",
      "outputs": [
        {
          "internalType": "uint256",
          "name": "",
          "type": "uint256"
        }
      ],
      "stateMutability": "view",
      "type": "function"
    },
    {
      "inputs": [
        {
          "internalType": "address",
          "name": "tokenAddress",
          "type": "address"
        },
        {
          "internalType": "address",
          "name": "rewardItemContract",
          "type": "address"
        }
      ],
      "name": "initialize",
      "outputs": [],
      "stateMutability": "nonpayable",
      "type": "function"
    },
    {
      "inputs": [],
      "name": "openPool",
      "outputs": [],
      "stateMutability": "nonpayable",
      "type": "function"
    },
    {
      "inputs": [],
      "name": "owner",
      "outputs": [
        {
          "internalType": "address",
          "name": "",
          "type": "address"
        }
      ],
      "stateMutability": "view",
      "type": "function"
    },
    {
      "inputs": [],
      "name": "proxiableUUID",
      "outputs": [
        {
          "internalType": "bytes32",
          "name": "",
          "type": "bytes32"
        }
      ],
      "stateMutability": "view",
      "type": "function"
    },
    {
      "inputs": [],
      "name": "renounceOwnership",
      "outputs": [],
      "stateMutability": "nonpayable",
      "type": "function"
    },
    {
      "inputs": [
        {
          "internalType": "uint256",
          "name": "x",
          "type": "uint256"
        }
      ],
      "name": "roundUp",
      "outputs": [
        {
          "internalType": "uint256",
          "name": "",
          "type": "uint256"
        }
      ],
      "stateMutability": "pure",
      "type": "function"
    },
    {
      "inputs": [
        {
          "internalType": "uint256",
          "name": "amount",
          "type": "uint256"
        }
      ],
      "name": "setBlockAmount",
      "outputs": [],
      "stateMutability": "nonpayable",
      "type": "function"
    },
    {
      "inputs": [
        {
          "internalType": "uint256",
          "name": "rate",
          "type": "uint256"
        }
      ],
      "name": "setEarningRate",
      "outputs": [],
      "stateMutability": "nonpayable",
      "type": "function"
    },
    {
      "inputs": [
        {
          "internalType": "uint256",
          "name": "maxPass",
          "type": "uint256"
        }
      ],
      "name": "setMaxEarningPass",
      "outputs": [],
      "stateMutability": "nonpayable",
      "type": "function"
    },
    {
      "inputs": [
        {
          "internalType": "uint256",
          "name": "minBlock",
          "type": "uint256"
        },
        {
          "internalType": "uint256",
          "name": "maxBlock",
          "type": "uint256"
        }
      ],
      "name": "setMinMaxBlockNum",
      "outputs": [],
      "stateMutability": "nonpayable",
      "type": "function"
    },
    {
      "inputs": [
        {
          "internalType": "uint256",
          "name": "minTime",
          "type": "uint256"
        },
        {
          "internalType": "uint256",
          "name": "maxTime",
          "type": "uint256"
        }
      ],
      "name": "setMinMaxLockedTime",
      "outputs": [],
      "stateMutability": "nonpayable",
      "type": "function"
    },
    {
      "inputs": [
        {
          "internalType": "uint256",
          "name": "tokenId",
          "type": "uint256"
        }
      ],
      "name": "setRewardTokenId",
      "outputs": [],
      "stateMutability": "nonpayable",
      "type": "function"
    },
    {
      "inputs": [
        {
          "internalType": "uint256",
          "name": "_timeUnit",
          "type": "uint256"
        }
      ],
      "name": "setTimeUnit",
      "outputs": [],
      "stateMutability": "nonpayable",
      "type": "function"
    },
    {
      "inputs": [
        {
          "internalType": "uint256",
          "name": "delayTime",
          "type": "uint256"
        }
      ],
      "name": "setWithdrawalDelayTime",
      "outputs": [],
      "stateMutability": "nonpayable",
      "type": "function"
    },
    {
      "inputs": [
        {
          "internalType": "uint256",
          "name": "_blockNum",
          "type": "uint256"
        },
        {
          "internalType": "uint256",
          "name": "_lockedTime",
          "type": "uint256"
        }
      ],
      "name": "stake",
      "outputs": [],
      "stateMutability": "nonpayable",
      "type": "function"
    },
    {
      "inputs": [
        {
          "internalType": "address",
          "name": "newOwner",
          "type": "address"
        }
      ],
      "name": "transferOwnership",
      "outputs": [],
      "stateMutability": "nonpayable",
      "type": "function"
    },
    {
      "inputs": [
        {
          "internalType": "address",
          "name": "newImplementation",
          "type": "address"
        }
      ],
      "name": "upgradeTo",
      "outputs": [],
      "stateMutability": "nonpayable",
      "type": "function"
    },
    {
      "inputs": [
        {
          "internalType": "address",
          "name": "newImplementation",
          "type": "address"
        },
        {
          "internalType": "bytes",
          "name": "data",
          "type": "bytes"
        }
      ],
      "name": "upgradeToAndCall",
      "outputs": [],
      "stateMutability": "payable",
      "type": "function"
    },
    {
      "inputs": [
        {
          "internalType": "uint256",
          "name": "stakeId",
          "type": "uint256"
        }
      ],
      "name": "withdraw",
      "outputs": [],
      "stateMutability": "nonpayable",
      "type": "function"
    }
  ],
  "bytecode": "0x60a06040523073ffffffffffffffffffffffffffffffffffffffff1660809073ffffffffffffffffffffffffffffffffffffffff1660601b81525034801561004657600080fd5b5060805160601c6138b161008160003960008181610dcd01528181610e5c01528181611168015281816111f701526112a701526138b16000f3fe60806040526004361061019c5760003560e01c80636efabb01116100ec578063aaf10f421161008a578063c5f8d8bf11610064578063c5f8d8bf1461059d578063cc615218146105c6578063eb5797a4146105ef578063f2fde38b146106065761019c565b8063aaf10f42146104f8578063b62a6aae14610523578063bfc8b1f8146105605761019c565b80637b0472f0116100c65780637b0472f01461042a5780637b6a6f4a146104535780638da5cb5b14610490578063a5ed5cc5146104bb5761019c565b80636efabb01146103c1578063715018a6146103ea5780637a851645146104015761019c565b8063434073ca1161015957806352d1902d1161013357806352d1902d1461032d5780636360106f1461035857806366805de5146103815780636aa9f686146103985761019c565b8063434073ca146102bf578063485cc955146102e85780634f1ef286146103115761019c565b806305e4a95a146101a157806306c85379146101ca578063160244ed146102075780632e1a7d4d1461023057806331883145146102595780633659cfe614610296575b600080fd5b3480156101ad57600080fd5b506101c860048036038101906101c391906126e4565b61062f565b005b3480156101d657600080fd5b506101f160048036038101906101ec91906125d9565b610641565b6040516101fe9190612ccf565b60405180910390f35b34801561021357600080fd5b5061022e600480360381019061022991906126e4565b610860565b005b34801561023c57600080fd5b50610257600480360381019061025291906126e4565b610872565b005b34801561026557600080fd5b50610280600480360381019061027b91906126e4565b610cdd565b60405161028d9190612f89565b60405180910390f35b3480156102a257600080fd5b506102bd60048036038101906102b891906125d9565b610dcb565b005b3480156102cb57600080fd5b506102e660048036038101906102e1919061270d565b610f7a565b005b3480156102f457600080fd5b5061030f600480360381019061030a9190612602565b610f94565b005b61032b6004803603810190610326919061263e565b611166565b005b34801561033957600080fd5b506103426112a3565b60405161034f9190612cf1565b60405180910390f35b34801561036457600080fd5b5061037f600480360381019061037a91906126e4565b61135c565b005b34801561038d57600080fd5b5061039661136e565b005b3480156103a457600080fd5b506103bf60048036038101906103ba91906126e4565b611393565b005b3480156103cd57600080fd5b506103e860048036038101906103e391906126e4565b6113a5565b005b3480156103f657600080fd5b506103ff6113b7565b005b34801561040d57600080fd5b50610428600480360381019061042391906126e4565b6113cb565b005b34801561043657600080fd5b50610451600480360381019061044c919061270d565b6113dd565b005b34801561045f57600080fd5b5061047a600480360381019061047591906126e4565b611879565b6040516104879190612fa4565b60405180910390f35b34801561049c57600080fd5b506104a561188b565b6040516104b29190612c1d565b60405180910390f35b3480156104c757600080fd5b506104e260048036038101906104dd91906126e4565b6118b5565b6040516104ef9190612fa4565b60405180910390f35b34801561050457600080fd5b5061050d6119b3565b60405161051a9190612c1d565b60405180910390f35b34801561052f57600080fd5b5061054a600480360381019061054591906126e4565b6119c2565b6040516105579190612c1d565b60405180910390f35b34801561056c57600080fd5b506105876004803603810190610582919061270d565b611a45565b6040516105949190612fa4565b60405180910390f35b3480156105a957600080fd5b506105c460048036038101906105bf919061270d565b611a59565b005b3480156105d257600080fd5b506105ed60048036038101906105e891906126e4565b611a73565b005b3480156105fb57600080fd5b50610604611a90565b005b34801561061257600080fd5b5061062d600480360381019061062891906125d9565b611ab5565b005b610637611b39565b8060cb8190555050565b6060600060db60008473ffffffffffffffffffffffffffffffffffffffff1673ffffffffffffffffffffffffffffffffffffffff168152602001908152602001600020600001600001905060008180549050905060008167ffffffffffffffff8111156106d7577f4e487b7100000000000000000000000000000000000000000000000000000000600052604160045260246000fd5b60405190808252806020026020018201604052801561071057816020015b6106fd6124e0565b8152602001906001900390816106f55790505b50905060005b828110156108545760d8848281548110610759577f4e487b7100000000000000000000000000000000000000000000000000000000600052603260045260246000fd5b906000526020600020015460001c8154811061079e577f4e487b7100000000000000000000000000000000000000000000000000000000600052603260045260246000fd5b90600052602060002090600702016040518060e0016040529081600082015481526020016001820154815260200160028201548152602001600382015481526020016004820154815260200160058201548152602001600682015481525050828281518110610836577f4e487b7100000000000000000000000000000000000000000000000000000000600052603260045260246000fd5b6020026020010181905250808061084c906132b3565b915050610716565b50809350505050919050565b610868611b39565b8060d78190555050565b8060d95481106108b7576040517f08c379a00000000000000000000000000000000000000000000000000000000081526004016108ae90612ea9565b60405180910390fd5b6001151560d360009054906101000a900460ff1615151461090d576040517f08c379a000000000000000000000000000000000000000000000000000000000815260040161090490612da9565b60405180910390fd5b60d25460d8838154811061094a577f4e487b7100000000000000000000000000000000000000000000000000000000600052603260045260246000fd5b90600052602060002090600702016005015460d88481548110610996577f4e487b7100000000000000000000000000000000000000000000000000000000600052603260045260246000fd5b9060005260206000209060070201600401546109b291906130ee565b6109bc91906130ee565b4210156109fe576040517f08c379a00000000000000000000000000000000000000000000000000000000081526004016109f590612d69565b60405180910390fd5b600060d88381548110610a3a577f4e487b7100000000000000000000000000000000000000000000000000000000600052603260045260246000fd5b90600052602060002090600702016006015414610a8c576040517f08c379a0000000000000000000000000000000000000000000000000000000008152600401610a8390612e29565b60405180910390fd5b600160d88381548110610ac8577f4e487b7100000000000000000000000000000000000000000000000000000000600052603260045260246000fd5b90600052602060002090600702016006018190555060c960009054906101000a900473ffffffffffffffffffffffffffffffffffffffff1673ffffffffffffffffffffffffffffffffffffffff1663a9059cbb60da600085815260200190815260200160002060009054906101000a900473ffffffffffffffffffffffffffffffffffffffff1660d88581548110610b89577f4e487b7100000000000000000000000000000000000000000000000000000000600052603260045260246000fd5b9060005260206000209060070201600201546040518363ffffffff1660e01b8152600401610bb8929190612c6f565b602060405180830381600087803b158015610bd257600080fd5b505af1158015610be6573d6000803e3d6000fd5b505050506040513d601f19601f82011682018060405250810190610c0a9190612692565b5060da600083815260200190815260200160002060009054906101000a900473ffffffffffffffffffffffffffffffffffffffff1673ffffffffffffffffffffffffffffffffffffffff167ff279e6a1f5e320cca91135676d9cb6e44ca8a08c0b88342bcdb1144f6511b5688360d88581548110610cb1577f4e487b7100000000000000000000000000000000000000000000000000000000600052603260045260246000fd5b906000526020600020906007020160020154604051610cd1929190612fbf565b60405180910390a25050565b610ce56124e0565b8160d9548110610d2a576040517f08c379a0000000000000000000000000000000000000000000000000000000008152600401610d2190612ea9565b60405180910390fd5b60d88381548110610d64577f4e487b7100000000000000000000000000000000000000000000000000000000600052603260045260246000fd5b90600052602060002090600702016040518060e0016040529081600082015481526020016001820154815260200160028201548152602001600382015481526020016004820154815260200160058201548152602001600682015481525050915050919050565b7f000000000000000000000000000000000000000000000000000000000000000073ffffffffffffffffffffffffffffffffffffffff163073ffffffffffffffffffffffffffffffffffffffff161415610e5a576040517f08c379a0000000000000000000000000000000000000000000000000000000008152600401610e5190612d89565b60405180910390fd5b7f000000000000000000000000000000000000000000000000000000000000000073ffffffffffffffffffffffffffffffffffffffff16610e99611bb7565b73ffffffffffffffffffffffffffffffffffffffff1614610eef576040517f08c379a0000000000000000000000000000000000000000000000000000000008152600401610ee690612dc9565b60405180910390fd5b610ef881611c0e565b610f7781600067ffffffffffffffff811115610f3d577f4e487b7100000000000000000000000000000000000000000000000000000000600052604160045260246000fd5b6040519080825280601f01601f191660200182016040528015610f6f5781602001600182028036833780820191505090505b506000611c19565b50565b610f82611b39565b8160ce819055508060cf819055505050565b60008060019054906101000a900460ff16159050808015610fc55750600160008054906101000a900460ff1660ff16105b80610ff25750610fd430611d96565b158015610ff15750600160008054906101000a900460ff1660ff16145b5b611031576040517f08c379a000000000000000000000000000000000000000000000000000000000815260040161102890612e69565b60405180910390fd5b60016000806101000a81548160ff021916908360ff160217905550801561106e576001600060016101000a81548160ff0219169083151502179055505b611076611db9565b61107e611e0a565b8260c960006101000a81548173ffffffffffffffffffffffffffffffffffffffff021916908373ffffffffffffffffffffffffffffffffffffffff1602179055508160ca60006101000a81548173ffffffffffffffffffffffffffffffffffffffff021916908373ffffffffffffffffffffffffffffffffffffffff160217905550611108611e63565b80156111615760008060016101000a81548160ff0219169083151502179055507f7f26b83ff96e1f2b6a682f133852f6798a09c465da95921460cefb384740249860016040516111589190612d0c565b60405180910390a15b505050565b7f000000000000000000000000000000000000000000000000000000000000000073ffffffffffffffffffffffffffffffffffffffff163073ffffffffffffffffffffffffffffffffffffffff1614156111f5576040517f08c379a00000000000000000000000000000000000000000000000000000000081526004016111ec90612d89565b60405180910390fd5b7f000000000000000000000000000000000000000000000000000000000000000073ffffffffffffffffffffffffffffffffffffffff16611234611bb7565b73ffffffffffffffffffffffffffffffffffffffff161461128a576040517f08c379a000000000000000000000000000000000000000000000000000000000815260040161128190612dc9565b60405180910390fd5b61129382611c0e565b61129f82826001611c19565b5050565b60007f000000000000000000000000000000000000000000000000000000000000000073ffffffffffffffffffffffffffffffffffffffff163073ffffffffffffffffffffffffffffffffffffffff1614611333576040517f08c379a000000000000000000000000000000000000000000000000000000000815260040161132a90612e09565b60405180910390fd5b7f360894a13ba1a3210667c828492db98dca3e2076cc3735a920a3ca505d382bbc60001b905090565b611364611b39565b8060d48190555050565b611376611b39565b600060d360006101000a81548160ff021916908315150217905550565b61139b611b39565b8060d28190555050565b6113ad611b39565b8060cc8190555050565b6113bf611b39565b6113c96000611f17565b565b6113d3611b39565b8060cd8190555050565b4260d554111580156113f0575060d65442105b61142f576040517f08c379a000000000000000000000000000000000000000000000000000000000815260040161142690612f69565b60405180910390fd5b6001151560d360009054906101000a900460ff16151514611485576040517f08c379a000000000000000000000000000000000000000000000000000000000815260040161147c90612da9565b60405180910390fd5b60ce548210158015611499575060cf548211155b6114d8576040517f08c379a00000000000000000000000000000000000000000000000000000000081526004016114cf90612f49565b60405180910390fd5b60d15481101580156114ec575060d0548111155b61152b576040517f08c379a000000000000000000000000000000000000000000000000000000000815260040161152290612de9565b60405180910390fd5b60006115378383611fdd565b905060006115458483612089565b9050600060cb54856115579190613175565b905060c960009054906101000a900473ffffffffffffffffffffffffffffffffffffffff1673ffffffffffffffffffffffffffffffffffffffff166323b872dd3330846040518463ffffffff1660e01b81526004016115b893929190612c38565b602060405180830381600087803b1580156115d257600080fd5b505af11580156115e6573d6000803e3d6000fd5b505050506040513d601f19601f8201168201806040525081019061160a9190612692565b5060ca60009054906101000a900473ffffffffffffffffffffffffffffffffffffffff1673ffffffffffffffffffffffffffffffffffffffff1663156e29f63360d754856040518463ffffffff1660e01b815260040161166c93929190612c98565b600060405180830381600087803b15801561168657600080fd5b505af115801561169a573d6000803e3d6000fd5b50505050600060d954905060006040518060e0016040528083815260200188815260200184815260200185815260200142815260200160d454876116de9190613175565b81526020016000815250905060d8819080600181540180825580915050600190039060005260206000209060070201600090919091909150600082015181600001556020820151816001015560408201518160020155606082015181600301556080820151816004015560a0820151816005015560c0820151816006015550506117af8260db60003373ffffffffffffffffffffffffffffffffffffffff1673ffffffffffffffffffffffffffffffffffffffff1681526020019081526020016000206120c390919063ffffffff16565b503360da600084815260200190815260200160002060006101000a81548173ffffffffffffffffffffffffffffffffffffffff021916908373ffffffffffffffffffffffffffffffffffffffff160217905550600160d9600082825461181591906130ee565b925050819055503373ffffffffffffffffffffffffffffffffffffffff167f2720efa4b2dd4f3f8a347da3cbd290a522e9432da9072c5b8e6300496fdde282838986896040516118689493929190612fe8565b60405180910390a250505050505050565b6000611884826120dd565b9050919050565b6000609760009054906101000a900473ffffffffffffffffffffffffffffffffffffffff16905090565b60008160d95481106118fc576040517f08c379a00000000000000000000000000000000000000000000000000000000081526004016118f390612ea9565b60405180910390fd5b60d25460d88481548110611939577f4e487b7100000000000000000000000000000000000000000000000000000000600052603260045260246000fd5b90600052602060002090600702016005015460d88581548110611985577f4e487b7100000000000000000000000000000000000000000000000000000000600052603260045260246000fd5b9060005260206000209060070201600401546119a191906130ee565b6119ab91906130ee565b915050919050565b60006119bd611bb7565b905090565b60008160d9548110611a09576040517f08c379a0000000000000000000000000000000000000000000000000000000008152600401611a0090612ea9565b60405180910390fd5b60da600084815260200190815260200160002060009054906101000a900473ffffffffffffffffffffffffffffffffffffffff16915050919050565b6000611a518383611fdd565b905092915050565b611a61611b39565b8160d1819055508060d0819055505050565b611a7b611b39565b8042611a8791906130ee565b60d68190555050565b611a98611b39565b600160d360006101000a81548160ff021916908315150217905550565b611abd611b39565b600073ffffffffffffffffffffffffffffffffffffffff168173ffffffffffffffffffffffffffffffffffffffff161415611b2d576040517f08c379a0000000000000000000000000000000000000000000000000000000008152600401611b2490612d49565b60405180910390fd5b611b3681611f17565b50565b611b4161211e565b73ffffffffffffffffffffffffffffffffffffffff16611b5f61188b565b73ffffffffffffffffffffffffffffffffffffffff1614611bb5576040517f08c379a0000000000000000000000000000000000000000000000000000000008152600401611bac90612ee9565b60405180910390fd5b565b6000611be57f360894a13ba1a3210667c828492db98dca3e2076cc3735a920a3ca505d382bbc60001b612126565b60000160009054906101000a900473ffffffffffffffffffffffffffffffffffffffff16905090565b611c16611b39565b50565b611c457f4910fdfa16fed3260ed0e7147f7cc6da11a60208b5b9406d12a635614ffd914360001b612130565b60000160009054906101000a900460ff1615611c6957611c648361213a565b611d91565b8273ffffffffffffffffffffffffffffffffffffffff166352d1902d6040518163ffffffff1660e01b815260040160206040518083038186803b158015611caf57600080fd5b505afa925050508015611ce057506040513d601f19601f82011682018060405250810190611cdd91906126bb565b60015b611d1f576040517f08c379a0000000000000000000000000000000000000000000000000000000008152600401611d1690612e89565b60405180910390fd5b7f360894a13ba1a3210667c828492db98dca3e2076cc3735a920a3ca505d382bbc60001b8114611d84576040517f08c379a0000000000000000000000000000000000000000000000000000000008152600401611d7b90612e49565b60405180910390fd5b50611d908383836121f3565b5b505050565b6000808273ffffffffffffffffffffffffffffffffffffffff163b119050919050565b600060019054906101000a900460ff16611e08576040517f08c379a0000000000000000000000000000000000000000000000000000000008152600401611dff90612f29565b60405180910390fd5b565b600060019054906101000a900460ff16611e59576040517f08c379a0000000000000000000000000000000000000000000000000000000008152600401611e5090612f29565b60405180910390fd5b611e6161221f565b565b690878678326eac900000060cb81905550605060cc819055506201518060d481905550601f60cd81905550600160ce81905550600c60cf81905550600360d181905550601e60d08190555060d4546007611ebd9190613175565b60d281905550600060d360006101000a81548160ff021916908315150217905550600060d781905550600060d9819055504260d581905550600760d454611f049190613175565b42611f0f91906130ee565b60d681905550565b6000609760009054906101000a900473ffffffffffffffffffffffffffffffffffffffff16905081609760006101000a81548173ffffffffffffffffffffffffffffffffffffffff021916908373ffffffffffffffffffffffffffffffffffffffff1602179055508173ffffffffffffffffffffffffffffffffffffffff168173ffffffffffffffffffffffffffffffffffffffff167f8be0079c531659141344cd1fd0a4f28419497f9722a3daafe3b4186f6b6457e060405160405180910390a35050565b600080606460cc548486611ff19190613175565b611ffb9190613175565b6120059190613144565b905060cd5481116120195782915050612083565b600061204b60cc54606460cd5460646120329190613175565b61203c9190613175565b6120469190613144565b6120dd565b9050600061206f868360646120609190613175565b61206a9190613144565b6120dd565b905061207d8160d154612280565b93505050505b92915050565b60006120bb60cd54606460cc5485876120a29190613175565b6120ac9190613175565b6120b69190613144565b61229a565b905092915050565b60006120d5836000018360001b6122b3565b905092915050565b6000806064836120ed9190613144565b9050826064826120fd9190613175565b146121145760018161210f91906130ee565b612116565b805b915050919050565b600033905090565b6000819050919050565b6000819050919050565b61214381611d96565b612182576040517f08c379a000000000000000000000000000000000000000000000000000000000815260040161217990612ec9565b60405180910390fd5b806121af7f360894a13ba1a3210667c828492db98dca3e2076cc3735a920a3ca505d382bbc60001b612126565b60000160006101000a81548173ffffffffffffffffffffffffffffffffffffffff021916908373ffffffffffffffffffffffffffffffffffffffff16021790555050565b6121fc83612323565b6000825111806122095750805b1561221a576122188383612372565b505b505050565b600060019054906101000a900460ff1661226e576040517f08c379a000000000000000000000000000000000000000000000000000000000815260040161226590612f29565b60405180910390fd5b61227e61227961211e565b611f17565b565b6000818310156122905781612292565b825b905092915050565b60008183106122a957816122ab565b825b905092915050565b60006122bf8383612456565b61231857826000018290806001815401808255809150506001900390600052602060002001600090919091909150558260000180549050836001016000848152602001908152602001600020819055506001905061231d565b600090505b92915050565b61232c8161213a565b8073ffffffffffffffffffffffffffffffffffffffff167fbc7cd75a20ee27fd9adebab32041f755214dbc6bffa90cc0225b39da2e5c2d3b60405160405180910390a250565b606061237d83611d96565b6123bc576040517f08c379a00000000000000000000000000000000000000000000000000000000081526004016123b390612f09565b60405180910390fd5b6000808473ffffffffffffffffffffffffffffffffffffffff16846040516123e49190612c06565b600060405180830381855af49150503d806000811461241f576040519150601f19603f3d011682016040523d82523d6000602084013e612424565b606091505b509150915061244c828260405180606001604052806027815260200161385560279139612479565b9250505092915050565b600080836001016000848152602001908152602001600020541415905092915050565b60608315612489578290506124d9565b60008351111561249c5782518084602001fd5b816040517f08c379a00000000000000000000000000000000000000000000000000000000081526004016124d09190612d27565b60405180910390fd5b9392505050565b6040518060e00160405280600081526020016000815260200160008152602001600081526020016000815260200160008152602001600081525090565b600061253061252b84613052565b61302d565b90508281526020810184848401111561254857600080fd5b612553848285613240565b509392505050565b60008135905061256a816137f8565b92915050565b60008151905061257f8161380f565b92915050565b60008151905061259481613826565b92915050565b600082601f8301126125ab57600080fd5b81356125bb84826020860161251d565b91505092915050565b6000813590506125d38161383d565b92915050565b6000602082840312156125eb57600080fd5b60006125f98482850161255b565b91505092915050565b6000806040838503121561261557600080fd5b60006126238582860161255b565b92505060206126348582860161255b565b9150509250929050565b6000806040838503121561265157600080fd5b600061265f8582860161255b565b925050602083013567ffffffffffffffff81111561267c57600080fd5b6126888582860161259a565b9150509250929050565b6000602082840312156126a457600080fd5b60006126b284828501612570565b91505092915050565b6000602082840312156126cd57600080fd5b60006126db84828501612585565b91505092915050565b6000602082840312156126f657600080fd5b6000612704848285016125c4565b91505092915050565b6000806040838503121561272057600080fd5b600061272e858286016125c4565b925050602061273f858286016125c4565b9150509250929050565b60006127558383612acc565b60e08301905092915050565b61276a816131cf565b82525050565b600061277b82613093565b61278581856130c1565b935061279083613083565b8060005b838110156127c15781516127a88882612749565b97506127b3836130b4565b925050600181019050612794565b5085935050505092915050565b6127d7816131ed565b82525050565b60006127e88261309e565b6127f281856130d2565b935061280281856020860161324f565b80840191505092915050565b6128178161322e565b82525050565b6000612828826130a9565b61283281856130dd565b935061284281856020860161324f565b61284b81613389565b840191505092915050565b60006128636026836130dd565b915061286e8261339a565b604082019050919050565b60006128866014836130dd565b9150612891826133e9565b602082019050919050565b60006128a9602c836130dd565b91506128b482613412565b604082019050919050565b60006128cc6011836130dd565b91506128d782613461565b602082019050919050565b60006128ef602c836130dd565b91506128fa8261348a565b604082019050919050565b60006129126019836130dd565b915061291d826134d9565b602082019050919050565b60006129356038836130dd565b915061294082613502565b604082019050919050565b60006129586011836130dd565b915061296382613551565b602082019050919050565b600061297b6029836130dd565b91506129868261357a565b604082019050919050565b600061299e602e836130dd565b91506129a9826135c9565b604082019050919050565b60006129c1602e836130dd565b91506129cc82613618565b604082019050919050565b60006129e4600f836130dd565b91506129ef82613667565b602082019050919050565b6000612a07602d836130dd565b9150612a1282613690565b604082019050919050565b6000612a2a6020836130dd565b9150612a35826136df565b602082019050919050565b6000612a4d6026836130dd565b9150612a5882613708565b604082019050919050565b6000612a70602b836130dd565b9150612a7b82613757565b604082019050919050565b6000612a93601d836130dd565b9150612a9e826137a6565b602082019050919050565b6000612ab66013836130dd565b9150612ac1826137cf565b602082019050919050565b60e082016000820151612ae26000850182612be8565b506020820151612af56020850182612be8565b506040820151612b086040850182612be8565b506060820151612b1b6060850182612be8565b506080820151612b2e6080850182612be8565b5060a0820151612b4160a0850182612be8565b5060c0820151612b5460c0850182612be8565b50505050565b60e082016000820151612b706000850182612be8565b506020820151612b836020850182612be8565b506040820151612b966040850182612be8565b506060820151612ba96060850182612be8565b506080820151612bbc6080850182612be8565b5060a0820151612bcf60a0850182612be8565b5060c0820151612be260c0850182612be8565b50505050565b612bf181613217565b82525050565b612c0081613217565b82525050565b6000612c1282846127dd565b915081905092915050565b6000602082019050612c326000830184612761565b92915050565b6000606082019050612c4d6000830186612761565b612c5a6020830185612761565b612c676040830184612bf7565b949350505050565b6000604082019050612c846000830185612761565b612c916020830184612bf7565b9392505050565b6000606082019050612cad6000830186612761565b612cba6020830185612bf7565b612cc76040830184612bf7565b949350505050565b60006020820190508181036000830152612ce98184612770565b905092915050565b6000602082019050612d0660008301846127ce565b92915050565b6000602082019050612d21600083018461280e565b92915050565b60006020820190508181036000830152612d41818461281d565b905092915050565b60006020820190508181036000830152612d6281612856565b9050919050565b60006020820190508181036000830152612d8281612879565b9050919050565b60006020820190508181036000830152612da28161289c565b9050919050565b60006020820190508181036000830152612dc2816128bf565b9050919050565b60006020820190508181036000830152612de2816128e2565b9050919050565b60006020820190508181036000830152612e0281612905565b9050919050565b60006020820190508181036000830152612e2281612928565b9050919050565b60006020820190508181036000830152612e428161294b565b9050919050565b60006020820190508181036000830152612e628161296e565b9050919050565b60006020820190508181036000830152612e8281612991565b9050919050565b60006020820190508181036000830152612ea2816129b4565b9050919050565b60006020820190508181036000830152612ec2816129d7565b9050919050565b60006020820190508181036000830152612ee2816129fa565b9050919050565b60006020820190508181036000830152612f0281612a1d565b9050919050565b60006020820190508181036000830152612f2281612a40565b9050919050565b60006020820190508181036000830152612f4281612a63565b9050919050565b60006020820190508181036000830152612f6281612a86565b9050919050565b60006020820190508181036000830152612f8281612aa9565b9050919050565b600060e082019050612f9e6000830184612b5a565b92915050565b6000602082019050612fb96000830184612bf7565b92915050565b6000604082019050612fd46000830185612bf7565b612fe16020830184612bf7565b9392505050565b6000608082019050612ffd6000830187612bf7565b61300a6020830186612bf7565b6130176040830185612bf7565b6130246060830184612bf7565b95945050505050565b6000613037613048565b90506130438282613282565b919050565b6000604051905090565b600067ffffffffffffffff82111561306d5761306c61335a565b5b61307682613389565b9050602081019050919050565b6000819050602082019050919050565b600081519050919050565b600081519050919050565b600081519050919050565b6000602082019050919050565b600082825260208201905092915050565b600081905092915050565b600082825260208201905092915050565b60006130f982613217565b915061310483613217565b9250827fffffffffffffffffffffffffffffffffffffffffffffffffffffffffffffffff03821115613139576131386132fc565b5b828201905092915050565b600061314f82613217565b915061315a83613217565b92508261316a5761316961332b565b5b828204905092915050565b600061318082613217565b915061318b83613217565b9250817fffffffffffffffffffffffffffffffffffffffffffffffffffffffffffffffff04831182151516156131c4576131c36132fc565b5b828202905092915050565b60006131da826131f7565b9050919050565b60008115159050919050565b6000819050919050565b600073ffffffffffffffffffffffffffffffffffffffff82169050919050565b6000819050919050565b600060ff82169050919050565b600061323982613221565b9050919050565b82818337600083830152505050565b60005b8381101561326d578082015181840152602081019050613252565b8381111561327c576000848401525b50505050565b61328b82613389565b810181811067ffffffffffffffff821117156132aa576132a961335a565b5b80604052505050565b60006132be82613217565b91507fffffffffffffffffffffffffffffffffffffffffffffffffffffffffffffffff8214156132f1576132f06132fc565b5b600182019050919050565b7f4e487b7100000000000000000000000000000000000000000000000000000000600052601160045260246000fd5b7f4e487b7100000000000000000000000000000000000000000000000000000000600052601260045260246000fd5b7f4e487b7100000000000000000000000000000000000000000000000000000000600052604160045260246000fd5b6000601f19601f8301169050919050565b7f4f776e61626c653a206e6577206f776e657220697320746865207a65726f206160008201527f6464726573730000000000000000000000000000000000000000000000000000602082015250565b7f43616e6e6f74207769746864726177206e6f7721000000000000000000000000600082015250565b7f46756e6374696f6e206d7573742062652063616c6c6564207468726f7567682060008201527f64656c656761746563616c6c0000000000000000000000000000000000000000602082015250565b7f54656d706f7261727920636c6f73696e67000000000000000000000000000000600082015250565b7f46756e6374696f6e206d7573742062652063616c6c6564207468726f7567682060008201527f6163746976652070726f78790000000000000000000000000000000000000000602082015250565b7f4c6f636b2d75702074696d65206f7574206f662072616e676500000000000000600082015250565b7f555550535570677261646561626c653a206d757374206e6f742062652063616c60008201527f6c6564207468726f7567682064656c656761746563616c6c0000000000000000602082015250565b7f416c72656164792077697468647261776e000000000000000000000000000000600082015250565b7f45524331393637557067726164653a20756e737570706f727465642070726f7860008201527f6961626c65555549440000000000000000000000000000000000000000000000602082015250565b7f496e697469616c697a61626c653a20636f6e747261637420697320616c72656160008201527f647920696e697469616c697a6564000000000000000000000000000000000000602082015250565b7f45524331393637557067726164653a206e657720696d706c656d656e7461746960008201527f6f6e206973206e6f742055555053000000000000000000000000000000000000602082015250565b7f496e76616c6964207374616b6549640000000000000000000000000000000000600082015250565b7f455243313936373a206e657720696d706c656d656e746174696f6e206973206e60008201527f6f74206120636f6e747261637400000000000000000000000000000000000000602082015250565b7f4f776e61626c653a2063616c6c6572206973206e6f7420746865206f776e6572600082015250565b7f416464726573733a2064656c65676174652063616c6c20746f206e6f6e2d636f60008201527f6e74726163740000000000000000000000000000000000000000000000000000602082015250565b7f496e697469616c697a61626c653a20636f6e7472616374206973206e6f74206960008201527f6e697469616c697a696e67000000000000000000000000000000000000000000602082015250565b7f6e756d626572206f6620626c6f636b73206f7574206f662072616e6765000000600082015250565b7f4e6f7420696e206f70656e696e672074696d6500000000000000000000000000600082015250565b613801816131cf565b811461380c57600080fd5b50565b613818816131e1565b811461382357600080fd5b50565b61382f816131ed565b811461383a57600080fd5b50565b61384681613217565b811461385157600080fd5b5056fe416464726573733a206c6f772d6c6576656c2064656c65676174652063616c6c206661696c6564a26469706673582212202e6170f9600eea0b2b44730a731ab543e2aa5842a64e39336528d8a3f9916b2c64736f6c63430008040033",
  "linkReferences": {},
  "deployedLinkReferences": {}
}