{
  "_format": "hh-sol-artifact-1",
  "contractName": "FitterPassLockedPool",
  "sourceName": "contracts/FitterPassLockedPool.sol",
  "abi": [
    {
      "anonymous": false,
      "inputs": [
        {
          "indexed": false,
          "internalType": "address",
          "name": "previousAdmin",
          "type": "address"
        },
        {
          "indexed": false,
          "internalType": "address",
          "name": "newAdmin",
          "type": "address"
        }
      ],
      "name": "AdminChanged",
      "type": "event"
    },
    {
      "anonymous": false,
      "inputs": [
        {
          "indexed": true,
          "internalType": "address",
          "name": "beacon",
          "type": "address"
        }
      ],
      "name": "BeaconUpgraded",
      "type": "event"
    },
    {
      "anonymous": false,
      "inputs": [
        {
          "indexed": false,
          "internalType": "uint8",
          "name": "version",
          "type": "uint8"
        }
      ],
      "name": "Initialized",
      "type": "event"
    },
    {
      "anonymous": false,
      "inputs": [
        {
          "indexed": true,
          "internalType": "address",
          "name": "previousOwner",
          "type": "address"
        },
        {
          "indexed": true,
          "internalType": "address",
          "name": "newOwner",
          "type": "address"
        }
      ],
      "name": "OwnershipTransferred",
      "type": "event"
    },
    {
      "anonymous": false,
      "inputs": [
        {
          "indexed": true,
          "internalType": "address",
          "name": "wallet",
          "type": "address"
        },
        {
          "indexed": false,
          "internalType": "uint256",
          "name": "stakeId",
          "type": "uint256"
        },
        {
          "indexed": false,
          "internalType": "uint256",
          "name": "numberOfBlocks",
          "type": "uint256"
        },
        {
          "indexed": false,
          "internalType": "uint256",
          "name": "amount",
          "type": "uint256"
        },
        {
          "indexed": false,
          "internalType": "uint256",
          "name": "lockedTime",
          "type": "uint256"
        }
      ],
      "name": "Stake",
      "type": "event"
    },
    {
      "anonymous": false,
      "inputs": [
        {
          "indexed": true,
          "internalType": "address",
          "name": "implementation",
          "type": "address"
        }
      ],
      "name": "Upgraded",
      "type": "event"
    },
    {
      "anonymous": false,
      "inputs": [
        {
          "indexed": true,
          "internalType": "address",
          "name": "wallet",
          "type": "address"
        },
        {
          "indexed": false,
          "internalType": "uint256",
          "name": "stakeId",
          "type": "uint256"
        },
        {
          "indexed": false,
          "internalType": "uint256",
          "name": "amount",
          "type": "uint256"
        }
      ],
      "name": "Withdraw",
      "type": "event"
    },
    {
      "inputs": [],
      "name": "closePool",
      "outputs": [],
      "stateMutability": "nonpayable",
      "type": "function"
    },
    {
      "inputs": [
        {
          "internalType": "uint256",
          "name": "aot",
          "type": "uint256"
        }
      ],
      "name": "extendEndTimeFromNow",
      "outputs": [],
      "stateMutability": "nonpayable",
      "type": "function"
    },
    {
      "inputs": [
        {
          "internalType": "address",
          "name": "wallet",
          "type": "address"
        }
      ],
      "name": "getAllUserStaking",
      "outputs": [
        {
          "components": [
            {
              "internalType": "uint256",
              "name": "sId",
              "type": "uint256"
            },
            {
              "internalType": "uint256",
              "name": "numberOfBlocks",
              "type": "uint256"
            },
            {
              "internalType": "uint256",
              "name": "tokenAmount",
              "type": "uint256"
            },
            {
              "internalType": "uint256",
              "name": "fpNum",
              "type": "uint256"
            },
            {
              "internalType": "uint256",
              "name": "stakingTime",
              "type": "uint256"
            },
            {
              "internalType": "uint256",
              "name": "lockedTime",
              "type": "uint256"
            },
            {
              "internalType": "uint256",
              "name": "withdrawn",
              "type": "uint256"
            }
          ],
          "internalType": "struct FitterPassLockedPool.StakeInfo[]",
          "name": "",
          "type": "tuple[]"
        }
      ],
      "stateMutability": "view",
      "type": "function"
    },
    {
      "inputs": [],
      "name": "getImplementation",
      "outputs": [
        {
          "internalType": "address",
          "name": "",
          "type": "address"
        }
      ],
      "stateMutability": "view",
      "type": "function"
    },
    {
      "inputs": [
        {
          "internalType": "uint256",
          "name": "_blockNum",
          "type": "uint256"
        },
        {
          "internalType": "uint256",
          "name": "_lockedTime",
          "type": "uint256"
        }
      ],
      "name": "getMinimalStakingTime",
      "outputs": [
        {
          "internalType": "uint256",
          "name": "",
          "type": "uint256"
        }
      ],
      "stateMutability": "view",
      "type": "function"
    },
    {
      "inputs": [
        {
          "internalType": "uint256",
          "name": "stakeId",
          "type": "uint256"
        }
      ],
      "name": "getStakeById",
      "outputs": [
        {
          "components": [
            {
              "internalType": "uint256",
              "name": "sId",
              "type": "uint256"
            },
            {
              "internalType": "uint256",
              "name": "numberOfBlocks",
              "type": "uint256"
            },
            {
              "internalType": "uint256",
              "name": "tokenAmount",
              "type": "uint256"
            },
            {
              "internalType": "uint256",
              "name": "fpNum",
              "type": "uint256"
            },
            {
              "internalType": "uint256",
              "name": "stakingTime",
              "type": "uint256"
            },
            {
              "internalType": "uint256",
              "name": "lockedTime",
              "type": "uint256"
            },
            {
              "internalType": "uint256",
              "name": "withdrawn",
              "type": "uint256"
            }
          ],
          "internalType": "struct FitterPassLockedPool.StakeInfo",
          "name": "",
          "type": "tuple"
        }
      ],
      "stateMutability": "view",
      "type": "function"
    },
    {
      "inputs": [
        {
          "internalType": "uint256",
          "name": "stakeId",
          "type": "uint256"
        }
      ],
      "name": "getStakingOwner",
      "outputs": [
        {
          "internalType": "address",
          "name": "",
          "type": "address"
        }
      ],
      "stateMutability": "view",
      "type": "function"
    },
    {
      "inputs": [
        {
          "internalType": "uint256",
          "name": "stakeId",
          "type": "uint256"
        }
      ],
      "name": "getWithdrawableTime",
      "outputs": [
        {
          "internalType": "uint256",
          "name": "",
          "type": "uint256"
        }
      ],
      "stateMutability": "view",
      "type": "function"
    },
    {
      "inputs": [
        {
          "internalType": "address",
          "name": "tokenAddress",
          "type": "address"
        },
        {
          "internalType": "address",
          "name": "rewardItemContract",
          "type": "address"
        }
      ],
      "name": "initialize",
      "outputs": [],
      "stateMutability": "nonpayable",
      "type": "function"
    },
    {
      "inputs": [],
      "name": "openPool",
      "outputs": [],
      "stateMutability": "nonpayable",
      "type": "function"
    },
    {
      "inputs": [],
      "name": "owner",
      "outputs": [
        {
          "internalType": "address",
          "name": "",
          "type": "address"
        }
      ],
      "stateMutability": "view",
      "type": "function"
    },
    {
      "inputs": [],
      "name": "proxiableUUID",
      "outputs": [
        {
          "internalType": "bytes32",
          "name": "",
          "type": "bytes32"
        }
      ],
      "stateMutability": "view",
      "type": "function"
    },
    {
      "inputs": [],
      "name": "renounceOwnership",
      "outputs": [],
      "stateMutability": "nonpayable",
      "type": "function"
    },
    {
      "inputs": [
        {
          "internalType": "uint256",
          "name": "x",
          "type": "uint256"
        }
      ],
      "name": "roundUp",
      "outputs": [
        {
          "internalType": "uint256",
          "name": "",
          "type": "uint256"
        }
      ],
      "stateMutability": "pure",
      "type": "function"
    },
    {
      "inputs": [
        {
          "internalType": "uint256",
          "name": "amount",
          "type": "uint256"
        }
      ],
      "name": "setBlockAmount",
      "outputs": [],
      "stateMutability": "nonpayable",
      "type": "function"
    },
    {
      "inputs": [
        {
          "internalType": "uint256",
          "name": "rate",
          "type": "uint256"
        }
      ],
      "name": "setEarningRate",
      "outputs": [],
      "stateMutability": "nonpayable",
      "type": "function"
    },
    {
      "inputs": [
        {
          "internalType": "uint256",
          "name": "maxPass",
          "type": "uint256"
        }
      ],
      "name": "setMaxEarningPass",
      "outputs": [],
      "stateMutability": "nonpayable",
      "type": "function"
    },
    {
      "inputs": [
        {
          "internalType": "uint256",
          "name": "minBlock",
          "type": "uint256"
        },
        {
          "internalType": "uint256",
          "name": "maxBlock",
          "type": "uint256"
        }
      ],
      "name": "setMinMaxBlockNum",
      "outputs": [],
      "stateMutability": "nonpayable",
      "type": "function"
    },
    {
      "inputs": [
        {
          "internalType": "uint256",
          "name": "minTime",
          "type": "uint256"
        },
        {
          "internalType": "uint256",
          "name": "maxTime",
          "type": "uint256"
        }
      ],
      "name": "setMinMaxLockedTime",
      "outputs": [],
      "stateMutability": "nonpayable",
      "type": "function"
    },
    {
      "inputs": [
        {
          "internalType": "uint256",
          "name": "tokenId",
          "type": "uint256"
        }
      ],
      "name": "setRewardTokenId",
      "outputs": [],
      "stateMutability": "nonpayable",
      "type": "function"
    },
    {
      "inputs": [
        {
          "internalType": "uint256",
          "name": "delayTime",
          "type": "uint256"
        }
      ],
      "name": "setWithdrawalDelayTime",
      "outputs": [],
      "stateMutability": "nonpayable",
      "type": "function"
    },
    {
      "inputs": [
        {
          "internalType": "uint256",
          "name": "_blockNum",
          "type": "uint256"
        },
        {
          "internalType": "uint256",
          "name": "_lockedTime",
          "type": "uint256"
        }
      ],
      "name": "stake",
      "outputs": [],
      "stateMutability": "nonpayable",
      "type": "function"
    },
    {
      "inputs": [
        {
          "internalType": "address",
          "name": "newOwner",
          "type": "address"
        }
      ],
      "name": "transferOwnership",
      "outputs": [],
      "stateMutability": "nonpayable",
      "type": "function"
    },
    {
      "inputs": [
        {
          "internalType": "address",
          "name": "newImplementation",
          "type": "address"
        }
      ],
      "name": "upgradeTo",
      "outputs": [],
      "stateMutability": "nonpayable",
      "type": "function"
    },
    {
      "inputs": [
        {
          "internalType": "address",
          "name": "newImplementation",
          "type": "address"
        },
        {
          "internalType": "bytes",
          "name": "data",
          "type": "bytes"
        }
      ],
      "name": "upgradeToAndCall",
      "outputs": [],
      "stateMutability": "payable",
      "type": "function"
    },
    {
      "inputs": [
        {
          "internalType": "uint256",
          "name": "stakeId",
          "type": "uint256"
        }
      ],
      "name": "withdraw",
      "outputs": [],
      "stateMutability": "nonpayable",
      "type": "function"
    }
  ],
  "bytecode": "0x60a06040523073ffffffffffffffffffffffffffffffffffffffff1660809073ffffffffffffffffffffffffffffffffffffffff1660601b81525034801561004657600080fd5b5060805160601c6139ec61008160003960008181610d8901528181610e1801528181611124015281816111b3015261126301526139ec6000f3fe6080604052600436106101815760003560e01c8063715018a6116100d1578063aaf10f421161008a578063c5f8d8bf11610064578063c5f8d8bf14610559578063cc61521814610582578063eb5797a4146105ab578063f2fde38b146105c257610181565b8063aaf10f42146104b4578063b62a6aae146104df578063bfc8b1f81461051c57610181565b8063715018a6146103a65780637a851645146103bd5780637b0472f0146103e65780637b6a6f4a1461040f5780638da5cb5b1461044c578063a5ed5cc51461047757610181565b8063434073ca1161013e57806352d1902d1161011857806352d1902d1461031257806366805de51461033d5780636aa9f686146103545780636efabb011461037d57610181565b8063434073ca146102a4578063485cc955146102cd5780634f1ef286146102f657610181565b806305e4a95a1461018657806306c85379146101af578063160244ed146101ec5780632e1a7d4d14610215578063318831451461023e5780633659cfe61461027b575b600080fd5b34801561019257600080fd5b506101ad60048036038101906101a891906127ef565b6105eb565b005b3480156101bb57600080fd5b506101d660048036038101906101d191906126e4565b6105fd565b6040516101e39190612dda565b60405180910390f35b3480156101f857600080fd5b50610213600480360381019061020e91906127ef565b61081c565b005b34801561022157600080fd5b5061023c600480360381019061023791906127ef565b61082e565b005b34801561024a57600080fd5b50610265600480360381019061026091906127ef565b610c99565b60405161027291906130c4565b60405180910390f35b34801561028757600080fd5b506102a2600480360381019061029d91906126e4565b610d87565b005b3480156102b057600080fd5b506102cb60048036038101906102c69190612818565b610f36565b005b3480156102d957600080fd5b506102f460048036038101906102ef919061270d565b610f50565b005b610310600480360381019061030b9190612749565b611122565b005b34801561031e57600080fd5b5061032761125f565b6040516103349190612dfc565b60405180910390f35b34801561034957600080fd5b50610352611318565b005b34801561036057600080fd5b5061037b600480360381019061037691906127ef565b61133d565b005b34801561038957600080fd5b506103a4600480360381019061039f91906127ef565b61134f565b005b3480156103b257600080fd5b506103bb611361565b005b3480156103c957600080fd5b506103e460048036038101906103df91906127ef565b611375565b005b3480156103f257600080fd5b5061040d60048036038101906104089190612818565b611387565b005b34801561041b57600080fd5b50610436600480360381019061043191906127ef565b611822565b60405161044391906130df565b60405180910390f35b34801561045857600080fd5b50610461611834565b60405161046e9190612d28565b60405180910390f35b34801561048357600080fd5b5061049e600480360381019061049991906127ef565b61185e565b6040516104ab91906130df565b60405180910390f35b3480156104c057600080fd5b506104c961195c565b6040516104d69190612d28565b60405180910390f35b3480156104eb57600080fd5b50610506600480360381019061050191906127ef565b61196b565b6040516105139190612d28565b60405180910390f35b34801561052857600080fd5b50610543600480360381019061053e9190612818565b6119ee565b60405161055091906130df565b60405180910390f35b34801561056557600080fd5b50610580600480360381019061057b9190612818565b611a02565b005b34801561058e57600080fd5b506105a960048036038101906105a491906127ef565b611a1c565b005b3480156105b757600080fd5b506105c0611a39565b005b3480156105ce57600080fd5b506105e960048036038101906105e491906126e4565b611a5e565b005b6105f3611ae2565b8060cb8190555050565b6060600060da60008473ffffffffffffffffffffffffffffffffffffffff1673ffffffffffffffffffffffffffffffffffffffff168152602001908152602001600020600001600001905060008180549050905060008167ffffffffffffffff811115610693577f4e487b7100000000000000000000000000000000000000000000000000000000600052604160045260246000fd5b6040519080825280602002602001820160405280156106cc57816020015b6106b96125eb565b8152602001906001900390816106b15790505b50905060005b828110156108105760d7848281548110610715577f4e487b7100000000000000000000000000000000000000000000000000000000600052603260045260246000fd5b906000526020600020015460001c8154811061075a577f4e487b7100000000000000000000000000000000000000000000000000000000600052603260045260246000fd5b90600052602060002090600702016040518060e00160405290816000820154815260200160018201548152602001600282015481526020016003820154815260200160048201548152602001600582015481526020016006820154815250508282815181106107f2577f4e487b7100000000000000000000000000000000000000000000000000000000600052603260045260246000fd5b60200260200101819052508080610808906133ee565b9150506106d2565b50809350505050919050565b610824611ae2565b8060d68190555050565b8060d8548110610873576040517f08c379a000000000000000000000000000000000000000000000000000000000815260040161086a90612fe4565b60405180910390fd5b6001151560d360009054906101000a900460ff161515146108c9576040517f08c379a00000000000000000000000000000000000000000000000000000000081526004016108c090612ee4565b60405180910390fd5b60d25460d78381548110610906577f4e487b7100000000000000000000000000000000000000000000000000000000600052603260045260246000fd5b90600052602060002090600702016005015460d78481548110610952577f4e487b7100000000000000000000000000000000000000000000000000000000600052603260045260246000fd5b90600052602060002090600702016004015461096e9190613229565b6109789190613229565b4210156109ba576040517f08c379a00000000000000000000000000000000000000000000000000000000081526004016109b190612ea4565b60405180910390fd5b600060d783815481106109f6577f4e487b7100000000000000000000000000000000000000000000000000000000600052603260045260246000fd5b90600052602060002090600702016006015414610a48576040517f08c379a0000000000000000000000000000000000000000000000000000000008152600401610a3f90612f64565b60405180910390fd5b600160d78381548110610a84577f4e487b7100000000000000000000000000000000000000000000000000000000600052603260045260246000fd5b90600052602060002090600702016006018190555060c960009054906101000a900473ffffffffffffffffffffffffffffffffffffffff1673ffffffffffffffffffffffffffffffffffffffff1663a9059cbb60d9600085815260200190815260200160002060009054906101000a900473ffffffffffffffffffffffffffffffffffffffff1660d78581548110610b45577f4e487b7100000000000000000000000000000000000000000000000000000000600052603260045260246000fd5b9060005260206000209060070201600201546040518363ffffffff1660e01b8152600401610b74929190612d7a565b602060405180830381600087803b158015610b8e57600080fd5b505af1158015610ba2573d6000803e3d6000fd5b505050506040513d601f19601f82011682018060405250810190610bc6919061279d565b5060d9600083815260200190815260200160002060009054906101000a900473ffffffffffffffffffffffffffffffffffffffff1673ffffffffffffffffffffffffffffffffffffffff167ff279e6a1f5e320cca91135676d9cb6e44ca8a08c0b88342bcdb1144f6511b5688360d78581548110610c6d577f4e487b7100000000000000000000000000000000000000000000000000000000600052603260045260246000fd5b906000526020600020906007020160020154604051610c8d9291906130fa565b60405180910390a25050565b610ca16125eb565b8160d8548110610ce6576040517f08c379a0000000000000000000000000000000000000000000000000000000008152600401610cdd90612fe4565b60405180910390fd5b60d78381548110610d20577f4e487b7100000000000000000000000000000000000000000000000000000000600052603260045260246000fd5b90600052602060002090600702016040518060e0016040529081600082015481526020016001820154815260200160028201548152602001600382015481526020016004820154815260200160058201548152602001600682015481525050915050919050565b7f000000000000000000000000000000000000000000000000000000000000000073ffffffffffffffffffffffffffffffffffffffff163073ffffffffffffffffffffffffffffffffffffffff161415610e16576040517f08c379a0000000000000000000000000000000000000000000000000000000008152600401610e0d90612ec4565b60405180910390fd5b7f000000000000000000000000000000000000000000000000000000000000000073ffffffffffffffffffffffffffffffffffffffff16610e55611b60565b73ffffffffffffffffffffffffffffffffffffffff1614610eab576040517f08c379a0000000000000000000000000000000000000000000000000000000008152600401610ea290612f04565b60405180910390fd5b610eb481611bb7565b610f3381600067ffffffffffffffff811115610ef9577f4e487b7100000000000000000000000000000000000000000000000000000000600052604160045260246000fd5b6040519080825280601f01601f191660200182016040528015610f2b5781602001600182028036833780820191505090505b506000611bc2565b50565b610f3e611ae2565b8160ce819055508060cf819055505050565b60008060019054906101000a900460ff16159050808015610f815750600160008054906101000a900460ff1660ff16105b80610fae5750610f9030611d3f565b158015610fad5750600160008054906101000a900460ff1660ff16145b5b610fed576040517f08c379a0000000000000000000000000000000000000000000000000000000008152600401610fe490612fa4565b60405180910390fd5b60016000806101000a81548160ff021916908360ff160217905550801561102a576001600060016101000a81548160ff0219169083151502179055505b611032611d62565b61103a611db3565b8260c960006101000a81548173ffffffffffffffffffffffffffffffffffffffff021916908373ffffffffffffffffffffffffffffffffffffffff1602179055508160ca60006101000a81548173ffffffffffffffffffffffffffffffffffffffff021916908373ffffffffffffffffffffffffffffffffffffffff1602179055506110c4611e0c565b801561111d5760008060016101000a81548160ff0219169083151502179055507f7f26b83ff96e1f2b6a682f133852f6798a09c465da95921460cefb384740249860016040516111149190612e17565b60405180910390a15b505050565b7f000000000000000000000000000000000000000000000000000000000000000073ffffffffffffffffffffffffffffffffffffffff163073ffffffffffffffffffffffffffffffffffffffff1614156111b1576040517f08c379a00000000000000000000000000000000000000000000000000000000081526004016111a890612ec4565b60405180910390fd5b7f000000000000000000000000000000000000000000000000000000000000000073ffffffffffffffffffffffffffffffffffffffff166111f0611b60565b73ffffffffffffffffffffffffffffffffffffffff1614611246576040517f08c379a000000000000000000000000000000000000000000000000000000000815260040161123d90612f04565b60405180910390fd5b61124f82611bb7565b61125b82826001611bc2565b5050565b60007f000000000000000000000000000000000000000000000000000000000000000073ffffffffffffffffffffffffffffffffffffffff163073ffffffffffffffffffffffffffffffffffffffff16146112ef576040517f08c379a00000000000000000000000000000000000000000000000000000000081526004016112e690612f44565b60405180910390fd5b7f360894a13ba1a3210667c828492db98dca3e2076cc3735a920a3ca505d382bbc60001b905090565b611320611ae2565b600060d360006101000a81548160ff021916908315150217905550565b611345611ae2565b8060d28190555050565b611357611ae2565b8060cc8190555050565b611369611ae2565b6113736000611e9e565b565b61137d611ae2565b8060cd8190555050565b4260d4541115801561139a575060d55442105b6113d9576040517f08c379a00000000000000000000000000000000000000000000000000000000081526004016113d0906130a4565b60405180910390fd5b6001151560d360009054906101000a900460ff1615151461142f576040517f08c379a000000000000000000000000000000000000000000000000000000000815260040161142690612ee4565b60405180910390fd5b60ce548210158015611443575060cf548211155b611482576040517f08c379a000000000000000000000000000000000000000000000000000000000815260040161147990613084565b60405180910390fd5b60d1548110158015611496575060d0548111155b6114d5576040517f08c379a00000000000000000000000000000000000000000000000000000000081526004016114cc90612f24565b60405180910390fd5b60006114e18383611f64565b905060006114ef84836120cf565b9050600060cb548561150191906132b0565b905060c960009054906101000a900473ffffffffffffffffffffffffffffffffffffffff1673ffffffffffffffffffffffffffffffffffffffff166323b872dd3330846040518463ffffffff1660e01b815260040161156293929190612d43565b602060405180830381600087803b15801561157c57600080fd5b505af1158015611590573d6000803e3d6000fd5b505050506040513d601f19601f820116820180604052508101906115b4919061279d565b5060ca60009054906101000a900473ffffffffffffffffffffffffffffffffffffffff1673ffffffffffffffffffffffffffffffffffffffff1663156e29f63360d654856040518463ffffffff1660e01b815260040161161693929190612da3565b600060405180830381600087803b15801561163057600080fd5b505af1158015611644573d6000803e3d6000fd5b50505050600060d854905060006040518060e00160405280838152602001888152602001848152602001858152602001428152602001603c8761168791906132b0565b81526020016000815250905060d7819080600181540180825580915050600190039060005260206000209060070201600090919091909150600082015181600001556020820151816001015560408201518160020155606082015181600301556080820151816004015560a0820151816005015560c0820151816006015550506117588260da60003373ffffffffffffffffffffffffffffffffffffffff1673ffffffffffffffffffffffffffffffffffffffff16815260200190815260200160002061210990919063ffffffff16565b503360d9600084815260200190815260200160002060006101000a81548173ffffffffffffffffffffffffffffffffffffffff021916908373ffffffffffffffffffffffffffffffffffffffff160217905550600160d860008282546117be9190613229565b925050819055503373ffffffffffffffffffffffffffffffffffffffff167f2720efa4b2dd4f3f8a347da3cbd290a522e9432da9072c5b8e6300496fdde282838986896040516118119493929190613123565b60405180910390a250505050505050565b600061182d82612123565b9050919050565b6000609760009054906101000a900473ffffffffffffffffffffffffffffffffffffffff16905090565b60008160d85481106118a5576040517f08c379a000000000000000000000000000000000000000000000000000000000815260040161189c90612fe4565b60405180910390fd5b60d25460d784815481106118e2577f4e487b7100000000000000000000000000000000000000000000000000000000600052603260045260246000fd5b90600052602060002090600702016005015460d7858154811061192e577f4e487b7100000000000000000000000000000000000000000000000000000000600052603260045260246000fd5b90600052602060002090600702016004015461194a9190613229565b6119549190613229565b915050919050565b6000611966611b60565b905090565b60008160d85481106119b2576040517f08c379a00000000000000000000000000000000000000000000000000000000081526004016119a990612fe4565b60405180910390fd5b60d9600084815260200190815260200160002060009054906101000a900473ffffffffffffffffffffffffffffffffffffffff16915050919050565b60006119fa8383611f64565b905092915050565b611a0a611ae2565b8160d1819055508060d0819055505050565b611a24611ae2565b8042611a309190613229565b60d58190555050565b611a41611ae2565b600160d360006101000a81548160ff021916908315150217905550565b611a66611ae2565b600073ffffffffffffffffffffffffffffffffffffffff168173ffffffffffffffffffffffffffffffffffffffff161415611ad6576040517f08c379a0000000000000000000000000000000000000000000000000000000008152600401611acd90612e84565b60405180910390fd5b611adf81611e9e565b50565b611aea612164565b73ffffffffffffffffffffffffffffffffffffffff16611b08611834565b73ffffffffffffffffffffffffffffffffffffffff1614611b5e576040517f08c379a0000000000000000000000000000000000000000000000000000000008152600401611b5590613024565b60405180910390fd5b565b6000611b8e7f360894a13ba1a3210667c828492db98dca3e2076cc3735a920a3ca505d382bbc60001b61216c565b60000160009054906101000a900473ffffffffffffffffffffffffffffffffffffffff16905090565b611bbf611ae2565b50565b611bee7f4910fdfa16fed3260ed0e7147f7cc6da11a60208b5b9406d12a635614ffd914360001b612176565b60000160009054906101000a900460ff1615611c1257611c0d83612180565b611d3a565b8273ffffffffffffffffffffffffffffffffffffffff166352d1902d6040518163ffffffff1660e01b815260040160206040518083038186803b158015611c5857600080fd5b505afa925050508015611c8957506040513d601f19601f82011682018060405250810190611c8691906127c6565b60015b611cc8576040517f08c379a0000000000000000000000000000000000000000000000000000000008152600401611cbf90612fc4565b60405180910390fd5b7f360894a13ba1a3210667c828492db98dca3e2076cc3735a920a3ca505d382bbc60001b8114611d2d576040517f08c379a0000000000000000000000000000000000000000000000000000000008152600401611d2490612f84565b60405180910390fd5b50611d39838383612239565b5b505050565b6000808273ffffffffffffffffffffffffffffffffffffffff163b119050919050565b600060019054906101000a900460ff16611db1576040517f08c379a0000000000000000000000000000000000000000000000000000000008152600401611da890613064565b60405180910390fd5b565b600060019054906101000a900460ff16611e02576040517f08c379a0000000000000000000000000000000000000000000000000000000008152600401611df990613064565b60405180910390fd5b611e0a612265565b565b690878678326eac900000060cb81905550605060cc81905550601f60cd81905550600160ce81905550600c60cf81905550600360d181905550601e60d0819055506101a460d281905550600060d360006101000a81548160ff021916908315150217905550600060d681905550600060d8819055504260d481905550610e1042611e969190613229565b60d581905550565b6000609760009054906101000a900473ffffffffffffffffffffffffffffffffffffffff16905081609760006101000a81548173ffffffffffffffffffffffffffffffffffffffff021916908373ffffffffffffffffffffffffffffffffffffffff1602179055508173ffffffffffffffffffffffffffffffffffffffff168173ffffffffffffffffffffffffffffffffffffffff167f8be0079c531659141344cd1fd0a4f28419497f9722a3daafe3b4186f6b6457e060405160405180910390a35050565b600080606460cc548486611f7891906132b0565b611f8291906132b0565b611f8c919061327f565b905060cd548111611fa057829150506120c9565b6000611fd260cc54606460cd546064611fb991906132b0565b611fc391906132b0565b611fcd919061327f565b612123565b90506120136040518060400160405280600581526020017f6d6178503a000000000000000000000000000000000000000000000000000000815250826122c6565b60006120358683606461202691906132b0565b612030919061327f565b612123565b90506120766040518060400160405280600481526020017f7265743a00000000000000000000000000000000000000000000000000000000815250826122c6565b6120b76040518060400160405280600e81526020017f6d696e4c6f636b656454696d653a00000000000000000000000000000000000081525060d1546122c6565b6120c38160d154612362565b93505050505b92915050565b600061210160cd54606460cc5485876120e891906132b0565b6120f291906132b0565b6120fc919061327f565b61237c565b905092915050565b600061211b836000018360001b612395565b905092915050565b600080606483612133919061327f565b90508260648261214391906132b0565b1461215a576001816121559190613229565b61215c565b805b915050919050565b600033905090565b6000819050919050565b6000819050919050565b61218981611d3f565b6121c8576040517f08c379a00000000000000000000000000000000000000000000000000000000081526004016121bf90613004565b60405180910390fd5b806121f57f360894a13ba1a3210667c828492db98dca3e2076cc3735a920a3ca505d382bbc60001b61216c565b60000160006101000a81548173ffffffffffffffffffffffffffffffffffffffff021916908373ffffffffffffffffffffffffffffffffffffffff16021790555050565b61224283612405565b60008251118061224f5750805b156122605761225e8383612454565b505b505050565b600060019054906101000a900460ff166122b4576040517f08c379a00000000000000000000000000000000000000000000000000000000081526004016122ab90613064565b60405180910390fd5b6122c46122bf612164565b611e9e565b565b61235e82826040516024016122dc929190612e54565b6040516020818303038152906040527f9710a9d0000000000000000000000000000000000000000000000000000000007bffffffffffffffffffffffffffffffffffffffffffffffffffffffff19166020820180517bffffffffffffffffffffffffffffffffffffffffffffffffffffffff8381831617835250505050612538565b5050565b6000818310156123725781612374565b825b905092915050565b600081831061238b578161238d565b825b905092915050565b60006123a18383612561565b6123fa5782600001829080600181540180825580915050600190039060005260206000200160009091909190915055826000018054905083600101600084815260200190815260200160002081905550600190506123ff565b600090505b92915050565b61240e81612180565b8073ffffffffffffffffffffffffffffffffffffffff167fbc7cd75a20ee27fd9adebab32041f755214dbc6bffa90cc0225b39da2e5c2d3b60405160405180910390a250565b606061245f83611d3f565b61249e576040517f08c379a000000000000000000000000000000000000000000000000000000000815260040161249590613044565b60405180910390fd5b6000808473ffffffffffffffffffffffffffffffffffffffff16846040516124c69190612d11565b600060405180830381855af49150503d8060008114612501576040519150601f19603f3d011682016040523d82523d6000602084013e612506565b606091505b509150915061252e828260405180606001604052806027815260200161399060279139612584565b9250505092915050565b60008151905060006a636f6e736f6c652e6c6f679050602083016000808483855afa5050505050565b600080836001016000848152602001908152602001600020541415905092915050565b60608315612594578290506125e4565b6000835111156125a75782518084602001fd5b816040517f08c379a00000000000000000000000000000000000000000000000000000000081526004016125db9190612e32565b60405180910390fd5b9392505050565b6040518060e00160405280600081526020016000815260200160008152602001600081526020016000815260200160008152602001600081525090565b600061263b6126368461318d565b613168565b90508281526020810184848401111561265357600080fd5b61265e84828561337b565b509392505050565b60008135905061267581613933565b92915050565b60008151905061268a8161394a565b92915050565b60008151905061269f81613961565b92915050565b600082601f8301126126b657600080fd5b81356126c6848260208601612628565b91505092915050565b6000813590506126de81613978565b92915050565b6000602082840312156126f657600080fd5b600061270484828501612666565b91505092915050565b6000806040838503121561272057600080fd5b600061272e85828601612666565b925050602061273f85828601612666565b9150509250929050565b6000806040838503121561275c57600080fd5b600061276a85828601612666565b925050602083013567ffffffffffffffff81111561278757600080fd5b612793858286016126a5565b9150509250929050565b6000602082840312156127af57600080fd5b60006127bd8482850161267b565b91505092915050565b6000602082840312156127d857600080fd5b60006127e684828501612690565b91505092915050565b60006020828403121561280157600080fd5b600061280f848285016126cf565b91505092915050565b6000806040838503121561282b57600080fd5b6000612839858286016126cf565b925050602061284a858286016126cf565b9150509250929050565b60006128608383612bd7565b60e08301905092915050565b6128758161330a565b82525050565b6000612886826131ce565b61289081856131fc565b935061289b836131be565b8060005b838110156128cc5781516128b38882612854565b97506128be836131ef565b92505060018101905061289f565b5085935050505092915050565b6128e281613328565b82525050565b60006128f3826131d9565b6128fd818561320d565b935061290d81856020860161338a565b80840191505092915050565b61292281613369565b82525050565b6000612933826131e4565b61293d8185613218565b935061294d81856020860161338a565b612956816134c4565b840191505092915050565b600061296e602683613218565b9150612979826134d5565b604082019050919050565b6000612991601483613218565b915061299c82613524565b602082019050919050565b60006129b4602c83613218565b91506129bf8261354d565b604082019050919050565b60006129d7601183613218565b91506129e28261359c565b602082019050919050565b60006129fa602c83613218565b9150612a05826135c5565b604082019050919050565b6000612a1d601983613218565b9150612a2882613614565b602082019050919050565b6000612a40603883613218565b9150612a4b8261363d565b604082019050919050565b6000612a63601183613218565b9150612a6e8261368c565b602082019050919050565b6000612a86602983613218565b9150612a91826136b5565b604082019050919050565b6000612aa9602e83613218565b9150612ab482613704565b604082019050919050565b6000612acc602e83613218565b9150612ad782613753565b604082019050919050565b6000612aef600f83613218565b9150612afa826137a2565b602082019050919050565b6000612b12602d83613218565b9150612b1d826137cb565b604082019050919050565b6000612b35602083613218565b9150612b408261381a565b602082019050919050565b6000612b58602683613218565b9150612b6382613843565b604082019050919050565b6000612b7b602b83613218565b9150612b8682613892565b604082019050919050565b6000612b9e601d83613218565b9150612ba9826138e1565b602082019050919050565b6000612bc1601383613218565b9150612bcc8261390a565b602082019050919050565b60e082016000820151612bed6000850182612cf3565b506020820151612c006020850182612cf3565b506040820151612c136040850182612cf3565b506060820151612c266060850182612cf3565b506080820151612c396080850182612cf3565b5060a0820151612c4c60a0850182612cf3565b5060c0820151612c5f60c0850182612cf3565b50505050565b60e082016000820151612c7b6000850182612cf3565b506020820151612c8e6020850182612cf3565b506040820151612ca16040850182612cf3565b506060820151612cb46060850182612cf3565b506080820151612cc76080850182612cf3565b5060a0820151612cda60a0850182612cf3565b5060c0820151612ced60c0850182612cf3565b50505050565b612cfc81613352565b82525050565b612d0b81613352565b82525050565b6000612d1d82846128e8565b915081905092915050565b6000602082019050612d3d600083018461286c565b92915050565b6000606082019050612d58600083018661286c565b612d65602083018561286c565b612d726040830184612d02565b949350505050565b6000604082019050612d8f600083018561286c565b612d9c6020830184612d02565b9392505050565b6000606082019050612db8600083018661286c565b612dc56020830185612d02565b612dd26040830184612d02565b949350505050565b60006020820190508181036000830152612df4818461287b565b905092915050565b6000602082019050612e1160008301846128d9565b92915050565b6000602082019050612e2c6000830184612919565b92915050565b60006020820190508181036000830152612e4c8184612928565b905092915050565b60006040820190508181036000830152612e6e8185612928565b9050612e7d6020830184612d02565b9392505050565b60006020820190508181036000830152612e9d81612961565b9050919050565b60006020820190508181036000830152612ebd81612984565b9050919050565b60006020820190508181036000830152612edd816129a7565b9050919050565b60006020820190508181036000830152612efd816129ca565b9050919050565b60006020820190508181036000830152612f1d816129ed565b9050919050565b60006020820190508181036000830152612f3d81612a10565b9050919050565b60006020820190508181036000830152612f5d81612a33565b9050919050565b60006020820190508181036000830152612f7d81612a56565b9050919050565b60006020820190508181036000830152612f9d81612a79565b9050919050565b60006020820190508181036000830152612fbd81612a9c565b9050919050565b60006020820190508181036000830152612fdd81612abf565b9050919050565b60006020820190508181036000830152612ffd81612ae2565b9050919050565b6000602082019050818103600083015261301d81612b05565b9050919050565b6000602082019050818103600083015261303d81612b28565b9050919050565b6000602082019050818103600083015261305d81612b4b565b9050919050565b6000602082019050818103600083015261307d81612b6e565b9050919050565b6000602082019050818103600083015261309d81612b91565b9050919050565b600060208201905081810360008301526130bd81612bb4565b9050919050565b600060e0820190506130d96000830184612c65565b92915050565b60006020820190506130f46000830184612d02565b92915050565b600060408201905061310f6000830185612d02565b61311c6020830184612d02565b9392505050565b60006080820190506131386000830187612d02565b6131456020830186612d02565b6131526040830185612d02565b61315f6060830184612d02565b95945050505050565b6000613172613183565b905061317e82826133bd565b919050565b6000604051905090565b600067ffffffffffffffff8211156131a8576131a7613495565b5b6131b1826134c4565b9050602081019050919050565b6000819050602082019050919050565b600081519050919050565b600081519050919050565b600081519050919050565b6000602082019050919050565b600082825260208201905092915050565b600081905092915050565b600082825260208201905092915050565b600061323482613352565b915061323f83613352565b9250827fffffffffffffffffffffffffffffffffffffffffffffffffffffffffffffffff0382111561327457613273613437565b5b828201905092915050565b600061328a82613352565b915061329583613352565b9250826132a5576132a4613466565b5b828204905092915050565b60006132bb82613352565b91506132c683613352565b9250817fffffffffffffffffffffffffffffffffffffffffffffffffffffffffffffffff04831182151516156132ff576132fe613437565b5b828202905092915050565b600061331582613332565b9050919050565b60008115159050919050565b6000819050919050565b600073ffffffffffffffffffffffffffffffffffffffff82169050919050565b6000819050919050565b600060ff82169050919050565b60006133748261335c565b9050919050565b82818337600083830152505050565b60005b838110156133a857808201518184015260208101905061338d565b838111156133b7576000848401525b50505050565b6133c6826134c4565b810181811067ffffffffffffffff821117156133e5576133e4613495565b5b80604052505050565b60006133f982613352565b91507fffffffffffffffffffffffffffffffffffffffffffffffffffffffffffffffff82141561342c5761342b613437565b5b600182019050919050565b7f4e487b7100000000000000000000000000000000000000000000000000000000600052601160045260246000fd5b7f4e487b7100000000000000000000000000000000000000000000000000000000600052601260045260246000fd5b7f4e487b7100000000000000000000000000000000000000000000000000000000600052604160045260246000fd5b6000601f19601f8301169050919050565b7f4f776e61626c653a206e6577206f776e657220697320746865207a65726f206160008201527f6464726573730000000000000000000000000000000000000000000000000000602082015250565b7f43616e6e6f74207769746864726177206e6f7721000000000000000000000000600082015250565b7f46756e6374696f6e206d7573742062652063616c6c6564207468726f7567682060008201527f64656c656761746563616c6c0000000000000000000000000000000000000000602082015250565b7f54656d706f7261727920636c6f73696e67000000000000000000000000000000600082015250565b7f46756e6374696f6e206d7573742062652063616c6c6564207468726f7567682060008201527f6163746976652070726f78790000000000000000000000000000000000000000602082015250565b7f4c6f636b2d75702074696d65206f7574206f662072616e676500000000000000600082015250565b7f555550535570677261646561626c653a206d757374206e6f742062652063616c60008201527f6c6564207468726f7567682064656c656761746563616c6c0000000000000000602082015250565b7f416c72656164792077697468647261776e000000000000000000000000000000600082015250565b7f45524331393637557067726164653a20756e737570706f727465642070726f7860008201527f6961626c65555549440000000000000000000000000000000000000000000000602082015250565b7f496e697469616c697a61626c653a20636f6e747261637420697320616c72656160008201527f647920696e697469616c697a6564000000000000000000000000000000000000602082015250565b7f45524331393637557067726164653a206e657720696d706c656d656e7461746960008201527f6f6e206973206e6f742055555053000000000000000000000000000000000000602082015250565b7f496e76616c6964207374616b6549640000000000000000000000000000000000600082015250565b7f455243313936373a206e657720696d706c656d656e746174696f6e206973206e60008201527f6f74206120636f6e747261637400000000000000000000000000000000000000602082015250565b7f4f776e61626c653a2063616c6c6572206973206e6f7420746865206f776e6572600082015250565b7f416464726573733a2064656c65676174652063616c6c20746f206e6f6e2d636f60008201527f6e74726163740000000000000000000000000000000000000000000000000000602082015250565b7f496e697469616c697a61626c653a20636f6e7472616374206973206e6f74206960008201527f6e697469616c697a696e67000000000000000000000000000000000000000000602082015250565b7f6e756d626572206f6620626c6f636b73206f7574206f662072616e6765000000600082015250565b7f4e6f7420696e206f70656e696e672074696d6500000000000000000000000000600082015250565b61393c8161330a565b811461394757600080fd5b50565b6139538161331c565b811461395e57600080fd5b50565b61396a81613328565b811461397557600080fd5b50565b61398181613352565b811461398c57600080fd5b5056fe416464726573733a206c6f772d6c6576656c2064656c65676174652063616c6c206661696c6564a2646970667358221220ec21636f3beddfc8fbe1c800dd75f5da3f11079967f9d069a334f0b75295b2f464736f6c63430008040033",
  "linkReferences": {},
  "deployedLinkReferences": {}
}