{
  "_format": "hh-sol-artifact-1",
  "contractName": "FitterPassLockedPool",
  "sourceName": "contracts/FitterPassLockedPool.sol",
  "abi": [
    {
      "anonymous": false,
      "inputs": [
        {
          "indexed": false,
          "internalType": "address",
          "name": "previousAdmin",
          "type": "address"
        },
        {
          "indexed": false,
          "internalType": "address",
          "name": "newAdmin",
          "type": "address"
        }
      ],
      "name": "AdminChanged",
      "type": "event"
    },
    {
      "anonymous": false,
      "inputs": [
        {
          "indexed": true,
          "internalType": "address",
          "name": "beacon",
          "type": "address"
        }
      ],
      "name": "BeaconUpgraded",
      "type": "event"
    },
    {
      "anonymous": false,
      "inputs": [
        {
          "indexed": false,
          "internalType": "uint8",
          "name": "version",
          "type": "uint8"
        }
      ],
      "name": "Initialized",
      "type": "event"
    },
    {
      "anonymous": false,
      "inputs": [
        {
          "indexed": true,
          "internalType": "address",
          "name": "previousOwner",
          "type": "address"
        },
        {
          "indexed": true,
          "internalType": "address",
          "name": "newOwner",
          "type": "address"
        }
      ],
      "name": "OwnershipTransferred",
      "type": "event"
    },
    {
      "anonymous": false,
      "inputs": [
        {
          "indexed": true,
          "internalType": "address",
          "name": "wallet",
          "type": "address"
        },
        {
          "indexed": false,
          "internalType": "uint256",
          "name": "stakeId",
          "type": "uint256"
        },
        {
          "indexed": false,
          "internalType": "uint256",
          "name": "numberOfBlocks",
          "type": "uint256"
        },
        {
          "indexed": false,
          "internalType": "uint256",
          "name": "amount",
          "type": "uint256"
        },
        {
          "indexed": false,
          "internalType": "uint256",
          "name": "lockedTime",
          "type": "uint256"
        }
      ],
      "name": "Stake",
      "type": "event"
    },
    {
      "anonymous": false,
      "inputs": [
        {
          "indexed": true,
          "internalType": "address",
          "name": "implementation",
          "type": "address"
        }
      ],
      "name": "Upgraded",
      "type": "event"
    },
    {
      "anonymous": false,
      "inputs": [
        {
          "indexed": true,
          "internalType": "address",
          "name": "wallet",
          "type": "address"
        },
        {
          "indexed": false,
          "internalType": "uint256",
          "name": "stakeId",
          "type": "uint256"
        },
        {
          "indexed": false,
          "internalType": "uint256",
          "name": "amount",
          "type": "uint256"
        }
      ],
      "name": "Withdraw",
      "type": "event"
    },
    {
      "inputs": [],
      "name": "closePool",
      "outputs": [],
      "stateMutability": "nonpayable",
      "type": "function"
    },
    {
      "inputs": [
        {
          "internalType": "uint256",
          "name": "aot",
          "type": "uint256"
        }
      ],
      "name": "extendEndTimeFromNow",
      "outputs": [],
      "stateMutability": "nonpayable",
      "type": "function"
    },
    {
      "inputs": [
        {
          "internalType": "address",
          "name": "wallet",
          "type": "address"
        }
      ],
      "name": "getAllUserStaking",
      "outputs": [
        {
          "components": [
            {
              "internalType": "uint256",
              "name": "sId",
              "type": "uint256"
            },
            {
              "internalType": "uint256",
              "name": "numberOfBlocks",
              "type": "uint256"
            },
            {
              "internalType": "uint256",
              "name": "tokenAmount",
              "type": "uint256"
            },
            {
              "internalType": "uint256",
              "name": "fpNum",
              "type": "uint256"
            },
            {
              "internalType": "uint256",
              "name": "stakingTime",
              "type": "uint256"
            },
            {
              "internalType": "uint256",
              "name": "lockedTime",
              "type": "uint256"
            }
          ],
          "internalType": "struct FitterPassLockedPool.StakeInfo[]",
          "name": "",
          "type": "tuple[]"
        }
      ],
      "stateMutability": "view",
      "type": "function"
    },
    {
      "inputs": [],
      "name": "getImplementation",
      "outputs": [
        {
          "internalType": "address",
          "name": "",
          "type": "address"
        }
      ],
      "stateMutability": "view",
      "type": "function"
    },
    {
      "inputs": [
        {
          "internalType": "uint256",
          "name": "_blockNum",
          "type": "uint256"
        },
        {
          "internalType": "uint256",
          "name": "_lockedTime",
          "type": "uint256"
        }
      ],
      "name": "getMinimalStakingTime",
      "outputs": [
        {
          "internalType": "uint256",
          "name": "",
          "type": "uint256"
        }
      ],
      "stateMutability": "view",
      "type": "function"
    },
    {
      "inputs": [
        {
          "internalType": "uint256",
          "name": "stakeId",
          "type": "uint256"
        }
      ],
      "name": "getStakeById",
      "outputs": [
        {
          "components": [
            {
              "internalType": "uint256",
              "name": "sId",
              "type": "uint256"
            },
            {
              "internalType": "uint256",
              "name": "numberOfBlocks",
              "type": "uint256"
            },
            {
              "internalType": "uint256",
              "name": "tokenAmount",
              "type": "uint256"
            },
            {
              "internalType": "uint256",
              "name": "fpNum",
              "type": "uint256"
            },
            {
              "internalType": "uint256",
              "name": "stakingTime",
              "type": "uint256"
            },
            {
              "internalType": "uint256",
              "name": "lockedTime",
              "type": "uint256"
            }
          ],
          "internalType": "struct FitterPassLockedPool.StakeInfo",
          "name": "",
          "type": "tuple"
        }
      ],
      "stateMutability": "view",
      "type": "function"
    },
    {
      "inputs": [
        {
          "internalType": "uint256",
          "name": "stakeId",
          "type": "uint256"
        }
      ],
      "name": "getStakingOwner",
      "outputs": [
        {
          "internalType": "address",
          "name": "",
          "type": "address"
        }
      ],
      "stateMutability": "view",
      "type": "function"
    },
    {
      "inputs": [
        {
          "internalType": "uint256",
          "name": "stakeId",
          "type": "uint256"
        }
      ],
      "name": "getWithdrawableTime",
      "outputs": [
        {
          "internalType": "uint256",
          "name": "",
          "type": "uint256"
        }
      ],
      "stateMutability": "view",
      "type": "function"
    },
    {
      "inputs": [
        {
          "internalType": "address",
          "name": "tokenAddress",
          "type": "address"
        },
        {
          "internalType": "address",
          "name": "rewardItemContract",
          "type": "address"
        }
      ],
      "name": "initialize",
      "outputs": [],
      "stateMutability": "nonpayable",
      "type": "function"
    },
    {
      "inputs": [],
      "name": "openPool",
      "outputs": [],
      "stateMutability": "nonpayable",
      "type": "function"
    },
    {
      "inputs": [],
      "name": "owner",
      "outputs": [
        {
          "internalType": "address",
          "name": "",
          "type": "address"
        }
      ],
      "stateMutability": "view",
      "type": "function"
    },
    {
      "inputs": [],
      "name": "proxiableUUID",
      "outputs": [
        {
          "internalType": "bytes32",
          "name": "",
          "type": "bytes32"
        }
      ],
      "stateMutability": "view",
      "type": "function"
    },
    {
      "inputs": [],
      "name": "renounceOwnership",
      "outputs": [],
      "stateMutability": "nonpayable",
      "type": "function"
    },
    {
      "inputs": [
        {
          "internalType": "uint256",
          "name": "x",
          "type": "uint256"
        }
      ],
      "name": "roundUp",
      "outputs": [
        {
          "internalType": "uint256",
          "name": "",
          "type": "uint256"
        }
      ],
      "stateMutability": "pure",
      "type": "function"
    },
    {
      "inputs": [
        {
          "internalType": "uint256",
          "name": "amount",
          "type": "uint256"
        }
      ],
      "name": "setBlockAmount",
      "outputs": [],
      "stateMutability": "nonpayable",
      "type": "function"
    },
    {
      "inputs": [
        {
          "internalType": "uint256",
          "name": "rate",
          "type": "uint256"
        }
      ],
      "name": "setEarningRate",
      "outputs": [],
      "stateMutability": "nonpayable",
      "type": "function"
    },
    {
      "inputs": [
        {
          "internalType": "uint256",
          "name": "maxPass",
          "type": "uint256"
        }
      ],
      "name": "setMaxEarningPass",
      "outputs": [],
      "stateMutability": "nonpayable",
      "type": "function"
    },
    {
      "inputs": [
        {
          "internalType": "uint256",
          "name": "minBlock",
          "type": "uint256"
        },
        {
          "internalType": "uint256",
          "name": "maxBlock",
          "type": "uint256"
        }
      ],
      "name": "setMinMaxBlockNum",
      "outputs": [],
      "stateMutability": "nonpayable",
      "type": "function"
    },
    {
      "inputs": [
        {
          "internalType": "uint256",
          "name": "minTime",
          "type": "uint256"
        },
        {
          "internalType": "uint256",
          "name": "maxTime",
          "type": "uint256"
        }
      ],
      "name": "setMinMaxLockedTime",
      "outputs": [],
      "stateMutability": "nonpayable",
      "type": "function"
    },
    {
      "inputs": [
        {
          "internalType": "uint256",
          "name": "tokenId",
          "type": "uint256"
        }
      ],
      "name": "setRewardTokenId",
      "outputs": [],
      "stateMutability": "nonpayable",
      "type": "function"
    },
    {
      "inputs": [
        {
          "internalType": "uint256",
          "name": "delayTime",
          "type": "uint256"
        }
      ],
      "name": "setWithdrawalDelayTime",
      "outputs": [],
      "stateMutability": "nonpayable",
      "type": "function"
    },
    {
      "inputs": [
        {
          "internalType": "uint256",
          "name": "_blockNum",
          "type": "uint256"
        },
        {
          "internalType": "uint256",
          "name": "_lockedTime",
          "type": "uint256"
        }
      ],
      "name": "stake",
      "outputs": [],
      "stateMutability": "nonpayable",
      "type": "function"
    },
    {
      "inputs": [
        {
          "internalType": "address",
          "name": "newOwner",
          "type": "address"
        }
      ],
      "name": "transferOwnership",
      "outputs": [],
      "stateMutability": "nonpayable",
      "type": "function"
    },
    {
      "inputs": [
        {
          "internalType": "address",
          "name": "newImplementation",
          "type": "address"
        }
      ],
      "name": "upgradeTo",
      "outputs": [],
      "stateMutability": "nonpayable",
      "type": "function"
    },
    {
      "inputs": [
        {
          "internalType": "address",
          "name": "newImplementation",
          "type": "address"
        },
        {
          "internalType": "bytes",
          "name": "data",
          "type": "bytes"
        }
      ],
      "name": "upgradeToAndCall",
      "outputs": [],
      "stateMutability": "payable",
      "type": "function"
    },
    {
      "inputs": [
        {
          "internalType": "uint256",
          "name": "stakeId",
          "type": "uint256"
        }
      ],
      "name": "withdraw",
      "outputs": [],
      "stateMutability": "nonpayable",
      "type": "function"
    }
  ],
  "bytecode": "0x60a06040523073ffffffffffffffffffffffffffffffffffffffff1660809073ffffffffffffffffffffffffffffffffffffffff1660601b81525034801561004657600080fd5b5060805160601c6137fd61008160003960008181610c4001528181610ccf01528181610fdb0152818161106a015261111a01526137fd6000f3fe6080604052600436106101815760003560e01c8063715018a6116100d1578063aaf10f421161008a578063c5f8d8bf11610064578063c5f8d8bf14610559578063cc61521814610582578063eb5797a4146105ab578063f2fde38b146105c257610181565b8063aaf10f42146104b4578063b62a6aae146104df578063bfc8b1f81461051c57610181565b8063715018a6146103a65780637a851645146103bd5780637b0472f0146103e65780637b6a6f4a1461040f5780638da5cb5b1461044c578063a5ed5cc51461047757610181565b8063434073ca1161013e57806352d1902d1161011857806352d1902d1461031257806366805de51461033d5780636aa9f686146103545780636efabb011461037d57610181565b8063434073ca146102a4578063485cc955146102cd5780634f1ef286146102f657610181565b806305e4a95a1461018657806306c85379146101af578063160244ed146101ec5780632e1a7d4d14610215578063318831451461023e5780633659cfe61461027b575b600080fd5b34801561019257600080fd5b506101ad60048036038101906101a89190612692565b6105eb565b005b3480156101bb57600080fd5b506101d660048036038101906101d19190612587565b6105fd565b6040516101e39190612c34565b60405180910390f35b3480156101f857600080fd5b50610213600480360381019061020e9190612692565b610812565b005b34801561022157600080fd5b5061023c60048036038101906102379190612692565b610824565b005b34801561024a57600080fd5b5061026560048036038101906102609190612692565b610b5a565b6040516102729190612efe565b60405180910390f35b34801561028757600080fd5b506102a2600480360381019061029d9190612587565b610c3e565b005b3480156102b057600080fd5b506102cb60048036038101906102c691906126bb565b610ded565b005b3480156102d957600080fd5b506102f460048036038101906102ef91906125b0565b610e07565b005b610310600480360381019061030b91906125ec565b610fd9565b005b34801561031e57600080fd5b50610327611116565b6040516103349190612c56565b60405180910390f35b34801561034957600080fd5b506103526111cf565b005b34801561036057600080fd5b5061037b60048036038101906103769190612692565b6111f4565b005b34801561038957600080fd5b506103a4600480360381019061039f9190612692565b611206565b005b3480156103b257600080fd5b506103bb611218565b005b3480156103c957600080fd5b506103e460048036038101906103df9190612692565b61122c565b005b3480156103f257600080fd5b5061040d600480360381019061040891906126bb565b61123e565b005b34801561041b57600080fd5b5061043660048036038101906104319190612692565b6116ca565b6040516104439190612f19565b60405180910390f35b34801561045857600080fd5b506104616116dc565b60405161046e9190612b82565b60405180910390f35b34801561048357600080fd5b5061049e60048036038101906104999190612692565b611706565b6040516104ab9190612f19565b60405180910390f35b3480156104c057600080fd5b506104c9611804565b6040516104d69190612b82565b60405180910390f35b3480156104eb57600080fd5b5061050660048036038101906105019190612692565b611813565b6040516105139190612b82565b60405180910390f35b34801561052857600080fd5b50610543600480360381019061053e91906126bb565b611896565b6040516105509190612f19565b60405180910390f35b34801561056557600080fd5b50610580600480360381019061057b91906126bb565b6118aa565b005b34801561058e57600080fd5b506105a960048036038101906105a49190612692565b6118c4565b005b3480156105b757600080fd5b506105c06118e1565b005b3480156105ce57600080fd5b506105e960048036038101906105e49190612587565b611906565b005b6105f361198a565b8060cb8190555050565b6060600060da60008473ffffffffffffffffffffffffffffffffffffffff1673ffffffffffffffffffffffffffffffffffffffff168152602001908152602001600020600001600001905060008180549050905060008167ffffffffffffffff811115610693577f4e487b7100000000000000000000000000000000000000000000000000000000600052604160045260246000fd5b6040519080825280602002602001820160405280156106cc57816020015b6106b9612495565b8152602001906001900390816106b15790505b50905060005b828110156108065760d7848281548110610715577f4e487b7100000000000000000000000000000000000000000000000000000000600052603260045260246000fd5b906000526020600020015460001c8154811061075a577f4e487b7100000000000000000000000000000000000000000000000000000000600052603260045260246000fd5b90600052602060002090600602016040518060c001604052908160008201548152602001600182015481526020016002820154815260200160038201548152602001600482015481526020016005820154815250508282815181106107e8577f4e487b7100000000000000000000000000000000000000000000000000000000600052603260045260246000fd5b602002602001018190525080806107fe90613228565b9150506106d2565b50809350505050919050565b61081a61198a565b8060d68190555050565b8060d8548110610869576040517f08c379a000000000000000000000000000000000000000000000000000000000815260040161086090612e1e565b60405180910390fd5b60d25460d783815481106108a6577f4e487b7100000000000000000000000000000000000000000000000000000000600052603260045260246000fd5b90600052602060002090600602016005015460d784815481106108f2577f4e487b7100000000000000000000000000000000000000000000000000000000600052603260045260246000fd5b90600052602060002090600602016004015461090e9190613063565b6109189190613063565b42101561095a576040517f08c379a000000000000000000000000000000000000000000000000000000000815260040161095190612cfe565b60405180910390fd5b60c960009054906101000a900473ffffffffffffffffffffffffffffffffffffffff1673ffffffffffffffffffffffffffffffffffffffff1663a9059cbb60d9600085815260200190815260200160002060009054906101000a900473ffffffffffffffffffffffffffffffffffffffff1660d78581548110610a06577f4e487b7100000000000000000000000000000000000000000000000000000000600052603260045260246000fd5b9060005260206000209060060201600201546040518363ffffffff1660e01b8152600401610a35929190612bd4565b602060405180830381600087803b158015610a4f57600080fd5b505af1158015610a63573d6000803e3d6000fd5b505050506040513d601f19601f82011682018060405250810190610a879190612640565b5060d9600083815260200190815260200160002060009054906101000a900473ffffffffffffffffffffffffffffffffffffffff1673ffffffffffffffffffffffffffffffffffffffff167ff279e6a1f5e320cca91135676d9cb6e44ca8a08c0b88342bcdb1144f6511b5688360d78581548110610b2e577f4e487b7100000000000000000000000000000000000000000000000000000000600052603260045260246000fd5b906000526020600020906006020160020154604051610b4e929190612f34565b60405180910390a25050565b610b62612495565b8160d8548110610ba7576040517f08c379a0000000000000000000000000000000000000000000000000000000008152600401610b9e90612e1e565b60405180910390fd5b60d78381548110610be1577f4e487b7100000000000000000000000000000000000000000000000000000000600052603260045260246000fd5b90600052602060002090600602016040518060c00160405290816000820154815260200160018201548152602001600282015481526020016003820154815260200160048201548152602001600582015481525050915050919050565b7f000000000000000000000000000000000000000000000000000000000000000073ffffffffffffffffffffffffffffffffffffffff163073ffffffffffffffffffffffffffffffffffffffff161415610ccd576040517f08c379a0000000000000000000000000000000000000000000000000000000008152600401610cc490612d1e565b60405180910390fd5b7f000000000000000000000000000000000000000000000000000000000000000073ffffffffffffffffffffffffffffffffffffffff16610d0c611a08565b73ffffffffffffffffffffffffffffffffffffffff1614610d62576040517f08c379a0000000000000000000000000000000000000000000000000000000008152600401610d5990612d5e565b60405180910390fd5b610d6b81611a5f565b610dea81600067ffffffffffffffff811115610db0577f4e487b7100000000000000000000000000000000000000000000000000000000600052604160045260246000fd5b6040519080825280601f01601f191660200182016040528015610de25781602001600182028036833780820191505090505b506000611a6a565b50565b610df561198a565b8160ce819055508060cf819055505050565b60008060019054906101000a900460ff16159050808015610e385750600160008054906101000a900460ff1660ff16105b80610e655750610e4730611be7565b158015610e645750600160008054906101000a900460ff1660ff16145b5b610ea4576040517f08c379a0000000000000000000000000000000000000000000000000000000008152600401610e9b90612dde565b60405180910390fd5b60016000806101000a81548160ff021916908360ff1602179055508015610ee1576001600060016101000a81548160ff0219169083151502179055505b610ee9611c0a565b610ef1611c5b565b8260c960006101000a81548173ffffffffffffffffffffffffffffffffffffffff021916908373ffffffffffffffffffffffffffffffffffffffff1602179055508160ca60006101000a81548173ffffffffffffffffffffffffffffffffffffffff021916908373ffffffffffffffffffffffffffffffffffffffff160217905550610f7b611cb4565b8015610fd45760008060016101000a81548160ff0219169083151502179055507f7f26b83ff96e1f2b6a682f133852f6798a09c465da95921460cefb38474024986001604051610fcb9190612c71565b60405180910390a15b505050565b7f000000000000000000000000000000000000000000000000000000000000000073ffffffffffffffffffffffffffffffffffffffff163073ffffffffffffffffffffffffffffffffffffffff161415611068576040517f08c379a000000000000000000000000000000000000000000000000000000000815260040161105f90612d1e565b60405180910390fd5b7f000000000000000000000000000000000000000000000000000000000000000073ffffffffffffffffffffffffffffffffffffffff166110a7611a08565b73ffffffffffffffffffffffffffffffffffffffff16146110fd576040517f08c379a00000000000000000000000000000000000000000000000000000000081526004016110f490612d5e565b60405180910390fd5b61110682611a5f565b61111282826001611a6a565b5050565b60007f000000000000000000000000000000000000000000000000000000000000000073ffffffffffffffffffffffffffffffffffffffff163073ffffffffffffffffffffffffffffffffffffffff16146111a6576040517f08c379a000000000000000000000000000000000000000000000000000000000815260040161119d90612d9e565b60405180910390fd5b7f360894a13ba1a3210667c828492db98dca3e2076cc3735a920a3ca505d382bbc60001b905090565b6111d761198a565b600060d360006101000a81548160ff021916908315150217905550565b6111fc61198a565b8060d28190555050565b61120e61198a565b8060cc8190555050565b61122061198a565b61122a6000611d48565b565b61123461198a565b8060cd8190555050565b4260d45411158015611251575060d55442105b611290576040517f08c379a000000000000000000000000000000000000000000000000000000000815260040161128790612ede565b60405180910390fd5b6001151560d360009054906101000a900460ff161515146112e6576040517f08c379a00000000000000000000000000000000000000000000000000000000081526004016112dd90612d3e565b60405180910390fd5b60ce5482101580156112fa575060cf548211155b611339576040517f08c379a000000000000000000000000000000000000000000000000000000000815260040161133090612ebe565b60405180910390fd5b60d154811015801561134d575060d0548111155b61138c576040517f08c379a000000000000000000000000000000000000000000000000000000000815260040161138390612d7e565b60405180910390fd5b60006113988383611e0e565b905060006113a68483611f79565b9050600060cb54856113b891906130ea565b905060c960009054906101000a900473ffffffffffffffffffffffffffffffffffffffff1673ffffffffffffffffffffffffffffffffffffffff166323b872dd3330846040518463ffffffff1660e01b815260040161141993929190612b9d565b602060405180830381600087803b15801561143357600080fd5b505af1158015611447573d6000803e3d6000fd5b505050506040513d601f19601f8201168201806040525081019061146b9190612640565b5060ca60009054906101000a900473ffffffffffffffffffffffffffffffffffffffff1673ffffffffffffffffffffffffffffffffffffffff1663156e29f63360d654856040518463ffffffff1660e01b81526004016114cd93929190612bfd565b600060405180830381600087803b1580156114e757600080fd5b505af11580156114fb573d6000803e3d6000fd5b50505050600060d854905060006040518060c00160405280838152602001888152602001848152602001858152602001428152602001620151808761154091906130ea565b815250905060d7819080600181540180825580915050600190039060005260206000209060060201600090919091909150600082015181600001556020820151816001015560408201518160020155606082015181600301556080820151816004015560a0820151816005015550506116008260da60003373ffffffffffffffffffffffffffffffffffffffff1673ffffffffffffffffffffffffffffffffffffffff168152602001908152602001600020611fb390919063ffffffff16565b503360d9600084815260200190815260200160002060006101000a81548173ffffffffffffffffffffffffffffffffffffffff021916908373ffffffffffffffffffffffffffffffffffffffff160217905550600160d860008282546116669190613063565b925050819055503373ffffffffffffffffffffffffffffffffffffffff167f2720efa4b2dd4f3f8a347da3cbd290a522e9432da9072c5b8e6300496fdde282838986896040516116b99493929190612f5d565b60405180910390a250505050505050565b60006116d582611fcd565b9050919050565b6000609760009054906101000a900473ffffffffffffffffffffffffffffffffffffffff16905090565b60008160d854811061174d576040517f08c379a000000000000000000000000000000000000000000000000000000000815260040161174490612e1e565b60405180910390fd5b60d25460d7848154811061178a577f4e487b7100000000000000000000000000000000000000000000000000000000600052603260045260246000fd5b90600052602060002090600602016005015460d785815481106117d6577f4e487b7100000000000000000000000000000000000000000000000000000000600052603260045260246000fd5b9060005260206000209060060201600401546117f29190613063565b6117fc9190613063565b915050919050565b600061180e611a08565b905090565b60008160d854811061185a576040517f08c379a000000000000000000000000000000000000000000000000000000000815260040161185190612e1e565b60405180910390fd5b60d9600084815260200190815260200160002060009054906101000a900473ffffffffffffffffffffffffffffffffffffffff16915050919050565b60006118a28383611e0e565b905092915050565b6118b261198a565b8160d1819055508060d0819055505050565b6118cc61198a565b80426118d89190613063565b60d58190555050565b6118e961198a565b600160d360006101000a81548160ff021916908315150217905550565b61190e61198a565b600073ffffffffffffffffffffffffffffffffffffffff168173ffffffffffffffffffffffffffffffffffffffff16141561197e576040517f08c379a000000000000000000000000000000000000000000000000000000000815260040161197590612cde565b60405180910390fd5b61198781611d48565b50565b61199261200e565b73ffffffffffffffffffffffffffffffffffffffff166119b06116dc565b73ffffffffffffffffffffffffffffffffffffffff1614611a06576040517f08c379a00000000000000000000000000000000000000000000000000000000081526004016119fd90612e5e565b60405180910390fd5b565b6000611a367f360894a13ba1a3210667c828492db98dca3e2076cc3735a920a3ca505d382bbc60001b612016565b60000160009054906101000a900473ffffffffffffffffffffffffffffffffffffffff16905090565b611a6761198a565b50565b611a967f4910fdfa16fed3260ed0e7147f7cc6da11a60208b5b9406d12a635614ffd914360001b612020565b60000160009054906101000a900460ff1615611aba57611ab58361202a565b611be2565b8273ffffffffffffffffffffffffffffffffffffffff166352d1902d6040518163ffffffff1660e01b815260040160206040518083038186803b158015611b0057600080fd5b505afa925050508015611b3157506040513d601f19601f82011682018060405250810190611b2e9190612669565b60015b611b70576040517f08c379a0000000000000000000000000000000000000000000000000000000008152600401611b6790612dfe565b60405180910390fd5b7f360894a13ba1a3210667c828492db98dca3e2076cc3735a920a3ca505d382bbc60001b8114611bd5576040517f08c379a0000000000000000000000000000000000000000000000000000000008152600401611bcc90612dbe565b60405180910390fd5b50611be18383836120e3565b5b505050565b6000808273ffffffffffffffffffffffffffffffffffffffff163b119050919050565b600060019054906101000a900460ff16611c59576040517f08c379a0000000000000000000000000000000000000000000000000000000008152600401611c5090612e9e565b60405180910390fd5b565b600060019054906101000a900460ff16611caa576040517f08c379a0000000000000000000000000000000000000000000000000000000008152600401611ca190612e9e565b60405180910390fd5b611cb261210f565b565b690878678326eac900000060cb81905550605060cc81905550601f60cd81905550600160ce81905550600c60cf81905550600360d181905550601e60d08190555062093a8060d281905550600060d360006101000a81548160ff021916908315150217905550600060d681905550600060d8819055504260d48190555062093a8042611d409190613063565b60d581905550565b6000609760009054906101000a900473ffffffffffffffffffffffffffffffffffffffff16905081609760006101000a81548173ffffffffffffffffffffffffffffffffffffffff021916908373ffffffffffffffffffffffffffffffffffffffff1602179055508173ffffffffffffffffffffffffffffffffffffffff168173ffffffffffffffffffffffffffffffffffffffff167f8be0079c531659141344cd1fd0a4f28419497f9722a3daafe3b4186f6b6457e060405160405180910390a35050565b600080606460cc548486611e2291906130ea565b611e2c91906130ea565b611e3691906130b9565b905060cd548111611e4a5782915050611f73565b6000611e7c60cc54606460cd546064611e6391906130ea565b611e6d91906130ea565b611e7791906130b9565b611fcd565b9050611ebd6040518060400160405280600581526020017f6d6178503a00000000000000000000000000000000000000000000000000000081525082612170565b6000611edf86836064611ed091906130ea565b611eda91906130b9565b611fcd565b9050611f206040518060400160405280600481526020017f7265743a0000000000000000000000000000000000000000000000000000000081525082612170565b611f616040518060400160405280600e81526020017f6d696e4c6f636b656454696d653a00000000000000000000000000000000000081525060d154612170565b611f6d8160d15461220c565b93505050505b92915050565b6000611fab60cd54606460cc548587611f9291906130ea565b611f9c91906130ea565b611fa691906130b9565b612226565b905092915050565b6000611fc5836000018360001b61223f565b905092915050565b600080606483611fdd91906130b9565b905082606482611fed91906130ea565b1461200457600181611fff9190613063565b612006565b805b915050919050565b600033905090565b6000819050919050565b6000819050919050565b61203381611be7565b612072576040517f08c379a000000000000000000000000000000000000000000000000000000000815260040161206990612e3e565b60405180910390fd5b8061209f7f360894a13ba1a3210667c828492db98dca3e2076cc3735a920a3ca505d382bbc60001b612016565b60000160006101000a81548173ffffffffffffffffffffffffffffffffffffffff021916908373ffffffffffffffffffffffffffffffffffffffff16021790555050565b6120ec836122af565b6000825111806120f95750805b1561210a5761210883836122fe565b505b505050565b600060019054906101000a900460ff1661215e576040517f08c379a000000000000000000000000000000000000000000000000000000000815260040161215590612e9e565b60405180910390fd5b61216e61216961200e565b611d48565b565b6122088282604051602401612186929190612cae565b6040516020818303038152906040527f9710a9d0000000000000000000000000000000000000000000000000000000007bffffffffffffffffffffffffffffffffffffffffffffffffffffffff19166020820180517bffffffffffffffffffffffffffffffffffffffffffffffffffffffff83818316178352505050506123e2565b5050565b60008183101561221c578161221e565b825b905092915050565b60008183106122355781612237565b825b905092915050565b600061224b838361240b565b6122a45782600001829080600181540180825580915050600190039060005260206000200160009091909190915055826000018054905083600101600084815260200190815260200160002081905550600190506122a9565b600090505b92915050565b6122b88161202a565b8073ffffffffffffffffffffffffffffffffffffffff167fbc7cd75a20ee27fd9adebab32041f755214dbc6bffa90cc0225b39da2e5c2d3b60405160405180910390a250565b606061230983611be7565b612348576040517f08c379a000000000000000000000000000000000000000000000000000000000815260040161233f90612e7e565b60405180910390fd5b6000808473ffffffffffffffffffffffffffffffffffffffff16846040516123709190612b6b565b600060405180830381855af49150503d80600081146123ab576040519150601f19603f3d011682016040523d82523d6000602084013e6123b0565b606091505b50915091506123d882826040518060600160405280602781526020016137a16027913961242e565b9250505092915050565b60008151905060006a636f6e736f6c652e6c6f679050602083016000808483855afa5050505050565b600080836001016000848152602001908152602001600020541415905092915050565b6060831561243e5782905061248e565b6000835111156124515782518084602001fd5b816040517f08c379a00000000000000000000000000000000000000000000000000000000081526004016124859190612c8c565b60405180910390fd5b9392505050565b6040518060c001604052806000815260200160008152602001600081526020016000815260200160008152602001600081525090565b60006124de6124d984612fc7565b612fa2565b9050828152602081018484840111156124f657600080fd5b6125018482856131b5565b509392505050565b60008135905061251881613744565b92915050565b60008151905061252d8161375b565b92915050565b60008151905061254281613772565b92915050565b600082601f83011261255957600080fd5b81356125698482602086016124cb565b91505092915050565b60008135905061258181613789565b92915050565b60006020828403121561259957600080fd5b60006125a784828501612509565b91505092915050565b600080604083850312156125c357600080fd5b60006125d185828601612509565b92505060206125e285828601612509565b9150509250929050565b600080604083850312156125ff57600080fd5b600061260d85828601612509565b925050602083013567ffffffffffffffff81111561262a57600080fd5b61263685828601612548565b9150509250929050565b60006020828403121561265257600080fd5b60006126608482850161251e565b91505092915050565b60006020828403121561267b57600080fd5b600061268984828501612533565b91505092915050565b6000602082840312156126a457600080fd5b60006126b284828501612572565b91505092915050565b600080604083850312156126ce57600080fd5b60006126dc85828601612572565b92505060206126ed85828601612572565b9150509250929050565b60006127038383612a57565b60c08301905092915050565b61271881613144565b82525050565b600061272982613008565b6127338185613036565b935061273e83612ff8565b8060005b8381101561276f57815161275688826126f7565b975061276183613029565b925050600181019050612742565b5085935050505092915050565b61278581613162565b82525050565b600061279682613013565b6127a08185613047565b93506127b08185602086016131c4565b80840191505092915050565b6127c5816131a3565b82525050565b60006127d68261301e565b6127e08185613052565b93506127f08185602086016131c4565b6127f9816132fe565b840191505092915050565b6000612811602683613052565b915061281c8261330f565b604082019050919050565b6000612834601483613052565b915061283f8261335e565b602082019050919050565b6000612857602c83613052565b915061286282613387565b604082019050919050565b600061287a601183613052565b9150612885826133d6565b602082019050919050565b600061289d602c83613052565b91506128a8826133ff565b604082019050919050565b60006128c0601983613052565b91506128cb8261344e565b602082019050919050565b60006128e3603883613052565b91506128ee82613477565b604082019050919050565b6000612906602983613052565b9150612911826134c6565b604082019050919050565b6000612929602e83613052565b915061293482613515565b604082019050919050565b600061294c602e83613052565b915061295782613564565b604082019050919050565b600061296f600f83613052565b915061297a826135b3565b602082019050919050565b6000612992602d83613052565b915061299d826135dc565b604082019050919050565b60006129b5602083613052565b91506129c08261362b565b602082019050919050565b60006129d8602683613052565b91506129e382613654565b604082019050919050565b60006129fb602b83613052565b9150612a06826136a3565b604082019050919050565b6000612a1e601d83613052565b9150612a29826136f2565b602082019050919050565b6000612a41601383613052565b9150612a4c8261371b565b602082019050919050565b60c082016000820151612a6d6000850182612b4d565b506020820151612a806020850182612b4d565b506040820151612a936040850182612b4d565b506060820151612aa66060850182612b4d565b506080820151612ab96080850182612b4d565b5060a0820151612acc60a0850182612b4d565b50505050565b60c082016000820151612ae86000850182612b4d565b506020820151612afb6020850182612b4d565b506040820151612b0e6040850182612b4d565b506060820151612b216060850182612b4d565b506080820151612b346080850182612b4d565b5060a0820151612b4760a0850182612b4d565b50505050565b612b568161318c565b82525050565b612b658161318c565b82525050565b6000612b77828461278b565b915081905092915050565b6000602082019050612b97600083018461270f565b92915050565b6000606082019050612bb2600083018661270f565b612bbf602083018561270f565b612bcc6040830184612b5c565b949350505050565b6000604082019050612be9600083018561270f565b612bf66020830184612b5c565b9392505050565b6000606082019050612c12600083018661270f565b612c1f6020830185612b5c565b612c2c6040830184612b5c565b949350505050565b60006020820190508181036000830152612c4e818461271e565b905092915050565b6000602082019050612c6b600083018461277c565b92915050565b6000602082019050612c8660008301846127bc565b92915050565b60006020820190508181036000830152612ca681846127cb565b905092915050565b60006040820190508181036000830152612cc881856127cb565b9050612cd76020830184612b5c565b9392505050565b60006020820190508181036000830152612cf781612804565b9050919050565b60006020820190508181036000830152612d1781612827565b9050919050565b60006020820190508181036000830152612d378161284a565b9050919050565b60006020820190508181036000830152612d578161286d565b9050919050565b60006020820190508181036000830152612d7781612890565b9050919050565b60006020820190508181036000830152612d97816128b3565b9050919050565b60006020820190508181036000830152612db7816128d6565b9050919050565b60006020820190508181036000830152612dd7816128f9565b9050919050565b60006020820190508181036000830152612df78161291c565b9050919050565b60006020820190508181036000830152612e178161293f565b9050919050565b60006020820190508181036000830152612e3781612962565b9050919050565b60006020820190508181036000830152612e5781612985565b9050919050565b60006020820190508181036000830152612e77816129a8565b9050919050565b60006020820190508181036000830152612e97816129cb565b9050919050565b60006020820190508181036000830152612eb7816129ee565b9050919050565b60006020820190508181036000830152612ed781612a11565b9050919050565b60006020820190508181036000830152612ef781612a34565b9050919050565b600060c082019050612f136000830184612ad2565b92915050565b6000602082019050612f2e6000830184612b5c565b92915050565b6000604082019050612f496000830185612b5c565b612f566020830184612b5c565b9392505050565b6000608082019050612f726000830187612b5c565b612f7f6020830186612b5c565b612f8c6040830185612b5c565b612f996060830184612b5c565b95945050505050565b6000612fac612fbd565b9050612fb882826131f7565b919050565b6000604051905090565b600067ffffffffffffffff821115612fe257612fe16132cf565b5b612feb826132fe565b9050602081019050919050565b6000819050602082019050919050565b600081519050919050565b600081519050919050565b600081519050919050565b6000602082019050919050565b600082825260208201905092915050565b600081905092915050565b600082825260208201905092915050565b600061306e8261318c565b91506130798361318c565b9250827fffffffffffffffffffffffffffffffffffffffffffffffffffffffffffffffff038211156130ae576130ad613271565b5b828201905092915050565b60006130c48261318c565b91506130cf8361318c565b9250826130df576130de6132a0565b5b828204905092915050565b60006130f58261318c565b91506131008361318c565b9250817fffffffffffffffffffffffffffffffffffffffffffffffffffffffffffffffff048311821515161561313957613138613271565b5b828202905092915050565b600061314f8261316c565b9050919050565b60008115159050919050565b6000819050919050565b600073ffffffffffffffffffffffffffffffffffffffff82169050919050565b6000819050919050565b600060ff82169050919050565b60006131ae82613196565b9050919050565b82818337600083830152505050565b60005b838110156131e25780820151818401526020810190506131c7565b838111156131f1576000848401525b50505050565b613200826132fe565b810181811067ffffffffffffffff8211171561321f5761321e6132cf565b5b80604052505050565b60006132338261318c565b91507fffffffffffffffffffffffffffffffffffffffffffffffffffffffffffffffff82141561326657613265613271565b5b600182019050919050565b7f4e487b7100000000000000000000000000000000000000000000000000000000600052601160045260246000fd5b7f4e487b7100000000000000000000000000000000000000000000000000000000600052601260045260246000fd5b7f4e487b7100000000000000000000000000000000000000000000000000000000600052604160045260246000fd5b6000601f19601f8301169050919050565b7f4f776e61626c653a206e6577206f776e657220697320746865207a65726f206160008201527f6464726573730000000000000000000000000000000000000000000000000000602082015250565b7f43616e6e6f74207769746864726177206e6f7721000000000000000000000000600082015250565b7f46756e6374696f6e206d7573742062652063616c6c6564207468726f7567682060008201527f64656c656761746563616c6c0000000000000000000000000000000000000000602082015250565b7f54656d706f7261727920636c6f73696e67000000000000000000000000000000600082015250565b7f46756e6374696f6e206d7573742062652063616c6c6564207468726f7567682060008201527f6163746976652070726f78790000000000000000000000000000000000000000602082015250565b7f4c6f636b2d75702074696d65206f7574206f662072616e676500000000000000600082015250565b7f555550535570677261646561626c653a206d757374206e6f742062652063616c60008201527f6c6564207468726f7567682064656c656761746563616c6c0000000000000000602082015250565b7f45524331393637557067726164653a20756e737570706f727465642070726f7860008201527f6961626c65555549440000000000000000000000000000000000000000000000602082015250565b7f496e697469616c697a61626c653a20636f6e747261637420697320616c72656160008201527f647920696e697469616c697a6564000000000000000000000000000000000000602082015250565b7f45524331393637557067726164653a206e657720696d706c656d656e7461746960008201527f6f6e206973206e6f742055555053000000000000000000000000000000000000602082015250565b7f496e76616c6964207374616b6549640000000000000000000000000000000000600082015250565b7f455243313936373a206e657720696d706c656d656e746174696f6e206973206e60008201527f6f74206120636f6e747261637400000000000000000000000000000000000000602082015250565b7f4f776e61626c653a2063616c6c6572206973206e6f7420746865206f776e6572600082015250565b7f416464726573733a2064656c65676174652063616c6c20746f206e6f6e2d636f60008201527f6e74726163740000000000000000000000000000000000000000000000000000602082015250565b7f496e697469616c697a61626c653a20636f6e7472616374206973206e6f74206960008201527f6e697469616c697a696e67000000000000000000000000000000000000000000602082015250565b7f6e756d626572206f6620626c6f636b73206f7574206f662072616e6765000000600082015250565b7f4e6f7420696e206f70656e696e672074696d6500000000000000000000000000600082015250565b61374d81613144565b811461375857600080fd5b50565b61376481613156565b811461376f57600080fd5b50565b61377b81613162565b811461378657600080fd5b50565b6137928161318c565b811461379d57600080fd5b5056fe416464726573733a206c6f772d6c6576656c2064656c65676174652063616c6c206661696c6564a2646970667358221220b4c31ec64b8aeef2b549f0221413841de1b9e3b7fd07d648e8e71f0fb41379d264736f6c63430008040033",
  "linkReferences": {},
  "deployedLinkReferences": {}
}