{
  "_format": "hh-sol-artifact-1",
  "contractName": "FitterPassBurningEvent",
  "sourceName": "contracts/FitterPassBurningEvent.sol",
  "abi": [
    {
      "anonymous": false,
      "inputs": [
        {
          "indexed": true,
          "internalType": "address",
          "name": "wallet",
          "type": "address"
        },
        {
          "indexed": false,
          "internalType": "uint256",
          "name": "amount",
          "type": "uint256"
        }
      ],
      "name": "AddFitterPass",
      "type": "event"
    },
    {
      "anonymous": false,
      "inputs": [
        {
          "indexed": false,
          "internalType": "address",
          "name": "previousAdmin",
          "type": "address"
        },
        {
          "indexed": false,
          "internalType": "address",
          "name": "newAdmin",
          "type": "address"
        }
      ],
      "name": "AdminChanged",
      "type": "event"
    },
    {
      "anonymous": false,
      "inputs": [
        {
          "indexed": true,
          "internalType": "address",
          "name": "beacon",
          "type": "address"
        }
      ],
      "name": "BeaconUpgraded",
      "type": "event"
    },
    {
      "anonymous": false,
      "inputs": [
        {
          "indexed": false,
          "internalType": "uint8",
          "name": "version",
          "type": "uint8"
        }
      ],
      "name": "Initialized",
      "type": "event"
    },
    {
      "anonymous": false,
      "inputs": [
        {
          "indexed": true,
          "internalType": "address",
          "name": "previousOwner",
          "type": "address"
        },
        {
          "indexed": true,
          "internalType": "address",
          "name": "newOwner",
          "type": "address"
        }
      ],
      "name": "OwnershipTransferred",
      "type": "event"
    },
    {
      "anonymous": false,
      "inputs": [
        {
          "indexed": true,
          "internalType": "address",
          "name": "wallet",
          "type": "address"
        }
      ],
      "name": "Register",
      "type": "event"
    },
    {
      "anonymous": false,
      "inputs": [
        {
          "indexed": true,
          "internalType": "address",
          "name": "implementation",
          "type": "address"
        }
      ],
      "name": "Upgraded",
      "type": "event"
    },
    {
      "inputs": [
        {
          "internalType": "uint256",
          "name": "amount",
          "type": "uint256"
        }
      ],
      "name": "addFitterPass",
      "outputs": [],
      "stateMutability": "nonpayable",
      "type": "function"
    },
    {
      "inputs": [],
      "name": "getImplementation",
      "outputs": [
        {
          "internalType": "address",
          "name": "",
          "type": "address"
        }
      ],
      "stateMutability": "view",
      "type": "function"
    },
    {
      "inputs": [
        {
          "internalType": "address",
          "name": "wallet",
          "type": "address"
        }
      ],
      "name": "getNumberOfFitterPass",
      "outputs": [
        {
          "internalType": "uint256",
          "name": "",
          "type": "uint256"
        }
      ],
      "stateMutability": "view",
      "type": "function"
    },
    {
      "inputs": [
        {
          "internalType": "address",
          "name": "rewardItemContract",
          "type": "address"
        }
      ],
      "name": "initialize",
      "outputs": [],
      "stateMutability": "nonpayable",
      "type": "function"
    },
    {
      "inputs": [
        {
          "internalType": "address",
          "name": "wallet",
          "type": "address"
        }
      ],
      "name": "isRegistered",
      "outputs": [
        {
          "internalType": "bool",
          "name": "",
          "type": "bool"
        }
      ],
      "stateMutability": "view",
      "type": "function"
    },
    {
      "inputs": [
        {
          "internalType": "address",
          "name": "",
          "type": "address"
        },
        {
          "internalType": "address",
          "name": "",
          "type": "address"
        },
        {
          "internalType": "uint256[]",
          "name": "",
          "type": "uint256[]"
        },
        {
          "internalType": "uint256[]",
          "name": "",
          "type": "uint256[]"
        },
        {
          "internalType": "bytes",
          "name": "",
          "type": "bytes"
        }
      ],
      "name": "onERC1155BatchReceived",
      "outputs": [
        {
          "internalType": "bytes4",
          "name": "",
          "type": "bytes4"
        }
      ],
      "stateMutability": "nonpayable",
      "type": "function"
    },
    {
      "inputs": [
        {
          "internalType": "address",
          "name": "",
          "type": "address"
        },
        {
          "internalType": "address",
          "name": "",
          "type": "address"
        },
        {
          "internalType": "uint256",
          "name": "",
          "type": "uint256"
        },
        {
          "internalType": "uint256",
          "name": "",
          "type": "uint256"
        },
        {
          "internalType": "bytes",
          "name": "",
          "type": "bytes"
        }
      ],
      "name": "onERC1155Received",
      "outputs": [
        {
          "internalType": "bytes4",
          "name": "",
          "type": "bytes4"
        }
      ],
      "stateMutability": "nonpayable",
      "type": "function"
    },
    {
      "inputs": [],
      "name": "owner",
      "outputs": [
        {
          "internalType": "address",
          "name": "",
          "type": "address"
        }
      ],
      "stateMutability": "view",
      "type": "function"
    },
    {
      "inputs": [],
      "name": "proxiableUUID",
      "outputs": [
        {
          "internalType": "bytes32",
          "name": "",
          "type": "bytes32"
        }
      ],
      "stateMutability": "view",
      "type": "function"
    },
    {
      "inputs": [],
      "name": "register",
      "outputs": [],
      "stateMutability": "nonpayable",
      "type": "function"
    },
    {
      "inputs": [],
      "name": "renounceOwnership",
      "outputs": [],
      "stateMutability": "nonpayable",
      "type": "function"
    },
    {
      "inputs": [
        {
          "internalType": "uint256",
          "name": "fee",
          "type": "uint256"
        }
      ],
      "name": "setEntranceFee",
      "outputs": [],
      "stateMutability": "nonpayable",
      "type": "function"
    },
    {
      "inputs": [],
      "name": "startEvent",
      "outputs": [],
      "stateMutability": "nonpayable",
      "type": "function"
    },
    {
      "inputs": [],
      "name": "stopEvent",
      "outputs": [],
      "stateMutability": "nonpayable",
      "type": "function"
    },
    {
      "inputs": [
        {
          "internalType": "bytes4",
          "name": "interfaceId",
          "type": "bytes4"
        }
      ],
      "name": "supportsInterface",
      "outputs": [
        {
          "internalType": "bool",
          "name": "",
          "type": "bool"
        }
      ],
      "stateMutability": "view",
      "type": "function"
    },
    {
      "inputs": [
        {
          "internalType": "address",
          "name": "newOwner",
          "type": "address"
        }
      ],
      "name": "transferOwnership",
      "outputs": [],
      "stateMutability": "nonpayable",
      "type": "function"
    },
    {
      "inputs": [
        {
          "internalType": "address",
          "name": "newImplementation",
          "type": "address"
        }
      ],
      "name": "upgradeTo",
      "outputs": [],
      "stateMutability": "nonpayable",
      "type": "function"
    },
    {
      "inputs": [
        {
          "internalType": "address",
          "name": "newImplementation",
          "type": "address"
        },
        {
          "internalType": "bytes",
          "name": "data",
          "type": "bytes"
        }
      ],
      "name": "upgradeToAndCall",
      "outputs": [],
      "stateMutability": "payable",
      "type": "function"
    }
  ],
  "bytecode": "0x60a06040523073ffffffffffffffffffffffffffffffffffffffff1660809073ffffffffffffffffffffffffffffffffffffffff1660601b81525034801561004657600080fd5b5060805160601c61279f6100816000396000818161068f0152818161071e0152818161083e015281816108cd015261097d015261279f6000f3fe6080604052600436106101095760003560e01c8063aaf10f4211610095578063c4d66de811610064578063c4d66de814610336578063e2fd38e91461035f578063f23a6e6114610376578063f2fde38b146103b3578063fe56f5a0146103dc57610109565b8063aaf10f4214610268578063b5126f7b14610293578063bc197c81146102bc578063c3c5a547146102f957610109565b80634f1ef286116100dc5780634f1ef286146101c857806352d1902d146101e457806360ba77911461020f578063715018a6146102265780638da5cb5b1461023d57610109565b806301ffc9a71461010e57806316fbe70c1461014b5780631aa3a008146101885780633659cfe61461019f575b600080fd5b34801561011a57600080fd5b5061013560048036038101906101309190611a53565b610405565b6040516101429190611e00565b60405180910390f35b34801561015757600080fd5b50610172600480360381019061016d919061185f565b61047f565b60405161017f919061204e565b60405180910390f35b34801561019457600080fd5b5061019d6104c8565b005b3480156101ab57600080fd5b506101c660048036038101906101c1919061185f565b61068d565b005b6101e260048036038101906101dd91906119d6565b61083c565b005b3480156101f057600080fd5b506101f9610979565b6040516102069190611e1b565b60405180910390f35b34801561021b57600080fd5b50610224610a32565b005b34801561023257600080fd5b5061023b610a57565b005b34801561024957600080fd5b50610252610a6b565b60405161025f9190611d8d565b60405180910390f35b34801561027457600080fd5b5061027d610a95565b60405161028a9190611d8d565b60405180910390f35b34801561029f57600080fd5b506102ba60048036038101906102b59190611a7c565b610aa4565b005b3480156102c857600080fd5b506102e360048036038101906102de9190611888565b610cc9565b6040516102f09190611e36565b60405180910390f35b34801561030557600080fd5b50610320600480360381019061031b919061185f565b610cde565b60405161032d9190611e00565b60405180910390f35b34801561034257600080fd5b5061035d6004803603810190610358919061185f565b610d34565b005b34801561036b57600080fd5b50610374610ee7565b005b34801561038257600080fd5b5061039d60048036038101906103989190611947565b610f0c565b6040516103aa9190611e36565b60405180910390f35b3480156103bf57600080fd5b506103da60048036038101906103d5919061185f565b610f21565b005b3480156103e857600080fd5b5061040360048036038101906103fe9190611a7c565b610fa5565b005b60007f4e2312e0000000000000000000000000000000000000000000000000000000007bffffffffffffffffffffffffffffffffffffffffffffffffffffffff1916827bffffffffffffffffffffffffffffffffffffffffffffffffffffffff19161480610478575061047782610fb7565b5b9050919050565b600060cb60008373ffffffffffffffffffffffffffffffffffffffff1673ffffffffffffffffffffffffffffffffffffffff168152602001908152602001600020549050919050565b6001151560cd60009054906101000a900460ff1615151461051e576040517f08c379a000000000000000000000000000000000000000000000000000000000815260040161051590611f0e565b60405180910390fd5b6000151560ca60003373ffffffffffffffffffffffffffffffffffffffff1673ffffffffffffffffffffffffffffffffffffffff16815260200190815260200160002060009054906101000a900460ff161515146105b1576040517f08c379a00000000000000000000000000000000000000000000000000000000081526004016105a890611eae565b60405180910390fd5b60c960009054906101000a900473ffffffffffffffffffffffffffffffffffffffff1673ffffffffffffffffffffffffffffffffffffffff1663f242432a333060ce5460cc546040518563ffffffff1660e01b81526004016106169493929190611da8565b600060405180830381600087803b15801561063057600080fd5b505af1158015610644573d6000803e3d6000fd5b505050503373ffffffffffffffffffffffffffffffffffffffff167feeda149c76076b34d4b9d8896c2f7efc0d33d1c7b53ea3c5db490d64613f603a60405160405180910390a2565b7f000000000000000000000000000000000000000000000000000000000000000073ffffffffffffffffffffffffffffffffffffffff163073ffffffffffffffffffffffffffffffffffffffff16141561071c576040517f08c379a000000000000000000000000000000000000000000000000000000000815260040161071390611ece565b60405180910390fd5b7f000000000000000000000000000000000000000000000000000000000000000073ffffffffffffffffffffffffffffffffffffffff1661075b611021565b73ffffffffffffffffffffffffffffffffffffffff16146107b1576040517f08c379a00000000000000000000000000000000000000000000000000000000081526004016107a890611eee565b60405180910390fd5b6107ba81611078565b61083981600067ffffffffffffffff8111156107ff577f4e487b7100000000000000000000000000000000000000000000000000000000600052604160045260246000fd5b6040519080825280601f01601f1916602001820160405280156108315781602001600182028036833780820191505090505b506000611083565b50565b7f000000000000000000000000000000000000000000000000000000000000000073ffffffffffffffffffffffffffffffffffffffff163073ffffffffffffffffffffffffffffffffffffffff1614156108cb576040517f08c379a00000000000000000000000000000000000000000000000000000000081526004016108c290611ece565b60405180910390fd5b7f000000000000000000000000000000000000000000000000000000000000000073ffffffffffffffffffffffffffffffffffffffff1661090a611021565b73ffffffffffffffffffffffffffffffffffffffff1614610960576040517f08c379a000000000000000000000000000000000000000000000000000000000815260040161095790611eee565b60405180910390fd5b61096982611078565b61097582826001611083565b5050565b60007f000000000000000000000000000000000000000000000000000000000000000073ffffffffffffffffffffffffffffffffffffffff163073ffffffffffffffffffffffffffffffffffffffff1614610a09576040517f08c379a0000000000000000000000000000000000000000000000000000000008152600401610a0090611f2e565b60405180910390fd5b7f360894a13ba1a3210667c828492db98dca3e2076cc3735a920a3ca505d382bbc60001b905090565b610a3a611200565b600060cd60006101000a81548160ff021916908315150217905550565b610a5f611200565b610a69600061127e565b565b6000609760009054906101000a900473ffffffffffffffffffffffffffffffffffffffff16905090565b6000610a9f611021565b905090565b6001151560cd60009054906101000a900460ff16151514610afa576040517f08c379a0000000000000000000000000000000000000000000000000000000008152600401610af190611f0e565b60405180910390fd5b6001151560ca60003373ffffffffffffffffffffffffffffffffffffffff1673ffffffffffffffffffffffffffffffffffffffff16815260200190815260200160002060009054906101000a900460ff16151514610b8d576040517f08c379a0000000000000000000000000000000000000000000000000000000008152600401610b8490611f8e565b60405180910390fd5b60c960009054906101000a900473ffffffffffffffffffffffffffffffffffffffff1673ffffffffffffffffffffffffffffffffffffffff1663f242432a333060ce54856040518563ffffffff1660e01b8152600401610bf09493929190611da8565b600060405180830381600087803b158015610c0a57600080fd5b505af1158015610c1e573d6000803e3d6000fd5b505050508060cb60003373ffffffffffffffffffffffffffffffffffffffff1673ffffffffffffffffffffffffffffffffffffffff1681526020019081526020016000206000828254610c71919061212e565b925050819055503373ffffffffffffffffffffffffffffffffffffffff167fe5eaca42a2c36bbb142445e563aac1a8dd3d7fc70041af0b70bc28fd49e83a9b82604051610cbe919061204e565b60405180910390a250565b600063bc197c8160e01b905095945050505050565b600060ca60008373ffffffffffffffffffffffffffffffffffffffff1673ffffffffffffffffffffffffffffffffffffffff16815260200190815260200160002060009054906101000a900460ff169050919050565b60008060019054906101000a900460ff16159050808015610d655750600160008054906101000a900460ff1660ff16105b80610d925750610d7430611344565b158015610d915750600160008054906101000a900460ff1660ff16145b5b610dd1576040517f08c379a0000000000000000000000000000000000000000000000000000000008152600401610dc890611f6e565b60405180910390fd5b60016000806101000a81548160ff021916908360ff1602179055508015610e0e576001600060016101000a81548160ff0219169083151502179055505b610e16611367565b610e1e6113b8565b8160c960006101000a81548173ffffffffffffffffffffffffffffffffffffffff021916908373ffffffffffffffffffffffffffffffffffffffff160217905550600060ce81905550600260cc81905550600060cd60006101000a81548160ff0219169083151502179055508015610ee35760008060016101000a81548160ff0219169083151502179055507f7f26b83ff96e1f2b6a682f133852f6798a09c465da95921460cefb38474024986001604051610eda9190611e51565b60405180910390a15b5050565b610eef611200565b600160cd60006101000a81548160ff021916908315150217905550565b600063f23a6e6160e01b905095945050505050565b610f29611200565b600073ffffffffffffffffffffffffffffffffffffffff168173ffffffffffffffffffffffffffffffffffffffff161415610f99576040517f08c379a0000000000000000000000000000000000000000000000000000000008152600401610f9090611e8e565b60405180910390fd5b610fa28161127e565b50565b610fad611200565b8060cc8190555050565b60007f01ffc9a7000000000000000000000000000000000000000000000000000000007bffffffffffffffffffffffffffffffffffffffffffffffffffffffff1916827bffffffffffffffffffffffffffffffffffffffffffffffffffffffff1916149050919050565b600061104f7f360894a13ba1a3210667c828492db98dca3e2076cc3735a920a3ca505d382bbc60001b611411565b60000160009054906101000a900473ffffffffffffffffffffffffffffffffffffffff16905090565b611080611200565b50565b6110af7f4910fdfa16fed3260ed0e7147f7cc6da11a60208b5b9406d12a635614ffd914360001b61141b565b60000160009054906101000a900460ff16156110d3576110ce83611425565b6111fb565b8273ffffffffffffffffffffffffffffffffffffffff166352d1902d6040518163ffffffff1660e01b815260040160206040518083038186803b15801561111957600080fd5b505afa92505050801561114a57506040513d601f19601f820116820180604052508101906111479190611a2a565b60015b611189576040517f08c379a000000000000000000000000000000000000000000000000000000000815260040161118090611fae565b60405180910390fd5b7f360894a13ba1a3210667c828492db98dca3e2076cc3735a920a3ca505d382bbc60001b81146111ee576040517f08c379a00000000000000000000000000000000000000000000000000000000081526004016111e590611f4e565b60405180910390fd5b506111fa8383836114de565b5b505050565b61120861150a565b73ffffffffffffffffffffffffffffffffffffffff16611226610a6b565b73ffffffffffffffffffffffffffffffffffffffff161461127c576040517f08c379a000000000000000000000000000000000000000000000000000000000815260040161127390611fee565b60405180910390fd5b565b6000609760009054906101000a900473ffffffffffffffffffffffffffffffffffffffff16905081609760006101000a81548173ffffffffffffffffffffffffffffffffffffffff021916908373ffffffffffffffffffffffffffffffffffffffff1602179055508173ffffffffffffffffffffffffffffffffffffffff168173ffffffffffffffffffffffffffffffffffffffff167f8be0079c531659141344cd1fd0a4f28419497f9722a3daafe3b4186f6b6457e060405160405180910390a35050565b6000808273ffffffffffffffffffffffffffffffffffffffff163b119050919050565b600060019054906101000a900460ff166113b6576040517f08c379a00000000000000000000000000000000000000000000000000000000081526004016113ad9061202e565b60405180910390fd5b565b600060019054906101000a900460ff16611407576040517f08c379a00000000000000000000000000000000000000000000000000000000081526004016113fe9061202e565b60405180910390fd5b61140f611512565b565b6000819050919050565b6000819050919050565b61142e81611344565b61146d576040517f08c379a000000000000000000000000000000000000000000000000000000000815260040161146490611fce565b60405180910390fd5b8061149a7f360894a13ba1a3210667c828492db98dca3e2076cc3735a920a3ca505d382bbc60001b611411565b60000160006101000a81548173ffffffffffffffffffffffffffffffffffffffff021916908373ffffffffffffffffffffffffffffffffffffffff16021790555050565b6114e783611573565b6000825111806114f45750805b156115055761150383836115c2565b505b505050565b600033905090565b600060019054906101000a900460ff16611561576040517f08c379a00000000000000000000000000000000000000000000000000000000081526004016115589061202e565b60405180910390fd5b61157161156c61150a565b61127e565b565b61157c81611425565b8073ffffffffffffffffffffffffffffffffffffffff167fbc7cd75a20ee27fd9adebab32041f755214dbc6bffa90cc0225b39da2e5c2d3b60405160405180910390a250565b60606115cd83611344565b61160c576040517f08c379a00000000000000000000000000000000000000000000000000000000081526004016116039061200e565b60405180910390fd5b6000808473ffffffffffffffffffffffffffffffffffffffff16846040516116349190611d76565b600060405180830381855af49150503d806000811461166f576040519150601f19603f3d011682016040523d82523d6000602084013e611674565b606091505b509150915061169c8282604051806060016040528060278152602001612743602791396116a6565b9250505092915050565b606083156116b657829050611706565b6000835111156116c95782518084602001fd5b816040517f08c379a00000000000000000000000000000000000000000000000000000000081526004016116fd9190611e6c565b60405180910390fd5b9392505050565b600061172061171b8461208e565b612069565b9050808382526020820190508285602086028201111561173f57600080fd5b60005b8581101561176f5781611755888261184a565b845260208401935060208301925050600181019050611742565b5050509392505050565b600061178c611787846120ba565b612069565b9050828152602081018484840111156117a457600080fd5b6117af848285612221565b509392505050565b6000813590506117c6816126e6565b92915050565b600082601f8301126117dd57600080fd5b81356117ed84826020860161170d565b91505092915050565b600081519050611805816126fd565b92915050565b60008135905061181a81612714565b92915050565b600082601f83011261183157600080fd5b8135611841848260208601611779565b91505092915050565b6000813590506118598161272b565b92915050565b60006020828403121561187157600080fd5b600061187f848285016117b7565b91505092915050565b600080600080600060a086880312156118a057600080fd5b60006118ae888289016117b7565b95505060206118bf888289016117b7565b945050604086013567ffffffffffffffff8111156118dc57600080fd5b6118e8888289016117cc565b935050606086013567ffffffffffffffff81111561190557600080fd5b611911888289016117cc565b925050608086013567ffffffffffffffff81111561192e57600080fd5b61193a88828901611820565b9150509295509295909350565b600080600080600060a0868803121561195f57600080fd5b600061196d888289016117b7565b955050602061197e888289016117b7565b945050604061198f8882890161184a565b93505060606119a08882890161184a565b925050608086013567ffffffffffffffff8111156119bd57600080fd5b6119c988828901611820565b9150509295509295909350565b600080604083850312156119e957600080fd5b60006119f7858286016117b7565b925050602083013567ffffffffffffffff811115611a1457600080fd5b611a2085828601611820565b9150509250929050565b600060208284031215611a3c57600080fd5b6000611a4a848285016117f6565b91505092915050565b600060208284031215611a6557600080fd5b6000611a738482850161180b565b91505092915050565b600060208284031215611a8e57600080fd5b6000611a9c8482850161184a565b91505092915050565b611aae81612184565b82525050565b611abd81612196565b82525050565b611acc816121a2565b82525050565b611adb816121ac565b82525050565b6000611aec826120eb565b611af68185612112565b9350611b06818560208601612230565b80840191505092915050565b611b1b8161220f565b82525050565b6000611b2c826120f6565b611b36818561211d565b9350611b46818560208601612230565b611b4f816122f2565b840191505092915050565b6000611b6760268361211d565b9150611b7282612303565b604082019050919050565b6000611b8a60128361211d565b9150611b9582612352565b602082019050919050565b6000611bad600483612101565b9150611bb88261237b565b602082019050919050565b6000611bd0602c8361211d565b9150611bdb826123a4565b604082019050919050565b6000611bf3602c8361211d565b9150611bfe826123f3565b604082019050919050565b6000611c16600f8361211d565b9150611c2182612442565b602082019050919050565b6000611c3960388361211d565b9150611c448261246b565b604082019050919050565b6000611c5c60298361211d565b9150611c67826124ba565b604082019050919050565b6000611c7f602e8361211d565b9150611c8a82612509565b604082019050919050565b6000611ca260158361211d565b9150611cad82612558565b602082019050919050565b6000611cc5602e8361211d565b9150611cd082612581565b604082019050919050565b6000611ce8602d8361211d565b9150611cf3826125d0565b604082019050919050565b6000611d0b60208361211d565b9150611d168261261f565b602082019050919050565b6000611d2e60268361211d565b9150611d3982612648565b604082019050919050565b6000611d51602b8361211d565b9150611d5c82612697565b604082019050919050565b611d70816121f8565b82525050565b6000611d828284611ae1565b915081905092915050565b6000602082019050611da26000830184611aa5565b92915050565b600060a082019050611dbd6000830187611aa5565b611dca6020830186611aa5565b611dd76040830185611d67565b611de46060830184611d67565b8181036080830152611df581611ba0565b905095945050505050565b6000602082019050611e156000830184611ab4565b92915050565b6000602082019050611e306000830184611ac3565b92915050565b6000602082019050611e4b6000830184611ad2565b92915050565b6000602082019050611e666000830184611b12565b92915050565b60006020820190508181036000830152611e868184611b21565b905092915050565b60006020820190508181036000830152611ea781611b5a565b9050919050565b60006020820190508181036000830152611ec781611b7d565b9050919050565b60006020820190508181036000830152611ee781611bc3565b9050919050565b60006020820190508181036000830152611f0781611be6565b9050919050565b60006020820190508181036000830152611f2781611c09565b9050919050565b60006020820190508181036000830152611f4781611c2c565b9050919050565b60006020820190508181036000830152611f6781611c4f565b9050919050565b60006020820190508181036000830152611f8781611c72565b9050919050565b60006020820190508181036000830152611fa781611c95565b9050919050565b60006020820190508181036000830152611fc781611cb8565b9050919050565b60006020820190508181036000830152611fe781611cdb565b9050919050565b6000602082019050818103600083015261200781611cfe565b9050919050565b6000602082019050818103600083015261202781611d21565b9050919050565b6000602082019050818103600083015261204781611d44565b9050919050565b60006020820190506120636000830184611d67565b92915050565b6000612073612084565b905061207f8282612263565b919050565b6000604051905090565b600067ffffffffffffffff8211156120a9576120a86122c3565b5b602082029050602081019050919050565b600067ffffffffffffffff8211156120d5576120d46122c3565b5b6120de826122f2565b9050602081019050919050565b600081519050919050565b600081519050919050565b600082825260208201905092915050565b600081905092915050565b600082825260208201905092915050565b6000612139826121f8565b9150612144836121f8565b9250827fffffffffffffffffffffffffffffffffffffffffffffffffffffffffffffffff0382111561217957612178612294565b5b828201905092915050565b600061218f826121d8565b9050919050565b60008115159050919050565b6000819050919050565b60007fffffffff0000000000000000000000000000000000000000000000000000000082169050919050565b600073ffffffffffffffffffffffffffffffffffffffff82169050919050565b6000819050919050565b600060ff82169050919050565b600061221a82612202565b9050919050565b82818337600083830152505050565b60005b8381101561224e578082015181840152602081019050612233565b8381111561225d576000848401525b50505050565b61226c826122f2565b810181811067ffffffffffffffff8211171561228b5761228a6122c3565b5b80604052505050565b7f4e487b7100000000000000000000000000000000000000000000000000000000600052601160045260246000fd5b7f4e487b7100000000000000000000000000000000000000000000000000000000600052604160045260246000fd5b6000601f19601f8301169050919050565b7f4f776e61626c653a206e6577206f776e657220697320746865207a65726f206160008201527f6464726573730000000000000000000000000000000000000000000000000000602082015250565b7f616c726561647920726567697374657265640000000000000000000000000000600082015250565b7f3078303000000000000000000000000000000000000000000000000000000000600082015250565b7f46756e6374696f6e206d7573742062652063616c6c6564207468726f7567682060008201527f64656c656761746563616c6c0000000000000000000000000000000000000000602082015250565b7f46756e6374696f6e206d7573742062652063616c6c6564207468726f7567682060008201527f6163746976652070726f78790000000000000000000000000000000000000000602082015250565b7f4e6f74206f70656e696e67206e6f770000000000000000000000000000000000600082015250565b7f555550535570677261646561626c653a206d757374206e6f742062652063616c60008201527f6c6564207468726f7567682064656c656761746563616c6c0000000000000000602082015250565b7f45524331393637557067726164653a20756e737570706f727465642070726f7860008201527f6961626c65555549440000000000000000000000000000000000000000000000602082015250565b7f496e697469616c697a61626c653a20636f6e747261637420697320616c72656160008201527f647920696e697469616c697a6564000000000000000000000000000000000000602082015250565b7f526567697374726174696f6e2072657175697265640000000000000000000000600082015250565b7f45524331393637557067726164653a206e657720696d706c656d656e7461746960008201527f6f6e206973206e6f742055555053000000000000000000000000000000000000602082015250565b7f455243313936373a206e657720696d706c656d656e746174696f6e206973206e60008201527f6f74206120636f6e747261637400000000000000000000000000000000000000602082015250565b7f4f776e61626c653a2063616c6c6572206973206e6f7420746865206f776e6572600082015250565b7f416464726573733a2064656c65676174652063616c6c20746f206e6f6e2d636f60008201527f6e74726163740000000000000000000000000000000000000000000000000000602082015250565b7f496e697469616c697a61626c653a20636f6e7472616374206973206e6f74206960008201527f6e697469616c697a696e67000000000000000000000000000000000000000000602082015250565b6126ef81612184565b81146126fa57600080fd5b50565b612706816121a2565b811461271157600080fd5b50565b61271d816121ac565b811461272857600080fd5b50565b612734816121f8565b811461273f57600080fd5b5056fe416464726573733a206c6f772d6c6576656c2064656c65676174652063616c6c206661696c6564a2646970667358221220c4d5e91b21dc9caefffdc63fc95a99fdb7cd8cd77d423e9b443d5d9ee0f2230364736f6c63430008040033",
  "linkReferences": {},
  "deployedLinkReferences": {}
}