{
  "contractName": "NextAuction",
  "abi": [
    {
      "inputs": [
        {
          "internalType": "address",
          "name": "ownerWallet",
          "type": "address"
        }
      ],
      "stateMutability": "nonpayable",
      "type": "constructor"
    },
    {
      "anonymous": false,
      "inputs": [
        {
          "indexed": true,
          "internalType": "address",
          "name": "sender",
          "type": "address"
        },
        {
          "components": [
            {
              "internalType": "bool",
              "name": "isClaimed",
              "type": "bool"
            },
            {
              "internalType": "address",
              "name": "nftContract",
              "type": "address"
            },
            {
              "internalType": "address",
              "name": "erc20Contract",
              "type": "address"
            },
            {
              "internalType": "address",
              "name": "highestBidder",
              "type": "address"
            },
            {
              "internalType": "uint256",
              "name": "id",
              "type": "uint256"
            },
            {
              "internalType": "uint256",
              "name": "tokenId",
              "type": "uint256"
            },
            {
              "internalType": "uint256",
              "name": "initialPrice",
              "type": "uint256"
            },
            {
              "internalType": "uint256",
              "name": "tickSize",
              "type": "uint256"
            },
            {
              "internalType": "uint256",
              "name": "highestPrice",
              "type": "uint256"
            },
            {
              "internalType": "uint256",
              "name": "startTime",
              "type": "uint256"
            },
            {
              "internalType": "uint256",
              "name": "endTime",
              "type": "uint256"
            }
          ],
          "indexed": false,
          "internalType": "struct NextAuction.Auction",
          "name": "auction",
          "type": "tuple"
        }
      ],
      "name": "AuctionAdded",
      "type": "event"
    },
    {
      "anonymous": false,
      "inputs": [
        {
          "indexed": true,
          "internalType": "address",
          "name": "sender",
          "type": "address"
        },
        {
          "indexed": false,
          "internalType": "uint256",
          "name": "id",
          "type": "uint256"
        },
        {
          "indexed": false,
          "internalType": "uint256",
          "name": "startTime",
          "type": "uint256"
        },
        {
          "indexed": false,
          "internalType": "uint256",
          "name": "endTime",
          "type": "uint256"
        }
      ],
      "name": "AuctionTimeUpdated",
      "type": "event"
    },
    {
      "anonymous": false,
      "inputs": [
        {
          "indexed": true,
          "internalType": "address",
          "name": "sender",
          "type": "address"
        },
        {
          "indexed": false,
          "internalType": "uint256",
          "name": "id",
          "type": "uint256"
        }
      ],
      "name": "EndAuction",
      "type": "event"
    },
    {
      "anonymous": false,
      "inputs": [
        {
          "indexed": true,
          "internalType": "address",
          "name": "sender",
          "type": "address"
        },
        {
          "indexed": false,
          "internalType": "uint256",
          "name": "id",
          "type": "uint256"
        },
        {
          "indexed": false,
          "internalType": "uint256",
          "name": "highestPrice",
          "type": "uint256"
        },
        {
          "indexed": false,
          "internalType": "uint256",
          "name": "endTime",
          "type": "uint256"
        }
      ],
      "name": "HighestPriceUpdated",
      "type": "event"
    },
    {
      "anonymous": false,
      "inputs": [
        {
          "indexed": true,
          "internalType": "address",
          "name": "sender",
          "type": "address"
        },
        {
          "indexed": false,
          "internalType": "uint256",
          "name": "id",
          "type": "uint256"
        },
        {
          "indexed": false,
          "internalType": "uint256",
          "name": "initialPrice",
          "type": "uint256"
        },
        {
          "indexed": false,
          "internalType": "address",
          "name": "erc20Contract",
          "type": "address"
        }
      ],
      "name": "InitialPriceUpdated",
      "type": "event"
    },
    {
      "anonymous": false,
      "inputs": [
        {
          "indexed": true,
          "internalType": "address",
          "name": "sender",
          "type": "address"
        },
        {
          "indexed": false,
          "internalType": "uint256",
          "name": "id",
          "type": "uint256"
        }
      ],
      "name": "ItemClaimed",
      "type": "event"
    },
    {
      "anonymous": false,
      "inputs": [
        {
          "indexed": true,
          "internalType": "address",
          "name": "previousOwner",
          "type": "address"
        },
        {
          "indexed": true,
          "internalType": "address",
          "name": "newOwner",
          "type": "address"
        }
      ],
      "name": "OwnershipTransferred",
      "type": "event"
    },
    {
      "anonymous": false,
      "inputs": [
        {
          "indexed": true,
          "internalType": "address",
          "name": "sender",
          "type": "address"
        },
        {
          "indexed": false,
          "internalType": "uint256",
          "name": "id",
          "type": "uint256"
        },
        {
          "indexed": false,
          "internalType": "uint256",
          "name": "amount",
          "type": "uint256"
        }
      ],
      "name": "Withdraw",
      "type": "event"
    },
    {
      "inputs": [],
      "name": "NFTs",
      "outputs": [
        {
          "internalType": "contract NextItem",
          "name": "",
          "type": "address"
        }
      ],
      "stateMutability": "view",
      "type": "function",
      "constant": true
    },
    {
      "inputs": [
        {
          "internalType": "address",
          "name": "",
          "type": "address"
        },
        {
          "internalType": "address",
          "name": "",
          "type": "address"
        },
        {
          "internalType": "uint256[]",
          "name": "",
          "type": "uint256[]"
        },
        {
          "internalType": "uint256[]",
          "name": "",
          "type": "uint256[]"
        },
        {
          "internalType": "bytes",
          "name": "",
          "type": "bytes"
        }
      ],
      "name": "onERC1155BatchReceived",
      "outputs": [
        {
          "internalType": "bytes4",
          "name": "",
          "type": "bytes4"
        }
      ],
      "stateMutability": "nonpayable",
      "type": "function"
    },
    {
      "inputs": [
        {
          "internalType": "address",
          "name": "",
          "type": "address"
        },
        {
          "internalType": "address",
          "name": "",
          "type": "address"
        },
        {
          "internalType": "uint256",
          "name": "",
          "type": "uint256"
        },
        {
          "internalType": "uint256",
          "name": "",
          "type": "uint256"
        },
        {
          "internalType": "bytes",
          "name": "",
          "type": "bytes"
        }
      ],
      "name": "onERC1155Received",
      "outputs": [
        {
          "internalType": "bytes4",
          "name": "",
          "type": "bytes4"
        }
      ],
      "stateMutability": "nonpayable",
      "type": "function"
    },
    {
      "inputs": [],
      "name": "owner",
      "outputs": [
        {
          "internalType": "address",
          "name": "",
          "type": "address"
        }
      ],
      "stateMutability": "view",
      "type": "function",
      "constant": true
    },
    {
      "inputs": [],
      "name": "renounceOwnership",
      "outputs": [],
      "stateMutability": "nonpayable",
      "type": "function"
    },
    {
      "inputs": [
        {
          "internalType": "bytes4",
          "name": "interfaceId",
          "type": "bytes4"
        }
      ],
      "name": "supportsInterface",
      "outputs": [
        {
          "internalType": "bool",
          "name": "",
          "type": "bool"
        }
      ],
      "stateMutability": "view",
      "type": "function",
      "constant": true
    },
    {
      "inputs": [
        {
          "internalType": "address",
          "name": "newOwner",
          "type": "address"
        }
      ],
      "name": "transferOwnership",
      "outputs": [],
      "stateMutability": "nonpayable",
      "type": "function"
    },
    {
      "inputs": [
        {
          "internalType": "uint256",
          "name": "duration",
          "type": "uint256"
        }
      ],
      "name": "setExtendTime",
      "outputs": [],
      "stateMutability": "nonpayable",
      "type": "function"
    },
    {
      "inputs": [
        {
          "components": [
            {
              "internalType": "bool",
              "name": "isClaimed",
              "type": "bool"
            },
            {
              "internalType": "address",
              "name": "nftContract",
              "type": "address"
            },
            {
              "internalType": "address",
              "name": "erc20Contract",
              "type": "address"
            },
            {
              "internalType": "address",
              "name": "highestBidder",
              "type": "address"
            },
            {
              "internalType": "uint256",
              "name": "id",
              "type": "uint256"
            },
            {
              "internalType": "uint256",
              "name": "tokenId",
              "type": "uint256"
            },
            {
              "internalType": "uint256",
              "name": "initialPrice",
              "type": "uint256"
            },
            {
              "internalType": "uint256",
              "name": "tickSize",
              "type": "uint256"
            },
            {
              "internalType": "uint256",
              "name": "highestPrice",
              "type": "uint256"
            },
            {
              "internalType": "uint256",
              "name": "startTime",
              "type": "uint256"
            },
            {
              "internalType": "uint256",
              "name": "endTime",
              "type": "uint256"
            }
          ],
          "internalType": "struct NextAuction.Auction",
          "name": "auction",
          "type": "tuple"
        }
      ],
      "name": "addAuction",
      "outputs": [],
      "stateMutability": "nonpayable",
      "type": "function"
    },
    {
      "inputs": [
        {
          "internalType": "uint256",
          "name": "auctionId",
          "type": "uint256"
        },
        {
          "internalType": "uint256",
          "name": "startTime",
          "type": "uint256"
        },
        {
          "internalType": "uint256",
          "name": "endTime",
          "type": "uint256"
        }
      ],
      "name": "updateAuctionTime",
      "outputs": [],
      "stateMutability": "nonpayable",
      "type": "function"
    },
    {
      "inputs": [
        {
          "internalType": "uint256",
          "name": "auctionId",
          "type": "uint256"
        },
        {
          "internalType": "uint256",
          "name": "price",
          "type": "uint256"
        },
        {
          "internalType": "address",
          "name": "erc20Contract",
          "type": "address"
        }
      ],
      "name": "updateInitialPrice",
      "outputs": [],
      "stateMutability": "nonpayable",
      "type": "function"
    },
    {
      "inputs": [
        {
          "internalType": "uint256",
          "name": "auctionId",
          "type": "uint256"
        },
        {
          "internalType": "uint256",
          "name": "price",
          "type": "uint256"
        }
      ],
      "name": "bid",
      "outputs": [],
      "stateMutability": "nonpayable",
      "type": "function"
    },
    {
      "inputs": [
        {
          "internalType": "uint256",
          "name": "auctionId",
          "type": "uint256"
        }
      ],
      "name": "withdraw",
      "outputs": [],
      "stateMutability": "nonpayable",
      "type": "function"
    },
    {
      "inputs": [
        {
          "internalType": "uint256",
          "name": "auctionId",
          "type": "uint256"
        }
      ],
      "name": "claimItem",
      "outputs": [],
      "stateMutability": "nonpayable",
      "type": "function"
    },
    {
      "inputs": [
        {
          "internalType": "uint256",
          "name": "auctionId",
          "type": "uint256"
        }
      ],
      "name": "getAuction",
      "outputs": [
        {
          "components": [
            {
              "internalType": "bool",
              "name": "isClaimed",
              "type": "bool"
            },
            {
              "internalType": "address",
              "name": "nftContract",
              "type": "address"
            },
            {
              "internalType": "address",
              "name": "erc20Contract",
              "type": "address"
            },
            {
              "internalType": "address",
              "name": "highestBidder",
              "type": "address"
            },
            {
              "internalType": "uint256",
              "name": "id",
              "type": "uint256"
            },
            {
              "internalType": "uint256",
              "name": "tokenId",
              "type": "uint256"
            },
            {
              "internalType": "uint256",
              "name": "initialPrice",
              "type": "uint256"
            },
            {
              "internalType": "uint256",
              "name": "tickSize",
              "type": "uint256"
            },
            {
              "internalType": "uint256",
              "name": "highestPrice",
              "type": "uint256"
            },
            {
              "internalType": "uint256",
              "name": "startTime",
              "type": "uint256"
            },
            {
              "internalType": "uint256",
              "name": "endTime",
              "type": "uint256"
            }
          ],
          "internalType": "struct NextAuction.Auction",
          "name": "",
          "type": "tuple"
        }
      ],
      "stateMutability": "view",
      "type": "function",
      "constant": true
    },
    {
      "inputs": [],
      "name": "getOnBiddingItems",
      "outputs": [
        {
          "components": [
            {
              "internalType": "bool",
              "name": "isClaimed",
              "type": "bool"
            },
            {
              "internalType": "address",
              "name": "nftContract",
              "type": "address"
            },
            {
              "internalType": "address",
              "name": "erc20Contract",
              "type": "address"
            },
            {
              "internalType": "address",
              "name": "highestBidder",
              "type": "address"
            },
            {
              "internalType": "uint256",
              "name": "id",
              "type": "uint256"
            },
            {
              "internalType": "uint256",
              "name": "tokenId",
              "type": "uint256"
            },
            {
              "internalType": "uint256",
              "name": "initialPrice",
              "type": "uint256"
            },
            {
              "internalType": "uint256",
              "name": "tickSize",
              "type": "uint256"
            },
            {
              "internalType": "uint256",
              "name": "highestPrice",
              "type": "uint256"
            },
            {
              "internalType": "uint256",
              "name": "startTime",
              "type": "uint256"
            },
            {
              "internalType": "uint256",
              "name": "endTime",
              "type": "uint256"
            }
          ],
          "internalType": "struct NextAuction.Auction[]",
          "name": "",
          "type": "tuple[]"
        }
      ],
      "stateMutability": "view",
      "type": "function",
      "constant": true
    },
    {
      "inputs": [],
      "name": "getUpcomingAuctions",
      "outputs": [
        {
          "components": [
            {
              "internalType": "bool",
              "name": "isClaimed",
              "type": "bool"
            },
            {
              "internalType": "address",
              "name": "nftContract",
              "type": "address"
            },
            {
              "internalType": "address",
              "name": "erc20Contract",
              "type": "address"
            },
            {
              "internalType": "address",
              "name": "highestBidder",
              "type": "address"
            },
            {
              "internalType": "uint256",
              "name": "id",
              "type": "uint256"
            },
            {
              "internalType": "uint256",
              "name": "tokenId",
              "type": "uint256"
            },
            {
              "internalType": "uint256",
              "name": "initialPrice",
              "type": "uint256"
            },
            {
              "internalType": "uint256",
              "name": "tickSize",
              "type": "uint256"
            },
            {
              "internalType": "uint256",
              "name": "highestPrice",
              "type": "uint256"
            },
            {
              "internalType": "uint256",
              "name": "startTime",
              "type": "uint256"
            },
            {
              "internalType": "uint256",
              "name": "endTime",
              "type": "uint256"
            }
          ],
          "internalType": "struct NextAuction.Auction[]",
          "name": "",
          "type": "tuple[]"
        }
      ],
      "stateMutability": "view",
      "type": "function",
      "constant": true
    },
    {
      "inputs": [
        {
          "internalType": "uint256",
          "name": "auctionId",
          "type": "uint256"
        },
        {
          "internalType": "address",
          "name": "bidder",
          "type": "address"
        }
      ],
      "name": "getBiddingPrice",
      "outputs": [
        {
          "internalType": "uint256",
          "name": "amount",
          "type": "uint256"
        }
      ],
      "stateMutability": "view",
      "type": "function",
      "constant": true
    },
    {
      "inputs": [],
      "name": "getTotalAuctions",
      "outputs": [
        {
          "internalType": "uint256",
          "name": "",
          "type": "uint256"
        }
      ],
      "stateMutability": "view",
      "type": "function",
      "constant": true
    }
  ],
  "bytecode": "0x60806040526103846007553480156200001757600080fd5b5060405162003be638038062003be683398181016040528101906200003d9190620001db565b6200005d62000051620000a560201b60201c565b620000ad60201b60201c565b80600160006101000a81548173ffffffffffffffffffffffffffffffffffffffff021916908373ffffffffffffffffffffffffffffffffffffffff160217905550506200020d565b600033905090565b60008060009054906101000a900473ffffffffffffffffffffffffffffffffffffffff169050816000806101000a81548173ffffffffffffffffffffffffffffffffffffffff021916908373ffffffffffffffffffffffffffffffffffffffff1602179055508173ffffffffffffffffffffffffffffffffffffffff168173ffffffffffffffffffffffffffffffffffffffff167f8be0079c531659141344cd1fd0a4f28419497f9722a3daafe3b4186f6b6457e060405160405180910390a35050565b600080fd5b600073ffffffffffffffffffffffffffffffffffffffff82169050919050565b6000620001a38262000176565b9050919050565b620001b58162000196565b8114620001c157600080fd5b50565b600081519050620001d581620001aa565b92915050565b600060208284031215620001f457620001f362000171565b5b60006200020484828501620001c4565b91505092915050565b6139c9806200021d6000396000f3fe608060405234801561001057600080fd5b50600436106101215760003560e01c806378bd7935116100ad5780639cd994b4116100715780639cd994b4146102e0578063adbae7c8146102fc578063bc197c811461031a578063f23a6e611461034a578063f2fde38b1461037a57610121565b806378bd79351461023c578063792fb8391461026c5780637da393e01461028857806382b31814146102a45780638da5cb5b146102c257610121565b8063598647f8116100f4578063598647f8146101c05780635bba66f2146101dc5780635c62bf39146101f857806364b560d714610214578063715018a61461023257610121565b806301ffc9a7146101265780631850fc2f146101565780632e1a7d4d146101865780633ef14cc8146101a2575b600080fd5b610140600480360381019061013b91906123dd565b610396565b60405161014d9190612425565b60405180910390f35b610170600480360381019061016b91906124d4565b610410565b60405161017d9190612523565b60405180910390f35b6101a0600480360381019061019b919061253e565b6104b8565b005b6101aa6107f7565b6040516101b79190612523565b60405180910390f35b6101da60048036038101906101d5919061256b565b610808565b005b6101f660048036038101906101f19190612774565b610be2565b005b610212600480360381019061020d919061253e565b611016565b005b61021c6110a8565b6040516102299190612960565b60405180910390f35b61023a611358565b005b6102566004803603810190610251919061253e565b6113e0565b6040516102639190612a63565b60405180910390f35b61028660048036038101906102819190612a7f565b6115be565b005b6102a2600480360381019061029d919061253e565b611788565b005b6102ac611b84565b6040516102b99190612b31565b60405180910390f35b6102ca611baa565b6040516102d79190612b5b565b60405180910390f35b6102fa60048036038101906102f59190612b76565b611bd3565b005b610304611d63565b6040516103119190612960565b60405180910390f35b610334600480360381019061032f9190612d4b565b612057565b6040516103419190612e29565b60405180910390f35b610364600480360381019061035f9190612e44565b61206c565b6040516103719190612e29565b60405180910390f35b610394600480360381019061038f9190612edb565b612081565b005b60007f4e2312e0000000000000000000000000000000000000000000000000000000007bffffffffffffffffffffffffffffffffffffffffffffffffffffffff1916827bffffffffffffffffffffffffffffffffffffffffffffffffffffffff19161480610409575061040882612179565b5b9050919050565b60008261041d60046121e3565b811061045e576040517f08c379a000000000000000000000000000000000000000000000000000000000815260040161045590612f65565b60405180910390fd5b6006600085815260200190815260200160002060008473ffffffffffffffffffffffffffffffffffffffff1673ffffffffffffffffffffffffffffffffffffffff1681526020019081526020016000205491505092915050565b806104c360046121e3565b8110610504576040517f08c379a00000000000000000000000000000000000000000000000000000000081526004016104fb90612f65565b60405180910390fd5b60006006600084815260200190815260200160002060003373ffffffffffffffffffffffffffffffffffffffff1673ffffffffffffffffffffffffffffffffffffffff1681526020019081526020016000205411610597576040517f08c379a000000000000000000000000000000000000000000000000000000000815260040161058e90612fd1565b60405180910390fd5b3373ffffffffffffffffffffffffffffffffffffffff166005600084815260200190815260200160002060020160009054906101000a900473ffffffffffffffffffffffffffffffffffffffff1673ffffffffffffffffffffffffffffffffffffffff16141561063c576040517f08c379a00000000000000000000000000000000000000000000000000000000081526004016106339061303d565b60405180910390fd5b60006005600084815260200190815260200160002060010160009054906101000a900473ffffffffffffffffffffffffffffffffffffffff16905060006006600085815260200190815260200160002060003373ffffffffffffffffffffffffffffffffffffffff1673ffffffffffffffffffffffffffffffffffffffff16815260200190815260200160002054905060006006600086815260200190815260200160002060003373ffffffffffffffffffffffffffffffffffffffff1673ffffffffffffffffffffffffffffffffffffffff168152602001908152602001600020819055508173ffffffffffffffffffffffffffffffffffffffff1663a9059cbb33836040518363ffffffff1660e01b815260040161075d92919061305d565b6020604051808303816000875af115801561077c573d6000803e3d6000fd5b505050506040513d601f19601f820116820180604052508101906107a0919061309b565b503373ffffffffffffffffffffffffffffffffffffffff167ff279e6a1f5e320cca91135676d9cb6e44ca8a08c0b88342bcdb1144f6511b56885836040516107e99291906130c8565b60405180910390a250505050565b600061080360046121e3565b905090565b8161081360046121e3565b8110610854576040517f08c379a000000000000000000000000000000000000000000000000000000000815260040161084b90612f65565b60405180910390fd5b60006005600085815260200190815260200160002090506000429050808260080154111580156108875750816009015481105b6108c6576040517f08c379a00000000000000000000000000000000000000000000000000000000081526004016108bd9061313d565b60405180910390fd5b3373ffffffffffffffffffffffffffffffffffffffff168260020160009054906101000a900473ffffffffffffffffffffffffffffffffffffffff1673ffffffffffffffffffffffffffffffffffffffff161415610959576040517f08c379a0000000000000000000000000000000000000000000000000000000008152600401610950906131a9565b60405180910390fd5b8160060154826007015461096d91906131f8565b8410156109af576040517f08c379a00000000000000000000000000000000000000000000000000000000081526004016109a6906132c0565b60405180910390fd5b60008260010160009054906101000a900473ffffffffffffffffffffffffffffffffffffffff16905060006006600088815260200190815260200160002060003373ffffffffffffffffffffffffffffffffffffffff1673ffffffffffffffffffffffffffffffffffffffff1681526020019081526020016000205486610a3691906132e0565b9050856006600089815260200190815260200160002060003373ffffffffffffffffffffffffffffffffffffffff1673ffffffffffffffffffffffffffffffffffffffff168152602001908152602001600020819055508173ffffffffffffffffffffffffffffffffffffffff166323b872dd3330846040518463ffffffff1660e01b8152600401610aca93929190613314565b6020604051808303816000875af1158015610ae9573d6000803e3d6000fd5b505050506040513d601f19601f82011682018060405250810190610b0d919061309b565b50858460070181905550338460020160006101000a81548173ffffffffffffffffffffffffffffffffffffffff021916908373ffffffffffffffffffffffffffffffffffffffff160217905550600060075484610b6a91906131f8565b90508460090154811115610b82578085600901819055505b3373ffffffffffffffffffffffffffffffffffffffff167fa084937efab52086feb4e4d1cce69347d66eeef83f10b5ce3362bdbca65e8fec89898860090154604051610bd09392919061334b565b60405180910390a25050505050505050565b610bea6121f1565b73ffffffffffffffffffffffffffffffffffffffff16610c08611baa565b73ffffffffffffffffffffffffffffffffffffffff1614610c5e576040517f08c379a0000000000000000000000000000000000000000000000000000000008152600401610c55906133ce565b60405180910390fd5b8060a00151816020015160008190508073ffffffffffffffffffffffffffffffffffffffff1663068d0c276040518163ffffffff1660e01b8152600401602060405180830381865afa158015610cb8573d6000803e3d6000fd5b505050506040513d601f19601f82011682018060405250810190610cdc9190613403565b8310610d1d576040517f08c379a0000000000000000000000000000000000000000000000000000000008152600401610d149061347c565b60405180910390fd5b60008460c0015111610d64576040517f08c379a0000000000000000000000000000000000000000000000000000000008152600401610d5b906134e8565b60405180910390fd5b6000846020015190508073ffffffffffffffffffffffffffffffffffffffff1663f242432a610d91611baa565b308860a0015160016040518563ffffffff1660e01b8152600401610db894939291906135a0565b600060405180830381600087803b158015610dd257600080fd5b505af1158015610de6573d6000803e3d6000fd5b505050506000610df660046121e3565b9050610e0260046121f9565b8086608001818152505060008660000190151590811515815250508560c0015186610100018181525050610e34611baa565b866060019073ffffffffffffffffffffffffffffffffffffffff16908173ffffffffffffffffffffffffffffffffffffffff1681525050856005600083815260200190815260200160002060008201518160000160006101000a81548160ff02191690831515021790555060208201518160000160016101000a81548173ffffffffffffffffffffffffffffffffffffffff021916908373ffffffffffffffffffffffffffffffffffffffff16021790555060408201518160010160006101000a81548173ffffffffffffffffffffffffffffffffffffffff021916908373ffffffffffffffffffffffffffffffffffffffff16021790555060608201518160020160006101000a81548173ffffffffffffffffffffffffffffffffffffffff021916908373ffffffffffffffffffffffffffffffffffffffff1602179055506080820151816003015560a0820151816004015560c0820151816005015560e082015181600601556101008201518160070155610120820151816008015561014082015181600901559050503373ffffffffffffffffffffffffffffffffffffffff167fcb5a1ba33b9e35b08197929aa1d0529338d3c2ca6ced2abd224f078bd059113e876040516110069190612a63565b60405180910390a2505050505050565b61101e6121f1565b73ffffffffffffffffffffffffffffffffffffffff1661103c611baa565b73ffffffffffffffffffffffffffffffffffffffff1614611092576040517f08c379a0000000000000000000000000000000000000000000000000000000008152600401611089906133ce565b60405180910390fd5b603c8161109f91906135f8565b60078190555050565b606060006110b660046121e3565b905060004290506000805b838110156111095760056000828152602001908152602001600020600801548310156110f65781806110f290613652565b9250505b808061110190613652565b9150506110c1565b5060008167ffffffffffffffff811115611126576111256125c1565b5b60405190808252806020026020018201604052801561115f57816020015b61114c6122d3565b8152602001906001900390816111445790505b50905060005b8481101561134d57600560008281526020019081526020016000206008015484101561133a5782806111969061369b565b93505060056000828152602001908152602001600020604051806101600160405290816000820160009054906101000a900460ff161515151581526020016000820160019054906101000a900473ffffffffffffffffffffffffffffffffffffffff1673ffffffffffffffffffffffffffffffffffffffff1673ffffffffffffffffffffffffffffffffffffffff1681526020016001820160009054906101000a900473ffffffffffffffffffffffffffffffffffffffff1673ffffffffffffffffffffffffffffffffffffffff1673ffffffffffffffffffffffffffffffffffffffff1681526020016002820160009054906101000a900473ffffffffffffffffffffffffffffffffffffffff1673ffffffffffffffffffffffffffffffffffffffff1673ffffffffffffffffffffffffffffffffffffffff16815260200160038201548152602001600482015481526020016005820154815260200160068201548152602001600782015481526020016008820154815260200160098201548152505082848151811061132e5761132d6136c5565b5b60200260200101819052505b808061134590613652565b915050611165565b508094505050505090565b6113606121f1565b73ffffffffffffffffffffffffffffffffffffffff1661137e611baa565b73ffffffffffffffffffffffffffffffffffffffff16146113d4576040517f08c379a00000000000000000000000000000000000000000000000000000000081526004016113cb906133ce565b60405180910390fd5b6113de600061220f565b565b6113e86122d3565b816113f360046121e3565b8110611434576040517f08c379a000000000000000000000000000000000000000000000000000000000815260040161142b90612f65565b60405180910390fd5b60056000848152602001908152602001600020604051806101600160405290816000820160009054906101000a900460ff161515151581526020016000820160019054906101000a900473ffffffffffffffffffffffffffffffffffffffff1673ffffffffffffffffffffffffffffffffffffffff1673ffffffffffffffffffffffffffffffffffffffff1681526020016001820160009054906101000a900473ffffffffffffffffffffffffffffffffffffffff1673ffffffffffffffffffffffffffffffffffffffff1673ffffffffffffffffffffffffffffffffffffffff1681526020016002820160009054906101000a900473ffffffffffffffffffffffffffffffffffffffff1673ffffffffffffffffffffffffffffffffffffffff1673ffffffffffffffffffffffffffffffffffffffff168152602001600382015481526020016004820154815260200160058201548152602001600682015481526020016007820154815260200160088201548152602001600982015481525050915050919050565b6115c66121f1565b73ffffffffffffffffffffffffffffffffffffffff166115e4611baa565b73ffffffffffffffffffffffffffffffffffffffff161461163a576040517f08c379a0000000000000000000000000000000000000000000000000000000008152600401611631906133ce565b60405180910390fd5b8261164560046121e3565b8110611686576040517f08c379a000000000000000000000000000000000000000000000000000000000815260040161167d90612f65565b60405180910390fd5b6000600560008681526020019081526020016000209050428160080154116116e3576040517f08c379a00000000000000000000000000000000000000000000000000000000081526004016116da90613740565b60405180910390fd5b838160050181905550828160010160006101000a81548173ffffffffffffffffffffffffffffffffffffffff021916908373ffffffffffffffffffffffffffffffffffffffff1602179055503373ffffffffffffffffffffffffffffffffffffffff167f586812c5bfc1b1b4b998627b30715b4dc1195156795de3dd41a7163fadda803986868660405161177993929190613760565b60405180910390a25050505050565b8061179360046121e3565b81106117d4576040517f08c379a00000000000000000000000000000000000000000000000000000000081526004016117cb90612f65565b60405180910390fd5b60006005600084815260200190815260200160002090508060020160009054906101000a900473ffffffffffffffffffffffffffffffffffffffff1673ffffffffffffffffffffffffffffffffffffffff163373ffffffffffffffffffffffffffffffffffffffff161461187d576040517f08c379a000000000000000000000000000000000000000000000000000000000815260040161187490613809565b60405180910390fd5b600042905081600901548110156118c9576040517f08c379a00000000000000000000000000000000000000000000000000000000081526004016118c090613875565b60405180910390fd5b600015158260000160009054906101000a900460ff16151514611921576040517f08c379a0000000000000000000000000000000000000000000000000000000008152600401611918906138e1565b60405180910390fd5b60018260000160006101000a81548160ff0219169083151502179055508160020160009054906101000a900473ffffffffffffffffffffffffffffffffffffffff1673ffffffffffffffffffffffffffffffffffffffff16611981611baa565b73ffffffffffffffffffffffffffffffffffffffff1614611a6c5760008260010160009054906101000a900473ffffffffffffffffffffffffffffffffffffffff1690508073ffffffffffffffffffffffffffffffffffffffff1663a9059cbb600160009054906101000a900473ffffffffffffffffffffffffffffffffffffffff1685600701546040518363ffffffff1660e01b8152600401611a2692919061305d565b6020604051808303816000875af1158015611a45573d6000803e3d6000fd5b505050506040513d601f19601f82011682018060405250810190611a69919061309b565b50505b60008260000160019054906101000a900473ffffffffffffffffffffffffffffffffffffffff1690508073ffffffffffffffffffffffffffffffffffffffff1663f242432a308560020160009054906101000a900473ffffffffffffffffffffffffffffffffffffffff16866004015460016040518563ffffffff1660e01b8152600401611afd94939291906135a0565b600060405180830381600087803b158015611b1757600080fd5b505af1158015611b2b573d6000803e3d6000fd5b505050503373ffffffffffffffffffffffffffffffffffffffff167f6d19ff886809a18034b4a6eaa1a47897927295fbcb65b1951c8334d80e18413286604051611b759190612523565b60405180910390a25050505050565b600360009054906101000a900473ffffffffffffffffffffffffffffffffffffffff1681565b60008060009054906101000a900473ffffffffffffffffffffffffffffffffffffffff16905090565b611bdb6121f1565b73ffffffffffffffffffffffffffffffffffffffff16611bf9611baa565b73ffffffffffffffffffffffffffffffffffffffff1614611c4f576040517f08c379a0000000000000000000000000000000000000000000000000000000008152600401611c46906133ce565b60405180910390fd5b82611c5a60046121e3565b8110611c9b576040517f08c379a0000000000000000000000000000000000000000000000000000000008152600401611c9290612f65565b60405180910390fd5b600060056000868152602001908152602001600020905042816008015411611cf8576040517f08c379a0000000000000000000000000000000000000000000000000000000008152600401611cef90613740565b60405180910390fd5b8381600801819055508281600901819055503373ffffffffffffffffffffffffffffffffffffffff167f08fcbc33b2eeb84e87aa37bff5b03243b2dbbf1a780e6019431ef81d821bcc51868686604051611d549392919061334b565b60405180910390a25050505050565b60606000611d7160046121e3565b905060004290506000805b83811015611de65782600560008381526020019081526020016000206008015411158015611dbf5750600560008281526020019081526020016000206009015483105b15611dd3578180611dcf90613652565b9250505b8080611dde90613652565b915050611d7c565b5060008167ffffffffffffffff811115611e0357611e026125c1565b5b604051908082528060200260200182016040528015611e3c57816020015b611e296122d3565b815260200190600190039081611e215790505b50905060005b8481101561204c5783600560008381526020019081526020016000206008015411158015611e855750600560008281526020019081526020016000206009015484105b15612039578280611e959061369b565b93505060056000828152602001908152602001600020604051806101600160405290816000820160009054906101000a900460ff161515151581526020016000820160019054906101000a900473ffffffffffffffffffffffffffffffffffffffff1673ffffffffffffffffffffffffffffffffffffffff1673ffffffffffffffffffffffffffffffffffffffff1681526020016001820160009054906101000a900473ffffffffffffffffffffffffffffffffffffffff1673ffffffffffffffffffffffffffffffffffffffff1673ffffffffffffffffffffffffffffffffffffffff1681526020016002820160009054906101000a900473ffffffffffffffffffffffffffffffffffffffff1673ffffffffffffffffffffffffffffffffffffffff1673ffffffffffffffffffffffffffffffffffffffff16815260200160038201548152602001600482015481526020016005820154815260200160068201548152602001600782015481526020016008820154815260200160098201548152505082848151811061202d5761202c6136c5565b5b60200260200101819052505b808061204490613652565b915050611e42565b508094505050505090565b600063bc197c8160e01b905095945050505050565b600063f23a6e6160e01b905095945050505050565b6120896121f1565b73ffffffffffffffffffffffffffffffffffffffff166120a7611baa565b73ffffffffffffffffffffffffffffffffffffffff16146120fd576040517f08c379a00000000000000000000000000000000000000000000000000000000081526004016120f4906133ce565b60405180910390fd5b600073ffffffffffffffffffffffffffffffffffffffff168173ffffffffffffffffffffffffffffffffffffffff16141561216d576040517f08c379a000000000000000000000000000000000000000000000000000000000815260040161216490613973565b60405180910390fd5b6121768161220f565b50565b60007f01ffc9a7000000000000000000000000000000000000000000000000000000007bffffffffffffffffffffffffffffffffffffffffffffffffffffffff1916827bffffffffffffffffffffffffffffffffffffffffffffffffffffffff1916149050919050565b600081600001549050919050565b600033905090565b6001816000016000828254019250508190555050565b60008060009054906101000a900473ffffffffffffffffffffffffffffffffffffffff169050816000806101000a81548173ffffffffffffffffffffffffffffffffffffffff021916908373ffffffffffffffffffffffffffffffffffffffff1602179055508173ffffffffffffffffffffffffffffffffffffffff168173ffffffffffffffffffffffffffffffffffffffff167f8be0079c531659141344cd1fd0a4f28419497f9722a3daafe3b4186f6b6457e060405160405180910390a35050565b604051806101600160405280600015158152602001600073ffffffffffffffffffffffffffffffffffffffff168152602001600073ffffffffffffffffffffffffffffffffffffffff168152602001600073ffffffffffffffffffffffffffffffffffffffff168152602001600081526020016000815260200160008152602001600081526020016000815260200160008152602001600081525090565b6000604051905090565b600080fd5b600080fd5b60007fffffffff0000000000000000000000000000000000000000000000000000000082169050919050565b6123ba81612385565b81146123c557600080fd5b50565b6000813590506123d7816123b1565b92915050565b6000602082840312156123f3576123f261237b565b5b6000612401848285016123c8565b91505092915050565b60008115159050919050565b61241f8161240a565b82525050565b600060208201905061243a6000830184612416565b92915050565b6000819050919050565b61245381612440565b811461245e57600080fd5b50565b6000813590506124708161244a565b92915050565b600073ffffffffffffffffffffffffffffffffffffffff82169050919050565b60006124a182612476565b9050919050565b6124b181612496565b81146124bc57600080fd5b50565b6000813590506124ce816124a8565b92915050565b600080604083850312156124eb576124ea61237b565b5b60006124f985828601612461565b925050602061250a858286016124bf565b9150509250929050565b61251d81612440565b82525050565b60006020820190506125386000830184612514565b92915050565b6000602082840312156125545761255361237b565b5b600061256284828501612461565b91505092915050565b600080604083850312156125825761258161237b565b5b600061259085828601612461565b92505060206125a185828601612461565b9150509250929050565b600080fd5b6000601f19601f8301169050919050565b7f4e487b7100000000000000000000000000000000000000000000000000000000600052604160045260246000fd5b6125f9826125b0565b810181811067ffffffffffffffff82111715612618576126176125c1565b5b80604052505050565b600061262b612371565b905061263782826125f0565b919050565b6126458161240a565b811461265057600080fd5b50565b6000813590506126628161263c565b92915050565b6000610160828403121561267f5761267e6125ab565b5b61268a610160612621565b9050600061269a84828501612653565b60008301525060206126ae848285016124bf565b60208301525060406126c2848285016124bf565b60408301525060606126d6848285016124bf565b60608301525060806126ea84828501612461565b60808301525060a06126fe84828501612461565b60a08301525060c061271284828501612461565b60c08301525060e061272684828501612461565b60e08301525061010061273b84828501612461565b6101008301525061012061275184828501612461565b6101208301525061014061276784828501612461565b6101408301525092915050565b6000610160828403121561278b5761278a61237b565b5b600061279984828501612668565b91505092915050565b600081519050919050565b600082825260208201905092915050565b6000819050602082019050919050565b6127d78161240a565b82525050565b6127e681612496565b82525050565b6127f581612440565b82525050565b6101608201600082015161281260008501826127ce565b50602082015161282560208501826127dd565b50604082015161283860408501826127dd565b50606082015161284b60608501826127dd565b50608082015161285e60808501826127ec565b5060a082015161287160a08501826127ec565b5060c082015161288460c08501826127ec565b5060e082015161289760e08501826127ec565b506101008201516128ac6101008501826127ec565b506101208201516128c16101208501826127ec565b506101408201516128d66101408501826127ec565b50505050565b60006128e883836127fb565b6101608301905092915050565b6000602082019050919050565b600061290d826127a2565b61291781856127ad565b9350612922836127be565b8060005b8381101561295357815161293a88826128dc565b9750612945836128f5565b925050600181019050612926565b5085935050505092915050565b6000602082019050818103600083015261297a8184612902565b905092915050565b6101608201600082015161299960008501826127ce565b5060208201516129ac60208501826127dd565b5060408201516129bf60408501826127dd565b5060608201516129d260608501826127dd565b5060808201516129e560808501826127ec565b5060a08201516129f860a08501826127ec565b5060c0820151612a0b60c08501826127ec565b5060e0820151612a1e60e08501826127ec565b50610100820151612a336101008501826127ec565b50610120820151612a486101208501826127ec565b50610140820151612a5d6101408501826127ec565b50505050565b600061016082019050612a796000830184612982565b92915050565b600080600060608486031215612a9857612a9761237b565b5b6000612aa686828701612461565b9350506020612ab786828701612461565b9250506040612ac8868287016124bf565b9150509250925092565b6000819050919050565b6000612af7612af2612aed84612476565b612ad2565b612476565b9050919050565b6000612b0982612adc565b9050919050565b6000612b1b82612afe565b9050919050565b612b2b81612b10565b82525050565b6000602082019050612b466000830184612b22565b92915050565b612b5581612496565b82525050565b6000602082019050612b706000830184612b4c565b92915050565b600080600060608486031215612b8f57612b8e61237b565b5b6000612b9d86828701612461565b9350506020612bae86828701612461565b9250506040612bbf86828701612461565b9150509250925092565b600080fd5b600067ffffffffffffffff821115612be957612be86125c1565b5b602082029050602081019050919050565b600080fd5b6000612c12612c0d84612bce565b612621565b90508083825260208201905060208402830185811115612c3557612c34612bfa565b5b835b81811015612c5e5780612c4a8882612461565b845260208401935050602081019050612c37565b5050509392505050565b600082601f830112612c7d57612c7c612bc9565b5b8135612c8d848260208601612bff565b91505092915050565b600080fd5b600067ffffffffffffffff821115612cb657612cb56125c1565b5b612cbf826125b0565b9050602081019050919050565b82818337600083830152505050565b6000612cee612ce984612c9b565b612621565b905082815260208101848484011115612d0a57612d09612c96565b5b612d15848285612ccc565b509392505050565b600082601f830112612d3257612d31612bc9565b5b8135612d42848260208601612cdb565b91505092915050565b600080600080600060a08688031215612d6757612d6661237b565b5b6000612d75888289016124bf565b9550506020612d86888289016124bf565b945050604086013567ffffffffffffffff811115612da757612da6612380565b5b612db388828901612c68565b935050606086013567ffffffffffffffff811115612dd457612dd3612380565b5b612de088828901612c68565b925050608086013567ffffffffffffffff811115612e0157612e00612380565b5b612e0d88828901612d1d565b9150509295509295909350565b612e2381612385565b82525050565b6000602082019050612e3e6000830184612e1a565b92915050565b600080600080600060a08688031215612e6057612e5f61237b565b5b6000612e6e888289016124bf565b9550506020612e7f888289016124bf565b9450506040612e9088828901612461565b9350506060612ea188828901612461565b925050608086013567ffffffffffffffff811115612ec257612ec1612380565b5b612ece88828901612d1d565b9150509295509295909350565b600060208284031215612ef157612ef061237b565b5b6000612eff848285016124bf565b91505092915050565b600082825260208201905092915050565b7f496e76616c6964206974656d4964000000000000000000000000000000000000600082015250565b6000612f4f600e83612f08565b9150612f5a82612f19565b602082019050919050565b60006020820190508181036000830152612f7e81612f42565b9050919050565b7f6e6f206d6f6e657920746f207769746864726177000000000000000000000000600082015250565b6000612fbb601483612f08565b9150612fc682612f85565b602082019050919050565b60006020820190508181036000830152612fea81612fae565b9050919050565b7f48696768657374206269646465722063616e206e6f7420776974686472617700600082015250565b6000613027601f83612f08565b915061303282612ff1565b602082019050919050565b600060208201905081810360008301526130568161301a565b9050919050565b60006040820190506130726000830185612b4c565b61307f6020830184612514565b9392505050565b6000815190506130958161263c565b92915050565b6000602082840312156130b1576130b061237b565b5b60006130bf84828501613086565b91505092915050565b60006040820190506130dd6000830185612514565b6130ea6020830184612514565b9392505050565b7f41756374696f6e206973206e6f7420617661696c61626c650000000000000000600082015250565b6000613127601883612f08565b9150613132826130f1565b602082019050919050565b600060208201905081810360008301526131568161311a565b9050919050565b7f596f752061726520746865206869676865737420626964646572000000000000600082015250565b6000613193601a83612f08565b915061319e8261315d565b602082019050919050565b600060208201905081810360008301526131c281613186565b9050919050565b7f4e487b7100000000000000000000000000000000000000000000000000000000600052601160045260246000fd5b600061320382612440565b915061320e83612440565b9250827fffffffffffffffffffffffffffffffffffffffffffffffffffffffffffffffff03821115613243576132426131c9565b5b828201905092915050565b7f5072696365206d7573742062652067726561746572207468616e20686967686560008201527f73745072696365202b207469636b53697a650000000000000000000000000000602082015250565b60006132aa603283612f08565b91506132b58261324e565b604082019050919050565b600060208201905081810360008301526132d98161329d565b9050919050565b60006132eb82612440565b91506132f683612440565b925082821015613309576133086131c9565b5b828203905092915050565b60006060820190506133296000830186612b4c565b6133366020830185612b4c565b6133436040830184612514565b949350505050565b60006060820190506133606000830186612514565b61336d6020830185612514565b61337a6040830184612514565b949350505050565b7f4f776e61626c653a2063616c6c6572206973206e6f7420746865206f776e6572600082015250565b60006133b8602083612f08565b91506133c382613382565b602082019050919050565b600060208201905081810360008301526133e7816133ab565b9050919050565b6000815190506133fd8161244a565b92915050565b6000602082840312156134195761341861237b565b5b6000613427848285016133ee565b91505092915050565b7f496e76616c696420746f6b656e49640000000000000000000000000000000000600082015250565b6000613466600f83612f08565b915061347182613430565b602082019050919050565b6000602082019050818103600083015261349581613459565b9050919050565b7f5072696365206d7573742062652067726561746572207468616e203000000000600082015250565b60006134d2601c83612f08565b91506134dd8261349c565b602082019050919050565b60006020820190508181036000830152613501816134c5565b9050919050565b6000819050919050565b600061352d61352861352384613508565b612ad2565b612440565b9050919050565b61353d81613512565b82525050565b600082825260208201905092915050565b7f3078300000000000000000000000000000000000000000000000000000000000600082015250565b600061358a600383613543565b915061359582613554565b602082019050919050565b600060a0820190506135b56000830187612b4c565b6135c26020830186612b4c565b6135cf6040830185612514565b6135dc6060830184613534565b81810360808301526135ed8161357d565b905095945050505050565b600061360382612440565b915061360e83612440565b9250817fffffffffffffffffffffffffffffffffffffffffffffffffffffffffffffffff0483118215151615613647576136466131c9565b5b828202905092915050565b600061365d82612440565b91507fffffffffffffffffffffffffffffffffffffffffffffffffffffffffffffffff8214156136905761368f6131c9565b5b600182019050919050565b60006136a682612440565b915060008214156136ba576136b96131c9565b5b600182039050919050565b7f4e487b7100000000000000000000000000000000000000000000000000000000600052603260045260246000fd5b7f4f6e6c7920616c6c6f7720666f72207570636f6d696e672061756374696f6e00600082015250565b600061372a601f83612f08565b9150613735826136f4565b602082019050919050565b600060208201905081810360008301526137598161371d565b9050919050565b60006060820190506137756000830186612514565b6137826020830185612514565b61378f6040830184612b4c565b949350505050565b7f63616c6c6572206d75737420626520746865206869676865737420626964646560008201527f7200000000000000000000000000000000000000000000000000000000000000602082015250565b60006137f3602183612f08565b91506137fe82613797565b604082019050919050565b60006020820190508181036000830152613822816137e6565b9050919050565b7f6e6f7420656e6465642079657400000000000000000000000000000000000000600082015250565b600061385f600d83612f08565b915061386a82613829565b602082019050919050565b6000602082019050818103600083015261388e81613852565b9050919050565b7f436c61696d6564206974656d0000000000000000000000000000000000000000600082015250565b60006138cb600c83612f08565b91506138d682613895565b602082019050919050565b600060208201905081810360008301526138fa816138be565b9050919050565b7f4f776e61626c653a206e6577206f776e657220697320746865207a65726f206160008201527f6464726573730000000000000000000000000000000000000000000000000000602082015250565b600061395d602683612f08565b915061396882613901565b604082019050919050565b6000602082019050818103600083015261398c81613950565b905091905056fea264697066735822122005c05167c3acc4840712d3d672f8ec35ad5c0cf4f9fbf2b4ca51b6af92408e8364736f6c634300080a0033",
  "immutableReferences": {},
  "source": "// SPDX-License-Identifier: MIT\npragma solidity ^0.8.0;\npragma abicoder v2;\n\nimport \"@openzeppelin/contracts/token/ERC20/IERC20.sol\";\nimport \"@openzeppelin/contracts/token/ERC1155/utils/ERC1155Holder.sol\";\nimport \"@openzeppelin/contracts/utils/Counters.sol\";\nimport \"@openzeppelin/contracts/access/Ownable.sol\";\nimport \"./NextItem.sol\";\n\ncontract NextAuction is Ownable, ERC1155Holder {\n    using Counters for Counters.Counter;\n\n    address nextverseWallet;\n    address itemContract;\n    NextItem public NFTs;\n\n    struct Auction {\n        bool isClaimed;\n        address nftContract;\n        address erc20Contract;\n        address highestBidder;\n        uint256 id;\n        uint256 tokenId;\n        uint256 initialPrice;\n        uint256 tickSize;\n        uint256 highestPrice;\n        uint256 startTime;\n        uint256 endTime;\n    }\n\n    Counters.Counter private _auctionIds;\n    mapping(uint256 => Auction) private auctions;\n    mapping(uint256 => mapping(address => uint256)) private biddingPrices;\n\n    uint256 extendTime = 15 * (1 minutes);\n\n    event AuctionAdded(address indexed sender, Auction auction);\n\n    event InitialPriceUpdated(\n        address indexed sender,\n        uint256 id,\n        uint256 initialPrice,\n        address erc20Contract\n    );\n\n    event HighestPriceUpdated(\n        address indexed sender,\n        uint256 id,\n        uint256 highestPrice,\n        uint256 endTime\n    );\n\n    event AuctionTimeUpdated(\n        address indexed sender,\n        uint256 id,\n        uint256 startTime,\n        uint256 endTime\n    );\n\n    event Withdraw(address indexed sender, uint256 id, uint256 amount);\n\n    event EndAuction(address indexed sender, uint256 id);\n\n    event ItemClaimed(address indexed sender, uint256 id);\n\n    constructor(address ownerWallet) {\n        nextverseWallet = ownerWallet;\n    }\n\n    modifier isValidAuctionId(uint256 id) {\n        require(id < _auctionIds.current(), \"Invalid itemId\");\n        _;\n    }\n\n    modifier isValidTokenId(uint256 tokenId, address nftContract) {\n        INFTFactory nftFactory = INFTFactory(nftContract);\n        require(tokenId < nftFactory.getUniqueTokenNum(), \"Invalid tokenId\");\n        _;\n    }\n\n    function setExtendTime(uint256 duration) public onlyOwner {\n        extendTime = duration * (1 minutes);\n    }\n\n    function addAuction(Auction memory auction)\n        public\n        onlyOwner\n        isValidTokenId(auction.tokenId, auction.nftContract)\n    {\n        require(auction.initialPrice > 0, \"Price must be greater than 0\");\n        IERC1155 nftFactory = IERC1155(auction.nftContract);\n        nftFactory.safeTransferFrom(owner(), address(this), auction.tokenId, 1, \"0x0\");\n\n        uint256 id = _auctionIds.current();\n        _auctionIds.increment();\n\n        auction.id = id;\n        auction.isClaimed = false;\n        auction.highestPrice = auction.initialPrice;\n        auction.highestBidder = owner();\n\n        auctions[id] = auction;\n\n        emit AuctionAdded(msg.sender, auction);\n    }\n\n    function updateAuctionTime(uint256 auctionId, uint256 startTime, uint256 endTime)\n        public \n        onlyOwner \n        isValidAuctionId(auctionId)\n    {\n        Auction storage auction = auctions[auctionId];\n        require(auction.startTime > block.timestamp, \"Only allow for upcoming auction\");\n        auction.startTime = startTime;\n        auction.endTime = endTime;\n\n        emit AuctionTimeUpdated(msg.sender, auctionId, startTime, endTime);\n    }\n\n    function updateInitialPrice(uint256 auctionId, uint256 price, address erc20Contract)\n        public \n        onlyOwner \n        isValidAuctionId(auctionId)\n    {\n        Auction storage auction = auctions[auctionId];\n        require(auction.startTime > block.timestamp, \"Only allow for upcoming auction\");\n\n        auction.initialPrice = price;\n        auction.erc20Contract = erc20Contract;\n\n        emit InitialPriceUpdated(msg.sender, auctionId, price, erc20Contract);\n    }\n\n    function bid(uint256 auctionId, uint256 price)\n        public\n        isValidAuctionId(auctionId)\n    {\n        Auction storage auction = auctions[auctionId];\n        uint256 currentTime = block.timestamp;\n        require(((auction.startTime <= currentTime) && (currentTime < auction.endTime)), \"Auction is not available\");\n        require(auction.highestBidder != msg.sender, \"You are the highest bidder\");\n\n        require(price >= (auction.highestPrice + auction.tickSize), \"Price must be greater than highestPrice + tickSize\");\n\n        IERC20 token = IERC20(auction.erc20Contract);\n\n        uint256 amount = price - biddingPrices[auctionId][msg.sender];\n        biddingPrices[auctionId][msg.sender] = price;\n        token.transferFrom(msg.sender, address(this), amount);\n\n        auction.highestPrice = price;\n        auction.highestBidder = msg.sender;\n\n        uint256 newEndTime = currentTime + extendTime;\n        if (newEndTime > auction.endTime) {\n            auction.endTime = newEndTime;\n        }\n\n        emit HighestPriceUpdated(msg.sender, auctionId, price, auction.endTime);\n    }\n\n    function withdraw(uint256 auctionId)\n        public\n        isValidAuctionId(auctionId)\n    {\n        require(biddingPrices[auctionId][msg.sender] > 0, \"no money to withdraw\");\n        require(auctions[auctionId].highestBidder != msg.sender, \"Highest bidder can not withdraw\");\n\n        IERC20 token = IERC20(auctions[auctionId].erc20Contract);\n        uint256 amount = biddingPrices[auctionId][msg.sender];\n        biddingPrices[auctionId][msg.sender] = 0;\n        token.transfer(msg.sender, amount);\n\n        emit Withdraw(msg.sender, auctionId, amount);\n    }\n\n    function claimItem(uint256 auctionId)\n        public\n        isValidAuctionId(auctionId)\n    {\n        Auction storage auction = auctions[auctionId];\n        require(msg.sender == auction.highestBidder, \"caller must be the highest bidder\");\n\n        uint256 currentTime = block.timestamp;\n        require(currentTime >= auction.endTime, \"not ended yet\");\n        require(auction.isClaimed == false, \"Claimed item\");\n        auction.isClaimed = true;\n\n        if (owner() != auction.highestBidder) {\n            IERC20 token = IERC20(auction.erc20Contract);\n            token.transfer(nextverseWallet, auction.highestPrice);\n        }\n        \n        IERC1155 nft = IERC1155(auction.nftContract);\n        nft.safeTransferFrom(\n            address(this), \n            auction.highestBidder, \n            auction.tokenId, \n            1, \n            \"0x0\"\n        );\n\n        emit ItemClaimed(msg.sender, auctionId);\n    }\n\n    function getAuction(uint256 auctionId)\n        public\n        view\n        isValidAuctionId(auctionId)\n        returns (Auction memory)\n    {\n        return auctions[auctionId];\n    }\n\n    function getOnBiddingItems()\n        public\n        view\n        returns (Auction[] memory)\n    {\n        uint256 maxIndex = _auctionIds.current();\n        uint256 currentTime = block.timestamp;\n\n        uint256 cnt = 0;\n        for (uint256 i = 0; i < maxIndex; i++) {\n            if ((auctions[i].startTime <= currentTime) && (currentTime  < auctions[i].endTime)) {\n                cnt++;\n            }\n        }\n\n        Auction[] memory ret = new Auction[](cnt);\n        for (uint256 i = 0; i < maxIndex; i++) {\n            if ((auctions[i].startTime <= currentTime) && (currentTime  < auctions[i].endTime)) {\n                cnt--;\n                ret[cnt] = auctions[i];\n            }\n        }\n\n        return ret;\n    }\n\n    function getUpcomingAuctions()\n        public\n        view\n        returns (Auction[] memory)\n    {\n        uint256 maxIndex = _auctionIds.current();\n        uint256 currentTime = block.timestamp;\n\n        uint256 cnt = 0;\n        for (uint256 i = 0; i < maxIndex; i++) {\n            if (currentTime < auctions[i].startTime) {\n                cnt++;\n            }\n        }\n\n        Auction[] memory ret = new Auction[](cnt);\n        for (uint256 i = 0; i < maxIndex; i++) {\n            if (currentTime < auctions[i].startTime) {\n                cnt--;\n                ret[cnt] = auctions[i];\n            }\n        }\n\n        return ret;\n    }\n\n    function getBiddingPrice(uint256 auctionId, address bidder)\n        public\n        isValidAuctionId(auctionId)\n        view\n        returns (uint256 amount)\n    {\n        return biddingPrices[auctionId][bidder];\n    }\n\n    function getTotalAuctions()\n        public\n        view\n        returns (uint256)\n    {\n        return _auctionIds.current();\n    }\n}",
  "sourcePath": "/home/hungnd/workspace/nextverse-marketplace/contracts/NextAuction.sol",
  "compiler": {
    "name": "solc",
    "version": "0.8.10+commit.fc410830.Emscripten.clang"
  },
  "schemaVersion": "3.4.3",
  "updatedAt": "2022-05-06T03:32:59.368Z",
  "networkType": "ethereum",
  "devdoc": {
    "kind": "dev",
    "methods": {
      "owner()": {
        "details": "Returns the address of the current owner."
      },
      "renounceOwnership()": {
        "details": "Leaves the contract without owner. It will not be possible to call `onlyOwner` functions anymore. Can only be called by the current owner. NOTE: Renouncing ownership will leave the contract without an owner, thereby removing any functionality that is only available to the owner."
      },
      "supportsInterface(bytes4)": {
        "details": "See {IERC165-supportsInterface}."
      },
      "transferOwnership(address)": {
        "details": "Transfers ownership of the contract to a new account (`newOwner`). Can only be called by the current owner."
      }
    },
    "version": 1
  },
  "userdoc": {
    "kind": "user",
    "methods": {},
    "version": 1
  }
}