{
  "contractName": "NextShop",
  "abi": [
    {
      "inputs": [
        {
          "internalType": "address",
          "name": "ownerWallet",
          "type": "address"
        }
      ],
      "stateMutability": "nonpayable",
      "type": "constructor"
    },
    {
      "anonymous": false,
      "inputs": [
        {
          "indexed": true,
          "internalType": "address",
          "name": "sender",
          "type": "address"
        },
        {
          "components": [
            {
              "internalType": "address",
              "name": "nftContract",
              "type": "address"
            },
            {
              "internalType": "address",
              "name": "erc20Contract",
              "type": "address"
            },
            {
              "internalType": "uint256",
              "name": "id",
              "type": "uint256"
            },
            {
              "internalType": "uint256",
              "name": "tokenId",
              "type": "uint256"
            },
            {
              "internalType": "uint256",
              "name": "maximumPurchaseQuantity",
              "type": "uint256"
            },
            {
              "internalType": "uint256",
              "name": "quantity",
              "type": "uint256"
            },
            {
              "internalType": "uint256",
              "name": "itemLeft",
              "type": "uint256"
            },
            {
              "internalType": "uint256",
              "name": "price",
              "type": "uint256"
            },
            {
              "internalType": "uint256",
              "name": "startTime",
              "type": "uint256"
            },
            {
              "internalType": "uint256",
              "name": "endTime",
              "type": "uint256"
            }
          ],
          "indexed": false,
          "internalType": "struct NextShop.SaleItem",
          "name": "item",
          "type": "tuple"
        }
      ],
      "name": "ItemAdded",
      "type": "event"
    },
    {
      "anonymous": false,
      "inputs": [
        {
          "indexed": true,
          "internalType": "address",
          "name": "sender",
          "type": "address"
        },
        {
          "indexed": false,
          "internalType": "uint256",
          "name": "id",
          "type": "uint256"
        },
        {
          "indexed": false,
          "internalType": "uint256",
          "name": "itemLeft",
          "type": "uint256"
        }
      ],
      "name": "ItemClosed",
      "type": "event"
    },
    {
      "anonymous": false,
      "inputs": [
        {
          "indexed": true,
          "internalType": "address",
          "name": "sender",
          "type": "address"
        },
        {
          "indexed": false,
          "internalType": "uint256",
          "name": "id",
          "type": "uint256"
        },
        {
          "indexed": false,
          "internalType": "uint256",
          "name": "newPrice",
          "type": "uint256"
        },
        {
          "indexed": false,
          "internalType": "address",
          "name": "erc20Contract",
          "type": "address"
        }
      ],
      "name": "ItemPriceUpdated",
      "type": "event"
    },
    {
      "anonymous": false,
      "inputs": [
        {
          "indexed": true,
          "internalType": "address",
          "name": "sender",
          "type": "address"
        },
        {
          "indexed": false,
          "internalType": "uint256",
          "name": "id",
          "type": "uint256"
        },
        {
          "indexed": false,
          "internalType": "uint256",
          "name": "tokenId",
          "type": "uint256"
        },
        {
          "indexed": false,
          "internalType": "uint256",
          "name": "quantity",
          "type": "uint256"
        },
        {
          "indexed": false,
          "internalType": "uint256",
          "name": "price",
          "type": "uint256"
        },
        {
          "indexed": false,
          "internalType": "address",
          "name": "nftContract",
          "type": "address"
        },
        {
          "indexed": false,
          "internalType": "address",
          "name": "erc20Contract",
          "type": "address"
        }
      ],
      "name": "ItemPurchased",
      "type": "event"
    },
    {
      "anonymous": false,
      "inputs": [
        {
          "indexed": true,
          "internalType": "address",
          "name": "previousOwner",
          "type": "address"
        },
        {
          "indexed": true,
          "internalType": "address",
          "name": "newOwner",
          "type": "address"
        }
      ],
      "name": "OwnershipTransferred",
      "type": "event"
    },
    {
      "anonymous": false,
      "inputs": [
        {
          "indexed": true,
          "internalType": "address",
          "name": "sender",
          "type": "address"
        },
        {
          "indexed": false,
          "internalType": "uint256",
          "name": "id",
          "type": "uint256"
        },
        {
          "indexed": false,
          "internalType": "uint256",
          "name": "startTime",
          "type": "uint256"
        },
        {
          "indexed": false,
          "internalType": "uint256",
          "name": "endTime",
          "type": "uint256"
        }
      ],
      "name": "SellingTimeUpdated",
      "type": "event"
    },
    {
      "inputs": [
        {
          "internalType": "address",
          "name": "",
          "type": "address"
        },
        {
          "internalType": "address",
          "name": "",
          "type": "address"
        },
        {
          "internalType": "uint256[]",
          "name": "",
          "type": "uint256[]"
        },
        {
          "internalType": "uint256[]",
          "name": "",
          "type": "uint256[]"
        },
        {
          "internalType": "bytes",
          "name": "",
          "type": "bytes"
        }
      ],
      "name": "onERC1155BatchReceived",
      "outputs": [
        {
          "internalType": "bytes4",
          "name": "",
          "type": "bytes4"
        }
      ],
      "stateMutability": "nonpayable",
      "type": "function"
    },
    {
      "inputs": [
        {
          "internalType": "address",
          "name": "",
          "type": "address"
        },
        {
          "internalType": "address",
          "name": "",
          "type": "address"
        },
        {
          "internalType": "uint256",
          "name": "",
          "type": "uint256"
        },
        {
          "internalType": "uint256",
          "name": "",
          "type": "uint256"
        },
        {
          "internalType": "bytes",
          "name": "",
          "type": "bytes"
        }
      ],
      "name": "onERC1155Received",
      "outputs": [
        {
          "internalType": "bytes4",
          "name": "",
          "type": "bytes4"
        }
      ],
      "stateMutability": "nonpayable",
      "type": "function"
    },
    {
      "inputs": [],
      "name": "owner",
      "outputs": [
        {
          "internalType": "address",
          "name": "",
          "type": "address"
        }
      ],
      "stateMutability": "view",
      "type": "function",
      "constant": true
    },
    {
      "inputs": [],
      "name": "renounceOwnership",
      "outputs": [],
      "stateMutability": "nonpayable",
      "type": "function"
    },
    {
      "inputs": [
        {
          "internalType": "bytes4",
          "name": "interfaceId",
          "type": "bytes4"
        }
      ],
      "name": "supportsInterface",
      "outputs": [
        {
          "internalType": "bool",
          "name": "",
          "type": "bool"
        }
      ],
      "stateMutability": "view",
      "type": "function",
      "constant": true
    },
    {
      "inputs": [
        {
          "internalType": "address",
          "name": "newOwner",
          "type": "address"
        }
      ],
      "name": "transferOwnership",
      "outputs": [],
      "stateMutability": "nonpayable",
      "type": "function"
    },
    {
      "inputs": [
        {
          "components": [
            {
              "internalType": "address",
              "name": "nftContract",
              "type": "address"
            },
            {
              "internalType": "address",
              "name": "erc20Contract",
              "type": "address"
            },
            {
              "internalType": "uint256",
              "name": "id",
              "type": "uint256"
            },
            {
              "internalType": "uint256",
              "name": "tokenId",
              "type": "uint256"
            },
            {
              "internalType": "uint256",
              "name": "maximumPurchaseQuantity",
              "type": "uint256"
            },
            {
              "internalType": "uint256",
              "name": "quantity",
              "type": "uint256"
            },
            {
              "internalType": "uint256",
              "name": "itemLeft",
              "type": "uint256"
            },
            {
              "internalType": "uint256",
              "name": "price",
              "type": "uint256"
            },
            {
              "internalType": "uint256",
              "name": "startTime",
              "type": "uint256"
            },
            {
              "internalType": "uint256",
              "name": "endTime",
              "type": "uint256"
            }
          ],
          "internalType": "struct NextShop.SaleItem",
          "name": "item",
          "type": "tuple"
        }
      ],
      "name": "addItemForSale",
      "outputs": [],
      "stateMutability": "nonpayable",
      "type": "function"
    },
    {
      "inputs": [
        {
          "internalType": "uint256",
          "name": "itemId",
          "type": "uint256"
        },
        {
          "internalType": "uint256",
          "name": "quantity",
          "type": "uint256"
        }
      ],
      "name": "purchaseItem",
      "outputs": [],
      "stateMutability": "nonpayable",
      "type": "function"
    },
    {
      "inputs": [
        {
          "internalType": "uint256",
          "name": "itemId",
          "type": "uint256"
        },
        {
          "internalType": "uint256",
          "name": "price",
          "type": "uint256"
        },
        {
          "internalType": "address",
          "name": "erc20Contract",
          "type": "address"
        }
      ],
      "name": "updatePrice",
      "outputs": [],
      "stateMutability": "nonpayable",
      "type": "function"
    },
    {
      "inputs": [
        {
          "internalType": "uint256",
          "name": "itemId",
          "type": "uint256"
        },
        {
          "internalType": "uint256",
          "name": "startTime",
          "type": "uint256"
        },
        {
          "internalType": "uint256",
          "name": "duration",
          "type": "uint256"
        }
      ],
      "name": "updateSellingTime",
      "outputs": [],
      "stateMutability": "nonpayable",
      "type": "function"
    },
    {
      "inputs": [
        {
          "internalType": "uint256",
          "name": "itemId",
          "type": "uint256"
        }
      ],
      "name": "closeSaleItem",
      "outputs": [],
      "stateMutability": "nonpayable",
      "type": "function"
    },
    {
      "inputs": [
        {
          "internalType": "uint256",
          "name": "itemId",
          "type": "uint256"
        }
      ],
      "name": "getSaleItem",
      "outputs": [
        {
          "components": [
            {
              "internalType": "address",
              "name": "nftContract",
              "type": "address"
            },
            {
              "internalType": "address",
              "name": "erc20Contract",
              "type": "address"
            },
            {
              "internalType": "uint256",
              "name": "id",
              "type": "uint256"
            },
            {
              "internalType": "uint256",
              "name": "tokenId",
              "type": "uint256"
            },
            {
              "internalType": "uint256",
              "name": "maximumPurchaseQuantity",
              "type": "uint256"
            },
            {
              "internalType": "uint256",
              "name": "quantity",
              "type": "uint256"
            },
            {
              "internalType": "uint256",
              "name": "itemLeft",
              "type": "uint256"
            },
            {
              "internalType": "uint256",
              "name": "price",
              "type": "uint256"
            },
            {
              "internalType": "uint256",
              "name": "startTime",
              "type": "uint256"
            },
            {
              "internalType": "uint256",
              "name": "endTime",
              "type": "uint256"
            }
          ],
          "internalType": "struct NextShop.SaleItem",
          "name": "",
          "type": "tuple"
        }
      ],
      "stateMutability": "view",
      "type": "function",
      "constant": true
    },
    {
      "inputs": [],
      "name": "getTotalSaleItems",
      "outputs": [
        {
          "internalType": "uint256",
          "name": "",
          "type": "uint256"
        }
      ],
      "stateMutability": "view",
      "type": "function",
      "constant": true
    },
    {
      "inputs": [],
      "name": "getOnSaleItems",
      "outputs": [
        {
          "components": [
            {
              "internalType": "address",
              "name": "nftContract",
              "type": "address"
            },
            {
              "internalType": "address",
              "name": "erc20Contract",
              "type": "address"
            },
            {
              "internalType": "uint256",
              "name": "id",
              "type": "uint256"
            },
            {
              "internalType": "uint256",
              "name": "tokenId",
              "type": "uint256"
            },
            {
              "internalType": "uint256",
              "name": "maximumPurchaseQuantity",
              "type": "uint256"
            },
            {
              "internalType": "uint256",
              "name": "quantity",
              "type": "uint256"
            },
            {
              "internalType": "uint256",
              "name": "itemLeft",
              "type": "uint256"
            },
            {
              "internalType": "uint256",
              "name": "price",
              "type": "uint256"
            },
            {
              "internalType": "uint256",
              "name": "startTime",
              "type": "uint256"
            },
            {
              "internalType": "uint256",
              "name": "endTime",
              "type": "uint256"
            }
          ],
          "internalType": "struct NextShop.SaleItem[]",
          "name": "",
          "type": "tuple[]"
        }
      ],
      "stateMutability": "view",
      "type": "function",
      "constant": true
    },
    {
      "inputs": [],
      "name": "getUpcomingSaleItems",
      "outputs": [
        {
          "components": [
            {
              "internalType": "address",
              "name": "nftContract",
              "type": "address"
            },
            {
              "internalType": "address",
              "name": "erc20Contract",
              "type": "address"
            },
            {
              "internalType": "uint256",
              "name": "id",
              "type": "uint256"
            },
            {
              "internalType": "uint256",
              "name": "tokenId",
              "type": "uint256"
            },
            {
              "internalType": "uint256",
              "name": "maximumPurchaseQuantity",
              "type": "uint256"
            },
            {
              "internalType": "uint256",
              "name": "quantity",
              "type": "uint256"
            },
            {
              "internalType": "uint256",
              "name": "itemLeft",
              "type": "uint256"
            },
            {
              "internalType": "uint256",
              "name": "price",
              "type": "uint256"
            },
            {
              "internalType": "uint256",
              "name": "startTime",
              "type": "uint256"
            },
            {
              "internalType": "uint256",
              "name": "endTime",
              "type": "uint256"
            }
          ],
          "internalType": "struct NextShop.SaleItem[]",
          "name": "",
          "type": "tuple[]"
        }
      ],
      "stateMutability": "view",
      "type": "function",
      "constant": true
    },
    {
      "inputs": [],
      "name": "getBlockTimestamp",
      "outputs": [
        {
          "internalType": "uint256",
          "name": "currentTime",
          "type": "uint256"
        }
      ],
      "stateMutability": "view",
      "type": "function",
      "constant": true
    }
  ],
  "bytecode": "0x60806040523480156200001157600080fd5b50604051620031d2380380620031d28339818101604052810190620000379190620001d5565b620000576200004b6200009f60201b60201c565b620000a760201b60201c565b80600360006101000a81548173ffffffffffffffffffffffffffffffffffffffff021916908373ffffffffffffffffffffffffffffffffffffffff1602179055505062000207565b600033905090565b60008060009054906101000a900473ffffffffffffffffffffffffffffffffffffffff169050816000806101000a81548173ffffffffffffffffffffffffffffffffffffffff021916908373ffffffffffffffffffffffffffffffffffffffff1602179055508173ffffffffffffffffffffffffffffffffffffffff168173ffffffffffffffffffffffffffffffffffffffff167f8be0079c531659141344cd1fd0a4f28419497f9722a3daafe3b4186f6b6457e060405160405180910390a35050565b600080fd5b600073ffffffffffffffffffffffffffffffffffffffff82169050919050565b60006200019d8262000170565b9050919050565b620001af8162000190565b8114620001bb57600080fd5b50565b600081519050620001cf81620001a4565b92915050565b600060208284031215620001ee57620001ed6200016b565b5b6000620001fe84828501620001be565b91505092915050565b612fbb80620002176000396000f3fe608060405234801561001057600080fd5b50600436106101005760003560e01c8063b4a4183911610097578063dab4eab711610066578063dab4eab714610289578063e0675698146102a5578063f23a6e61146102c1578063f2fde38b146102f157610100565b8063b4a41839146101f1578063bc197c811461020d578063c9e40caf1461023d578063d26bc47c1461026d57610100565b8063715018a6116100d3578063715018a61461018d578063796b89b91461019757806381f16177146101b55780638da5cb5b146101d357610100565b806301ffc9a714610105578063047544af146101355780631c2b387c1461015357806360c1a5c61461016f575b600080fd5b61011f600480360381019061011a9190611c1e565b61030d565b60405161012c9190611c66565b60405180910390f35b61013d610387565b60405161014a9190611e57565b60405180910390f35b61016d60048036038101906101689190612058565b610614565b005b6101776109d5565b6040516101849190612095565b60405180910390f35b6101956109e6565b005b61019f610a6e565b6040516101ac9190612095565b60405180910390f35b6101bd610a76565b6040516101ca9190611e57565b60405180910390f35b6101db610cbf565b6040516101e891906120bf565b60405180910390f35b61020b600480360381019061020691906120da565b610ce8565b005b61022760048036038101906102229190612289565b610ed6565b6040516102349190612367565b60405180910390f35b610257600480360381019061025291906120da565b610eeb565b604051610264919061244e565b60405180910390f35b6102876004803603810190610282919061246a565b611062565b005b6102a3600480360381019061029e91906124bd565b611250565b005b6102bf60048036038101906102ba9190612510565b61146d565b005b6102db60048036038101906102d69190612550565b6118cc565b6040516102e89190612367565b60405180910390f35b61030b600480360381019061030691906125e7565b6118e1565b005b60007f4e2312e0000000000000000000000000000000000000000000000000000000007bffffffffffffffffffffffffffffffffffffffffffffffffffffffff1916827bffffffffffffffffffffffffffffffffffffffffffffffffffffffff19161480610380575061037f826119d9565b5b9050919050565b606060006103956001611a43565b905060004290506000805b8381101561040a57826002600083815260200190815260200160002060080154111580156103e35750600260008281526020019081526020016000206009015483105b156103f75781806103f390612643565b9250505b808061040290612643565b9150506103a0565b5060008167ffffffffffffffff81111561042757610426611e8f565b5b60405190808252806020026020018201604052801561046057816020015b61044d611b33565b8152602001906001900390816104455790505b50905060005b8481101561060957836002600083815260200190815260200160002060080154111580156104a95750600260008281526020019081526020016000206009015484105b156105f65782806104b99061268c565b93505060026000828152602001908152602001600020604051806101400160405290816000820160009054906101000a900473ffffffffffffffffffffffffffffffffffffffff1673ffffffffffffffffffffffffffffffffffffffff1673ffffffffffffffffffffffffffffffffffffffff1681526020016001820160009054906101000a900473ffffffffffffffffffffffffffffffffffffffff1673ffffffffffffffffffffffffffffffffffffffff1673ffffffffffffffffffffffffffffffffffffffff168152602001600282015481526020016003820154815260200160048201548152602001600582015481526020016006820154815260200160078201548152602001600882015481526020016009820154815250508284815181106105ea576105e96126b6565b5b60200260200101819052505b808061060190612643565b915050610466565b508094505050505090565b61061c611a51565b73ffffffffffffffffffffffffffffffffffffffff1661063a610cbf565b73ffffffffffffffffffffffffffffffffffffffff1614610690576040517f08c379a000000000000000000000000000000000000000000000000000000000815260040161068790612742565b60405180910390fd5b8060600151816000015160008190508073ffffffffffffffffffffffffffffffffffffffff1663068d0c276040518163ffffffff1660e01b8152600401602060405180830381865afa1580156106ea573d6000803e3d6000fd5b505050506040513d601f19601f8201168201806040525081019061070e9190612777565b831061074f576040517f08c379a0000000000000000000000000000000000000000000000000000000008152600401610746906127f0565b60405180910390fd5b60008460e0015111610796576040517f08c379a000000000000000000000000000000000000000000000000000000000815260040161078d9061285c565b60405180910390fd5b60008460a00151116107dd576040517f08c379a00000000000000000000000000000000000000000000000000000000081526004016107d4906128c8565b60405180910390fd5b6000846000015190508073ffffffffffffffffffffffffffffffffffffffff1663f242432a61080a610cbf565b3088606001518960a001516040518563ffffffff1660e01b81526004016108349493929190612945565b600060405180830381600087803b15801561084e57600080fd5b505af1158015610862573d6000803e3d6000fd5b5050505060006108726001611a43565b905061087e6001611a59565b80866040018181525050856002600083815260200190815260200160002060008201518160000160006101000a81548173ffffffffffffffffffffffffffffffffffffffff021916908373ffffffffffffffffffffffffffffffffffffffff16021790555060208201518160010160006101000a81548173ffffffffffffffffffffffffffffffffffffffff021916908373ffffffffffffffffffffffffffffffffffffffff16021790555060408201518160020155606082015181600301556080820151816004015560a0820151816005015560c0820151816006015560e08201518160070155610100820151816008015561012082015181600901559050503373ffffffffffffffffffffffffffffffffffffffff167fe485ac662fcc2e4a3716b232763558b5b1139e39e7c07fe7b425311fb88a17a7876040516109c5919061244e565b60405180910390a2505050505050565b60006109e16001611a43565b905090565b6109ee611a51565b73ffffffffffffffffffffffffffffffffffffffff16610a0c610cbf565b73ffffffffffffffffffffffffffffffffffffffff1614610a62576040517f08c379a0000000000000000000000000000000000000000000000000000000008152600401610a5990612742565b60405180910390fd5b610a6c6000611a6f565b565b600042905090565b60606000610a846001611a43565b905060004290506000805b83811015610ad7576002600082815260200190815260200160002060080154831015610ac4578180610ac090612643565b9250505b8080610acf90612643565b915050610a8f565b5060008167ffffffffffffffff811115610af457610af3611e8f565b5b604051908082528060200260200182016040528015610b2d57816020015b610b1a611b33565b815260200190600190039081610b125790505b50905060005b84811015610cb4576002600082815260200190815260200160002060080154841015610ca1578280610b649061268c565b93505060026000828152602001908152602001600020604051806101400160405290816000820160009054906101000a900473ffffffffffffffffffffffffffffffffffffffff1673ffffffffffffffffffffffffffffffffffffffff1673ffffffffffffffffffffffffffffffffffffffff1681526020016001820160009054906101000a900473ffffffffffffffffffffffffffffffffffffffff1673ffffffffffffffffffffffffffffffffffffffff1673ffffffffffffffffffffffffffffffffffffffff16815260200160028201548152602001600382015481526020016004820154815260200160058201548152602001600682015481526020016007820154815260200160088201548152602001600982015481525050828481518110610c9557610c946126b6565b5b60200260200101819052505b8080610cac90612643565b915050610b33565b508094505050505090565b60008060009054906101000a900473ffffffffffffffffffffffffffffffffffffffff16905090565b610cf0611a51565b73ffffffffffffffffffffffffffffffffffffffff16610d0e610cbf565b73ffffffffffffffffffffffffffffffffffffffff1614610d64576040517f08c379a0000000000000000000000000000000000000000000000000000000008152600401610d5b90612742565b60405180910390fd5b80610d6f6001611a43565b8110610db0576040517f08c379a0000000000000000000000000000000000000000000000000000000008152600401610da7906129e9565b60405180910390fd5b600060026000848152602001908152602001600020905060008160060154905060008260000160009054906101000a900473ffffffffffffffffffffffffffffffffffffffff1690508073ffffffffffffffffffffffffffffffffffffffff1663f242432a30610e1e610cbf565b8660030154866040518563ffffffff1660e01b8152600401610e439493929190612945565b600060405180830381600087803b158015610e5d57600080fd5b505af1158015610e71573d6000803e3d6000fd5b50505050600083600601819055503373ffffffffffffffffffffffffffffffffffffffff167f8ecacbcce22c5ec5f66ce0d4c7e4f4132ffc85c4a5886b13fefa8767e04616968684604051610ec7929190612a09565b60405180910390a25050505050565b600063bc197c8160e01b905095945050505050565b610ef3611b33565b81610efe6001611a43565b8110610f3f576040517f08c379a0000000000000000000000000000000000000000000000000000000008152600401610f36906129e9565b60405180910390fd5b60026000848152602001908152602001600020604051806101400160405290816000820160009054906101000a900473ffffffffffffffffffffffffffffffffffffffff1673ffffffffffffffffffffffffffffffffffffffff1673ffffffffffffffffffffffffffffffffffffffff1681526020016001820160009054906101000a900473ffffffffffffffffffffffffffffffffffffffff1673ffffffffffffffffffffffffffffffffffffffff1673ffffffffffffffffffffffffffffffffffffffff16815260200160028201548152602001600382015481526020016004820154815260200160058201548152602001600682015481526020016007820154815260200160088201548152602001600982015481525050915050919050565b61106a611a51565b73ffffffffffffffffffffffffffffffffffffffff16611088610cbf565b73ffffffffffffffffffffffffffffffffffffffff16146110de576040517f08c379a00000000000000000000000000000000000000000000000000000000081526004016110d590612742565b60405180910390fd5b826110e96001611a43565b811061112a576040517f08c379a0000000000000000000000000000000000000000000000000000000008152600401611121906129e9565b60405180910390fd5b600060026000868152602001908152602001600020905042816008015411611187576040517f08c379a000000000000000000000000000000000000000000000000000000000815260040161117e90612aa4565b60405180910390fd5b836002600087815260200190815260200160002060070181905550826002600087815260200190815260200160002060010160006101000a81548173ffffffffffffffffffffffffffffffffffffffff021916908373ffffffffffffffffffffffffffffffffffffffff1602179055503373ffffffffffffffffffffffffffffffffffffffff167f8907d906670f9648da28fee9eee17c4951c51f477c391d5a17a38a569279b99586868660405161124193929190612ac4565b60405180910390a25050505050565b611258611a51565b73ffffffffffffffffffffffffffffffffffffffff16611276610cbf565b73ffffffffffffffffffffffffffffffffffffffff16146112cc576040517f08c379a00000000000000000000000000000000000000000000000000000000081526004016112c390612742565b60405180910390fd5b826112d76001611a43565b8110611318576040517f08c379a000000000000000000000000000000000000000000000000000000000815260040161130f906129e9565b60405180910390fd5b42600260008681526020019081526020016000206008015411611370576040517f08c379a000000000000000000000000000000000000000000000000000000000815260040161136790612aa4565b60405180910390fd5b8242106113b2576040517f08c379a00000000000000000000000000000000000000000000000000000000081526004016113a990612b6d565b60405180910390fd5b826002600086815260200190815260200160002060080181905550603c82846113db9190612b8d565b6113e59190612b8d565b60026000868152602001908152602001600020600901819055503373ffffffffffffffffffffffffffffffffffffffff167fda757c2681b4b4013169aa26bb6342c341a275a3d3c19d4035c57bfdff1fec9e8585600260008981526020019081526020016000206009015460405161145f93929190612be7565b60405180910390a250505050565b816114786001611a43565b81106114b9576040517f08c379a00000000000000000000000000000000000000000000000000000000081526004016114b0906129e9565b60405180910390fd5b60006002600085815260200190815260200160002090506000429050816008015481101580156114ec5750816009015481105b61152b576040517f08c379a000000000000000000000000000000000000000000000000000000000815260040161152290612c6a565b60405180910390fd5b8160060154841115611572576040517f08c379a000000000000000000000000000000000000000000000000000000000815260040161156990612cd6565b60405180910390fd5b600084118015611586575081600401548411155b6115c5576040517f08c379a00000000000000000000000000000000000000000000000000000000081526004016115bc90612d42565b60405180910390fd5b60008260010160009054906101000a900473ffffffffffffffffffffffffffffffffffffffff16905060008584600701546116009190612b8d565b9050808273ffffffffffffffffffffffffffffffffffffffff166370a08231336040518263ffffffff1660e01b815260040161163c91906120bf565b602060405180830381865afa158015611659573d6000803e3d6000fd5b505050506040513d601f19601f8201168201806040525081019061167d9190612777565b10156116be576040517f08c379a00000000000000000000000000000000000000000000000000000000081526004016116b590612dae565b60405180910390fd5b858460060160008282546116d29190612dce565b925050819055508173ffffffffffffffffffffffffffffffffffffffff166323b872dd33600360009054906101000a900473ffffffffffffffffffffffffffffffffffffffff16846040518463ffffffff1660e01b815260040161173893929190612e02565b6020604051808303816000875af1158015611757573d6000803e3d6000fd5b505050506040513d601f19601f8201168201806040525081019061177b9190612e65565b5060008460000160009054906101000a900473ffffffffffffffffffffffffffffffffffffffff1690508073ffffffffffffffffffffffffffffffffffffffff1663f242432a303388600301548b6040518563ffffffff1660e01b81526004016117e89493929190612945565b600060405180830381600087803b15801561180257600080fd5b505af1158015611816573d6000803e3d6000fd5b505050503373ffffffffffffffffffffffffffffffffffffffff167f3568ce81bc38ddb877702d1e7163ec9e20842bf4c514bcb43ed25bf084f5e3c88987600301548a89600701548a60000160009054906101000a900473ffffffffffffffffffffffffffffffffffffffff168b60010160009054906101000a900473ffffffffffffffffffffffffffffffffffffffff166040516118ba96959493929190612e92565b60405180910390a25050505050505050565b600063f23a6e6160e01b905095945050505050565b6118e9611a51565b73ffffffffffffffffffffffffffffffffffffffff16611907610cbf565b73ffffffffffffffffffffffffffffffffffffffff161461195d576040517f08c379a000000000000000000000000000000000000000000000000000000000815260040161195490612742565b60405180910390fd5b600073ffffffffffffffffffffffffffffffffffffffff168173ffffffffffffffffffffffffffffffffffffffff1614156119cd576040517f08c379a00000000000000000000000000000000000000000000000000000000081526004016119c490612f65565b60405180910390fd5b6119d681611a6f565b50565b60007f01ffc9a7000000000000000000000000000000000000000000000000000000007bffffffffffffffffffffffffffffffffffffffffffffffffffffffff1916827bffffffffffffffffffffffffffffffffffffffffffffffffffffffff1916149050919050565b600081600001549050919050565b600033905090565b6001816000016000828254019250508190555050565b60008060009054906101000a900473ffffffffffffffffffffffffffffffffffffffff169050816000806101000a81548173ffffffffffffffffffffffffffffffffffffffff021916908373ffffffffffffffffffffffffffffffffffffffff1602179055508173ffffffffffffffffffffffffffffffffffffffff168173ffffffffffffffffffffffffffffffffffffffff167f8be0079c531659141344cd1fd0a4f28419497f9722a3daafe3b4186f6b6457e060405160405180910390a35050565b604051806101400160405280600073ffffffffffffffffffffffffffffffffffffffff168152602001600073ffffffffffffffffffffffffffffffffffffffff16815260200160008152602001600081526020016000815260200160008152602001600081526020016000815260200160008152602001600081525090565b6000604051905090565b600080fd5b600080fd5b60007fffffffff0000000000000000000000000000000000000000000000000000000082169050919050565b611bfb81611bc6565b8114611c0657600080fd5b50565b600081359050611c1881611bf2565b92915050565b600060208284031215611c3457611c33611bbc565b5b6000611c4284828501611c09565b91505092915050565b60008115159050919050565b611c6081611c4b565b82525050565b6000602082019050611c7b6000830184611c57565b92915050565b600081519050919050565b600082825260208201905092915050565b6000819050602082019050919050565b600073ffffffffffffffffffffffffffffffffffffffff82169050919050565b6000611cd882611cad565b9050919050565b611ce881611ccd565b82525050565b6000819050919050565b611d0181611cee565b82525050565b61014082016000820151611d1e6000850182611cdf565b506020820151611d316020850182611cdf565b506040820151611d446040850182611cf8565b506060820151611d576060850182611cf8565b506080820151611d6a6080850182611cf8565b5060a0820151611d7d60a0850182611cf8565b5060c0820151611d9060c0850182611cf8565b5060e0820151611da360e0850182611cf8565b50610100820151611db8610100850182611cf8565b50610120820151611dcd610120850182611cf8565b50505050565b6000611ddf8383611d07565b6101408301905092915050565b6000602082019050919050565b6000611e0482611c81565b611e0e8185611c8c565b9350611e1983611c9d565b8060005b83811015611e4a578151611e318882611dd3565b9750611e3c83611dec565b925050600181019050611e1d565b5085935050505092915050565b60006020820190508181036000830152611e718184611df9565b905092915050565b600080fd5b6000601f19601f8301169050919050565b7f4e487b7100000000000000000000000000000000000000000000000000000000600052604160045260246000fd5b611ec782611e7e565b810181811067ffffffffffffffff82111715611ee657611ee5611e8f565b5b80604052505050565b6000611ef9611bb2565b9050611f058282611ebe565b919050565b611f1381611ccd565b8114611f1e57600080fd5b50565b600081359050611f3081611f0a565b92915050565b611f3f81611cee565b8114611f4a57600080fd5b50565b600081359050611f5c81611f36565b92915050565b60006101408284031215611f7957611f78611e79565b5b611f84610140611eef565b90506000611f9484828501611f21565b6000830152506020611fa884828501611f21565b6020830152506040611fbc84828501611f4d565b6040830152506060611fd084828501611f4d565b6060830152506080611fe484828501611f4d565b60808301525060a0611ff884828501611f4d565b60a08301525060c061200c84828501611f4d565b60c08301525060e061202084828501611f4d565b60e08301525061010061203584828501611f4d565b6101008301525061012061204b84828501611f4d565b6101208301525092915050565b6000610140828403121561206f5761206e611bbc565b5b600061207d84828501611f62565b91505092915050565b61208f81611cee565b82525050565b60006020820190506120aa6000830184612086565b92915050565b6120b981611ccd565b82525050565b60006020820190506120d460008301846120b0565b92915050565b6000602082840312156120f0576120ef611bbc565b5b60006120fe84828501611f4d565b91505092915050565b600080fd5b600067ffffffffffffffff82111561212757612126611e8f565b5b602082029050602081019050919050565b600080fd5b600061215061214b8461210c565b611eef565b9050808382526020820190506020840283018581111561217357612172612138565b5b835b8181101561219c57806121888882611f4d565b845260208401935050602081019050612175565b5050509392505050565b600082601f8301126121bb576121ba612107565b5b81356121cb84826020860161213d565b91505092915050565b600080fd5b600067ffffffffffffffff8211156121f4576121f3611e8f565b5b6121fd82611e7e565b9050602081019050919050565b82818337600083830152505050565b600061222c612227846121d9565b611eef565b905082815260208101848484011115612248576122476121d4565b5b61225384828561220a565b509392505050565b600082601f8301126122705761226f612107565b5b8135612280848260208601612219565b91505092915050565b600080600080600060a086880312156122a5576122a4611bbc565b5b60006122b388828901611f21565b95505060206122c488828901611f21565b945050604086013567ffffffffffffffff8111156122e5576122e4611bc1565b5b6122f1888289016121a6565b935050606086013567ffffffffffffffff81111561231257612311611bc1565b5b61231e888289016121a6565b925050608086013567ffffffffffffffff81111561233f5761233e611bc1565b5b61234b8882890161225b565b9150509295509295909350565b61236181611bc6565b82525050565b600060208201905061237c6000830184612358565b92915050565b610140820160008201516123996000850182611cdf565b5060208201516123ac6020850182611cdf565b5060408201516123bf6040850182611cf8565b5060608201516123d26060850182611cf8565b5060808201516123e56080850182611cf8565b5060a08201516123f860a0850182611cf8565b5060c082015161240b60c0850182611cf8565b5060e082015161241e60e0850182611cf8565b50610100820151612433610100850182611cf8565b50610120820151612448610120850182611cf8565b50505050565b6000610140820190506124646000830184612382565b92915050565b60008060006060848603121561248357612482611bbc565b5b600061249186828701611f4d565b93505060206124a286828701611f4d565b92505060406124b386828701611f21565b9150509250925092565b6000806000606084860312156124d6576124d5611bbc565b5b60006124e486828701611f4d565b93505060206124f586828701611f4d565b925050604061250686828701611f4d565b9150509250925092565b6000806040838503121561252757612526611bbc565b5b600061253585828601611f4d565b925050602061254685828601611f4d565b9150509250929050565b600080600080600060a0868803121561256c5761256b611bbc565b5b600061257a88828901611f21565b955050602061258b88828901611f21565b945050604061259c88828901611f4d565b93505060606125ad88828901611f4d565b925050608086013567ffffffffffffffff8111156125ce576125cd611bc1565b5b6125da8882890161225b565b9150509295509295909350565b6000602082840312156125fd576125fc611bbc565b5b600061260b84828501611f21565b91505092915050565b7f4e487b7100000000000000000000000000000000000000000000000000000000600052601160045260246000fd5b600061264e82611cee565b91507fffffffffffffffffffffffffffffffffffffffffffffffffffffffffffffffff82141561268157612680612614565b5b600182019050919050565b600061269782611cee565b915060008214156126ab576126aa612614565b5b600182039050919050565b7f4e487b7100000000000000000000000000000000000000000000000000000000600052603260045260246000fd5b600082825260208201905092915050565b7f4f776e61626c653a2063616c6c6572206973206e6f7420746865206f776e6572600082015250565b600061272c6020836126e5565b9150612737826126f6565b602082019050919050565b6000602082019050818103600083015261275b8161271f565b9050919050565b60008151905061277181611f36565b92915050565b60006020828403121561278d5761278c611bbc565b5b600061279b84828501612762565b91505092915050565b7f496e76616c696420746f6b656e49640000000000000000000000000000000000600082015250565b60006127da600f836126e5565b91506127e5826127a4565b602082019050919050565b60006020820190508181036000830152612809816127cd565b9050919050565b7f5072696365206d7573742062652067726561746572207468616e203000000000600082015250565b6000612846601c836126e5565b915061285182612810565b602082019050919050565b6000602082019050818103600083015261287581612839565b9050919050565b7f7175616e74697479206d7573742062652067726561746572207468616e203000600082015250565b60006128b2601f836126e5565b91506128bd8261287c565b602082019050919050565b600060208201905081810360008301526128e1816128a5565b9050919050565b600082825260208201905092915050565b7f3078300000000000000000000000000000000000000000000000000000000000600082015250565b600061292f6003836128e8565b915061293a826128f9565b602082019050919050565b600060a08201905061295a60008301876120b0565b61296760208301866120b0565b6129746040830185612086565b6129816060830184612086565b818103608083015261299281612922565b905095945050505050565b7f496e76616c6964206974656d4964000000000000000000000000000000000000600082015250565b60006129d3600e836126e5565b91506129de8261299d565b602082019050919050565b60006020820190508181036000830152612a02816129c6565b9050919050565b6000604082019050612a1e6000830185612086565b612a2b6020830184612086565b9392505050565b7f43616e206f6e6c79206265207570646174656420666f72207570636f6d696e6760008201527f206974656d000000000000000000000000000000000000000000000000000000602082015250565b6000612a8e6025836126e5565b9150612a9982612a32565b604082019050919050565b60006020820190508181036000830152612abd81612a81565b9050919050565b6000606082019050612ad96000830186612086565b612ae66020830185612086565b612af360408301846120b0565b949350505050565b7f53746172742074696d65206d7573742062652067726561746572207468616e2060008201527f63757272656e742074696d650000000000000000000000000000000000000000602082015250565b6000612b57602c836126e5565b9150612b6282612afb565b604082019050919050565b60006020820190508181036000830152612b8681612b4a565b9050919050565b6000612b9882611cee565b9150612ba383611cee565b9250817fffffffffffffffffffffffffffffffffffffffffffffffffffffffffffffffff0483118215151615612bdc57612bdb612614565b5b828202905092915050565b6000606082019050612bfc6000830186612086565b612c096020830185612086565b612c166040830184612086565b949350505050565b7f4974656d206973206e6f7420617661696c61626c650000000000000000000000600082015250565b6000612c546015836126e5565b9150612c5f82612c1e565b602082019050919050565b60006020820190508181036000830152612c8381612c47565b9050919050565b7f696e73756666696369656e74206974656d207175616e74697479000000000000600082015250565b6000612cc0601a836126e5565b9150612ccb82612c8a565b602082019050919050565b60006020820190508181036000830152612cef81612cb3565b9050919050565b7f496e76616c6964207175616e746974792076616c756500000000000000000000600082015250565b6000612d2c6016836126e5565b9150612d3782612cf6565b602082019050919050565b60006020820190508181036000830152612d5b81612d1f565b9050919050565b7f696e73756666696369656e742062616c616e636520746f206275790000000000600082015250565b6000612d98601b836126e5565b9150612da382612d62565b602082019050919050565b60006020820190508181036000830152612dc781612d8b565b9050919050565b6000612dd982611cee565b9150612de483611cee565b925082821015612df757612df6612614565b5b828203905092915050565b6000606082019050612e1760008301866120b0565b612e2460208301856120b0565b612e316040830184612086565b949350505050565b612e4281611c4b565b8114612e4d57600080fd5b50565b600081519050612e5f81612e39565b92915050565b600060208284031215612e7b57612e7a611bbc565b5b6000612e8984828501612e50565b91505092915050565b600060c082019050612ea76000830189612086565b612eb46020830188612086565b612ec16040830187612086565b612ece6060830186612086565b612edb60808301856120b0565b612ee860a08301846120b0565b979650505050505050565b7f4f776e61626c653a206e6577206f776e657220697320746865207a65726f206160008201527f6464726573730000000000000000000000000000000000000000000000000000602082015250565b6000612f4f6026836126e5565b9150612f5a82612ef3565b604082019050919050565b60006020820190508181036000830152612f7e81612f42565b905091905056fea2646970667358221220019cad7de378b49f5e5cba1574f558f4cc9bb4dfd56485a1886cbbf9f99e374264736f6c634300080a0033",
  "immutableReferences": {},
  "source": "// SPDX-License-Identifier: MIT\npragma solidity ^0.8.0;\npragma abicoder v2;\n\nimport \"@openzeppelin/contracts/token/ERC20/IERC20.sol\";\nimport \"@openzeppelin/contracts/token/ERC1155/IERC1155.sol\";\nimport \"@openzeppelin/contracts/token/ERC1155/utils/ERC1155Holder.sol\";\nimport \"@openzeppelin/contracts/utils/Counters.sol\";\nimport \"@openzeppelin/contracts/access/Ownable.sol\";\nimport \"./NextItem.sol\";\nimport \"./NextPack.sol\";\n\ncontract NextShop is Ownable, ERC1155Holder {\n\n    using Counters for Counters.Counter;\n\n    struct SaleItem\n    {\n        address nftContract;\n        address erc20Contract;\n        uint256 id;\n        uint256 tokenId;\n        uint256 maximumPurchaseQuantity;\n        uint256 quantity;\n        uint256 itemLeft;\n        uint256 price;\n        uint256 startTime;\n        uint256 endTime;\n    }\n\n    Counters.Counter private _itemIds;\n    mapping(uint256 => SaleItem) private items;\n\n    address nextverseWallet;\n\n    event ItemAdded(\n        address indexed sender,\n        SaleItem item\n    );\n\n    event ItemClosed(\n        address indexed sender,\n        uint256 id,\n        uint256 itemLeft\n    );\n\n    event ItemPurchased(\n        address indexed sender,\n        uint256 id,\n        uint256 tokenId,\n        uint256 quantity,\n        uint256 price,\n        address nftContract,\n        address erc20Contract\n    );\n\n    event ItemPriceUpdated(\n        address indexed sender,\n        uint256 id,\n        uint256 newPrice,\n        address erc20Contract\n    );\n    \n    event SellingTimeUpdated(\n        address indexed sender,\n        uint256 id, \n        uint256 startTime,\n        uint256 endTime\n    );\n\n    constructor(address ownerWallet) {\n        nextverseWallet = ownerWallet;\n    }\n    \n    modifier isValidItemId(uint256 itemId) {\n        require(itemId < _itemIds.current(), \"Invalid itemId\");\n        _;\n    }\n\n    modifier isValidTokenId(uint256 tokenId, address nftContract) {\n        INFTFactory nftFactory = INFTFactory(nftContract);\n        require(tokenId < nftFactory.getUniqueTokenNum(), \"Invalid tokenId\");\n        _;\n    }\n\n    function addItemForSale(SaleItem memory item)\n        public\n        onlyOwner\n        isValidTokenId(item.tokenId, item.nftContract)\n    {\n        require(item.price > 0, \"Price must be greater than 0\");\n        require(item.quantity > 0, \"quantity must be greater than 0\");\n\n        IERC1155 nftFactory = IERC1155(item.nftContract);\n        nftFactory.safeTransferFrom(owner(), address(this), item.tokenId, item.quantity, \"0x0\");\n\n        uint256 id = _itemIds.current();\n        _itemIds.increment();\n        item.id = id;\n        items[id] = item;\n\n        emit ItemAdded(msg.sender, item);\n    }\n\n    function purchaseItem(uint256 itemId, uint256 quantity)\n        public\n        isValidItemId(itemId)\n    {\n        SaleItem storage item = items[itemId];\n        uint256 currentTime = block.timestamp;\n        require(((currentTime >= item.startTime) && (currentTime < item.endTime)), \"Item is not available\");\n        require(quantity <= item.itemLeft, \"insufficient item quantity\");\n        require((quantity > 0) && (quantity <= item.maximumPurchaseQuantity), \"Invalid quantity value\");\n        \n        IERC20 token = IERC20(item.erc20Contract);\n        uint256 paymentAmount = item.price * quantity;\n        require(token.balanceOf(msg.sender) >= paymentAmount, \"insufficient balance to buy\");\n\n        item.itemLeft -= quantity;\n\n        token.transferFrom(msg.sender, nextverseWallet, paymentAmount);\n\n        IERC1155 nftFactory = IERC1155(item.nftContract);\n        nftFactory.safeTransferFrom(address(this), msg.sender, item.tokenId, quantity, \"0x0\");\n\n        emit ItemPurchased(msg.sender, itemId, item.tokenId, quantity, item.price, item.nftContract, item.erc20Contract);\n    }\n\n    function updatePrice(uint256 itemId, uint256 price, address erc20Contract)\n        public\n        onlyOwner\n        isValidItemId(itemId)\n    {\n        SaleItem storage item = items[itemId];\n        require(item.startTime > block.timestamp, \"Can only be updated for upcoming item\");\n\n        items[itemId].price = price;\n        items[itemId].erc20Contract = erc20Contract;\n\n        emit ItemPriceUpdated(msg.sender, itemId, price, erc20Contract);\n    }\n\n    function updateSellingTime(uint256 itemId, uint256 startTime, uint256 duration)\n        public\n        onlyOwner\n        isValidItemId(itemId)\n    {\n        require(items[itemId].startTime > block.timestamp, \"Can only be updated for upcoming item\");\n        require(block.timestamp < startTime, \"Start time must be greater than current time\");\n\n        items[itemId].startTime = startTime;\n        items[itemId].endTime = startTime * duration * (1 minutes);\n\n        emit SellingTimeUpdated(msg.sender, itemId, startTime, items[itemId].endTime);\n    }\n\n    function closeSaleItem(uint256 itemId)\n        public \n        onlyOwner\n        isValidItemId(itemId)\n    {\n        SaleItem storage item = items[itemId];\n        uint256 itemLeft = item.itemLeft;\n        IERC1155 nftFactory = IERC1155(item.nftContract);\n        nftFactory.safeTransferFrom(address(this), owner(), item.tokenId, itemLeft, \"0x0\");\n        item.itemLeft = 0;\n\n        emit ItemClosed(msg.sender, itemId, itemLeft);\n    }\n\n    function getSaleItem(uint256 itemId)\n        public\n        view\n        isValidItemId(itemId)\n        returns (SaleItem memory)\n    {\n        return items[itemId];\n    }\n\n    function getTotalSaleItems()\n        public\n        view\n        returns (uint256)\n    {\n        return _itemIds.current();\n    }\n\n    function getOnSaleItems()\n        public\n        view\n        returns (SaleItem[] memory)\n    {\n        uint256 maxIndex = _itemIds.current();\n        uint256 currentTime = block.timestamp;\n\n        uint256 cnt = 0;\n        for (uint256 i = 0; i < maxIndex; i++) {\n            if ((items[i].startTime <= currentTime) && (currentTime  < items[i].endTime)) {\n                cnt++;\n            }\n        }\n\n        SaleItem[] memory ret = new SaleItem[](cnt);\n        for (uint256 i = 0; i < maxIndex; i++) {\n            if ((items[i].startTime <= currentTime) && (currentTime  < items[i].endTime)) {\n                cnt--;\n                ret[cnt] = items[i];\n            }\n        }\n\n        return ret;\n    }\n\n    function getUpcomingSaleItems()\n        public\n        view\n        returns (SaleItem[] memory)\n    {\n        uint256 maxIndex = _itemIds.current();\n        uint256 currentTime = block.timestamp;\n\n        uint256 cnt = 0;\n        for (uint256 i = 0; i < maxIndex; i++) {\n            if (currentTime < items[i].startTime) {\n                cnt++;\n            }\n        }\n\n        SaleItem[] memory ret = new SaleItem[](cnt);\n        for (uint256 i = 0; i < maxIndex; i++) {\n            if (currentTime < items[i].startTime) {\n                cnt--;\n                ret[cnt] = items[i];\n            }\n        }\n\n        return ret;\n    }\n\n    function getBlockTimestamp()\n        public \n        view \n        returns (uint256 currentTime)\n    {\n        return block.timestamp;\n    }\n}",
  "sourcePath": "/home/hungnd/workspace/nextverse-marketplace/contracts/NextShop.sol",
  "compiler": {
    "name": "solc",
    "version": "0.8.10+commit.fc410830.Emscripten.clang"
  },
  "schemaVersion": "3.4.3",
  "updatedAt": "2022-05-06T03:32:59.383Z",
  "networkType": "ethereum",
  "devdoc": {
    "kind": "dev",
    "methods": {
      "owner()": {
        "details": "Returns the address of the current owner."
      },
      "renounceOwnership()": {
        "details": "Leaves the contract without owner. It will not be possible to call `onlyOwner` functions anymore. Can only be called by the current owner. NOTE: Renouncing ownership will leave the contract without an owner, thereby removing any functionality that is only available to the owner."
      },
      "supportsInterface(bytes4)": {
        "details": "See {IERC165-supportsInterface}."
      },
      "transferOwnership(address)": {
        "details": "Transfers ownership of the contract to a new account (`newOwner`). Can only be called by the current owner."
      }
    },
    "version": 1
  },
  "userdoc": {
    "kind": "user",
    "methods": {},
    "version": 1
  }
}