{
  "contractName": "NextItem",
  "abi": [
    {
      "inputs": [
        {
          "internalType": "string",
          "name": "baseURI",
          "type": "string"
        }
      ],
      "stateMutability": "nonpayable",
      "type": "constructor"
    },
    {
      "anonymous": false,
      "inputs": [
        {
          "indexed": true,
          "internalType": "address",
          "name": "account",
          "type": "address"
        },
        {
          "indexed": true,
          "internalType": "address",
          "name": "operator",
          "type": "address"
        },
        {
          "indexed": false,
          "internalType": "bool",
          "name": "approved",
          "type": "bool"
        }
      ],
      "name": "ApprovalForAll",
      "type": "event"
    },
    {
      "anonymous": false,
      "inputs": [
        {
          "indexed": true,
          "internalType": "address",
          "name": "sender",
          "type": "address"
        },
        {
          "indexed": false,
          "internalType": "uint256",
          "name": "tokenId",
          "type": "uint256"
        },
        {
          "indexed": false,
          "internalType": "uint256",
          "name": "quantity",
          "type": "uint256"
        }
      ],
      "name": "ItemBurned",
      "type": "event"
    },
    {
      "anonymous": false,
      "inputs": [
        {
          "indexed": true,
          "internalType": "address",
          "name": "sender",
          "type": "address"
        },
        {
          "indexed": false,
          "internalType": "uint256",
          "name": "tokenId",
          "type": "uint256"
        },
        {
          "indexed": false,
          "internalType": "string",
          "name": "metadata",
          "type": "string"
        }
      ],
      "name": "ItemMetadataUpdated",
      "type": "event"
    },
    {
      "anonymous": false,
      "inputs": [
        {
          "indexed": true,
          "internalType": "address",
          "name": "sender",
          "type": "address"
        },
        {
          "indexed": false,
          "internalType": "uint256",
          "name": "tokenId",
          "type": "uint256"
        },
        {
          "indexed": false,
          "internalType": "uint256",
          "name": "quantity",
          "type": "uint256"
        }
      ],
      "name": "ItemMinted",
      "type": "event"
    },
    {
      "anonymous": false,
      "inputs": [
        {
          "indexed": true,
          "internalType": "address",
          "name": "sender",
          "type": "address"
        },
        {
          "indexed": false,
          "internalType": "address",
          "name": "creator",
          "type": "address"
        },
        {
          "indexed": false,
          "internalType": "uint256",
          "name": "tokenId",
          "type": "uint256"
        },
        {
          "indexed": false,
          "internalType": "uint256",
          "name": "quantity",
          "type": "uint256"
        },
        {
          "indexed": false,
          "internalType": "string",
          "name": "metadata",
          "type": "string"
        }
      ],
      "name": "NewItemMinted",
      "type": "event"
    },
    {
      "anonymous": false,
      "inputs": [
        {
          "indexed": true,
          "internalType": "address",
          "name": "sender",
          "type": "address"
        },
        {
          "indexed": false,
          "internalType": "address",
          "name": "operator",
          "type": "address"
        },
        {
          "indexed": false,
          "internalType": "bool",
          "name": "approved",
          "type": "bool"
        }
      ],
      "name": "NextItemOperatorUpdated",
      "type": "event"
    },
    {
      "anonymous": false,
      "inputs": [
        {
          "indexed": true,
          "internalType": "address",
          "name": "previousOwner",
          "type": "address"
        },
        {
          "indexed": true,
          "internalType": "address",
          "name": "newOwner",
          "type": "address"
        }
      ],
      "name": "OwnershipTransferred",
      "type": "event"
    },
    {
      "anonymous": false,
      "inputs": [
        {
          "indexed": true,
          "internalType": "address",
          "name": "operator",
          "type": "address"
        },
        {
          "indexed": true,
          "internalType": "address",
          "name": "from",
          "type": "address"
        },
        {
          "indexed": true,
          "internalType": "address",
          "name": "to",
          "type": "address"
        },
        {
          "indexed": false,
          "internalType": "uint256[]",
          "name": "ids",
          "type": "uint256[]"
        },
        {
          "indexed": false,
          "internalType": "uint256[]",
          "name": "values",
          "type": "uint256[]"
        }
      ],
      "name": "TransferBatch",
      "type": "event"
    },
    {
      "anonymous": false,
      "inputs": [
        {
          "indexed": true,
          "internalType": "address",
          "name": "operator",
          "type": "address"
        },
        {
          "indexed": true,
          "internalType": "address",
          "name": "from",
          "type": "address"
        },
        {
          "indexed": true,
          "internalType": "address",
          "name": "to",
          "type": "address"
        },
        {
          "indexed": false,
          "internalType": "uint256",
          "name": "id",
          "type": "uint256"
        },
        {
          "indexed": false,
          "internalType": "uint256",
          "name": "value",
          "type": "uint256"
        }
      ],
      "name": "TransferSingle",
      "type": "event"
    },
    {
      "anonymous": false,
      "inputs": [
        {
          "indexed": false,
          "internalType": "string",
          "name": "value",
          "type": "string"
        },
        {
          "indexed": true,
          "internalType": "uint256",
          "name": "id",
          "type": "uint256"
        }
      ],
      "name": "URI",
      "type": "event"
    },
    {
      "inputs": [
        {
          "internalType": "address",
          "name": "account",
          "type": "address"
        },
        {
          "internalType": "uint256",
          "name": "id",
          "type": "uint256"
        }
      ],
      "name": "balanceOf",
      "outputs": [
        {
          "internalType": "uint256",
          "name": "",
          "type": "uint256"
        }
      ],
      "stateMutability": "view",
      "type": "function",
      "constant": true
    },
    {
      "inputs": [
        {
          "internalType": "address[]",
          "name": "accounts",
          "type": "address[]"
        },
        {
          "internalType": "uint256[]",
          "name": "ids",
          "type": "uint256[]"
        }
      ],
      "name": "balanceOfBatch",
      "outputs": [
        {
          "internalType": "uint256[]",
          "name": "",
          "type": "uint256[]"
        }
      ],
      "stateMutability": "view",
      "type": "function",
      "constant": true
    },
    {
      "inputs": [
        {
          "internalType": "address",
          "name": "account",
          "type": "address"
        },
        {
          "internalType": "address",
          "name": "operator",
          "type": "address"
        }
      ],
      "name": "isApprovedForAll",
      "outputs": [
        {
          "internalType": "bool",
          "name": "",
          "type": "bool"
        }
      ],
      "stateMutability": "view",
      "type": "function",
      "constant": true
    },
    {
      "inputs": [],
      "name": "owner",
      "outputs": [
        {
          "internalType": "address",
          "name": "",
          "type": "address"
        }
      ],
      "stateMutability": "view",
      "type": "function",
      "constant": true
    },
    {
      "inputs": [],
      "name": "renounceOwnership",
      "outputs": [],
      "stateMutability": "nonpayable",
      "type": "function"
    },
    {
      "inputs": [
        {
          "internalType": "address",
          "name": "from",
          "type": "address"
        },
        {
          "internalType": "address",
          "name": "to",
          "type": "address"
        },
        {
          "internalType": "uint256[]",
          "name": "ids",
          "type": "uint256[]"
        },
        {
          "internalType": "uint256[]",
          "name": "amounts",
          "type": "uint256[]"
        },
        {
          "internalType": "bytes",
          "name": "data",
          "type": "bytes"
        }
      ],
      "name": "safeBatchTransferFrom",
      "outputs": [],
      "stateMutability": "nonpayable",
      "type": "function"
    },
    {
      "inputs": [
        {
          "internalType": "address",
          "name": "from",
          "type": "address"
        },
        {
          "internalType": "address",
          "name": "to",
          "type": "address"
        },
        {
          "internalType": "uint256",
          "name": "id",
          "type": "uint256"
        },
        {
          "internalType": "uint256",
          "name": "amount",
          "type": "uint256"
        },
        {
          "internalType": "bytes",
          "name": "data",
          "type": "bytes"
        }
      ],
      "name": "safeTransferFrom",
      "outputs": [],
      "stateMutability": "nonpayable",
      "type": "function"
    },
    {
      "inputs": [
        {
          "internalType": "address",
          "name": "operator",
          "type": "address"
        },
        {
          "internalType": "bool",
          "name": "approved",
          "type": "bool"
        }
      ],
      "name": "setApprovalForAll",
      "outputs": [],
      "stateMutability": "nonpayable",
      "type": "function"
    },
    {
      "inputs": [
        {
          "internalType": "bytes4",
          "name": "interfaceId",
          "type": "bytes4"
        }
      ],
      "name": "supportsInterface",
      "outputs": [
        {
          "internalType": "bool",
          "name": "",
          "type": "bool"
        }
      ],
      "stateMutability": "view",
      "type": "function",
      "constant": true
    },
    {
      "inputs": [
        {
          "internalType": "address",
          "name": "newOwner",
          "type": "address"
        }
      ],
      "name": "transferOwnership",
      "outputs": [],
      "stateMutability": "nonpayable",
      "type": "function"
    },
    {
      "inputs": [
        {
          "internalType": "address",
          "name": "operator",
          "type": "address"
        },
        {
          "internalType": "bool",
          "name": "approved",
          "type": "bool"
        }
      ],
      "name": "updateOperator",
      "outputs": [],
      "stateMutability": "nonpayable",
      "type": "function"
    },
    {
      "inputs": [
        {
          "internalType": "address",
          "name": "addr",
          "type": "address"
        }
      ],
      "name": "isOperator",
      "outputs": [
        {
          "internalType": "bool",
          "name": "",
          "type": "bool"
        }
      ],
      "stateMutability": "view",
      "type": "function",
      "constant": true
    },
    {
      "inputs": [
        {
          "internalType": "uint256",
          "name": "quantity",
          "type": "uint256"
        },
        {
          "internalType": "address",
          "name": "creator",
          "type": "address"
        },
        {
          "internalType": "string",
          "name": "metadata",
          "type": "string"
        }
      ],
      "name": "mintNewItem",
      "outputs": [],
      "stateMutability": "nonpayable",
      "type": "function"
    },
    {
      "inputs": [
        {
          "internalType": "uint256",
          "name": "tokenId",
          "type": "uint256"
        },
        {
          "internalType": "string",
          "name": "metadata",
          "type": "string"
        }
      ],
      "name": "updateItemMetadata",
      "outputs": [],
      "stateMutability": "nonpayable",
      "type": "function"
    },
    {
      "inputs": [
        {
          "internalType": "uint256",
          "name": "tokenId",
          "type": "uint256"
        }
      ],
      "name": "uri",
      "outputs": [
        {
          "internalType": "string",
          "name": "",
          "type": "string"
        }
      ],
      "stateMutability": "view",
      "type": "function",
      "constant": true
    },
    {
      "inputs": [
        {
          "internalType": "uint256",
          "name": "tokenId",
          "type": "uint256"
        },
        {
          "internalType": "uint256",
          "name": "quantity",
          "type": "uint256"
        }
      ],
      "name": "mintMoreItem",
      "outputs": [],
      "stateMutability": "nonpayable",
      "type": "function"
    },
    {
      "inputs": [
        {
          "internalType": "uint256",
          "name": "tokenId",
          "type": "uint256"
        },
        {
          "internalType": "uint256",
          "name": "quantity",
          "type": "uint256"
        }
      ],
      "name": "burnItem",
      "outputs": [],
      "stateMutability": "nonpayable",
      "type": "function"
    },
    {
      "inputs": [
        {
          "internalType": "address",
          "name": "recipient",
          "type": "address"
        },
        {
          "internalType": "uint256[]",
          "name": "itemIds",
          "type": "uint256[]"
        },
        {
          "internalType": "uint256[]",
          "name": "amounts",
          "type": "uint256[]"
        }
      ],
      "name": "mintBatch",
      "outputs": [],
      "stateMutability": "nonpayable",
      "type": "function"
    },
    {
      "inputs": [],
      "name": "getUniqueTokenNum",
      "outputs": [
        {
          "internalType": "uint256",
          "name": "",
          "type": "uint256"
        }
      ],
      "stateMutability": "view",
      "type": "function",
      "constant": true
    }
  ],
  "bytecode": "0x60806040523480156200001157600080fd5b50604051620043d7380380620043d7833981810160405281019062000037919062000400565b806200004981620000c960201b60201c565b506200006a6200005e620000e560201b60201c565b620000ed60201b60201c565b6001600560003373ffffffffffffffffffffffffffffffffffffffff1673ffffffffffffffffffffffffffffffffffffffff16815260200190815260200160002060006101000a81548160ff02191690831515021790555050620004b6565b8060029080519060200190620000e1929190620001b3565b5050565b600033905090565b6000600360009054906101000a900473ffffffffffffffffffffffffffffffffffffffff16905081600360006101000a81548173ffffffffffffffffffffffffffffffffffffffff021916908373ffffffffffffffffffffffffffffffffffffffff1602179055508173ffffffffffffffffffffffffffffffffffffffff168173ffffffffffffffffffffffffffffffffffffffff167f8be0079c531659141344cd1fd0a4f28419497f9722a3daafe3b4186f6b6457e060405160405180910390a35050565b828054620001c19062000480565b90600052602060002090601f016020900481019282620001e5576000855562000231565b82601f106200020057805160ff191683800117855562000231565b8280016001018555821562000231579182015b828111156200023057825182559160200191906001019062000213565b5b50905062000240919062000244565b5090565b5b808211156200025f57600081600090555060010162000245565b5090565b6000604051905090565b600080fd5b600080fd5b600080fd5b600080fd5b6000601f19601f8301169050919050565b7f4e487b7100000000000000000000000000000000000000000000000000000000600052604160045260246000fd5b620002cc8262000281565b810181811067ffffffffffffffff82111715620002ee57620002ed62000292565b5b80604052505050565b60006200030362000263565b9050620003118282620002c1565b919050565b600067ffffffffffffffff82111562000334576200033362000292565b5b6200033f8262000281565b9050602081019050919050565b60005b838110156200036c5780820151818401526020810190506200034f565b838111156200037c576000848401525b50505050565b600062000399620003938462000316565b620002f7565b905082815260208101848484011115620003b857620003b76200027c565b5b620003c58482856200034c565b509392505050565b600082601f830112620003e557620003e462000277565b5b8151620003f784826020860162000382565b91505092915050565b6000602082840312156200041957620004186200026d565b5b600082015167ffffffffffffffff8111156200043a576200043962000272565b5b6200044884828501620003cd565b91505092915050565b7f4e487b7100000000000000000000000000000000000000000000000000000000600052602260045260246000fd5b600060028204905060018216806200049957607f821691505b60208210811415620004b057620004af62000451565b5b50919050565b613f1180620004c66000396000f3fe608060405234801561001057600080fd5b50600436106101205760003560e01c8063715018a6116100ad578063d81d0a1511610071578063d81d0a1514610303578063e985e9c51461031f578063f242432a1461034f578063f2fde38b1461036b578063f9cc88b91461038757610120565b8063715018a6146102875780638da5cb5b14610291578063a22cb465146102af578063c0431067146102cb578063c9be4295146102e757610120565b80632eb2c2d6116100f45780632eb2c2d6146101d35780634e1273f4146101ef578063533e278f1461021f5780636d44a3b21461023b5780636d70f7ae1461025757610120565b8062fdd58e1461012557806301ffc9a714610155578063068d0c27146101855780630e89341c146101a3575b600080fd5b61013f600480360381019061013a9190612655565b6103a3565b60405161014c91906126a4565b60405180910390f35b61016f600480360381019061016a9190612717565b61046c565b60405161017c919061275f565b60405180910390f35b61018d61054e565b60405161019a91906126a4565b60405180910390f35b6101bd60048036038101906101b8919061277a565b61055f565b6040516101ca9190612840565b60405180910390f35b6101ed60048036038101906101e89190612a5f565b610651565b005b61020960048036038101906102049190612bf1565b6106f2565b6040516102169190612d27565b60405180910390f35b61023960048036038101906102349190612dea565b61080b565b005b61025560048036038101906102509190612e85565b61098e565b005b610271600480360381019061026c9190612ec5565b610ab5565b60405161027e919061275f565b60405180910390f35b61028f610b0b565b005b610299610b93565b6040516102a69190612f01565b60405180910390f35b6102c960048036038101906102c49190612e85565b610bbd565b005b6102e560048036038101906102e09190612f1c565b610bd3565b005b61030160048036038101906102fc9190612f1c565b610d12565b005b61031d60048036038101906103189190612f5c565b610e51565b005b61033960048036038101906103349190612fe7565b610f23565b604051610346919061275f565b60405180910390f35b61036960048036038101906103649190613027565b610fb7565b005b61038560048036038101906103809190612ec5565b611058565b005b6103a1600480360381019061039c91906130be565b611150565b005b60008073ffffffffffffffffffffffffffffffffffffffff168373ffffffffffffffffffffffffffffffffffffffff161415610414576040517f08c379a000000000000000000000000000000000000000000000000000000000815260040161040b9061318c565b60405180910390fd5b60008083815260200190815260200160002060008473ffffffffffffffffffffffffffffffffffffffff1673ffffffffffffffffffffffffffffffffffffffff16815260200190815260200160002054905092915050565b60007fd9b67a26000000000000000000000000000000000000000000000000000000007bffffffffffffffffffffffffffffffffffffffffffffffffffffffff1916827bffffffffffffffffffffffffffffffffffffffffffffffffffffffff1916148061053757507f0e89341c000000000000000000000000000000000000000000000000000000007bffffffffffffffffffffffffffffffffffffffffffffffffffffffff1916827bffffffffffffffffffffffffffffffffffffffffffffffffffffffff1916145b80610547575061054682611295565b5b9050919050565b600061055a60046112ff565b905090565b60608161056c60046112ff565b81106105ad576040517f08c379a00000000000000000000000000000000000000000000000000000000081526004016105a4906131f8565b60405180910390fd5b6006600084815260200190815260200160002080546105cb90613247565b80601f01602080910402602001604051908101604052809291908181526020018280546105f790613247565b80156106445780601f1061061957610100808354040283529160200191610644565b820191906000526020600020905b81548152906001019060200180831161062757829003601f168201915b5050505050915050919050565b61065961130d565b73ffffffffffffffffffffffffffffffffffffffff168573ffffffffffffffffffffffffffffffffffffffff16148061069f575061069e8561069961130d565b610f23565b5b6106de576040517f08c379a00000000000000000000000000000000000000000000000000000000081526004016106d5906132eb565b60405180910390fd5b6106eb8585858585611315565b5050505050565b60608151835114610738576040517f08c379a000000000000000000000000000000000000000000000000000000000815260040161072f9061337d565b60405180910390fd5b6000835167ffffffffffffffff81111561075557610754612867565b5b6040519080825280602002602001820160405280156107835781602001602082028036833780820191505090505b50905060005b8451811015610800576107d08582815181106107a8576107a761339d565b5b60200260200101518583815181106107c3576107c261339d565b5b60200260200101516103a3565b8282815181106107e3576107e261339d565b5b602002602001018181525050806107f9906133fb565b9050610789565b508091505092915050565b61081361130d565b73ffffffffffffffffffffffffffffffffffffffff16610831610b93565b73ffffffffffffffffffffffffffffffffffffffff1614610887576040517f08c379a000000000000000000000000000000000000000000000000000000000815260040161087e90613490565b60405180910390fd5b600061089360046112ff565b90506108b033828660405180602001604052806000815250611629565b826007600083815260200190815260200160002060006101000a81548173ffffffffffffffffffffffffffffffffffffffff021916908373ffffffffffffffffffffffffffffffffffffffff1602179055508160066000838152602001908152602001600020908051906020019061092992919061250a565b5061093460046117bf565b3373ffffffffffffffffffffffffffffffffffffffff167fd04f38dfeb12375a2825a55f98f56c19aa52d537e43dcec3d63d7d769d60be578483878660405161098094939291906134b0565b60405180910390a250505050565b61099661130d565b73ffffffffffffffffffffffffffffffffffffffff166109b4610b93565b73ffffffffffffffffffffffffffffffffffffffff1614610a0a576040517f08c379a0000000000000000000000000000000000000000000000000000000008152600401610a0190613490565b60405180910390fd5b80600560008473ffffffffffffffffffffffffffffffffffffffff1673ffffffffffffffffffffffffffffffffffffffff16815260200190815260200160002060006101000a81548160ff0219169083151502179055503373ffffffffffffffffffffffffffffffffffffffff167fdbbc81f7f4ad04f50a6bd272a917491b3bd34e62ad60256f8d203894ca634e208383604051610aa99291906134fc565b60405180910390a25050565b6000600560008373ffffffffffffffffffffffffffffffffffffffff1673ffffffffffffffffffffffffffffffffffffffff16815260200190815260200160002060009054906101000a900460ff169050919050565b610b1361130d565b73ffffffffffffffffffffffffffffffffffffffff16610b31610b93565b73ffffffffffffffffffffffffffffffffffffffff1614610b87576040517f08c379a0000000000000000000000000000000000000000000000000000000008152600401610b7e90613490565b60405180910390fd5b610b9160006117d5565b565b6000600360009054906101000a900473ffffffffffffffffffffffffffffffffffffffff16905090565b610bcf610bc861130d565b838361189b565b5050565b610bdb61130d565b73ffffffffffffffffffffffffffffffffffffffff16610bf9610b93565b73ffffffffffffffffffffffffffffffffffffffff1614610c4f576040517f08c379a0000000000000000000000000000000000000000000000000000000008152600401610c4690613490565b60405180910390fd5b81610c5a60046112ff565b8110610c9b576040517f08c379a0000000000000000000000000000000000000000000000000000000008152600401610c92906131f8565b60405180910390fd5b610cb633848460405180602001604052806000815250611629565b610cbe610b93565b73ffffffffffffffffffffffffffffffffffffffff167fd9be9c40c7e99dfc974fa3fe3b790af02afd2939b5dedfccb1ba12933eb27a8e8484604051610d05929190613525565b60405180910390a2505050565b600560003373ffffffffffffffffffffffffffffffffffffffff1673ffffffffffffffffffffffffffffffffffffffff16815260200190815260200160002060009054906101000a900460ff16610d9e576040517f08c379a0000000000000000000000000000000000000000000000000000000008152600401610d959061359a565b60405180910390fd5b81610da960046112ff565b8110610dea576040517f08c379a0000000000000000000000000000000000000000000000000000000008152600401610de1906131f8565b60405180910390fd5b610df5338484611a08565b610dfd610b93565b73ffffffffffffffffffffffffffffffffffffffff167fca29b5193c49b3f0cb8da1e82b521db2857868fcd608682d536a6444a936460c8484604051610e44929190613525565b60405180910390a2505050565b600560003373ffffffffffffffffffffffffffffffffffffffff1673ffffffffffffffffffffffffffffffffffffffff16815260200190815260200160002060009054906101000a900460ff16610edd576040517f08c379a0000000000000000000000000000000000000000000000000000000008152600401610ed49061359a565b60405180910390fd5b610f1e8383836040518060400160405280600381526020017f3078300000000000000000000000000000000000000000000000000000000000815250611c25565b505050565b6000600160008473ffffffffffffffffffffffffffffffffffffffff1673ffffffffffffffffffffffffffffffffffffffff16815260200190815260200160002060008373ffffffffffffffffffffffffffffffffffffffff1673ffffffffffffffffffffffffffffffffffffffff16815260200190815260200160002060009054906101000a900460ff16905092915050565b610fbf61130d565b73ffffffffffffffffffffffffffffffffffffffff168573ffffffffffffffffffffffffffffffffffffffff161480611005575061100485610fff61130d565b610f23565b5b611044576040517f08c379a000000000000000000000000000000000000000000000000000000000815260040161103b9061362c565b60405180910390fd5b6110518585858585611e43565b5050505050565b61106061130d565b73ffffffffffffffffffffffffffffffffffffffff1661107e610b93565b73ffffffffffffffffffffffffffffffffffffffff16146110d4576040517f08c379a00000000000000000000000000000000000000000000000000000000081526004016110cb90613490565b60405180910390fd5b600073ffffffffffffffffffffffffffffffffffffffff168173ffffffffffffffffffffffffffffffffffffffff161415611144576040517f08c379a000000000000000000000000000000000000000000000000000000000815260040161113b906136be565b60405180910390fd5b61114d816117d5565b50565b61115861130d565b73ffffffffffffffffffffffffffffffffffffffff16611176610b93565b73ffffffffffffffffffffffffffffffffffffffff16146111cc576040517f08c379a00000000000000000000000000000000000000000000000000000000081526004016111c390613490565b60405180910390fd5b816111d760046112ff565b8110611218576040517f08c379a000000000000000000000000000000000000000000000000000000000815260040161120f906131f8565b60405180910390fd5b8160066000858152602001908152602001600020908051906020019061123f92919061250a565b503373ffffffffffffffffffffffffffffffffffffffff167fb1a1f6c2deaf8d596cd6642e94aecb69ce6005c3fe35068992257734408e2d9a84846040516112889291906136de565b60405180910390a2505050565b60007f01ffc9a7000000000000000000000000000000000000000000000000000000007bffffffffffffffffffffffffffffffffffffffffffffffffffffffff1916827bffffffffffffffffffffffffffffffffffffffffffffffffffffffff1916149050919050565b600081600001549050919050565b600033905090565b8151835114611359576040517f08c379a000000000000000000000000000000000000000000000000000000000815260040161135090613780565b60405180910390fd5b600073ffffffffffffffffffffffffffffffffffffffff168473ffffffffffffffffffffffffffffffffffffffff1614156113c9576040517f08c379a00000000000000000000000000000000000000000000000000000000081526004016113c090613812565b60405180910390fd5b60006113d361130d565b90506113e38187878787876120c5565b60005b84518110156115945760008582815181106114045761140361339d565b5b6020026020010151905060008583815181106114235761142261339d565b5b60200260200101519050600080600084815260200190815260200160002060008b73ffffffffffffffffffffffffffffffffffffffff1673ffffffffffffffffffffffffffffffffffffffff168152602001908152602001600020549050818110156114c4576040517f08c379a00000000000000000000000000000000000000000000000000000000081526004016114bb906138a4565b60405180910390fd5b81810360008085815260200190815260200160002060008c73ffffffffffffffffffffffffffffffffffffffff1673ffffffffffffffffffffffffffffffffffffffff168152602001908152602001600020819055508160008085815260200190815260200160002060008b73ffffffffffffffffffffffffffffffffffffffff1673ffffffffffffffffffffffffffffffffffffffff168152602001908152602001600020600082825461157991906138c4565b925050819055505050508061158d906133fb565b90506113e6565b508473ffffffffffffffffffffffffffffffffffffffff168673ffffffffffffffffffffffffffffffffffffffff168273ffffffffffffffffffffffffffffffffffffffff167f4a39dc06d4c0dbc64b70af90fd698a233a518aa5d07e595d983b8c0526c8f7fb878760405161160b92919061391a565b60405180910390a46116218187878787876120cd565b505050505050565b600073ffffffffffffffffffffffffffffffffffffffff168473ffffffffffffffffffffffffffffffffffffffff161415611699576040517f08c379a0000000000000000000000000000000000000000000000000000000008152600401611690906139c3565b60405180910390fd5b60006116a361130d565b90506116c4816000876116b5886122a5565b6116be886122a5565b876120c5565b8260008086815260200190815260200160002060008773ffffffffffffffffffffffffffffffffffffffff1673ffffffffffffffffffffffffffffffffffffffff168152602001908152602001600020600082825461172391906138c4565b925050819055508473ffffffffffffffffffffffffffffffffffffffff16600073ffffffffffffffffffffffffffffffffffffffff168273ffffffffffffffffffffffffffffffffffffffff167fc3d58168c5ae7397731d063d5bbf3d657854427343f4c083240f7aacaa2d0f6287876040516117a1929190613525565b60405180910390a46117b88160008787878761231f565b5050505050565b6001816000016000828254019250508190555050565b6000600360009054906101000a900473ffffffffffffffffffffffffffffffffffffffff16905081600360006101000a81548173ffffffffffffffffffffffffffffffffffffffff021916908373ffffffffffffffffffffffffffffffffffffffff1602179055508173ffffffffffffffffffffffffffffffffffffffff168173ffffffffffffffffffffffffffffffffffffffff167f8be0079c531659141344cd1fd0a4f28419497f9722a3daafe3b4186f6b6457e060405160405180910390a35050565b8173ffffffffffffffffffffffffffffffffffffffff168373ffffffffffffffffffffffffffffffffffffffff16141561190a576040517f08c379a000000000000000000000000000000000000000000000000000000000815260040161190190613a55565b60405180910390fd5b80600160008573ffffffffffffffffffffffffffffffffffffffff1673ffffffffffffffffffffffffffffffffffffffff16815260200190815260200160002060008473ffffffffffffffffffffffffffffffffffffffff1673ffffffffffffffffffffffffffffffffffffffff16815260200190815260200160002060006101000a81548160ff0219169083151502179055508173ffffffffffffffffffffffffffffffffffffffff168373ffffffffffffffffffffffffffffffffffffffff167f17307eab39ab6107e8899845ad3d59bd9653f200f220920489ca2b5937696c31836040516119fb919061275f565b60405180910390a3505050565b600073ffffffffffffffffffffffffffffffffffffffff168373ffffffffffffffffffffffffffffffffffffffff161415611a78576040517f08c379a0000000000000000000000000000000000000000000000000000000008152600401611a6f90613ae7565b60405180910390fd5b6000611a8261130d565b9050611ab281856000611a94876122a5565b611a9d876122a5565b604051806020016040528060008152506120c5565b600080600085815260200190815260200160002060008673ffffffffffffffffffffffffffffffffffffffff1673ffffffffffffffffffffffffffffffffffffffff16815260200190815260200160002054905082811015611b49576040517f08c379a0000000000000000000000000000000000000000000000000000000008152600401611b4090613b79565b60405180910390fd5b82810360008086815260200190815260200160002060008773ffffffffffffffffffffffffffffffffffffffff1673ffffffffffffffffffffffffffffffffffffffff16815260200190815260200160002081905550600073ffffffffffffffffffffffffffffffffffffffff168573ffffffffffffffffffffffffffffffffffffffff168373ffffffffffffffffffffffffffffffffffffffff167fc3d58168c5ae7397731d063d5bbf3d657854427343f4c083240f7aacaa2d0f628787604051611c16929190613525565b60405180910390a45050505050565b600073ffffffffffffffffffffffffffffffffffffffff168473ffffffffffffffffffffffffffffffffffffffff161415611c95576040517f08c379a0000000000000000000000000000000000000000000000000000000008152600401611c8c906139c3565b60405180910390fd5b8151835114611cd9576040517f08c379a0000000000000000000000000000000000000000000000000000000008152600401611cd090613780565b60405180910390fd5b6000611ce361130d565b9050611cf4816000878787876120c5565b60005b8451811015611dad57838181518110611d1357611d1261339d565b5b6020026020010151600080878481518110611d3157611d3061339d565b5b6020026020010151815260200190815260200160002060008873ffffffffffffffffffffffffffffffffffffffff1673ffffffffffffffffffffffffffffffffffffffff1681526020019081526020016000206000828254611d9391906138c4565b925050819055508080611da5906133fb565b915050611cf7565b508473ffffffffffffffffffffffffffffffffffffffff16600073ffffffffffffffffffffffffffffffffffffffff168273ffffffffffffffffffffffffffffffffffffffff167f4a39dc06d4c0dbc64b70af90fd698a233a518aa5d07e595d983b8c0526c8f7fb8787604051611e2592919061391a565b60405180910390a4611e3c816000878787876120cd565b5050505050565b600073ffffffffffffffffffffffffffffffffffffffff168473ffffffffffffffffffffffffffffffffffffffff161415611eb3576040517f08c379a0000000000000000000000000000000000000000000000000000000008152600401611eaa90613812565b60405180910390fd5b6000611ebd61130d565b9050611edd818787611ece886122a5565b611ed7886122a5565b876120c5565b600080600086815260200190815260200160002060008873ffffffffffffffffffffffffffffffffffffffff1673ffffffffffffffffffffffffffffffffffffffff16815260200190815260200160002054905083811015611f74576040517f08c379a0000000000000000000000000000000000000000000000000000000008152600401611f6b906138a4565b60405180910390fd5b83810360008087815260200190815260200160002060008973ffffffffffffffffffffffffffffffffffffffff1673ffffffffffffffffffffffffffffffffffffffff168152602001908152602001600020819055508360008087815260200190815260200160002060008873ffffffffffffffffffffffffffffffffffffffff1673ffffffffffffffffffffffffffffffffffffffff168152602001908152602001600020600082825461202991906138c4565b925050819055508573ffffffffffffffffffffffffffffffffffffffff168773ffffffffffffffffffffffffffffffffffffffff168373ffffffffffffffffffffffffffffffffffffffff167fc3d58168c5ae7397731d063d5bbf3d657854427343f4c083240f7aacaa2d0f6288886040516120a6929190613525565b60405180910390a46120bc82888888888861231f565b50505050505050565b505050505050565b6120ec8473ffffffffffffffffffffffffffffffffffffffff166124f7565b1561229d578373ffffffffffffffffffffffffffffffffffffffff1663bc197c8187878686866040518663ffffffff1660e01b8152600401612132959493929190613bee565b6020604051808303816000875af192505050801561216e57506040513d601f19601f8201168201806040525081019061216b9190613c6b565b60015b6122145761217a613ca5565b806308c379a014156121d7575061218f613cc7565b8061219a57506121d9565b806040517f08c379a00000000000000000000000000000000000000000000000000000000081526004016121ce9190612840565b60405180910390fd5b505b6040517f08c379a000000000000000000000000000000000000000000000000000000000815260040161220b90613dcf565b60405180910390fd5b63bc197c8160e01b7bffffffffffffffffffffffffffffffffffffffffffffffffffffffff1916817bffffffffffffffffffffffffffffffffffffffffffffffffffffffff19161461229b576040517f08c379a000000000000000000000000000000000000000000000000000000000815260040161229290613e61565b60405180910390fd5b505b505050505050565b60606000600167ffffffffffffffff8111156122c4576122c3612867565b5b6040519080825280602002602001820160405280156122f25781602001602082028036833780820191505090505b509050828160008151811061230a5761230961339d565b5b60200260200101818152505080915050919050565b61233e8473ffffffffffffffffffffffffffffffffffffffff166124f7565b156124ef578373ffffffffffffffffffffffffffffffffffffffff1663f23a6e6187878686866040518663ffffffff1660e01b8152600401612384959493929190613e81565b6020604051808303816000875af19250505080156123c057506040513d601f19601f820116820180604052508101906123bd9190613c6b565b60015b612466576123cc613ca5565b806308c379a0141561242957506123e1613cc7565b806123ec575061242b565b806040517f08c379a00000000000000000000000000000000000000000000000000000000081526004016124209190612840565b60405180910390fd5b505b6040517f08c379a000000000000000000000000000000000000000000000000000000000815260040161245d90613dcf565b60405180910390fd5b63f23a6e6160e01b7bffffffffffffffffffffffffffffffffffffffffffffffffffffffff1916817bffffffffffffffffffffffffffffffffffffffffffffffffffffffff1916146124ed576040517f08c379a00000000000000000000000000000000000000000000000000000000081526004016124e490613e61565b60405180910390fd5b505b505050505050565b600080823b905060008111915050919050565b82805461251690613247565b90600052602060002090601f016020900481019282612538576000855561257f565b82601f1061255157805160ff191683800117855561257f565b8280016001018555821561257f579182015b8281111561257e578251825591602001919060010190612563565b5b50905061258c9190612590565b5090565b5b808211156125a9576000816000905550600101612591565b5090565b6000604051905090565b600080fd5b600080fd5b600073ffffffffffffffffffffffffffffffffffffffff82169050919050565b60006125ec826125c1565b9050919050565b6125fc816125e1565b811461260757600080fd5b50565b600081359050612619816125f3565b92915050565b6000819050919050565b6126328161261f565b811461263d57600080fd5b50565b60008135905061264f81612629565b92915050565b6000806040838503121561266c5761266b6125b7565b5b600061267a8582860161260a565b925050602061268b85828601612640565b9150509250929050565b61269e8161261f565b82525050565b60006020820190506126b96000830184612695565b92915050565b60007fffffffff0000000000000000000000000000000000000000000000000000000082169050919050565b6126f4816126bf565b81146126ff57600080fd5b50565b600081359050612711816126eb565b92915050565b60006020828403121561272d5761272c6125b7565b5b600061273b84828501612702565b91505092915050565b60008115159050919050565b61275981612744565b82525050565b60006020820190506127746000830184612750565b92915050565b6000602082840312156127905761278f6125b7565b5b600061279e84828501612640565b91505092915050565b600081519050919050565b600082825260208201905092915050565b60005b838110156127e15780820151818401526020810190506127c6565b838111156127f0576000848401525b50505050565b6000601f19601f8301169050919050565b6000612812826127a7565b61281c81856127b2565b935061282c8185602086016127c3565b612835816127f6565b840191505092915050565b6000602082019050818103600083015261285a8184612807565b905092915050565b600080fd5b7f4e487b7100000000000000000000000000000000000000000000000000000000600052604160045260246000fd5b61289f826127f6565b810181811067ffffffffffffffff821117156128be576128bd612867565b5b80604052505050565b60006128d16125ad565b90506128dd8282612896565b919050565b600067ffffffffffffffff8211156128fd576128fc612867565b5b602082029050602081019050919050565b600080fd5b6000612926612921846128e2565b6128c7565b905080838252602082019050602084028301858111156129495761294861290e565b5b835b81811015612972578061295e8882612640565b84526020840193505060208101905061294b565b5050509392505050565b600082601f83011261299157612990612862565b5b81356129a1848260208601612913565b91505092915050565b600080fd5b600067ffffffffffffffff8211156129ca576129c9612867565b5b6129d3826127f6565b9050602081019050919050565b82818337600083830152505050565b6000612a026129fd846129af565b6128c7565b905082815260208101848484011115612a1e57612a1d6129aa565b5b612a298482856129e0565b509392505050565b600082601f830112612a4657612a45612862565b5b8135612a568482602086016129ef565b91505092915050565b600080600080600060a08688031215612a7b57612a7a6125b7565b5b6000612a898882890161260a565b9550506020612a9a8882890161260a565b945050604086013567ffffffffffffffff811115612abb57612aba6125bc565b5b612ac78882890161297c565b935050606086013567ffffffffffffffff811115612ae857612ae76125bc565b5b612af48882890161297c565b925050608086013567ffffffffffffffff811115612b1557612b146125bc565b5b612b2188828901612a31565b9150509295509295909350565b600067ffffffffffffffff821115612b4957612b48612867565b5b602082029050602081019050919050565b6000612b6d612b6884612b2e565b6128c7565b90508083825260208201905060208402830185811115612b9057612b8f61290e565b5b835b81811015612bb95780612ba5888261260a565b845260208401935050602081019050612b92565b5050509392505050565b600082601f830112612bd857612bd7612862565b5b8135612be8848260208601612b5a565b91505092915050565b60008060408385031215612c0857612c076125b7565b5b600083013567ffffffffffffffff811115612c2657612c256125bc565b5b612c3285828601612bc3565b925050602083013567ffffffffffffffff811115612c5357612c526125bc565b5b612c5f8582860161297c565b9150509250929050565b600081519050919050565b600082825260208201905092915050565b6000819050602082019050919050565b612c9e8161261f565b82525050565b6000612cb08383612c95565b60208301905092915050565b6000602082019050919050565b6000612cd482612c69565b612cde8185612c74565b9350612ce983612c85565b8060005b83811015612d1a578151612d018882612ca4565b9750612d0c83612cbc565b925050600181019050612ced565b5085935050505092915050565b60006020820190508181036000830152612d418184612cc9565b905092915050565b600067ffffffffffffffff821115612d6457612d63612867565b5b612d6d826127f6565b9050602081019050919050565b6000612d8d612d8884612d49565b6128c7565b905082815260208101848484011115612da957612da86129aa565b5b612db48482856129e0565b509392505050565b600082601f830112612dd157612dd0612862565b5b8135612de1848260208601612d7a565b91505092915050565b600080600060608486031215612e0357612e026125b7565b5b6000612e1186828701612640565b9350506020612e228682870161260a565b925050604084013567ffffffffffffffff811115612e4357612e426125bc565b5b612e4f86828701612dbc565b9150509250925092565b612e6281612744565b8114612e6d57600080fd5b50565b600081359050612e7f81612e59565b92915050565b60008060408385031215612e9c57612e9b6125b7565b5b6000612eaa8582860161260a565b9250506020612ebb85828601612e70565b9150509250929050565b600060208284031215612edb57612eda6125b7565b5b6000612ee98482850161260a565b91505092915050565b612efb816125e1565b82525050565b6000602082019050612f166000830184612ef2565b92915050565b60008060408385031215612f3357612f326125b7565b5b6000612f4185828601612640565b9250506020612f5285828601612640565b9150509250929050565b600080600060608486031215612f7557612f746125b7565b5b6000612f838682870161260a565b935050602084013567ffffffffffffffff811115612fa457612fa36125bc565b5b612fb08682870161297c565b925050604084013567ffffffffffffffff811115612fd157612fd06125bc565b5b612fdd8682870161297c565b9150509250925092565b60008060408385031215612ffe57612ffd6125b7565b5b600061300c8582860161260a565b925050602061301d8582860161260a565b9150509250929050565b600080600080600060a08688031215613043576130426125b7565b5b60006130518882890161260a565b95505060206130628882890161260a565b945050604061307388828901612640565b935050606061308488828901612640565b925050608086013567ffffffffffffffff8111156130a5576130a46125bc565b5b6130b188828901612a31565b9150509295509295909350565b600080604083850312156130d5576130d46125b7565b5b60006130e385828601612640565b925050602083013567ffffffffffffffff811115613104576131036125bc565b5b61311085828601612dbc565b9150509250929050565b7f455243313135353a2062616c616e636520717565727920666f7220746865207a60008201527f65726f2061646472657373000000000000000000000000000000000000000000602082015250565b6000613176602b836127b2565b91506131818261311a565b604082019050919050565b600060208201905081810360008301526131a581613169565b9050919050565b7f496e76616c696420746f6b656e49640000000000000000000000000000000000600082015250565b60006131e2600f836127b2565b91506131ed826131ac565b602082019050919050565b60006020820190508181036000830152613211816131d5565b9050919050565b7f4e487b7100000000000000000000000000000000000000000000000000000000600052602260045260246000fd5b6000600282049050600182168061325f57607f821691505b6020821081141561327357613272613218565b5b50919050565b7f455243313135353a207472616e736665722063616c6c6572206973206e6f742060008201527f6f776e6572206e6f7220617070726f7665640000000000000000000000000000602082015250565b60006132d56032836127b2565b91506132e082613279565b604082019050919050565b60006020820190508181036000830152613304816132c8565b9050919050565b7f455243313135353a206163636f756e747320616e6420696473206c656e67746860008201527f206d69736d617463680000000000000000000000000000000000000000000000602082015250565b60006133676029836127b2565b91506133728261330b565b604082019050919050565b600060208201905081810360008301526133968161335a565b9050919050565b7f4e487b7100000000000000000000000000000000000000000000000000000000600052603260045260246000fd5b7f4e487b7100000000000000000000000000000000000000000000000000000000600052601160045260246000fd5b60006134068261261f565b91507fffffffffffffffffffffffffffffffffffffffffffffffffffffffffffffffff821415613439576134386133cc565b5b600182019050919050565b7f4f776e61626c653a2063616c6c6572206973206e6f7420746865206f776e6572600082015250565b600061347a6020836127b2565b915061348582613444565b602082019050919050565b600060208201905081810360008301526134a98161346d565b9050919050565b60006080820190506134c56000830187612ef2565b6134d26020830186612695565b6134df6040830185612695565b81810360608301526134f18184612807565b905095945050505050565b60006040820190506135116000830185612ef2565b61351e6020830184612750565b9392505050565b600060408201905061353a6000830185612695565b6135476020830184612695565b9392505050565b7f4f70657261746f72207265717569726564000000000000000000000000000000600082015250565b60006135846011836127b2565b915061358f8261354e565b602082019050919050565b600060208201905081810360008301526135b381613577565b9050919050565b7f455243313135353a2063616c6c6572206973206e6f74206f776e6572206e6f7260008201527f20617070726f7665640000000000000000000000000000000000000000000000602082015250565b60006136166029836127b2565b9150613621826135ba565b604082019050919050565b6000602082019050818103600083015261364581613609565b9050919050565b7f4f776e61626c653a206e6577206f776e657220697320746865207a65726f206160008201527f6464726573730000000000000000000000000000000000000000000000000000602082015250565b60006136a86026836127b2565b91506136b38261364c565b604082019050919050565b600060208201905081810360008301526136d78161369b565b9050919050565b60006040820190506136f36000830185612695565b81810360208301526137058184612807565b90509392505050565b7f455243313135353a2069647320616e6420616d6f756e7473206c656e6774682060008201527f6d69736d61746368000000000000000000000000000000000000000000000000602082015250565b600061376a6028836127b2565b91506137758261370e565b604082019050919050565b600060208201905081810360008301526137998161375d565b9050919050565b7f455243313135353a207472616e7366657220746f20746865207a65726f20616460008201527f6472657373000000000000000000000000000000000000000000000000000000602082015250565b60006137fc6025836127b2565b9150613807826137a0565b604082019050919050565b6000602082019050818103600083015261382b816137ef565b9050919050565b7f455243313135353a20696e73756666696369656e742062616c616e636520666f60008201527f72207472616e7366657200000000000000000000000000000000000000000000602082015250565b600061388e602a836127b2565b915061389982613832565b604082019050919050565b600060208201905081810360008301526138bd81613881565b9050919050565b60006138cf8261261f565b91506138da8361261f565b9250827fffffffffffffffffffffffffffffffffffffffffffffffffffffffffffffffff0382111561390f5761390e6133cc565b5b828201905092915050565b600060408201905081810360008301526139348185612cc9565b905081810360208301526139488184612cc9565b90509392505050565b7f455243313135353a206d696e7420746f20746865207a65726f2061646472657360008201527f7300000000000000000000000000000000000000000000000000000000000000602082015250565b60006139ad6021836127b2565b91506139b882613951565b604082019050919050565b600060208201905081810360008301526139dc816139a0565b9050919050565b7f455243313135353a2073657474696e6720617070726f76616c2073746174757360008201527f20666f722073656c660000000000000000000000000000000000000000000000602082015250565b6000613a3f6029836127b2565b9150613a4a826139e3565b604082019050919050565b60006020820190508181036000830152613a6e81613a32565b9050919050565b7f455243313135353a206275726e2066726f6d20746865207a65726f206164647260008201527f6573730000000000000000000000000000000000000000000000000000000000602082015250565b6000613ad16023836127b2565b9150613adc82613a75565b604082019050919050565b60006020820190508181036000830152613b0081613ac4565b9050919050565b7f455243313135353a206275726e20616d6f756e7420657863656564732062616c60008201527f616e636500000000000000000000000000000000000000000000000000000000602082015250565b6000613b636024836127b2565b9150613b6e82613b07565b604082019050919050565b60006020820190508181036000830152613b9281613b56565b9050919050565b600081519050919050565b600082825260208201905092915050565b6000613bc082613b99565b613bca8185613ba4565b9350613bda8185602086016127c3565b613be3816127f6565b840191505092915050565b600060a082019050613c036000830188612ef2565b613c106020830187612ef2565b8181036040830152613c228186612cc9565b90508181036060830152613c368185612cc9565b90508181036080830152613c4a8184613bb5565b90509695505050505050565b600081519050613c65816126eb565b92915050565b600060208284031215613c8157613c806125b7565b5b6000613c8f84828501613c56565b91505092915050565b60008160e01c9050919050565b600060033d1115613cc45760046000803e613cc1600051613c98565b90505b90565b600060443d1015613cd757613d5a565b613cdf6125ad565b60043d036004823e80513d602482011167ffffffffffffffff82111715613d07575050613d5a565b808201805167ffffffffffffffff811115613d255750505050613d5a565b80602083010160043d038501811115613d42575050505050613d5a565b613d5182602001850186612896565b82955050505050505b90565b7f455243313135353a207472616e7366657220746f206e6f6e204552433131353560008201527f526563656976657220696d706c656d656e746572000000000000000000000000602082015250565b6000613db96034836127b2565b9150613dc482613d5d565b604082019050919050565b60006020820190508181036000830152613de881613dac565b9050919050565b7f455243313135353a204552433131353552656365697665722072656a6563746560008201527f6420746f6b656e73000000000000000000000000000000000000000000000000602082015250565b6000613e4b6028836127b2565b9150613e5682613def565b604082019050919050565b60006020820190508181036000830152613e7a81613e3e565b9050919050565b600060a082019050613e966000830188612ef2565b613ea36020830187612ef2565b613eb06040830186612695565b613ebd6060830185612695565b8181036080830152613ecf8184613bb5565b9050969550505050505056fea2646970667358221220daf1a9d438f31629393831e3330e84c76c51fb8f8de020b102a68b3a93e4984e64736f6c634300080a0033",
  "immutableReferences": {},
  "source": "// SPDX-License-Identifier: MIT\npragma solidity ^0.8.0;\npragma abicoder v2;\n\nimport \"@openzeppelin/contracts/token/ERC1155/ERC1155.sol\";\nimport \"@openzeppelin/contracts/access/Ownable.sol\";\nimport \"@openzeppelin/contracts/utils/Counters.sol\";\nimport \"./INFTFactory.sol\";\n\ncontract NextItem is ERC1155, INFTFactory, Ownable {\n\n    using Counters for Counters.Counter;\n    Counters.Counter private _tokenIds;\n\n    mapping(address => bool) private _operators;\n    mapping(uint256 => string) private _metadata;\n    mapping(uint256 => address) private _creators;\n\n    event NewItemMinted(\n        address indexed sender,\n        address creator,\n        uint256 tokenId,\n        uint256 quantity,\n        string metadata\n    );\n\n    event ItemMinted(\n        address indexed sender,\n        uint256 tokenId,\n        uint256 quantity\n    );\n\n    event ItemBurned(\n        address indexed sender,\n        uint256 tokenId,\n        uint256 quantity\n    );\n\n    event NextItemOperatorUpdated(\n        address indexed sender,\n        address operator,\n        bool approved\n    );\n\n    event ItemMetadataUpdated(\n        address indexed sender,\n        uint256 tokenId,\n        string metadata\n    );\n\n    constructor(string memory baseURI) ERC1155(baseURI) {\n        _operators[msg.sender] = true;\n    }\n\n    modifier isValidTokenId(uint256 tokenId) {\n        require(tokenId < _tokenIds.current(), \"Invalid tokenId\");\n        _;\n    }\n\n    modifier onlyOperators() {\n        require(_operators[msg.sender], \"Operator required\");\n        _;\n    }\n\n    function updateOperator(address operator, bool approved)\n        public\n        onlyOwner\n    {\n        _operators[operator] = approved;\n        emit NextItemOperatorUpdated(msg.sender, operator, approved);\n    }\n\n    function isOperator(address addr)\n        public\n        view\n        returns (bool)\n    {\n        return _operators[addr];\n    }\n\n    function mintNewItem(uint256 quantity, address creator, string memory metadata)\n        public \n        onlyOwner \n    {\n        uint256 tokenId = _tokenIds.current();\n        _mint(msg.sender, tokenId, quantity, \"\");\n        _creators[tokenId] = creator;\n        _metadata[tokenId] = metadata;\n        _tokenIds.increment();\n        \n        emit NewItemMinted(msg.sender, creator, tokenId, quantity, metadata);\n    }\n\n    function updateItemMetadata(uint256 tokenId, string memory metadata)\n        public \n        onlyOwner\n        isValidTokenId(tokenId)\n    {\n        _metadata[tokenId] = metadata;\n\n        emit ItemMetadataUpdated(msg.sender, tokenId, metadata);\n    }\n\n    function uri(uint256 tokenId)\n        public view override \n        isValidTokenId(tokenId)\n        returns (string memory)\n    {\n        return _metadata[tokenId];\n    }\n\n    function mintMoreItem(uint256 tokenId, uint256 quantity)\n        public \n        onlyOwner\n        isValidTokenId(tokenId)\n    {\n        _mint(msg.sender, tokenId, quantity, \"\");\n        emit ItemMinted(owner(), tokenId, quantity);\n    }\n\n    function burnItem(uint256 tokenId, uint256 quantity)\n        public \n        onlyOperators\n        isValidTokenId(tokenId)\n    {\n        _burn(msg.sender, tokenId, quantity);\n        emit ItemBurned(owner(), tokenId, quantity);\n    }\n\n    function mintBatch(address recipient, uint256[] memory itemIds, uint256[] memory amounts)\n        public\n        onlyOperators   // improve suggestion: only allow for unpacking\n    {\n        _mintBatch(recipient, itemIds, amounts, \"0x0\");\n    }\n\n    function getUniqueTokenNum()\n        public \n        view \n        virtual override \n        returns (uint256)\n    {\n        return _tokenIds.current();\n    }\n}",
  "sourcePath": "/home/hungnd/workspace/nextverse-marketplace/contracts/NextItem.sol",
  "compiler": {
    "name": "solc",
    "version": "0.8.10+commit.fc410830.Emscripten.clang"
  },
  "schemaVersion": "3.4.3",
  "updatedAt": "2022-05-06T03:32:59.327Z",
  "networkType": "ethereum",
  "devdoc": {
    "kind": "dev",
    "methods": {
      "balanceOf(address,uint256)": {
        "details": "See {IERC1155-balanceOf}. Requirements: - `account` cannot be the zero address."
      },
      "balanceOfBatch(address[],uint256[])": {
        "details": "See {IERC1155-balanceOfBatch}. Requirements: - `accounts` and `ids` must have the same length."
      },
      "isApprovedForAll(address,address)": {
        "details": "See {IERC1155-isApprovedForAll}."
      },
      "owner()": {
        "details": "Returns the address of the current owner."
      },
      "renounceOwnership()": {
        "details": "Leaves the contract without owner. It will not be possible to call `onlyOwner` functions anymore. Can only be called by the current owner. NOTE: Renouncing ownership will leave the contract without an owner, thereby removing any functionality that is only available to the owner."
      },
      "safeBatchTransferFrom(address,address,uint256[],uint256[],bytes)": {
        "details": "See {IERC1155-safeBatchTransferFrom}."
      },
      "safeTransferFrom(address,address,uint256,uint256,bytes)": {
        "details": "See {IERC1155-safeTransferFrom}."
      },
      "setApprovalForAll(address,bool)": {
        "details": "See {IERC1155-setApprovalForAll}."
      },
      "supportsInterface(bytes4)": {
        "details": "See {IERC165-supportsInterface}."
      },
      "transferOwnership(address)": {
        "details": "Transfers ownership of the contract to a new account (`newOwner`). Can only be called by the current owner."
      }
    },
    "version": 1
  },
  "userdoc": {
    "kind": "user",
    "methods": {},
    "version": 1
  }
}