{
  "contractName": "NextPack",
  "abi": [
    {
      "inputs": [
        {
          "internalType": "string",
          "name": "baseURI",
          "type": "string"
        }
      ],
      "stateMutability": "nonpayable",
      "type": "constructor"
    },
    {
      "anonymous": false,
      "inputs": [
        {
          "indexed": true,
          "internalType": "address",
          "name": "account",
          "type": "address"
        },
        {
          "indexed": true,
          "internalType": "address",
          "name": "operator",
          "type": "address"
        },
        {
          "indexed": false,
          "internalType": "bool",
          "name": "approved",
          "type": "bool"
        }
      ],
      "name": "ApprovalForAll",
      "type": "event"
    },
    {
      "anonymous": false,
      "inputs": [
        {
          "indexed": true,
          "internalType": "address",
          "name": "sender",
          "type": "address"
        },
        {
          "components": [
            {
              "internalType": "bool",
              "name": "availableToUnpack",
              "type": "bool"
            },
            {
              "internalType": "uint256",
              "name": "id",
              "type": "uint256"
            },
            {
              "internalType": "uint256[]",
              "name": "itemIds",
              "type": "uint256[]"
            },
            {
              "internalType": "string",
              "name": "metadata",
              "type": "string"
            }
          ],
          "indexed": false,
          "internalType": "struct NextPack.NPack",
          "name": "pack",
          "type": "tuple"
        },
        {
          "indexed": false,
          "internalType": "uint256",
          "name": "quantity",
          "type": "uint256"
        }
      ],
      "name": "NewPackMinted",
      "type": "event"
    },
    {
      "anonymous": false,
      "inputs": [
        {
          "indexed": true,
          "internalType": "address",
          "name": "sender",
          "type": "address"
        },
        {
          "indexed": false,
          "internalType": "address",
          "name": "operator",
          "type": "address"
        },
        {
          "indexed": false,
          "internalType": "bool",
          "name": "approved",
          "type": "bool"
        }
      ],
      "name": "NextPackOperatorUpdated",
      "type": "event"
    },
    {
      "anonymous": false,
      "inputs": [
        {
          "indexed": true,
          "internalType": "address",
          "name": "previousOwner",
          "type": "address"
        },
        {
          "indexed": true,
          "internalType": "address",
          "name": "newOwner",
          "type": "address"
        }
      ],
      "name": "OwnershipTransferred",
      "type": "event"
    },
    {
      "anonymous": false,
      "inputs": [
        {
          "indexed": true,
          "internalType": "address",
          "name": "sender",
          "type": "address"
        },
        {
          "indexed": false,
          "internalType": "uint256",
          "name": "id",
          "type": "uint256"
        },
        {
          "indexed": false,
          "internalType": "uint256",
          "name": "quantity",
          "type": "uint256"
        }
      ],
      "name": "PackBurned",
      "type": "event"
    },
    {
      "anonymous": false,
      "inputs": [
        {
          "indexed": true,
          "internalType": "address",
          "name": "sender",
          "type": "address"
        },
        {
          "indexed": false,
          "internalType": "uint256",
          "name": "id",
          "type": "uint256"
        },
        {
          "indexed": false,
          "internalType": "uint256[]",
          "name": "itemIds",
          "type": "uint256[]"
        }
      ],
      "name": "PackItemUpdated",
      "type": "event"
    },
    {
      "anonymous": false,
      "inputs": [
        {
          "indexed": true,
          "internalType": "address",
          "name": "sender",
          "type": "address"
        },
        {
          "indexed": false,
          "internalType": "uint256",
          "name": "id",
          "type": "uint256"
        },
        {
          "indexed": false,
          "internalType": "string",
          "name": "metadata",
          "type": "string"
        }
      ],
      "name": "PackMetadataUpdated",
      "type": "event"
    },
    {
      "anonymous": false,
      "inputs": [
        {
          "indexed": true,
          "internalType": "address",
          "name": "sender",
          "type": "address"
        },
        {
          "indexed": false,
          "internalType": "uint256",
          "name": "id",
          "type": "uint256"
        },
        {
          "indexed": false,
          "internalType": "uint256",
          "name": "quantity",
          "type": "uint256"
        }
      ],
      "name": "PackMinted",
      "type": "event"
    },
    {
      "anonymous": false,
      "inputs": [
        {
          "indexed": true,
          "internalType": "address",
          "name": "sender",
          "type": "address"
        },
        {
          "indexed": false,
          "internalType": "uint256",
          "name": "id",
          "type": "uint256"
        },
        {
          "indexed": false,
          "internalType": "bool",
          "name": "availableToUnpack",
          "type": "bool"
        }
      ],
      "name": "PackStatusUpdated",
      "type": "event"
    },
    {
      "anonymous": false,
      "inputs": [
        {
          "indexed": true,
          "internalType": "address",
          "name": "operator",
          "type": "address"
        },
        {
          "indexed": true,
          "internalType": "address",
          "name": "from",
          "type": "address"
        },
        {
          "indexed": true,
          "internalType": "address",
          "name": "to",
          "type": "address"
        },
        {
          "indexed": false,
          "internalType": "uint256[]",
          "name": "ids",
          "type": "uint256[]"
        },
        {
          "indexed": false,
          "internalType": "uint256[]",
          "name": "values",
          "type": "uint256[]"
        }
      ],
      "name": "TransferBatch",
      "type": "event"
    },
    {
      "anonymous": false,
      "inputs": [
        {
          "indexed": true,
          "internalType": "address",
          "name": "operator",
          "type": "address"
        },
        {
          "indexed": true,
          "internalType": "address",
          "name": "from",
          "type": "address"
        },
        {
          "indexed": true,
          "internalType": "address",
          "name": "to",
          "type": "address"
        },
        {
          "indexed": false,
          "internalType": "uint256",
          "name": "id",
          "type": "uint256"
        },
        {
          "indexed": false,
          "internalType": "uint256",
          "name": "value",
          "type": "uint256"
        }
      ],
      "name": "TransferSingle",
      "type": "event"
    },
    {
      "anonymous": false,
      "inputs": [
        {
          "indexed": false,
          "internalType": "string",
          "name": "value",
          "type": "string"
        },
        {
          "indexed": true,
          "internalType": "uint256",
          "name": "id",
          "type": "uint256"
        }
      ],
      "name": "URI",
      "type": "event"
    },
    {
      "anonymous": false,
      "inputs": [
        {
          "indexed": true,
          "internalType": "address",
          "name": "sender",
          "type": "address"
        },
        {
          "indexed": false,
          "internalType": "uint256",
          "name": "id",
          "type": "uint256"
        }
      ],
      "name": "Unpacked",
      "type": "event"
    },
    {
      "inputs": [
        {
          "internalType": "address",
          "name": "account",
          "type": "address"
        },
        {
          "internalType": "uint256",
          "name": "id",
          "type": "uint256"
        }
      ],
      "name": "balanceOf",
      "outputs": [
        {
          "internalType": "uint256",
          "name": "",
          "type": "uint256"
        }
      ],
      "stateMutability": "view",
      "type": "function",
      "constant": true
    },
    {
      "inputs": [
        {
          "internalType": "address[]",
          "name": "accounts",
          "type": "address[]"
        },
        {
          "internalType": "uint256[]",
          "name": "ids",
          "type": "uint256[]"
        }
      ],
      "name": "balanceOfBatch",
      "outputs": [
        {
          "internalType": "uint256[]",
          "name": "",
          "type": "uint256[]"
        }
      ],
      "stateMutability": "view",
      "type": "function",
      "constant": true
    },
    {
      "inputs": [
        {
          "internalType": "address",
          "name": "account",
          "type": "address"
        },
        {
          "internalType": "address",
          "name": "operator",
          "type": "address"
        }
      ],
      "name": "isApprovedForAll",
      "outputs": [
        {
          "internalType": "bool",
          "name": "",
          "type": "bool"
        }
      ],
      "stateMutability": "view",
      "type": "function",
      "constant": true
    },
    {
      "inputs": [],
      "name": "owner",
      "outputs": [
        {
          "internalType": "address",
          "name": "",
          "type": "address"
        }
      ],
      "stateMutability": "view",
      "type": "function",
      "constant": true
    },
    {
      "inputs": [],
      "name": "renounceOwnership",
      "outputs": [],
      "stateMutability": "nonpayable",
      "type": "function"
    },
    {
      "inputs": [
        {
          "internalType": "address",
          "name": "from",
          "type": "address"
        },
        {
          "internalType": "address",
          "name": "to",
          "type": "address"
        },
        {
          "internalType": "uint256[]",
          "name": "ids",
          "type": "uint256[]"
        },
        {
          "internalType": "uint256[]",
          "name": "amounts",
          "type": "uint256[]"
        },
        {
          "internalType": "bytes",
          "name": "data",
          "type": "bytes"
        }
      ],
      "name": "safeBatchTransferFrom",
      "outputs": [],
      "stateMutability": "nonpayable",
      "type": "function"
    },
    {
      "inputs": [
        {
          "internalType": "address",
          "name": "from",
          "type": "address"
        },
        {
          "internalType": "address",
          "name": "to",
          "type": "address"
        },
        {
          "internalType": "uint256",
          "name": "id",
          "type": "uint256"
        },
        {
          "internalType": "uint256",
          "name": "amount",
          "type": "uint256"
        },
        {
          "internalType": "bytes",
          "name": "data",
          "type": "bytes"
        }
      ],
      "name": "safeTransferFrom",
      "outputs": [],
      "stateMutability": "nonpayable",
      "type": "function"
    },
    {
      "inputs": [
        {
          "internalType": "address",
          "name": "operator",
          "type": "address"
        },
        {
          "internalType": "bool",
          "name": "approved",
          "type": "bool"
        }
      ],
      "name": "setApprovalForAll",
      "outputs": [],
      "stateMutability": "nonpayable",
      "type": "function"
    },
    {
      "inputs": [
        {
          "internalType": "bytes4",
          "name": "interfaceId",
          "type": "bytes4"
        }
      ],
      "name": "supportsInterface",
      "outputs": [
        {
          "internalType": "bool",
          "name": "",
          "type": "bool"
        }
      ],
      "stateMutability": "view",
      "type": "function",
      "constant": true
    },
    {
      "inputs": [
        {
          "internalType": "address",
          "name": "newOwner",
          "type": "address"
        }
      ],
      "name": "transferOwnership",
      "outputs": [],
      "stateMutability": "nonpayable",
      "type": "function"
    },
    {
      "inputs": [
        {
          "internalType": "address",
          "name": "operator",
          "type": "address"
        },
        {
          "internalType": "bool",
          "name": "approved",
          "type": "bool"
        }
      ],
      "name": "updateOperator",
      "outputs": [],
      "stateMutability": "nonpayable",
      "type": "function"
    },
    {
      "inputs": [
        {
          "internalType": "address",
          "name": "addr",
          "type": "address"
        }
      ],
      "name": "isOperator",
      "outputs": [
        {
          "internalType": "bool",
          "name": "",
          "type": "bool"
        }
      ],
      "stateMutability": "view",
      "type": "function",
      "constant": true
    },
    {
      "inputs": [
        {
          "internalType": "address",
          "name": "_itemContract",
          "type": "address"
        }
      ],
      "name": "updateItemFactoryContract",
      "outputs": [],
      "stateMutability": "nonpayable",
      "type": "function"
    },
    {
      "inputs": [
        {
          "components": [
            {
              "internalType": "bool",
              "name": "availableToUnpack",
              "type": "bool"
            },
            {
              "internalType": "uint256",
              "name": "id",
              "type": "uint256"
            },
            {
              "internalType": "uint256[]",
              "name": "itemIds",
              "type": "uint256[]"
            },
            {
              "internalType": "string",
              "name": "metadata",
              "type": "string"
            }
          ],
          "internalType": "struct NextPack.NPack",
          "name": "pack",
          "type": "tuple"
        },
        {
          "internalType": "uint256",
          "name": "quantity",
          "type": "uint256"
        }
      ],
      "name": "mintNewPack",
      "outputs": [],
      "stateMutability": "nonpayable",
      "type": "function"
    },
    {
      "inputs": [
        {
          "internalType": "uint256",
          "name": "packId",
          "type": "uint256"
        },
        {
          "internalType": "uint256",
          "name": "quantity",
          "type": "uint256"
        }
      ],
      "name": "mintMorePack",
      "outputs": [],
      "stateMutability": "nonpayable",
      "type": "function"
    },
    {
      "inputs": [
        {
          "internalType": "uint256",
          "name": "packId",
          "type": "uint256"
        },
        {
          "internalType": "uint256[]",
          "name": "_itemIds",
          "type": "uint256[]"
        }
      ],
      "name": "updatePackItems",
      "outputs": [],
      "stateMutability": "nonpayable",
      "type": "function"
    },
    {
      "inputs": [
        {
          "internalType": "uint256",
          "name": "packId",
          "type": "uint256"
        },
        {
          "internalType": "bool",
          "name": "status",
          "type": "bool"
        }
      ],
      "name": "updatePackStatus",
      "outputs": [],
      "stateMutability": "nonpayable",
      "type": "function"
    },
    {
      "inputs": [
        {
          "internalType": "uint256",
          "name": "packId",
          "type": "uint256"
        },
        {
          "internalType": "string",
          "name": "metadata",
          "type": "string"
        }
      ],
      "name": "updatePackMetadata",
      "outputs": [],
      "stateMutability": "nonpayable",
      "type": "function"
    },
    {
      "inputs": [
        {
          "internalType": "uint256",
          "name": "packId",
          "type": "uint256"
        }
      ],
      "name": "uri",
      "outputs": [
        {
          "internalType": "string",
          "name": "",
          "type": "string"
        }
      ],
      "stateMutability": "view",
      "type": "function",
      "constant": true
    },
    {
      "inputs": [
        {
          "internalType": "uint256",
          "name": "packId",
          "type": "uint256"
        },
        {
          "internalType": "uint256",
          "name": "quantity",
          "type": "uint256"
        }
      ],
      "name": "burnPack",
      "outputs": [],
      "stateMutability": "nonpayable",
      "type": "function"
    },
    {
      "inputs": [
        {
          "internalType": "uint256",
          "name": "packId",
          "type": "uint256"
        }
      ],
      "name": "getPack",
      "outputs": [
        {
          "components": [
            {
              "internalType": "bool",
              "name": "availableToUnpack",
              "type": "bool"
            },
            {
              "internalType": "uint256",
              "name": "id",
              "type": "uint256"
            },
            {
              "internalType": "uint256[]",
              "name": "itemIds",
              "type": "uint256[]"
            },
            {
              "internalType": "string",
              "name": "metadata",
              "type": "string"
            }
          ],
          "internalType": "struct NextPack.NPack",
          "name": "",
          "type": "tuple"
        }
      ],
      "stateMutability": "view",
      "type": "function",
      "constant": true
    },
    {
      "inputs": [
        {
          "internalType": "uint256",
          "name": "packId",
          "type": "uint256"
        }
      ],
      "name": "unpack",
      "outputs": [],
      "stateMutability": "nonpayable",
      "type": "function"
    },
    {
      "inputs": [],
      "name": "getUniqueTokenNum",
      "outputs": [
        {
          "internalType": "uint256",
          "name": "",
          "type": "uint256"
        }
      ],
      "stateMutability": "view",
      "type": "function",
      "constant": true
    }
  ],
  "bytecode": "0x60806040523480156200001157600080fd5b506040516200534838038062005348833981810160405281019062000037919062000442565b8062000049816200010b60201b60201c565b506200006a6200005e6200012760201b60201c565b6200012f60201b60201c565b6001600660003373ffffffffffffffffffffffffffffffffffffffff1673ffffffffffffffffffffffffffffffffffffffff16815260200190815260200160002060006101000a81548160ff0219169083151502179055506000600760006101000a81548173ffffffffffffffffffffffffffffffffffffffff021916908373ffffffffffffffffffffffffffffffffffffffff16021790555050620004f8565b806002908051906020019062000123929190620001f5565b5050565b600033905090565b6000600360009054906101000a900473ffffffffffffffffffffffffffffffffffffffff16905081600360006101000a81548173ffffffffffffffffffffffffffffffffffffffff021916908373ffffffffffffffffffffffffffffffffffffffff1602179055508173ffffffffffffffffffffffffffffffffffffffff168173ffffffffffffffffffffffffffffffffffffffff167f8be0079c531659141344cd1fd0a4f28419497f9722a3daafe3b4186f6b6457e060405160405180910390a35050565b8280546200020390620004c2565b90600052602060002090601f01602090048101928262000227576000855562000273565b82601f106200024257805160ff191683800117855562000273565b8280016001018555821562000273579182015b828111156200027257825182559160200191906001019062000255565b5b50905062000282919062000286565b5090565b5b80821115620002a157600081600090555060010162000287565b5090565b6000604051905090565b600080fd5b600080fd5b600080fd5b600080fd5b6000601f19601f8301169050919050565b7f4e487b7100000000000000000000000000000000000000000000000000000000600052604160045260246000fd5b6200030e82620002c3565b810181811067ffffffffffffffff8211171562000330576200032f620002d4565b5b80604052505050565b600062000345620002a5565b905062000353828262000303565b919050565b600067ffffffffffffffff821115620003765762000375620002d4565b5b6200038182620002c3565b9050602081019050919050565b60005b83811015620003ae57808201518184015260208101905062000391565b83811115620003be576000848401525b50505050565b6000620003db620003d58462000358565b62000339565b905082815260208101848484011115620003fa57620003f9620002be565b5b620004078482856200038e565b509392505050565b600082601f830112620004275762000426620002b9565b5b815162000439848260208601620003c4565b91505092915050565b6000602082840312156200045b576200045a620002af565b5b600082015167ffffffffffffffff8111156200047c576200047b620002b4565b5b6200048a848285016200040f565b91505092915050565b7f4e487b7100000000000000000000000000000000000000000000000000000000600052602260045260246000fd5b60006002820490506001821680620004db57607f821691505b60208210811415620004f257620004f162000493565b5b50919050565b614e4080620005086000396000f3fe608060405234801561001057600080fd5b506004361061014c5760003560e01c8063895ec54c116100c3578063bdab747c1161007c578063bdab747c14610397578063dfba48ee146103b3578063e9783838146103cf578063e985e9c5146103eb578063f242432a1461041b578063f2fde38b146104375761014c565b8063895ec54c146102d95780638a02be68146103095780638b531491146103255780638da5cb5b146103415780639f0c94201461035f578063a22cb4651461037b5761014c565b80634e1273f4116101155780634e1273f41461021b57806368433c9f1461024b5780636d44a3b2146102675780636d70f7ae14610283578063715018a6146102b35780637a0d07b4146102bd5761014c565b8062fdd58e1461015157806301ffc9a714610181578063068d0c27146101b15780630e89341c146101cf5780632eb2c2d6146101ff575b600080fd5b61016b60048036038101906101669190612f30565b610453565b6040516101789190612f7f565b60405180910390f35b61019b60048036038101906101969190612ff2565b61051c565b6040516101a8919061303a565b60405180910390f35b6101b96105fe565b6040516101c69190612f7f565b60405180910390f35b6101e960048036038101906101e49190613055565b61060f565b6040516101f6919061311b565b60405180910390f35b6102196004803603810190610214919061333a565b610704565b005b610235600480360381019061023091906134cc565b6107a5565b6040516102429190613602565b60405180910390f35b61026560048036038101906102609190613624565b6108be565b005b610281600480360381019061027c91906136ac565b610a4e565b005b61029d600480360381019061029891906136ec565b610b75565b6040516102aa919061303a565b60405180910390f35b6102bb610bcb565b005b6102d760048036038101906102d29190613874565b610c53565b005b6102f360048036038101906102ee9190613055565b610e28565b6040516103009190613a02565b60405180910390f35b610323600480360381019061031e9190613055565b610faf565b005b61033f600480360381019061033a9190613a24565b61120d565b005b610349611345565b6040516103569190613a73565b60405180910390f35b610379600480360381019061037491906136ec565b61136f565b005b610395600480360381019061039091906136ac565b611502565b005b6103b160048036038101906103ac9190613a8e565b611518565b005b6103cd60048036038101906103c89190613a24565b611663565b005b6103e960048036038101906103e49190613ace565b61178b565b005b61040560048036038101906104009190613b2a565b6118d3565b604051610412919061303a565b60405180910390f35b61043560048036038101906104309190613b6a565b611967565b005b610451600480360381019061044c91906136ec565b611a08565b005b60008073ffffffffffffffffffffffffffffffffffffffff168373ffffffffffffffffffffffffffffffffffffffff1614156104c4576040517f08c379a00000000000000000000000000000000000000000000000000000000081526004016104bb90613c73565b60405180910390fd5b60008083815260200190815260200160002060008473ffffffffffffffffffffffffffffffffffffffff1673ffffffffffffffffffffffffffffffffffffffff16815260200190815260200160002054905092915050565b60007fd9b67a26000000000000000000000000000000000000000000000000000000007bffffffffffffffffffffffffffffffffffffffffffffffffffffffff1916827bffffffffffffffffffffffffffffffffffffffffffffffffffffffff191614806105e757507f0e89341c000000000000000000000000000000000000000000000000000000007bffffffffffffffffffffffffffffffffffffffffffffffffffffffff1916827bffffffffffffffffffffffffffffffffffffffffffffffffffffffff1916145b806105f757506105f682611b00565b5b9050919050565b600061060a6004611b6a565b905090565b60608161061c6004611b6a565b811061065d576040517f08c379a000000000000000000000000000000000000000000000000000000000815260040161065490613cdf565b60405180910390fd5b60056000848152602001908152602001600020600301805461067e90613d2e565b80601f01602080910402602001604051908101604052809291908181526020018280546106aa90613d2e565b80156106f75780601f106106cc576101008083540402835291602001916106f7565b820191906000526020600020905b8154815290600101906020018083116106da57829003601f168201915b5050505050915050919050565b61070c611b78565b73ffffffffffffffffffffffffffffffffffffffff168573ffffffffffffffffffffffffffffffffffffffff16148061075257506107518561074c611b78565b6118d3565b5b610791576040517f08c379a000000000000000000000000000000000000000000000000000000000815260040161078890613dd2565b60405180910390fd5b61079e8585858585611b80565b5050505050565b606081518351146107eb576040517f08c379a00000000000000000000000000000000000000000000000000000000081526004016107e290613e64565b60405180910390fd5b6000835167ffffffffffffffff81111561080857610807613142565b5b6040519080825280602002602001820160405280156108365781602001602082028036833780820191505090505b50905060005b84518110156108b35761088385828151811061085b5761085a613e84565b5b602002602001015185838151811061087657610875613e84565b5b6020026020010151610453565b82828151811061089657610895613e84565b5b602002602001018181525050806108ac90613ee2565b905061083c565b508091505092915050565b6108c6611b78565b73ffffffffffffffffffffffffffffffffffffffff166108e4611345565b73ffffffffffffffffffffffffffffffffffffffff161461093a576040517f08c379a000000000000000000000000000000000000000000000000000000000815260040161093190613f77565b60405180910390fd5b816109456004611b6a565b8110610986576040517f08c379a000000000000000000000000000000000000000000000000000000000815260040161097d90613cdf565b60405180910390fd5b61098f82611e94565b6109ce576040517f08c379a00000000000000000000000000000000000000000000000000000000081526004016109c590613fe3565b60405180910390fd5b816005600085815260200190815260200160002060020190805190602001906109f8929190612d6e565b503373ffffffffffffffffffffffffffffffffffffffff167f86fb3497d10eb16dbc4749e1f739592f19224391b9d22229a5b98bc76c6bd68c8484604051610a41929190614003565b60405180910390a2505050565b610a56611b78565b73ffffffffffffffffffffffffffffffffffffffff16610a74611345565b73ffffffffffffffffffffffffffffffffffffffff1614610aca576040517f08c379a0000000000000000000000000000000000000000000000000000000008152600401610ac190613f77565b60405180910390fd5b80600660008473ffffffffffffffffffffffffffffffffffffffff1673ffffffffffffffffffffffffffffffffffffffff16815260200190815260200160002060006101000a81548160ff0219169083151502179055503373ffffffffffffffffffffffffffffffffffffffff167f9cf9ba8f2229609ede45e0a4d5768fb98ec71cb3fe6ded18e76b5a2a319bbaff8383604051610b69929190614033565b60405180910390a25050565b6000600660008373ffffffffffffffffffffffffffffffffffffffff1673ffffffffffffffffffffffffffffffffffffffff16815260200190815260200160002060009054906101000a900460ff169050919050565b610bd3611b78565b73ffffffffffffffffffffffffffffffffffffffff16610bf1611345565b73ffffffffffffffffffffffffffffffffffffffff1614610c47576040517f08c379a0000000000000000000000000000000000000000000000000000000008152600401610c3e90613f77565b60405180910390fd5b610c516000612013565b565b610c5b611b78565b73ffffffffffffffffffffffffffffffffffffffff16610c79611345565b73ffffffffffffffffffffffffffffffffffffffff1614610ccf576040517f08c379a0000000000000000000000000000000000000000000000000000000008152600401610cc690613f77565b60405180910390fd5b610cdc8260400151611e94565b610d1b576040517f08c379a0000000000000000000000000000000000000000000000000000000008152600401610d12906140a8565b60405180910390fd5b6000610d276004611b6a565b9050610d3360046120d9565b610d4e338284604051806020016040528060008152506120ef565b80836020018181525050826005600083815260200190815260200160002060008201518160000160006101000a81548160ff021916908315150217905550602082015181600101556040820151816002019080519060200190610db2929190612d6e565b506060820151816003019080519060200190610dcf929190612dbb565b509050503373ffffffffffffffffffffffffffffffffffffffff167ff70b91e4df82fea309c30ed72e5b03d35cf0fa4e417051cdf6fa3587ed6f6ed88484604051610e1b9291906140c8565b60405180910390a2505050565b610e30612e41565b610e3a6004611b6a565b8210610e7b576040517f08c379a0000000000000000000000000000000000000000000000000000000008152600401610e7290613cdf565b60405180910390fd5b600560008381526020019081526020016000206040518060800160405290816000820160009054906101000a900460ff161515151581526020016001820154815260200160028201805480602002602001604051908101604052809291908181526020018280548015610f0d57602002820191906000526020600020905b815481526020019060010190808311610ef9575b50505050508152602001600382018054610f2690613d2e565b80601f0160208091040260200160405190810160405280929190818152602001828054610f5290613d2e565b8015610f9f5780601f10610f7457610100808354040283529160200191610f9f565b820191906000526020600020905b815481529060010190602001808311610f8257829003601f168201915b5050505050815250509050919050565b80610fba6004611b6a565b8110610ffb576040517f08c379a0000000000000000000000000000000000000000000000000000000008152600401610ff290613cdf565b60405180910390fd5b60006110073384610453565b90506000811161104c576040517f08c379a000000000000000000000000000000000000000000000000000000000815260040161104390614144565b60405180910390fd5b6000600560008581526020019081526020016000209050600115158160000160009054906101000a900460ff161515146110bb576040517f08c379a00000000000000000000000000000000000000000000000000000000081526004016110b2906141b0565b60405180910390fd5b6000816002018054905090506000811161110a576040517f08c379a00000000000000000000000000000000000000000000000000000000081526004016111019061421c565b60405180910390fd5b600061111582612285565b90506111233387600161231d565b600860009054906101000a900473ffffffffffffffffffffffffffffffffffffffff1673ffffffffffffffffffffffffffffffffffffffff1663d81d0a153385600201846040518463ffffffff1660e01b815260040161118593929190614312565b600060405180830381600087803b15801561119f57600080fd5b505af11580156111b3573d6000803e3d6000fd5b505050503373ffffffffffffffffffffffffffffffffffffffff167ff158c4f69c397e48fd0630abb0e822e62627ca893444224ca0eadf9eff3aeaa2876040516111fd9190612f7f565b60405180910390a2505050505050565b611215611b78565b73ffffffffffffffffffffffffffffffffffffffff16611233611345565b73ffffffffffffffffffffffffffffffffffffffff1614611289576040517f08c379a000000000000000000000000000000000000000000000000000000000815260040161128090613f77565b60405180910390fd5b816112946004611b6a565b81106112d5576040517f08c379a00000000000000000000000000000000000000000000000000000000081526004016112cc90613cdf565b60405180910390fd5b6112f0338484604051806020016040528060008152506120ef565b3373ffffffffffffffffffffffffffffffffffffffff167fe8efb9c541a3d3c8bea210698b103541de2684aeb38fd509a3ccab6d3bd697878484604051611338929190614357565b60405180910390a2505050565b6000600360009054906101000a900473ffffffffffffffffffffffffffffffffffffffff16905090565b611377611b78565b73ffffffffffffffffffffffffffffffffffffffff16611395611345565b73ffffffffffffffffffffffffffffffffffffffff16146113eb576040517f08c379a00000000000000000000000000000000000000000000000000000000081526004016113e290613f77565b60405180910390fd5b600073ffffffffffffffffffffffffffffffffffffffff168173ffffffffffffffffffffffffffffffffffffffff16141561145b576040517f08c379a0000000000000000000000000000000000000000000000000000000008152600401611452906143f2565b60405180910390fd5b80600760006101000a81548173ffffffffffffffffffffffffffffffffffffffff021916908373ffffffffffffffffffffffffffffffffffffffff160217905550600760009054906101000a900473ffffffffffffffffffffffffffffffffffffffff16600860006101000a81548173ffffffffffffffffffffffffffffffffffffffff021916908373ffffffffffffffffffffffffffffffffffffffff16021790555050565b61151461150d611b78565b838361253a565b5050565b611520611b78565b73ffffffffffffffffffffffffffffffffffffffff1661153e611345565b73ffffffffffffffffffffffffffffffffffffffff1614611594576040517f08c379a000000000000000000000000000000000000000000000000000000000815260040161158b90613f77565b60405180910390fd5b8161159f6004611b6a565b81106115e0576040517f08c379a00000000000000000000000000000000000000000000000000000000081526004016115d790613cdf565b60405180910390fd5b816005600085815260200190815260200160002060000160006101000a81548160ff0219169083151502179055503373ffffffffffffffffffffffffffffffffffffffff167f5aef4c6425449ae0b12de30cd4b0dde1aa5143d361d2a88d0e962202008561448484604051611656929190614412565b60405180910390a2505050565b61166b611b78565b73ffffffffffffffffffffffffffffffffffffffff16611689611345565b73ffffffffffffffffffffffffffffffffffffffff16146116df576040517f08c379a00000000000000000000000000000000000000000000000000000000081526004016116d690613f77565b60405180910390fd5b816116ea6004611b6a565b811061172b576040517f08c379a000000000000000000000000000000000000000000000000000000000815260040161172290613cdf565b60405180910390fd5b61173633848461231d565b3373ffffffffffffffffffffffffffffffffffffffff167f4198beadc646bf3183c6e709e668874def99714d58d0e37d303f78397fc5fae8848460405161177e929190614357565b60405180910390a2505050565b611793611b78565b73ffffffffffffffffffffffffffffffffffffffff166117b1611345565b73ffffffffffffffffffffffffffffffffffffffff1614611807576040517f08c379a00000000000000000000000000000000000000000000000000000000081526004016117fe90613f77565b60405180910390fd5b816118126004611b6a565b8110611853576040517f08c379a000000000000000000000000000000000000000000000000000000000815260040161184a90613cdf565b60405180910390fd5b8160056000858152602001908152602001600020600301908051906020019061187d929190612dbb565b503373ffffffffffffffffffffffffffffffffffffffff167ff50c05bf9af1e98a2181dd6da224917afe3ab905bfd9a8976e32a01a3769a2db84846040516118c692919061443b565b60405180910390a2505050565b6000600160008473ffffffffffffffffffffffffffffffffffffffff1673ffffffffffffffffffffffffffffffffffffffff16815260200190815260200160002060008373ffffffffffffffffffffffffffffffffffffffff1673ffffffffffffffffffffffffffffffffffffffff16815260200190815260200160002060009054906101000a900460ff16905092915050565b61196f611b78565b73ffffffffffffffffffffffffffffffffffffffff168573ffffffffffffffffffffffffffffffffffffffff1614806119b557506119b4856119af611b78565b6118d3565b5b6119f4576040517f08c379a00000000000000000000000000000000000000000000000000000000081526004016119eb906144dd565b60405180910390fd5b611a0185858585856126a7565b5050505050565b611a10611b78565b73ffffffffffffffffffffffffffffffffffffffff16611a2e611345565b73ffffffffffffffffffffffffffffffffffffffff1614611a84576040517f08c379a0000000000000000000000000000000000000000000000000000000008152600401611a7b90613f77565b60405180910390fd5b600073ffffffffffffffffffffffffffffffffffffffff168173ffffffffffffffffffffffffffffffffffffffff161415611af4576040517f08c379a0000000000000000000000000000000000000000000000000000000008152600401611aeb9061456f565b60405180910390fd5b611afd81612013565b50565b60007f01ffc9a7000000000000000000000000000000000000000000000000000000007bffffffffffffffffffffffffffffffffffffffffffffffffffffffff1916827bffffffffffffffffffffffffffffffffffffffffffffffffffffffff1916149050919050565b600081600001549050919050565b600033905090565b8151835114611bc4576040517f08c379a0000000000000000000000000000000000000000000000000000000008152600401611bbb90614601565b60405180910390fd5b600073ffffffffffffffffffffffffffffffffffffffff168473ffffffffffffffffffffffffffffffffffffffff161415611c34576040517f08c379a0000000000000000000000000000000000000000000000000000000008152600401611c2b90614693565b60405180910390fd5b6000611c3e611b78565b9050611c4e818787878787612929565b60005b8451811015611dff576000858281518110611c6f57611c6e613e84565b5b602002602001015190506000858381518110611c8e57611c8d613e84565b5b60200260200101519050600080600084815260200190815260200160002060008b73ffffffffffffffffffffffffffffffffffffffff1673ffffffffffffffffffffffffffffffffffffffff16815260200190815260200160002054905081811015611d2f576040517f08c379a0000000000000000000000000000000000000000000000000000000008152600401611d2690614725565b60405180910390fd5b81810360008085815260200190815260200160002060008c73ffffffffffffffffffffffffffffffffffffffff1673ffffffffffffffffffffffffffffffffffffffff168152602001908152602001600020819055508160008085815260200190815260200160002060008b73ffffffffffffffffffffffffffffffffffffffff1673ffffffffffffffffffffffffffffffffffffffff1681526020019081526020016000206000828254611de49190614745565b9250508190555050505080611df890613ee2565b9050611c51565b508473ffffffffffffffffffffffffffffffffffffffff168673ffffffffffffffffffffffffffffffffffffffff168273ffffffffffffffffffffffffffffffffffffffff167f4a39dc06d4c0dbc64b70af90fd698a233a518aa5d07e595d983b8c0526c8f7fb8787604051611e7692919061479b565b60405180910390a4611e8c818787878787612931565b505050505050565b60008073ffffffffffffffffffffffffffffffffffffffff16600760009054906101000a900473ffffffffffffffffffffffffffffffffffffffff1673ffffffffffffffffffffffffffffffffffffffff161415611f27576040517f08c379a0000000000000000000000000000000000000000000000000000000008152600401611f1e9061481e565b60405180910390fd5b6000600860009054906101000a900473ffffffffffffffffffffffffffffffffffffffff1673ffffffffffffffffffffffffffffffffffffffff1663068d0c276040518163ffffffff1660e01b8152600401602060405180830381865afa158015611f96573d6000803e3d6000fd5b505050506040513d601f19601f82011682018060405250810190611fba9190614853565b905060005b83518110156120075781848281518110611fdc57611fdb613e84565b5b602002602001015110611ff45760009250505061200e565b8080611fff90613ee2565b915050611fbf565b5060019150505b919050565b6000600360009054906101000a900473ffffffffffffffffffffffffffffffffffffffff16905081600360006101000a81548173ffffffffffffffffffffffffffffffffffffffff021916908373ffffffffffffffffffffffffffffffffffffffff1602179055508173ffffffffffffffffffffffffffffffffffffffff168173ffffffffffffffffffffffffffffffffffffffff167f8be0079c531659141344cd1fd0a4f28419497f9722a3daafe3b4186f6b6457e060405160405180910390a35050565b6001816000016000828254019250508190555050565b600073ffffffffffffffffffffffffffffffffffffffff168473ffffffffffffffffffffffffffffffffffffffff16141561215f576040517f08c379a0000000000000000000000000000000000000000000000000000000008152600401612156906148f2565b60405180910390fd5b6000612169611b78565b905061218a8160008761217b88612b09565b61218488612b09565b87612929565b8260008086815260200190815260200160002060008773ffffffffffffffffffffffffffffffffffffffff1673ffffffffffffffffffffffffffffffffffffffff16815260200190815260200160002060008282546121e99190614745565b925050819055508473ffffffffffffffffffffffffffffffffffffffff16600073ffffffffffffffffffffffffffffffffffffffff168273ffffffffffffffffffffffffffffffffffffffff167fc3d58168c5ae7397731d063d5bbf3d657854427343f4c083240f7aacaa2d0f628787604051612267929190614357565b60405180910390a461227e81600087878787612b83565b5050505050565b606060008267ffffffffffffffff8111156122a3576122a2613142565b5b6040519080825280602002602001820160405280156122d15781602001602082028036833780820191505090505b50905060005b838110156123135760018282815181106122f4576122f3613e84565b5b602002602001018181525050808061230b90613ee2565b9150506122d7565b5080915050919050565b600073ffffffffffffffffffffffffffffffffffffffff168373ffffffffffffffffffffffffffffffffffffffff16141561238d576040517f08c379a000000000000000000000000000000000000000000000000000000000815260040161238490614984565b60405180910390fd5b6000612397611b78565b90506123c7818560006123a987612b09565b6123b287612b09565b60405180602001604052806000815250612929565b600080600085815260200190815260200160002060008673ffffffffffffffffffffffffffffffffffffffff1673ffffffffffffffffffffffffffffffffffffffff1681526020019081526020016000205490508281101561245e576040517f08c379a000000000000000000000000000000000000000000000000000000000815260040161245590614a16565b60405180910390fd5b82810360008086815260200190815260200160002060008773ffffffffffffffffffffffffffffffffffffffff1673ffffffffffffffffffffffffffffffffffffffff16815260200190815260200160002081905550600073ffffffffffffffffffffffffffffffffffffffff168573ffffffffffffffffffffffffffffffffffffffff168373ffffffffffffffffffffffffffffffffffffffff167fc3d58168c5ae7397731d063d5bbf3d657854427343f4c083240f7aacaa2d0f62878760405161252b929190614357565b60405180910390a45050505050565b8173ffffffffffffffffffffffffffffffffffffffff168373ffffffffffffffffffffffffffffffffffffffff1614156125a9576040517f08c379a00000000000000000000000000000000000000000000000000000000081526004016125a090614aa8565b60405180910390fd5b80600160008573ffffffffffffffffffffffffffffffffffffffff1673ffffffffffffffffffffffffffffffffffffffff16815260200190815260200160002060008473ffffffffffffffffffffffffffffffffffffffff1673ffffffffffffffffffffffffffffffffffffffff16815260200190815260200160002060006101000a81548160ff0219169083151502179055508173ffffffffffffffffffffffffffffffffffffffff168373ffffffffffffffffffffffffffffffffffffffff167f17307eab39ab6107e8899845ad3d59bd9653f200f220920489ca2b5937696c318360405161269a919061303a565b60405180910390a3505050565b600073ffffffffffffffffffffffffffffffffffffffff168473ffffffffffffffffffffffffffffffffffffffff161415612717576040517f08c379a000000000000000000000000000000000000000000000000000000000815260040161270e90614693565b60405180910390fd5b6000612721611b78565b905061274181878761273288612b09565b61273b88612b09565b87612929565b600080600086815260200190815260200160002060008873ffffffffffffffffffffffffffffffffffffffff1673ffffffffffffffffffffffffffffffffffffffff168152602001908152602001600020549050838110156127d8576040517f08c379a00000000000000000000000000000000000000000000000000000000081526004016127cf90614725565b60405180910390fd5b83810360008087815260200190815260200160002060008973ffffffffffffffffffffffffffffffffffffffff1673ffffffffffffffffffffffffffffffffffffffff168152602001908152602001600020819055508360008087815260200190815260200160002060008873ffffffffffffffffffffffffffffffffffffffff1673ffffffffffffffffffffffffffffffffffffffff168152602001908152602001600020600082825461288d9190614745565b925050819055508573ffffffffffffffffffffffffffffffffffffffff168773ffffffffffffffffffffffffffffffffffffffff168373ffffffffffffffffffffffffffffffffffffffff167fc3d58168c5ae7397731d063d5bbf3d657854427343f4c083240f7aacaa2d0f62888860405161290a929190614357565b60405180910390a4612920828888888888612b83565b50505050505050565b505050505050565b6129508473ffffffffffffffffffffffffffffffffffffffff16612d5b565b15612b01578373ffffffffffffffffffffffffffffffffffffffff1663bc197c8187878686866040518663ffffffff1660e01b8152600401612996959493929190614b1d565b6020604051808303816000875af19250505080156129d257506040513d601f19601f820116820180604052508101906129cf9190614b9a565b60015b612a78576129de614bd4565b806308c379a01415612a3b57506129f3614bf6565b806129fe5750612a3d565b806040517f08c379a0000000000000000000000000000000000000000000000000000000008152600401612a32919061311b565b60405180910390fd5b505b6040517f08c379a0000000000000000000000000000000000000000000000000000000008152600401612a6f90614cfe565b60405180910390fd5b63bc197c8160e01b7bffffffffffffffffffffffffffffffffffffffffffffffffffffffff1916817bffffffffffffffffffffffffffffffffffffffffffffffffffffffff191614612aff576040517f08c379a0000000000000000000000000000000000000000000000000000000008152600401612af690614d90565b60405180910390fd5b505b505050505050565b60606000600167ffffffffffffffff811115612b2857612b27613142565b5b604051908082528060200260200182016040528015612b565781602001602082028036833780820191505090505b5090508281600081518110612b6e57612b6d613e84565b5b60200260200101818152505080915050919050565b612ba28473ffffffffffffffffffffffffffffffffffffffff16612d5b565b15612d53578373ffffffffffffffffffffffffffffffffffffffff1663f23a6e6187878686866040518663ffffffff1660e01b8152600401612be8959493929190614db0565b6020604051808303816000875af1925050508015612c2457506040513d601f19601f82011682018060405250810190612c219190614b9a565b60015b612cca57612c30614bd4565b806308c379a01415612c8d5750612c45614bf6565b80612c505750612c8f565b806040517f08c379a0000000000000000000000000000000000000000000000000000000008152600401612c84919061311b565b60405180910390fd5b505b6040517f08c379a0000000000000000000000000000000000000000000000000000000008152600401612cc190614cfe565b60405180910390fd5b63f23a6e6160e01b7bffffffffffffffffffffffffffffffffffffffffffffffffffffffff1916817bffffffffffffffffffffffffffffffffffffffffffffffffffffffff191614612d51576040517f08c379a0000000000000000000000000000000000000000000000000000000008152600401612d4890614d90565b60405180910390fd5b505b505050505050565b600080823b905060008111915050919050565b828054828255906000526020600020908101928215612daa579160200282015b82811115612da9578251825591602001919060010190612d8e565b5b509050612db79190612e6b565b5090565b828054612dc790613d2e565b90600052602060002090601f016020900481019282612de95760008555612e30565b82601f10612e0257805160ff1916838001178555612e30565b82800160010185558215612e30579182015b82811115612e2f578251825591602001919060010190612e14565b5b509050612e3d9190612e6b565b5090565b60405180608001604052806000151581526020016000815260200160608152602001606081525090565b5b80821115612e84576000816000905550600101612e6c565b5090565b6000604051905090565b600080fd5b600080fd5b600073ffffffffffffffffffffffffffffffffffffffff82169050919050565b6000612ec782612e9c565b9050919050565b612ed781612ebc565b8114612ee257600080fd5b50565b600081359050612ef481612ece565b92915050565b6000819050919050565b612f0d81612efa565b8114612f1857600080fd5b50565b600081359050612f2a81612f04565b92915050565b60008060408385031215612f4757612f46612e92565b5b6000612f5585828601612ee5565b9250506020612f6685828601612f1b565b9150509250929050565b612f7981612efa565b82525050565b6000602082019050612f946000830184612f70565b92915050565b60007fffffffff0000000000000000000000000000000000000000000000000000000082169050919050565b612fcf81612f9a565b8114612fda57600080fd5b50565b600081359050612fec81612fc6565b92915050565b60006020828403121561300857613007612e92565b5b600061301684828501612fdd565b91505092915050565b60008115159050919050565b6130348161301f565b82525050565b600060208201905061304f600083018461302b565b92915050565b60006020828403121561306b5761306a612e92565b5b600061307984828501612f1b565b91505092915050565b600081519050919050565b600082825260208201905092915050565b60005b838110156130bc5780820151818401526020810190506130a1565b838111156130cb576000848401525b50505050565b6000601f19601f8301169050919050565b60006130ed82613082565b6130f7818561308d565b935061310781856020860161309e565b613110816130d1565b840191505092915050565b6000602082019050818103600083015261313581846130e2565b905092915050565b600080fd5b7f4e487b7100000000000000000000000000000000000000000000000000000000600052604160045260246000fd5b61317a826130d1565b810181811067ffffffffffffffff8211171561319957613198613142565b5b80604052505050565b60006131ac612e88565b90506131b88282613171565b919050565b600067ffffffffffffffff8211156131d8576131d7613142565b5b602082029050602081019050919050565b600080fd5b60006132016131fc846131bd565b6131a2565b90508083825260208201905060208402830185811115613224576132236131e9565b5b835b8181101561324d57806132398882612f1b565b845260208401935050602081019050613226565b5050509392505050565b600082601f83011261326c5761326b61313d565b5b813561327c8482602086016131ee565b91505092915050565b600080fd5b600067ffffffffffffffff8211156132a5576132a4613142565b5b6132ae826130d1565b9050602081019050919050565b82818337600083830152505050565b60006132dd6132d88461328a565b6131a2565b9050828152602081018484840111156132f9576132f8613285565b5b6133048482856132bb565b509392505050565b600082601f8301126133215761332061313d565b5b81356133318482602086016132ca565b91505092915050565b600080600080600060a0868803121561335657613355612e92565b5b600061336488828901612ee5565b955050602061337588828901612ee5565b945050604086013567ffffffffffffffff81111561339657613395612e97565b5b6133a288828901613257565b935050606086013567ffffffffffffffff8111156133c3576133c2612e97565b5b6133cf88828901613257565b925050608086013567ffffffffffffffff8111156133f0576133ef612e97565b5b6133fc8882890161330c565b9150509295509295909350565b600067ffffffffffffffff82111561342457613423613142565b5b602082029050602081019050919050565b600061344861344384613409565b6131a2565b9050808382526020820190506020840283018581111561346b5761346a6131e9565b5b835b8181101561349457806134808882612ee5565b84526020840193505060208101905061346d565b5050509392505050565b600082601f8301126134b3576134b261313d565b5b81356134c3848260208601613435565b91505092915050565b600080604083850312156134e3576134e2612e92565b5b600083013567ffffffffffffffff81111561350157613500612e97565b5b61350d8582860161349e565b925050602083013567ffffffffffffffff81111561352e5761352d612e97565b5b61353a85828601613257565b9150509250929050565b600081519050919050565b600082825260208201905092915050565b6000819050602082019050919050565b61357981612efa565b82525050565b600061358b8383613570565b60208301905092915050565b6000602082019050919050565b60006135af82613544565b6135b9818561354f565b93506135c483613560565b8060005b838110156135f55781516135dc888261357f565b97506135e783613597565b9250506001810190506135c8565b5085935050505092915050565b6000602082019050818103600083015261361c81846135a4565b905092915050565b6000806040838503121561363b5761363a612e92565b5b600061364985828601612f1b565b925050602083013567ffffffffffffffff81111561366a57613669612e97565b5b61367685828601613257565b9150509250929050565b6136898161301f565b811461369457600080fd5b50565b6000813590506136a681613680565b92915050565b600080604083850312156136c3576136c2612e92565b5b60006136d185828601612ee5565b92505060206136e285828601613697565b9150509250929050565b60006020828403121561370257613701612e92565b5b600061371084828501612ee5565b91505092915050565b600080fd5b600080fd5b600067ffffffffffffffff82111561373e5761373d613142565b5b613747826130d1565b9050602081019050919050565b600061376761376284613723565b6131a2565b90508281526020810184848401111561378357613782613285565b5b61378e8482856132bb565b509392505050565b600082601f8301126137ab576137aa61313d565b5b81356137bb848260208601613754565b91505092915050565b6000608082840312156137da576137d9613719565b5b6137e460806131a2565b905060006137f484828501613697565b600083015250602061380884828501612f1b565b602083015250604082013567ffffffffffffffff81111561382c5761382b61371e565b5b61383884828501613257565b604083015250606082013567ffffffffffffffff81111561385c5761385b61371e565b5b61386884828501613796565b60608301525092915050565b6000806040838503121561388b5761388a612e92565b5b600083013567ffffffffffffffff8111156138a9576138a8612e97565b5b6138b5858286016137c4565b92505060206138c685828601612f1b565b9150509250929050565b6138d98161301f565b82525050565b600082825260208201905092915050565b60006138fb82613544565b61390581856138df565b935061391083613560565b8060005b83811015613941578151613928888261357f565b975061393383613597565b925050600181019050613914565b5085935050505092915050565b600082825260208201905092915050565b600061396a82613082565b613974818561394e565b935061398481856020860161309e565b61398d816130d1565b840191505092915050565b60006080830160008301516139b060008601826138d0565b5060208301516139c36020860182613570565b50604083015184820360408601526139db82826138f0565b915050606083015184820360608601526139f5828261395f565b9150508091505092915050565b60006020820190508181036000830152613a1c8184613998565b905092915050565b60008060408385031215613a3b57613a3a612e92565b5b6000613a4985828601612f1b565b9250506020613a5a85828601612f1b565b9150509250929050565b613a6d81612ebc565b82525050565b6000602082019050613a886000830184613a64565b92915050565b60008060408385031215613aa557613aa4612e92565b5b6000613ab385828601612f1b565b9250506020613ac485828601613697565b9150509250929050565b60008060408385031215613ae557613ae4612e92565b5b6000613af385828601612f1b565b925050602083013567ffffffffffffffff811115613b1457613b13612e97565b5b613b2085828601613796565b9150509250929050565b60008060408385031215613b4157613b40612e92565b5b6000613b4f85828601612ee5565b9250506020613b6085828601612ee5565b9150509250929050565b600080600080600060a08688031215613b8657613b85612e92565b5b6000613b9488828901612ee5565b9550506020613ba588828901612ee5565b9450506040613bb688828901612f1b565b9350506060613bc788828901612f1b565b925050608086013567ffffffffffffffff811115613be857613be7612e97565b5b613bf48882890161330c565b9150509295509295909350565b7f455243313135353a2062616c616e636520717565727920666f7220746865207a60008201527f65726f2061646472657373000000000000000000000000000000000000000000602082015250565b6000613c5d602b8361308d565b9150613c6882613c01565b604082019050919050565b60006020820190508181036000830152613c8c81613c50565b9050919050565b7f496e76616c6964207061636b4964000000000000000000000000000000000000600082015250565b6000613cc9600e8361308d565b9150613cd482613c93565b602082019050919050565b60006020820190508181036000830152613cf881613cbc565b9050919050565b7f4e487b7100000000000000000000000000000000000000000000000000000000600052602260045260246000fd5b60006002820490506001821680613d4657607f821691505b60208210811415613d5a57613d59613cff565b5b50919050565b7f455243313135353a207472616e736665722063616c6c6572206973206e6f742060008201527f6f776e6572206e6f7220617070726f7665640000000000000000000000000000602082015250565b6000613dbc60328361308d565b9150613dc782613d60565b604082019050919050565b60006020820190508181036000830152613deb81613daf565b9050919050565b7f455243313135353a206163636f756e747320616e6420696473206c656e67746860008201527f206d69736d617463680000000000000000000000000000000000000000000000602082015250565b6000613e4e60298361308d565b9150613e5982613df2565b604082019050919050565b60006020820190508181036000830152613e7d81613e41565b9050919050565b7f4e487b7100000000000000000000000000000000000000000000000000000000600052603260045260246000fd5b7f4e487b7100000000000000000000000000000000000000000000000000000000600052601160045260246000fd5b6000613eed82612efa565b91507fffffffffffffffffffffffffffffffffffffffffffffffffffffffffffffffff821415613f2057613f1f613eb3565b5b600182019050919050565b7f4f776e61626c653a2063616c6c6572206973206e6f7420746865206f776e6572600082015250565b6000613f6160208361308d565b9150613f6c82613f2b565b602082019050919050565b60006020820190508181036000830152613f9081613f54565b9050919050565b7f5061636b20636f6e7461696e7320696e76616c6964206974656d730000000000600082015250565b6000613fcd601b8361308d565b9150613fd882613f97565b602082019050919050565b60006020820190508181036000830152613ffc81613fc0565b9050919050565b60006040820190506140186000830185612f70565b818103602083015261402a81846135a4565b90509392505050565b60006040820190506140486000830185613a64565b614055602083018461302b565b9392505050565b7f5061636b20636f6e7461696e7320696e76616c6964206974656d496400000000600082015250565b6000614092601c8361308d565b915061409d8261405c565b602082019050919050565b600060208201905081810360008301526140c181614085565b9050919050565b600060408201905081810360008301526140e28185613998565b90506140f16020830184612f70565b9392505050565b7f496e73756666696369656e742062616c616e6365000000000000000000000000600082015250565b600061412e60148361308d565b9150614139826140f8565b602082019050919050565b6000602082019050818103600083015261415d81614121565b9050919050565b7f43616e6e6f7420756e7061636b00000000000000000000000000000000000000600082015250565b600061419a600d8361308d565b91506141a582614164565b602082019050919050565b600060208201905081810360008301526141c98161418d565b9050919050565b7f456d707479207061636b00000000000000000000000000000000000000000000600082015250565b6000614206600a8361308d565b9150614211826141d0565b602082019050919050565b60006020820190508181036000830152614235816141f9565b9050919050565b600081549050919050565b60008190508160005260206000209050919050565b60008160001c9050919050565b6000819050919050565b60006142866142818361425c565b614269565b9050919050565b60006142998254614273565b9050919050565b6000600182019050919050565b60006142b88261423c565b6142c2818561354f565b93506142cd83614247565b8060005b83811015614305576142e28261428d565b6142ec888261357f565b97506142f7836142a0565b9250506001810190506142d1565b5085935050505092915050565b60006060820190506143276000830186613a64565b818103602083015261433981856142ad565b9050818103604083015261434d81846135a4565b9050949350505050565b600060408201905061436c6000830185612f70565b6143796020830184612f70565b9392505050565b7f6974656d436f6e7472616374206d757374206e6f74206265207a65726f20616460008201527f6472657373000000000000000000000000000000000000000000000000000000602082015250565b60006143dc60258361308d565b91506143e782614380565b604082019050919050565b6000602082019050818103600083015261440b816143cf565b9050919050565b60006040820190506144276000830185612f70565b614434602083018461302b565b9392505050565b60006040820190506144506000830185612f70565b818103602083015261446281846130e2565b90509392505050565b7f455243313135353a2063616c6c6572206973206e6f74206f776e6572206e6f7260008201527f20617070726f7665640000000000000000000000000000000000000000000000602082015250565b60006144c760298361308d565b91506144d28261446b565b604082019050919050565b600060208201905081810360008301526144f6816144ba565b9050919050565b7f4f776e61626c653a206e6577206f776e657220697320746865207a65726f206160008201527f6464726573730000000000000000000000000000000000000000000000000000602082015250565b600061455960268361308d565b9150614564826144fd565b604082019050919050565b600060208201905081810360008301526145888161454c565b9050919050565b7f455243313135353a2069647320616e6420616d6f756e7473206c656e6774682060008201527f6d69736d61746368000000000000000000000000000000000000000000000000602082015250565b60006145eb60288361308d565b91506145f68261458f565b604082019050919050565b6000602082019050818103600083015261461a816145de565b9050919050565b7f455243313135353a207472616e7366657220746f20746865207a65726f20616460008201527f6472657373000000000000000000000000000000000000000000000000000000602082015250565b600061467d60258361308d565b915061468882614621565b604082019050919050565b600060208201905081810360008301526146ac81614670565b9050919050565b7f455243313135353a20696e73756666696369656e742062616c616e636520666f60008201527f72207472616e7366657200000000000000000000000000000000000000000000602082015250565b600061470f602a8361308d565b915061471a826146b3565b604082019050919050565b6000602082019050818103600083015261473e81614702565b9050919050565b600061475082612efa565b915061475b83612efa565b9250827fffffffffffffffffffffffffffffffffffffffffffffffffffffffffffffffff038211156147905761478f613eb3565b5b828201905092915050565b600060408201905081810360008301526147b581856135a4565b905081810360208301526147c981846135a4565b90509392505050565b7f6974656d436f6e7472616374206d757374206265207365740000000000000000600082015250565b600061480860188361308d565b9150614813826147d2565b602082019050919050565b60006020820190508181036000830152614837816147fb565b9050919050565b60008151905061484d81612f04565b92915050565b60006020828403121561486957614868612e92565b5b60006148778482850161483e565b91505092915050565b7f455243313135353a206d696e7420746f20746865207a65726f2061646472657360008201527f7300000000000000000000000000000000000000000000000000000000000000602082015250565b60006148dc60218361308d565b91506148e782614880565b604082019050919050565b6000602082019050818103600083015261490b816148cf565b9050919050565b7f455243313135353a206275726e2066726f6d20746865207a65726f206164647260008201527f6573730000000000000000000000000000000000000000000000000000000000602082015250565b600061496e60238361308d565b915061497982614912565b604082019050919050565b6000602082019050818103600083015261499d81614961565b9050919050565b7f455243313135353a206275726e20616d6f756e7420657863656564732062616c60008201527f616e636500000000000000000000000000000000000000000000000000000000602082015250565b6000614a0060248361308d565b9150614a0b826149a4565b604082019050919050565b60006020820190508181036000830152614a2f816149f3565b9050919050565b7f455243313135353a2073657474696e6720617070726f76616c2073746174757360008201527f20666f722073656c660000000000000000000000000000000000000000000000602082015250565b6000614a9260298361308d565b9150614a9d82614a36565b604082019050919050565b60006020820190508181036000830152614ac181614a85565b9050919050565b600081519050919050565b600082825260208201905092915050565b6000614aef82614ac8565b614af98185614ad3565b9350614b0981856020860161309e565b614b12816130d1565b840191505092915050565b600060a082019050614b326000830188613a64565b614b3f6020830187613a64565b8181036040830152614b5181866135a4565b90508181036060830152614b6581856135a4565b90508181036080830152614b798184614ae4565b90509695505050505050565b600081519050614b9481612fc6565b92915050565b600060208284031215614bb057614baf612e92565b5b6000614bbe84828501614b85565b91505092915050565b60008160e01c9050919050565b600060033d1115614bf35760046000803e614bf0600051614bc7565b90505b90565b600060443d1015614c0657614c89565b614c0e612e88565b60043d036004823e80513d602482011167ffffffffffffffff82111715614c36575050614c89565b808201805167ffffffffffffffff811115614c545750505050614c89565b80602083010160043d038501811115614c71575050505050614c89565b614c8082602001850186613171565b82955050505050505b90565b7f455243313135353a207472616e7366657220746f206e6f6e204552433131353560008201527f526563656976657220696d706c656d656e746572000000000000000000000000602082015250565b6000614ce860348361308d565b9150614cf382614c8c565b604082019050919050565b60006020820190508181036000830152614d1781614cdb565b9050919050565b7f455243313135353a204552433131353552656365697665722072656a6563746560008201527f6420746f6b656e73000000000000000000000000000000000000000000000000602082015250565b6000614d7a60288361308d565b9150614d8582614d1e565b604082019050919050565b60006020820190508181036000830152614da981614d6d565b9050919050565b600060a082019050614dc56000830188613a64565b614dd26020830187613a64565b614ddf6040830186612f70565b614dec6060830185612f70565b8181036080830152614dfe8184614ae4565b9050969550505050505056fea2646970667358221220f5306122b16d3a2170ba93e509bbb0520eaf1bd20693f2c5a30409b6e0644d0164736f6c634300080a0033",
  "immutableReferences": {},
  "source": "// SPDX-License-Identifier: MIT\npragma solidity ^0.8.0;\npragma abicoder v2;\n\nimport \"@openzeppelin/contracts/token/ERC1155/ERC1155.sol\";\nimport \"@openzeppelin/contracts/access/Ownable.sol\";\nimport \"@openzeppelin/contracts/utils/Counters.sol\";\nimport \"./INFTFactory.sol\";\nimport \"./NextItem.sol\";\n\ncontract NextPack is ERC1155, INFTFactory, Ownable {\n\n    using Counters for Counters.Counter;\n    Counters.Counter private _packIds;\n\n    struct NPack {\n        bool availableToUnpack;\n        uint256 id;\n        uint256[] itemIds;\n        string metadata;\n    }\n\n    mapping(uint256 => NPack) private packs;\n    mapping(address => bool) private _operators;\n\n    address itemContract;\n    NextItem private itemFactory;\n\n    event NewPackMinted(\n        address indexed sender,\n        NPack pack,\n        uint256 quantity\n    );\n\n    event PackMinted(\n        address indexed sender,\n        uint256 id,\n        uint256 quantity\n    );\n\n    event PackItemUpdated(\n        address indexed sender,\n        uint256 id,\n        uint256[] itemIds\n    );\n\n    event PackStatusUpdated(\n        address indexed sender,\n        uint256 id,\n        bool availableToUnpack\n    );\n\n    event PackMetadataUpdated(\n        address indexed sender,\n        uint256 id,\n        string metadata\n    );\n\n    event NextPackOperatorUpdated(\n        address indexed sender,\n        address operator,\n        bool approved\n    );\n\n    event PackBurned(address indexed sender, uint256 id, uint256 quantity);\n\n    event Unpacked(address indexed sender, uint256 id);\n\n    constructor(string memory baseURI) ERC1155(baseURI) {\n        _operators[msg.sender] = true;\n        itemContract = address(0);\n    }\n\n    modifier isValidPackId(uint256 packId) {\n        require(packId < _packIds.current(), \"Invalid packId\");\n        _;\n    }\n\n    function updateOperator(address operator, bool approved)\n        public\n        onlyOwner\n    {\n        _operators[operator] = approved;\n        emit NextPackOperatorUpdated(msg.sender, operator, approved);\n    }\n\n    function isOperator(address addr)\n        public\n        view\n        returns (bool)\n    {\n        return _operators[addr];\n    }\n\n    function updateItemFactoryContract(address _itemContract)\n        public\n        onlyOwner\n    {\n        require(_itemContract != address(0), \"itemContract must not be zero address\");\n        itemContract = _itemContract;\n        itemFactory = NextItem(itemContract);\n    }\n\n    function allValidItems(uint256[] memory _itemIds)\n        private\n        view\n        returns (bool)\n    {\n        require(itemContract != address(0), \"itemContract must be set\");\n        uint256 maxId = itemFactory.getUniqueTokenNum();\n        for (uint256 i = 0; i < _itemIds.length; i++) {\n            if (_itemIds[i] >= maxId) return false;\n        }\n        return true;\n    }\n\n    function mintNewPack(NPack memory pack, uint256 quantity)\n        public\n        onlyOwner\n    {\n        require(allValidItems(pack.itemIds), \"Pack contains invalid itemId\");\n        uint256 packId = _packIds.current();\n        _packIds.increment();\n\n        _mint(msg.sender, packId, quantity, \"\");\n        pack.id = packId;\n        packs[packId] = pack;\n\n        emit NewPackMinted(msg.sender, pack, quantity);\n    }\n\n    function mintMorePack(uint256 packId, uint256 quantity)\n        public\n        onlyOwner\n        isValidPackId(packId)\n    {\n        _mint(msg.sender, packId, quantity, \"\");\n        emit PackMinted(msg.sender, packId, quantity);\n    }\n\n    function updatePackItems(uint256 packId, uint256[] memory _itemIds)\n        public\n        onlyOwner\n        isValidPackId(packId)\n    {\n        require(allValidItems(_itemIds), \"Pack contains invalid items\");\n        packs[packId].itemIds = _itemIds;\n        emit PackItemUpdated(msg.sender, packId, _itemIds);\n    }\n\n    function updatePackStatus(uint256 packId, bool status)\n        public \n        onlyOwner\n        isValidPackId(packId)\n    {\n        packs[packId].availableToUnpack = status;\n        emit PackStatusUpdated(msg.sender, packId, status);\n    }\n\n    function updatePackMetadata(uint256 packId, string memory metadata)\n        public\n        onlyOwner\n        isValidPackId(packId)\n    {\n        packs[packId].metadata = metadata;\n        emit PackMetadataUpdated(msg.sender, packId, metadata);\n    }\n\n    function uri(uint256 packId) public view override \n        isValidPackId(packId)\n        returns (string memory)\n    {\n        return packs[packId].metadata;\n    }\n\n    function burnPack(uint256 packId, uint256 quantity)\n        public \n        onlyOwner\n        isValidPackId(packId)\n    {\n        _burn(msg.sender, packId, quantity);\n        emit PackBurned(msg.sender, packId, quantity);\n    }\n\n    function getPack(uint256 packId)\n        public\n        view\n        returns (NPack memory)\n    {\n        require(packId < _packIds.current(), \"Invalid packId\");\n        return packs[packId];\n    }\n\n    function createBatchAmount(uint256 len)\n        private\n        pure\n        returns (uint256[] memory)\n    {\n        uint256[] memory amounts = new uint256[](len);\n        for (uint256 i = 0; i < len; i++) {\n            amounts[i] = 1;\n        }\n\n        return amounts;\n    }\n\n    function unpack(uint256 packId)\n        public\n        isValidPackId(packId)\n    {\n        uint256 numberOfPacks = balanceOf(msg.sender, packId);\n        require(numberOfPacks > 0, \"Insufficient balance\");\n\n        NPack storage pack = packs[packId];\n        require(pack.availableToUnpack == true, \"Cannot unpack\");\n\n        uint256 numberOfItems = pack.itemIds.length;\n        require(numberOfItems > 0, \"Empty pack\");\n\n        uint256[] memory amounts = createBatchAmount(numberOfItems);\n\n        _burn(msg.sender, packId, 1);\n        itemFactory.mintBatch(msg.sender, pack.itemIds, amounts);\n\n        emit Unpacked(msg.sender, packId);\n    }\n\n    function getUniqueTokenNum()\n        public \n        view \n        virtual override \n        returns (uint256)\n    {\n        return _packIds.current();\n    }\n}",
  "sourcePath": "/home/hungnd/workspace/nextverse-marketplace/contracts/NextPack.sol",
  "compiler": {
    "name": "solc",
    "version": "0.8.10+commit.fc410830.Emscripten.clang"
  },
  "schemaVersion": "3.4.3",
  "updatedAt": "2022-05-06T03:32:59.349Z",
  "networkType": "ethereum",
  "devdoc": {
    "kind": "dev",
    "methods": {
      "balanceOf(address,uint256)": {
        "details": "See {IERC1155-balanceOf}. Requirements: - `account` cannot be the zero address."
      },
      "balanceOfBatch(address[],uint256[])": {
        "details": "See {IERC1155-balanceOfBatch}. Requirements: - `accounts` and `ids` must have the same length."
      },
      "isApprovedForAll(address,address)": {
        "details": "See {IERC1155-isApprovedForAll}."
      },
      "owner()": {
        "details": "Returns the address of the current owner."
      },
      "renounceOwnership()": {
        "details": "Leaves the contract without owner. It will not be possible to call `onlyOwner` functions anymore. Can only be called by the current owner. NOTE: Renouncing ownership will leave the contract without an owner, thereby removing any functionality that is only available to the owner."
      },
      "safeBatchTransferFrom(address,address,uint256[],uint256[],bytes)": {
        "details": "See {IERC1155-safeBatchTransferFrom}."
      },
      "safeTransferFrom(address,address,uint256,uint256,bytes)": {
        "details": "See {IERC1155-safeTransferFrom}."
      },
      "setApprovalForAll(address,bool)": {
        "details": "See {IERC1155-setApprovalForAll}."
      },
      "supportsInterface(bytes4)": {
        "details": "See {IERC165-supportsInterface}."
      },
      "transferOwnership(address)": {
        "details": "Transfers ownership of the contract to a new account (`newOwner`). Can only be called by the current owner."
      }
    },
    "version": 1
  },
  "userdoc": {
    "kind": "user",
    "methods": {},
    "version": 1
  }
}