{
  "contractName": "NextMarket",
  "abi": [
    {
      "anonymous": false,
      "inputs": [
        {
          "indexed": true,
          "internalType": "address",
          "name": "previousOwner",
          "type": "address"
        },
        {
          "indexed": true,
          "internalType": "address",
          "name": "newOwner",
          "type": "address"
        }
      ],
      "name": "OwnershipTransferred",
      "type": "event"
    },
    {
      "anonymous": false,
      "inputs": [
        {
          "indexed": false,
          "internalType": "uint256",
          "name": "sId",
          "type": "uint256"
        }
      ],
      "name": "SellOrderCreated",
      "type": "event"
    },
    {
      "inputs": [],
      "name": "NFTs",
      "outputs": [
        {
          "internalType": "contract NextItem",
          "name": "",
          "type": "address"
        }
      ],
      "stateMutability": "view",
      "type": "function"
    },
    {
      "inputs": [],
      "name": "owner",
      "outputs": [
        {
          "internalType": "address",
          "name": "",
          "type": "address"
        }
      ],
      "stateMutability": "view",
      "type": "function"
    },
    {
      "inputs": [],
      "name": "renounceOwnership",
      "outputs": [],
      "stateMutability": "nonpayable",
      "type": "function"
    },
    {
      "inputs": [
        {
          "internalType": "address",
          "name": "newOwner",
          "type": "address"
        }
      ],
      "name": "transferOwnership",
      "outputs": [],
      "stateMutability": "nonpayable",
      "type": "function"
    },
    {
      "inputs": [
        {
          "internalType": "address",
          "name": "itemContract_",
          "type": "address"
        }
      ],
      "name": "setItemContract",
      "outputs": [],
      "stateMutability": "nonpayable",
      "type": "function"
    },
    {
      "inputs": [
        {
          "internalType": "uint256",
          "name": "tokenId",
          "type": "uint256"
        },
        {
          "internalType": "uint256",
          "name": "quantity",
          "type": "uint256"
        },
        {
          "internalType": "uint256",
          "name": "price",
          "type": "uint256"
        },
        {
          "internalType": "address",
          "name": "erc20Contract",
          "type": "address"
        }
      ],
      "name": "createSellOrder",
      "outputs": [],
      "stateMutability": "nonpayable",
      "type": "function"
    }
  ],
  "bytecode": "0x608060405234801561001057600080fd5b5061002d61002261003260201b60201c565b61003a60201b60201c565b6100fe565b600033905090565b60008060009054906101000a900473ffffffffffffffffffffffffffffffffffffffff169050816000806101000a81548173ffffffffffffffffffffffffffffffffffffffff021916908373ffffffffffffffffffffffffffffffffffffffff1602179055508173ffffffffffffffffffffffffffffffffffffffff168173ffffffffffffffffffffffffffffffffffffffff167f8be0079c531659141344cd1fd0a4f28419497f9722a3daafe3b4186f6b6457e060405160405180910390a35050565b610f3d8061010d6000396000f3fe608060405234801561001057600080fd5b50600436106100625760003560e01c806328528b6514610067578063715018a61461008357806382b318141461008d5780638da5cb5b146100ab578063a7120433146100c9578063f2fde38b146100e5575b600080fd5b610081600480360381019061007c9190610a32565b610101565b005b61008b61050a565b005b610095610592565b6040516100a29190610af8565b60405180910390f35b6100b36105b8565b6040516100c09190610b22565b60405180910390f35b6100e360048036038101906100de9190610b3d565b6105e1565b005b6100ff60048036038101906100fa9190610b3d565b610704565b005b83600a60009054906101000a900473ffffffffffffffffffffffffffffffffffffffff1673ffffffffffffffffffffffffffffffffffffffff166384a47f0b6040518163ffffffff1660e01b8152600401602060405180830381865afa15801561016f573d6000803e3d6000fd5b505050506040513d601f19601f820116820180604052508101906101939190610b7f565b81106101d4576040517f08c379a00000000000000000000000000000000000000000000000000000000081526004016101cb90610c09565b60405180910390fd5b83600a60009054906101000a900473ffffffffffffffffffffffffffffffffffffffff1673ffffffffffffffffffffffffffffffffffffffff1662fdd58e33886040518363ffffffff1660e01b8152600401610231929190610c38565b602060405180830381865afa15801561024e573d6000803e3d6000fd5b505050506040513d601f19601f820116820180604052508101906102729190610b7f565b10156102b3576040517f08c379a00000000000000000000000000000000000000000000000000000000081526004016102aa90610cad565b60405180910390fd5b600083116102f6576040517f08c379a00000000000000000000000000000000000000000000000000000000081526004016102ed90610d19565b60405180910390fd5b600a60009054906101000a900473ffffffffffffffffffffffffffffffffffffffff1673ffffffffffffffffffffffffffffffffffffffff1663f242432a333088886040518563ffffffff1660e01b81526004016103579493929190610d96565b600060405180830381600087803b15801561037157600080fd5b505af1158015610385573d6000803e3d6000fd5b50505050600061039560016107fc565b90506040518060a001604052808781526020018681526020018581526020018473ffffffffffffffffffffffffffffffffffffffff1681526020013373ffffffffffffffffffffffffffffffffffffffff168152506003600083815260200190815260200160002060008201518160000155602082015181600101556040820151816002015560608201518160030160006101000a81548173ffffffffffffffffffffffffffffffffffffffff021916908373ffffffffffffffffffffffffffffffffffffffff16021790555060808201518160040160006101000a81548173ffffffffffffffffffffffffffffffffffffffff021916908373ffffffffffffffffffffffffffffffffffffffff1602179055509050506104b6600161080a565b6104ca81600561082090919063ffffffff16565b507f3f37e4066398319c7e454da023883e2c5761232b4e9b00bbdb6673f07c010a3c816040516104fa9190610dee565b60405180910390a1505050505050565b61051261083a565b73ffffffffffffffffffffffffffffffffffffffff166105306105b8565b73ffffffffffffffffffffffffffffffffffffffff1614610586576040517f08c379a000000000000000000000000000000000000000000000000000000000815260040161057d90610e55565b60405180910390fd5b6105906000610842565b565b600a60009054906101000a900473ffffffffffffffffffffffffffffffffffffffff1681565b60008060009054906101000a900473ffffffffffffffffffffffffffffffffffffffff16905090565b6105e961083a565b73ffffffffffffffffffffffffffffffffffffffff166106076105b8565b73ffffffffffffffffffffffffffffffffffffffff161461065d576040517f08c379a000000000000000000000000000000000000000000000000000000000815260040161065490610e55565b60405180910390fd5b80600960006101000a81548173ffffffffffffffffffffffffffffffffffffffff021916908373ffffffffffffffffffffffffffffffffffffffff160217905550600960009054906101000a900473ffffffffffffffffffffffffffffffffffffffff16600a60006101000a81548173ffffffffffffffffffffffffffffffffffffffff021916908373ffffffffffffffffffffffffffffffffffffffff16021790555050565b61070c61083a565b73ffffffffffffffffffffffffffffffffffffffff1661072a6105b8565b73ffffffffffffffffffffffffffffffffffffffff1614610780576040517f08c379a000000000000000000000000000000000000000000000000000000000815260040161077790610e55565b60405180910390fd5b600073ffffffffffffffffffffffffffffffffffffffff168173ffffffffffffffffffffffffffffffffffffffff1614156107f0576040517f08c379a00000000000000000000000000000000000000000000000000000000081526004016107e790610ee7565b60405180910390fd5b6107f981610842565b50565b600081600001549050919050565b6001816000016000828254019250508190555050565b6000610832836000018360001b610906565b905092915050565b600033905090565b60008060009054906101000a900473ffffffffffffffffffffffffffffffffffffffff169050816000806101000a81548173ffffffffffffffffffffffffffffffffffffffff021916908373ffffffffffffffffffffffffffffffffffffffff1602179055508173ffffffffffffffffffffffffffffffffffffffff168173ffffffffffffffffffffffffffffffffffffffff167f8be0079c531659141344cd1fd0a4f28419497f9722a3daafe3b4186f6b6457e060405160405180910390a35050565b60006109128383610976565b61096b578260000182908060018154018082558091505060019003906000526020600020016000909190919091505582600001805490508360010160008481526020019081526020016000208190555060019050610970565b600090505b92915050565b600080836001016000848152602001908152602001600020541415905092915050565b600080fd5b6000819050919050565b6109b18161099e565b81146109bc57600080fd5b50565b6000813590506109ce816109a8565b92915050565b600073ffffffffffffffffffffffffffffffffffffffff82169050919050565b60006109ff826109d4565b9050919050565b610a0f816109f4565b8114610a1a57600080fd5b50565b600081359050610a2c81610a06565b92915050565b60008060008060808587031215610a4c57610a4b610999565b5b6000610a5a878288016109bf565b9450506020610a6b878288016109bf565b9350506040610a7c878288016109bf565b9250506060610a8d87828801610a1d565b91505092959194509250565b6000819050919050565b6000610abe610ab9610ab4846109d4565b610a99565b6109d4565b9050919050565b6000610ad082610aa3565b9050919050565b6000610ae282610ac5565b9050919050565b610af281610ad7565b82525050565b6000602082019050610b0d6000830184610ae9565b92915050565b610b1c816109f4565b82525050565b6000602082019050610b376000830184610b13565b92915050565b600060208284031215610b5357610b52610999565b5b6000610b6184828501610a1d565b91505092915050565b600081519050610b79816109a8565b92915050565b600060208284031215610b9557610b94610999565b5b6000610ba384828501610b6a565b91505092915050565b600082825260208201905092915050565b7f496e76616c696420746f6b656e49640000000000000000000000000000000000600082015250565b6000610bf3600f83610bac565b9150610bfe82610bbd565b602082019050919050565b60006020820190508181036000830152610c2281610be6565b9050919050565b610c328161099e565b82525050565b6000604082019050610c4d6000830185610b13565b610c5a6020830184610c29565b9392505050565b7f696e73756666696369656e7420746f6b656e20616d6f756e7400000000000000600082015250565b6000610c97601983610bac565b9150610ca282610c61565b602082019050919050565b60006020820190508181036000830152610cc681610c8a565b9050919050565b7f5072696365206d7573742062652067726561746572207468616e203000000000600082015250565b6000610d03601c83610bac565b9150610d0e82610ccd565b602082019050919050565b60006020820190508181036000830152610d3281610cf6565b9050919050565b600082825260208201905092915050565b7f3078300000000000000000000000000000000000000000000000000000000000600082015250565b6000610d80600383610d39565b9150610d8b82610d4a565b602082019050919050565b600060a082019050610dab6000830187610b13565b610db86020830186610b13565b610dc56040830185610c29565b610dd26060830184610c29565b8181036080830152610de381610d73565b905095945050505050565b6000602082019050610e036000830184610c29565b92915050565b7f4f776e61626c653a2063616c6c6572206973206e6f7420746865206f776e6572600082015250565b6000610e3f602083610bac565b9150610e4a82610e09565b602082019050919050565b60006020820190508181036000830152610e6e81610e32565b9050919050565b7f4f776e61626c653a206e6577206f776e657220697320746865207a65726f206160008201527f6464726573730000000000000000000000000000000000000000000000000000602082015250565b6000610ed1602683610bac565b9150610edc82610e75565b604082019050919050565b60006020820190508181036000830152610f0081610ec4565b905091905056fea2646970667358221220c52e9c3b6025dd89a3ef433aad4bebdf89eb8b96651a85ca73156a2c17492c4f64736f6c634300080a0033",
  "immutableReferences": {},
  "source": "pragma solidity ^0.8.0;\npragma abicoder v2;\n\nimport \"@openzeppelin/contracts/token/ERC20/ERC20.sol\";\nimport \"@openzeppelin/contracts/access/Ownable.sol\";\nimport \"@openzeppelin/contracts/utils/Counters.sol\";\nimport \"@openzeppelin/contracts/utils/structs/EnumerableSet.sol\";\nimport \"./NextItem.sol\";\n\ncontract NextMarket is Ownable {\n\n    using Counters for Counters.Counter;\n    using EnumerableSet for EnumerableSet.UintSet;\n\n    struct SellOrder {\n        uint256 tokenId;\n        uint256 quantity;\n        uint256 askPrice;\n        address erc20Contract;\n        address seller;\n    }\n\n    struct BuyOrder {\n        uint256 tokenId;\n        uint256 quantity;\n        uint256 buyPrice;\n        address erc20Contract;\n        address buyer;\n    }\n\n    Counters.Counter private _sellOrderIds;\n    Counters.Counter private _buyOrderIds;\n\n    mapping(uint256 => SellOrder) private sellOrders;\n    mapping(uint256 => BuyOrder) private buyOrders;\n\n    EnumerableSet.UintSet private availableSellOrders;\n    EnumerableSet.UintSet private availableBuyOrders;\n\n    address itemContract;\n    NextItem public NFTs;\n\n    event SellOrderCreated(uint256 sId);\n\n    function setItemContract(address itemContract_) public onlyOwner {\n        itemContract = itemContract_;\n        NFTs = NextItem(itemContract);\n    }\n\n    modifier isValidTokenId(uint256 tokenId) {\n        require(tokenId < NFTs.uniqueTokenNum(), \"Invalid tokenId\");\n        _;\n    }\n\n    function createSellOrder(uint256 tokenId, uint256 quantity, uint256 price, address erc20Contract)\n        public\n        isValidTokenId(tokenId)\n    {\n        require(NFTs.balanceOf(msg.sender, tokenId) >= quantity, \"insufficient token amount\");\n        require(price > 0, \"Price must be greater than 0\");\n\n        NFTs.safeTransferFrom(\n            msg.sender,\n            address(this),\n            tokenId,\n            quantity,\n            \"0x0\"\n        );\n\n        uint256 sId = _sellOrderIds.current();\n        sellOrders[sId] = SellOrder({\n            tokenId: tokenId,\n            quantity: quantity,\n            askPrice: price, \n            erc20Contract: erc20Contract,\n            seller: msg.sender\n        });\n        _sellOrderIds.increment();\n        availableSellOrders.add(sId);\n\n        emit SellOrderCreated(sId);\n    }\n\n    \n}",
  "sourcePath": "/home/phucp/versehub/nextverse-marketplace/contracts/NextMarket.sol",
  "compiler": {
    "name": "solc",
    "version": "0.8.10+commit.fc410830.Emscripten.clang"
  },
  "schemaVersion": "3.4.1",
  "updatedAt": "2022-03-17T03:26:23.936Z",
  "devdoc": {
    "kind": "dev",
    "methods": {
      "owner()": {
        "details": "Returns the address of the current owner."
      },
      "renounceOwnership()": {
        "details": "Leaves the contract without owner. It will not be possible to call `onlyOwner` functions anymore. Can only be called by the current owner. NOTE: Renouncing ownership will leave the contract without an owner, thereby removing any functionality that is only available to the owner."
      },
      "transferOwnership(address)": {
        "details": "Transfers ownership of the contract to a new account (`newOwner`). Can only be called by the current owner."
      }
    },
    "version": 1
  },
  "userdoc": {
    "kind": "user",
    "methods": {},
    "version": 1
  }
}