{
  "_format": "hh-sol-artifact-1",
  "contractName": "StakeFiuEarnFitterPass",
  "sourceName": "contracts/StakeFiuEarnFitterPass.sol",
  "abi": [
    {
      "anonymous": false,
      "inputs": [
        {
          "indexed": false,
          "internalType": "address",
          "name": "previousAdmin",
          "type": "address"
        },
        {
          "indexed": false,
          "internalType": "address",
          "name": "newAdmin",
          "type": "address"
        }
      ],
      "name": "AdminChanged",
      "type": "event"
    },
    {
      "anonymous": false,
      "inputs": [
        {
          "indexed": true,
          "internalType": "address",
          "name": "beacon",
          "type": "address"
        }
      ],
      "name": "BeaconUpgraded",
      "type": "event"
    },
    {
      "anonymous": false,
      "inputs": [
        {
          "indexed": true,
          "internalType": "address",
          "name": "user",
          "type": "address"
        },
        {
          "indexed": false,
          "internalType": "uint256",
          "name": "tokenId",
          "type": "uint256"
        },
        {
          "indexed": false,
          "internalType": "uint256",
          "name": "amount",
          "type": "uint256"
        }
      ],
      "name": "Claim",
      "type": "event"
    },
    {
      "anonymous": false,
      "inputs": [
        {
          "indexed": false,
          "internalType": "uint8",
          "name": "version",
          "type": "uint8"
        }
      ],
      "name": "Initialized",
      "type": "event"
    },
    {
      "anonymous": false,
      "inputs": [
        {
          "indexed": true,
          "internalType": "address",
          "name": "previousOwner",
          "type": "address"
        },
        {
          "indexed": true,
          "internalType": "address",
          "name": "newOwner",
          "type": "address"
        }
      ],
      "name": "OwnershipTransferred",
      "type": "event"
    },
    {
      "anonymous": false,
      "inputs": [
        {
          "indexed": true,
          "internalType": "address",
          "name": "user",
          "type": "address"
        },
        {
          "indexed": false,
          "internalType": "uint256",
          "name": "amount",
          "type": "uint256"
        }
      ],
      "name": "Stake",
      "type": "event"
    },
    {
      "anonymous": false,
      "inputs": [
        {
          "indexed": false,
          "internalType": "uint256",
          "name": "startTime",
          "type": "uint256"
        },
        {
          "indexed": false,
          "internalType": "uint256",
          "name": "duration",
          "type": "uint256"
        },
        {
          "indexed": false,
          "internalType": "uint256",
          "name": "rate",
          "type": "uint256"
        }
      ],
      "name": "StartStakingWithPromotion",
      "type": "event"
    },
    {
      "anonymous": false,
      "inputs": [
        {
          "indexed": true,
          "internalType": "address",
          "name": "user",
          "type": "address"
        },
        {
          "indexed": false,
          "internalType": "uint256",
          "name": "amount",
          "type": "uint256"
        }
      ],
      "name": "UnStake",
      "type": "event"
    },
    {
      "anonymous": false,
      "inputs": [
        {
          "indexed": true,
          "internalType": "address",
          "name": "implementation",
          "type": "address"
        }
      ],
      "name": "Upgraded",
      "type": "event"
    },
    {
      "anonymous": false,
      "inputs": [
        {
          "indexed": true,
          "internalType": "address",
          "name": "user",
          "type": "address"
        },
        {
          "indexed": false,
          "internalType": "uint256",
          "name": "amount",
          "type": "uint256"
        },
        {
          "indexed": false,
          "internalType": "bool",
          "name": "penalty",
          "type": "bool"
        }
      ],
      "name": "WithdrawStake",
      "type": "event"
    },
    {
      "inputs": [],
      "name": "claimReward",
      "outputs": [],
      "stateMutability": "nonpayable",
      "type": "function"
    },
    {
      "inputs": [],
      "name": "emergencyClose",
      "outputs": [],
      "stateMutability": "nonpayable",
      "type": "function"
    },
    {
      "inputs": [],
      "name": "getAmountToEarnPassPerCycle",
      "outputs": [
        {
          "internalType": "uint256",
          "name": "",
          "type": "uint256"
        }
      ],
      "stateMutability": "view",
      "type": "function"
    },
    {
      "inputs": [
        {
          "internalType": "address",
          "name": "user",
          "type": "address"
        }
      ],
      "name": "getClaimableTime",
      "outputs": [
        {
          "internalType": "uint256",
          "name": "",
          "type": "uint256"
        }
      ],
      "stateMutability": "view",
      "type": "function"
    },
    {
      "inputs": [
        {
          "internalType": "address",
          "name": "user",
          "type": "address"
        }
      ],
      "name": "getCurrentProfit",
      "outputs": [
        {
          "internalType": "uint256",
          "name": "",
          "type": "uint256"
        }
      ],
      "stateMutability": "view",
      "type": "function"
    },
    {
      "inputs": [],
      "name": "getImplementation",
      "outputs": [
        {
          "internalType": "address",
          "name": "",
          "type": "address"
        }
      ],
      "stateMutability": "view",
      "type": "function"
    },
    {
      "inputs": [
        {
          "internalType": "address",
          "name": "user",
          "type": "address"
        }
      ],
      "name": "getLastClaimTime",
      "outputs": [
        {
          "internalType": "uint256",
          "name": "",
          "type": "uint256"
        }
      ],
      "stateMutability": "view",
      "type": "function"
    },
    {
      "inputs": [],
      "name": "getMaximumAmount",
      "outputs": [
        {
          "internalType": "uint256",
          "name": "",
          "type": "uint256"
        }
      ],
      "stateMutability": "view",
      "type": "function"
    },
    {
      "inputs": [],
      "name": "getMinimumAmount",
      "outputs": [
        {
          "internalType": "uint256",
          "name": "",
          "type": "uint256"
        }
      ],
      "stateMutability": "view",
      "type": "function"
    },
    {
      "inputs": [],
      "name": "getPenaltyRate",
      "outputs": [
        {
          "internalType": "uint256",
          "name": "",
          "type": "uint256"
        }
      ],
      "stateMutability": "view",
      "type": "function"
    },
    {
      "inputs": [
        {
          "internalType": "address",
          "name": "user",
          "type": "address"
        }
      ],
      "name": "getRemainingDelayTime",
      "outputs": [
        {
          "internalType": "uint256",
          "name": "",
          "type": "uint256"
        }
      ],
      "stateMutability": "view",
      "type": "function"
    },
    {
      "inputs": [
        {
          "internalType": "address",
          "name": "user",
          "type": "address"
        }
      ],
      "name": "getStakingAmount",
      "outputs": [
        {
          "internalType": "uint256",
          "name": "",
          "type": "uint256"
        }
      ],
      "stateMutability": "view",
      "type": "function"
    },
    {
      "inputs": [
        {
          "internalType": "address",
          "name": "wallet",
          "type": "address"
        }
      ],
      "name": "getStakingStatus",
      "outputs": [
        {
          "internalType": "uint256",
          "name": "",
          "type": "uint256"
        }
      ],
      "stateMutability": "view",
      "type": "function"
    },
    {
      "inputs": [],
      "name": "getTokenAddress",
      "outputs": [
        {
          "internalType": "address",
          "name": "",
          "type": "address"
        }
      ],
      "stateMutability": "view",
      "type": "function"
    },
    {
      "inputs": [],
      "name": "getTotalStakingToken",
      "outputs": [
        {
          "internalType": "uint256",
          "name": "",
          "type": "uint256"
        }
      ],
      "stateMutability": "view",
      "type": "function"
    },
    {
      "inputs": [
        {
          "internalType": "address",
          "name": "user",
          "type": "address"
        }
      ],
      "name": "getUnstakeAmount",
      "outputs": [
        {
          "internalType": "uint256",
          "name": "",
          "type": "uint256"
        }
      ],
      "stateMutability": "view",
      "type": "function"
    },
    {
      "inputs": [
        {
          "internalType": "address",
          "name": "tokenAddress",
          "type": "address"
        },
        {
          "internalType": "address",
          "name": "rewardItemContract",
          "type": "address"
        }
      ],
      "name": "initialize",
      "outputs": [],
      "stateMutability": "nonpayable",
      "type": "function"
    },
    {
      "inputs": [],
      "name": "openPool",
      "outputs": [],
      "stateMutability": "nonpayable",
      "type": "function"
    },
    {
      "inputs": [],
      "name": "owner",
      "outputs": [
        {
          "internalType": "address",
          "name": "",
          "type": "address"
        }
      ],
      "stateMutability": "view",
      "type": "function"
    },
    {
      "inputs": [],
      "name": "proxiableUUID",
      "outputs": [
        {
          "internalType": "bytes32",
          "name": "",
          "type": "bytes32"
        }
      ],
      "stateMutability": "view",
      "type": "function"
    },
    {
      "inputs": [],
      "name": "renounceOwnership",
      "outputs": [],
      "stateMutability": "nonpayable",
      "type": "function"
    },
    {
      "inputs": [
        {
          "internalType": "uint256",
          "name": "amount",
          "type": "uint256"
        }
      ],
      "name": "setAmountToEarnPassPerCycle",
      "outputs": [],
      "stateMutability": "nonpayable",
      "type": "function"
    },
    {
      "inputs": [
        {
          "internalType": "uint256",
          "name": "endTime",
          "type": "uint256"
        }
      ],
      "name": "setEndStakingTime",
      "outputs": [],
      "stateMutability": "nonpayable",
      "type": "function"
    },
    {
      "inputs": [
        {
          "internalType": "uint256",
          "name": "amount",
          "type": "uint256"
        }
      ],
      "name": "setMaximumAmount",
      "outputs": [],
      "stateMutability": "nonpayable",
      "type": "function"
    },
    {
      "inputs": [
        {
          "internalType": "uint256",
          "name": "amount",
          "type": "uint256"
        }
      ],
      "name": "setMinimumAmount",
      "outputs": [],
      "stateMutability": "nonpayable",
      "type": "function"
    },
    {
      "inputs": [
        {
          "internalType": "uint256",
          "name": "rate",
          "type": "uint256"
        }
      ],
      "name": "setPenaltyRate",
      "outputs": [],
      "stateMutability": "nonpayable",
      "type": "function"
    },
    {
      "inputs": [
        {
          "internalType": "uint256",
          "name": "pTime",
          "type": "uint256"
        },
        {
          "internalType": "uint256",
          "name": "rate",
          "type": "uint256"
        }
      ],
      "name": "setPromotionTime",
      "outputs": [],
      "stateMutability": "nonpayable",
      "type": "function"
    },
    {
      "inputs": [
        {
          "internalType": "address",
          "name": "itemAddress",
          "type": "address"
        }
      ],
      "name": "setRewardContract",
      "outputs": [],
      "stateMutability": "nonpayable",
      "type": "function"
    },
    {
      "inputs": [
        {
          "internalType": "uint256",
          "name": "tokenId",
          "type": "uint256"
        }
      ],
      "name": "setRewardTokenId",
      "outputs": [],
      "stateMutability": "nonpayable",
      "type": "function"
    },
    {
      "inputs": [
        {
          "internalType": "uint256",
          "name": "cTime",
          "type": "uint256"
        }
      ],
      "name": "setStakingBlockTime",
      "outputs": [],
      "stateMutability": "nonpayable",
      "type": "function"
    },
    {
      "inputs": [
        {
          "internalType": "address",
          "name": "tokenAddress",
          "type": "address"
        }
      ],
      "name": "setTokenAddress",
      "outputs": [],
      "stateMutability": "nonpayable",
      "type": "function"
    },
    {
      "inputs": [
        {
          "internalType": "uint256",
          "name": "delayTime",
          "type": "uint256"
        }
      ],
      "name": "setWithdrawalDelayTime",
      "outputs": [],
      "stateMutability": "nonpayable",
      "type": "function"
    },
    {
      "inputs": [
        {
          "internalType": "uint256",
          "name": "amount",
          "type": "uint256"
        }
      ],
      "name": "stake",
      "outputs": [],
      "stateMutability": "nonpayable",
      "type": "function"
    },
    {
      "inputs": [
        {
          "internalType": "address",
          "name": "wallet",
          "type": "address"
        }
      ],
      "name": "stakedBefore",
      "outputs": [
        {
          "internalType": "bool",
          "name": "",
          "type": "bool"
        }
      ],
      "stateMutability": "view",
      "type": "function"
    },
    {
      "inputs": [
        {
          "internalType": "address",
          "name": "newOwner",
          "type": "address"
        }
      ],
      "name": "transferOwnership",
      "outputs": [],
      "stateMutability": "nonpayable",
      "type": "function"
    },
    {
      "inputs": [
        {
          "internalType": "uint256",
          "name": "unstakeAmount",
          "type": "uint256"
        }
      ],
      "name": "unstake",
      "outputs": [],
      "stateMutability": "nonpayable",
      "type": "function"
    },
    {
      "inputs": [
        {
          "internalType": "address",
          "name": "newImplementation",
          "type": "address"
        }
      ],
      "name": "upgradeTo",
      "outputs": [],
      "stateMutability": "nonpayable",
      "type": "function"
    },
    {
      "inputs": [
        {
          "internalType": "address",
          "name": "newImplementation",
          "type": "address"
        },
        {
          "internalType": "bytes",
          "name": "data",
          "type": "bytes"
        }
      ],
      "name": "upgradeToAndCall",
      "outputs": [],
      "stateMutability": "payable",
      "type": "function"
    },
    {
      "inputs": [],
      "name": "withdrawStakingToken",
      "outputs": [],
      "stateMutability": "nonpayable",
      "type": "function"
    },
    {
      "inputs": [
        {
          "internalType": "address",
          "name": "to",
          "type": "address"
        },
        {
          "internalType": "uint256",
          "name": "amount",
          "type": "uint256"
        }
      ],
      "name": "withdrawToken",
      "outputs": [],
      "stateMutability": "nonpayable",
      "type": "function"
    }
  ],
  "bytecode": "0x60a06040523073ffffffffffffffffffffffffffffffffffffffff1660809073ffffffffffffffffffffffffffffffffffffffff1660601b81525034801561004657600080fd5b5060805160601c6140ab61008160003960008181610d0601528181610d9501528181611143015281816111d201526112ce01526140ab6000f3fe60806040526004361061023a5760003560e01c80638da5cb5b1161012e578063b8d69ecf116100ab578063eeb4a9c81161006f578063eeb4a9c814610823578063efcd66e71461084c578063f14cb88114610875578063f2fde38b146108a0578063f7c817da146108c95761023a565b8063b8d69ecf14610750578063d615b6a014610767578063dcf4e26714610792578063de52a3c5146107cf578063eb5797a41461080c5761023a565b8063a9cc9ae9116100f2578063a9cc9ae91461068f578063aaf10f42146106a6578063b427eca2146106d1578063b4685c9b146106fc578063b88a802f146107395761023a565b80638da5cb5b146105ac5780639e281a98146105d7578063a1bab44714610600578063a680e0bc14610629578063a694fc3a146106665761023a565b80634c576a64116101bc5780635d49c133116101805780635d49c133146104c757806362066eb3146105045780636aa9f6861461052f578063715018a61461055857806374363daa1461056f5761023a565b80634c576a64146103ef5780634f1ef2861461042c57806351508f0a1461044857806352d1902d146104715780635722ef971461049c5761023a565b80632e17de78116102035780632e17de781461030e5780633412a764146103375780633659cfe614610374578063485cc9551461039d578063494eb5b8146103c65761023a565b806255a6e61461023f57806310fe9ae814610268578063160244ed14610293578063227545a5146102bc57806326a4e8d2146102e5575b600080fd5b34801561024b57600080fd5b5061026660048036038101906102619190612f6f565b6108f2565b005b34801561027457600080fd5b5061027d610970565b60405161028a9190613356565b60405180910390f35b34801561029f57600080fd5b506102ba60048036038101906102b59190612f46565b61099a565b005b3480156102c857600080fd5b506102e360048036038101906102de9190612f46565b6109ac565b005b3480156102f157600080fd5b5061030c60048036038101906103079190612dff565b6109be565b005b34801561031a57600080fd5b5061033560048036038101906103309190612f46565b610a0a565b005b34801561034357600080fd5b5061035e60048036038101906103599190612dff565b610cb8565b60405161036b919061371b565b60405180910390f35b34801561038057600080fd5b5061039b60048036038101906103969190612dff565b610d04565b005b3480156103a957600080fd5b506103c460048036038101906103bf9190612e28565b610eb3565b005b3480156103d257600080fd5b506103ed60048036038101906103e89190612f46565b611085565b005b3480156103fb57600080fd5b5061041660048036038101906104119190612dff565b611097565b604051610423919061371b565b60405180910390f35b61044660048036038101906104419190612e64565b611141565b005b34801561045457600080fd5b5061046f600480360381019061046a9190612dff565b61127e565b005b34801561047d57600080fd5b506104866112ca565b6040516104939190613423565b60405180910390f35b3480156104a857600080fd5b506104b1611383565b6040516104be919061371b565b60405180910390f35b3480156104d357600080fd5b506104ee60048036038101906104e99190612dff565b61138d565b6040516104fb919061371b565b60405180910390f35b34801561051057600080fd5b5061051961144e565b604051610526919061371b565b60405180910390f35b34801561053b57600080fd5b5061055660048036038101906105519190612f46565b611458565b005b34801561056457600080fd5b5061056d61146a565b005b34801561057b57600080fd5b5061059660048036038101906105919190612dff565b61147e565b6040516105a3919061371b565b60405180910390f35b3480156105b857600080fd5b506105c16114ca565b6040516105ce9190613356565b60405180910390f35b3480156105e357600080fd5b506105fe60048036038101906105f99190612eb8565b6114f4565b005b34801561060c57600080fd5b5061062760048036038101906106229190612f46565b6115b0565b005b34801561063557600080fd5b50610650600480360381019061064b9190612dff565b611605565b60405161065d919061371b565b60405180910390f35b34801561067257600080fd5b5061068d60048036038101906106889190612f46565b611651565b005b34801561069b57600080fd5b506106a4611b23565b005b3480156106b257600080fd5b506106bb611b34565b6040516106c89190613356565b60405180910390f35b3480156106dd57600080fd5b506106e6611b43565b6040516106f3919061371b565b60405180910390f35b34801561070857600080fd5b50610723600480360381019061071e9190612dff565b611b4d565b604051610730919061371b565b60405180910390f35b34801561074557600080fd5b5061074e611ba6565b005b34801561075c57600080fd5b50610765611f3a565b005b34801561077357600080fd5b5061077c612078565b604051610789919061371b565b60405180910390f35b34801561079e57600080fd5b506107b960048036038101906107b49190612dff565b612082565b6040516107c6919061371b565b60405180910390f35b3480156107db57600080fd5b506107f660048036038101906107f19190612dff565b6120e1565b6040516108039190613408565b60405180910390f35b34801561081857600080fd5b50610821612137565b005b34801561082f57600080fd5b5061084a60048036038101906108459190612f46565b61215f565b005b34801561085857600080fd5b50610873600480360381019061086e9190612f46565b612171565b005b34801561088157600080fd5b5061088a612183565b604051610897919061371b565b60405180910390f35b3480156108ac57600080fd5b506108c760048036038101906108c29190612dff565b61218d565b005b3480156108d557600080fd5b506108f060048036038101906108eb9190612f46565b612211565b005b6108fa612223565b600181101561093e576040517f08c379a00000000000000000000000000000000000000000000000000000000081526004016109359061357b565b60405180910390fd5b4260d6600001819055508160d6600001546109599190613810565b60d6600101819055508060d6600201819055505050565b600060c960009054906101000a900473ffffffffffffffffffffffffffffffffffffffff16905090565b6109a2612223565b8060d58190555050565b6109b4612223565b8060d38190555050565b6109c6612223565b8060c960006101000a81548173ffffffffffffffffffffffffffffffffffffffff021916908373ffffffffffffffffffffffffffffffffffffffff16021790555050565b60d960003373ffffffffffffffffffffffffffffffffffffffff1673ffffffffffffffffffffffffffffffffffffffff16815260200190815260200160002060000154811115610a8f576040517f08c379a0000000000000000000000000000000000000000000000000000000008152600401610a86906134bb565b60405180910390fd5b6000610a9a336122a1565b90508060d960003373ffffffffffffffffffffffffffffffffffffffff1673ffffffffffffffffffffffffffffffffffffffff1681526020019081526020016000206003016000828254610aee9190613810565b92505081905550610b014260d3546123c0565b60d960003373ffffffffffffffffffffffffffffffffffffffff1673ffffffffffffffffffffffffffffffffffffffff168152602001908152602001600020600101819055508160d960003373ffffffffffffffffffffffffffffffffffffffff1673ffffffffffffffffffffffffffffffffffffffff1681526020019081526020016000206000016000828254610b9991906138f1565b925050819055508160d960003373ffffffffffffffffffffffffffffffffffffffff1673ffffffffffffffffffffffffffffffffffffffff1681526020019081526020016000206004016000828254610bf29190613810565b9250508190555060d05442610c079190613810565b60d960003373ffffffffffffffffffffffffffffffffffffffff1673ffffffffffffffffffffffffffffffffffffffff168152602001908152602001600020600501819055508160d46000828254610c5f91906138f1565b925050819055503373ffffffffffffffffffffffffffffffffffffffff167fb24546d975e2628748efc9aced80665e0fad66272033e5c0ea25fd3afac9979583604051610cac919061371b565b60405180910390a25050565b600060d960008373ffffffffffffffffffffffffffffffffffffffff1673ffffffffffffffffffffffffffffffffffffffff168152602001908152602001600020600401549050919050565b7f000000000000000000000000000000000000000000000000000000000000000073ffffffffffffffffffffffffffffffffffffffff163073ffffffffffffffffffffffffffffffffffffffff161415610d93576040517f08c379a0000000000000000000000000000000000000000000000000000000008152600401610d8a906134fb565b60405180910390fd5b7f000000000000000000000000000000000000000000000000000000000000000073ffffffffffffffffffffffffffffffffffffffff16610dd26123d9565b73ffffffffffffffffffffffffffffffffffffffff1614610e28576040517f08c379a0000000000000000000000000000000000000000000000000000000008152600401610e1f9061351b565b60405180910390fd5b610e3181612430565b610eb081600067ffffffffffffffff811115610e76577f4e487b7100000000000000000000000000000000000000000000000000000000600052604160045260246000fd5b6040519080825280601f01601f191660200182016040528015610ea85781602001600182028036833780820191505090505b50600061243b565b50565b60008060019054906101000a900460ff16159050808015610ee45750600160008054906101000a900460ff1660ff16105b80610f115750610ef3306125b8565b158015610f105750600160008054906101000a900460ff1660ff16145b5b610f50576040517f08c379a0000000000000000000000000000000000000000000000000000000008152600401610f47906135db565b60405180910390fd5b60016000806101000a81548160ff021916908360ff1602179055508015610f8d576001600060016101000a81548160ff0219169083151502179055505b610f956125db565b610f9d61262c565b8260c960006101000a81548173ffffffffffffffffffffffffffffffffffffffff021916908373ffffffffffffffffffffffffffffffffffffffff1602179055508160ca60006101000a81548173ffffffffffffffffffffffffffffffffffffffff021916908373ffffffffffffffffffffffffffffffffffffffff160217905550611027612685565b80156110805760008060016101000a81548160ff0219169083151502179055507f7f26b83ff96e1f2b6a682f133852f6798a09c465da95921460cefb38474024986001604051611077919061343e565b60405180910390a15b505050565b61108d612223565b8060cd8190555050565b600060d960008373ffffffffffffffffffffffffffffffffffffffff1673ffffffffffffffffffffffffffffffffffffffff1681526020019081526020016000206005015442106110eb576000905061113c565b4260d960008473ffffffffffffffffffffffffffffffffffffffff1673ffffffffffffffffffffffffffffffffffffffff1681526020019081526020016000206005015461113991906138f1565b90505b919050565b7f000000000000000000000000000000000000000000000000000000000000000073ffffffffffffffffffffffffffffffffffffffff163073ffffffffffffffffffffffffffffffffffffffff1614156111d0576040517f08c379a00000000000000000000000000000000000000000000000000000000081526004016111c7906134fb565b60405180910390fd5b7f000000000000000000000000000000000000000000000000000000000000000073ffffffffffffffffffffffffffffffffffffffff1661120f6123d9565b73ffffffffffffffffffffffffffffffffffffffff1614611265576040517f08c379a000000000000000000000000000000000000000000000000000000000815260040161125c9061351b565b60405180910390fd5b61126e82612430565b61127a8282600161243b565b5050565b611286612223565b8060ca60006101000a81548173ffffffffffffffffffffffffffffffffffffffff021916908373ffffffffffffffffffffffffffffffffffffffff16021790555050565b60007f000000000000000000000000000000000000000000000000000000000000000073ffffffffffffffffffffffffffffffffffffffff163073ffffffffffffffffffffffffffffffffffffffff161461135a576040517f08c379a00000000000000000000000000000000000000000000000000000000081526004016113519061355b565b60405180910390fd5b7f360894a13ba1a3210667c828492db98dca3e2076cc3735a920a3ca505d382bbc60001b905090565b600060d154905090565b600080151560da60008473ffffffffffffffffffffffffffffffffffffffff1673ffffffffffffffffffffffffffffffffffffffff16815260200190815260200160002060009054906101000a900460ff16151514156113f05760009050611449565b600060d960008473ffffffffffffffffffffffffffffffffffffffff1673ffffffffffffffffffffffffffffffffffffffff1681526020019081526020016000206000015411156114445760019050611449565b600290505b919050565b600060cb54905090565b611460612223565b8060d08190555050565b611472612223565b61147c60006126dd565b565b600060d960008373ffffffffffffffffffffffffffffffffffffffff1673ffffffffffffffffffffffffffffffffffffffff168152602001908152602001600020600001549050919050565b6000609760009054906101000a900473ffffffffffffffffffffffffffffffffffffffff16905090565b6114fc612223565b60c960009054906101000a900473ffffffffffffffffffffffffffffffffffffffff1673ffffffffffffffffffffffffffffffffffffffff1663a9059cbb83836040518363ffffffff1660e01b81526004016115599291906133a8565b602060405180830381600087803b15801561157357600080fd5b505af1158015611587573d6000803e3d6000fd5b505050506040513d601f19601f820116820180604052508101906115ab9190612ef4565b505050565b6115b8612223565b606481106115fb576040517f08c379a00000000000000000000000000000000000000000000000000000000081526004016115f29061353b565b60405180910390fd5b8060d18190555050565b600060d960008373ffffffffffffffffffffffffffffffffffffffff1673ffffffffffffffffffffffffffffffffffffffff168152602001908152602001600020600101549050919050565b600060d25414158015611666575060d2544210155b6116a5576040517f08c379a000000000000000000000000000000000000000000000000000000000815260040161169c906135fb565b60405180910390fd5b60d3544211156116ea576040517f08c379a00000000000000000000000000000000000000000000000000000000081526004016116e1906135fb565b60405180910390fd5b6000811161172d576040517f08c379a0000000000000000000000000000000000000000000000000000000008152600401611724906134db565b60405180910390fd5b600060d960003373ffffffffffffffffffffffffffffffffffffffff1673ffffffffffffffffffffffffffffffffffffffff16815260200190815260200160002060000154905060cb5481836117839190613810565b10156117c4576040517f08c379a00000000000000000000000000000000000000000000000000000000081526004016117bb906136db565b60405180910390fd5b60cc5481836117d39190613810565b1115611814576040517f08c379a000000000000000000000000000000000000000000000000000000000815260040161180b9061359b565b60405180910390fd5b60c960009054906101000a900473ffffffffffffffffffffffffffffffffffffffff1673ffffffffffffffffffffffffffffffffffffffff166323b872dd3330856040518463ffffffff1660e01b815260040161187393929190613371565b602060405180830381600087803b15801561188d57600080fd5b505af11580156118a1573d6000803e3d6000fd5b505050506040513d601f19601f820116820180604052508101906118c59190612ef4565b5060006118d1336122a1565b90508260d960003373ffffffffffffffffffffffffffffffffffffffff1673ffffffffffffffffffffffffffffffffffffffff16815260200190815260200160002060000160008282546119259190613810565b925050819055508060d960003373ffffffffffffffffffffffffffffffffffffffff1673ffffffffffffffffffffffffffffffffffffffff168152602001908152602001600020600301600082825461197e9190613810565b925050819055504260d960003373ffffffffffffffffffffffffffffffffffffffff1673ffffffffffffffffffffffffffffffffffffffff16815260200190815260200160002060010181905550600060d960003373ffffffffffffffffffffffffffffffffffffffff1673ffffffffffffffffffffffffffffffffffffffff168152602001908152602001600020600201541415611a5f574260d960003373ffffffffffffffffffffffffffffffffffffffff1673ffffffffffffffffffffffffffffffffffffffff168152602001908152602001600020600201819055505b8260d46000828254611a719190613810565b92505081905550600160da60003373ffffffffffffffffffffffffffffffffffffffff1673ffffffffffffffffffffffffffffffffffffffff16815260200190815260200160002060006101000a81548160ff0219169083151502179055503373ffffffffffffffffffffffffffffffffffffffff167febedb8b3c678666e7f36970bc8f57abf6d8fa2e828c0da91ea5b75bf68ed101a84604051611b16919061371b565b60405180910390a2505050565b611b2b612223565b4260d381905550565b6000611b3e6123d9565b905090565b600060cc54905090565b600060cf5460d960008473ffffffffffffffffffffffffffffffffffffffff1673ffffffffffffffffffffffffffffffffffffffff16815260200190815260200160002060020154611b9f9190613810565b9050919050565b6001151560da60003373ffffffffffffffffffffffffffffffffffffffff1673ffffffffffffffffffffffffffffffffffffffff16815260200190815260200160002060009054906101000a900460ff16151514611c39576040517f08c379a0000000000000000000000000000000000000000000000000000000008152600401611c309061369b565b60405180910390fd5b60cf5460d960003373ffffffffffffffffffffffffffffffffffffffff1673ffffffffffffffffffffffffffffffffffffffff16815260200190815260200160002060020154611c899190613810565b4211611cca576040517f08c379a0000000000000000000000000000000000000000000000000000000008152600401611cc19061347b565b60405180910390fd5b6000611cd5336122a1565b905060008160d960003373ffffffffffffffffffffffffffffffffffffffff1673ffffffffffffffffffffffffffffffffffffffff16815260200190815260200160002060030154611d279190613810565b90506000811115611ee457600060d960003373ffffffffffffffffffffffffffffffffffffffff1673ffffffffffffffffffffffffffffffffffffffff1681526020019081526020016000206003018190555060ca60009054906101000a900473ffffffffffffffffffffffffffffffffffffffff1673ffffffffffffffffffffffffffffffffffffffff1663156e29f63360d554846040518463ffffffff1660e01b8152600401611ddb939291906133d1565b600060405180830381600087803b158015611df557600080fd5b505af1158015611e09573d6000803e3d6000fd5b5050505060cf54611e19336127a3565b611e239190613897565b60d960003373ffffffffffffffffffffffffffffffffffffffff1673ffffffffffffffffffffffffffffffffffffffff1681526020019081526020016000206001016000828254611e749190613810565b9250508190555060cf54611e86612828565b611e909190613897565b60d254611e9d9190613810565b60d960003373ffffffffffffffffffffffffffffffffffffffff1673ffffffffffffffffffffffffffffffffffffffff168152602001908152602001600020600201819055505b3373ffffffffffffffffffffffffffffffffffffffff167f34fcbac0073d7c3d388e51312faf357774904998eeb8fca628b9e6f65ee1cbf760d55483604051611f2e92919061375f565b60405180910390a25050565b600060d960003373ffffffffffffffffffffffffffffffffffffffff1673ffffffffffffffffffffffffffffffffffffffff1681526020019081526020016000206004015411611fbf576040517f08c379a0000000000000000000000000000000000000000000000000000000008152600401611fb69061367b565b60405180910390fd5b600060d960003373ffffffffffffffffffffffffffffffffffffffff1673ffffffffffffffffffffffffffffffffffffffff168152602001908152602001600020600501544210612011576000612014565b60015b90506000612022338361285a565b90503373ffffffffffffffffffffffffffffffffffffffff167fb8d9ba25e48d59fdf3ff7de8ead33e6be7cb962255a3690a98984f98c2d07e15828460405161206c929190613736565b60405180910390a25050565b600060d454905090565b600060d960008373ffffffffffffffffffffffffffffffffffffffff1673ffffffffffffffffffffffffffffffffffffffff168152602001908152602001600020600301546120d0836122a1565b6120da9190613810565b9050919050565b600060da60008373ffffffffffffffffffffffffffffffffffffffff1673ffffffffffffffffffffffffffffffffffffffff16815260200190815260200160002060009054906101000a900460ff169050919050565b61213f612223565b4260d281905550621baf8060d2546121579190613810565b60d381905550565b612167612223565b8060cb8190555050565b612179612223565b8060cf8190555050565b600060cd54905090565b612195612223565b600073ffffffffffffffffffffffffffffffffffffffff168173ffffffffffffffffffffffffffffffffffffffff161415612205576040517f08c379a00000000000000000000000000000000000000000000000000000000081526004016121fc9061349b565b60405180910390fd5b61220e816126dd565b50565b612219612223565b8060cc8190555050565b61222b6129d3565b73ffffffffffffffffffffffffffffffffffffffff166122496114ca565b73ffffffffffffffffffffffffffffffffffffffff161461229f576040517f08c379a00000000000000000000000000000000000000000000000000000000081526004016122969061365b565b60405180910390fd5b565b6000806122ad836127a3565b9050600060d960008573ffffffffffffffffffffffffffffffffffffffff1673ffffffffffffffffffffffffffffffffffffffff16815260200190815260200160002060010154905060008260cf546123069190613897565b826123119190613810565b9050600060cf5461232284846129db565b61232c9190613866565b90506000818561233c91906138f1565b905060cd54818360d6600201546123539190613897565b61235d9190613810565b60d960008a73ffffffffffffffffffffffffffffffffffffffff1673ffffffffffffffffffffffffffffffffffffffff168152602001908152602001600020600001546123aa9190613897565b6123b49190613866565b95505050505050919050565b60008183106123cf57816123d1565b825b905092915050565b60006124077f360894a13ba1a3210667c828492db98dca3e2076cc3735a920a3ca505d382bbc60001b612a35565b60000160009054906101000a900473ffffffffffffffffffffffffffffffffffffffff16905090565b612438612223565b50565b6124677f4910fdfa16fed3260ed0e7147f7cc6da11a60208b5b9406d12a635614ffd914360001b612a3f565b60000160009054906101000a900460ff161561248b5761248683612a49565b6125b3565b8273ffffffffffffffffffffffffffffffffffffffff166352d1902d6040518163ffffffff1660e01b815260040160206040518083038186803b1580156124d157600080fd5b505afa92505050801561250257506040513d601f19601f820116820180604052508101906124ff9190612f1d565b60015b612541576040517f08c379a00000000000000000000000000000000000000000000000000000000081526004016125389061361b565b60405180910390fd5b7f360894a13ba1a3210667c828492db98dca3e2076cc3735a920a3ca505d382bbc60001b81146125a6576040517f08c379a000000000000000000000000000000000000000000000000000000000815260040161259d906135bb565b60405180910390fd5b506125b2838383612b02565b5b505050565b6000808273ffffffffffffffffffffffffffffffffffffffff163b119050919050565b600060019054906101000a900460ff1661262a576040517f08c379a0000000000000000000000000000000000000000000000000000000008152600401612621906136fb565b60405180910390fd5b565b600060019054906101000a900460ff1661267b576040517f08c379a0000000000000000000000000000000000000000000000000000000008152600401612672906136fb565b60405180910390fd5b612683612b2e565b565b68d8d726b7177a80000060cb81905550690878678326eac900000060cc81905550690878678326eac900000060cd819055506201518060cf8190555062093a8060d081905550600060d281905550601960d181905550565b6000609760009054906101000a900473ffffffffffffffffffffffffffffffffffffffff16905081609760006101000a81548173ffffffffffffffffffffffffffffffffffffffff021916908373ffffffffffffffffffffffffffffffffffffffff1602179055508173ffffffffffffffffffffffffffffffffffffffff168173ffffffffffffffffffffffffffffffffffffffff167f8be0079c531659141344cd1fd0a4f28419497f9722a3daafe3b4186f6b6457e060405160405180910390a35050565b600080600060d354146127c1576127bc60d354426123c0565b6127c3565b425b905060cf5460d960008573ffffffffffffffffffffffffffffffffffffffff1673ffffffffffffffffffffffffffffffffffffffff168152602001908152602001600020600101548261281691906138f1565b6128209190613866565b915050919050565b60008060d25461283a4260d3546123c0565b61284491906138f1565b905060cf54816128549190613866565b91505090565b60008060d960008573ffffffffffffffffffffffffffffffffffffffff1673ffffffffffffffffffffffffffffffffffffffff16815260200190815260200160002060040154905082156128d157606460d15460646128b991906138f1565b826128c49190613897565b6128ce9190613866565b90505b600060d960008673ffffffffffffffffffffffffffffffffffffffff1673ffffffffffffffffffffffffffffffffffffffff1681526020019081526020016000206004018190555060c960009054906101000a900473ffffffffffffffffffffffffffffffffffffffff1673ffffffffffffffffffffffffffffffffffffffff1663a9059cbb85836040518363ffffffff1660e01b81526004016129769291906133a8565b602060405180830381600087803b15801561299057600080fd5b505af11580156129a4573d6000803e3d6000fd5b505050506040513d601f19601f820116820180604052508101906129c89190612ef4565b508091505092915050565b600033905090565b600060d660010154831015806129f6575060d6600001548211155b15612a045760009050612a2f565b612a138360d660000154612b8f565b612a228360d6600101546123c0565b612a2c91906138f1565b90505b92915050565b6000819050919050565b6000819050919050565b612a52816125b8565b612a91576040517f08c379a0000000000000000000000000000000000000000000000000000000008152600401612a889061363b565b60405180910390fd5b80612abe7f360894a13ba1a3210667c828492db98dca3e2076cc3735a920a3ca505d382bbc60001b612a35565b60000160006101000a81548173ffffffffffffffffffffffffffffffffffffffff021916908373ffffffffffffffffffffffffffffffffffffffff16021790555050565b612b0b83612ba9565b600082511180612b185750805b15612b2957612b278383612bf8565b505b505050565b600060019054906101000a900460ff16612b7d576040517f08c379a0000000000000000000000000000000000000000000000000000000008152600401612b74906136fb565b60405180910390fd5b612b8d612b886129d3565b6126dd565b565b600081831015612b9f5781612ba1565b825b905092915050565b612bb281612a49565b8073ffffffffffffffffffffffffffffffffffffffff167fbc7cd75a20ee27fd9adebab32041f755214dbc6bffa90cc0225b39da2e5c2d3b60405160405180910390a250565b6060612c03836125b8565b612c42576040517f08c379a0000000000000000000000000000000000000000000000000000000008152600401612c39906136bb565b60405180910390fd5b6000808473ffffffffffffffffffffffffffffffffffffffff1684604051612c6a919061333f565b600060405180830381855af49150503d8060008114612ca5576040519150601f19603f3d011682016040523d82523d6000602084013e612caa565b606091505b5091509150612cd2828260405180606001604052806027815260200161404f60279139612cdc565b9250505092915050565b60608315612cec57829050612d3c565b600083511115612cff5782518084602001fd5b816040517f08c379a0000000000000000000000000000000000000000000000000000000008152600401612d339190613459565b60405180910390fd5b9392505050565b6000612d56612d51846137ad565b613788565b905082815260208101848484011115612d6e57600080fd5b612d79848285613996565b509392505050565b600081359050612d9081613ff2565b92915050565b600081519050612da581614009565b92915050565b600081519050612dba81614020565b92915050565b600082601f830112612dd157600080fd5b8135612de1848260208601612d43565b91505092915050565b600081359050612df981614037565b92915050565b600060208284031215612e1157600080fd5b6000612e1f84828501612d81565b91505092915050565b60008060408385031215612e3b57600080fd5b6000612e4985828601612d81565b9250506020612e5a85828601612d81565b9150509250929050565b60008060408385031215612e7757600080fd5b6000612e8585828601612d81565b925050602083013567ffffffffffffffff811115612ea257600080fd5b612eae85828601612dc0565b9150509250929050565b60008060408385031215612ecb57600080fd5b6000612ed985828601612d81565b9250506020612eea85828601612dea565b9150509250929050565b600060208284031215612f0657600080fd5b6000612f1484828501612d96565b91505092915050565b600060208284031215612f2f57600080fd5b6000612f3d84828501612dab565b91505092915050565b600060208284031215612f5857600080fd5b6000612f6684828501612dea565b91505092915050565b60008060408385031215612f8257600080fd5b6000612f9085828601612dea565b9250506020612fa185828601612dea565b9150509250929050565b612fb481613925565b82525050565b612fc381613937565b82525050565b612fd281613943565b82525050565b6000612fe3826137de565b612fed81856137f4565b9350612ffd8185602086016139a5565b80840191505092915050565b61301281613984565b82525050565b6000613023826137e9565b61302d81856137ff565b935061303d8185602086016139a5565b61304681613a96565b840191505092915050565b600061305e601d836137ff565b915061306982613aa7565b602082019050919050565b60006130816026836137ff565b915061308c82613ad0565b604082019050919050565b60006130a46024836137ff565b91506130af82613b1f565b604082019050919050565b60006130c7601b836137ff565b91506130d282613b6e565b602082019050919050565b60006130ea602c836137ff565b91506130f582613b97565b604082019050919050565b600061310d602c836137ff565b915061311882613be6565b604082019050919050565b6000613130601a836137ff565b915061313b82613c35565b602082019050919050565b60006131536038836137ff565b915061315e82613c5e565b604082019050919050565b60006131766025836137ff565b915061318182613cad565b604082019050919050565b60006131996019836137ff565b91506131a482613cfc565b602082019050919050565b60006131bc6029836137ff565b91506131c782613d25565b604082019050919050565b60006131df602e836137ff565b91506131ea82613d74565b604082019050919050565b60006132026013836137ff565b915061320d82613dc3565b602082019050919050565b6000613225602e836137ff565b915061323082613dec565b604082019050919050565b6000613248602d836137ff565b915061325382613e3b565b604082019050919050565b600061326b6020836137ff565b915061327682613e8a565b602082019050919050565b600061328e6017836137ff565b915061329982613eb3565b602082019050919050565b60006132b16013836137ff565b91506132bc82613edc565b602082019050919050565b60006132d46026836137ff565b91506132df82613f05565b604082019050919050565b60006132f76032836137ff565b915061330282613f54565b604082019050919050565b600061331a602b836137ff565b915061332582613fa3565b604082019050919050565b6133398161396d565b82525050565b600061334b8284612fd8565b915081905092915050565b600060208201905061336b6000830184612fab565b92915050565b60006060820190506133866000830186612fab565b6133936020830185612fab565b6133a06040830184613330565b949350505050565b60006040820190506133bd6000830185612fab565b6133ca6020830184613330565b9392505050565b60006060820190506133e66000830186612fab565b6133f36020830185613330565b6134006040830184613330565b949350505050565b600060208201905061341d6000830184612fba565b92915050565b60006020820190506134386000830184612fc9565b92915050565b60006020820190506134536000830184613009565b92915050565b600060208201905081810360008301526134738184613018565b905092915050565b6000602082019050818103600083015261349481613051565b9050919050565b600060208201905081810360008301526134b481613074565b9050919050565b600060208201905081810360008301526134d481613097565b9050919050565b600060208201905081810360008301526134f4816130ba565b9050919050565b60006020820190508181036000830152613514816130dd565b9050919050565b6000602082019050818103600083015261353481613100565b9050919050565b6000602082019050818103600083015261355481613123565b9050919050565b6000602082019050818103600083015261357481613146565b9050919050565b6000602082019050818103600083015261359481613169565b9050919050565b600060208201905081810360008301526135b48161318c565b9050919050565b600060208201905081810360008301526135d4816131af565b9050919050565b600060208201905081810360008301526135f4816131d2565b9050919050565b60006020820190508181036000830152613614816131f5565b9050919050565b6000602082019050818103600083015261363481613218565b9050919050565b600060208201905081810360008301526136548161323b565b9050919050565b600060208201905081810360008301526136748161325e565b9050919050565b6000602082019050818103600083015261369481613281565b9050919050565b600060208201905081810360008301526136b4816132a4565b9050919050565b600060208201905081810360008301526136d4816132c7565b9050919050565b600060208201905081810360008301526136f4816132ea565b9050919050565b600060208201905081810360008301526137148161330d565b9050919050565b60006020820190506137306000830184613330565b92915050565b600060408201905061374b6000830185613330565b6137586020830184612fba565b9392505050565b60006040820190506137746000830185613330565b6137816020830184613330565b9392505050565b60006137926137a3565b905061379e82826139d8565b919050565b6000604051905090565b600067ffffffffffffffff8211156137c8576137c7613a67565b5b6137d182613a96565b9050602081019050919050565b600081519050919050565b600081519050919050565b600081905092915050565b600082825260208201905092915050565b600061381b8261396d565b91506138268361396d565b9250827fffffffffffffffffffffffffffffffffffffffffffffffffffffffffffffffff0382111561385b5761385a613a09565b5b828201905092915050565b60006138718261396d565b915061387c8361396d565b92508261388c5761388b613a38565b5b828204905092915050565b60006138a28261396d565b91506138ad8361396d565b9250817fffffffffffffffffffffffffffffffffffffffffffffffffffffffffffffffff04831182151516156138e6576138e5613a09565b5b828202905092915050565b60006138fc8261396d565b91506139078361396d565b92508282101561391a57613919613a09565b5b828203905092915050565b60006139308261394d565b9050919050565b60008115159050919050565b6000819050919050565b600073ffffffffffffffffffffffffffffffffffffffff82169050919050565b6000819050919050565b600060ff82169050919050565b600061398f82613977565b9050919050565b82818337600083830152505050565b60005b838110156139c35780820151818401526020810190506139a8565b838111156139d2576000848401525b50505050565b6139e182613a96565b810181811067ffffffffffffffff82111715613a00576139ff613a67565b5b80604052505050565b7f4e487b7100000000000000000000000000000000000000000000000000000000600052601160045260246000fd5b7f4e487b7100000000000000000000000000000000000000000000000000000000600052601260045260246000fd5b7f4e487b7100000000000000000000000000000000000000000000000000000000600052604160045260246000fd5b6000601f19601f8301169050919050565b7f43616e6e6f7420636c61696d206e6f772e20506c656173652077616974000000600082015250565b7f4f776e61626c653a206e6577206f776e657220697320746865207a65726f206160008201527f6464726573730000000000000000000000000000000000000000000000000000602082015250565b7f756e7374616b6520616d6f756e742065786365656473207374616b656420616d60008201527f6f756e7400000000000000000000000000000000000000000000000000000000602082015250565b7f7374616b6520616d6f756e742063616e6e6f74206265207a65726f0000000000600082015250565b7f46756e6374696f6e206d7573742062652063616c6c6564207468726f7567682060008201527f64656c656761746563616c6c0000000000000000000000000000000000000000602082015250565b7f46756e6374696f6e206d7573742062652063616c6c6564207468726f7567682060008201527f6163746976652070726f78790000000000000000000000000000000000000000602082015250565b7f70656e616c7479526174652063616e6e6f742062652031303025000000000000600082015250565b7f555550535570677261646561626c653a206d757374206e6f742062652063616c60008201527f6c6564207468726f7567682064656c656761746563616c6c0000000000000000602082015250565b7f70726f6d6f74696f6e2072617465206d7573742062652067726561746572207460008201527f68616e2031000000000000000000000000000000000000000000000000000000602082015250565b7f65786365656420746f74616c207374616b6520616d6f756e7400000000000000600082015250565b7f45524331393637557067726164653a20756e737570706f727465642070726f7860008201527f6961626c65555549440000000000000000000000000000000000000000000000602082015250565b7f496e697469616c697a61626c653a20636f6e747261637420697320616c72656160008201527f647920696e697469616c697a6564000000000000000000000000000000000000602082015250565b7f506f6f6c206973206e6f74206f70656e696e6700000000000000000000000000600082015250565b7f45524331393637557067726164653a206e657720696d706c656d656e7461746960008201527f6f6e206973206e6f742055555053000000000000000000000000000000000000602082015250565b7f455243313936373a206e657720696d706c656d656e746174696f6e206973206e60008201527f6f74206120636f6e747261637400000000000000000000000000000000000000602082015250565b7f4f776e61626c653a2063616c6c6572206973206e6f7420746865206f776e6572600082015250565b7f756e7374616b65206265666f7265207769746864726177000000000000000000600082015250565b7f5374616b65206265666f726520636c61696d2100000000000000000000000000600082015250565b7f416464726573733a2064656c65676174652063616c6c20746f206e6f6e2d636f60008201527f6e74726163740000000000000000000000000000000000000000000000000000602082015250565b7f7374616b6520616d6f756e74206c657373207468616e206d696e696d756d207360008201527f74616b696e6720726571756972656d656e740000000000000000000000000000602082015250565b7f496e697469616c697a61626c653a20636f6e7472616374206973206e6f74206960008201527f6e697469616c697a696e67000000000000000000000000000000000000000000602082015250565b613ffb81613925565b811461400657600080fd5b50565b61401281613937565b811461401d57600080fd5b50565b61402981613943565b811461403457600080fd5b50565b6140408161396d565b811461404b57600080fd5b5056fe416464726573733a206c6f772d6c6576656c2064656c65676174652063616c6c206661696c6564a264697066735822122034c7273adb6f7f8ecea1bf4dbfdb390fe8448cc8dd28e509027d194ad0d3454a64736f6c63430008040033",
  "linkReferences": {},
  "deployedLinkReferences": {}
}